{
	"data": {
		"bytecode": {
			"linkReferences": {},
			"object": "60806040526040805190810160405280600381526020017f302e330000000000000000000000000000000000000000000000000000000000815250600090805190602001906200005192919062000f56565b503480156200005f57600080fd5b50701c35fedd14ffffffffffffffffffffffff600160206080811015156200008357fe5b0181905550701b0ce43b323fffffffffffffffffffffff60016021608081101515620000ab57fe5b01819055507019f0028ec1ffffffffffffffffffffffff60016022608081101515620000d357fe5b01819055507018ded91f0e7fffffffffffffffffffffff60016023608081101515620000fb57fe5b01819055507017d8ec7f0417ffffffffffffffffffffff600160246080811015156200012357fe5b01819055507016ddc6556cdbffffffffffffffffffffff600160256080811015156200014b57fe5b01819055507015ecf52776a1ffffffffffffffffffffff600160266080811015156200017357fe5b01819055507015060c256cb2ffffffffffffffffffffff600160276080811015156200019b57fe5b0181905550701428a2f98d72ffffffffffffffffffffff60016028608081101515620001c357fe5b01819055507013545598e5c23fffffffffffffffffffff60016029608081101515620001eb57fe5b0181905550701288c4161ce1dfffffffffffffffffffff6001602a6080811015156200021357fe5b01819055507011c592761c666fffffffffffffffffffff6001602b6080811015156200023b57fe5b018190555070110a688680a757ffffffffffffffffffff6001602c6080811015156200026357fe5b0181905550701056f1b5bedf77ffffffffffffffffffff6001602d6080811015156200028b57fe5b0181905550700faadceceeff8bffffffffffffffffffff6001602e608081101515620002b357fe5b0181905550700f05dc6b27edadffffffffffffffffffff6001602f608081101515620002db57fe5b0181905550700e67a5a25da4107fffffffffffffffffff600160306080811015156200030357fe5b0181905550700dcff115b14eedffffffffffffffffffff600160316080811015156200032b57fe5b0181905550700d3e7a392431239fffffffffffffffffff600160326080811015156200035357fe5b0181905550700cb2ff529eb71e4fffffffffffffffffff600160336080811015156200037b57fe5b0181905550700c2d415c3db974afffffffffffffffffff60016034608081101515620003a357fe5b0181905550700bad03e7d883f69bffffffffffffffffff60016035608081101515620003cb57fe5b0181905550700b320d03b2c343d5ffffffffffffffffff60016036608081101515620003f357fe5b0181905550700abc25204e02828dffffffffffffffffff600160376080811015156200041b57fe5b0181905550700a4b16f74ee4bb207fffffffffffffffff600160386080811015156200044357fe5b01819055507009deaf736ac1f569ffffffffffffffffff600160396080811015156200046b57fe5b0181905550700976bd9952c7aa957fffffffffffffffff6001603a6080811015156200049357fe5b01819055507009131271922eaa606fffffffffffffffff6001603b608081101515620004bb57fe5b01819055507008b380f3558668c46fffffffffffffffff6001603c608081101515620004e357fe5b0181905550700857ddf0117efa215bffffffffffffffff6001603d6080811015156200050b57fe5b01819055507007ffffffffffffffffffffffffffffffff6001603e6080811015156200053357fe5b01819055507007abbf6f6abb9d087fffffffffffffffff6001603f6080811015156200055b57fe5b018190555070075af62cbac95f7dfa7fffffffffffffff600160406080811015156200058357fe5b018190555070070d7fb7452e187ac13fffffffffffffff60016041608081101515620005ab57fe5b01819055507006c3390ecc8af379295fffffffffffffff60016042608081101515620005d357fe5b018190555070067c00a3b07ffc01fd6fffffffffffffff60016043608081101515620005fb57fe5b0181905550700637b647c39cbb9d3d27ffffffffffffff600160446080811015156200062357fe5b01819055507005f63b1fc104dbd39587ffffffffffffff600160456080811015156200064b57fe5b01819055507005b771955b36e12f7235ffffffffffffff600160466080811015156200067357fe5b018190555070057b3d49dda84556d6f6ffffffffffffff600160476080811015156200069b57fe5b018190555070054183095b2c8ececf30ffffffffffffff60016048608081101515620006c357fe5b018190555070050a28be635ca2b888f77fffffffffffff60016049608081101515620006eb57fe5b01819055507004d5156639708c9db33c3fffffffffffff6001604a6080811015156200071357fe5b01819055507004a23105873875bd52dfdfffffffffffff6001604b6080811015156200073b57fe5b0181905550700471649d87199aa990756fffffffffffff6001604c6080811015156200076357fe5b01819055507004429a21a029d4c1457cfbffffffffffff6001604d6080811015156200078b57fe5b0181905550700415bc6d6fb7dd71af2cb3ffffffffffff6001604e608081101515620007b357fe5b01819055507003eab73b3bbfe282243ce1ffffffffffff6001604f608081101515620007db57fe5b01819055507003c1771ac9fb6b4c18e229ffffffffffff600160506080811015156200080357fe5b0181905550700399e96897690418f785257fffffffffff600160516080811015156200082b57fe5b0181905550700373fc456c53bb779bf0ea9fffffffffff600160526080811015156200085357fe5b018190555070034f9e8e490c48e67e6ab8bfffffffffff600160536080811015156200087b57fe5b018190555070032cbfd4a7adc790560b3337ffffffffff60016054608081101515620008a357fe5b018190555070030b50570f6e5d2acca94613ffffffffff60016055608081101515620008cb57fe5b01819055507002eb40f9f620fda6b56c2861ffffffffff60016056608081101515620008f357fe5b01819055507002cc8340ecb0d0f520a6af58ffffffffff600160576080811015156200091b57fe5b01819055507002af09481380a0a35cf1ba02ffffffffff600160586080811015156200094357fe5b0181905550700292c5bdd3b92ec810287b1b3fffffffff600160596080811015156200096b57fe5b0181905550700277abdcdab07d5a77ac6d6b9fffffffff6001605a6080811015156200099357fe5b018190555070025daf6654b1eaa55fd64df5efffffffff6001605b608081101515620009bb57fe5b0181905550700244c49c648baa98192dce88b7ffffffff6001605c608081101515620009e357fe5b018190555070022ce03cd5619a311b2471268bffffffff6001605d60808110151562000a0b57fe5b0181905550700215f77c045fbe885654a44a0fffffffff6001605e60808110151562000a3357fe5b01819055507001ffffffffffffffffffffffffffffffff6001605f60808110151562000a5b57fe5b01819055507001eaefdbdaaee7421fc4d3ede5ffffffff6001606060808110151562000a8357fe5b01819055507001d6bd8b2eb257df7e8ca57b09bfffffff6001606160808110151562000aab57fe5b01819055507001c35fedd14b861eb0443f7f133fffffff6001606260808110151562000ad357fe5b01819055507001b0ce43b322bcde4a56e8ada5afffffff6001606360808110151562000afb57fe5b018190555070019f0028ec1fff007f5a195a39dfffffff6001606460808110151562000b2357fe5b018190555070018ded91f0e72ee74f49b15ba527ffffff6001606560808110151562000b4b57fe5b018190555070017d8ec7f04136f4e5615fd41a63ffffff6001606660808110151562000b7357fe5b018190555070016ddc6556cdb84bdc8d12d22e6fffffff6001606760808110151562000b9b57fe5b018190555070015ecf52776a1155b5bd8395814f7fffff6001606860808110151562000bc357fe5b018190555070015060c256cb23b3b3cc3754cf40ffffff6001606960808110151562000beb57fe5b01819055507001428a2f98d728ae223ddab715be3fffff6001606a60808110151562000c1357fe5b018190555070013545598e5c23276ccf0ede68034fffff6001606b60808110151562000c3b57fe5b01819055507001288c4161ce1d6f54b7f61081194fffff6001606c60808110151562000c6357fe5b018190555070011c592761c666aa641d5a01a40f17ffff6001606d60808110151562000c8b57fe5b0181905550700110a688680a7530515f3e6e6cfdcdffff6001606e60808110151562000cb357fe5b01819055507001056f1b5bedf75c6bcb2ce8aed428ffff6001606f60808110151562000cdb57fe5b01819055506ffaadceceeff8a0890f3875f008277fff6001607060808110151562000d0257fe5b01819055506ff05dc6b27edad306388a600f6ba0bfff6001607160808110151562000d2957fe5b01819055506fe67a5a25da41063de1495d5b18cdbfff6001607260808110151562000d5057fe5b01819055506fdcff115b14eedde6fc3aa5353f2e4fff6001607360808110151562000d7757fe5b01819055506fd3e7a3924312399f9aae2e0f868f8fff6001607460808110151562000d9e57fe5b01819055506fcb2ff529eb71e41582cccd5a1ee26fff6001607560808110151562000dc557fe5b01819055506fc2d415c3db974ab32a51840c0b67edff6001607660808110151562000dec57fe5b01819055506fbad03e7d883f69ad5b0a186184e06bff6001607760808110151562000e1357fe5b01819055506fb320d03b2c343d4829abd6075f0cc5ff6001607860808110151562000e3a57fe5b01819055506fabc25204e02828d73c6e80bcdb1a95bf6001607960808110151562000e6157fe5b01819055506fa4b16f74ee4bb2040a1ec6c15fbbf2df6001607a60808110151562000e8857fe5b01819055506f9deaf736ac1f569deb1b5ae3f36c130f6001607b60808110151562000eaf57fe5b01819055506f976bd9952c7aa957f5937d790ef650376001607c60808110151562000ed657fe5b01819055506f9131271922eaa6064b73a22d0bd4f2bf6001607d60808110151562000efd57fe5b01819055506f8b380f3558668c46c91c49a2f8e967b96001607e60808110151562000f2457fe5b01819055506f857ddf0117efa215952912839f6473e66001607f60808110151562000f4b57fe5b018190555062001005565b828054600181600116156101000203166002900490600052602060002090601f016020900481019282601f1062000f9957805160ff191683800117855562000fca565b8280016001018555821562000fca579182015b8281111562000fc957825182559160200191906001019062000fac565b5b50905062000fd9919062000fdd565b5090565b6200100291905b8082111562000ffe57600081600090555060010162000fe4565b5090565b90565b611cc280620010156000396000f3006080604052600436106100af576000357c0100000000000000000000000000000000000000000000000000000000900463ffffffff16806329a00e7c146100b45780633e8a38ab146101195780634982d52d1461015a57806349f9b0f71461019b57806354fd4d501461020057806365098bb3146102905780636cab5055146103055780638c5ce82a14610353578063a25a34b1146103cb578063acdee8cb14610412578063ce782e0814610453575b600080fd5b3480156100c057600080fd5b506101036004803603810190808035906020019092919080359060200190929190803563ffffffff1690602001909291908035906020019092919050505061049a565b6040518082815260200191505060405180910390f35b34801561012557600080fd5b5061014460048036038101908080359060200190929190505050610594565b6040518082815260200191505060405180910390f35b34801561016657600080fd5b50610185600480360381019080803590602001909291905050506105a6565b6040518082815260200191505060405180910390f35b3480156101a757600080fd5b506101ea6004803603810190808035906020019092919080359060200190929190803563ffffffff169060200190929190803590602001909291905050506105b8565b6040518082815260200191505060405180910390f35b34801561020c57600080fd5b506102156106ce565b6040518080602001828103825283818151815260200191508051906020019080838360005b8381101561025557808201518184015260208101905061023a565b50505050905090810190601f1680156102825780820380516001836020036101000a031916815260200191505b509250505060405180910390f35b34801561029c57600080fd5b506102ef60048036038101908080359060200190929190803563ffffffff16906020019092919080359060200190929190803563ffffffff1690602001909291908035906020019092919050505061076c565b6040518082815260200191505060405180910390f35b34801561031157600080fd5b5061033d60048036038101908080359060200190929190803560ff16906020019092919050505061089e565b6040518082815260200191505060405180910390f35b34801561035f57600080fd5b506103a86004803603810190808035906020019092919080359060200190929190803563ffffffff169060200190929190803563ffffffff1690602001909291905050506108b2565b604051808381526020018260ff1660ff1681526020019250505060405180910390f35b3480156103d757600080fd5b506103f6600480360381019080803590602001909291905050506108ce565b604051808260ff1660ff16815260200191505060405180910390f35b34801561041e57600080fd5b5061043d600480360381019080803590602001909291905050506108e0565b6040518082815260200191505060405180910390f35b34801561045f57600080fd5b5061047e600480360381019080803590602001909291905050506108f2565b604051808260ff1660ff16815260200191505060405180910390f35b600080600080600080891180156104b15750600088115b80156104c3575060008763ffffffff16115b80156104de5750620f424063ffffffff168763ffffffff1611155b15156104e957600080fd5b60008614156104fb5760009450610588565b620f424063ffffffff168763ffffffff1614156105375787610526878b61090490919063ffffffff16565b81151561052f57fe5b049450610588565b61054a888761094290919063ffffffff16565b915061055b828989620f4240610963565b80945081955050508260ff1661057a858b61090490919063ffffffff16565b9060020a9004905088810394505b50505050949350505050565b600061059f82610a5e565b9050919050565b60006105b18261102d565b9050919050565b60008060008060008060008a1180156105d15750600089115b80156105e3575060008863ffffffff16115b80156105fe5750620f424063ffffffff168863ffffffff1611155b801561060a5750898711155b151561061557600080fd5b600087141561062757600095506106c1565b89871415610637578895506106c1565b620f424063ffffffff168863ffffffff1614156106735789610662888b61090490919063ffffffff16565b81151561066b57fe5b0495506106c1565b868a0392506106878a84620f42408b610963565b80955081965050506106a2858a61090490919063ffffffff16565b91508360ff16899060020a029050848183038115156106bd57fe5b0495505b5050505050949350505050565b60008054600181600116156101000203166002900480601f0160208091040260200160405190810160405280929190818152602001828054600181600116156101000203166002900480156107645780601f1061073957610100808354040283529160200191610764565b820191906000526020600020905b81548152906001019060200180831161074757829003601f168201915b505050505081565b60008060008060008060008b11801561078b575060008a63ffffffff16115b80156107a65750620f424063ffffffff168a63ffffffff1611155b80156107b25750600089115b80156107c4575060008863ffffffff16115b80156107df5750620f424063ffffffff168863ffffffff1611155b15156107ea57600080fd5b8763ffffffff168a63ffffffff16141561083557610811878c61094290919063ffffffff16565b610824888b61090490919063ffffffff16565b81151561082d57fe5b049550610890565b610848878c61094290919063ffffffff16565b9250610856838c8c8b610963565b8095508196505050610871858a61090490919063ffffffff16565b91508360ff16899060020a0290508481830381151561088c57fe5b0495505b505050505095945050505050565b60006108aa8383611163565b905092915050565b6000806108c186868686610963565b9150915094509492505050565b60006108d982611587565b9050919050565b60006108eb8261164a565b9050919050565b60006108fd82611c0a565b9050919050565b6000806000841415610919576000915061093b565b828402905082848281151561092a57fe5b0414151561093757600080fd5b8091505b5092915050565b600080828401905083811015151561095957600080fd5b8091505092915050565b6000806000806000807002000000000000000000000000000000008a10151561098b57600080fd5b886f800000000000000000000000000000008b028115156109a857fe5b04925070015bf0a8b1457695355fb8ac404e7a79e38310156109d4576109cd83610a5e565b93506109e0565b6109dd8361102d565b93505b8663ffffffff168863ffffffff1685028115156109f957fe5b049150700800000000000000000000000000000000821015610a2957610a1e8261164a565b607f95509550610a51565b610a3282611587565b9050610a4b81607f0360ff16839060020a900482611163565b81955095505b5050505094509492505050565b60008060008060008093506fd3094c70f034de4b96ff7d5b6f99fcd886101515610ac8576f40000000000000000000000000000000840193506fd3094c70f034de4b96ff7d5b6f99fcd86f800000000000000000000000000000008702811515610ac457fe5b0495505b6fa45af1e1f40c333b3de1db4dd55f29a786101515610b27576f20000000000000000000000000000000840193506fa45af1e1f40c333b3de1db4dd55f29a76f800000000000000000000000000000008702811515610b2357fe5b0495505b6f910b022db7ae67ce76b441c27035c6a186101515610b86576f10000000000000000000000000000000840193506f910b022db7ae67ce76b441c27035c6a16f800000000000000000000000000000008702811515610b8257fe5b0495505b6f88415abbe9a76bead8d00cf112e4d4a886101515610be5576f08000000000000000000000000000000840193506f88415abbe9a76bead8d00cf112e4d4a86f800000000000000000000000000000008702811515610be157fe5b0495505b6f84102b00893f64c705e841d5d4064bd386101515610c44576f04000000000000000000000000000000840193506f84102b00893f64c705e841d5d4064bd36f800000000000000000000000000000008702811515610c4057fe5b0495505b6f8204055aaef1c8bd5c3259f4822735a286101515610ca3576f02000000000000000000000000000000840193506f8204055aaef1c8bd5c3259f4822735a26f800000000000000000000000000000008702811515610c9f57fe5b0495505b6f810100ab00222d861931c15e39b44e9986101515610d02576f01000000000000000000000000000000840193506f810100ab00222d861931c15e39b44e996f800000000000000000000000000000008702811515610cfe57fe5b0495505b6f808040155aabbbe9451521693554f73386101515610d60576e800000000000000000000000000000840193506f808040155aabbbe9451521693554f7336f800000000000000000000000000000008702811515610d5c57fe5b0495505b6f80000000000000000000000000000000860392508291506f80000000000000000000000000000000838402811515610d9557fe5b04905070010000000000000000000000000000000083700100000000000000000000000000000000038302811515610dc957fe5b04840193506f80000000000000000000000000000000818302811515610deb57fe5b049150700200000000000000000000000000000000836faaaaaaaaaaaaaaaaaaaaaaaaaaaaaaaa038302811515610e1e57fe5b04840193506f80000000000000000000000000000000818302811515610e4057fe5b049150700300000000000000000000000000000000836f99999999999999999999999999999999038302811515610e7357fe5b04840193506f80000000000000000000000000000000818302811515610e9557fe5b049150700400000000000000000000000000000000836f92492492492492492492492492492492038302811515610ec857fe5b04840193506f80000000000000000000000000000000818302811515610eea57fe5b049150700500000000000000000000000000000000836f8e38e38e38e38e38e38e38e38e38e38e038302811515610f1d57fe5b04840193506f80000000000000000000000000000000818302811515610f3f57fe5b049150700600000000000000000000000000000000836f8ba2e8ba2e8ba2e8ba2e8ba2e8ba2e8b038302811515610f7257fe5b04840193506f80000000000000000000000000000000818302811515610f9457fe5b049150700700000000000000000000000000000000836f89d89d89d89d89d89d89d89d89d89d89038302811515610fc757fe5b04840193506f80000000000000000000000000000000818302811515610fe957fe5b049150700800000000000000000000000000000000836f8888888888888888888888888888888803830281151561101c57fe5b048401935083945050505050919050565b600080600080600092507001000000000000000000000000000000008510151561109d576110756f800000000000000000000000000000008681151561106f57fe5b04611c0a565b91508160ff16859060020a900494506f800000000000000000000000000000008260ff160292505b6f8000000000000000000000000000000085111561112b57607f90505b60008160ff16111561112a576f800000000000000000000000000000008586028115156110e357fe5b0494507001000000000000000000000000000000008510151561111e576001859060020a900494506001810360ff1660019060020a02830192505b806001900390506110ba565b5b6f05b9de1d10bf4103d647b0955897ba806f03f80fe03f80fe03f80fe03f80fe03f8840281151561115857fe5b049350505050919050565b6000806000849150600090508360ff168583029060020a900491506f03442c4e6074a82f1797f72ac00000008202810190508360ff168583029060020a900491506f0116b96f757c380fb287fd0e400000008202810190508360ff168583029060020a900491506e45ae5bdd5f0e03eca1ff43900000008202810190508360ff168583029060020a900491506e0defabf91302cd95b9ffda500000008202810190508360ff168583029060020a900491506e02529ca9832b22439efff9b80000008202810190508360ff168583029060020a900491506d54f1cf12bd04e516b6da880000008202810190508360ff168583029060020a900491506d0a9e39e257a09ca2d6db510000008202810190508360ff168583029060020a900491506d012e066e7b839fa050c3090000008202810190508360ff168583029060020a900491506c1e33d7d926c329a1ad1a8000008202810190508360ff168583029060020a900491506c02bee513bdb4a6b19b5f8000008202810190508360ff168583029060020a900491506b3a9316fa79b88eccf2a000008202810190508360ff168583029060020a900491506b048177ebe1fa8123752000008202810190508360ff168583029060020a900491506a5263fe90242dcbacf000008202810190508360ff168583029060020a900491506a057e22099c030d941000008202810190508360ff168583029060020a900491506957e22099c030d94100008202810190508360ff168583029060020a9004915069052b6b545699763100008202810190508360ff168583029060020a90049150684985f67696bf7480008202810190508360ff168583029060020a900491506803dea12ea99e4980008202810190508360ff168583029060020a900491506731880f2214b6e0008202810190508360ff168583029060020a9004915067025bcff56eb360008202810190508360ff168583029060020a90049150661b722e10ab10008202810190508360ff168583029060020a900491506601317c700770008202810190508360ff168583029060020a90049150650cba84aafa008202810190508360ff168583029060020a900491506482573a0a008202810190508360ff168583029060020a900491506405035ad9008202810190508360ff168583029060020a90049150632f881b008202810190508360ff168583029060020a900491506301b293408202810190508360ff168583029060020a90049150620efc408202810190508360ff168583029060020a90049150617fe08202810190508360ff168583029060020a900491506104208202810190508360ff168583029060020a9004915060218202810190508360ff168583029060020a9004915060018202810190508360ff1660019060020a02856f0688589cc0e9505e2f2fee55800000008381151561157a57fe5b0401019250505092915050565b60008060008060209250607f91505b8160ff166001840160ff1610156115e857600282840160ff168115156115b857fe5b0490508460018260ff166080811015156115ce57fe5b01541015156115df578092506115e3565b8091505b611596565b8460018360ff166080811015156115fb57fe5b015410151561160c57819350611642565b8460018460ff1660808110151561161f57fe5b015410151561163057829350611642565b6000151561163d57600080fd5b600093505b505050919050565b600080600080600092506f100000000000000000000000000000008581151561166f57fe5b0691508190506f8000000000000000000000000000000082820281151561169257fe5b0490506710e1b3be415a00008102830192506f800000000000000000000000000000008282028115156116c157fe5b0490506705a0913f6b1e00008102830192506f800000000000000000000000000000008282028115156116f057fe5b049050670168244fdac780008102830192506f8000000000000000000000000000000082820281151561171f57fe5b049050664807432bc180008102830192506f8000000000000000000000000000000082820281151561174d57fe5b049050660c0135dca040008102830192506f8000000000000000000000000000000082820281151561177b57fe5b0490506601b707b1cdc0008102830192506f800000000000000000000000000000008282028115156117a957fe5b0490506536e0f639b8008102830192506f800000000000000000000000000000008282028115156117d657fe5b049050650618fee9f8008102830192506f8000000000000000000000000000000082820281151561180357fe5b049050649c197dcc008102830192506f8000000000000000000000000000000082820281151561182f57fe5b049050640e30dce4008102830192506f8000000000000000000000000000000082820281151561185b57fe5b04905064012ebd13008102830192506f8000000000000000000000000000000082820281151561188757fe5b0490506317499f008102830192506f800000000000000000000000000000008282028115156118b257fe5b0490506301a9d4808102830192506f800000000000000000000000000000008282028115156118dd57fe5b049050621c63808102830192506f8000000000000000000000000000000082820281151561190757fe5b0490506201c6388102830192506f8000000000000000000000000000000082820281151561193157fe5b049050611ab88102830192506f8000000000000000000000000000000082820281151561195a57fe5b04905061017c8102830192506f8000000000000000000000000000000082820281151561198357fe5b04905060148102830192506f800000000000000000000000000000008282028115156119ab57fe5b04905060018102830192506f80000000000000000000000000000000826721c3677c82b40000858115156119db57fe5b040101925060006f100000000000000000000000000000008616141515611a2f5770018ebef9eac820ae8682b9793ac6d1e7767001c3d6a24ed82218787d624d3e5eba95f98402811515611a2b57fe5b0492505b60006f200000000000000000000000000000008616141515611a7e577001368b2fc6f9609fe7aceb46aa619baed470018ebef9eac820ae8682b9793ac6d1e7788402811515611a7a57fe5b0492505b60006f400000000000000000000000000000008616141515611acc576fbc5ab1b16779be3575bd8f0520a9f21f7001368b2fc6f9609fe7aceb46aa619baed58402811515611ac857fe5b0492505b60006f800000000000000000000000000000008616141515611b19576f454aaa8efe072e7f6ddbab84b40a55c96fbc5ab1b16779be3575bd8f0520a9f21e8402811515611b1557fe5b0492505b60007001000000000000000000000000000000008616141515611b67576f0960aadc109e7a3bf4578099615711ea6f454aaa8efe072e7f6ddbab84b40a55c58402811515611b6357fe5b0492505b60007002000000000000000000000000000000008616141515611bb4576e2bf84208204f5977f9a8cf01fdce3d6f0960aadc109e7a3bf4578099615711d78402811515611bb057fe5b0492505b60007004000000000000000000000000000000008616141515611bff576d03c6ab775dd0b95b4cbee7e65d116e2bf84208204f5977f9a8cf01fdc3078402811515611bfb57fe5b0492505b829350505050919050565b6000806000809150610100841015611c41575b6001841115611c3c576001849060020a90049350600182019150611c1d565b611c8c565b608090505b60008160ff161115611c8b578060ff1660019060020a0284101515611c78578060ff16849060020a9004935080821791505b60018160ff169060020a90049050611c46565b5b81925050509190505600a165627a7a723058201b3b23a4f5e0bcf74130b93ca6e61b1cba87d700f44f5c913a4a10587d7768320029",
			"opcodes": "PUSH1 0x80 PUSH1 0x40 MSTORE PUSH1 0x40 DUP1 MLOAD SWAP1 DUP2 ADD PUSH1 0x40 MSTORE DUP1 PUSH1 0x3 DUP2 MSTORE PUSH1 0x20 ADD PUSH32 0x302E330000000000000000000000000000000000000000000000000000000000 DUP2 MSTORE POP PUSH1 0x0 SWAP1 DUP1 MLOAD SWAP1 PUSH1 0x20 ADD SWAP1 PUSH3 0x51 SWAP3 SWAP2 SWAP1 PUSH3 0xF56 JUMP JUMPDEST POP CALLVALUE DUP1 ISZERO PUSH3 0x5F JUMPI PUSH1 0x0 DUP1 REVERT JUMPDEST POP PUSH17 0x1C35FEDD14FFFFFFFFFFFFFFFFFFFFFFFF PUSH1 0x1 PUSH1 0x20 PUSH1 0x80 DUP2 LT ISZERO ISZERO PUSH3 0x83 JUMPI INVALID JUMPDEST ADD DUP2 SWAP1 SSTORE POP PUSH17 0x1B0CE43B323FFFFFFFFFFFFFFFFFFFFFFF PUSH1 0x1 PUSH1 0x21 PUSH1 0x80 DUP2 LT ISZERO ISZERO PUSH3 0xAB JUMPI INVALID JUMPDEST ADD DUP2 SWAP1 SSTORE POP PUSH17 0x19F0028EC1FFFFFFFFFFFFFFFFFFFFFFFF PUSH1 0x1 PUSH1 0x22 PUSH1 0x80 DUP2 LT ISZERO ISZERO PUSH3 0xD3 JUMPI INVALID JUMPDEST ADD DUP2 SWAP1 SSTORE POP PUSH17 0x18DED91F0E7FFFFFFFFFFFFFFFFFFFFFFF PUSH1 0x1 PUSH1 0x23 PUSH1 0x80 DUP2 LT ISZERO ISZERO PUSH3 0xFB JUMPI INVALID JUMPDEST ADD DUP2 SWAP1 SSTORE POP PUSH17 0x17D8EC7F0417FFFFFFFFFFFFFFFFFFFFFF PUSH1 0x1 PUSH1 0x24 PUSH1 0x80 DUP2 LT ISZERO ISZERO PUSH3 0x123 JUMPI INVALID JUMPDEST ADD DUP2 SWAP1 SSTORE POP PUSH17 0x16DDC6556CDBFFFFFFFFFFFFFFFFFFFFFF PUSH1 0x1 PUSH1 0x25 PUSH1 0x80 DUP2 LT ISZERO ISZERO PUSH3 0x14B JUMPI INVALID JUMPDEST ADD DUP2 SWAP1 SSTORE POP PUSH17 0x15ECF52776A1FFFFFFFFFFFFFFFFFFFFFF PUSH1 0x1 PUSH1 0x26 PUSH1 0x80 DUP2 LT ISZERO ISZERO PUSH3 0x173 JUMPI INVALID JUMPDEST ADD DUP2 SWAP1 SSTORE POP PUSH17 0x15060C256CB2FFFFFFFFFFFFFFFFFFFFFF PUSH1 0x1 PUSH1 0x27 PUSH1 0x80 DUP2 LT ISZERO ISZERO PUSH3 0x19B JUMPI INVALID JUMPDEST ADD DUP2 SWAP1 SSTORE POP PUSH17 0x1428A2F98D72FFFFFFFFFFFFFFFFFFFFFF PUSH1 0x1 PUSH1 0x28 PUSH1 0x80 DUP2 LT ISZERO ISZERO PUSH3 0x1C3 JUMPI INVALID JUMPDEST ADD DUP2 SWAP1 SSTORE POP PUSH17 0x13545598E5C23FFFFFFFFFFFFFFFFFFFFF PUSH1 0x1 PUSH1 0x29 PUSH1 0x80 DUP2 LT ISZERO ISZERO PUSH3 0x1EB JUMPI INVALID JUMPDEST ADD DUP2 SWAP1 SSTORE POP PUSH17 0x1288C4161CE1DFFFFFFFFFFFFFFFFFFFFF PUSH1 0x1 PUSH1 0x2A PUSH1 0x80 DUP2 LT ISZERO ISZERO PUSH3 0x213 JUMPI INVALID JUMPDEST ADD DUP2 SWAP1 SSTORE POP PUSH17 0x11C592761C666FFFFFFFFFFFFFFFFFFFFF PUSH1 0x1 PUSH1 0x2B PUSH1 0x80 DUP2 LT ISZERO ISZERO PUSH3 0x23B JUMPI INVALID JUMPDEST ADD DUP2 SWAP1 SSTORE POP PUSH17 0x110A688680A757FFFFFFFFFFFFFFFFFFFF PUSH1 0x1 PUSH1 0x2C PUSH1 0x80 DUP2 LT ISZERO ISZERO PUSH3 0x263 JUMPI INVALID JUMPDEST ADD DUP2 SWAP1 SSTORE POP PUSH17 0x1056F1B5BEDF77FFFFFFFFFFFFFFFFFFFF PUSH1 0x1 PUSH1 0x2D PUSH1 0x80 DUP2 LT ISZERO ISZERO PUSH3 0x28B JUMPI INVALID JUMPDEST ADD DUP2 SWAP1 SSTORE POP PUSH17 0xFAADCECEEFF8BFFFFFFFFFFFFFFFFFFFF PUSH1 0x1 PUSH1 0x2E PUSH1 0x80 DUP2 LT ISZERO ISZERO PUSH3 0x2B3 JUMPI INVALID JUMPDEST ADD DUP2 SWAP1 SSTORE POP PUSH17 0xF05DC6B27EDADFFFFFFFFFFFFFFFFFFFF PUSH1 0x1 PUSH1 0x2F PUSH1 0x80 DUP2 LT ISZERO ISZERO PUSH3 0x2DB JUMPI INVALID JUMPDEST ADD DUP2 SWAP1 SSTORE POP PUSH17 0xE67A5A25DA4107FFFFFFFFFFFFFFFFFFF PUSH1 0x1 PUSH1 0x30 PUSH1 0x80 DUP2 LT ISZERO ISZERO PUSH3 0x303 JUMPI INVALID JUMPDEST ADD DUP2 SWAP1 SSTORE POP PUSH17 0xDCFF115B14EEDFFFFFFFFFFFFFFFFFFFF PUSH1 0x1 PUSH1 0x31 PUSH1 0x80 DUP2 LT ISZERO ISZERO PUSH3 0x32B JUMPI INVALID JUMPDEST ADD DUP2 SWAP1 SSTORE POP PUSH17 0xD3E7A392431239FFFFFFFFFFFFFFFFFFF PUSH1 0x1 PUSH1 0x32 PUSH1 0x80 DUP2 LT ISZERO ISZERO PUSH3 0x353 JUMPI INVALID JUMPDEST ADD DUP2 SWAP1 SSTORE POP PUSH17 0xCB2FF529EB71E4FFFFFFFFFFFFFFFFFFF PUSH1 0x1 PUSH1 0x33 PUSH1 0x80 DUP2 LT ISZERO ISZERO PUSH3 0x37B JUMPI INVALID JUMPDEST ADD DUP2 SWAP1 SSTORE POP PUSH17 0xC2D415C3DB974AFFFFFFFFFFFFFFFFFFF PUSH1 0x1 PUSH1 0x34 PUSH1 0x80 DUP2 LT ISZERO ISZERO PUSH3 0x3A3 JUMPI INVALID JUMPDEST ADD DUP2 SWAP1 SSTORE POP PUSH17 0xBAD03E7D883F69BFFFFFFFFFFFFFFFFFF PUSH1 0x1 PUSH1 0x35 PUSH1 0x80 DUP2 LT ISZERO ISZERO PUSH3 0x3CB JUMPI INVALID JUMPDEST ADD DUP2 SWAP1 SSTORE POP PUSH17 0xB320D03B2C343D5FFFFFFFFFFFFFFFFFF PUSH1 0x1 PUSH1 0x36 PUSH1 0x80 DUP2 LT ISZERO ISZERO PUSH3 0x3F3 JUMPI INVALID JUMPDEST ADD DUP2 SWAP1 SSTORE POP PUSH17 0xABC25204E02828DFFFFFFFFFFFFFFFFFF PUSH1 0x1 PUSH1 0x37 PUSH1 0x80 DUP2 LT ISZERO ISZERO PUSH3 0x41B JUMPI INVALID JUMPDEST ADD DUP2 SWAP1 SSTORE POP PUSH17 0xA4B16F74EE4BB207FFFFFFFFFFFFFFFFF PUSH1 0x1 PUSH1 0x38 PUSH1 0x80 DUP2 LT ISZERO ISZERO PUSH3 0x443 JUMPI INVALID JUMPDEST ADD DUP2 SWAP1 SSTORE POP PUSH17 0x9DEAF736AC1F569FFFFFFFFFFFFFFFFFF PUSH1 0x1 PUSH1 0x39 PUSH1 0x80 DUP2 LT ISZERO ISZERO PUSH3 0x46B JUMPI INVALID JUMPDEST ADD DUP2 SWAP1 SSTORE POP PUSH17 0x976BD9952C7AA957FFFFFFFFFFFFFFFFF PUSH1 0x1 PUSH1 0x3A PUSH1 0x80 DUP2 LT ISZERO ISZERO PUSH3 0x493 JUMPI INVALID JUMPDEST ADD DUP2 SWAP1 SSTORE POP PUSH17 0x9131271922EAA606FFFFFFFFFFFFFFFFF PUSH1 0x1 PUSH1 0x3B PUSH1 0x80 DUP2 LT ISZERO ISZERO PUSH3 0x4BB JUMPI INVALID JUMPDEST ADD DUP2 SWAP1 SSTORE POP PUSH17 0x8B380F3558668C46FFFFFFFFFFFFFFFFF PUSH1 0x1 PUSH1 0x3C PUSH1 0x80 DUP2 LT ISZERO ISZERO PUSH3 0x4E3 JUMPI INVALID JUMPDEST ADD DUP2 SWAP1 SSTORE POP PUSH17 0x857DDF0117EFA215BFFFFFFFFFFFFFFFF PUSH1 0x1 PUSH1 0x3D PUSH1 0x80 DUP2 LT ISZERO ISZERO PUSH3 0x50B JUMPI INVALID JUMPDEST ADD DUP2 SWAP1 SSTORE POP PUSH17 0x7FFFFFFFFFFFFFFFFFFFFFFFFFFFFFFFF PUSH1 0x1 PUSH1 0x3E PUSH1 0x80 DUP2 LT ISZERO ISZERO PUSH3 0x533 JUMPI INVALID JUMPDEST ADD DUP2 SWAP1 SSTORE POP PUSH17 0x7ABBF6F6ABB9D087FFFFFFFFFFFFFFFFF PUSH1 0x1 PUSH1 0x3F PUSH1 0x80 DUP2 LT ISZERO ISZERO PUSH3 0x55B JUMPI INVALID JUMPDEST ADD DUP2 SWAP1 SSTORE POP PUSH17 0x75AF62CBAC95F7DFA7FFFFFFFFFFFFFFF PUSH1 0x1 PUSH1 0x40 PUSH1 0x80 DUP2 LT ISZERO ISZERO PUSH3 0x583 JUMPI INVALID JUMPDEST ADD DUP2 SWAP1 SSTORE POP PUSH17 0x70D7FB7452E187AC13FFFFFFFFFFFFFFF PUSH1 0x1 PUSH1 0x41 PUSH1 0x80 DUP2 LT ISZERO ISZERO PUSH3 0x5AB JUMPI INVALID JUMPDEST ADD DUP2 SWAP1 SSTORE POP PUSH17 0x6C3390ECC8AF379295FFFFFFFFFFFFFFF PUSH1 0x1 PUSH1 0x42 PUSH1 0x80 DUP2 LT ISZERO ISZERO PUSH3 0x5D3 JUMPI INVALID JUMPDEST ADD DUP2 SWAP1 SSTORE POP PUSH17 0x67C00A3B07FFC01FD6FFFFFFFFFFFFFFF PUSH1 0x1 PUSH1 0x43 PUSH1 0x80 DUP2 LT ISZERO ISZERO PUSH3 0x5FB JUMPI INVALID JUMPDEST ADD DUP2 SWAP1 SSTORE POP PUSH17 0x637B647C39CBB9D3D27FFFFFFFFFFFFFF PUSH1 0x1 PUSH1 0x44 PUSH1 0x80 DUP2 LT ISZERO ISZERO PUSH3 0x623 JUMPI INVALID JUMPDEST ADD DUP2 SWAP1 SSTORE POP PUSH17 0x5F63B1FC104DBD39587FFFFFFFFFFFFFF PUSH1 0x1 PUSH1 0x45 PUSH1 0x80 DUP2 LT ISZERO ISZERO PUSH3 0x64B JUMPI INVALID JUMPDEST ADD DUP2 SWAP1 SSTORE POP PUSH17 0x5B771955B36E12F7235FFFFFFFFFFFFFF PUSH1 0x1 PUSH1 0x46 PUSH1 0x80 DUP2 LT ISZERO ISZERO PUSH3 0x673 JUMPI INVALID JUMPDEST ADD DUP2 SWAP1 SSTORE POP PUSH17 0x57B3D49DDA84556D6F6FFFFFFFFFFFFFF PUSH1 0x1 PUSH1 0x47 PUSH1 0x80 DUP2 LT ISZERO ISZERO PUSH3 0x69B JUMPI INVALID JUMPDEST ADD DUP2 SWAP1 SSTORE POP PUSH17 0x54183095B2C8ECECF30FFFFFFFFFFFFFF PUSH1 0x1 PUSH1 0x48 PUSH1 0x80 DUP2 LT ISZERO ISZERO PUSH3 0x6C3 JUMPI INVALID JUMPDEST ADD DUP2 SWAP1 SSTORE POP PUSH17 0x50A28BE635CA2B888F77FFFFFFFFFFFFF PUSH1 0x1 PUSH1 0x49 PUSH1 0x80 DUP2 LT ISZERO ISZERO PUSH3 0x6EB JUMPI INVALID JUMPDEST ADD DUP2 SWAP1 SSTORE POP PUSH17 0x4D5156639708C9DB33C3FFFFFFFFFFFFF PUSH1 0x1 PUSH1 0x4A PUSH1 0x80 DUP2 LT ISZERO ISZERO PUSH3 0x713 JUMPI INVALID JUMPDEST ADD DUP2 SWAP1 SSTORE POP PUSH17 0x4A23105873875BD52DFDFFFFFFFFFFFFF PUSH1 0x1 PUSH1 0x4B PUSH1 0x80 DUP2 LT ISZERO ISZERO PUSH3 0x73B JUMPI INVALID JUMPDEST ADD DUP2 SWAP1 SSTORE POP PUSH17 0x471649D87199AA990756FFFFFFFFFFFFF PUSH1 0x1 PUSH1 0x4C PUSH1 0x80 DUP2 LT ISZERO ISZERO PUSH3 0x763 JUMPI INVALID JUMPDEST ADD DUP2 SWAP1 SSTORE POP PUSH17 0x4429A21A029D4C1457CFBFFFFFFFFFFFF PUSH1 0x1 PUSH1 0x4D PUSH1 0x80 DUP2 LT ISZERO ISZERO PUSH3 0x78B JUMPI INVALID JUMPDEST ADD DUP2 SWAP1 SSTORE POP PUSH17 0x415BC6D6FB7DD71AF2CB3FFFFFFFFFFFF PUSH1 0x1 PUSH1 0x4E PUSH1 0x80 DUP2 LT ISZERO ISZERO PUSH3 0x7B3 JUMPI INVALID JUMPDEST ADD DUP2 SWAP1 SSTORE POP PUSH17 0x3EAB73B3BBFE282243CE1FFFFFFFFFFFF PUSH1 0x1 PUSH1 0x4F PUSH1 0x80 DUP2 LT ISZERO ISZERO PUSH3 0x7DB JUMPI INVALID JUMPDEST ADD DUP2 SWAP1 SSTORE POP PUSH17 0x3C1771AC9FB6B4C18E229FFFFFFFFFFFF PUSH1 0x1 PUSH1 0x50 PUSH1 0x80 DUP2 LT ISZERO ISZERO PUSH3 0x803 JUMPI INVALID JUMPDEST ADD DUP2 SWAP1 SSTORE POP PUSH17 0x399E96897690418F785257FFFFFFFFFFF PUSH1 0x1 PUSH1 0x51 PUSH1 0x80 DUP2 LT ISZERO ISZERO PUSH3 0x82B JUMPI INVALID JUMPDEST ADD DUP2 SWAP1 SSTORE POP PUSH17 0x373FC456C53BB779BF0EA9FFFFFFFFFFF PUSH1 0x1 PUSH1 0x52 PUSH1 0x80 DUP2 LT ISZERO ISZERO PUSH3 0x853 JUMPI INVALID JUMPDEST ADD DUP2 SWAP1 SSTORE POP PUSH17 0x34F9E8E490C48E67E6AB8BFFFFFFFFFFF PUSH1 0x1 PUSH1 0x53 PUSH1 0x80 DUP2 LT ISZERO ISZERO PUSH3 0x87B JUMPI INVALID JUMPDEST ADD DUP2 SWAP1 SSTORE POP PUSH17 0x32CBFD4A7ADC790560B3337FFFFFFFFFF PUSH1 0x1 PUSH1 0x54 PUSH1 0x80 DUP2 LT ISZERO ISZERO PUSH3 0x8A3 JUMPI INVALID JUMPDEST ADD DUP2 SWAP1 SSTORE POP PUSH17 0x30B50570F6E5D2ACCA94613FFFFFFFFFF PUSH1 0x1 PUSH1 0x55 PUSH1 0x80 DUP2 LT ISZERO ISZERO PUSH3 0x8CB JUMPI INVALID JUMPDEST ADD DUP2 SWAP1 SSTORE POP PUSH17 0x2EB40F9F620FDA6B56C2861FFFFFFFFFF PUSH1 0x1 PUSH1 0x56 PUSH1 0x80 DUP2 LT ISZERO ISZERO PUSH3 0x8F3 JUMPI INVALID JUMPDEST ADD DUP2 SWAP1 SSTORE POP PUSH17 0x2CC8340ECB0D0F520A6AF58FFFFFFFFFF PUSH1 0x1 PUSH1 0x57 PUSH1 0x80 DUP2 LT ISZERO ISZERO PUSH3 0x91B JUMPI INVALID JUMPDEST ADD DUP2 SWAP1 SSTORE POP PUSH17 0x2AF09481380A0A35CF1BA02FFFFFFFFFF PUSH1 0x1 PUSH1 0x58 PUSH1 0x80 DUP2 LT ISZERO ISZERO PUSH3 0x943 JUMPI INVALID JUMPDEST ADD DUP2 SWAP1 SSTORE POP PUSH17 0x292C5BDD3B92EC810287B1B3FFFFFFFFF PUSH1 0x1 PUSH1 0x59 PUSH1 0x80 DUP2 LT ISZERO ISZERO PUSH3 0x96B JUMPI INVALID JUMPDEST ADD DUP2 SWAP1 SSTORE POP PUSH17 0x277ABDCDAB07D5A77AC6D6B9FFFFFFFFF PUSH1 0x1 PUSH1 0x5A PUSH1 0x80 DUP2 LT ISZERO ISZERO PUSH3 0x993 JUMPI INVALID JUMPDEST ADD DUP2 SWAP1 SSTORE POP PUSH17 0x25DAF6654B1EAA55FD64DF5EFFFFFFFFF PUSH1 0x1 PUSH1 0x5B PUSH1 0x80 DUP2 LT ISZERO ISZERO PUSH3 0x9BB JUMPI INVALID JUMPDEST ADD DUP2 SWAP1 SSTORE POP PUSH17 0x244C49C648BAA98192DCE88B7FFFFFFFF PUSH1 0x1 PUSH1 0x5C PUSH1 0x80 DUP2 LT ISZERO ISZERO PUSH3 0x9E3 JUMPI INVALID JUMPDEST ADD DUP2 SWAP1 SSTORE POP PUSH17 0x22CE03CD5619A311B2471268BFFFFFFFF PUSH1 0x1 PUSH1 0x5D PUSH1 0x80 DUP2 LT ISZERO ISZERO PUSH3 0xA0B JUMPI INVALID JUMPDEST ADD DUP2 SWAP1 SSTORE POP PUSH17 0x215F77C045FBE885654A44A0FFFFFFFFF PUSH1 0x1 PUSH1 0x5E PUSH1 0x80 DUP2 LT ISZERO ISZERO PUSH3 0xA33 JUMPI INVALID JUMPDEST ADD DUP2 SWAP1 SSTORE POP PUSH17 0x1FFFFFFFFFFFFFFFFFFFFFFFFFFFFFFFF PUSH1 0x1 PUSH1 0x5F PUSH1 0x80 DUP2 LT ISZERO ISZERO PUSH3 0xA5B JUMPI INVALID JUMPDEST ADD DUP2 SWAP1 SSTORE POP PUSH17 0x1EAEFDBDAAEE7421FC4D3EDE5FFFFFFFF PUSH1 0x1 PUSH1 0x60 PUSH1 0x80 DUP2 LT ISZERO ISZERO PUSH3 0xA83 JUMPI INVALID JUMPDEST ADD DUP2 SWAP1 SSTORE POP PUSH17 0x1D6BD8B2EB257DF7E8CA57B09BFFFFFFF PUSH1 0x1 PUSH1 0x61 PUSH1 0x80 DUP2 LT ISZERO ISZERO PUSH3 0xAAB JUMPI INVALID JUMPDEST ADD DUP2 SWAP1 SSTORE POP PUSH17 0x1C35FEDD14B861EB0443F7F133FFFFFFF PUSH1 0x1 PUSH1 0x62 PUSH1 0x80 DUP2 LT ISZERO ISZERO PUSH3 0xAD3 JUMPI INVALID JUMPDEST ADD DUP2 SWAP1 SSTORE POP PUSH17 0x1B0CE43B322BCDE4A56E8ADA5AFFFFFFF PUSH1 0x1 PUSH1 0x63 PUSH1 0x80 DUP2 LT ISZERO ISZERO PUSH3 0xAFB JUMPI INVALID JUMPDEST ADD DUP2 SWAP1 SSTORE POP PUSH17 0x19F0028EC1FFF007F5A195A39DFFFFFFF PUSH1 0x1 PUSH1 0x64 PUSH1 0x80 DUP2 LT ISZERO ISZERO PUSH3 0xB23 JUMPI INVALID JUMPDEST ADD DUP2 SWAP1 SSTORE POP PUSH17 0x18DED91F0E72EE74F49B15BA527FFFFFF PUSH1 0x1 PUSH1 0x65 PUSH1 0x80 DUP2 LT ISZERO ISZERO PUSH3 0xB4B JUMPI INVALID JUMPDEST ADD DUP2 SWAP1 SSTORE POP PUSH17 0x17D8EC7F04136F4E5615FD41A63FFFFFF PUSH1 0x1 PUSH1 0x66 PUSH1 0x80 DUP2 LT ISZERO ISZERO PUSH3 0xB73 JUMPI INVALID JUMPDEST ADD DUP2 SWAP1 SSTORE POP PUSH17 0x16DDC6556CDB84BDC8D12D22E6FFFFFFF PUSH1 0x1 PUSH1 0x67 PUSH1 0x80 DUP2 LT ISZERO ISZERO PUSH3 0xB9B JUMPI INVALID JUMPDEST ADD DUP2 SWAP1 SSTORE POP PUSH17 0x15ECF52776A1155B5BD8395814F7FFFFF PUSH1 0x1 PUSH1 0x68 PUSH1 0x80 DUP2 LT ISZERO ISZERO PUSH3 0xBC3 JUMPI INVALID JUMPDEST ADD DUP2 SWAP1 SSTORE POP PUSH17 0x15060C256CB23B3B3CC3754CF40FFFFFF PUSH1 0x1 PUSH1 0x69 PUSH1 0x80 DUP2 LT ISZERO ISZERO PUSH3 0xBEB JUMPI INVALID JUMPDEST ADD DUP2 SWAP1 SSTORE POP PUSH17 0x1428A2F98D728AE223DDAB715BE3FFFFF PUSH1 0x1 PUSH1 0x6A PUSH1 0x80 DUP2 LT ISZERO ISZERO PUSH3 0xC13 JUMPI INVALID JUMPDEST ADD DUP2 SWAP1 SSTORE POP PUSH17 0x13545598E5C23276CCF0EDE68034FFFFF PUSH1 0x1 PUSH1 0x6B PUSH1 0x80 DUP2 LT ISZERO ISZERO PUSH3 0xC3B JUMPI INVALID JUMPDEST ADD DUP2 SWAP1 SSTORE POP PUSH17 0x1288C4161CE1D6F54B7F61081194FFFFF PUSH1 0x1 PUSH1 0x6C PUSH1 0x80 DUP2 LT ISZERO ISZERO PUSH3 0xC63 JUMPI INVALID JUMPDEST ADD DUP2 SWAP1 SSTORE POP PUSH17 0x11C592761C666AA641D5A01A40F17FFFF PUSH1 0x1 PUSH1 0x6D PUSH1 0x80 DUP2 LT ISZERO ISZERO PUSH3 0xC8B JUMPI INVALID JUMPDEST ADD DUP2 SWAP1 SSTORE POP PUSH17 0x110A688680A7530515F3E6E6CFDCDFFFF PUSH1 0x1 PUSH1 0x6E PUSH1 0x80 DUP2 LT ISZERO ISZERO PUSH3 0xCB3 JUMPI INVALID JUMPDEST ADD DUP2 SWAP1 SSTORE POP PUSH17 0x1056F1B5BEDF75C6BCB2CE8AED428FFFF PUSH1 0x1 PUSH1 0x6F PUSH1 0x80 DUP2 LT ISZERO ISZERO PUSH3 0xCDB JUMPI INVALID JUMPDEST ADD DUP2 SWAP1 SSTORE POP PUSH16 0xFAADCECEEFF8A0890F3875F008277FFF PUSH1 0x1 PUSH1 0x70 PUSH1 0x80 DUP2 LT ISZERO ISZERO PUSH3 0xD02 JUMPI INVALID JUMPDEST ADD DUP2 SWAP1 SSTORE POP PUSH16 0xF05DC6B27EDAD306388A600F6BA0BFFF PUSH1 0x1 PUSH1 0x71 PUSH1 0x80 DUP2 LT ISZERO ISZERO PUSH3 0xD29 JUMPI INVALID JUMPDEST ADD DUP2 SWAP1 SSTORE POP PUSH16 0xE67A5A25DA41063DE1495D5B18CDBFFF PUSH1 0x1 PUSH1 0x72 PUSH1 0x80 DUP2 LT ISZERO ISZERO PUSH3 0xD50 JUMPI INVALID JUMPDEST ADD DUP2 SWAP1 SSTORE POP PUSH16 0xDCFF115B14EEDDE6FC3AA5353F2E4FFF PUSH1 0x1 PUSH1 0x73 PUSH1 0x80 DUP2 LT ISZERO ISZERO PUSH3 0xD77 JUMPI INVALID JUMPDEST ADD DUP2 SWAP1 SSTORE POP PUSH16 0xD3E7A3924312399F9AAE2E0F868F8FFF PUSH1 0x1 PUSH1 0x74 PUSH1 0x80 DUP2 LT ISZERO ISZERO PUSH3 0xD9E JUMPI INVALID JUMPDEST ADD DUP2 SWAP1 SSTORE POP PUSH16 0xCB2FF529EB71E41582CCCD5A1EE26FFF PUSH1 0x1 PUSH1 0x75 PUSH1 0x80 DUP2 LT ISZERO ISZERO PUSH3 0xDC5 JUMPI INVALID JUMPDEST ADD DUP2 SWAP1 SSTORE POP PUSH16 0xC2D415C3DB974AB32A51840C0B67EDFF PUSH1 0x1 PUSH1 0x76 PUSH1 0x80 DUP2 LT ISZERO ISZERO PUSH3 0xDEC JUMPI INVALID JUMPDEST ADD DUP2 SWAP1 SSTORE POP PUSH16 0xBAD03E7D883F69AD5B0A186184E06BFF PUSH1 0x1 PUSH1 0x77 PUSH1 0x80 DUP2 LT ISZERO ISZERO PUSH3 0xE13 JUMPI INVALID JUMPDEST ADD DUP2 SWAP1 SSTORE POP PUSH16 0xB320D03B2C343D4829ABD6075F0CC5FF PUSH1 0x1 PUSH1 0x78 PUSH1 0x80 DUP2 LT ISZERO ISZERO PUSH3 0xE3A JUMPI INVALID JUMPDEST ADD DUP2 SWAP1 SSTORE POP PUSH16 0xABC25204E02828D73C6E80BCDB1A95BF PUSH1 0x1 PUSH1 0x79 PUSH1 0x80 DUP2 LT ISZERO ISZERO PUSH3 0xE61 JUMPI INVALID JUMPDEST ADD DUP2 SWAP1 SSTORE POP PUSH16 0xA4B16F74EE4BB2040A1EC6C15FBBF2DF PUSH1 0x1 PUSH1 0x7A PUSH1 0x80 DUP2 LT ISZERO ISZERO PUSH3 0xE88 JUMPI INVALID JUMPDEST ADD DUP2 SWAP1 SSTORE POP PUSH16 0x9DEAF736AC1F569DEB1B5AE3F36C130F PUSH1 0x1 PUSH1 0x7B PUSH1 0x80 DUP2 LT ISZERO ISZERO PUSH3 0xEAF JUMPI INVALID JUMPDEST ADD DUP2 SWAP1 SSTORE POP PUSH16 0x976BD9952C7AA957F5937D790EF65037 PUSH1 0x1 PUSH1 0x7C PUSH1 0x80 DUP2 LT ISZERO ISZERO PUSH3 0xED6 JUMPI INVALID JUMPDEST ADD DUP2 SWAP1 SSTORE POP PUSH16 0x9131271922EAA6064B73A22D0BD4F2BF PUSH1 0x1 PUSH1 0x7D PUSH1 0x80 DUP2 LT ISZERO ISZERO PUSH3 0xEFD JUMPI INVALID JUMPDEST ADD DUP2 SWAP1 SSTORE POP PUSH16 0x8B380F3558668C46C91C49A2F8E967B9 PUSH1 0x1 PUSH1 0x7E PUSH1 0x80 DUP2 LT ISZERO ISZERO PUSH3 0xF24 JUMPI INVALID JUMPDEST ADD DUP2 SWAP1 SSTORE POP PUSH16 0x857DDF0117EFA215952912839F6473E6 PUSH1 0x1 PUSH1 0x7F PUSH1 0x80 DUP2 LT ISZERO ISZERO PUSH3 0xF4B JUMPI INVALID JUMPDEST ADD DUP2 SWAP1 SSTORE POP PUSH3 0x1005 JUMP JUMPDEST DUP3 DUP1 SLOAD PUSH1 0x1 DUP2 PUSH1 0x1 AND ISZERO PUSH2 0x100 MUL SUB AND PUSH1 0x2 SWAP1 DIV SWAP1 PUSH1 0x0 MSTORE PUSH1 0x20 PUSH1 0x0 KECCAK256 SWAP1 PUSH1 0x1F ADD PUSH1 0x20 SWAP1 DIV DUP2 ADD SWAP3 DUP3 PUSH1 0x1F LT PUSH3 0xF99 JUMPI DUP1 MLOAD PUSH1 0xFF NOT AND DUP4 DUP1 ADD OR DUP6 SSTORE PUSH3 0xFCA JUMP JUMPDEST DUP3 DUP1 ADD PUSH1 0x1 ADD DUP6 SSTORE DUP3 ISZERO PUSH3 0xFCA JUMPI SWAP2 DUP3 ADD JUMPDEST DUP3 DUP2 GT ISZERO PUSH3 0xFC9 JUMPI DUP3 MLOAD DUP3 SSTORE SWAP2 PUSH1 0x20 ADD SWAP2 SWAP1 PUSH1 0x1 ADD SWAP1 PUSH3 0xFAC JUMP JUMPDEST JUMPDEST POP SWAP1 POP PUSH3 0xFD9 SWAP2 SWAP1 PUSH3 0xFDD JUMP JUMPDEST POP SWAP1 JUMP JUMPDEST PUSH3 0x1002 SWAP2 SWAP1 JUMPDEST DUP1 DUP3 GT ISZERO PUSH3 0xFFE JUMPI PUSH1 0x0 DUP2 PUSH1 0x0 SWAP1 SSTORE POP PUSH1 0x1 ADD PUSH3 0xFE4 JUMP JUMPDEST POP SWAP1 JUMP JUMPDEST SWAP1 JUMP JUMPDEST PUSH2 0x1CC2 DUP1 PUSH3 0x1015 PUSH1 0x0 CODECOPY PUSH1 0x0 RETURN STOP PUSH1 0x80 PUSH1 0x40 MSTORE PUSH1 0x4 CALLDATASIZE LT PUSH2 0xAF JUMPI PUSH1 0x0 CALLDATALOAD PUSH29 0x100000000000000000000000000000000000000000000000000000000 SWAP1 DIV PUSH4 0xFFFFFFFF AND DUP1 PUSH4 0x29A00E7C EQ PUSH2 0xB4 JUMPI DUP1 PUSH4 0x3E8A38AB EQ PUSH2 0x119 JUMPI DUP1 PUSH4 0x4982D52D EQ PUSH2 0x15A JUMPI DUP1 PUSH4 0x49F9B0F7 EQ PUSH2 0x19B JUMPI DUP1 PUSH4 0x54FD4D50 EQ PUSH2 0x200 JUMPI DUP1 PUSH4 0x65098BB3 EQ PUSH2 0x290 JUMPI DUP1 PUSH4 0x6CAB5055 EQ PUSH2 0x305 JUMPI DUP1 PUSH4 0x8C5CE82A EQ PUSH2 0x353 JUMPI DUP1 PUSH4 0xA25A34B1 EQ PUSH2 0x3CB JUMPI DUP1 PUSH4 0xACDEE8CB EQ PUSH2 0x412 JUMPI DUP1 PUSH4 0xCE782E08 EQ PUSH2 0x453 JUMPI JUMPDEST PUSH1 0x0 DUP1 REVERT JUMPDEST CALLVALUE DUP1 ISZERO PUSH2 0xC0 JUMPI PUSH1 0x0 DUP1 REVERT JUMPDEST POP PUSH2 0x103 PUSH1 0x4 DUP1 CALLDATASIZE SUB DUP2 ADD SWAP1 DUP1 DUP1 CALLDATALOAD SWAP1 PUSH1 0x20 ADD SWAP1 SWAP3 SWAP2 SWAP1 DUP1 CALLDATALOAD SWAP1 PUSH1 0x20 ADD SWAP1 SWAP3 SWAP2 SWAP1 DUP1 CALLDATALOAD PUSH4 0xFFFFFFFF AND SWAP1 PUSH1 0x20 ADD SWAP1 SWAP3 SWAP2 SWAP1 DUP1 CALLDATALOAD SWAP1 PUSH1 0x20 ADD SWAP1 SWAP3 SWAP2 SWAP1 POP POP POP PUSH2 0x49A JUMP JUMPDEST PUSH1 0x40 MLOAD DUP1 DUP3 DUP2 MSTORE PUSH1 0x20 ADD SWAP2 POP POP PUSH1 0x40 MLOAD DUP1 SWAP2 SUB SWAP1 RETURN JUMPDEST CALLVALUE DUP1 ISZERO PUSH2 0x125 JUMPI PUSH1 0x0 DUP1 REVERT JUMPDEST POP PUSH2 0x144 PUSH1 0x4 DUP1 CALLDATASIZE SUB DUP2 ADD SWAP1 DUP1 DUP1 CALLDATALOAD SWAP1 PUSH1 0x20 ADD SWAP1 SWAP3 SWAP2 SWAP1 POP POP POP PUSH2 0x594 JUMP JUMPDEST PUSH1 0x40 MLOAD DUP1 DUP3 DUP2 MSTORE PUSH1 0x20 ADD SWAP2 POP POP PUSH1 0x40 MLOAD DUP1 SWAP2 SUB SWAP1 RETURN JUMPDEST CALLVALUE DUP1 ISZERO PUSH2 0x166 JUMPI PUSH1 0x0 DUP1 REVERT JUMPDEST POP PUSH2 0x185 PUSH1 0x4 DUP1 CALLDATASIZE SUB DUP2 ADD SWAP1 DUP1 DUP1 CALLDATALOAD SWAP1 PUSH1 0x20 ADD SWAP1 SWAP3 SWAP2 SWAP1 POP POP POP PUSH2 0x5A6 JUMP JUMPDEST PUSH1 0x40 MLOAD DUP1 DUP3 DUP2 MSTORE PUSH1 0x20 ADD SWAP2 POP POP PUSH1 0x40 MLOAD DUP1 SWAP2 SUB SWAP1 RETURN JUMPDEST CALLVALUE DUP1 ISZERO PUSH2 0x1A7 JUMPI PUSH1 0x0 DUP1 REVERT JUMPDEST POP PUSH2 0x1EA PUSH1 0x4 DUP1 CALLDATASIZE SUB DUP2 ADD SWAP1 DUP1 DUP1 CALLDATALOAD SWAP1 PUSH1 0x20 ADD SWAP1 SWAP3 SWAP2 SWAP1 DUP1 CALLDATALOAD SWAP1 PUSH1 0x20 ADD SWAP1 SWAP3 SWAP2 SWAP1 DUP1 CALLDATALOAD PUSH4 0xFFFFFFFF AND SWAP1 PUSH1 0x20 ADD SWAP1 SWAP3 SWAP2 SWAP1 DUP1 CALLDATALOAD SWAP1 PUSH1 0x20 ADD SWAP1 SWAP3 SWAP2 SWAP1 POP POP POP PUSH2 0x5B8 JUMP JUMPDEST PUSH1 0x40 MLOAD DUP1 DUP3 DUP2 MSTORE PUSH1 0x20 ADD SWAP2 POP POP PUSH1 0x40 MLOAD DUP1 SWAP2 SUB SWAP1 RETURN JUMPDEST CALLVALUE DUP1 ISZERO PUSH2 0x20C JUMPI PUSH1 0x0 DUP1 REVERT JUMPDEST POP PUSH2 0x215 PUSH2 0x6CE JUMP JUMPDEST PUSH1 0x40 MLOAD DUP1 DUP1 PUSH1 0x20 ADD DUP3 DUP2 SUB DUP3 MSTORE DUP4 DUP2 DUP2 MLOAD DUP2 MSTORE PUSH1 0x20 ADD SWAP2 POP DUP1 MLOAD SWAP1 PUSH1 0x20 ADD SWAP1 DUP1 DUP4 DUP4 PUSH1 0x0 JUMPDEST DUP4 DUP2 LT ISZERO PUSH2 0x255 JUMPI DUP1 DUP3 ADD MLOAD DUP2 DUP5 ADD MSTORE PUSH1 0x20 DUP2 ADD SWAP1 POP PUSH2 0x23A JUMP JUMPDEST POP POP POP POP SWAP1 POP SWAP1 DUP2 ADD SWAP1 PUSH1 0x1F AND DUP1 ISZERO PUSH2 0x282 JUMPI DUP1 DUP3 SUB DUP1 MLOAD PUSH1 0x1 DUP4 PUSH1 0x20 SUB PUSH2 0x100 EXP SUB NOT AND DUP2 MSTORE PUSH1 0x20 ADD SWAP2 POP JUMPDEST POP SWAP3 POP POP POP PUSH1 0x40 MLOAD DUP1 SWAP2 SUB SWAP1 RETURN JUMPDEST CALLVALUE DUP1 ISZERO PUSH2 0x29C JUMPI PUSH1 0x0 DUP1 REVERT JUMPDEST POP PUSH2 0x2EF PUSH1 0x4 DUP1 CALLDATASIZE SUB DUP2 ADD SWAP1 DUP1 DUP1 CALLDATALOAD SWAP1 PUSH1 0x20 ADD SWAP1 SWAP3 SWAP2 SWAP1 DUP1 CALLDATALOAD PUSH4 0xFFFFFFFF AND SWAP1 PUSH1 0x20 ADD SWAP1 SWAP3 SWAP2 SWAP1 DUP1 CALLDATALOAD SWAP1 PUSH1 0x20 ADD SWAP1 SWAP3 SWAP2 SWAP1 DUP1 CALLDATALOAD PUSH4 0xFFFFFFFF AND SWAP1 PUSH1 0x20 ADD SWAP1 SWAP3 SWAP2 SWAP1 DUP1 CALLDATALOAD SWAP1 PUSH1 0x20 ADD SWAP1 SWAP3 SWAP2 SWAP1 POP POP POP PUSH2 0x76C JUMP JUMPDEST PUSH1 0x40 MLOAD DUP1 DUP3 DUP2 MSTORE PUSH1 0x20 ADD SWAP2 POP POP PUSH1 0x40 MLOAD DUP1 SWAP2 SUB SWAP1 RETURN JUMPDEST CALLVALUE DUP1 ISZERO PUSH2 0x311 JUMPI PUSH1 0x0 DUP1 REVERT JUMPDEST POP PUSH2 0x33D PUSH1 0x4 DUP1 CALLDATASIZE SUB DUP2 ADD SWAP1 DUP1 DUP1 CALLDATALOAD SWAP1 PUSH1 0x20 ADD SWAP1 SWAP3 SWAP2 SWAP1 DUP1 CALLDATALOAD PUSH1 0xFF AND SWAP1 PUSH1 0x20 ADD SWAP1 SWAP3 SWAP2 SWAP1 POP POP POP PUSH2 0x89E JUMP JUMPDEST PUSH1 0x40 MLOAD DUP1 DUP3 DUP2 MSTORE PUSH1 0x20 ADD SWAP2 POP POP PUSH1 0x40 MLOAD DUP1 SWAP2 SUB SWAP1 RETURN JUMPDEST CALLVALUE DUP1 ISZERO PUSH2 0x35F JUMPI PUSH1 0x0 DUP1 REVERT JUMPDEST POP PUSH2 0x3A8 PUSH1 0x4 DUP1 CALLDATASIZE SUB DUP2 ADD SWAP1 DUP1 DUP1 CALLDATALOAD SWAP1 PUSH1 0x20 ADD SWAP1 SWAP3 SWAP2 SWAP1 DUP1 CALLDATALOAD SWAP1 PUSH1 0x20 ADD SWAP1 SWAP3 SWAP2 SWAP1 DUP1 CALLDATALOAD PUSH4 0xFFFFFFFF AND SWAP1 PUSH1 0x20 ADD SWAP1 SWAP3 SWAP2 SWAP1 DUP1 CALLDATALOAD PUSH4 0xFFFFFFFF AND SWAP1 PUSH1 0x20 ADD SWAP1 SWAP3 SWAP2 SWAP1 POP POP POP PUSH2 0x8B2 JUMP JUMPDEST PUSH1 0x40 MLOAD DUP1 DUP4 DUP2 MSTORE PUSH1 0x20 ADD DUP3 PUSH1 0xFF AND PUSH1 0xFF AND DUP2 MSTORE PUSH1 0x20 ADD SWAP3 POP POP POP PUSH1 0x40 MLOAD DUP1 SWAP2 SUB SWAP1 RETURN JUMPDEST CALLVALUE DUP1 ISZERO PUSH2 0x3D7 JUMPI PUSH1 0x0 DUP1 REVERT JUMPDEST POP PUSH2 0x3F6 PUSH1 0x4 DUP1 CALLDATASIZE SUB DUP2 ADD SWAP1 DUP1 DUP1 CALLDATALOAD SWAP1 PUSH1 0x20 ADD SWAP1 SWAP3 SWAP2 SWAP1 POP POP POP PUSH2 0x8CE JUMP JUMPDEST PUSH1 0x40 MLOAD DUP1 DUP3 PUSH1 0xFF AND PUSH1 0xFF AND DUP2 MSTORE PUSH1 0x20 ADD SWAP2 POP POP PUSH1 0x40 MLOAD DUP1 SWAP2 SUB SWAP1 RETURN JUMPDEST CALLVALUE DUP1 ISZERO PUSH2 0x41E JUMPI PUSH1 0x0 DUP1 REVERT JUMPDEST POP PUSH2 0x43D PUSH1 0x4 DUP1 CALLDATASIZE SUB DUP2 ADD SWAP1 DUP1 DUP1 CALLDATALOAD SWAP1 PUSH1 0x20 ADD SWAP1 SWAP3 SWAP2 SWAP1 POP POP POP PUSH2 0x8E0 JUMP JUMPDEST PUSH1 0x40 MLOAD DUP1 DUP3 DUP2 MSTORE PUSH1 0x20 ADD SWAP2 POP POP PUSH1 0x40 MLOAD DUP1 SWAP2 SUB SWAP1 RETURN JUMPDEST CALLVALUE DUP1 ISZERO PUSH2 0x45F JUMPI PUSH1 0x0 DUP1 REVERT JUMPDEST POP PUSH2 0x47E PUSH1 0x4 DUP1 CALLDATASIZE SUB DUP2 ADD SWAP1 DUP1 DUP1 CALLDATALOAD SWAP1 PUSH1 0x20 ADD SWAP1 SWAP3 SWAP2 SWAP1 POP POP POP PUSH2 0x8F2 JUMP JUMPDEST PUSH1 0x40 MLOAD DUP1 DUP3 PUSH1 0xFF AND PUSH1 0xFF AND DUP2 MSTORE PUSH1 0x20 ADD SWAP2 POP POP PUSH1 0x40 MLOAD DUP1 SWAP2 SUB SWAP1 RETURN JUMPDEST PUSH1 0x0 DUP1 PUSH1 0x0 DUP1 PUSH1 0x0 DUP1 DUP10 GT DUP1 ISZERO PUSH2 0x4B1 JUMPI POP PUSH1 0x0 DUP9 GT JUMPDEST DUP1 ISZERO PUSH2 0x4C3 JUMPI POP PUSH1 0x0 DUP8 PUSH4 0xFFFFFFFF AND GT JUMPDEST DUP1 ISZERO PUSH2 0x4DE JUMPI POP PUSH3 0xF4240 PUSH4 0xFFFFFFFF AND DUP8 PUSH4 0xFFFFFFFF AND GT ISZERO JUMPDEST ISZERO ISZERO PUSH2 0x4E9 JUMPI PUSH1 0x0 DUP1 REVERT JUMPDEST PUSH1 0x0 DUP7 EQ ISZERO PUSH2 0x4FB JUMPI PUSH1 0x0 SWAP5 POP PUSH2 0x588 JUMP JUMPDEST PUSH3 0xF4240 PUSH4 0xFFFFFFFF AND DUP8 PUSH4 0xFFFFFFFF AND EQ ISZERO PUSH2 0x537 JUMPI DUP8 PUSH2 0x526 DUP8 DUP12 PUSH2 0x904 SWAP1 SWAP2 SWAP1 PUSH4 0xFFFFFFFF AND JUMP JUMPDEST DUP2 ISZERO ISZERO PUSH2 0x52F JUMPI INVALID JUMPDEST DIV SWAP5 POP PUSH2 0x588 JUMP JUMPDEST PUSH2 0x54A DUP9 DUP8 PUSH2 0x942 SWAP1 SWAP2 SWAP1 PUSH4 0xFFFFFFFF AND JUMP JUMPDEST SWAP2 POP PUSH2 0x55B DUP3 DUP10 DUP10 PUSH3 0xF4240 PUSH2 0x963 JUMP JUMPDEST DUP1 SWAP5 POP DUP2 SWAP6 POP POP POP DUP3 PUSH1 0xFF AND PUSH2 0x57A DUP6 DUP12 PUSH2 0x904 SWAP1 SWAP2 SWAP1 PUSH4 0xFFFFFFFF AND JUMP JUMPDEST SWAP1 PUSH1 0x2 EXP SWAP1 DIV SWAP1 POP DUP9 DUP2 SUB SWAP5 POP JUMPDEST POP POP POP POP SWAP5 SWAP4 POP POP POP POP JUMP JUMPDEST PUSH1 0x0 PUSH2 0x59F DUP3 PUSH2 0xA5E JUMP JUMPDEST SWAP1 POP SWAP2 SWAP1 POP JUMP JUMPDEST PUSH1 0x0 PUSH2 0x5B1 DUP3 PUSH2 0x102D JUMP JUMPDEST SWAP1 POP SWAP2 SWAP1 POP JUMP JUMPDEST PUSH1 0x0 DUP1 PUSH1 0x0 DUP1 PUSH1 0x0 DUP1 PUSH1 0x0 DUP11 GT DUP1 ISZERO PUSH2 0x5D1 JUMPI POP PUSH1 0x0 DUP10 GT JUMPDEST DUP1 ISZERO PUSH2 0x5E3 JUMPI POP PUSH1 0x0 DUP9 PUSH4 0xFFFFFFFF AND GT JUMPDEST DUP1 ISZERO PUSH2 0x5FE JUMPI POP PUSH3 0xF4240 PUSH4 0xFFFFFFFF AND DUP9 PUSH4 0xFFFFFFFF AND GT ISZERO JUMPDEST DUP1 ISZERO PUSH2 0x60A JUMPI POP DUP10 DUP8 GT ISZERO JUMPDEST ISZERO ISZERO PUSH2 0x615 JUMPI PUSH1 0x0 DUP1 REVERT JUMPDEST PUSH1 0x0 DUP8 EQ ISZERO PUSH2 0x627 JUMPI PUSH1 0x0 SWAP6 POP PUSH2 0x6C1 JUMP JUMPDEST DUP10 DUP8 EQ ISZERO PUSH2 0x637 JUMPI DUP9 SWAP6 POP PUSH2 0x6C1 JUMP JUMPDEST PUSH3 0xF4240 PUSH4 0xFFFFFFFF AND DUP9 PUSH4 0xFFFFFFFF AND EQ ISZERO PUSH2 0x673 JUMPI DUP10 PUSH2 0x662 DUP9 DUP12 PUSH2 0x904 SWAP1 SWAP2 SWAP1 PUSH4 0xFFFFFFFF AND JUMP JUMPDEST DUP2 ISZERO ISZERO PUSH2 0x66B JUMPI INVALID JUMPDEST DIV SWAP6 POP PUSH2 0x6C1 JUMP JUMPDEST DUP7 DUP11 SUB SWAP3 POP PUSH2 0x687 DUP11 DUP5 PUSH3 0xF4240 DUP12 PUSH2 0x963 JUMP JUMPDEST DUP1 SWAP6 POP DUP2 SWAP7 POP POP POP PUSH2 0x6A2 DUP6 DUP11 PUSH2 0x904 SWAP1 SWAP2 SWAP1 PUSH4 0xFFFFFFFF AND JUMP JUMPDEST SWAP2 POP DUP4 PUSH1 0xFF AND DUP10 SWAP1 PUSH1 0x2 EXP MUL SWAP1 POP DUP5 DUP2 DUP4 SUB DUP2 ISZERO ISZERO PUSH2 0x6BD JUMPI INVALID JUMPDEST DIV SWAP6 POP JUMPDEST POP POP POP POP POP SWAP5 SWAP4 POP POP POP POP JUMP JUMPDEST PUSH1 0x0 DUP1 SLOAD PUSH1 0x1 DUP2 PUSH1 0x1 AND ISZERO PUSH2 0x100 MUL SUB AND PUSH1 0x2 SWAP1 DIV DUP1 PUSH1 0x1F ADD PUSH1 0x20 DUP1 SWAP2 DIV MUL PUSH1 0x20 ADD PUSH1 0x40 MLOAD SWAP1 DUP2 ADD PUSH1 0x40 MSTORE DUP1 SWAP3 SWAP2 SWAP1 DUP2 DUP2 MSTORE PUSH1 0x20 ADD DUP3 DUP1 SLOAD PUSH1 0x1 DUP2 PUSH1 0x1 AND ISZERO PUSH2 0x100 MUL SUB AND PUSH1 0x2 SWAP1 DIV DUP1 ISZERO PUSH2 0x764 JUMPI DUP1 PUSH1 0x1F LT PUSH2 0x739 JUMPI PUSH2 0x100 DUP1 DUP4 SLOAD DIV MUL DUP4 MSTORE SWAP2 PUSH1 0x20 ADD SWAP2 PUSH2 0x764 JUMP JUMPDEST DUP3 ADD SWAP2 SWAP1 PUSH1 0x0 MSTORE PUSH1 0x20 PUSH1 0x0 KECCAK256 SWAP1 JUMPDEST DUP2 SLOAD DUP2 MSTORE SWAP1 PUSH1 0x1 ADD SWAP1 PUSH1 0x20 ADD DUP1 DUP4 GT PUSH2 0x747 JUMPI DUP3 SWAP1 SUB PUSH1 0x1F AND DUP3 ADD SWAP2 JUMPDEST POP POP POP POP POP DUP2 JUMP JUMPDEST PUSH1 0x0 DUP1 PUSH1 0x0 DUP1 PUSH1 0x0 DUP1 PUSH1 0x0 DUP12 GT DUP1 ISZERO PUSH2 0x78B JUMPI POP PUSH1 0x0 DUP11 PUSH4 0xFFFFFFFF AND GT JUMPDEST DUP1 ISZERO PUSH2 0x7A6 JUMPI POP PUSH3 0xF4240 PUSH4 0xFFFFFFFF AND DUP11 PUSH4 0xFFFFFFFF AND GT ISZERO JUMPDEST DUP1 ISZERO PUSH2 0x7B2 JUMPI POP PUSH1 0x0 DUP10 GT JUMPDEST DUP1 ISZERO PUSH2 0x7C4 JUMPI POP PUSH1 0x0 DUP9 PUSH4 0xFFFFFFFF AND GT JUMPDEST DUP1 ISZERO PUSH2 0x7DF JUMPI POP PUSH3 0xF4240 PUSH4 0xFFFFFFFF AND DUP9 PUSH4 0xFFFFFFFF AND GT ISZERO JUMPDEST ISZERO ISZERO PUSH2 0x7EA JUMPI PUSH1 0x0 DUP1 REVERT JUMPDEST DUP8 PUSH4 0xFFFFFFFF AND DUP11 PUSH4 0xFFFFFFFF AND EQ ISZERO PUSH2 0x835 JUMPI PUSH2 0x811 DUP8 DUP13 PUSH2 0x942 SWAP1 SWAP2 SWAP1 PUSH4 0xFFFFFFFF AND JUMP JUMPDEST PUSH2 0x824 DUP9 DUP12 PUSH2 0x904 SWAP1 SWAP2 SWAP1 PUSH4 0xFFFFFFFF AND JUMP JUMPDEST DUP2 ISZERO ISZERO PUSH2 0x82D JUMPI INVALID JUMPDEST DIV SWAP6 POP PUSH2 0x890 JUMP JUMPDEST PUSH2 0x848 DUP8 DUP13 PUSH2 0x942 SWAP1 SWAP2 SWAP1 PUSH4 0xFFFFFFFF AND JUMP JUMPDEST SWAP3 POP PUSH2 0x856 DUP4 DUP13 DUP13 DUP12 PUSH2 0x963 JUMP JUMPDEST DUP1 SWAP6 POP DUP2 SWAP7 POP POP POP PUSH2 0x871 DUP6 DUP11 PUSH2 0x904 SWAP1 SWAP2 SWAP1 PUSH4 0xFFFFFFFF AND JUMP JUMPDEST SWAP2 POP DUP4 PUSH1 0xFF AND DUP10 SWAP1 PUSH1 0x2 EXP MUL SWAP1 POP DUP5 DUP2 DUP4 SUB DUP2 ISZERO ISZERO PUSH2 0x88C JUMPI INVALID JUMPDEST DIV SWAP6 POP JUMPDEST POP POP POP POP POP SWAP6 SWAP5 POP POP POP POP POP JUMP JUMPDEST PUSH1 0x0 PUSH2 0x8AA DUP4 DUP4 PUSH2 0x1163 JUMP JUMPDEST SWAP1 POP SWAP3 SWAP2 POP POP JUMP JUMPDEST PUSH1 0x0 DUP1 PUSH2 0x8C1 DUP7 DUP7 DUP7 DUP7 PUSH2 0x963 JUMP JUMPDEST SWAP2 POP SWAP2 POP SWAP5 POP SWAP5 SWAP3 POP POP POP JUMP JUMPDEST PUSH1 0x0 PUSH2 0x8D9 DUP3 PUSH2 0x1587 JUMP JUMPDEST SWAP1 POP SWAP2 SWAP1 POP JUMP JUMPDEST PUSH1 0x0 PUSH2 0x8EB DUP3 PUSH2 0x164A JUMP JUMPDEST SWAP1 POP SWAP2 SWAP1 POP JUMP JUMPDEST PUSH1 0x0 PUSH2 0x8FD DUP3 PUSH2 0x1C0A JUMP JUMPDEST SWAP1 POP SWAP2 SWAP1 POP JUMP JUMPDEST PUSH1 0x0 DUP1 PUSH1 0x0 DUP5 EQ ISZERO PUSH2 0x919 JUMPI PUSH1 0x0 SWAP2 POP PUSH2 0x93B JUMP JUMPDEST DUP3 DUP5 MUL SWAP1 POP DUP3 DUP5 DUP3 DUP2 ISZERO ISZERO PUSH2 0x92A JUMPI INVALID JUMPDEST DIV EQ ISZERO ISZERO PUSH2 0x937 JUMPI PUSH1 0x0 DUP1 REVERT JUMPDEST DUP1 SWAP2 POP JUMPDEST POP SWAP3 SWAP2 POP POP JUMP JUMPDEST PUSH1 0x0 DUP1 DUP3 DUP5 ADD SWAP1 POP DUP4 DUP2 LT ISZERO ISZERO ISZERO PUSH2 0x959 JUMPI PUSH1 0x0 DUP1 REVERT JUMPDEST DUP1 SWAP2 POP POP SWAP3 SWAP2 POP POP JUMP JUMPDEST PUSH1 0x0 DUP1 PUSH1 0x0 DUP1 PUSH1 0x0 DUP1 PUSH17 0x200000000000000000000000000000000 DUP11 LT ISZERO ISZERO PUSH2 0x98B JUMPI PUSH1 0x0 DUP1 REVERT JUMPDEST DUP9 PUSH16 0x80000000000000000000000000000000 DUP12 MUL DUP2 ISZERO ISZERO PUSH2 0x9A8 JUMPI INVALID JUMPDEST DIV SWAP3 POP PUSH17 0x15BF0A8B1457695355FB8AC404E7A79E3 DUP4 LT ISZERO PUSH2 0x9D4 JUMPI PUSH2 0x9CD DUP4 PUSH2 0xA5E JUMP JUMPDEST SWAP4 POP PUSH2 0x9E0 JUMP JUMPDEST PUSH2 0x9DD DUP4 PUSH2 0x102D JUMP JUMPDEST SWAP4 POP JUMPDEST DUP7 PUSH4 0xFFFFFFFF AND DUP9 PUSH4 0xFFFFFFFF AND DUP6 MUL DUP2 ISZERO ISZERO PUSH2 0x9F9 JUMPI INVALID JUMPDEST DIV SWAP2 POP PUSH17 0x800000000000000000000000000000000 DUP3 LT ISZERO PUSH2 0xA29 JUMPI PUSH2 0xA1E DUP3 PUSH2 0x164A JUMP JUMPDEST PUSH1 0x7F SWAP6 POP SWAP6 POP PUSH2 0xA51 JUMP JUMPDEST PUSH2 0xA32 DUP3 PUSH2 0x1587 JUMP JUMPDEST SWAP1 POP PUSH2 0xA4B DUP2 PUSH1 0x7F SUB PUSH1 0xFF AND DUP4 SWAP1 PUSH1 0x2 EXP SWAP1 DIV DUP3 PUSH2 0x1163 JUMP JUMPDEST DUP2 SWAP6 POP SWAP6 POP JUMPDEST POP POP POP POP SWAP5 POP SWAP5 SWAP3 POP POP POP JUMP JUMPDEST PUSH1 0x0 DUP1 PUSH1 0x0 DUP1 PUSH1 0x0 DUP1 SWAP4 POP PUSH16 0xD3094C70F034DE4B96FF7D5B6F99FCD8 DUP7 LT ISZERO ISZERO PUSH2 0xAC8 JUMPI PUSH16 0x40000000000000000000000000000000 DUP5 ADD SWAP4 POP PUSH16 0xD3094C70F034DE4B96FF7D5B6F99FCD8 PUSH16 0x80000000000000000000000000000000 DUP8 MUL DUP2 ISZERO ISZERO PUSH2 0xAC4 JUMPI INVALID JUMPDEST DIV SWAP6 POP JUMPDEST PUSH16 0xA45AF1E1F40C333B3DE1DB4DD55F29A7 DUP7 LT ISZERO ISZERO PUSH2 0xB27 JUMPI PUSH16 0x20000000000000000000000000000000 DUP5 ADD SWAP4 POP PUSH16 0xA45AF1E1F40C333B3DE1DB4DD55F29A7 PUSH16 0x80000000000000000000000000000000 DUP8 MUL DUP2 ISZERO ISZERO PUSH2 0xB23 JUMPI INVALID JUMPDEST DIV SWAP6 POP JUMPDEST PUSH16 0x910B022DB7AE67CE76B441C27035C6A1 DUP7 LT ISZERO ISZERO PUSH2 0xB86 JUMPI PUSH16 0x10000000000000000000000000000000 DUP5 ADD SWAP4 POP PUSH16 0x910B022DB7AE67CE76B441C27035C6A1 PUSH16 0x80000000000000000000000000000000 DUP8 MUL DUP2 ISZERO ISZERO PUSH2 0xB82 JUMPI INVALID JUMPDEST DIV SWAP6 POP JUMPDEST PUSH16 0x88415ABBE9A76BEAD8D00CF112E4D4A8 DUP7 LT ISZERO ISZERO PUSH2 0xBE5 JUMPI PUSH16 0x8000000000000000000000000000000 DUP5 ADD SWAP4 POP PUSH16 0x88415ABBE9A76BEAD8D00CF112E4D4A8 PUSH16 0x80000000000000000000000000000000 DUP8 MUL DUP2 ISZERO ISZERO PUSH2 0xBE1 JUMPI INVALID JUMPDEST DIV SWAP6 POP JUMPDEST PUSH16 0x84102B00893F64C705E841D5D4064BD3 DUP7 LT ISZERO ISZERO PUSH2 0xC44 JUMPI PUSH16 0x4000000000000000000000000000000 DUP5 ADD SWAP4 POP PUSH16 0x84102B00893F64C705E841D5D4064BD3 PUSH16 0x80000000000000000000000000000000 DUP8 MUL DUP2 ISZERO ISZERO PUSH2 0xC40 JUMPI INVALID JUMPDEST DIV SWAP6 POP JUMPDEST PUSH16 0x8204055AAEF1C8BD5C3259F4822735A2 DUP7 LT ISZERO ISZERO PUSH2 0xCA3 JUMPI PUSH16 0x2000000000000000000000000000000 DUP5 ADD SWAP4 POP PUSH16 0x8204055AAEF1C8BD5C3259F4822735A2 PUSH16 0x80000000000000000000000000000000 DUP8 MUL DUP2 ISZERO ISZERO PUSH2 0xC9F JUMPI INVALID JUMPDEST DIV SWAP6 POP JUMPDEST PUSH16 0x810100AB00222D861931C15E39B44E99 DUP7 LT ISZERO ISZERO PUSH2 0xD02 JUMPI PUSH16 0x1000000000000000000000000000000 DUP5 ADD SWAP4 POP PUSH16 0x810100AB00222D861931C15E39B44E99 PUSH16 0x80000000000000000000000000000000 DUP8 MUL DUP2 ISZERO ISZERO PUSH2 0xCFE JUMPI INVALID JUMPDEST DIV SWAP6 POP JUMPDEST PUSH16 0x808040155AABBBE9451521693554F733 DUP7 LT ISZERO ISZERO PUSH2 0xD60 JUMPI PUSH15 0x800000000000000000000000000000 DUP5 ADD SWAP4 POP PUSH16 0x808040155AABBBE9451521693554F733 PUSH16 0x80000000000000000000000000000000 DUP8 MUL DUP2 ISZERO ISZERO PUSH2 0xD5C JUMPI INVALID JUMPDEST DIV SWAP6 POP JUMPDEST PUSH16 0x80000000000000000000000000000000 DUP7 SUB SWAP3 POP DUP3 SWAP2 POP PUSH16 0x80000000000000000000000000000000 DUP4 DUP5 MUL DUP2 ISZERO ISZERO PUSH2 0xD95 JUMPI INVALID JUMPDEST DIV SWAP1 POP PUSH17 0x100000000000000000000000000000000 DUP4 PUSH17 0x100000000000000000000000000000000 SUB DUP4 MUL DUP2 ISZERO ISZERO PUSH2 0xDC9 JUMPI INVALID JUMPDEST DIV DUP5 ADD SWAP4 POP PUSH16 0x80000000000000000000000000000000 DUP2 DUP4 MUL DUP2 ISZERO ISZERO PUSH2 0xDEB JUMPI INVALID JUMPDEST DIV SWAP2 POP PUSH17 0x200000000000000000000000000000000 DUP4 PUSH16 0xAAAAAAAAAAAAAAAAAAAAAAAAAAAAAAAA SUB DUP4 MUL DUP2 ISZERO ISZERO PUSH2 0xE1E JUMPI INVALID JUMPDEST DIV DUP5 ADD SWAP4 POP PUSH16 0x80000000000000000000000000000000 DUP2 DUP4 MUL DUP2 ISZERO ISZERO PUSH2 0xE40 JUMPI INVALID JUMPDEST DIV SWAP2 POP PUSH17 0x300000000000000000000000000000000 DUP4 PUSH16 0x99999999999999999999999999999999 SUB DUP4 MUL DUP2 ISZERO ISZERO PUSH2 0xE73 JUMPI INVALID JUMPDEST DIV DUP5 ADD SWAP4 POP PUSH16 0x80000000000000000000000000000000 DUP2 DUP4 MUL DUP2 ISZERO ISZERO PUSH2 0xE95 JUMPI INVALID JUMPDEST DIV SWAP2 POP PUSH17 0x400000000000000000000000000000000 DUP4 PUSH16 0x92492492492492492492492492492492 SUB DUP4 MUL DUP2 ISZERO ISZERO PUSH2 0xEC8 JUMPI INVALID JUMPDEST DIV DUP5 ADD SWAP4 POP PUSH16 0x80000000000000000000000000000000 DUP2 DUP4 MUL DUP2 ISZERO ISZERO PUSH2 0xEEA JUMPI INVALID JUMPDEST DIV SWAP2 POP PUSH17 0x500000000000000000000000000000000 DUP4 PUSH16 0x8E38E38E38E38E38E38E38E38E38E38E SUB DUP4 MUL DUP2 ISZERO ISZERO PUSH2 0xF1D JUMPI INVALID JUMPDEST DIV DUP5 ADD SWAP4 POP PUSH16 0x80000000000000000000000000000000 DUP2 DUP4 MUL DUP2 ISZERO ISZERO PUSH2 0xF3F JUMPI INVALID JUMPDEST DIV SWAP2 POP PUSH17 0x600000000000000000000000000000000 DUP4 PUSH16 0x8BA2E8BA2E8BA2E8BA2E8BA2E8BA2E8B SUB DUP4 MUL DUP2 ISZERO ISZERO PUSH2 0xF72 JUMPI INVALID JUMPDEST DIV DUP5 ADD SWAP4 POP PUSH16 0x80000000000000000000000000000000 DUP2 DUP4 MUL DUP2 ISZERO ISZERO PUSH2 0xF94 JUMPI INVALID JUMPDEST DIV SWAP2 POP PUSH17 0x700000000000000000000000000000000 DUP4 PUSH16 0x89D89D89D89D89D89D89D89D89D89D89 SUB DUP4 MUL DUP2 ISZERO ISZERO PUSH2 0xFC7 JUMPI INVALID JUMPDEST DIV DUP5 ADD SWAP4 POP PUSH16 0x80000000000000000000000000000000 DUP2 DUP4 MUL DUP2 ISZERO ISZERO PUSH2 0xFE9 JUMPI INVALID JUMPDEST DIV SWAP2 POP PUSH17 0x800000000000000000000000000000000 DUP4 PUSH16 0x88888888888888888888888888888888 SUB DUP4 MUL DUP2 ISZERO ISZERO PUSH2 0x101C JUMPI INVALID JUMPDEST DIV DUP5 ADD SWAP4 POP DUP4 SWAP5 POP POP POP POP POP SWAP2 SWAP1 POP JUMP JUMPDEST PUSH1 0x0 DUP1 PUSH1 0x0 DUP1 PUSH1 0x0 SWAP3 POP PUSH17 0x100000000000000000000000000000000 DUP6 LT ISZERO ISZERO PUSH2 0x109D JUMPI PUSH2 0x1075 PUSH16 0x80000000000000000000000000000000 DUP7 DUP2 ISZERO ISZERO PUSH2 0x106F JUMPI INVALID JUMPDEST DIV PUSH2 0x1C0A JUMP JUMPDEST SWAP2 POP DUP2 PUSH1 0xFF AND DUP6 SWAP1 PUSH1 0x2 EXP SWAP1 DIV SWAP5 POP PUSH16 0x80000000000000000000000000000000 DUP3 PUSH1 0xFF AND MUL SWAP3 POP JUMPDEST PUSH16 0x80000000000000000000000000000000 DUP6 GT ISZERO PUSH2 0x112B JUMPI PUSH1 0x7F SWAP1 POP JUMPDEST PUSH1 0x0 DUP2 PUSH1 0xFF AND GT ISZERO PUSH2 0x112A JUMPI PUSH16 0x80000000000000000000000000000000 DUP6 DUP7 MUL DUP2 ISZERO ISZERO PUSH2 0x10E3 JUMPI INVALID JUMPDEST DIV SWAP5 POP PUSH17 0x100000000000000000000000000000000 DUP6 LT ISZERO ISZERO PUSH2 0x111E JUMPI PUSH1 0x1 DUP6 SWAP1 PUSH1 0x2 EXP SWAP1 DIV SWAP5 POP PUSH1 0x1 DUP2 SUB PUSH1 0xFF AND PUSH1 0x1 SWAP1 PUSH1 0x2 EXP MUL DUP4 ADD SWAP3 POP JUMPDEST DUP1 PUSH1 0x1 SWAP1 SUB SWAP1 POP PUSH2 0x10BA JUMP JUMPDEST JUMPDEST PUSH16 0x5B9DE1D10BF4103D647B0955897BA80 PUSH16 0x3F80FE03F80FE03F80FE03F80FE03F8 DUP5 MUL DUP2 ISZERO ISZERO PUSH2 0x1158 JUMPI INVALID JUMPDEST DIV SWAP4 POP POP POP POP SWAP2 SWAP1 POP JUMP JUMPDEST PUSH1 0x0 DUP1 PUSH1 0x0 DUP5 SWAP2 POP PUSH1 0x0 SWAP1 POP DUP4 PUSH1 0xFF AND DUP6 DUP4 MUL SWAP1 PUSH1 0x2 EXP SWAP1 DIV SWAP2 POP PUSH16 0x3442C4E6074A82F1797F72AC0000000 DUP3 MUL DUP2 ADD SWAP1 POP DUP4 PUSH1 0xFF AND DUP6 DUP4 MUL SWAP1 PUSH1 0x2 EXP SWAP1 DIV SWAP2 POP PUSH16 0x116B96F757C380FB287FD0E40000000 DUP3 MUL DUP2 ADD SWAP1 POP DUP4 PUSH1 0xFF AND DUP6 DUP4 MUL SWAP1 PUSH1 0x2 EXP SWAP1 DIV SWAP2 POP PUSH15 0x45AE5BDD5F0E03ECA1FF4390000000 DUP3 MUL DUP2 ADD SWAP1 POP DUP4 PUSH1 0xFF AND DUP6 DUP4 MUL SWAP1 PUSH1 0x2 EXP SWAP1 DIV SWAP2 POP PUSH15 0xDEFABF91302CD95B9FFDA50000000 DUP3 MUL DUP2 ADD SWAP1 POP DUP4 PUSH1 0xFF AND DUP6 DUP4 MUL SWAP1 PUSH1 0x2 EXP SWAP1 DIV SWAP2 POP PUSH15 0x2529CA9832B22439EFFF9B8000000 DUP3 MUL DUP2 ADD SWAP1 POP DUP4 PUSH1 0xFF AND DUP6 DUP4 MUL SWAP1 PUSH1 0x2 EXP SWAP1 DIV SWAP2 POP PUSH14 0x54F1CF12BD04E516B6DA88000000 DUP3 MUL DUP2 ADD SWAP1 POP DUP4 PUSH1 0xFF AND DUP6 DUP4 MUL SWAP1 PUSH1 0x2 EXP SWAP1 DIV SWAP2 POP PUSH14 0xA9E39E257A09CA2D6DB51000000 DUP3 MUL DUP2 ADD SWAP1 POP DUP4 PUSH1 0xFF AND DUP6 DUP4 MUL SWAP1 PUSH1 0x2 EXP SWAP1 DIV SWAP2 POP PUSH14 0x12E066E7B839FA050C309000000 DUP3 MUL DUP2 ADD SWAP1 POP DUP4 PUSH1 0xFF AND DUP6 DUP4 MUL SWAP1 PUSH1 0x2 EXP SWAP1 DIV SWAP2 POP PUSH13 0x1E33D7D926C329A1AD1A800000 DUP3 MUL DUP2 ADD SWAP1 POP DUP4 PUSH1 0xFF AND DUP6 DUP4 MUL SWAP1 PUSH1 0x2 EXP SWAP1 DIV SWAP2 POP PUSH13 0x2BEE513BDB4A6B19B5F800000 DUP3 MUL DUP2 ADD SWAP1 POP DUP4 PUSH1 0xFF AND DUP6 DUP4 MUL SWAP1 PUSH1 0x2 EXP SWAP1 DIV SWAP2 POP PUSH12 0x3A9316FA79B88ECCF2A00000 DUP3 MUL DUP2 ADD SWAP1 POP DUP4 PUSH1 0xFF AND DUP6 DUP4 MUL SWAP1 PUSH1 0x2 EXP SWAP1 DIV SWAP2 POP PUSH12 0x48177EBE1FA812375200000 DUP3 MUL DUP2 ADD SWAP1 POP DUP4 PUSH1 0xFF AND DUP6 DUP4 MUL SWAP1 PUSH1 0x2 EXP SWAP1 DIV SWAP2 POP PUSH11 0x5263FE90242DCBACF00000 DUP3 MUL DUP2 ADD SWAP1 POP DUP4 PUSH1 0xFF AND DUP6 DUP4 MUL SWAP1 PUSH1 0x2 EXP SWAP1 DIV SWAP2 POP PUSH11 0x57E22099C030D94100000 DUP3 MUL DUP2 ADD SWAP1 POP DUP4 PUSH1 0xFF AND DUP6 DUP4 MUL SWAP1 PUSH1 0x2 EXP SWAP1 DIV SWAP2 POP PUSH10 0x57E22099C030D9410000 DUP3 MUL DUP2 ADD SWAP1 POP DUP4 PUSH1 0xFF AND DUP6 DUP4 MUL SWAP1 PUSH1 0x2 EXP SWAP1 DIV SWAP2 POP PUSH10 0x52B6B54569976310000 DUP3 MUL DUP2 ADD SWAP1 POP DUP4 PUSH1 0xFF AND DUP6 DUP4 MUL SWAP1 PUSH1 0x2 EXP SWAP1 DIV SWAP2 POP PUSH9 0x4985F67696BF748000 DUP3 MUL DUP2 ADD SWAP1 POP DUP4 PUSH1 0xFF AND DUP6 DUP4 MUL SWAP1 PUSH1 0x2 EXP SWAP1 DIV SWAP2 POP PUSH9 0x3DEA12EA99E498000 DUP3 MUL DUP2 ADD SWAP1 POP DUP4 PUSH1 0xFF AND DUP6 DUP4 MUL SWAP1 PUSH1 0x2 EXP SWAP1 DIV SWAP2 POP PUSH8 0x31880F2214B6E000 DUP3 MUL DUP2 ADD SWAP1 POP DUP4 PUSH1 0xFF AND DUP6 DUP4 MUL SWAP1 PUSH1 0x2 EXP SWAP1 DIV SWAP2 POP PUSH8 0x25BCFF56EB36000 DUP3 MUL DUP2 ADD SWAP1 POP DUP4 PUSH1 0xFF AND DUP6 DUP4 MUL SWAP1 PUSH1 0x2 EXP SWAP1 DIV SWAP2 POP PUSH7 0x1B722E10AB1000 DUP3 MUL DUP2 ADD SWAP1 POP DUP4 PUSH1 0xFF AND DUP6 DUP4 MUL SWAP1 PUSH1 0x2 EXP SWAP1 DIV SWAP2 POP PUSH7 0x1317C70077000 DUP3 MUL DUP2 ADD SWAP1 POP DUP4 PUSH1 0xFF AND DUP6 DUP4 MUL SWAP1 PUSH1 0x2 EXP SWAP1 DIV SWAP2 POP PUSH6 0xCBA84AAFA00 DUP3 MUL DUP2 ADD SWAP1 POP DUP4 PUSH1 0xFF AND DUP6 DUP4 MUL SWAP1 PUSH1 0x2 EXP SWAP1 DIV SWAP2 POP PUSH5 0x82573A0A00 DUP3 MUL DUP2 ADD SWAP1 POP DUP4 PUSH1 0xFF AND DUP6 DUP4 MUL SWAP1 PUSH1 0x2 EXP SWAP1 DIV SWAP2 POP PUSH5 0x5035AD900 DUP3 MUL DUP2 ADD SWAP1 POP DUP4 PUSH1 0xFF AND DUP6 DUP4 MUL SWAP1 PUSH1 0x2 EXP SWAP1 DIV SWAP2 POP PUSH4 0x2F881B00 DUP3 MUL DUP2 ADD SWAP1 POP DUP4 PUSH1 0xFF AND DUP6 DUP4 MUL SWAP1 PUSH1 0x2 EXP SWAP1 DIV SWAP2 POP PUSH4 0x1B29340 DUP3 MUL DUP2 ADD SWAP1 POP DUP4 PUSH1 0xFF AND DUP6 DUP4 MUL SWAP1 PUSH1 0x2 EXP SWAP1 DIV SWAP2 POP PUSH3 0xEFC40 DUP3 MUL DUP2 ADD SWAP1 POP DUP4 PUSH1 0xFF AND DUP6 DUP4 MUL SWAP1 PUSH1 0x2 EXP SWAP1 DIV SWAP2 POP PUSH2 0x7FE0 DUP3 MUL DUP2 ADD SWAP1 POP DUP4 PUSH1 0xFF AND DUP6 DUP4 MUL SWAP1 PUSH1 0x2 EXP SWAP1 DIV SWAP2 POP PUSH2 0x420 DUP3 MUL DUP2 ADD SWAP1 POP DUP4 PUSH1 0xFF AND DUP6 DUP4 MUL SWAP1 PUSH1 0x2 EXP SWAP1 DIV SWAP2 POP PUSH1 0x21 DUP3 MUL DUP2 ADD SWAP1 POP DUP4 PUSH1 0xFF AND DUP6 DUP4 MUL SWAP1 PUSH1 0x2 EXP SWAP1 DIV SWAP2 POP PUSH1 0x1 DUP3 MUL DUP2 ADD SWAP1 POP DUP4 PUSH1 0xFF AND PUSH1 0x1 SWAP1 PUSH1 0x2 EXP MUL DUP6 PUSH16 0x688589CC0E9505E2F2FEE5580000000 DUP4 DUP2 ISZERO ISZERO PUSH2 0x157A JUMPI INVALID JUMPDEST DIV ADD ADD SWAP3 POP POP POP SWAP3 SWAP2 POP POP JUMP JUMPDEST PUSH1 0x0 DUP1 PUSH1 0x0 DUP1 PUSH1 0x20 SWAP3 POP PUSH1 0x7F SWAP2 POP JUMPDEST DUP2 PUSH1 0xFF AND PUSH1 0x1 DUP5 ADD PUSH1 0xFF AND LT ISZERO PUSH2 0x15E8 JUMPI PUSH1 0x2 DUP3 DUP5 ADD PUSH1 0xFF AND DUP2 ISZERO ISZERO PUSH2 0x15B8 JUMPI INVALID JUMPDEST DIV SWAP1 POP DUP5 PUSH1 0x1 DUP3 PUSH1 0xFF AND PUSH1 0x80 DUP2 LT ISZERO ISZERO PUSH2 0x15CE JUMPI INVALID JUMPDEST ADD SLOAD LT ISZERO ISZERO PUSH2 0x15DF JUMPI DUP1 SWAP3 POP PUSH2 0x15E3 JUMP JUMPDEST DUP1 SWAP2 POP JUMPDEST PUSH2 0x1596 JUMP JUMPDEST DUP5 PUSH1 0x1 DUP4 PUSH1 0xFF AND PUSH1 0x80 DUP2 LT ISZERO ISZERO PUSH2 0x15FB JUMPI INVALID JUMPDEST ADD SLOAD LT ISZERO ISZERO PUSH2 0x160C JUMPI DUP2 SWAP4 POP PUSH2 0x1642 JUMP JUMPDEST DUP5 PUSH1 0x1 DUP5 PUSH1 0xFF AND PUSH1 0x80 DUP2 LT ISZERO ISZERO PUSH2 0x161F JUMPI INVALID JUMPDEST ADD SLOAD LT ISZERO ISZERO PUSH2 0x1630 JUMPI DUP3 SWAP4 POP PUSH2 0x1642 JUMP JUMPDEST PUSH1 0x0 ISZERO ISZERO PUSH2 0x163D JUMPI PUSH1 0x0 DUP1 REVERT JUMPDEST PUSH1 0x0 SWAP4 POP JUMPDEST POP POP POP SWAP2 SWAP1 POP JUMP JUMPDEST PUSH1 0x0 DUP1 PUSH1 0x0 DUP1 PUSH1 0x0 SWAP3 POP PUSH16 0x10000000000000000000000000000000 DUP6 DUP2 ISZERO ISZERO PUSH2 0x166F JUMPI INVALID JUMPDEST MOD SWAP2 POP DUP2 SWAP1 POP PUSH16 0x80000000000000000000000000000000 DUP3 DUP3 MUL DUP2 ISZERO ISZERO PUSH2 0x1692 JUMPI INVALID JUMPDEST DIV SWAP1 POP PUSH8 0x10E1B3BE415A0000 DUP2 MUL DUP4 ADD SWAP3 POP PUSH16 0x80000000000000000000000000000000 DUP3 DUP3 MUL DUP2 ISZERO ISZERO PUSH2 0x16C1 JUMPI INVALID JUMPDEST DIV SWAP1 POP PUSH8 0x5A0913F6B1E0000 DUP2 MUL DUP4 ADD SWAP3 POP PUSH16 0x80000000000000000000000000000000 DUP3 DUP3 MUL DUP2 ISZERO ISZERO PUSH2 0x16F0 JUMPI INVALID JUMPDEST DIV SWAP1 POP PUSH8 0x168244FDAC78000 DUP2 MUL DUP4 ADD SWAP3 POP PUSH16 0x80000000000000000000000000000000 DUP3 DUP3 MUL DUP2 ISZERO ISZERO PUSH2 0x171F JUMPI INVALID JUMPDEST DIV SWAP1 POP PUSH7 0x4807432BC18000 DUP2 MUL DUP4 ADD SWAP3 POP PUSH16 0x80000000000000000000000000000000 DUP3 DUP3 MUL DUP2 ISZERO ISZERO PUSH2 0x174D JUMPI INVALID JUMPDEST DIV SWAP1 POP PUSH7 0xC0135DCA04000 DUP2 MUL DUP4 ADD SWAP3 POP PUSH16 0x80000000000000000000000000000000 DUP3 DUP3 MUL DUP2 ISZERO ISZERO PUSH2 0x177B JUMPI INVALID JUMPDEST DIV SWAP1 POP PUSH7 0x1B707B1CDC000 DUP2 MUL DUP4 ADD SWAP3 POP PUSH16 0x80000000000000000000000000000000 DUP3 DUP3 MUL DUP2 ISZERO ISZERO PUSH2 0x17A9 JUMPI INVALID JUMPDEST DIV SWAP1 POP PUSH6 0x36E0F639B800 DUP2 MUL DUP4 ADD SWAP3 POP PUSH16 0x80000000000000000000000000000000 DUP3 DUP3 MUL DUP2 ISZERO ISZERO PUSH2 0x17D6 JUMPI INVALID JUMPDEST DIV SWAP1 POP PUSH6 0x618FEE9F800 DUP2 MUL DUP4 ADD SWAP3 POP PUSH16 0x80000000000000000000000000000000 DUP3 DUP3 MUL DUP2 ISZERO ISZERO PUSH2 0x1803 JUMPI INVALID JUMPDEST DIV SWAP1 POP PUSH5 0x9C197DCC00 DUP2 MUL DUP4 ADD SWAP3 POP PUSH16 0x80000000000000000000000000000000 DUP3 DUP3 MUL DUP2 ISZERO ISZERO PUSH2 0x182F JUMPI INVALID JUMPDEST DIV SWAP1 POP PUSH5 0xE30DCE400 DUP2 MUL DUP4 ADD SWAP3 POP PUSH16 0x80000000000000000000000000000000 DUP3 DUP3 MUL DUP2 ISZERO ISZERO PUSH2 0x185B JUMPI INVALID JUMPDEST DIV SWAP1 POP PUSH5 0x12EBD1300 DUP2 MUL DUP4 ADD SWAP3 POP PUSH16 0x80000000000000000000000000000000 DUP3 DUP3 MUL DUP2 ISZERO ISZERO PUSH2 0x1887 JUMPI INVALID JUMPDEST DIV SWAP1 POP PUSH4 0x17499F00 DUP2 MUL DUP4 ADD SWAP3 POP PUSH16 0x80000000000000000000000000000000 DUP3 DUP3 MUL DUP2 ISZERO ISZERO PUSH2 0x18B2 JUMPI INVALID JUMPDEST DIV SWAP1 POP PUSH4 0x1A9D480 DUP2 MUL DUP4 ADD SWAP3 POP PUSH16 0x80000000000000000000000000000000 DUP3 DUP3 MUL DUP2 ISZERO ISZERO PUSH2 0x18DD JUMPI INVALID JUMPDEST DIV SWAP1 POP PUSH3 0x1C6380 DUP2 MUL DUP4 ADD SWAP3 POP PUSH16 0x80000000000000000000000000000000 DUP3 DUP3 MUL DUP2 ISZERO ISZERO PUSH2 0x1907 JUMPI INVALID JUMPDEST DIV SWAP1 POP PUSH3 0x1C638 DUP2 MUL DUP4 ADD SWAP3 POP PUSH16 0x80000000000000000000000000000000 DUP3 DUP3 MUL DUP2 ISZERO ISZERO PUSH2 0x1931 JUMPI INVALID JUMPDEST DIV SWAP1 POP PUSH2 0x1AB8 DUP2 MUL DUP4 ADD SWAP3 POP PUSH16 0x80000000000000000000000000000000 DUP3 DUP3 MUL DUP2 ISZERO ISZERO PUSH2 0x195A JUMPI INVALID JUMPDEST DIV SWAP1 POP PUSH2 0x17C DUP2 MUL DUP4 ADD SWAP3 POP PUSH16 0x80000000000000000000000000000000 DUP3 DUP3 MUL DUP2 ISZERO ISZERO PUSH2 0x1983 JUMPI INVALID JUMPDEST DIV SWAP1 POP PUSH1 0x14 DUP2 MUL DUP4 ADD SWAP3 POP PUSH16 0x80000000000000000000000000000000 DUP3 DUP3 MUL DUP2 ISZERO ISZERO PUSH2 0x19AB JUMPI INVALID JUMPDEST DIV SWAP1 POP PUSH1 0x1 DUP2 MUL DUP4 ADD SWAP3 POP PUSH16 0x80000000000000000000000000000000 DUP3 PUSH8 0x21C3677C82B40000 DUP6 DUP2 ISZERO ISZERO PUSH2 0x19DB JUMPI INVALID JUMPDEST DIV ADD ADD SWAP3 POP PUSH1 0x0 PUSH16 0x10000000000000000000000000000000 DUP7 AND EQ ISZERO ISZERO PUSH2 0x1A2F JUMPI PUSH17 0x18EBEF9EAC820AE8682B9793AC6D1E776 PUSH17 0x1C3D6A24ED82218787D624D3E5EBA95F9 DUP5 MUL DUP2 ISZERO ISZERO PUSH2 0x1A2B JUMPI INVALID JUMPDEST DIV SWAP3 POP JUMPDEST PUSH1 0x0 PUSH16 0x20000000000000000000000000000000 DUP7 AND EQ ISZERO ISZERO PUSH2 0x1A7E JUMPI PUSH17 0x1368B2FC6F9609FE7ACEB46AA619BAED4 PUSH17 0x18EBEF9EAC820AE8682B9793AC6D1E778 DUP5 MUL DUP2 ISZERO ISZERO PUSH2 0x1A7A JUMPI INVALID JUMPDEST DIV SWAP3 POP JUMPDEST PUSH1 0x0 PUSH16 0x40000000000000000000000000000000 DUP7 AND EQ ISZERO ISZERO PUSH2 0x1ACC JUMPI PUSH16 0xBC5AB1B16779BE3575BD8F0520A9F21F PUSH17 0x1368B2FC6F9609FE7ACEB46AA619BAED5 DUP5 MUL DUP2 ISZERO ISZERO PUSH2 0x1AC8 JUMPI INVALID JUMPDEST DIV SWAP3 POP JUMPDEST PUSH1 0x0 PUSH16 0x80000000000000000000000000000000 DUP7 AND EQ ISZERO ISZERO PUSH2 0x1B19 JUMPI PUSH16 0x454AAA8EFE072E7F6DDBAB84B40A55C9 PUSH16 0xBC5AB1B16779BE3575BD8F0520A9F21E DUP5 MUL DUP2 ISZERO ISZERO PUSH2 0x1B15 JUMPI INVALID JUMPDEST DIV SWAP3 POP JUMPDEST PUSH1 0x0 PUSH17 0x100000000000000000000000000000000 DUP7 AND EQ ISZERO ISZERO PUSH2 0x1B67 JUMPI PUSH16 0x960AADC109E7A3BF4578099615711EA PUSH16 0x454AAA8EFE072E7F6DDBAB84B40A55C5 DUP5 MUL DUP2 ISZERO ISZERO PUSH2 0x1B63 JUMPI INVALID JUMPDEST DIV SWAP3 POP JUMPDEST PUSH1 0x0 PUSH17 0x200000000000000000000000000000000 DUP7 AND EQ ISZERO ISZERO PUSH2 0x1BB4 JUMPI PUSH15 0x2BF84208204F5977F9A8CF01FDCE3D PUSH16 0x960AADC109E7A3BF4578099615711D7 DUP5 MUL DUP2 ISZERO ISZERO PUSH2 0x1BB0 JUMPI INVALID JUMPDEST DIV SWAP3 POP JUMPDEST PUSH1 0x0 PUSH17 0x400000000000000000000000000000000 DUP7 AND EQ ISZERO ISZERO PUSH2 0x1BFF JUMPI PUSH14 0x3C6AB775DD0B95B4CBEE7E65D11 PUSH15 0x2BF84208204F5977F9A8CF01FDC307 DUP5 MUL DUP2 ISZERO ISZERO PUSH2 0x1BFB JUMPI INVALID JUMPDEST DIV SWAP3 POP JUMPDEST DUP3 SWAP4 POP POP POP POP SWAP2 SWAP1 POP JUMP JUMPDEST PUSH1 0x0 DUP1 PUSH1 0x0 DUP1 SWAP2 POP PUSH2 0x100 DUP5 LT ISZERO PUSH2 0x1C41 JUMPI JUMPDEST PUSH1 0x1 DUP5 GT ISZERO PUSH2 0x1C3C JUMPI PUSH1 0x1 DUP5 SWAP1 PUSH1 0x2 EXP SWAP1 DIV SWAP4 POP PUSH1 0x1 DUP3 ADD SWAP2 POP PUSH2 0x1C1D JUMP JUMPDEST PUSH2 0x1C8C JUMP JUMPDEST PUSH1 0x80 SWAP1 POP JUMPDEST PUSH1 0x0 DUP2 PUSH1 0xFF AND GT ISZERO PUSH2 0x1C8B JUMPI DUP1 PUSH1 0xFF AND PUSH1 0x1 SWAP1 PUSH1 0x2 EXP MUL DUP5 LT ISZERO ISZERO PUSH2 0x1C78 JUMPI DUP1 PUSH1 0xFF AND DUP5 SWAP1 PUSH1 0x2 EXP SWAP1 DIV SWAP4 POP DUP1 DUP3 OR SWAP2 POP JUMPDEST PUSH1 0x1 DUP2 PUSH1 0xFF AND SWAP1 PUSH1 0x2 EXP SWAP1 DIV SWAP1 POP PUSH2 0x1C46 JUMP JUMPDEST JUMPDEST DUP2 SWAP3 POP POP POP SWAP2 SWAP1 POP JUMP STOP LOG1 PUSH6 0x627A7A723058 KECCAK256 SHL EXTCODESIZE 0x23 LOG4 0xf5 0xe0 0xbc 0xf7 COINBASE ADDRESS 0xb9 EXTCODECOPY 0xa6 0xe6 SHL SHR 0xba DUP8 0xd7 STOP DELEGATECALL 0x4f 0x5c SWAP2 GASPRICE 0x4a LT PC PUSH30 0x776832002900000000000000000000000000000000000000000000000000 "
		},
		"gasEstimates": {
			"creation": {
				"codeDepositCost": "1472400",
				"executionCost": "infinite",
				"totalCost": "infinite"
			},
			"external": {
				"calculateCrossConnectorReturn(uint256,uint32,uint256,uint32,uint256)": "infinite",
				"calculatePurchaseReturn(uint256,uint256,uint32,uint256)": "infinite",
				"calculateSaleReturn(uint256,uint256,uint32,uint256)": "infinite",
				"findPositionInMaxExpArrayTest(uint256)": "infinite",
				"floorLog2Test(uint256)": "infinite",
				"generalExpTest(uint256,uint8)": "55649",
				"generalLogTest(uint256)": "infinite",
				"optimalExpTest(uint256)": "2510",
				"optimalLogTest(uint256)": "1946",
				"powerTest(uint256,uint256,uint32,uint32)": "infinite",
				"version()": "infinite"
			}
		},
		"methodIdentifiers": {
			"calculateCrossConnectorReturn(uint256,uint32,uint256,uint32,uint256)": "65098bb3",
			"calculatePurchaseReturn(uint256,uint256,uint32,uint256)": "29a00e7c",
			"calculateSaleReturn(uint256,uint256,uint32,uint256)": "49f9b0f7",
			"findPositionInMaxExpArrayTest(uint256)": "a25a34b1",
			"floorLog2Test(uint256)": "ce782e08",
			"generalExpTest(uint256,uint8)": "6cab5055",
			"generalLogTest(uint256)": "4982d52d",
			"optimalExpTest(uint256)": "acdee8cb",
			"optimalLogTest(uint256)": "3e8a38ab",
			"powerTest(uint256,uint256,uint32,uint32)": "8c5ce82a",
			"version()": "54fd4d50"
		}
	},
	"abi": [
		{
			"constant": true,
			"inputs": [
				{
					"name": "_supply",
					"type": "uint256"
				},
				{
					"name": "_connectorBalance",
					"type": "uint256"
				},
				{
					"name": "_connectorWeight",
					"type": "uint32"
				},
				{
					"name": "_depositAmount",
					"type": "uint256"
				}
			],
			"name": "calculatePurchaseReturn",
			"outputs": [
				{
					"name": "",
					"type": "uint256"
				}
			],
			"payable": false,
			"stateMutability": "view",
			"type": "function"
		},
		{
			"constant": true,
			"inputs": [
				{
					"name": "x",
					"type": "uint256"
				}
			],
			"name": "optimalLogTest",
			"outputs": [
				{
					"name": "",
					"type": "uint256"
				}
			],
			"payable": false,
			"stateMutability": "view",
			"type": "function"
		},
		{
			"constant": true,
			"inputs": [
				{
					"name": "x",
					"type": "uint256"
				}
			],
			"name": "generalLogTest",
			"outputs": [
				{
					"name": "",
					"type": "uint256"
				}
			],
			"payable": false,
			"stateMutability": "view",
			"type": "function"
		},
		{
			"constant": true,
			"inputs": [
				{
					"name": "_supply",
					"type": "uint256"
				},
				{
					"name": "_connectorBalance",
					"type": "uint256"
				},
				{
					"name": "_connectorWeight",
					"type": "uint32"
				},
				{
					"name": "_sellAmount",
					"type": "uint256"
				}
			],
			"name": "calculateSaleReturn",
			"outputs": [
				{
					"name": "",
					"type": "uint256"
				}
			],
			"payable": false,
			"stateMutability": "view",
			"type": "function"
		},
		{
			"constant": true,
			"inputs": [],
			"name": "version",
			"outputs": [
				{
					"name": "",
					"type": "string"
				}
			],
			"payable": false,
			"stateMutability": "view",
			"type": "function"
		},
		{
			"constant": true,
			"inputs": [
				{
					"name": "_fromConnectorBalance",
					"type": "uint256"
				},
				{
					"name": "_fromConnectorWeight",
					"type": "uint32"
				},
				{
					"name": "_toConnectorBalance",
					"type": "uint256"
				},
				{
					"name": "_toConnectorWeight",
					"type": "uint32"
				},
				{
					"name": "_amount",
					"type": "uint256"
				}
			],
			"name": "calculateCrossConnectorReturn",
			"outputs": [
				{
					"name": "",
					"type": "uint256"
				}
			],
			"payable": false,
			"stateMutability": "view",
			"type": "function"
		},
		{
			"constant": true,
			"inputs": [
				{
					"name": "_x",
					"type": "uint256"
				},
				{
					"name": "_precision",
					"type": "uint8"
				}
			],
			"name": "generalExpTest",
			"outputs": [
				{
					"name": "",
					"type": "uint256"
				}
			],
			"payable": false,
			"stateMutability": "view",
			"type": "function"
		},
		{
			"constant": true,
			"inputs": [
				{
					"name": "_baseN",
					"type": "uint256"
				},
				{
					"name": "_baseD",
					"type": "uint256"
				},
				{
					"name": "_expN",
					"type": "uint32"
				},
				{
					"name": "_expD",
					"type": "uint32"
				}
			],
			"name": "powerTest",
			"outputs": [
				{
					"name": "",
					"type": "uint256"
				},
				{
					"name": "",
					"type": "uint8"
				}
			],
			"payable": false,
			"stateMutability": "view",
			"type": "function"
		},
		{
			"constant": true,
			"inputs": [
				{
					"name": "_x",
					"type": "uint256"
				}
			],
			"name": "findPositionInMaxExpArrayTest",
			"outputs": [
				{
					"name": "",
					"type": "uint8"
				}
			],
			"payable": false,
			"stateMutability": "view",
			"type": "function"
		},
		{
			"constant": true,
			"inputs": [
				{
					"name": "x",
					"type": "uint256"
				}
			],
			"name": "optimalExpTest",
			"outputs": [
				{
					"name": "",
					"type": "uint256"
				}
			],
			"payable": false,
			"stateMutability": "view",
			"type": "function"
		},
		{
			"constant": true,
			"inputs": [
				{
					"name": "_n",
					"type": "uint256"
				}
			],
			"name": "floorLog2Test",
			"outputs": [
				{
					"name": "",
					"type": "uint8"
				}
			],
			"payable": false,
			"stateMutability": "view",
			"type": "function"
		},
		{
			"inputs": [],
			"payable": false,
			"stateMutability": "nonpayable",
			"type": "constructor"
		}
	]
}