{
	"data": {
		"bytecode": {
			"linkReferences": {},
			"object": "608060405234801561001057600080fd5b506104ff806100206000396000f3006080604052600436106100ba576000357c0100000000000000000000000000000000000000000000000000000000900463ffffffff1680630c87355e146100bf5780631d000b61146100f257806325f9bfef146101255780635a46f06c1461015857806362614ae61461018b5780636d7bd3fc146101be57806383315b6e146101f15780639232494e146102245780639249993a14610257578063c4a8598e1461028a578063cc97b38f146102bd578063f5286b9c146102f0575b600080fd5b3480156100cb57600080fd5b506100d4610323565b60405180826000191660001916815260200191505060405180910390f35b3480156100fe57600080fd5b50610107610347565b60405180826000191660001916815260200191505060405180910390f35b34801561013157600080fd5b5061013a61036b565b60405180826000191660001916815260200191505060405180910390f35b34801561016457600080fd5b5061016d61038f565b60405180826000191660001916815260200191505060405180910390f35b34801561019757600080fd5b506101a06103b3565b60405180826000191660001916815260200191505060405180910390f35b3480156101ca57600080fd5b506101d36103d7565b60405180826000191660001916815260200191505060405180910390f35b3480156101fd57600080fd5b506102066103fb565b60405180826000191660001916815260200191505060405180910390f35b34801561023057600080fd5b5061023961041f565b60405180826000191660001916815260200191505060405180910390f35b34801561026357600080fd5b5061026c610443565b60405180826000191660001916815260200191505060405180910390f35b34801561029657600080fd5b5061029f610467565b60405180826000191660001916815260200191505060405180910390f35b3480156102c957600080fd5b506102d261048b565b60405180826000191660001916815260200191505060405180910390f35b3480156102fc57600080fd5b506103056104af565b60405180826000191660001916815260200191505060405180910390f35b7f42616e636f72436f6e766572746572557067726164657200000000000000000081565b7f424e54546f6b656e00000000000000000000000000000000000000000000000081565b7f436f6e747261637452656769737472790000000000000000000000000000000081565b7f42616e636f72436f6e766572746572466163746f72790000000000000000000081565b7f424e54436f6e766572746572000000000000000000000000000000000000000081565b7f42616e636f72466f726d756c610000000000000000000000000000000000000081565b7f436f6e747261637446656174757265730000000000000000000000000000000081565b7f42616e636f724e6574776f726b0000000000000000000000000000000000000081565b7f42616e636f7247617350726963654c696d69740000000000000000000000000081565b7f42616e636f72580000000000000000000000000000000000000000000000000081565b7f42616e636f72585570677261646572000000000000000000000000000000000081565b7f4e6f6e5374616e64617264546f6b656e52656769737472790000000000000000815600a165627a7a72305820de705aaa450db03234e72e9dee7d051092485ad5126b695ae8035323ff7ffc030029",
			"opcodes": "PUSH1 0x80 PUSH1 0x40 MSTORE CALLVALUE DUP1 ISZERO PUSH2 0x10 JUMPI PUSH1 0x0 DUP1 REVERT JUMPDEST POP PUSH2 0x4FF DUP1 PUSH2 0x20 PUSH1 0x0 CODECOPY PUSH1 0x0 RETURN STOP PUSH1 0x80 PUSH1 0x40 MSTORE PUSH1 0x4 CALLDATASIZE LT PUSH2 0xBA JUMPI PUSH1 0x0 CALLDATALOAD PUSH29 0x100000000000000000000000000000000000000000000000000000000 SWAP1 DIV PUSH4 0xFFFFFFFF AND DUP1 PUSH4 0xC87355E EQ PUSH2 0xBF JUMPI DUP1 PUSH4 0x1D000B61 EQ PUSH2 0xF2 JUMPI DUP1 PUSH4 0x25F9BFEF EQ PUSH2 0x125 JUMPI DUP1 PUSH4 0x5A46F06C EQ PUSH2 0x158 JUMPI DUP1 PUSH4 0x62614AE6 EQ PUSH2 0x18B JUMPI DUP1 PUSH4 0x6D7BD3FC EQ PUSH2 0x1BE JUMPI DUP1 PUSH4 0x83315B6E EQ PUSH2 0x1F1 JUMPI DUP1 PUSH4 0x9232494E EQ PUSH2 0x224 JUMPI DUP1 PUSH4 0x9249993A EQ PUSH2 0x257 JUMPI DUP1 PUSH4 0xC4A8598E EQ PUSH2 0x28A JUMPI DUP1 PUSH4 0xCC97B38F EQ PUSH2 0x2BD JUMPI DUP1 PUSH4 0xF5286B9C EQ PUSH2 0x2F0 JUMPI JUMPDEST PUSH1 0x0 DUP1 REVERT JUMPDEST CALLVALUE DUP1 ISZERO PUSH2 0xCB JUMPI PUSH1 0x0 DUP1 REVERT JUMPDEST POP PUSH2 0xD4 PUSH2 0x323 JUMP JUMPDEST PUSH1 0x40 MLOAD DUP1 DUP3 PUSH1 0x0 NOT AND PUSH1 0x0 NOT AND DUP2 MSTORE PUSH1 0x20 ADD SWAP2 POP POP PUSH1 0x40 MLOAD DUP1 SWAP2 SUB SWAP1 RETURN JUMPDEST CALLVALUE DUP1 ISZERO PUSH2 0xFE JUMPI PUSH1 0x0 DUP1 REVERT JUMPDEST POP PUSH2 0x107 PUSH2 0x347 JUMP JUMPDEST PUSH1 0x40 MLOAD DUP1 DUP3 PUSH1 0x0 NOT AND PUSH1 0x0 NOT AND DUP2 MSTORE PUSH1 0x20 ADD SWAP2 POP POP PUSH1 0x40 MLOAD DUP1 SWAP2 SUB SWAP1 RETURN JUMPDEST CALLVALUE DUP1 ISZERO PUSH2 0x131 JUMPI PUSH1 0x0 DUP1 REVERT JUMPDEST POP PUSH2 0x13A PUSH2 0x36B JUMP JUMPDEST PUSH1 0x40 MLOAD DUP1 DUP3 PUSH1 0x0 NOT AND PUSH1 0x0 NOT AND DUP2 MSTORE PUSH1 0x20 ADD SWAP2 POP POP PUSH1 0x40 MLOAD DUP1 SWAP2 SUB SWAP1 RETURN JUMPDEST CALLVALUE DUP1 ISZERO PUSH2 0x164 JUMPI PUSH1 0x0 DUP1 REVERT JUMPDEST POP PUSH2 0x16D PUSH2 0x38F JUMP JUMPDEST PUSH1 0x40 MLOAD DUP1 DUP3 PUSH1 0x0 NOT AND PUSH1 0x0 NOT AND DUP2 MSTORE PUSH1 0x20 ADD SWAP2 POP POP PUSH1 0x40 MLOAD DUP1 SWAP2 SUB SWAP1 RETURN JUMPDEST CALLVALUE DUP1 ISZERO PUSH2 0x197 JUMPI PUSH1 0x0 DUP1 REVERT JUMPDEST POP PUSH2 0x1A0 PUSH2 0x3B3 JUMP JUMPDEST PUSH1 0x40 MLOAD DUP1 DUP3 PUSH1 0x0 NOT AND PUSH1 0x0 NOT AND DUP2 MSTORE PUSH1 0x20 ADD SWAP2 POP POP PUSH1 0x40 MLOAD DUP1 SWAP2 SUB SWAP1 RETURN JUMPDEST CALLVALUE DUP1 ISZERO PUSH2 0x1CA JUMPI PUSH1 0x0 DUP1 REVERT JUMPDEST POP PUSH2 0x1D3 PUSH2 0x3D7 JUMP JUMPDEST PUSH1 0x40 MLOAD DUP1 DUP3 PUSH1 0x0 NOT AND PUSH1 0x0 NOT AND DUP2 MSTORE PUSH1 0x20 ADD SWAP2 POP POP PUSH1 0x40 MLOAD DUP1 SWAP2 SUB SWAP1 RETURN JUMPDEST CALLVALUE DUP1 ISZERO PUSH2 0x1FD JUMPI PUSH1 0x0 DUP1 REVERT JUMPDEST POP PUSH2 0x206 PUSH2 0x3FB JUMP JUMPDEST PUSH1 0x40 MLOAD DUP1 DUP3 PUSH1 0x0 NOT AND PUSH1 0x0 NOT AND DUP2 MSTORE PUSH1 0x20 ADD SWAP2 POP POP PUSH1 0x40 MLOAD DUP1 SWAP2 SUB SWAP1 RETURN JUMPDEST CALLVALUE DUP1 ISZERO PUSH2 0x230 JUMPI PUSH1 0x0 DUP1 REVERT JUMPDEST POP PUSH2 0x239 PUSH2 0x41F JUMP JUMPDEST PUSH1 0x40 MLOAD DUP1 DUP3 PUSH1 0x0 NOT AND PUSH1 0x0 NOT AND DUP2 MSTORE PUSH1 0x20 ADD SWAP2 POP POP PUSH1 0x40 MLOAD DUP1 SWAP2 SUB SWAP1 RETURN JUMPDEST CALLVALUE DUP1 ISZERO PUSH2 0x263 JUMPI PUSH1 0x0 DUP1 REVERT JUMPDEST POP PUSH2 0x26C PUSH2 0x443 JUMP JUMPDEST PUSH1 0x40 MLOAD DUP1 DUP3 PUSH1 0x0 NOT AND PUSH1 0x0 NOT AND DUP2 MSTORE PUSH1 0x20 ADD SWAP2 POP POP PUSH1 0x40 MLOAD DUP1 SWAP2 SUB SWAP1 RETURN JUMPDEST CALLVALUE DUP1 ISZERO PUSH2 0x296 JUMPI PUSH1 0x0 DUP1 REVERT JUMPDEST POP PUSH2 0x29F PUSH2 0x467 JUMP JUMPDEST PUSH1 0x40 MLOAD DUP1 DUP3 PUSH1 0x0 NOT AND PUSH1 0x0 NOT AND DUP2 MSTORE PUSH1 0x20 ADD SWAP2 POP POP PUSH1 0x40 MLOAD DUP1 SWAP2 SUB SWAP1 RETURN JUMPDEST CALLVALUE DUP1 ISZERO PUSH2 0x2C9 JUMPI PUSH1 0x0 DUP1 REVERT JUMPDEST POP PUSH2 0x2D2 PUSH2 0x48B JUMP JUMPDEST PUSH1 0x40 MLOAD DUP1 DUP3 PUSH1 0x0 NOT AND PUSH1 0x0 NOT AND DUP2 MSTORE PUSH1 0x20 ADD SWAP2 POP POP PUSH1 0x40 MLOAD DUP1 SWAP2 SUB SWAP1 RETURN JUMPDEST CALLVALUE DUP1 ISZERO PUSH2 0x2FC JUMPI PUSH1 0x0 DUP1 REVERT JUMPDEST POP PUSH2 0x305 PUSH2 0x4AF JUMP JUMPDEST PUSH1 0x40 MLOAD DUP1 DUP3 PUSH1 0x0 NOT AND PUSH1 0x0 NOT AND DUP2 MSTORE PUSH1 0x20 ADD SWAP2 POP POP PUSH1 0x40 MLOAD DUP1 SWAP2 SUB SWAP1 RETURN JUMPDEST PUSH32 0x42616E636F72436F6E7665727465725570677261646572000000000000000000 DUP2 JUMP JUMPDEST PUSH32 0x424E54546F6B656E000000000000000000000000000000000000000000000000 DUP2 JUMP JUMPDEST PUSH32 0x436F6E7472616374526567697374727900000000000000000000000000000000 DUP2 JUMP JUMPDEST PUSH32 0x42616E636F72436F6E766572746572466163746F727900000000000000000000 DUP2 JUMP JUMPDEST PUSH32 0x424E54436F6E7665727465720000000000000000000000000000000000000000 DUP2 JUMP JUMPDEST PUSH32 0x42616E636F72466F726D756C6100000000000000000000000000000000000000 DUP2 JUMP JUMPDEST PUSH32 0x436F6E7472616374466561747572657300000000000000000000000000000000 DUP2 JUMP JUMPDEST PUSH32 0x42616E636F724E6574776F726B00000000000000000000000000000000000000 DUP2 JUMP JUMPDEST PUSH32 0x42616E636F7247617350726963654C696D697400000000000000000000000000 DUP2 JUMP JUMPDEST PUSH32 0x42616E636F725800000000000000000000000000000000000000000000000000 DUP2 JUMP JUMPDEST PUSH32 0x42616E636F725855706772616465720000000000000000000000000000000000 DUP2 JUMP JUMPDEST PUSH32 0x4E6F6E5374616E64617264546F6B656E52656769737472790000000000000000 DUP2 JUMP STOP LOG1 PUSH6 0x627A7A723058 KECCAK256 0xde PUSH17 0x5AAA450DB03234E72E9DEE7D051092485A 0xd5 SLT PUSH12 0x695AE8035323FF7FFC030029 "
		},
		"gasEstimates": {
			"creation": {
				"codeDepositCost": "255800",
				"executionCost": "294",
				"totalCost": "256094"
			},
			"external": {
				"BANCOR_CONVERTER_FACTORY()": "278",
				"BANCOR_CONVERTER_UPGRADER()": "212",
				"BANCOR_FORMULA()": "322",
				"BANCOR_GAS_PRICE_LIMIT()": "388",
				"BANCOR_NETWORK()": "366",
				"BANCOR_X()": "410",
				"BANCOR_X_UPGRADER()": "432",
				"BNT_CONVERTER()": "300",
				"BNT_TOKEN()": "234",
				"CONTRACT_FEATURES()": "344",
				"CONTRACT_REGISTRY()": "256",
				"NON_STANDARD_TOKEN_REGISTRY()": "454"
			}
		},
		"methodIdentifiers": {
			"BANCOR_CONVERTER_FACTORY()": "5a46f06c",
			"BANCOR_CONVERTER_UPGRADER()": "0c87355e",
			"BANCOR_FORMULA()": "6d7bd3fc",
			"BANCOR_GAS_PRICE_LIMIT()": "9249993a",
			"BANCOR_NETWORK()": "9232494e",
			"BANCOR_X()": "c4a8598e",
			"BANCOR_X_UPGRADER()": "cc97b38f",
			"BNT_CONVERTER()": "62614ae6",
			"BNT_TOKEN()": "1d000b61",
			"CONTRACT_FEATURES()": "83315b6e",
			"CONTRACT_REGISTRY()": "25f9bfef",
			"NON_STANDARD_TOKEN_REGISTRY()": "f5286b9c"
		}
	},
	"abi": [
		{
			"constant": true,
			"inputs": [],
			"name": "BANCOR_CONVERTER_UPGRADER",
			"outputs": [
				{
					"name": "",
					"type": "bytes32"
				}
			],
			"payable": false,
			"stateMutability": "view",
			"type": "function"
		},
		{
			"constant": true,
			"inputs": [],
			"name": "BNT_TOKEN",
			"outputs": [
				{
					"name": "",
					"type": "bytes32"
				}
			],
			"payable": false,
			"stateMutability": "view",
			"type": "function"
		},
		{
			"constant": true,
			"inputs": [],
			"name": "CONTRACT_REGISTRY",
			"outputs": [
				{
					"name": "",
					"type": "bytes32"
				}
			],
			"payable": false,
			"stateMutability": "view",
			"type": "function"
		},
		{
			"constant": true,
			"inputs": [],
			"name": "BANCOR_CONVERTER_FACTORY",
			"outputs": [
				{
					"name": "",
					"type": "bytes32"
				}
			],
			"payable": false,
			"stateMutability": "view",
			"type": "function"
		},
		{
			"constant": true,
			"inputs": [],
			"name": "BNT_CONVERTER",
			"outputs": [
				{
					"name": "",
					"type": "bytes32"
				}
			],
			"payable": false,
			"stateMutability": "view",
			"type": "function"
		},
		{
			"constant": true,
			"inputs": [],
			"name": "BANCOR_FORMULA",
			"outputs": [
				{
					"name": "",
					"type": "bytes32"
				}
			],
			"payable": false,
			"stateMutability": "view",
			"type": "function"
		},
		{
			"constant": true,
			"inputs": [],
			"name": "CONTRACT_FEATURES",
			"outputs": [
				{
					"name": "",
					"type": "bytes32"
				}
			],
			"payable": false,
			"stateMutability": "view",
			"type": "function"
		},
		{
			"constant": true,
			"inputs": [],
			"name": "BANCOR_NETWORK",
			"outputs": [
				{
					"name": "",
					"type": "bytes32"
				}
			],
			"payable": false,
			"stateMutability": "view",
			"type": "function"
		},
		{
			"constant": true,
			"inputs": [],
			"name": "BANCOR_GAS_PRICE_LIMIT",
			"outputs": [
				{
					"name": "",
					"type": "bytes32"
				}
			],
			"payable": false,
			"stateMutability": "view",
			"type": "function"
		},
		{
			"constant": true,
			"inputs": [],
			"name": "BANCOR_X",
			"outputs": [
				{
					"name": "",
					"type": "bytes32"
				}
			],
			"payable": false,
			"stateMutability": "view",
			"type": "function"
		},
		{
			"constant": true,
			"inputs": [],
			"name": "BANCOR_X_UPGRADER",
			"outputs": [
				{
					"name": "",
					"type": "bytes32"
				}
			],
			"payable": false,
			"stateMutability": "view",
			"type": "function"
		},
		{
			"constant": true,
			"inputs": [],
			"name": "NON_STANDARD_TOKEN_REGISTRY",
			"outputs": [
				{
					"name": "",
					"type": "bytes32"
				}
			],
			"payable": false,
			"stateMutability": "view",
			"type": "function"
		}
	]
}