{
	"data": {
		"bytecode": {
			"linkReferences": {},
			"object": "60806040526002600160146101000a81548161ffff021916908361ffff1602179055506001600e60146101000a81548160ff0219169083151502179055506001600e60156101000a81548160ff0219169083151502179055506001600e60166101000a81548160ff0219169083151502179055503480156200008057600080fd5b5060405160c08062003340833981018060405281019080805190602001909291908051906020019092919080519060200190929190805190602001909291908051906020019092919080519060200190929190505050336000806101000a81548173ffffffffffffffffffffffffffffffffffffffff021916908373ffffffffffffffffffffffffffffffffffffffff1602179055508560028190555084600381905550836004819055508260078190555081600a819055508560058190555084600681905550436008819055504360098190555080600b60006101000a81548173ffffffffffffffffffffffffffffffffffffffff021916908373ffffffffffffffffffffffffffffffffffffffff16021790555080600c60006101000a81548173ffffffffffffffffffffffffffffffffffffffff021916908373ffffffffffffffffffffffffffffffffffffffff160217905550600b60009054906101000a900473ffffffffffffffffffffffffffffffffffffffff1673ffffffffffffffffffffffffffffffffffffffff1663bb34534c7f424e54546f6b656e0000000000000000000000000000000000000000000000006040518263ffffffff167c0100000000000000000000000000000000000000000000000000000000028152600401808260001916600019168152602001915050602060405180830381600087803b1580156200029157600080fd5b505af1158015620002a6573d6000803e3d6000fd5b505050506040513d6020811015620002bd57600080fd5b8101908080519060200190929190505050600e60006101000a81548173ffffffffffffffffffffffffffffffffffffffff021916908373ffffffffffffffffffffffffffffffffffffffff160217905550600b60009054906101000a900473ffffffffffffffffffffffffffffffffffffffff1673ffffffffffffffffffffffffffffffffffffffff1663bb34534c7f424e54436f6e76657274657200000000000000000000000000000000000000006040518263ffffffff167c0100000000000000000000000000000000000000000000000000000000028152600401808260001916600019168152602001915050602060405180830381600087803b158015620003c857600080fd5b505af1158015620003dd573d6000803e3d6000fd5b505050506040513d6020811015620003f457600080fd5b8101908080519060200190929190505050600d60006101000a81548173ffffffffffffffffffffffffffffffffffffffff021916908373ffffffffffffffffffffffffffffffffffffffff160217905550505050505050612ee5806200045b6000396000f3006080604052600436106102a9576000357c0100000000000000000000000000000000000000000000000000000000900463ffffffff168063011857d0146102ae5780630183592b146103055780630c87355e1461036b57806316c76c271461039e57806319967439146103c95780631aff29eb146103f45780631d000b611461041f5780631e04a593146104525780631fd8088d1461047d57806320d7d367146104a857806325f9bfef146104d75780632cc1cd9e1461050a578063427c03741461056557806349282538146105b857806349d10b64146106015780634a453af1146106185780634b3e475c1461062f57806352e94ce31461065a57806354fd4d50146106855780635a46f06c146106b85780635e35359e146106eb57806361cd756e1461075857806362614ae6146107af5780636d7bd3fc146107e25780636dc6a01b146108155780636ec6d4a61461088457806372f43d19146108b157806379ba5097146108dc5780637b103999146108f357806383315b6e1461094a5780638544c52d1461097d5780638da5cb5b146109e25780639232494e14610a395780639249993a14610a6c5780639390701c14610a9f5780639ace38c214610ace578063a50c326c14610b69578063a5c670ca14610b96578063a8c36a9014610bc5578063aafd6b7614610bf0578063af2b961814610c51578063af6c0f6014610c7e578063b4a176d314610cd5578063bf28ece414610cec578063c4a8598e14610d19578063ca27e01114610d4c578063cc97b38f14610d77578063d4ee1d9014610daa578063df68ab0214610e01578063e1bb513314610e2e578063e36f8dc514610e7d578063ed1d73a614610ebe578063f2fde38b14610eed578063f5286b9c14610f30578063f7385f7614610f63578063fa1c594e14610f8e578063fbb2469214610fbd575b600080fd5b3480156102ba57600080fd5b506102c3610fec565b604051808273ffffffffffffffffffffffffffffffffffffffff1673ffffffffffffffffffffffffffffffffffffffff16815260200191505060405180910390f35b34801561031157600080fd5b5061036960048036038101908080359060200190820180359060200190808060200260200160405190810160405280939291908181526020018383602002808284378201915050505050509192919290505050611012565b005b34801561037757600080fd5b50610380611262565b60405180826000191660001916815260200191505060405180910390f35b3480156103aa57600080fd5b506103b3611286565b6040518082815260200191505060405180910390f35b3480156103d557600080fd5b506103de61128c565b6040518082815260200191505060405180910390f35b34801561040057600080fd5b506104096112ea565b6040518082815260200191505060405180910390f35b34801561042b57600080fd5b506104346112f0565b60405180826000191660001916815260200191505060405180910390f35b34801561045e57600080fd5b50610467611314565b6040518082815260200191505060405180910390f35b34801561048957600080fd5b50610492611372565b6040518082815260200191505060405180910390f35b3480156104b457600080fd5b506104bd611378565b604051808215151515815260200191505060405180910390f35b3480156104e357600080fd5b506104ec61138b565b60405180826000191660001916815260200191505060405180910390f35b34801561051657600080fd5b5061054b600480360381019080803573ffffffffffffffffffffffffffffffffffffffff1690602001909291905050506113af565b604051808215151515815260200191505060405180910390f35b34801561057157600080fd5b506105b66004803603810190808035600019169060200190929190803560001916906020019092919080359060200190929190803590602001909291905050506113cf565b005b3480156105c457600080fd5b506105ff60048036038101908080356000191690602001909291908035600019169060200190929190803590602001909291905050506114ae565b005b34801561060d57600080fd5b5061061661158d565b005b34801561062457600080fd5b5061062d611834565b005b34801561063b57600080fd5b506106446119c5565b6040518082815260200191505060405180910390f35b34801561066657600080fd5b5061066f6119cb565b6040518082815260200191505060405180910390f35b34801561069157600080fd5b5061069a6119d1565b604051808261ffff1661ffff16815260200191505060405180910390f35b3480156106c457600080fd5b506106cd6119e5565b60405180826000191660001916815260200191505060405180910390f35b3480156106f757600080fd5b50610756600480360381019080803573ffffffffffffffffffffffffffffffffffffffff169060200190929190803573ffffffffffffffffffffffffffffffffffffffff16906020019092919080359060200190929190505050611a09565b005b34801561076457600080fd5b5061076d611bdd565b604051808273ffffffffffffffffffffffffffffffffffffffff1673ffffffffffffffffffffffffffffffffffffffff16815260200191505060405180910390f35b3480156107bb57600080fd5b506107c4611c03565b60405180826000191660001916815260200191505060405180910390f35b3480156107ee57600080fd5b506107f7611c27565b60405180826000191660001916815260200191505060405180910390f35b34801561082157600080fd5b50610882600480360381019080803560001916906020019092919080359060200190929190803573ffffffffffffffffffffffffffffffffffffffff1690602001909291908035906020019092919080359060200190929190505050611c4b565b005b34801561089057600080fd5b506108af600480360381019080803590602001909291905050506120eb565b005b3480156108bd57600080fd5b506108c6612150565b6040518082815260200191505060405180910390f35b3480156108e857600080fd5b506108f1612156565b005b3480156108ff57600080fd5b506109086122f5565b604051808273ffffffffffffffffffffffffffffffffffffffff1673ffffffffffffffffffffffffffffffffffffffff16815260200191505060405180910390f35b34801561095657600080fd5b5061095f61231b565b60405180826000191660001916815260200191505060405180910390f35b34801561098957600080fd5b506109c860048036038101908080359060200190929190803573ffffffffffffffffffffffffffffffffffffffff16906020019092919050505061233f565b604051808215151515815260200191505060405180910390f35b3480156109ee57600080fd5b506109f761236e565b604051808273ffffffffffffffffffffffffffffffffffffffff1673ffffffffffffffffffffffffffffffffffffffff16815260200191505060405180910390f35b348015610a4557600080fd5b50610a4e612393565b60405180826000191660001916815260200191505060405180910390f35b348015610a7857600080fd5b50610a816123b7565b60405180826000191660001916815260200191505060405180910390f35b348015610aab57600080fd5b50610ab46123db565b604051808215151515815260200191505060405180910390f35b348015610ada57600080fd5b50610af9600480360381019080803590602001909291905050506123ee565b6040518086815260200185600019166000191681526020018473ffffffffffffffffffffffffffffffffffffffff1673ffffffffffffffffffffffffffffffffffffffff1681526020018360ff1660ff168152602001821515151581526020019550505050505060405180910390f35b348015610b7557600080fd5b50610b946004803603810190808035906020019092919050505061245e565b005b348015610ba257600080fd5b50610bc36004803603810190808035151590602001909291905050506124c3565b005b348015610bd157600080fd5b50610bda61253b565b6040518082815260200191505060405180910390f35b348015610bfc57600080fd5b50610c3b60048036038101908080359060200190929190803573ffffffffffffffffffffffffffffffffffffffff169060200190929190505050612541565b6040518082815260200191505060405180910390f35b348015610c5d57600080fd5b50610c7c600480360381019080803590602001909291905050506125d8565b005b348015610c8a57600080fd5b50610c9361263d565b604051808273ffffffffffffffffffffffffffffffffffffffff1673ffffffffffffffffffffffffffffffffffffffff16815260200191505060405180910390f35b348015610ce157600080fd5b50610cea612663565b005b348015610cf857600080fd5b50610d176004803603810190808035906020019092919050505061273e565b005b348015610d2557600080fd5b50610d2e6127a3565b60405180826000191660001916815260200191505060405180910390f35b348015610d5857600080fd5b50610d616127c7565b6040518082815260200191505060405180910390f35b348015610d8357600080fd5b50610d8c6127cd565b60405180826000191660001916815260200191505060405180910390f35b348015610db657600080fd5b50610dbf6127f1565b604051808273ffffffffffffffffffffffffffffffffffffffff1673ffffffffffffffffffffffffffffffffffffffff16815260200191505060405180910390f35b348015610e0d57600080fd5b50610e2c60048036038101908080359060200190929190505050612817565b005b348015610e3a57600080fd5b50610e7b600480360381019080803573ffffffffffffffffffffffffffffffffffffffff16906020019092919080351515906020019092919050505061287c565b005b348015610e8957600080fd5b50610ea860048036038101908080359060200190929190505050612932565b6040518082815260200191505060405180910390f35b348015610eca57600080fd5b50610eeb60048036038101908080351515906020019092919050505061294a565b005b348015610ef957600080fd5b50610f2e600480360381019080803573ffffffffffffffffffffffffffffffffffffffff1690602001909291905050506129c2565b005b348015610f3c57600080fd5b50610f45612abd565b60405180826000191660001916815260200191505060405180910390f35b348015610f6f57600080fd5b50610f78612ae1565b6040518082815260200191505060405180910390f35b348015610f9a57600080fd5b50610fbb600480360381019080803515159060200190929190505050612ae7565b005b348015610fc957600080fd5b50610fd2612b60565b604051808215151515815260200191505060405180910390f35b600d60009054906101000a900473ffffffffffffffffffffffffffffffffffffffff1681565b60008060009054906101000a900473ffffffffffffffffffffffffffffffffffffffff1673ffffffffffffffffffffffffffffffffffffffff163373ffffffffffffffffffffffffffffffffffffffff1614151561106f57600080fd5b600b60009054906101000a900473ffffffffffffffffffffffffffffffffffffffff1673ffffffffffffffffffffffffffffffffffffffff1663bb34534c7f42616e636f7258557067726164657200000000000000000000000000000000006040518263ffffffff167c0100000000000000000000000000000000000000000000000000000000028152600401808260001916600019168152602001915050602060405180830381600087803b15801561112857600080fd5b505af115801561113c573d6000803e3d6000fd5b505050506040513d602081101561115257600080fd5b8101908080519060200190929190505050905061116e816129c2565b8073ffffffffffffffffffffffffffffffffffffffff1663546872cc600160149054906101000a900461ffff16846040518363ffffffff167c0100000000000000000000000000000000000000000000000000000000028152600401808361ffff1661ffff16815260200180602001828103825283818151815260200191508051906020019060200280838360005b838110156112185780820151818401526020810190506111fd565b505050509050019350505050600060405180830381600087803b15801561123e57600080fd5b505af1158015611252573d6000803e3d6000fd5b5050505061125e612156565b5050565b7f42616e636f72436f6e766572746572557067726164657200000000000000000081565b60055481565b6000806112cc6112bb6007546112ad60085443612b7390919063ffffffff16565b612b8f90919063ffffffff16565b600554612bcd90919063ffffffff16565b90506002548111156112e25760025491506112e6565b8091505b5090565b60085481565b7f424e54546f6b656e00000000000000000000000000000000000000000000000081565b60008061135461134360075461133560095443612b7390919063ffffffff16565b612b8f90919063ffffffff16565b600654612bcd90919063ffffffff16565b905060035481111561136a57600354915061136e565b8091505b5090565b60045481565b600e60169054906101000a900460ff1681565b7f436f6e747261637452656769737472790000000000000000000000000000000081565b60126020528060005260406000206000915054906101000a900460ff1681565b6000600e60149054906101000a900460ff1615156113ec57600080fd5b6113f461128c565b905060045483101580156114085750808311155b151561141357600080fd5b61141c83612bee565b61142f8382612b7390919063ffffffff16565b6005819055504360088190555083600019163373ffffffffffffffffffffffffffffffffffffffff167f4780f3edc9124597ede658e04ed3d8887b58c86943b2a805dc961cf512570b62878686604051808460001916600019168152602001838152602001828152602001935050505060405180910390a35050505050565b6000600e60149054906101000a900460ff1615156114cb57600080fd5b6114d361128c565b905060045482101580156114e75750808211155b15156114f257600080fd5b6114fb82612bee565b61150e8282612b7390919063ffffffff16565b6005819055504360088190555082600019163373ffffffffffffffffffffffffffffffffffffffff167f4780f3edc9124597ede658e04ed3d8887b58c86943b2a805dc961cf512570b6286856000604051808460001916600019168152602001838152602001828152602001935050505060405180910390a350505050565b6000600e60169054906101000a900460ff16806115f657506000809054906101000a900473ffffffffffffffffffffffffffffffffffffffff1673ffffffffffffffffffffffffffffffffffffffff163373ffffffffffffffffffffffffffffffffffffffff16145b151561160157600080fd5b600b60009054906101000a900473ffffffffffffffffffffffffffffffffffffffff1673ffffffffffffffffffffffffffffffffffffffff1663bb34534c7f436f6e74726163745265676973747279000000000000000000000000000000006040518263ffffffff167c0100000000000000000000000000000000000000000000000000000000028152600401808260001916600019168152602001915050602060405180830381600087803b1580156116ba57600080fd5b505af11580156116ce573d6000803e3d6000fd5b505050506040513d60208110156116e457600080fd5b81019080805190602001909291905050509050600b60009054906101000a900473ffffffffffffffffffffffffffffffffffffffff1673ffffffffffffffffffffffffffffffffffffffff168173ffffffffffffffffffffffffffffffffffffffff16141580156117825750600073ffffffffffffffffffffffffffffffffffffffff168173ffffffffffffffffffffffffffffffffffffffff1614155b151561178d57600080fd5b600b60009054906101000a900473ffffffffffffffffffffffffffffffffffffffff16600c60006101000a81548173ffffffffffffffffffffffffffffffffffffffff021916908373ffffffffffffffffffffffffffffffffffffffff16021790555080600b60006101000a81548173ffffffffffffffffffffffffffffffffffffffff021916908373ffffffffffffffffffffffffffffffffffffffff16021790555050565b6000809054906101000a900473ffffffffffffffffffffffffffffffffffffffff1673ffffffffffffffffffffffffffffffffffffffff163373ffffffffffffffffffffffffffffffffffffffff1614151561188f57600080fd5b600b60009054906101000a900473ffffffffffffffffffffffffffffffffffffffff1673ffffffffffffffffffffffffffffffffffffffff1663bb34534c7f424e54436f6e76657274657200000000000000000000000000000000000000006040518263ffffffff167c0100000000000000000000000000000000000000000000000000000000028152600401808260001916600019168152602001915050602060405180830381600087803b15801561194857600080fd5b505af115801561195c573d6000803e3d6000fd5b505050506040513d602081101561197257600080fd5b8101908080519060200190929190505050600d60006101000a81548173ffffffffffffffffffffffffffffffffffffffff021916908373ffffffffffffffffffffffffffffffffffffffff160217905550565b60095481565b60035481565b600160149054906101000a900461ffff1681565b7f42616e636f72436f6e766572746572466163746f72790000000000000000000081565b6000809054906101000a900473ffffffffffffffffffffffffffffffffffffffff1673ffffffffffffffffffffffffffffffffffffffff163373ffffffffffffffffffffffffffffffffffffffff16141515611a6457600080fd5b82600073ffffffffffffffffffffffffffffffffffffffff168173ffffffffffffffffffffffffffffffffffffffff1614151515611aa157600080fd5b82600073ffffffffffffffffffffffffffffffffffffffff168173ffffffffffffffffffffffffffffffffffffffff1614151515611ade57600080fd5b833073ffffffffffffffffffffffffffffffffffffffff168173ffffffffffffffffffffffffffffffffffffffff1614151515611b1a57600080fd5b8573ffffffffffffffffffffffffffffffffffffffff1663a9059cbb86866040518363ffffffff167c0100000000000000000000000000000000000000000000000000000000028152600401808373ffffffffffffffffffffffffffffffffffffffff1673ffffffffffffffffffffffffffffffffffffffff16815260200182815260200192505050600060405180830381600087803b158015611bbd57600080fd5b505af1158015611bd1573d6000803e3d6000fd5b50505050505050505050565b600c60009054906101000a900473ffffffffffffffffffffffffffffffffffffffff1681565b7f424e54436f6e766572746572000000000000000000000000000000000000000081565b7f42616e636f72466f726d756c610000000000000000000000000000000000000081565b6000601260003373ffffffffffffffffffffffffffffffffffffffff1673ffffffffffffffffffffffffffffffffffffffff16815260200190815260200160002060009054906101000a900460ff161515611ca557600080fd5b600e60159054906101000a900460ff161515611cc057600080fd5b6011600086815260200190815260200160002060003373ffffffffffffffffffffffffffffffffffffffff1673ffffffffffffffffffffffffffffffffffffffff16815260200190815260200160002060009054906101000a900460ff16151515611d2a57600080fd5b60016011600087815260200190815260200160002060003373ffffffffffffffffffffffffffffffffffffffff1673ffffffffffffffffffffffffffffffffffffffff16815260200190815260200160002060006101000a81548160ff021916908315150217905550600f6000868152602001908152602001600020905060008160020160149054906101000a900460ff1660ff161415611e6857838160020160006101000a81548173ffffffffffffffffffffffffffffffffffffffff021916908373ffffffffffffffffffffffffffffffffffffffff16021790555082816000018190555085816001018160001916905550600082141515611e635760006010600084815260200190815260200160002054141515611e4a57600080fd5b8460106000848152602001908152602001600020819055505b611f19565b8373ffffffffffffffffffffffffffffffffffffffff168160020160009054906101000a900473ffffffffffffffffffffffffffffffffffffffff1673ffffffffffffffffffffffffffffffffffffffff16148015611eca5750828160000154145b8015611ee157508560001916816001015460001916145b1515611eec57600080fd5b600082141515611f1857846010600084815260200190815260200160002054141515611f1757600080fd5b5b5b80600201601481819054906101000a900460ff168092919060010191906101000a81548160ff021916908360ff160217905550503373ffffffffffffffffffffffffffffffffffffffff167f5e77831e701760f7f4a1e61a8e9834d773b52c45d91ba9006b7d2afb7a14473987878787876040518086600019166000191681526020018581526020018473ffffffffffffffffffffffffffffffffffffffff1673ffffffffffffffffffffffffffffffffffffffff1681526020018381526020018281526020019550505050505060405180910390a2600a548160020160149054906101000a900460ff1660ff161015156120e357600f600086815260200190815260200160002060020160159054906101000a900460ff1615151561203e57600080fd5b6001600f600087815260200190815260200160002060020160156101000a81548160ff0219169083151502179055507fd87906b7fce534fc5e6dde30064e777d92d0aaf3a28c72315de8ef2e4134dfef8483604051808373ffffffffffffffffffffffffffffffffffffffff1673ffffffffffffffffffffffffffffffffffffffff1681526020018281526020019250505060405180910390a16120e28484612d1c565b5b505050505050565b6000809054906101000a900473ffffffffffffffffffffffffffffffffffffffff1673ffffffffffffffffffffffffffffffffffffffff163373ffffffffffffffffffffffffffffffffffffffff1614151561214657600080fd5b8060048190555050565b60075481565b600160009054906101000a900473ffffffffffffffffffffffffffffffffffffffff1673ffffffffffffffffffffffffffffffffffffffff163373ffffffffffffffffffffffffffffffffffffffff161415156121b257600080fd5b600160009054906101000a900473ffffffffffffffffffffffffffffffffffffffff1673ffffffffffffffffffffffffffffffffffffffff166000809054906101000a900473ffffffffffffffffffffffffffffffffffffffff1673ffffffffffffffffffffffffffffffffffffffff167f343765429aea5a34b3ff6a3785a98a5abb2597aca87bfbb58632c173d585373a60405160405180910390a3600160009054906101000a900473ffffffffffffffffffffffffffffffffffffffff166000806101000a81548173ffffffffffffffffffffffffffffffffffffffff021916908373ffffffffffffffffffffffffffffffffffffffff1602179055506000600160006101000a81548173ffffffffffffffffffffffffffffffffffffffff021916908373ffffffffffffffffffffffffffffffffffffffff160217905550565b600b60009054906101000a900473ffffffffffffffffffffffffffffffffffffffff1681565b7f436f6e747261637446656174757265730000000000000000000000000000000081565b60116020528160005260406000206020528060005260406000206000915091509054906101000a900460ff1681565b6000809054906101000a900473ffffffffffffffffffffffffffffffffffffffff1681565b7f42616e636f724e6574776f726b0000000000000000000000000000000000000081565b7f42616e636f7247617350726963654c696d69740000000000000000000000000081565b600e60159054906101000a900460ff1681565b600f6020528060005260406000206000915090508060000154908060010154908060020160009054906101000a900473ffffffffffffffffffffffffffffffffffffffff16908060020160149054906101000a900460ff16908060020160159054906101000a900460ff16905085565b6000809054906101000a900473ffffffffffffffffffffffffffffffffffffffff1673ffffffffffffffffffffffffffffffffffffffff163373ffffffffffffffffffffffffffffffffffffffff161415156124b957600080fd5b8060078190555050565b6000809054906101000a900473ffffffffffffffffffffffffffffffffffffffff1673ffffffffffffffffffffffffffffffffffffffff163373ffffffffffffffffffffffffffffffffffffffff1614151561251e57600080fd5b80600e60146101000a81548160ff02191690831515021790555050565b60025481565b600080600f60006010600087815260200190815260200160002054815260200190815260200160002090508273ffffffffffffffffffffffffffffffffffffffff168160020160009054906101000a900473ffffffffffffffffffffffffffffffffffffffff1673ffffffffffffffffffffffffffffffffffffffff161415156125ca57600080fd5b806000015491505092915050565b6000809054906101000a900473ffffffffffffffffffffffffffffffffffffffff1673ffffffffffffffffffffffffffffffffffffffff163373ffffffffffffffffffffffffffffffffffffffff1614151561263357600080fd5b8060028190555050565b600e60009054906101000a900473ffffffffffffffffffffffffffffffffffffffff1681565b6000809054906101000a900473ffffffffffffffffffffffffffffffffffffffff1673ffffffffffffffffffffffffffffffffffffffff163373ffffffffffffffffffffffffffffffffffffffff161415156126be57600080fd5b600c60009054906101000a900473ffffffffffffffffffffffffffffffffffffffff16600b60006101000a81548173ffffffffffffffffffffffffffffffffffffffff021916908373ffffffffffffffffffffffffffffffffffffffff1602179055506000600e60166101000a81548160ff021916908315150217905550565b6000809054906101000a900473ffffffffffffffffffffffffffffffffffffffff1673ffffffffffffffffffffffffffffffffffffffff163373ffffffffffffffffffffffffffffffffffffffff1614151561279957600080fd5b8060038190555050565b7f42616e636f72580000000000000000000000000000000000000000000000000081565b600a5481565b7f42616e636f72585570677261646572000000000000000000000000000000000081565b600160009054906101000a900473ffffffffffffffffffffffffffffffffffffffff1681565b6000809054906101000a900473ffffffffffffffffffffffffffffffffffffffff1673ffffffffffffffffffffffffffffffffffffffff163373ffffffffffffffffffffffffffffffffffffffff1614151561287257600080fd5b80600a8190555050565b6000809054906101000a900473ffffffffffffffffffffffffffffffffffffffff1673ffffffffffffffffffffffffffffffffffffffff163373ffffffffffffffffffffffffffffffffffffffff161415156128d757600080fd5b80601260008473ffffffffffffffffffffffffffffffffffffffff1673ffffffffffffffffffffffffffffffffffffffff16815260200190815260200160002060006101000a81548160ff0219169083151502179055505050565b60106020528060005260406000206000915090505481565b6000809054906101000a900473ffffffffffffffffffffffffffffffffffffffff1673ffffffffffffffffffffffffffffffffffffffff163373ffffffffffffffffffffffffffffffffffffffff161415156129a557600080fd5b80600e60156101000a81548160ff02191690831515021790555050565b6000809054906101000a900473ffffffffffffffffffffffffffffffffffffffff1673ffffffffffffffffffffffffffffffffffffffff163373ffffffffffffffffffffffffffffffffffffffff16141515612a1d57600080fd5b6000809054906101000a900473ffffffffffffffffffffffffffffffffffffffff1673ffffffffffffffffffffffffffffffffffffffff168173ffffffffffffffffffffffffffffffffffffffff1614151515612a7957600080fd5b80600160006101000a81548173ffffffffffffffffffffffffffffffffffffffff021916908373ffffffffffffffffffffffffffffffffffffffff16021790555050565b7f4e6f6e5374616e64617264546f6b656e5265676973747279000000000000000081565b60065481565b6000809054906101000a900473ffffffffffffffffffffffffffffffffffffffff1673ffffffffffffffffffffffffffffffffffffffff163373ffffffffffffffffffffffffffffffffffffffff16141515612b4257600080fd5b8015600e60166101000a81548160ff02191690831515021790555050565b600e60149054906101000a900460ff1681565b6000818310151515612b8457600080fd5b818303905092915050565b6000806000841415612ba45760009150612bc6565b8284029050828482811515612bb557fe5b04141515612bc257600080fd5b8091505b5092915050565b6000808284019050838110151515612be457600080fd5b8091505092915050565b600d60009054906101000a900473ffffffffffffffffffffffffffffffffffffffff1673ffffffffffffffffffffffffffffffffffffffff1663fe417fa533836040518363ffffffff167c0100000000000000000000000000000000000000000000000000000000028152600401808373ffffffffffffffffffffffffffffffffffffffff1673ffffffffffffffffffffffffffffffffffffffff16815260200182815260200192505050600060405180830381600087803b158015612cb357600080fd5b505af1158015612cc7573d6000803e3d6000fd5b505050503373ffffffffffffffffffffffffffffffffffffffff167ff5d7535a395393675f56d066384113754ca9cf4abd37298469934e2e9c2ec902826040518082815260200191505060405180910390a250565b6000612d26611314565b90506004548210158015612d3a5750808211155b1515612d4557600080fd5b612d588282612b7390919063ffffffff16565b60068190555043600981905550600e60009054906101000a900473ffffffffffffffffffffffffffffffffffffffff1673ffffffffffffffffffffffffffffffffffffffff1663a9059cbb84846040518363ffffffff167c0100000000000000000000000000000000000000000000000000000000028152600401808373ffffffffffffffffffffffffffffffffffffffff1673ffffffffffffffffffffffffffffffffffffffff16815260200182815260200192505050602060405180830381600087803b158015612e2a57600080fd5b505af1158015612e3e573d6000803e3d6000fd5b505050506040513d6020811015612e5457600080fd5b8101908080519060200190929190505050508273ffffffffffffffffffffffffffffffffffffffff167fbfdc1f3c02b4715077e0be4a262f967d53d4d0fcd76c6987fa2ad6e2257d7c8f836040518082815260200191505060405180910390a25050505600a165627a7a723058203875c1a16caa44b24cc92fec2708f6756a944807b2588cf1357f1f9bb63eade50029",
			"opcodes": "PUSH1 0x80 PUSH1 0x40 MSTORE PUSH1 0x2 PUSH1 0x1 PUSH1 0x14 PUSH2 0x100 EXP DUP2 SLOAD DUP2 PUSH2 0xFFFF MUL NOT AND SWAP1 DUP4 PUSH2 0xFFFF AND MUL OR SWAP1 SSTORE POP PUSH1 0x1 PUSH1 0xE PUSH1 0x14 PUSH2 0x100 EXP DUP2 SLOAD DUP2 PUSH1 0xFF MUL NOT AND SWAP1 DUP4 ISZERO ISZERO MUL OR SWAP1 SSTORE POP PUSH1 0x1 PUSH1 0xE PUSH1 0x15 PUSH2 0x100 EXP DUP2 SLOAD DUP2 PUSH1 0xFF MUL NOT AND SWAP1 DUP4 ISZERO ISZERO MUL OR SWAP1 SSTORE POP PUSH1 0x1 PUSH1 0xE PUSH1 0x16 PUSH2 0x100 EXP DUP2 SLOAD DUP2 PUSH1 0xFF MUL NOT AND SWAP1 DUP4 ISZERO ISZERO MUL OR SWAP1 SSTORE POP CALLVALUE DUP1 ISZERO PUSH3 0x80 JUMPI PUSH1 0x0 DUP1 REVERT JUMPDEST POP PUSH1 0x40 MLOAD PUSH1 0xC0 DUP1 PUSH3 0x3340 DUP4 CODECOPY DUP2 ADD DUP1 PUSH1 0x40 MSTORE DUP2 ADD SWAP1 DUP1 DUP1 MLOAD SWAP1 PUSH1 0x20 ADD SWAP1 SWAP3 SWAP2 SWAP1 DUP1 MLOAD SWAP1 PUSH1 0x20 ADD SWAP1 SWAP3 SWAP2 SWAP1 DUP1 MLOAD SWAP1 PUSH1 0x20 ADD SWAP1 SWAP3 SWAP2 SWAP1 DUP1 MLOAD SWAP1 PUSH1 0x20 ADD SWAP1 SWAP3 SWAP2 SWAP1 DUP1 MLOAD SWAP1 PUSH1 0x20 ADD SWAP1 SWAP3 SWAP2 SWAP1 DUP1 MLOAD SWAP1 PUSH1 0x20 ADD SWAP1 SWAP3 SWAP2 SWAP1 POP POP POP CALLER PUSH1 0x0 DUP1 PUSH2 0x100 EXP DUP2 SLOAD DUP2 PUSH20 0xFFFFFFFFFFFFFFFFFFFFFFFFFFFFFFFFFFFFFFFF MUL NOT AND SWAP1 DUP4 PUSH20 0xFFFFFFFFFFFFFFFFFFFFFFFFFFFFFFFFFFFFFFFF AND MUL OR SWAP1 SSTORE POP DUP6 PUSH1 0x2 DUP2 SWAP1 SSTORE POP DUP5 PUSH1 0x3 DUP2 SWAP1 SSTORE POP DUP4 PUSH1 0x4 DUP2 SWAP1 SSTORE POP DUP3 PUSH1 0x7 DUP2 SWAP1 SSTORE POP DUP2 PUSH1 0xA DUP2 SWAP1 SSTORE POP DUP6 PUSH1 0x5 DUP2 SWAP1 SSTORE POP DUP5 PUSH1 0x6 DUP2 SWAP1 SSTORE POP NUMBER PUSH1 0x8 DUP2 SWAP1 SSTORE POP NUMBER PUSH1 0x9 DUP2 SWAP1 SSTORE POP DUP1 PUSH1 0xB PUSH1 0x0 PUSH2 0x100 EXP DUP2 SLOAD DUP2 PUSH20 0xFFFFFFFFFFFFFFFFFFFFFFFFFFFFFFFFFFFFFFFF MUL NOT AND SWAP1 DUP4 PUSH20 0xFFFFFFFFFFFFFFFFFFFFFFFFFFFFFFFFFFFFFFFF AND MUL OR SWAP1 SSTORE POP DUP1 PUSH1 0xC PUSH1 0x0 PUSH2 0x100 EXP DUP2 SLOAD DUP2 PUSH20 0xFFFFFFFFFFFFFFFFFFFFFFFFFFFFFFFFFFFFFFFF MUL NOT AND SWAP1 DUP4 PUSH20 0xFFFFFFFFFFFFFFFFFFFFFFFFFFFFFFFFFFFFFFFF AND MUL OR SWAP1 SSTORE POP PUSH1 0xB PUSH1 0x0 SWAP1 SLOAD SWAP1 PUSH2 0x100 EXP SWAP1 DIV PUSH20 0xFFFFFFFFFFFFFFFFFFFFFFFFFFFFFFFFFFFFFFFF AND PUSH20 0xFFFFFFFFFFFFFFFFFFFFFFFFFFFFFFFFFFFFFFFF AND PUSH4 0xBB34534C PUSH32 0x424E54546F6B656E000000000000000000000000000000000000000000000000 PUSH1 0x40 MLOAD DUP3 PUSH4 0xFFFFFFFF AND PUSH29 0x100000000000000000000000000000000000000000000000000000000 MUL DUP2 MSTORE PUSH1 0x4 ADD DUP1 DUP3 PUSH1 0x0 NOT AND PUSH1 0x0 NOT AND DUP2 MSTORE PUSH1 0x20 ADD SWAP2 POP POP PUSH1 0x20 PUSH1 0x40 MLOAD DUP1 DUP4 SUB DUP2 PUSH1 0x0 DUP8 DUP1 EXTCODESIZE ISZERO DUP1 ISZERO PUSH3 0x291 JUMPI PUSH1 0x0 DUP1 REVERT JUMPDEST POP GAS CALL ISZERO DUP1 ISZERO PUSH3 0x2A6 JUMPI RETURNDATASIZE PUSH1 0x0 DUP1 RETURNDATACOPY RETURNDATASIZE PUSH1 0x0 REVERT JUMPDEST POP POP POP POP PUSH1 0x40 MLOAD RETURNDATASIZE PUSH1 0x20 DUP2 LT ISZERO PUSH3 0x2BD JUMPI PUSH1 0x0 DUP1 REVERT JUMPDEST DUP2 ADD SWAP1 DUP1 DUP1 MLOAD SWAP1 PUSH1 0x20 ADD SWAP1 SWAP3 SWAP2 SWAP1 POP POP POP PUSH1 0xE PUSH1 0x0 PUSH2 0x100 EXP DUP2 SLOAD DUP2 PUSH20 0xFFFFFFFFFFFFFFFFFFFFFFFFFFFFFFFFFFFFFFFF MUL NOT AND SWAP1 DUP4 PUSH20 0xFFFFFFFFFFFFFFFFFFFFFFFFFFFFFFFFFFFFFFFF AND MUL OR SWAP1 SSTORE POP PUSH1 0xB PUSH1 0x0 SWAP1 SLOAD SWAP1 PUSH2 0x100 EXP SWAP1 DIV PUSH20 0xFFFFFFFFFFFFFFFFFFFFFFFFFFFFFFFFFFFFFFFF AND PUSH20 0xFFFFFFFFFFFFFFFFFFFFFFFFFFFFFFFFFFFFFFFF AND PUSH4 0xBB34534C PUSH32 0x424E54436F6E7665727465720000000000000000000000000000000000000000 PUSH1 0x40 MLOAD DUP3 PUSH4 0xFFFFFFFF AND PUSH29 0x100000000000000000000000000000000000000000000000000000000 MUL DUP2 MSTORE PUSH1 0x4 ADD DUP1 DUP3 PUSH1 0x0 NOT AND PUSH1 0x0 NOT AND DUP2 MSTORE PUSH1 0x20 ADD SWAP2 POP POP PUSH1 0x20 PUSH1 0x40 MLOAD DUP1 DUP4 SUB DUP2 PUSH1 0x0 DUP8 DUP1 EXTCODESIZE ISZERO DUP1 ISZERO PUSH3 0x3C8 JUMPI PUSH1 0x0 DUP1 REVERT JUMPDEST POP GAS CALL ISZERO DUP1 ISZERO PUSH3 0x3DD JUMPI RETURNDATASIZE PUSH1 0x0 DUP1 RETURNDATACOPY RETURNDATASIZE PUSH1 0x0 REVERT JUMPDEST POP POP POP POP PUSH1 0x40 MLOAD RETURNDATASIZE PUSH1 0x20 DUP2 LT ISZERO PUSH3 0x3F4 JUMPI PUSH1 0x0 DUP1 REVERT JUMPDEST DUP2 ADD SWAP1 DUP1 DUP1 MLOAD SWAP1 PUSH1 0x20 ADD SWAP1 SWAP3 SWAP2 SWAP1 POP POP POP PUSH1 0xD PUSH1 0x0 PUSH2 0x100 EXP DUP2 SLOAD DUP2 PUSH20 0xFFFFFFFFFFFFFFFFFFFFFFFFFFFFFFFFFFFFFFFF MUL NOT AND SWAP1 DUP4 PUSH20 0xFFFFFFFFFFFFFFFFFFFFFFFFFFFFFFFFFFFFFFFF AND MUL OR SWAP1 SSTORE POP POP POP POP POP POP POP PUSH2 0x2EE5 DUP1 PUSH3 0x45B PUSH1 0x0 CODECOPY PUSH1 0x0 RETURN STOP PUSH1 0x80 PUSH1 0x40 MSTORE PUSH1 0x4 CALLDATASIZE LT PUSH2 0x2A9 JUMPI PUSH1 0x0 CALLDATALOAD PUSH29 0x100000000000000000000000000000000000000000000000000000000 SWAP1 DIV PUSH4 0xFFFFFFFF AND DUP1 PUSH4 0x11857D0 EQ PUSH2 0x2AE JUMPI DUP1 PUSH4 0x183592B EQ PUSH2 0x305 JUMPI DUP1 PUSH4 0xC87355E EQ PUSH2 0x36B JUMPI DUP1 PUSH4 0x16C76C27 EQ PUSH2 0x39E JUMPI DUP1 PUSH4 0x19967439 EQ PUSH2 0x3C9 JUMPI DUP1 PUSH4 0x1AFF29EB EQ PUSH2 0x3F4 JUMPI DUP1 PUSH4 0x1D000B61 EQ PUSH2 0x41F JUMPI DUP1 PUSH4 0x1E04A593 EQ PUSH2 0x452 JUMPI DUP1 PUSH4 0x1FD8088D EQ PUSH2 0x47D JUMPI DUP1 PUSH4 0x20D7D367 EQ PUSH2 0x4A8 JUMPI DUP1 PUSH4 0x25F9BFEF EQ PUSH2 0x4D7 JUMPI DUP1 PUSH4 0x2CC1CD9E EQ PUSH2 0x50A JUMPI DUP1 PUSH4 0x427C0374 EQ PUSH2 0x565 JUMPI DUP1 PUSH4 0x49282538 EQ PUSH2 0x5B8 JUMPI DUP1 PUSH4 0x49D10B64 EQ PUSH2 0x601 JUMPI DUP1 PUSH4 0x4A453AF1 EQ PUSH2 0x618 JUMPI DUP1 PUSH4 0x4B3E475C EQ PUSH2 0x62F JUMPI DUP1 PUSH4 0x52E94CE3 EQ PUSH2 0x65A JUMPI DUP1 PUSH4 0x54FD4D50 EQ PUSH2 0x685 JUMPI DUP1 PUSH4 0x5A46F06C EQ PUSH2 0x6B8 JUMPI DUP1 PUSH4 0x5E35359E EQ PUSH2 0x6EB JUMPI DUP1 PUSH4 0x61CD756E EQ PUSH2 0x758 JUMPI DUP1 PUSH4 0x62614AE6 EQ PUSH2 0x7AF JUMPI DUP1 PUSH4 0x6D7BD3FC EQ PUSH2 0x7E2 JUMPI DUP1 PUSH4 0x6DC6A01B EQ PUSH2 0x815 JUMPI DUP1 PUSH4 0x6EC6D4A6 EQ PUSH2 0x884 JUMPI DUP1 PUSH4 0x72F43D19 EQ PUSH2 0x8B1 JUMPI DUP1 PUSH4 0x79BA5097 EQ PUSH2 0x8DC JUMPI DUP1 PUSH4 0x7B103999 EQ PUSH2 0x8F3 JUMPI DUP1 PUSH4 0x83315B6E EQ PUSH2 0x94A JUMPI DUP1 PUSH4 0x8544C52D EQ PUSH2 0x97D JUMPI DUP1 PUSH4 0x8DA5CB5B EQ PUSH2 0x9E2 JUMPI DUP1 PUSH4 0x9232494E EQ PUSH2 0xA39 JUMPI DUP1 PUSH4 0x9249993A EQ PUSH2 0xA6C JUMPI DUP1 PUSH4 0x9390701C EQ PUSH2 0xA9F JUMPI DUP1 PUSH4 0x9ACE38C2 EQ PUSH2 0xACE JUMPI DUP1 PUSH4 0xA50C326C EQ PUSH2 0xB69 JUMPI DUP1 PUSH4 0xA5C670CA EQ PUSH2 0xB96 JUMPI DUP1 PUSH4 0xA8C36A90 EQ PUSH2 0xBC5 JUMPI DUP1 PUSH4 0xAAFD6B76 EQ PUSH2 0xBF0 JUMPI DUP1 PUSH4 0xAF2B9618 EQ PUSH2 0xC51 JUMPI DUP1 PUSH4 0xAF6C0F60 EQ PUSH2 0xC7E JUMPI DUP1 PUSH4 0xB4A176D3 EQ PUSH2 0xCD5 JUMPI DUP1 PUSH4 0xBF28ECE4 EQ PUSH2 0xCEC JUMPI DUP1 PUSH4 0xC4A8598E EQ PUSH2 0xD19 JUMPI DUP1 PUSH4 0xCA27E011 EQ PUSH2 0xD4C JUMPI DUP1 PUSH4 0xCC97B38F EQ PUSH2 0xD77 JUMPI DUP1 PUSH4 0xD4EE1D90 EQ PUSH2 0xDAA JUMPI DUP1 PUSH4 0xDF68AB02 EQ PUSH2 0xE01 JUMPI DUP1 PUSH4 0xE1BB5133 EQ PUSH2 0xE2E JUMPI DUP1 PUSH4 0xE36F8DC5 EQ PUSH2 0xE7D JUMPI DUP1 PUSH4 0xED1D73A6 EQ PUSH2 0xEBE JUMPI DUP1 PUSH4 0xF2FDE38B EQ PUSH2 0xEED JUMPI DUP1 PUSH4 0xF5286B9C EQ PUSH2 0xF30 JUMPI DUP1 PUSH4 0xF7385F76 EQ PUSH2 0xF63 JUMPI DUP1 PUSH4 0xFA1C594E EQ PUSH2 0xF8E JUMPI DUP1 PUSH4 0xFBB24692 EQ PUSH2 0xFBD JUMPI JUMPDEST PUSH1 0x0 DUP1 REVERT JUMPDEST CALLVALUE DUP1 ISZERO PUSH2 0x2BA JUMPI PUSH1 0x0 DUP1 REVERT JUMPDEST POP PUSH2 0x2C3 PUSH2 0xFEC JUMP JUMPDEST PUSH1 0x40 MLOAD DUP1 DUP3 PUSH20 0xFFFFFFFFFFFFFFFFFFFFFFFFFFFFFFFFFFFFFFFF AND PUSH20 0xFFFFFFFFFFFFFFFFFFFFFFFFFFFFFFFFFFFFFFFF AND DUP2 MSTORE PUSH1 0x20 ADD SWAP2 POP POP PUSH1 0x40 MLOAD DUP1 SWAP2 SUB SWAP1 RETURN JUMPDEST CALLVALUE DUP1 ISZERO PUSH2 0x311 JUMPI PUSH1 0x0 DUP1 REVERT JUMPDEST POP PUSH2 0x369 PUSH1 0x4 DUP1 CALLDATASIZE SUB DUP2 ADD SWAP1 DUP1 DUP1 CALLDATALOAD SWAP1 PUSH1 0x20 ADD SWAP1 DUP3 ADD DUP1 CALLDATALOAD SWAP1 PUSH1 0x20 ADD SWAP1 DUP1 DUP1 PUSH1 0x20 MUL PUSH1 0x20 ADD PUSH1 0x40 MLOAD SWAP1 DUP2 ADD PUSH1 0x40 MSTORE DUP1 SWAP4 SWAP3 SWAP2 SWAP1 DUP2 DUP2 MSTORE PUSH1 0x20 ADD DUP4 DUP4 PUSH1 0x20 MUL DUP1 DUP3 DUP5 CALLDATACOPY DUP3 ADD SWAP2 POP POP POP POP POP POP SWAP2 SWAP3 SWAP2 SWAP3 SWAP1 POP POP POP PUSH2 0x1012 JUMP JUMPDEST STOP JUMPDEST CALLVALUE DUP1 ISZERO PUSH2 0x377 JUMPI PUSH1 0x0 DUP1 REVERT JUMPDEST POP PUSH2 0x380 PUSH2 0x1262 JUMP JUMPDEST PUSH1 0x40 MLOAD DUP1 DUP3 PUSH1 0x0 NOT AND PUSH1 0x0 NOT AND DUP2 MSTORE PUSH1 0x20 ADD SWAP2 POP POP PUSH1 0x40 MLOAD DUP1 SWAP2 SUB SWAP1 RETURN JUMPDEST CALLVALUE DUP1 ISZERO PUSH2 0x3AA JUMPI PUSH1 0x0 DUP1 REVERT JUMPDEST POP PUSH2 0x3B3 PUSH2 0x1286 JUMP JUMPDEST PUSH1 0x40 MLOAD DUP1 DUP3 DUP2 MSTORE PUSH1 0x20 ADD SWAP2 POP POP PUSH1 0x40 MLOAD DUP1 SWAP2 SUB SWAP1 RETURN JUMPDEST CALLVALUE DUP1 ISZERO PUSH2 0x3D5 JUMPI PUSH1 0x0 DUP1 REVERT JUMPDEST POP PUSH2 0x3DE PUSH2 0x128C JUMP JUMPDEST PUSH1 0x40 MLOAD DUP1 DUP3 DUP2 MSTORE PUSH1 0x20 ADD SWAP2 POP POP PUSH1 0x40 MLOAD DUP1 SWAP2 SUB SWAP1 RETURN JUMPDEST CALLVALUE DUP1 ISZERO PUSH2 0x400 JUMPI PUSH1 0x0 DUP1 REVERT JUMPDEST POP PUSH2 0x409 PUSH2 0x12EA JUMP JUMPDEST PUSH1 0x40 MLOAD DUP1 DUP3 DUP2 MSTORE PUSH1 0x20 ADD SWAP2 POP POP PUSH1 0x40 MLOAD DUP1 SWAP2 SUB SWAP1 RETURN JUMPDEST CALLVALUE DUP1 ISZERO PUSH2 0x42B JUMPI PUSH1 0x0 DUP1 REVERT JUMPDEST POP PUSH2 0x434 PUSH2 0x12F0 JUMP JUMPDEST PUSH1 0x40 MLOAD DUP1 DUP3 PUSH1 0x0 NOT AND PUSH1 0x0 NOT AND DUP2 MSTORE PUSH1 0x20 ADD SWAP2 POP POP PUSH1 0x40 MLOAD DUP1 SWAP2 SUB SWAP1 RETURN JUMPDEST CALLVALUE DUP1 ISZERO PUSH2 0x45E JUMPI PUSH1 0x0 DUP1 REVERT JUMPDEST POP PUSH2 0x467 PUSH2 0x1314 JUMP JUMPDEST PUSH1 0x40 MLOAD DUP1 DUP3 DUP2 MSTORE PUSH1 0x20 ADD SWAP2 POP POP PUSH1 0x40 MLOAD DUP1 SWAP2 SUB SWAP1 RETURN JUMPDEST CALLVALUE DUP1 ISZERO PUSH2 0x489 JUMPI PUSH1 0x0 DUP1 REVERT JUMPDEST POP PUSH2 0x492 PUSH2 0x1372 JUMP JUMPDEST PUSH1 0x40 MLOAD DUP1 DUP3 DUP2 MSTORE PUSH1 0x20 ADD SWAP2 POP POP PUSH1 0x40 MLOAD DUP1 SWAP2 SUB SWAP1 RETURN JUMPDEST CALLVALUE DUP1 ISZERO PUSH2 0x4B4 JUMPI PUSH1 0x0 DUP1 REVERT JUMPDEST POP PUSH2 0x4BD PUSH2 0x1378 JUMP JUMPDEST PUSH1 0x40 MLOAD DUP1 DUP3 ISZERO ISZERO ISZERO ISZERO DUP2 MSTORE PUSH1 0x20 ADD SWAP2 POP POP PUSH1 0x40 MLOAD DUP1 SWAP2 SUB SWAP1 RETURN JUMPDEST CALLVALUE DUP1 ISZERO PUSH2 0x4E3 JUMPI PUSH1 0x0 DUP1 REVERT JUMPDEST POP PUSH2 0x4EC PUSH2 0x138B JUMP JUMPDEST PUSH1 0x40 MLOAD DUP1 DUP3 PUSH1 0x0 NOT AND PUSH1 0x0 NOT AND DUP2 MSTORE PUSH1 0x20 ADD SWAP2 POP POP PUSH1 0x40 MLOAD DUP1 SWAP2 SUB SWAP1 RETURN JUMPDEST CALLVALUE DUP1 ISZERO PUSH2 0x516 JUMPI PUSH1 0x0 DUP1 REVERT JUMPDEST POP PUSH2 0x54B PUSH1 0x4 DUP1 CALLDATASIZE SUB DUP2 ADD SWAP1 DUP1 DUP1 CALLDATALOAD PUSH20 0xFFFFFFFFFFFFFFFFFFFFFFFFFFFFFFFFFFFFFFFF AND SWAP1 PUSH1 0x20 ADD SWAP1 SWAP3 SWAP2 SWAP1 POP POP POP PUSH2 0x13AF JUMP JUMPDEST PUSH1 0x40 MLOAD DUP1 DUP3 ISZERO ISZERO ISZERO ISZERO DUP2 MSTORE PUSH1 0x20 ADD SWAP2 POP POP PUSH1 0x40 MLOAD DUP1 SWAP2 SUB SWAP1 RETURN JUMPDEST CALLVALUE DUP1 ISZERO PUSH2 0x571 JUMPI PUSH1 0x0 DUP1 REVERT JUMPDEST POP PUSH2 0x5B6 PUSH1 0x4 DUP1 CALLDATASIZE SUB DUP2 ADD SWAP1 DUP1 DUP1 CALLDATALOAD PUSH1 0x0 NOT AND SWAP1 PUSH1 0x20 ADD SWAP1 SWAP3 SWAP2 SWAP1 DUP1 CALLDATALOAD PUSH1 0x0 NOT AND SWAP1 PUSH1 0x20 ADD SWAP1 SWAP3 SWAP2 SWAP1 DUP1 CALLDATALOAD SWAP1 PUSH1 0x20 ADD SWAP1 SWAP3 SWAP2 SWAP1 DUP1 CALLDATALOAD SWAP1 PUSH1 0x20 ADD SWAP1 SWAP3 SWAP2 SWAP1 POP POP POP PUSH2 0x13CF JUMP JUMPDEST STOP JUMPDEST CALLVALUE DUP1 ISZERO PUSH2 0x5C4 JUMPI PUSH1 0x0 DUP1 REVERT JUMPDEST POP PUSH2 0x5FF PUSH1 0x4 DUP1 CALLDATASIZE SUB DUP2 ADD SWAP1 DUP1 DUP1 CALLDATALOAD PUSH1 0x0 NOT AND SWAP1 PUSH1 0x20 ADD SWAP1 SWAP3 SWAP2 SWAP1 DUP1 CALLDATALOAD PUSH1 0x0 NOT AND SWAP1 PUSH1 0x20 ADD SWAP1 SWAP3 SWAP2 SWAP1 DUP1 CALLDATALOAD SWAP1 PUSH1 0x20 ADD SWAP1 SWAP3 SWAP2 SWAP1 POP POP POP PUSH2 0x14AE JUMP JUMPDEST STOP JUMPDEST CALLVALUE DUP1 ISZERO PUSH2 0x60D JUMPI PUSH1 0x0 DUP1 REVERT JUMPDEST POP PUSH2 0x616 PUSH2 0x158D JUMP JUMPDEST STOP JUMPDEST CALLVALUE DUP1 ISZERO PUSH2 0x624 JUMPI PUSH1 0x0 DUP1 REVERT JUMPDEST POP PUSH2 0x62D PUSH2 0x1834 JUMP JUMPDEST STOP JUMPDEST CALLVALUE DUP1 ISZERO PUSH2 0x63B JUMPI PUSH1 0x0 DUP1 REVERT JUMPDEST POP PUSH2 0x644 PUSH2 0x19C5 JUMP JUMPDEST PUSH1 0x40 MLOAD DUP1 DUP3 DUP2 MSTORE PUSH1 0x20 ADD SWAP2 POP POP PUSH1 0x40 MLOAD DUP1 SWAP2 SUB SWAP1 RETURN JUMPDEST CALLVALUE DUP1 ISZERO PUSH2 0x666 JUMPI PUSH1 0x0 DUP1 REVERT JUMPDEST POP PUSH2 0x66F PUSH2 0x19CB JUMP JUMPDEST PUSH1 0x40 MLOAD DUP1 DUP3 DUP2 MSTORE PUSH1 0x20 ADD SWAP2 POP POP PUSH1 0x40 MLOAD DUP1 SWAP2 SUB SWAP1 RETURN JUMPDEST CALLVALUE DUP1 ISZERO PUSH2 0x691 JUMPI PUSH1 0x0 DUP1 REVERT JUMPDEST POP PUSH2 0x69A PUSH2 0x19D1 JUMP JUMPDEST PUSH1 0x40 MLOAD DUP1 DUP3 PUSH2 0xFFFF AND PUSH2 0xFFFF AND DUP2 MSTORE PUSH1 0x20 ADD SWAP2 POP POP PUSH1 0x40 MLOAD DUP1 SWAP2 SUB SWAP1 RETURN JUMPDEST CALLVALUE DUP1 ISZERO PUSH2 0x6C4 JUMPI PUSH1 0x0 DUP1 REVERT JUMPDEST POP PUSH2 0x6CD PUSH2 0x19E5 JUMP JUMPDEST PUSH1 0x40 MLOAD DUP1 DUP3 PUSH1 0x0 NOT AND PUSH1 0x0 NOT AND DUP2 MSTORE PUSH1 0x20 ADD SWAP2 POP POP PUSH1 0x40 MLOAD DUP1 SWAP2 SUB SWAP1 RETURN JUMPDEST CALLVALUE DUP1 ISZERO PUSH2 0x6F7 JUMPI PUSH1 0x0 DUP1 REVERT JUMPDEST POP PUSH2 0x756 PUSH1 0x4 DUP1 CALLDATASIZE SUB DUP2 ADD SWAP1 DUP1 DUP1 CALLDATALOAD PUSH20 0xFFFFFFFFFFFFFFFFFFFFFFFFFFFFFFFFFFFFFFFF AND SWAP1 PUSH1 0x20 ADD SWAP1 SWAP3 SWAP2 SWAP1 DUP1 CALLDATALOAD PUSH20 0xFFFFFFFFFFFFFFFFFFFFFFFFFFFFFFFFFFFFFFFF AND SWAP1 PUSH1 0x20 ADD SWAP1 SWAP3 SWAP2 SWAP1 DUP1 CALLDATALOAD SWAP1 PUSH1 0x20 ADD SWAP1 SWAP3 SWAP2 SWAP1 POP POP POP PUSH2 0x1A09 JUMP JUMPDEST STOP JUMPDEST CALLVALUE DUP1 ISZERO PUSH2 0x764 JUMPI PUSH1 0x0 DUP1 REVERT JUMPDEST POP PUSH2 0x76D PUSH2 0x1BDD JUMP JUMPDEST PUSH1 0x40 MLOAD DUP1 DUP3 PUSH20 0xFFFFFFFFFFFFFFFFFFFFFFFFFFFFFFFFFFFFFFFF AND PUSH20 0xFFFFFFFFFFFFFFFFFFFFFFFFFFFFFFFFFFFFFFFF AND DUP2 MSTORE PUSH1 0x20 ADD SWAP2 POP POP PUSH1 0x40 MLOAD DUP1 SWAP2 SUB SWAP1 RETURN JUMPDEST CALLVALUE DUP1 ISZERO PUSH2 0x7BB JUMPI PUSH1 0x0 DUP1 REVERT JUMPDEST POP PUSH2 0x7C4 PUSH2 0x1C03 JUMP JUMPDEST PUSH1 0x40 MLOAD DUP1 DUP3 PUSH1 0x0 NOT AND PUSH1 0x0 NOT AND DUP2 MSTORE PUSH1 0x20 ADD SWAP2 POP POP PUSH1 0x40 MLOAD DUP1 SWAP2 SUB SWAP1 RETURN JUMPDEST CALLVALUE DUP1 ISZERO PUSH2 0x7EE JUMPI PUSH1 0x0 DUP1 REVERT JUMPDEST POP PUSH2 0x7F7 PUSH2 0x1C27 JUMP JUMPDEST PUSH1 0x40 MLOAD DUP1 DUP3 PUSH1 0x0 NOT AND PUSH1 0x0 NOT AND DUP2 MSTORE PUSH1 0x20 ADD SWAP2 POP POP PUSH1 0x40 MLOAD DUP1 SWAP2 SUB SWAP1 RETURN JUMPDEST CALLVALUE DUP1 ISZERO PUSH2 0x821 JUMPI PUSH1 0x0 DUP1 REVERT JUMPDEST POP PUSH2 0x882 PUSH1 0x4 DUP1 CALLDATASIZE SUB DUP2 ADD SWAP1 DUP1 DUP1 CALLDATALOAD PUSH1 0x0 NOT AND SWAP1 PUSH1 0x20 ADD SWAP1 SWAP3 SWAP2 SWAP1 DUP1 CALLDATALOAD SWAP1 PUSH1 0x20 ADD SWAP1 SWAP3 SWAP2 SWAP1 DUP1 CALLDATALOAD PUSH20 0xFFFFFFFFFFFFFFFFFFFFFFFFFFFFFFFFFFFFFFFF AND SWAP1 PUSH1 0x20 ADD SWAP1 SWAP3 SWAP2 SWAP1 DUP1 CALLDATALOAD SWAP1 PUSH1 0x20 ADD SWAP1 SWAP3 SWAP2 SWAP1 DUP1 CALLDATALOAD SWAP1 PUSH1 0x20 ADD SWAP1 SWAP3 SWAP2 SWAP1 POP POP POP PUSH2 0x1C4B JUMP JUMPDEST STOP JUMPDEST CALLVALUE DUP1 ISZERO PUSH2 0x890 JUMPI PUSH1 0x0 DUP1 REVERT JUMPDEST POP PUSH2 0x8AF PUSH1 0x4 DUP1 CALLDATASIZE SUB DUP2 ADD SWAP1 DUP1 DUP1 CALLDATALOAD SWAP1 PUSH1 0x20 ADD SWAP1 SWAP3 SWAP2 SWAP1 POP POP POP PUSH2 0x20EB JUMP JUMPDEST STOP JUMPDEST CALLVALUE DUP1 ISZERO PUSH2 0x8BD JUMPI PUSH1 0x0 DUP1 REVERT JUMPDEST POP PUSH2 0x8C6 PUSH2 0x2150 JUMP JUMPDEST PUSH1 0x40 MLOAD DUP1 DUP3 DUP2 MSTORE PUSH1 0x20 ADD SWAP2 POP POP PUSH1 0x40 MLOAD DUP1 SWAP2 SUB SWAP1 RETURN JUMPDEST CALLVALUE DUP1 ISZERO PUSH2 0x8E8 JUMPI PUSH1 0x0 DUP1 REVERT JUMPDEST POP PUSH2 0x8F1 PUSH2 0x2156 JUMP JUMPDEST STOP JUMPDEST CALLVALUE DUP1 ISZERO PUSH2 0x8FF JUMPI PUSH1 0x0 DUP1 REVERT JUMPDEST POP PUSH2 0x908 PUSH2 0x22F5 JUMP JUMPDEST PUSH1 0x40 MLOAD DUP1 DUP3 PUSH20 0xFFFFFFFFFFFFFFFFFFFFFFFFFFFFFFFFFFFFFFFF AND PUSH20 0xFFFFFFFFFFFFFFFFFFFFFFFFFFFFFFFFFFFFFFFF AND DUP2 MSTORE PUSH1 0x20 ADD SWAP2 POP POP PUSH1 0x40 MLOAD DUP1 SWAP2 SUB SWAP1 RETURN JUMPDEST CALLVALUE DUP1 ISZERO PUSH2 0x956 JUMPI PUSH1 0x0 DUP1 REVERT JUMPDEST POP PUSH2 0x95F PUSH2 0x231B JUMP JUMPDEST PUSH1 0x40 MLOAD DUP1 DUP3 PUSH1 0x0 NOT AND PUSH1 0x0 NOT AND DUP2 MSTORE PUSH1 0x20 ADD SWAP2 POP POP PUSH1 0x40 MLOAD DUP1 SWAP2 SUB SWAP1 RETURN JUMPDEST CALLVALUE DUP1 ISZERO PUSH2 0x989 JUMPI PUSH1 0x0 DUP1 REVERT JUMPDEST POP PUSH2 0x9C8 PUSH1 0x4 DUP1 CALLDATASIZE SUB DUP2 ADD SWAP1 DUP1 DUP1 CALLDATALOAD SWAP1 PUSH1 0x20 ADD SWAP1 SWAP3 SWAP2 SWAP1 DUP1 CALLDATALOAD PUSH20 0xFFFFFFFFFFFFFFFFFFFFFFFFFFFFFFFFFFFFFFFF AND SWAP1 PUSH1 0x20 ADD SWAP1 SWAP3 SWAP2 SWAP1 POP POP POP PUSH2 0x233F JUMP JUMPDEST PUSH1 0x40 MLOAD DUP1 DUP3 ISZERO ISZERO ISZERO ISZERO DUP2 MSTORE PUSH1 0x20 ADD SWAP2 POP POP PUSH1 0x40 MLOAD DUP1 SWAP2 SUB SWAP1 RETURN JUMPDEST CALLVALUE DUP1 ISZERO PUSH2 0x9EE JUMPI PUSH1 0x0 DUP1 REVERT JUMPDEST POP PUSH2 0x9F7 PUSH2 0x236E JUMP JUMPDEST PUSH1 0x40 MLOAD DUP1 DUP3 PUSH20 0xFFFFFFFFFFFFFFFFFFFFFFFFFFFFFFFFFFFFFFFF AND PUSH20 0xFFFFFFFFFFFFFFFFFFFFFFFFFFFFFFFFFFFFFFFF AND DUP2 MSTORE PUSH1 0x20 ADD SWAP2 POP POP PUSH1 0x40 MLOAD DUP1 SWAP2 SUB SWAP1 RETURN JUMPDEST CALLVALUE DUP1 ISZERO PUSH2 0xA45 JUMPI PUSH1 0x0 DUP1 REVERT JUMPDEST POP PUSH2 0xA4E PUSH2 0x2393 JUMP JUMPDEST PUSH1 0x40 MLOAD DUP1 DUP3 PUSH1 0x0 NOT AND PUSH1 0x0 NOT AND DUP2 MSTORE PUSH1 0x20 ADD SWAP2 POP POP PUSH1 0x40 MLOAD DUP1 SWAP2 SUB SWAP1 RETURN JUMPDEST CALLVALUE DUP1 ISZERO PUSH2 0xA78 JUMPI PUSH1 0x0 DUP1 REVERT JUMPDEST POP PUSH2 0xA81 PUSH2 0x23B7 JUMP JUMPDEST PUSH1 0x40 MLOAD DUP1 DUP3 PUSH1 0x0 NOT AND PUSH1 0x0 NOT AND DUP2 MSTORE PUSH1 0x20 ADD SWAP2 POP POP PUSH1 0x40 MLOAD DUP1 SWAP2 SUB SWAP1 RETURN JUMPDEST CALLVALUE DUP1 ISZERO PUSH2 0xAAB JUMPI PUSH1 0x0 DUP1 REVERT JUMPDEST POP PUSH2 0xAB4 PUSH2 0x23DB JUMP JUMPDEST PUSH1 0x40 MLOAD DUP1 DUP3 ISZERO ISZERO ISZERO ISZERO DUP2 MSTORE PUSH1 0x20 ADD SWAP2 POP POP PUSH1 0x40 MLOAD DUP1 SWAP2 SUB SWAP1 RETURN JUMPDEST CALLVALUE DUP1 ISZERO PUSH2 0xADA JUMPI PUSH1 0x0 DUP1 REVERT JUMPDEST POP PUSH2 0xAF9 PUSH1 0x4 DUP1 CALLDATASIZE SUB DUP2 ADD SWAP1 DUP1 DUP1 CALLDATALOAD SWAP1 PUSH1 0x20 ADD SWAP1 SWAP3 SWAP2 SWAP1 POP POP POP PUSH2 0x23EE JUMP JUMPDEST PUSH1 0x40 MLOAD DUP1 DUP7 DUP2 MSTORE PUSH1 0x20 ADD DUP6 PUSH1 0x0 NOT AND PUSH1 0x0 NOT AND DUP2 MSTORE PUSH1 0x20 ADD DUP5 PUSH20 0xFFFFFFFFFFFFFFFFFFFFFFFFFFFFFFFFFFFFFFFF AND PUSH20 0xFFFFFFFFFFFFFFFFFFFFFFFFFFFFFFFFFFFFFFFF AND DUP2 MSTORE PUSH1 0x20 ADD DUP4 PUSH1 0xFF AND PUSH1 0xFF AND DUP2 MSTORE PUSH1 0x20 ADD DUP3 ISZERO ISZERO ISZERO ISZERO DUP2 MSTORE PUSH1 0x20 ADD SWAP6 POP POP POP POP POP POP PUSH1 0x40 MLOAD DUP1 SWAP2 SUB SWAP1 RETURN JUMPDEST CALLVALUE DUP1 ISZERO PUSH2 0xB75 JUMPI PUSH1 0x0 DUP1 REVERT JUMPDEST POP PUSH2 0xB94 PUSH1 0x4 DUP1 CALLDATASIZE SUB DUP2 ADD SWAP1 DUP1 DUP1 CALLDATALOAD SWAP1 PUSH1 0x20 ADD SWAP1 SWAP3 SWAP2 SWAP1 POP POP POP PUSH2 0x245E JUMP JUMPDEST STOP JUMPDEST CALLVALUE DUP1 ISZERO PUSH2 0xBA2 JUMPI PUSH1 0x0 DUP1 REVERT JUMPDEST POP PUSH2 0xBC3 PUSH1 0x4 DUP1 CALLDATASIZE SUB DUP2 ADD SWAP1 DUP1 DUP1 CALLDATALOAD ISZERO ISZERO SWAP1 PUSH1 0x20 ADD SWAP1 SWAP3 SWAP2 SWAP1 POP POP POP PUSH2 0x24C3 JUMP JUMPDEST STOP JUMPDEST CALLVALUE DUP1 ISZERO PUSH2 0xBD1 JUMPI PUSH1 0x0 DUP1 REVERT JUMPDEST POP PUSH2 0xBDA PUSH2 0x253B JUMP JUMPDEST PUSH1 0x40 MLOAD DUP1 DUP3 DUP2 MSTORE PUSH1 0x20 ADD SWAP2 POP POP PUSH1 0x40 MLOAD DUP1 SWAP2 SUB SWAP1 RETURN JUMPDEST CALLVALUE DUP1 ISZERO PUSH2 0xBFC JUMPI PUSH1 0x0 DUP1 REVERT JUMPDEST POP PUSH2 0xC3B PUSH1 0x4 DUP1 CALLDATASIZE SUB DUP2 ADD SWAP1 DUP1 DUP1 CALLDATALOAD SWAP1 PUSH1 0x20 ADD SWAP1 SWAP3 SWAP2 SWAP1 DUP1 CALLDATALOAD PUSH20 0xFFFFFFFFFFFFFFFFFFFFFFFFFFFFFFFFFFFFFFFF AND SWAP1 PUSH1 0x20 ADD SWAP1 SWAP3 SWAP2 SWAP1 POP POP POP PUSH2 0x2541 JUMP JUMPDEST PUSH1 0x40 MLOAD DUP1 DUP3 DUP2 MSTORE PUSH1 0x20 ADD SWAP2 POP POP PUSH1 0x40 MLOAD DUP1 SWAP2 SUB SWAP1 RETURN JUMPDEST CALLVALUE DUP1 ISZERO PUSH2 0xC5D JUMPI PUSH1 0x0 DUP1 REVERT JUMPDEST POP PUSH2 0xC7C PUSH1 0x4 DUP1 CALLDATASIZE SUB DUP2 ADD SWAP1 DUP1 DUP1 CALLDATALOAD SWAP1 PUSH1 0x20 ADD SWAP1 SWAP3 SWAP2 SWAP1 POP POP POP PUSH2 0x25D8 JUMP JUMPDEST STOP JUMPDEST CALLVALUE DUP1 ISZERO PUSH2 0xC8A JUMPI PUSH1 0x0 DUP1 REVERT JUMPDEST POP PUSH2 0xC93 PUSH2 0x263D JUMP JUMPDEST PUSH1 0x40 MLOAD DUP1 DUP3 PUSH20 0xFFFFFFFFFFFFFFFFFFFFFFFFFFFFFFFFFFFFFFFF AND PUSH20 0xFFFFFFFFFFFFFFFFFFFFFFFFFFFFFFFFFFFFFFFF AND DUP2 MSTORE PUSH1 0x20 ADD SWAP2 POP POP PUSH1 0x40 MLOAD DUP1 SWAP2 SUB SWAP1 RETURN JUMPDEST CALLVALUE DUP1 ISZERO PUSH2 0xCE1 JUMPI PUSH1 0x0 DUP1 REVERT JUMPDEST POP PUSH2 0xCEA PUSH2 0x2663 JUMP JUMPDEST STOP JUMPDEST CALLVALUE DUP1 ISZERO PUSH2 0xCF8 JUMPI PUSH1 0x0 DUP1 REVERT JUMPDEST POP PUSH2 0xD17 PUSH1 0x4 DUP1 CALLDATASIZE SUB DUP2 ADD SWAP1 DUP1 DUP1 CALLDATALOAD SWAP1 PUSH1 0x20 ADD SWAP1 SWAP3 SWAP2 SWAP1 POP POP POP PUSH2 0x273E JUMP JUMPDEST STOP JUMPDEST CALLVALUE DUP1 ISZERO PUSH2 0xD25 JUMPI PUSH1 0x0 DUP1 REVERT JUMPDEST POP PUSH2 0xD2E PUSH2 0x27A3 JUMP JUMPDEST PUSH1 0x40 MLOAD DUP1 DUP3 PUSH1 0x0 NOT AND PUSH1 0x0 NOT AND DUP2 MSTORE PUSH1 0x20 ADD SWAP2 POP POP PUSH1 0x40 MLOAD DUP1 SWAP2 SUB SWAP1 RETURN JUMPDEST CALLVALUE DUP1 ISZERO PUSH2 0xD58 JUMPI PUSH1 0x0 DUP1 REVERT JUMPDEST POP PUSH2 0xD61 PUSH2 0x27C7 JUMP JUMPDEST PUSH1 0x40 MLOAD DUP1 DUP3 DUP2 MSTORE PUSH1 0x20 ADD SWAP2 POP POP PUSH1 0x40 MLOAD DUP1 SWAP2 SUB SWAP1 RETURN JUMPDEST CALLVALUE DUP1 ISZERO PUSH2 0xD83 JUMPI PUSH1 0x0 DUP1 REVERT JUMPDEST POP PUSH2 0xD8C PUSH2 0x27CD JUMP JUMPDEST PUSH1 0x40 MLOAD DUP1 DUP3 PUSH1 0x0 NOT AND PUSH1 0x0 NOT AND DUP2 MSTORE PUSH1 0x20 ADD SWAP2 POP POP PUSH1 0x40 MLOAD DUP1 SWAP2 SUB SWAP1 RETURN JUMPDEST CALLVALUE DUP1 ISZERO PUSH2 0xDB6 JUMPI PUSH1 0x0 DUP1 REVERT JUMPDEST POP PUSH2 0xDBF PUSH2 0x27F1 JUMP JUMPDEST PUSH1 0x40 MLOAD DUP1 DUP3 PUSH20 0xFFFFFFFFFFFFFFFFFFFFFFFFFFFFFFFFFFFFFFFF AND PUSH20 0xFFFFFFFFFFFFFFFFFFFFFFFFFFFFFFFFFFFFFFFF AND DUP2 MSTORE PUSH1 0x20 ADD SWAP2 POP POP PUSH1 0x40 MLOAD DUP1 SWAP2 SUB SWAP1 RETURN JUMPDEST CALLVALUE DUP1 ISZERO PUSH2 0xE0D JUMPI PUSH1 0x0 DUP1 REVERT JUMPDEST POP PUSH2 0xE2C PUSH1 0x4 DUP1 CALLDATASIZE SUB DUP2 ADD SWAP1 DUP1 DUP1 CALLDATALOAD SWAP1 PUSH1 0x20 ADD SWAP1 SWAP3 SWAP2 SWAP1 POP POP POP PUSH2 0x2817 JUMP JUMPDEST STOP JUMPDEST CALLVALUE DUP1 ISZERO PUSH2 0xE3A JUMPI PUSH1 0x0 DUP1 REVERT JUMPDEST POP PUSH2 0xE7B PUSH1 0x4 DUP1 CALLDATASIZE SUB DUP2 ADD SWAP1 DUP1 DUP1 CALLDATALOAD PUSH20 0xFFFFFFFFFFFFFFFFFFFFFFFFFFFFFFFFFFFFFFFF AND SWAP1 PUSH1 0x20 ADD SWAP1 SWAP3 SWAP2 SWAP1 DUP1 CALLDATALOAD ISZERO ISZERO SWAP1 PUSH1 0x20 ADD SWAP1 SWAP3 SWAP2 SWAP1 POP POP POP PUSH2 0x287C JUMP JUMPDEST STOP JUMPDEST CALLVALUE DUP1 ISZERO PUSH2 0xE89 JUMPI PUSH1 0x0 DUP1 REVERT JUMPDEST POP PUSH2 0xEA8 PUSH1 0x4 DUP1 CALLDATASIZE SUB DUP2 ADD SWAP1 DUP1 DUP1 CALLDATALOAD SWAP1 PUSH1 0x20 ADD SWAP1 SWAP3 SWAP2 SWAP1 POP POP POP PUSH2 0x2932 JUMP JUMPDEST PUSH1 0x40 MLOAD DUP1 DUP3 DUP2 MSTORE PUSH1 0x20 ADD SWAP2 POP POP PUSH1 0x40 MLOAD DUP1 SWAP2 SUB SWAP1 RETURN JUMPDEST CALLVALUE DUP1 ISZERO PUSH2 0xECA JUMPI PUSH1 0x0 DUP1 REVERT JUMPDEST POP PUSH2 0xEEB PUSH1 0x4 DUP1 CALLDATASIZE SUB DUP2 ADD SWAP1 DUP1 DUP1 CALLDATALOAD ISZERO ISZERO SWAP1 PUSH1 0x20 ADD SWAP1 SWAP3 SWAP2 SWAP1 POP POP POP PUSH2 0x294A JUMP JUMPDEST STOP JUMPDEST CALLVALUE DUP1 ISZERO PUSH2 0xEF9 JUMPI PUSH1 0x0 DUP1 REVERT JUMPDEST POP PUSH2 0xF2E PUSH1 0x4 DUP1 CALLDATASIZE SUB DUP2 ADD SWAP1 DUP1 DUP1 CALLDATALOAD PUSH20 0xFFFFFFFFFFFFFFFFFFFFFFFFFFFFFFFFFFFFFFFF AND SWAP1 PUSH1 0x20 ADD SWAP1 SWAP3 SWAP2 SWAP1 POP POP POP PUSH2 0x29C2 JUMP JUMPDEST STOP JUMPDEST CALLVALUE DUP1 ISZERO PUSH2 0xF3C JUMPI PUSH1 0x0 DUP1 REVERT JUMPDEST POP PUSH2 0xF45 PUSH2 0x2ABD JUMP JUMPDEST PUSH1 0x40 MLOAD DUP1 DUP3 PUSH1 0x0 NOT AND PUSH1 0x0 NOT AND DUP2 MSTORE PUSH1 0x20 ADD SWAP2 POP POP PUSH1 0x40 MLOAD DUP1 SWAP2 SUB SWAP1 RETURN JUMPDEST CALLVALUE DUP1 ISZERO PUSH2 0xF6F JUMPI PUSH1 0x0 DUP1 REVERT JUMPDEST POP PUSH2 0xF78 PUSH2 0x2AE1 JUMP JUMPDEST PUSH1 0x40 MLOAD DUP1 DUP3 DUP2 MSTORE PUSH1 0x20 ADD SWAP2 POP POP PUSH1 0x40 MLOAD DUP1 SWAP2 SUB SWAP1 RETURN JUMPDEST CALLVALUE DUP1 ISZERO PUSH2 0xF9A JUMPI PUSH1 0x0 DUP1 REVERT JUMPDEST POP PUSH2 0xFBB PUSH1 0x4 DUP1 CALLDATASIZE SUB DUP2 ADD SWAP1 DUP1 DUP1 CALLDATALOAD ISZERO ISZERO SWAP1 PUSH1 0x20 ADD SWAP1 SWAP3 SWAP2 SWAP1 POP POP POP PUSH2 0x2AE7 JUMP JUMPDEST STOP JUMPDEST CALLVALUE DUP1 ISZERO PUSH2 0xFC9 JUMPI PUSH1 0x0 DUP1 REVERT JUMPDEST POP PUSH2 0xFD2 PUSH2 0x2B60 JUMP JUMPDEST PUSH1 0x40 MLOAD DUP1 DUP3 ISZERO ISZERO ISZERO ISZERO DUP2 MSTORE PUSH1 0x20 ADD SWAP2 POP POP PUSH1 0x40 MLOAD DUP1 SWAP2 SUB SWAP1 RETURN JUMPDEST PUSH1 0xD PUSH1 0x0 SWAP1 SLOAD SWAP1 PUSH2 0x100 EXP SWAP1 DIV PUSH20 0xFFFFFFFFFFFFFFFFFFFFFFFFFFFFFFFFFFFFFFFF AND DUP2 JUMP JUMPDEST PUSH1 0x0 DUP1 PUSH1 0x0 SWAP1 SLOAD SWAP1 PUSH2 0x100 EXP SWAP1 DIV PUSH20 0xFFFFFFFFFFFFFFFFFFFFFFFFFFFFFFFFFFFFFFFF AND PUSH20 0xFFFFFFFFFFFFFFFFFFFFFFFFFFFFFFFFFFFFFFFF AND CALLER PUSH20 0xFFFFFFFFFFFFFFFFFFFFFFFFFFFFFFFFFFFFFFFF AND EQ ISZERO ISZERO PUSH2 0x106F JUMPI PUSH1 0x0 DUP1 REVERT JUMPDEST PUSH1 0xB PUSH1 0x0 SWAP1 SLOAD SWAP1 PUSH2 0x100 EXP SWAP1 DIV PUSH20 0xFFFFFFFFFFFFFFFFFFFFFFFFFFFFFFFFFFFFFFFF AND PUSH20 0xFFFFFFFFFFFFFFFFFFFFFFFFFFFFFFFFFFFFFFFF AND PUSH4 0xBB34534C PUSH32 0x42616E636F725855706772616465720000000000000000000000000000000000 PUSH1 0x40 MLOAD DUP3 PUSH4 0xFFFFFFFF AND PUSH29 0x100000000000000000000000000000000000000000000000000000000 MUL DUP2 MSTORE PUSH1 0x4 ADD DUP1 DUP3 PUSH1 0x0 NOT AND PUSH1 0x0 NOT AND DUP2 MSTORE PUSH1 0x20 ADD SWAP2 POP POP PUSH1 0x20 PUSH1 0x40 MLOAD DUP1 DUP4 SUB DUP2 PUSH1 0x0 DUP8 DUP1 EXTCODESIZE ISZERO DUP1 ISZERO PUSH2 0x1128 JUMPI PUSH1 0x0 DUP1 REVERT JUMPDEST POP GAS CALL ISZERO DUP1 ISZERO PUSH2 0x113C JUMPI RETURNDATASIZE PUSH1 0x0 DUP1 RETURNDATACOPY RETURNDATASIZE PUSH1 0x0 REVERT JUMPDEST POP POP POP POP PUSH1 0x40 MLOAD RETURNDATASIZE PUSH1 0x20 DUP2 LT ISZERO PUSH2 0x1152 JUMPI PUSH1 0x0 DUP1 REVERT JUMPDEST DUP2 ADD SWAP1 DUP1 DUP1 MLOAD SWAP1 PUSH1 0x20 ADD SWAP1 SWAP3 SWAP2 SWAP1 POP POP POP SWAP1 POP PUSH2 0x116E DUP2 PUSH2 0x29C2 JUMP JUMPDEST DUP1 PUSH20 0xFFFFFFFFFFFFFFFFFFFFFFFFFFFFFFFFFFFFFFFF AND PUSH4 0x546872CC PUSH1 0x1 PUSH1 0x14 SWAP1 SLOAD SWAP1 PUSH2 0x100 EXP SWAP1 DIV PUSH2 0xFFFF AND DUP5 PUSH1 0x40 MLOAD DUP4 PUSH4 0xFFFFFFFF AND PUSH29 0x100000000000000000000000000000000000000000000000000000000 MUL DUP2 MSTORE PUSH1 0x4 ADD DUP1 DUP4 PUSH2 0xFFFF AND PUSH2 0xFFFF AND DUP2 MSTORE PUSH1 0x20 ADD DUP1 PUSH1 0x20 ADD DUP3 DUP2 SUB DUP3 MSTORE DUP4 DUP2 DUP2 MLOAD DUP2 MSTORE PUSH1 0x20 ADD SWAP2 POP DUP1 MLOAD SWAP1 PUSH1 0x20 ADD SWAP1 PUSH1 0x20 MUL DUP1 DUP4 DUP4 PUSH1 0x0 JUMPDEST DUP4 DUP2 LT ISZERO PUSH2 0x1218 JUMPI DUP1 DUP3 ADD MLOAD DUP2 DUP5 ADD MSTORE PUSH1 0x20 DUP2 ADD SWAP1 POP PUSH2 0x11FD JUMP JUMPDEST POP POP POP POP SWAP1 POP ADD SWAP4 POP POP POP POP PUSH1 0x0 PUSH1 0x40 MLOAD DUP1 DUP4 SUB DUP2 PUSH1 0x0 DUP8 DUP1 EXTCODESIZE ISZERO DUP1 ISZERO PUSH2 0x123E JUMPI PUSH1 0x0 DUP1 REVERT JUMPDEST POP GAS CALL ISZERO DUP1 ISZERO PUSH2 0x1252 JUMPI RETURNDATASIZE PUSH1 0x0 DUP1 RETURNDATACOPY RETURNDATASIZE PUSH1 0x0 REVERT JUMPDEST POP POP POP POP PUSH2 0x125E PUSH2 0x2156 JUMP JUMPDEST POP POP JUMP JUMPDEST PUSH32 0x42616E636F72436F6E7665727465725570677261646572000000000000000000 DUP2 JUMP JUMPDEST PUSH1 0x5 SLOAD DUP2 JUMP JUMPDEST PUSH1 0x0 DUP1 PUSH2 0x12CC PUSH2 0x12BB PUSH1 0x7 SLOAD PUSH2 0x12AD PUSH1 0x8 SLOAD NUMBER PUSH2 0x2B73 SWAP1 SWAP2 SWAP1 PUSH4 0xFFFFFFFF AND JUMP JUMPDEST PUSH2 0x2B8F SWAP1 SWAP2 SWAP1 PUSH4 0xFFFFFFFF AND JUMP JUMPDEST PUSH1 0x5 SLOAD PUSH2 0x2BCD SWAP1 SWAP2 SWAP1 PUSH4 0xFFFFFFFF AND JUMP JUMPDEST SWAP1 POP PUSH1 0x2 SLOAD DUP2 GT ISZERO PUSH2 0x12E2 JUMPI PUSH1 0x2 SLOAD SWAP2 POP PUSH2 0x12E6 JUMP JUMPDEST DUP1 SWAP2 POP JUMPDEST POP SWAP1 JUMP JUMPDEST PUSH1 0x8 SLOAD DUP2 JUMP JUMPDEST PUSH32 0x424E54546F6B656E000000000000000000000000000000000000000000000000 DUP2 JUMP JUMPDEST PUSH1 0x0 DUP1 PUSH2 0x1354 PUSH2 0x1343 PUSH1 0x7 SLOAD PUSH2 0x1335 PUSH1 0x9 SLOAD NUMBER PUSH2 0x2B73 SWAP1 SWAP2 SWAP1 PUSH4 0xFFFFFFFF AND JUMP JUMPDEST PUSH2 0x2B8F SWAP1 SWAP2 SWAP1 PUSH4 0xFFFFFFFF AND JUMP JUMPDEST PUSH1 0x6 SLOAD PUSH2 0x2BCD SWAP1 SWAP2 SWAP1 PUSH4 0xFFFFFFFF AND JUMP JUMPDEST SWAP1 POP PUSH1 0x3 SLOAD DUP2 GT ISZERO PUSH2 0x136A JUMPI PUSH1 0x3 SLOAD SWAP2 POP PUSH2 0x136E JUMP JUMPDEST DUP1 SWAP2 POP JUMPDEST POP SWAP1 JUMP JUMPDEST PUSH1 0x4 SLOAD DUP2 JUMP JUMPDEST PUSH1 0xE PUSH1 0x16 SWAP1 SLOAD SWAP1 PUSH2 0x100 EXP SWAP1 DIV PUSH1 0xFF AND DUP2 JUMP JUMPDEST PUSH32 0x436F6E7472616374526567697374727900000000000000000000000000000000 DUP2 JUMP JUMPDEST PUSH1 0x12 PUSH1 0x20 MSTORE DUP1 PUSH1 0x0 MSTORE PUSH1 0x40 PUSH1 0x0 KECCAK256 PUSH1 0x0 SWAP2 POP SLOAD SWAP1 PUSH2 0x100 EXP SWAP1 DIV PUSH1 0xFF AND DUP2 JUMP JUMPDEST PUSH1 0x0 PUSH1 0xE PUSH1 0x14 SWAP1 SLOAD SWAP1 PUSH2 0x100 EXP SWAP1 DIV PUSH1 0xFF AND ISZERO ISZERO PUSH2 0x13EC JUMPI PUSH1 0x0 DUP1 REVERT JUMPDEST PUSH2 0x13F4 PUSH2 0x128C JUMP JUMPDEST SWAP1 POP PUSH1 0x4 SLOAD DUP4 LT ISZERO DUP1 ISZERO PUSH2 0x1408 JUMPI POP DUP1 DUP4 GT ISZERO JUMPDEST ISZERO ISZERO PUSH2 0x1413 JUMPI PUSH1 0x0 DUP1 REVERT JUMPDEST PUSH2 0x141C DUP4 PUSH2 0x2BEE JUMP JUMPDEST PUSH2 0x142F DUP4 DUP3 PUSH2 0x2B73 SWAP1 SWAP2 SWAP1 PUSH4 0xFFFFFFFF AND JUMP JUMPDEST PUSH1 0x5 DUP2 SWAP1 SSTORE POP NUMBER PUSH1 0x8 DUP2 SWAP1 SSTORE POP DUP4 PUSH1 0x0 NOT AND CALLER PUSH20 0xFFFFFFFFFFFFFFFFFFFFFFFFFFFFFFFFFFFFFFFF AND PUSH32 0x4780F3EDC9124597EDE658E04ED3D8887B58C86943B2A805DC961CF512570B62 DUP8 DUP7 DUP7 PUSH1 0x40 MLOAD DUP1 DUP5 PUSH1 0x0 NOT AND PUSH1 0x0 NOT AND DUP2 MSTORE PUSH1 0x20 ADD DUP4 DUP2 MSTORE PUSH1 0x20 ADD DUP3 DUP2 MSTORE PUSH1 0x20 ADD SWAP4 POP POP POP POP PUSH1 0x40 MLOAD DUP1 SWAP2 SUB SWAP1 LOG3 POP POP POP POP POP JUMP JUMPDEST PUSH1 0x0 PUSH1 0xE PUSH1 0x14 SWAP1 SLOAD SWAP1 PUSH2 0x100 EXP SWAP1 DIV PUSH1 0xFF AND ISZERO ISZERO PUSH2 0x14CB JUMPI PUSH1 0x0 DUP1 REVERT JUMPDEST PUSH2 0x14D3 PUSH2 0x128C JUMP JUMPDEST SWAP1 POP PUSH1 0x4 SLOAD DUP3 LT ISZERO DUP1 ISZERO PUSH2 0x14E7 JUMPI POP DUP1 DUP3 GT ISZERO JUMPDEST ISZERO ISZERO PUSH2 0x14F2 JUMPI PUSH1 0x0 DUP1 REVERT JUMPDEST PUSH2 0x14FB DUP3 PUSH2 0x2BEE JUMP JUMPDEST PUSH2 0x150E DUP3 DUP3 PUSH2 0x2B73 SWAP1 SWAP2 SWAP1 PUSH4 0xFFFFFFFF AND JUMP JUMPDEST PUSH1 0x5 DUP2 SWAP1 SSTORE POP NUMBER PUSH1 0x8 DUP2 SWAP1 SSTORE POP DUP3 PUSH1 0x0 NOT AND CALLER PUSH20 0xFFFFFFFFFFFFFFFFFFFFFFFFFFFFFFFFFFFFFFFF AND PUSH32 0x4780F3EDC9124597EDE658E04ED3D8887B58C86943B2A805DC961CF512570B62 DUP7 DUP6 PUSH1 0x0 PUSH1 0x40 MLOAD DUP1 DUP5 PUSH1 0x0 NOT AND PUSH1 0x0 NOT AND DUP2 MSTORE PUSH1 0x20 ADD DUP4 DUP2 MSTORE PUSH1 0x20 ADD DUP3 DUP2 MSTORE PUSH1 0x20 ADD SWAP4 POP POP POP POP PUSH1 0x40 MLOAD DUP1 SWAP2 SUB SWAP1 LOG3 POP POP POP POP JUMP JUMPDEST PUSH1 0x0 PUSH1 0xE PUSH1 0x16 SWAP1 SLOAD SWAP1 PUSH2 0x100 EXP SWAP1 DIV PUSH1 0xFF AND DUP1 PUSH2 0x15F6 JUMPI POP PUSH1 0x0 DUP1 SWAP1 SLOAD SWAP1 PUSH2 0x100 EXP SWAP1 DIV PUSH20 0xFFFFFFFFFFFFFFFFFFFFFFFFFFFFFFFFFFFFFFFF AND PUSH20 0xFFFFFFFFFFFFFFFFFFFFFFFFFFFFFFFFFFFFFFFF AND CALLER PUSH20 0xFFFFFFFFFFFFFFFFFFFFFFFFFFFFFFFFFFFFFFFF AND EQ JUMPDEST ISZERO ISZERO PUSH2 0x1601 JUMPI PUSH1 0x0 DUP1 REVERT JUMPDEST PUSH1 0xB PUSH1 0x0 SWAP1 SLOAD SWAP1 PUSH2 0x100 EXP SWAP1 DIV PUSH20 0xFFFFFFFFFFFFFFFFFFFFFFFFFFFFFFFFFFFFFFFF AND PUSH20 0xFFFFFFFFFFFFFFFFFFFFFFFFFFFFFFFFFFFFFFFF AND PUSH4 0xBB34534C PUSH32 0x436F6E7472616374526567697374727900000000000000000000000000000000 PUSH1 0x40 MLOAD DUP3 PUSH4 0xFFFFFFFF AND PUSH29 0x100000000000000000000000000000000000000000000000000000000 MUL DUP2 MSTORE PUSH1 0x4 ADD DUP1 DUP3 PUSH1 0x0 NOT AND PUSH1 0x0 NOT AND DUP2 MSTORE PUSH1 0x20 ADD SWAP2 POP POP PUSH1 0x20 PUSH1 0x40 MLOAD DUP1 DUP4 SUB DUP2 PUSH1 0x0 DUP8 DUP1 EXTCODESIZE ISZERO DUP1 ISZERO PUSH2 0x16BA JUMPI PUSH1 0x0 DUP1 REVERT JUMPDEST POP GAS CALL ISZERO DUP1 ISZERO PUSH2 0x16CE JUMPI RETURNDATASIZE PUSH1 0x0 DUP1 RETURNDATACOPY RETURNDATASIZE PUSH1 0x0 REVERT JUMPDEST POP POP POP POP PUSH1 0x40 MLOAD RETURNDATASIZE PUSH1 0x20 DUP2 LT ISZERO PUSH2 0x16E4 JUMPI PUSH1 0x0 DUP1 REVERT JUMPDEST DUP2 ADD SWAP1 DUP1 DUP1 MLOAD SWAP1 PUSH1 0x20 ADD SWAP1 SWAP3 SWAP2 SWAP1 POP POP POP SWAP1 POP PUSH1 0xB PUSH1 0x0 SWAP1 SLOAD SWAP1 PUSH2 0x100 EXP SWAP1 DIV PUSH20 0xFFFFFFFFFFFFFFFFFFFFFFFFFFFFFFFFFFFFFFFF AND PUSH20 0xFFFFFFFFFFFFFFFFFFFFFFFFFFFFFFFFFFFFFFFF AND DUP2 PUSH20 0xFFFFFFFFFFFFFFFFFFFFFFFFFFFFFFFFFFFFFFFF AND EQ ISZERO DUP1 ISZERO PUSH2 0x1782 JUMPI POP PUSH1 0x0 PUSH20 0xFFFFFFFFFFFFFFFFFFFFFFFFFFFFFFFFFFFFFFFF AND DUP2 PUSH20 0xFFFFFFFFFFFFFFFFFFFFFFFFFFFFFFFFFFFFFFFF AND EQ ISZERO JUMPDEST ISZERO ISZERO PUSH2 0x178D JUMPI PUSH1 0x0 DUP1 REVERT JUMPDEST PUSH1 0xB PUSH1 0x0 SWAP1 SLOAD SWAP1 PUSH2 0x100 EXP SWAP1 DIV PUSH20 0xFFFFFFFFFFFFFFFFFFFFFFFFFFFFFFFFFFFFFFFF AND PUSH1 0xC PUSH1 0x0 PUSH2 0x100 EXP DUP2 SLOAD DUP2 PUSH20 0xFFFFFFFFFFFFFFFFFFFFFFFFFFFFFFFFFFFFFFFF MUL NOT AND SWAP1 DUP4 PUSH20 0xFFFFFFFFFFFFFFFFFFFFFFFFFFFFFFFFFFFFFFFF AND MUL OR SWAP1 SSTORE POP DUP1 PUSH1 0xB PUSH1 0x0 PUSH2 0x100 EXP DUP2 SLOAD DUP2 PUSH20 0xFFFFFFFFFFFFFFFFFFFFFFFFFFFFFFFFFFFFFFFF MUL NOT AND SWAP1 DUP4 PUSH20 0xFFFFFFFFFFFFFFFFFFFFFFFFFFFFFFFFFFFFFFFF AND MUL OR SWAP1 SSTORE POP POP JUMP JUMPDEST PUSH1 0x0 DUP1 SWAP1 SLOAD SWAP1 PUSH2 0x100 EXP SWAP1 DIV PUSH20 0xFFFFFFFFFFFFFFFFFFFFFFFFFFFFFFFFFFFFFFFF AND PUSH20 0xFFFFFFFFFFFFFFFFFFFFFFFFFFFFFFFFFFFFFFFF AND CALLER PUSH20 0xFFFFFFFFFFFFFFFFFFFFFFFFFFFFFFFFFFFFFFFF AND EQ ISZERO ISZERO PUSH2 0x188F JUMPI PUSH1 0x0 DUP1 REVERT JUMPDEST PUSH1 0xB PUSH1 0x0 SWAP1 SLOAD SWAP1 PUSH2 0x100 EXP SWAP1 DIV PUSH20 0xFFFFFFFFFFFFFFFFFFFFFFFFFFFFFFFFFFFFFFFF AND PUSH20 0xFFFFFFFFFFFFFFFFFFFFFFFFFFFFFFFFFFFFFFFF AND PUSH4 0xBB34534C PUSH32 0x424E54436F6E7665727465720000000000000000000000000000000000000000 PUSH1 0x40 MLOAD DUP3 PUSH4 0xFFFFFFFF AND PUSH29 0x100000000000000000000000000000000000000000000000000000000 MUL DUP2 MSTORE PUSH1 0x4 ADD DUP1 DUP3 PUSH1 0x0 NOT AND PUSH1 0x0 NOT AND DUP2 MSTORE PUSH1 0x20 ADD SWAP2 POP POP PUSH1 0x20 PUSH1 0x40 MLOAD DUP1 DUP4 SUB DUP2 PUSH1 0x0 DUP8 DUP1 EXTCODESIZE ISZERO DUP1 ISZERO PUSH2 0x1948 JUMPI PUSH1 0x0 DUP1 REVERT JUMPDEST POP GAS CALL ISZERO DUP1 ISZERO PUSH2 0x195C JUMPI RETURNDATASIZE PUSH1 0x0 DUP1 RETURNDATACOPY RETURNDATASIZE PUSH1 0x0 REVERT JUMPDEST POP POP POP POP PUSH1 0x40 MLOAD RETURNDATASIZE PUSH1 0x20 DUP2 LT ISZERO PUSH2 0x1972 JUMPI PUSH1 0x0 DUP1 REVERT JUMPDEST DUP2 ADD SWAP1 DUP1 DUP1 MLOAD SWAP1 PUSH1 0x20 ADD SWAP1 SWAP3 SWAP2 SWAP1 POP POP POP PUSH1 0xD PUSH1 0x0 PUSH2 0x100 EXP DUP2 SLOAD DUP2 PUSH20 0xFFFFFFFFFFFFFFFFFFFFFFFFFFFFFFFFFFFFFFFF MUL NOT AND SWAP1 DUP4 PUSH20 0xFFFFFFFFFFFFFFFFFFFFFFFFFFFFFFFFFFFFFFFF AND MUL OR SWAP1 SSTORE POP JUMP JUMPDEST PUSH1 0x9 SLOAD DUP2 JUMP JUMPDEST PUSH1 0x3 SLOAD DUP2 JUMP JUMPDEST PUSH1 0x1 PUSH1 0x14 SWAP1 SLOAD SWAP1 PUSH2 0x100 EXP SWAP1 DIV PUSH2 0xFFFF AND DUP2 JUMP JUMPDEST PUSH32 0x42616E636F72436F6E766572746572466163746F727900000000000000000000 DUP2 JUMP JUMPDEST PUSH1 0x0 DUP1 SWAP1 SLOAD SWAP1 PUSH2 0x100 EXP SWAP1 DIV PUSH20 0xFFFFFFFFFFFFFFFFFFFFFFFFFFFFFFFFFFFFFFFF AND PUSH20 0xFFFFFFFFFFFFFFFFFFFFFFFFFFFFFFFFFFFFFFFF AND CALLER PUSH20 0xFFFFFFFFFFFFFFFFFFFFFFFFFFFFFFFFFFFFFFFF AND EQ ISZERO ISZERO PUSH2 0x1A64 JUMPI PUSH1 0x0 DUP1 REVERT JUMPDEST DUP3 PUSH1 0x0 PUSH20 0xFFFFFFFFFFFFFFFFFFFFFFFFFFFFFFFFFFFFFFFF AND DUP2 PUSH20 0xFFFFFFFFFFFFFFFFFFFFFFFFFFFFFFFFFFFFFFFF AND EQ ISZERO ISZERO ISZERO PUSH2 0x1AA1 JUMPI PUSH1 0x0 DUP1 REVERT JUMPDEST DUP3 PUSH1 0x0 PUSH20 0xFFFFFFFFFFFFFFFFFFFFFFFFFFFFFFFFFFFFFFFF AND DUP2 PUSH20 0xFFFFFFFFFFFFFFFFFFFFFFFFFFFFFFFFFFFFFFFF AND EQ ISZERO ISZERO ISZERO PUSH2 0x1ADE JUMPI PUSH1 0x0 DUP1 REVERT JUMPDEST DUP4 ADDRESS PUSH20 0xFFFFFFFFFFFFFFFFFFFFFFFFFFFFFFFFFFFFFFFF AND DUP2 PUSH20 0xFFFFFFFFFFFFFFFFFFFFFFFFFFFFFFFFFFFFFFFF AND EQ ISZERO ISZERO ISZERO PUSH2 0x1B1A JUMPI PUSH1 0x0 DUP1 REVERT JUMPDEST DUP6 PUSH20 0xFFFFFFFFFFFFFFFFFFFFFFFFFFFFFFFFFFFFFFFF AND PUSH4 0xA9059CBB DUP7 DUP7 PUSH1 0x40 MLOAD DUP4 PUSH4 0xFFFFFFFF AND PUSH29 0x100000000000000000000000000000000000000000000000000000000 MUL DUP2 MSTORE PUSH1 0x4 ADD DUP1 DUP4 PUSH20 0xFFFFFFFFFFFFFFFFFFFFFFFFFFFFFFFFFFFFFFFF AND PUSH20 0xFFFFFFFFFFFFFFFFFFFFFFFFFFFFFFFFFFFFFFFF AND DUP2 MSTORE PUSH1 0x20 ADD DUP3 DUP2 MSTORE PUSH1 0x20 ADD SWAP3 POP POP POP PUSH1 0x0 PUSH1 0x40 MLOAD DUP1 DUP4 SUB DUP2 PUSH1 0x0 DUP8 DUP1 EXTCODESIZE ISZERO DUP1 ISZERO PUSH2 0x1BBD JUMPI PUSH1 0x0 DUP1 REVERT JUMPDEST POP GAS CALL ISZERO DUP1 ISZERO PUSH2 0x1BD1 JUMPI RETURNDATASIZE PUSH1 0x0 DUP1 RETURNDATACOPY RETURNDATASIZE PUSH1 0x0 REVERT JUMPDEST POP POP POP POP POP POP POP POP POP POP JUMP JUMPDEST PUSH1 0xC PUSH1 0x0 SWAP1 SLOAD SWAP1 PUSH2 0x100 EXP SWAP1 DIV PUSH20 0xFFFFFFFFFFFFFFFFFFFFFFFFFFFFFFFFFFFFFFFF AND DUP2 JUMP JUMPDEST PUSH32 0x424E54436F6E7665727465720000000000000000000000000000000000000000 DUP2 JUMP JUMPDEST PUSH32 0x42616E636F72466F726D756C6100000000000000000000000000000000000000 DUP2 JUMP JUMPDEST PUSH1 0x0 PUSH1 0x12 PUSH1 0x0 CALLER PUSH20 0xFFFFFFFFFFFFFFFFFFFFFFFFFFFFFFFFFFFFFFFF AND PUSH20 0xFFFFFFFFFFFFFFFFFFFFFFFFFFFFFFFFFFFFFFFF AND DUP2 MSTORE PUSH1 0x20 ADD SWAP1 DUP2 MSTORE PUSH1 0x20 ADD PUSH1 0x0 KECCAK256 PUSH1 0x0 SWAP1 SLOAD SWAP1 PUSH2 0x100 EXP SWAP1 DIV PUSH1 0xFF AND ISZERO ISZERO PUSH2 0x1CA5 JUMPI PUSH1 0x0 DUP1 REVERT JUMPDEST PUSH1 0xE PUSH1 0x15 SWAP1 SLOAD SWAP1 PUSH2 0x100 EXP SWAP1 DIV PUSH1 0xFF AND ISZERO ISZERO PUSH2 0x1CC0 JUMPI PUSH1 0x0 DUP1 REVERT JUMPDEST PUSH1 0x11 PUSH1 0x0 DUP7 DUP2 MSTORE PUSH1 0x20 ADD SWAP1 DUP2 MSTORE PUSH1 0x20 ADD PUSH1 0x0 KECCAK256 PUSH1 0x0 CALLER PUSH20 0xFFFFFFFFFFFFFFFFFFFFFFFFFFFFFFFFFFFFFFFF AND PUSH20 0xFFFFFFFFFFFFFFFFFFFFFFFFFFFFFFFFFFFFFFFF AND DUP2 MSTORE PUSH1 0x20 ADD SWAP1 DUP2 MSTORE PUSH1 0x20 ADD PUSH1 0x0 KECCAK256 PUSH1 0x0 SWAP1 SLOAD SWAP1 PUSH2 0x100 EXP SWAP1 DIV PUSH1 0xFF AND ISZERO ISZERO ISZERO PUSH2 0x1D2A JUMPI PUSH1 0x0 DUP1 REVERT JUMPDEST PUSH1 0x1 PUSH1 0x11 PUSH1 0x0 DUP8 DUP2 MSTORE PUSH1 0x20 ADD SWAP1 DUP2 MSTORE PUSH1 0x20 ADD PUSH1 0x0 KECCAK256 PUSH1 0x0 CALLER PUSH20 0xFFFFFFFFFFFFFFFFFFFFFFFFFFFFFFFFFFFFFFFF AND PUSH20 0xFFFFFFFFFFFFFFFFFFFFFFFFFFFFFFFFFFFFFFFF AND DUP2 MSTORE PUSH1 0x20 ADD SWAP1 DUP2 MSTORE PUSH1 0x20 ADD PUSH1 0x0 KECCAK256 PUSH1 0x0 PUSH2 0x100 EXP DUP2 SLOAD DUP2 PUSH1 0xFF MUL NOT AND SWAP1 DUP4 ISZERO ISZERO MUL OR SWAP1 SSTORE POP PUSH1 0xF PUSH1 0x0 DUP7 DUP2 MSTORE PUSH1 0x20 ADD SWAP1 DUP2 MSTORE PUSH1 0x20 ADD PUSH1 0x0 KECCAK256 SWAP1 POP PUSH1 0x0 DUP2 PUSH1 0x2 ADD PUSH1 0x14 SWAP1 SLOAD SWAP1 PUSH2 0x100 EXP SWAP1 DIV PUSH1 0xFF AND PUSH1 0xFF AND EQ ISZERO PUSH2 0x1E68 JUMPI DUP4 DUP2 PUSH1 0x2 ADD PUSH1 0x0 PUSH2 0x100 EXP DUP2 SLOAD DUP2 PUSH20 0xFFFFFFFFFFFFFFFFFFFFFFFFFFFFFFFFFFFFFFFF MUL NOT AND SWAP1 DUP4 PUSH20 0xFFFFFFFFFFFFFFFFFFFFFFFFFFFFFFFFFFFFFFFF AND MUL OR SWAP1 SSTORE POP DUP3 DUP2 PUSH1 0x0 ADD DUP2 SWAP1 SSTORE POP DUP6 DUP2 PUSH1 0x1 ADD DUP2 PUSH1 0x0 NOT AND SWAP1 SSTORE POP PUSH1 0x0 DUP3 EQ ISZERO ISZERO PUSH2 0x1E63 JUMPI PUSH1 0x0 PUSH1 0x10 PUSH1 0x0 DUP5 DUP2 MSTORE PUSH1 0x20 ADD SWAP1 DUP2 MSTORE PUSH1 0x20 ADD PUSH1 0x0 KECCAK256 SLOAD EQ ISZERO ISZERO PUSH2 0x1E4A JUMPI PUSH1 0x0 DUP1 REVERT JUMPDEST DUP5 PUSH1 0x10 PUSH1 0x0 DUP5 DUP2 MSTORE PUSH1 0x20 ADD SWAP1 DUP2 MSTORE PUSH1 0x20 ADD PUSH1 0x0 KECCAK256 DUP2 SWAP1 SSTORE POP JUMPDEST PUSH2 0x1F19 JUMP JUMPDEST DUP4 PUSH20 0xFFFFFFFFFFFFFFFFFFFFFFFFFFFFFFFFFFFFFFFF AND DUP2 PUSH1 0x2 ADD PUSH1 0x0 SWAP1 SLOAD SWAP1 PUSH2 0x100 EXP SWAP1 DIV PUSH20 0xFFFFFFFFFFFFFFFFFFFFFFFFFFFFFFFFFFFFFFFF AND PUSH20 0xFFFFFFFFFFFFFFFFFFFFFFFFFFFFFFFFFFFFFFFF AND EQ DUP1 ISZERO PUSH2 0x1ECA JUMPI POP DUP3 DUP2 PUSH1 0x0 ADD SLOAD EQ JUMPDEST DUP1 ISZERO PUSH2 0x1EE1 JUMPI POP DUP6 PUSH1 0x0 NOT AND DUP2 PUSH1 0x1 ADD SLOAD PUSH1 0x0 NOT AND EQ JUMPDEST ISZERO ISZERO PUSH2 0x1EEC JUMPI PUSH1 0x0 DUP1 REVERT JUMPDEST PUSH1 0x0 DUP3 EQ ISZERO ISZERO PUSH2 0x1F18 JUMPI DUP5 PUSH1 0x10 PUSH1 0x0 DUP5 DUP2 MSTORE PUSH1 0x20 ADD SWAP1 DUP2 MSTORE PUSH1 0x20 ADD PUSH1 0x0 KECCAK256 SLOAD EQ ISZERO ISZERO PUSH2 0x1F17 JUMPI PUSH1 0x0 DUP1 REVERT JUMPDEST JUMPDEST JUMPDEST DUP1 PUSH1 0x2 ADD PUSH1 0x14 DUP2 DUP2 SWAP1 SLOAD SWAP1 PUSH2 0x100 EXP SWAP1 DIV PUSH1 0xFF AND DUP1 SWAP3 SWAP2 SWAP1 PUSH1 0x1 ADD SWAP2 SWAP1 PUSH2 0x100 EXP DUP2 SLOAD DUP2 PUSH1 0xFF MUL NOT AND SWAP1 DUP4 PUSH1 0xFF AND MUL OR SWAP1 SSTORE POP POP CALLER PUSH20 0xFFFFFFFFFFFFFFFFFFFFFFFFFFFFFFFFFFFFFFFF AND PUSH32 0x5E77831E701760F7F4A1E61A8E9834D773B52C45D91BA9006B7D2AFB7A144739 DUP8 DUP8 DUP8 DUP8 DUP8 PUSH1 0x40 MLOAD DUP1 DUP7 PUSH1 0x0 NOT AND PUSH1 0x0 NOT AND DUP2 MSTORE PUSH1 0x20 ADD DUP6 DUP2 MSTORE PUSH1 0x20 ADD DUP5 PUSH20 0xFFFFFFFFFFFFFFFFFFFFFFFFFFFFFFFFFFFFFFFF AND PUSH20 0xFFFFFFFFFFFFFFFFFFFFFFFFFFFFFFFFFFFFFFFF AND DUP2 MSTORE PUSH1 0x20 ADD DUP4 DUP2 MSTORE PUSH1 0x20 ADD DUP3 DUP2 MSTORE PUSH1 0x20 ADD SWAP6 POP POP POP POP POP POP PUSH1 0x40 MLOAD DUP1 SWAP2 SUB SWAP1 LOG2 PUSH1 0xA SLOAD DUP2 PUSH1 0x2 ADD PUSH1 0x14 SWAP1 SLOAD SWAP1 PUSH2 0x100 EXP SWAP1 DIV PUSH1 0xFF AND PUSH1 0xFF AND LT ISZERO ISZERO PUSH2 0x20E3 JUMPI PUSH1 0xF PUSH1 0x0 DUP7 DUP2 MSTORE PUSH1 0x20 ADD SWAP1 DUP2 MSTORE PUSH1 0x20 ADD PUSH1 0x0 KECCAK256 PUSH1 0x2 ADD PUSH1 0x15 SWAP1 SLOAD SWAP1 PUSH2 0x100 EXP SWAP1 DIV PUSH1 0xFF AND ISZERO ISZERO ISZERO PUSH2 0x203E JUMPI PUSH1 0x0 DUP1 REVERT JUMPDEST PUSH1 0x1 PUSH1 0xF PUSH1 0x0 DUP8 DUP2 MSTORE PUSH1 0x20 ADD SWAP1 DUP2 MSTORE PUSH1 0x20 ADD PUSH1 0x0 KECCAK256 PUSH1 0x2 ADD PUSH1 0x15 PUSH2 0x100 EXP DUP2 SLOAD DUP2 PUSH1 0xFF MUL NOT AND SWAP1 DUP4 ISZERO ISZERO MUL OR SWAP1 SSTORE POP PUSH32 0xD87906B7FCE534FC5E6DDE30064E777D92D0AAF3A28C72315DE8EF2E4134DFEF DUP5 DUP4 PUSH1 0x40 MLOAD DUP1 DUP4 PUSH20 0xFFFFFFFFFFFFFFFFFFFFFFFFFFFFFFFFFFFFFFFF AND PUSH20 0xFFFFFFFFFFFFFFFFFFFFFFFFFFFFFFFFFFFFFFFF AND DUP2 MSTORE PUSH1 0x20 ADD DUP3 DUP2 MSTORE PUSH1 0x20 ADD SWAP3 POP POP POP PUSH1 0x40 MLOAD DUP1 SWAP2 SUB SWAP1 LOG1 PUSH2 0x20E2 DUP5 DUP5 PUSH2 0x2D1C JUMP JUMPDEST JUMPDEST POP POP POP POP POP POP JUMP JUMPDEST PUSH1 0x0 DUP1 SWAP1 SLOAD SWAP1 PUSH2 0x100 EXP SWAP1 DIV PUSH20 0xFFFFFFFFFFFFFFFFFFFFFFFFFFFFFFFFFFFFFFFF AND PUSH20 0xFFFFFFFFFFFFFFFFFFFFFFFFFFFFFFFFFFFFFFFF AND CALLER PUSH20 0xFFFFFFFFFFFFFFFFFFFFFFFFFFFFFFFFFFFFFFFF AND EQ ISZERO ISZERO PUSH2 0x2146 JUMPI PUSH1 0x0 DUP1 REVERT JUMPDEST DUP1 PUSH1 0x4 DUP2 SWAP1 SSTORE POP POP JUMP JUMPDEST PUSH1 0x7 SLOAD DUP2 JUMP JUMPDEST PUSH1 0x1 PUSH1 0x0 SWAP1 SLOAD SWAP1 PUSH2 0x100 EXP SWAP1 DIV PUSH20 0xFFFFFFFFFFFFFFFFFFFFFFFFFFFFFFFFFFFFFFFF AND PUSH20 0xFFFFFFFFFFFFFFFFFFFFFFFFFFFFFFFFFFFFFFFF AND CALLER PUSH20 0xFFFFFFFFFFFFFFFFFFFFFFFFFFFFFFFFFFFFFFFF AND EQ ISZERO ISZERO PUSH2 0x21B2 JUMPI PUSH1 0x0 DUP1 REVERT JUMPDEST PUSH1 0x1 PUSH1 0x0 SWAP1 SLOAD SWAP1 PUSH2 0x100 EXP SWAP1 DIV PUSH20 0xFFFFFFFFFFFFFFFFFFFFFFFFFFFFFFFFFFFFFFFF AND PUSH20 0xFFFFFFFFFFFFFFFFFFFFFFFFFFFFFFFFFFFFFFFF AND PUSH1 0x0 DUP1 SWAP1 SLOAD SWAP1 PUSH2 0x100 EXP SWAP1 DIV PUSH20 0xFFFFFFFFFFFFFFFFFFFFFFFFFFFFFFFFFFFFFFFF AND PUSH20 0xFFFFFFFFFFFFFFFFFFFFFFFFFFFFFFFFFFFFFFFF AND PUSH32 0x343765429AEA5A34B3FF6A3785A98A5ABB2597ACA87BFBB58632C173D585373A PUSH1 0x40 MLOAD PUSH1 0x40 MLOAD DUP1 SWAP2 SUB SWAP1 LOG3 PUSH1 0x1 PUSH1 0x0 SWAP1 SLOAD SWAP1 PUSH2 0x100 EXP SWAP1 DIV PUSH20 0xFFFFFFFFFFFFFFFFFFFFFFFFFFFFFFFFFFFFFFFF AND PUSH1 0x0 DUP1 PUSH2 0x100 EXP DUP2 SLOAD DUP2 PUSH20 0xFFFFFFFFFFFFFFFFFFFFFFFFFFFFFFFFFFFFFFFF MUL NOT AND SWAP1 DUP4 PUSH20 0xFFFFFFFFFFFFFFFFFFFFFFFFFFFFFFFFFFFFFFFF AND MUL OR SWAP1 SSTORE POP PUSH1 0x0 PUSH1 0x1 PUSH1 0x0 PUSH2 0x100 EXP DUP2 SLOAD DUP2 PUSH20 0xFFFFFFFFFFFFFFFFFFFFFFFFFFFFFFFFFFFFFFFF MUL NOT AND SWAP1 DUP4 PUSH20 0xFFFFFFFFFFFFFFFFFFFFFFFFFFFFFFFFFFFFFFFF AND MUL OR SWAP1 SSTORE POP JUMP JUMPDEST PUSH1 0xB PUSH1 0x0 SWAP1 SLOAD SWAP1 PUSH2 0x100 EXP SWAP1 DIV PUSH20 0xFFFFFFFFFFFFFFFFFFFFFFFFFFFFFFFFFFFFFFFF AND DUP2 JUMP JUMPDEST PUSH32 0x436F6E7472616374466561747572657300000000000000000000000000000000 DUP2 JUMP JUMPDEST PUSH1 0x11 PUSH1 0x20 MSTORE DUP2 PUSH1 0x0 MSTORE PUSH1 0x40 PUSH1 0x0 KECCAK256 PUSH1 0x20 MSTORE DUP1 PUSH1 0x0 MSTORE PUSH1 0x40 PUSH1 0x0 KECCAK256 PUSH1 0x0 SWAP2 POP SWAP2 POP SWAP1 SLOAD SWAP1 PUSH2 0x100 EXP SWAP1 DIV PUSH1 0xFF AND DUP2 JUMP JUMPDEST PUSH1 0x0 DUP1 SWAP1 SLOAD SWAP1 PUSH2 0x100 EXP SWAP1 DIV PUSH20 0xFFFFFFFFFFFFFFFFFFFFFFFFFFFFFFFFFFFFFFFF AND DUP2 JUMP JUMPDEST PUSH32 0x42616E636F724E6574776F726B00000000000000000000000000000000000000 DUP2 JUMP JUMPDEST PUSH32 0x42616E636F7247617350726963654C696D697400000000000000000000000000 DUP2 JUMP JUMPDEST PUSH1 0xE PUSH1 0x15 SWAP1 SLOAD SWAP1 PUSH2 0x100 EXP SWAP1 DIV PUSH1 0xFF AND DUP2 JUMP JUMPDEST PUSH1 0xF PUSH1 0x20 MSTORE DUP1 PUSH1 0x0 MSTORE PUSH1 0x40 PUSH1 0x0 KECCAK256 PUSH1 0x0 SWAP2 POP SWAP1 POP DUP1 PUSH1 0x0 ADD SLOAD SWAP1 DUP1 PUSH1 0x1 ADD SLOAD SWAP1 DUP1 PUSH1 0x2 ADD PUSH1 0x0 SWAP1 SLOAD SWAP1 PUSH2 0x100 EXP SWAP1 DIV PUSH20 0xFFFFFFFFFFFFFFFFFFFFFFFFFFFFFFFFFFFFFFFF AND SWAP1 DUP1 PUSH1 0x2 ADD PUSH1 0x14 SWAP1 SLOAD SWAP1 PUSH2 0x100 EXP SWAP1 DIV PUSH1 0xFF AND SWAP1 DUP1 PUSH1 0x2 ADD PUSH1 0x15 SWAP1 SLOAD SWAP1 PUSH2 0x100 EXP SWAP1 DIV PUSH1 0xFF AND SWAP1 POP DUP6 JUMP JUMPDEST PUSH1 0x0 DUP1 SWAP1 SLOAD SWAP1 PUSH2 0x100 EXP SWAP1 DIV PUSH20 0xFFFFFFFFFFFFFFFFFFFFFFFFFFFFFFFFFFFFFFFF AND PUSH20 0xFFFFFFFFFFFFFFFFFFFFFFFFFFFFFFFFFFFFFFFF AND CALLER PUSH20 0xFFFFFFFFFFFFFFFFFFFFFFFFFFFFFFFFFFFFFFFF AND EQ ISZERO ISZERO PUSH2 0x24B9 JUMPI PUSH1 0x0 DUP1 REVERT JUMPDEST DUP1 PUSH1 0x7 DUP2 SWAP1 SSTORE POP POP JUMP JUMPDEST PUSH1 0x0 DUP1 SWAP1 SLOAD SWAP1 PUSH2 0x100 EXP SWAP1 DIV PUSH20 0xFFFFFFFFFFFFFFFFFFFFFFFFFFFFFFFFFFFFFFFF AND PUSH20 0xFFFFFFFFFFFFFFFFFFFFFFFFFFFFFFFFFFFFFFFF AND CALLER PUSH20 0xFFFFFFFFFFFFFFFFFFFFFFFFFFFFFFFFFFFFFFFF AND EQ ISZERO ISZERO PUSH2 0x251E JUMPI PUSH1 0x0 DUP1 REVERT JUMPDEST DUP1 PUSH1 0xE PUSH1 0x14 PUSH2 0x100 EXP DUP2 SLOAD DUP2 PUSH1 0xFF MUL NOT AND SWAP1 DUP4 ISZERO ISZERO MUL OR SWAP1 SSTORE POP POP JUMP JUMPDEST PUSH1 0x2 SLOAD DUP2 JUMP JUMPDEST PUSH1 0x0 DUP1 PUSH1 0xF PUSH1 0x0 PUSH1 0x10 PUSH1 0x0 DUP8 DUP2 MSTORE PUSH1 0x20 ADD SWAP1 DUP2 MSTORE PUSH1 0x20 ADD PUSH1 0x0 KECCAK256 SLOAD DUP2 MSTORE PUSH1 0x20 ADD SWAP1 DUP2 MSTORE PUSH1 0x20 ADD PUSH1 0x0 KECCAK256 SWAP1 POP DUP3 PUSH20 0xFFFFFFFFFFFFFFFFFFFFFFFFFFFFFFFFFFFFFFFF AND DUP2 PUSH1 0x2 ADD PUSH1 0x0 SWAP1 SLOAD SWAP1 PUSH2 0x100 EXP SWAP1 DIV PUSH20 0xFFFFFFFFFFFFFFFFFFFFFFFFFFFFFFFFFFFFFFFF AND PUSH20 0xFFFFFFFFFFFFFFFFFFFFFFFFFFFFFFFFFFFFFFFF AND EQ ISZERO ISZERO PUSH2 0x25CA JUMPI PUSH1 0x0 DUP1 REVERT JUMPDEST DUP1 PUSH1 0x0 ADD SLOAD SWAP2 POP POP SWAP3 SWAP2 POP POP JUMP JUMPDEST PUSH1 0x0 DUP1 SWAP1 SLOAD SWAP1 PUSH2 0x100 EXP SWAP1 DIV PUSH20 0xFFFFFFFFFFFFFFFFFFFFFFFFFFFFFFFFFFFFFFFF AND PUSH20 0xFFFFFFFFFFFFFFFFFFFFFFFFFFFFFFFFFFFFFFFF AND CALLER PUSH20 0xFFFFFFFFFFFFFFFFFFFFFFFFFFFFFFFFFFFFFFFF AND EQ ISZERO ISZERO PUSH2 0x2633 JUMPI PUSH1 0x0 DUP1 REVERT JUMPDEST DUP1 PUSH1 0x2 DUP2 SWAP1 SSTORE POP POP JUMP JUMPDEST PUSH1 0xE PUSH1 0x0 SWAP1 SLOAD SWAP1 PUSH2 0x100 EXP SWAP1 DIV PUSH20 0xFFFFFFFFFFFFFFFFFFFFFFFFFFFFFFFFFFFFFFFF AND DUP2 JUMP JUMPDEST PUSH1 0x0 DUP1 SWAP1 SLOAD SWAP1 PUSH2 0x100 EXP SWAP1 DIV PUSH20 0xFFFFFFFFFFFFFFFFFFFFFFFFFFFFFFFFFFFFFFFF AND PUSH20 0xFFFFFFFFFFFFFFFFFFFFFFFFFFFFFFFFFFFFFFFF AND CALLER PUSH20 0xFFFFFFFFFFFFFFFFFFFFFFFFFFFFFFFFFFFFFFFF AND EQ ISZERO ISZERO PUSH2 0x26BE JUMPI PUSH1 0x0 DUP1 REVERT JUMPDEST PUSH1 0xC PUSH1 0x0 SWAP1 SLOAD SWAP1 PUSH2 0x100 EXP SWAP1 DIV PUSH20 0xFFFFFFFFFFFFFFFFFFFFFFFFFFFFFFFFFFFFFFFF AND PUSH1 0xB PUSH1 0x0 PUSH2 0x100 EXP DUP2 SLOAD DUP2 PUSH20 0xFFFFFFFFFFFFFFFFFFFFFFFFFFFFFFFFFFFFFFFF MUL NOT AND SWAP1 DUP4 PUSH20 0xFFFFFFFFFFFFFFFFFFFFFFFFFFFFFFFFFFFFFFFF AND MUL OR SWAP1 SSTORE POP PUSH1 0x0 PUSH1 0xE PUSH1 0x16 PUSH2 0x100 EXP DUP2 SLOAD DUP2 PUSH1 0xFF MUL NOT AND SWAP1 DUP4 ISZERO ISZERO MUL OR SWAP1 SSTORE POP JUMP JUMPDEST PUSH1 0x0 DUP1 SWAP1 SLOAD SWAP1 PUSH2 0x100 EXP SWAP1 DIV PUSH20 0xFFFFFFFFFFFFFFFFFFFFFFFFFFFFFFFFFFFFFFFF AND PUSH20 0xFFFFFFFFFFFFFFFFFFFFFFFFFFFFFFFFFFFFFFFF AND CALLER PUSH20 0xFFFFFFFFFFFFFFFFFFFFFFFFFFFFFFFFFFFFFFFF AND EQ ISZERO ISZERO PUSH2 0x2799 JUMPI PUSH1 0x0 DUP1 REVERT JUMPDEST DUP1 PUSH1 0x3 DUP2 SWAP1 SSTORE POP POP JUMP JUMPDEST PUSH32 0x42616E636F725800000000000000000000000000000000000000000000000000 DUP2 JUMP JUMPDEST PUSH1 0xA SLOAD DUP2 JUMP JUMPDEST PUSH32 0x42616E636F725855706772616465720000000000000000000000000000000000 DUP2 JUMP JUMPDEST PUSH1 0x1 PUSH1 0x0 SWAP1 SLOAD SWAP1 PUSH2 0x100 EXP SWAP1 DIV PUSH20 0xFFFFFFFFFFFFFFFFFFFFFFFFFFFFFFFFFFFFFFFF AND DUP2 JUMP JUMPDEST PUSH1 0x0 DUP1 SWAP1 SLOAD SWAP1 PUSH2 0x100 EXP SWAP1 DIV PUSH20 0xFFFFFFFFFFFFFFFFFFFFFFFFFFFFFFFFFFFFFFFF AND PUSH20 0xFFFFFFFFFFFFFFFFFFFFFFFFFFFFFFFFFFFFFFFF AND CALLER PUSH20 0xFFFFFFFFFFFFFFFFFFFFFFFFFFFFFFFFFFFFFFFF AND EQ ISZERO ISZERO PUSH2 0x2872 JUMPI PUSH1 0x0 DUP1 REVERT JUMPDEST DUP1 PUSH1 0xA DUP2 SWAP1 SSTORE POP POP JUMP JUMPDEST PUSH1 0x0 DUP1 SWAP1 SLOAD SWAP1 PUSH2 0x100 EXP SWAP1 DIV PUSH20 0xFFFFFFFFFFFFFFFFFFFFFFFFFFFFFFFFFFFFFFFF AND PUSH20 0xFFFFFFFFFFFFFFFFFFFFFFFFFFFFFFFFFFFFFFFF AND CALLER PUSH20 0xFFFFFFFFFFFFFFFFFFFFFFFFFFFFFFFFFFFFFFFF AND EQ ISZERO ISZERO PUSH2 0x28D7 JUMPI PUSH1 0x0 DUP1 REVERT JUMPDEST DUP1 PUSH1 0x12 PUSH1 0x0 DUP5 PUSH20 0xFFFFFFFFFFFFFFFFFFFFFFFFFFFFFFFFFFFFFFFF AND PUSH20 0xFFFFFFFFFFFFFFFFFFFFFFFFFFFFFFFFFFFFFFFF AND DUP2 MSTORE PUSH1 0x20 ADD SWAP1 DUP2 MSTORE PUSH1 0x20 ADD PUSH1 0x0 KECCAK256 PUSH1 0x0 PUSH2 0x100 EXP DUP2 SLOAD DUP2 PUSH1 0xFF MUL NOT AND SWAP1 DUP4 ISZERO ISZERO MUL OR SWAP1 SSTORE POP POP POP JUMP JUMPDEST PUSH1 0x10 PUSH1 0x20 MSTORE DUP1 PUSH1 0x0 MSTORE PUSH1 0x40 PUSH1 0x0 KECCAK256 PUSH1 0x0 SWAP2 POP SWAP1 POP SLOAD DUP2 JUMP JUMPDEST PUSH1 0x0 DUP1 SWAP1 SLOAD SWAP1 PUSH2 0x100 EXP SWAP1 DIV PUSH20 0xFFFFFFFFFFFFFFFFFFFFFFFFFFFFFFFFFFFFFFFF AND PUSH20 0xFFFFFFFFFFFFFFFFFFFFFFFFFFFFFFFFFFFFFFFF AND CALLER PUSH20 0xFFFFFFFFFFFFFFFFFFFFFFFFFFFFFFFFFFFFFFFF AND EQ ISZERO ISZERO PUSH2 0x29A5 JUMPI PUSH1 0x0 DUP1 REVERT JUMPDEST DUP1 PUSH1 0xE PUSH1 0x15 PUSH2 0x100 EXP DUP2 SLOAD DUP2 PUSH1 0xFF MUL NOT AND SWAP1 DUP4 ISZERO ISZERO MUL OR SWAP1 SSTORE POP POP JUMP JUMPDEST PUSH1 0x0 DUP1 SWAP1 SLOAD SWAP1 PUSH2 0x100 EXP SWAP1 DIV PUSH20 0xFFFFFFFFFFFFFFFFFFFFFFFFFFFFFFFFFFFFFFFF AND PUSH20 0xFFFFFFFFFFFFFFFFFFFFFFFFFFFFFFFFFFFFFFFF AND CALLER PUSH20 0xFFFFFFFFFFFFFFFFFFFFFFFFFFFFFFFFFFFFFFFF AND EQ ISZERO ISZERO PUSH2 0x2A1D JUMPI PUSH1 0x0 DUP1 REVERT JUMPDEST PUSH1 0x0 DUP1 SWAP1 SLOAD SWAP1 PUSH2 0x100 EXP SWAP1 DIV PUSH20 0xFFFFFFFFFFFFFFFFFFFFFFFFFFFFFFFFFFFFFFFF AND PUSH20 0xFFFFFFFFFFFFFFFFFFFFFFFFFFFFFFFFFFFFFFFF AND DUP2 PUSH20 0xFFFFFFFFFFFFFFFFFFFFFFFFFFFFFFFFFFFFFFFF AND EQ ISZERO ISZERO ISZERO PUSH2 0x2A79 JUMPI PUSH1 0x0 DUP1 REVERT JUMPDEST DUP1 PUSH1 0x1 PUSH1 0x0 PUSH2 0x100 EXP DUP2 SLOAD DUP2 PUSH20 0xFFFFFFFFFFFFFFFFFFFFFFFFFFFFFFFFFFFFFFFF MUL NOT AND SWAP1 DUP4 PUSH20 0xFFFFFFFFFFFFFFFFFFFFFFFFFFFFFFFFFFFFFFFF AND MUL OR SWAP1 SSTORE POP POP JUMP JUMPDEST PUSH32 0x4E6F6E5374616E64617264546F6B656E52656769737472790000000000000000 DUP2 JUMP JUMPDEST PUSH1 0x6 SLOAD DUP2 JUMP JUMPDEST PUSH1 0x0 DUP1 SWAP1 SLOAD SWAP1 PUSH2 0x100 EXP SWAP1 DIV PUSH20 0xFFFFFFFFFFFFFFFFFFFFFFFFFFFFFFFFFFFFFFFF AND PUSH20 0xFFFFFFFFFFFFFFFFFFFFFFFFFFFFFFFFFFFFFFFF AND CALLER PUSH20 0xFFFFFFFFFFFFFFFFFFFFFFFFFFFFFFFFFFFFFFFF AND EQ ISZERO ISZERO PUSH2 0x2B42 JUMPI PUSH1 0x0 DUP1 REVERT JUMPDEST DUP1 ISZERO PUSH1 0xE PUSH1 0x16 PUSH2 0x100 EXP DUP2 SLOAD DUP2 PUSH1 0xFF MUL NOT AND SWAP1 DUP4 ISZERO ISZERO MUL OR SWAP1 SSTORE POP POP JUMP JUMPDEST PUSH1 0xE PUSH1 0x14 SWAP1 SLOAD SWAP1 PUSH2 0x100 EXP SWAP1 DIV PUSH1 0xFF AND DUP2 JUMP JUMPDEST PUSH1 0x0 DUP2 DUP4 LT ISZERO ISZERO ISZERO PUSH2 0x2B84 JUMPI PUSH1 0x0 DUP1 REVERT JUMPDEST DUP2 DUP4 SUB SWAP1 POP SWAP3 SWAP2 POP POP JUMP JUMPDEST PUSH1 0x0 DUP1 PUSH1 0x0 DUP5 EQ ISZERO PUSH2 0x2BA4 JUMPI PUSH1 0x0 SWAP2 POP PUSH2 0x2BC6 JUMP JUMPDEST DUP3 DUP5 MUL SWAP1 POP DUP3 DUP5 DUP3 DUP2 ISZERO ISZERO PUSH2 0x2BB5 JUMPI INVALID JUMPDEST DIV EQ ISZERO ISZERO PUSH2 0x2BC2 JUMPI PUSH1 0x0 DUP1 REVERT JUMPDEST DUP1 SWAP2 POP JUMPDEST POP SWAP3 SWAP2 POP POP JUMP JUMPDEST PUSH1 0x0 DUP1 DUP3 DUP5 ADD SWAP1 POP DUP4 DUP2 LT ISZERO ISZERO ISZERO PUSH2 0x2BE4 JUMPI PUSH1 0x0 DUP1 REVERT JUMPDEST DUP1 SWAP2 POP POP SWAP3 SWAP2 POP POP JUMP JUMPDEST PUSH1 0xD PUSH1 0x0 SWAP1 SLOAD SWAP1 PUSH2 0x100 EXP SWAP1 DIV PUSH20 0xFFFFFFFFFFFFFFFFFFFFFFFFFFFFFFFFFFFFFFFF AND PUSH20 0xFFFFFFFFFFFFFFFFFFFFFFFFFFFFFFFFFFFFFFFF AND PUSH4 0xFE417FA5 CALLER DUP4 PUSH1 0x40 MLOAD DUP4 PUSH4 0xFFFFFFFF AND PUSH29 0x100000000000000000000000000000000000000000000000000000000 MUL DUP2 MSTORE PUSH1 0x4 ADD DUP1 DUP4 PUSH20 0xFFFFFFFFFFFFFFFFFFFFFFFFFFFFFFFFFFFFFFFF AND PUSH20 0xFFFFFFFFFFFFFFFFFFFFFFFFFFFFFFFFFFFFFFFF AND DUP2 MSTORE PUSH1 0x20 ADD DUP3 DUP2 MSTORE PUSH1 0x20 ADD SWAP3 POP POP POP PUSH1 0x0 PUSH1 0x40 MLOAD DUP1 DUP4 SUB DUP2 PUSH1 0x0 DUP8 DUP1 EXTCODESIZE ISZERO DUP1 ISZERO PUSH2 0x2CB3 JUMPI PUSH1 0x0 DUP1 REVERT JUMPDEST POP GAS CALL ISZERO DUP1 ISZERO PUSH2 0x2CC7 JUMPI RETURNDATASIZE PUSH1 0x0 DUP1 RETURNDATACOPY RETURNDATASIZE PUSH1 0x0 REVERT JUMPDEST POP POP POP POP CALLER PUSH20 0xFFFFFFFFFFFFFFFFFFFFFFFFFFFFFFFFFFFFFFFF AND PUSH32 0xF5D7535A395393675F56D066384113754CA9CF4ABD37298469934E2E9C2EC902 DUP3 PUSH1 0x40 MLOAD DUP1 DUP3 DUP2 MSTORE PUSH1 0x20 ADD SWAP2 POP POP PUSH1 0x40 MLOAD DUP1 SWAP2 SUB SWAP1 LOG2 POP JUMP JUMPDEST PUSH1 0x0 PUSH2 0x2D26 PUSH2 0x1314 JUMP JUMPDEST SWAP1 POP PUSH1 0x4 SLOAD DUP3 LT ISZERO DUP1 ISZERO PUSH2 0x2D3A JUMPI POP DUP1 DUP3 GT ISZERO JUMPDEST ISZERO ISZERO PUSH2 0x2D45 JUMPI PUSH1 0x0 DUP1 REVERT JUMPDEST PUSH2 0x2D58 DUP3 DUP3 PUSH2 0x2B73 SWAP1 SWAP2 SWAP1 PUSH4 0xFFFFFFFF AND JUMP JUMPDEST PUSH1 0x6 DUP2 SWAP1 SSTORE POP NUMBER PUSH1 0x9 DUP2 SWAP1 SSTORE POP PUSH1 0xE PUSH1 0x0 SWAP1 SLOAD SWAP1 PUSH2 0x100 EXP SWAP1 DIV PUSH20 0xFFFFFFFFFFFFFFFFFFFFFFFFFFFFFFFFFFFFFFFF AND PUSH20 0xFFFFFFFFFFFFFFFFFFFFFFFFFFFFFFFFFFFFFFFF AND PUSH4 0xA9059CBB DUP5 DUP5 PUSH1 0x40 MLOAD DUP4 PUSH4 0xFFFFFFFF AND PUSH29 0x100000000000000000000000000000000000000000000000000000000 MUL DUP2 MSTORE PUSH1 0x4 ADD DUP1 DUP4 PUSH20 0xFFFFFFFFFFFFFFFFFFFFFFFFFFFFFFFFFFFFFFFF AND PUSH20 0xFFFFFFFFFFFFFFFFFFFFFFFFFFFFFFFFFFFFFFFF AND DUP2 MSTORE PUSH1 0x20 ADD DUP3 DUP2 MSTORE PUSH1 0x20 ADD SWAP3 POP POP POP PUSH1 0x20 PUSH1 0x40 MLOAD DUP1 DUP4 SUB DUP2 PUSH1 0x0 DUP8 DUP1 EXTCODESIZE ISZERO DUP1 ISZERO PUSH2 0x2E2A JUMPI PUSH1 0x0 DUP1 REVERT JUMPDEST POP GAS CALL ISZERO DUP1 ISZERO PUSH2 0x2E3E JUMPI RETURNDATASIZE PUSH1 0x0 DUP1 RETURNDATACOPY RETURNDATASIZE PUSH1 0x0 REVERT JUMPDEST POP POP POP POP PUSH1 0x40 MLOAD RETURNDATASIZE PUSH1 0x20 DUP2 LT ISZERO PUSH2 0x2E54 JUMPI PUSH1 0x0 DUP1 REVERT JUMPDEST DUP2 ADD SWAP1 DUP1 DUP1 MLOAD SWAP1 PUSH1 0x20 ADD SWAP1 SWAP3 SWAP2 SWAP1 POP POP POP POP DUP3 PUSH20 0xFFFFFFFFFFFFFFFFFFFFFFFFFFFFFFFFFFFFFFFF AND PUSH32 0xBFDC1F3C02B4715077E0BE4A262F967D53D4D0FCD76C6987FA2AD6E2257D7C8F DUP4 PUSH1 0x40 MLOAD DUP1 DUP3 DUP2 MSTORE PUSH1 0x20 ADD SWAP2 POP POP PUSH1 0x40 MLOAD DUP1 SWAP2 SUB SWAP1 LOG2 POP POP POP JUMP STOP LOG1 PUSH6 0x627A7A723058 KECCAK256 CODESIZE PUSH22 0xC1A16CAA44B24CC92FEC2708F6756A944807B2588CF1 CALLDATALOAD PUSH32 0x1F9BB63EADE50029000000000000000000000000000000000000000000000000 "
		},
		"gasEstimates": {
			"creation": {
				"codeDepositCost": "2401000",
				"executionCost": "infinite",
				"totalCost": "infinite"
			},
			"external": {
				"BANCOR_CONVERTER_FACTORY()": "630",
				"BANCOR_CONVERTER_UPGRADER()": "256",
				"BANCOR_FORMULA()": "718",
				"BANCOR_GAS_PRICE_LIMIT()": "938",
				"BANCOR_NETWORK()": "916",
				"BANCOR_X()": "1180",
				"BANCOR_X_UPGRADER()": "1224",
				"BNT_CONVERTER()": "696",
				"BNT_TOKEN()": "344",
				"CONTRACT_FEATURES()": "850",
				"CONTRACT_REGISTRY()": "432",
				"NON_STANDARD_TOKEN_REGISTRY()": "1378",
				"acceptOwnership()": "43790",
				"allowRegistryUpdate()": "690",
				"bntConverter()": "442",
				"bntToken()": "1344",
				"disableRegistryUpdate(bool)": "22003",
				"enableReporting(bool)": "21912",
				"enableXTransfers(bool)": "21604",
				"getCurrentLockLimit()": "infinite",
				"getCurrentReleaseLimit()": "infinite",
				"getXTransferAmount(uint256,address)": "2014",
				"limitIncPerBlock()": "966",
				"maxLockLimit()": "1230",
				"maxReleaseLimit()": "768",
				"minLimit()": "570",
				"minRequiredReports()": "1384",
				"newOwner()": "1476",
				"owner()": "1124",
				"prevLockBlockNumber()": "504",
				"prevLockLimit()": "460",
				"prevRegistry()": "904",
				"prevReleaseBlockNumber()": "746",
				"prevReleaseLimit()": "1582",
				"registry()": "1058",
				"reportTx(bytes32,uint256,address,uint256,uint256)": "infinite",
				"reportedTxs(uint256,address)": "1327",
				"reporters(address)": "811",
				"reportingEnabled()": "1240",
				"restoreRegistry()": "42153",
				"setBNTConverterAddress()": "infinite",
				"setLimitIncPerBlock(uint256)": "21273",
				"setMaxLockLimit(uint256)": "21361",
				"setMaxReleaseLimit(uint256)": "21427",
				"setMinLimit(uint256)": "21031",
				"setMinRequiredReports(uint256)": "21537",
				"setReporter(address,bool)": "21943",
				"transactionIds(uint256)": "1626",
				"transactions(uint256)": "2500",
				"transferOwnership(address)": "22164",
				"updateRegistry()": "infinite",
				"upgrade(address[])": "infinite",
				"version()": "888",
				"withdrawTokens(address,address,uint256)": "infinite",
				"xTransfer(bytes32,bytes32,uint256)": "infinite",
				"xTransfer(bytes32,bytes32,uint256,uint256)": "infinite",
				"xTransfersEnabled()": "1724"
			},
			"internal": {
				"lockTokens(uint256)": "infinite",
				"releaseTokens(address,uint256)": "infinite"
			}
		},
		"methodIdentifiers": {
			"BANCOR_CONVERTER_FACTORY()": "5a46f06c",
			"BANCOR_CONVERTER_UPGRADER()": "0c87355e",
			"BANCOR_FORMULA()": "6d7bd3fc",
			"BANCOR_GAS_PRICE_LIMIT()": "9249993a",
			"BANCOR_NETWORK()": "9232494e",
			"BANCOR_X()": "c4a8598e",
			"BANCOR_X_UPGRADER()": "cc97b38f",
			"BNT_CONVERTER()": "62614ae6",
			"BNT_TOKEN()": "1d000b61",
			"CONTRACT_FEATURES()": "83315b6e",
			"CONTRACT_REGISTRY()": "25f9bfef",
			"NON_STANDARD_TOKEN_REGISTRY()": "f5286b9c",
			"acceptOwnership()": "79ba5097",
			"allowRegistryUpdate()": "20d7d367",
			"bntConverter()": "011857d0",
			"bntToken()": "af6c0f60",
			"disableRegistryUpdate(bool)": "fa1c594e",
			"enableReporting(bool)": "ed1d73a6",
			"enableXTransfers(bool)": "a5c670ca",
			"getCurrentLockLimit()": "19967439",
			"getCurrentReleaseLimit()": "1e04a593",
			"getXTransferAmount(uint256,address)": "aafd6b76",
			"limitIncPerBlock()": "72f43d19",
			"maxLockLimit()": "a8c36a90",
			"maxReleaseLimit()": "52e94ce3",
			"minLimit()": "1fd8088d",
			"minRequiredReports()": "ca27e011",
			"newOwner()": "d4ee1d90",
			"owner()": "8da5cb5b",
			"prevLockBlockNumber()": "1aff29eb",
			"prevLockLimit()": "16c76c27",
			"prevRegistry()": "61cd756e",
			"prevReleaseBlockNumber()": "4b3e475c",
			"prevReleaseLimit()": "f7385f76",
			"registry()": "7b103999",
			"reportTx(bytes32,uint256,address,uint256,uint256)": "6dc6a01b",
			"reportedTxs(uint256,address)": "8544c52d",
			"reporters(address)": "2cc1cd9e",
			"reportingEnabled()": "9390701c",
			"restoreRegistry()": "b4a176d3",
			"setBNTConverterAddress()": "4a453af1",
			"setLimitIncPerBlock(uint256)": "a50c326c",
			"setMaxLockLimit(uint256)": "af2b9618",
			"setMaxReleaseLimit(uint256)": "bf28ece4",
			"setMinLimit(uint256)": "6ec6d4a6",
			"setMinRequiredReports(uint256)": "df68ab02",
			"setReporter(address,bool)": "e1bb5133",
			"transactionIds(uint256)": "e36f8dc5",
			"transactions(uint256)": "9ace38c2",
			"transferOwnership(address)": "f2fde38b",
			"updateRegistry()": "49d10b64",
			"upgrade(address[])": "0183592b",
			"version()": "54fd4d50",
			"withdrawTokens(address,address,uint256)": "5e35359e",
			"xTransfer(bytes32,bytes32,uint256)": "49282538",
			"xTransfer(bytes32,bytes32,uint256,uint256)": "427c0374",
			"xTransfersEnabled()": "fbb24692"
		}
	},
	"abi": [
		{
			"constant": true,
			"inputs": [],
			"name": "bntConverter",
			"outputs": [
				{
					"name": "",
					"type": "address"
				}
			],
			"payable": false,
			"stateMutability": "view",
			"type": "function"
		},
		{
			"constant": false,
			"inputs": [
				{
					"name": "_reporters",
					"type": "address[]"
				}
			],
			"name": "upgrade",
			"outputs": [],
			"payable": false,
			"stateMutability": "nonpayable",
			"type": "function"
		},
		{
			"constant": true,
			"inputs": [],
			"name": "BANCOR_CONVERTER_UPGRADER",
			"outputs": [
				{
					"name": "",
					"type": "bytes32"
				}
			],
			"payable": false,
			"stateMutability": "view",
			"type": "function"
		},
		{
			"constant": true,
			"inputs": [],
			"name": "prevLockLimit",
			"outputs": [
				{
					"name": "",
					"type": "uint256"
				}
			],
			"payable": false,
			"stateMutability": "view",
			"type": "function"
		},
		{
			"constant": true,
			"inputs": [],
			"name": "getCurrentLockLimit",
			"outputs": [
				{
					"name": "",
					"type": "uint256"
				}
			],
			"payable": false,
			"stateMutability": "view",
			"type": "function"
		},
		{
			"constant": true,
			"inputs": [],
			"name": "prevLockBlockNumber",
			"outputs": [
				{
					"name": "",
					"type": "uint256"
				}
			],
			"payable": false,
			"stateMutability": "view",
			"type": "function"
		},
		{
			"constant": true,
			"inputs": [],
			"name": "BNT_TOKEN",
			"outputs": [
				{
					"name": "",
					"type": "bytes32"
				}
			],
			"payable": false,
			"stateMutability": "view",
			"type": "function"
		},
		{
			"constant": true,
			"inputs": [],
			"name": "getCurrentReleaseLimit",
			"outputs": [
				{
					"name": "",
					"type": "uint256"
				}
			],
			"payable": false,
			"stateMutability": "view",
			"type": "function"
		},
		{
			"constant": true,
			"inputs": [],
			"name": "minLimit",
			"outputs": [
				{
					"name": "",
					"type": "uint256"
				}
			],
			"payable": false,
			"stateMutability": "view",
			"type": "function"
		},
		{
			"constant": true,
			"inputs": [],
			"name": "allowRegistryUpdate",
			"outputs": [
				{
					"name": "",
					"type": "bool"
				}
			],
			"payable": false,
			"stateMutability": "view",
			"type": "function"
		},
		{
			"constant": true,
			"inputs": [],
			"name": "CONTRACT_REGISTRY",
			"outputs": [
				{
					"name": "",
					"type": "bytes32"
				}
			],
			"payable": false,
			"stateMutability": "view",
			"type": "function"
		},
		{
			"constant": true,
			"inputs": [
				{
					"name": "",
					"type": "address"
				}
			],
			"name": "reporters",
			"outputs": [
				{
					"name": "",
					"type": "bool"
				}
			],
			"payable": false,
			"stateMutability": "view",
			"type": "function"
		},
		{
			"constant": false,
			"inputs": [
				{
					"name": "_toBlockchain",
					"type": "bytes32"
				},
				{
					"name": "_to",
					"type": "bytes32"
				},
				{
					"name": "_amount",
					"type": "uint256"
				},
				{
					"name": "_id",
					"type": "uint256"
				}
			],
			"name": "xTransfer",
			"outputs": [],
			"payable": false,
			"stateMutability": "nonpayable",
			"type": "function"
		},
		{
			"constant": false,
			"inputs": [
				{
					"name": "_toBlockchain",
					"type": "bytes32"
				},
				{
					"name": "_to",
					"type": "bytes32"
				},
				{
					"name": "_amount",
					"type": "uint256"
				}
			],
			"name": "xTransfer",
			"outputs": [],
			"payable": false,
			"stateMutability": "nonpayable",
			"type": "function"
		},
		{
			"constant": false,
			"inputs": [],
			"name": "updateRegistry",
			"outputs": [],
			"payable": false,
			"stateMutability": "nonpayable",
			"type": "function"
		},
		{
			"constant": false,
			"inputs": [],
			"name": "setBNTConverterAddress",
			"outputs": [],
			"payable": false,
			"stateMutability": "nonpayable",
			"type": "function"
		},
		{
			"constant": true,
			"inputs": [],
			"name": "prevReleaseBlockNumber",
			"outputs": [
				{
					"name": "",
					"type": "uint256"
				}
			],
			"payable": false,
			"stateMutability": "view",
			"type": "function"
		},
		{
			"constant": true,
			"inputs": [],
			"name": "maxReleaseLimit",
			"outputs": [
				{
					"name": "",
					"type": "uint256"
				}
			],
			"payable": false,
			"stateMutability": "view",
			"type": "function"
		},
		{
			"constant": true,
			"inputs": [],
			"name": "version",
			"outputs": [
				{
					"name": "",
					"type": "uint16"
				}
			],
			"payable": false,
			"stateMutability": "view",
			"type": "function"
		},
		{
			"constant": true,
			"inputs": [],
			"name": "BANCOR_CONVERTER_FACTORY",
			"outputs": [
				{
					"name": "",
					"type": "bytes32"
				}
			],
			"payable": false,
			"stateMutability": "view",
			"type": "function"
		},
		{
			"constant": false,
			"inputs": [
				{
					"name": "_token",
					"type": "address"
				},
				{
					"name": "_to",
					"type": "address"
				},
				{
					"name": "_amount",
					"type": "uint256"
				}
			],
			"name": "withdrawTokens",
			"outputs": [],
			"payable": false,
			"stateMutability": "nonpayable",
			"type": "function"
		},
		{
			"constant": true,
			"inputs": [],
			"name": "prevRegistry",
			"outputs": [
				{
					"name": "",
					"type": "address"
				}
			],
			"payable": false,
			"stateMutability": "view",
			"type": "function"
		},
		{
			"constant": true,
			"inputs": [],
			"name": "BNT_CONVERTER",
			"outputs": [
				{
					"name": "",
					"type": "bytes32"
				}
			],
			"payable": false,
			"stateMutability": "view",
			"type": "function"
		},
		{
			"constant": true,
			"inputs": [],
			"name": "BANCOR_FORMULA",
			"outputs": [
				{
					"name": "",
					"type": "bytes32"
				}
			],
			"payable": false,
			"stateMutability": "view",
			"type": "function"
		},
		{
			"constant": false,
			"inputs": [
				{
					"name": "_fromBlockchain",
					"type": "bytes32"
				},
				{
					"name": "_txId",
					"type": "uint256"
				},
				{
					"name": "_to",
					"type": "address"
				},
				{
					"name": "_amount",
					"type": "uint256"
				},
				{
					"name": "_xTransferId",
					"type": "uint256"
				}
			],
			"name": "reportTx",
			"outputs": [],
			"payable": false,
			"stateMutability": "nonpayable",
			"type": "function"
		},
		{
			"constant": false,
			"inputs": [
				{
					"name": "_minLimit",
					"type": "uint256"
				}
			],
			"name": "setMinLimit",
			"outputs": [],
			"payable": false,
			"stateMutability": "nonpayable",
			"type": "function"
		},
		{
			"constant": true,
			"inputs": [],
			"name": "limitIncPerBlock",
			"outputs": [
				{
					"name": "",
					"type": "uint256"
				}
			],
			"payable": false,
			"stateMutability": "view",
			"type": "function"
		},
		{
			"constant": false,
			"inputs": [],
			"name": "acceptOwnership",
			"outputs": [],
			"payable": false,
			"stateMutability": "nonpayable",
			"type": "function"
		},
		{
			"constant": true,
			"inputs": [],
			"name": "registry",
			"outputs": [
				{
					"name": "",
					"type": "address"
				}
			],
			"payable": false,
			"stateMutability": "view",
			"type": "function"
		},
		{
			"constant": true,
			"inputs": [],
			"name": "CONTRACT_FEATURES",
			"outputs": [
				{
					"name": "",
					"type": "bytes32"
				}
			],
			"payable": false,
			"stateMutability": "view",
			"type": "function"
		},
		{
			"constant": true,
			"inputs": [
				{
					"name": "",
					"type": "uint256"
				},
				{
					"name": "",
					"type": "address"
				}
			],
			"name": "reportedTxs",
			"outputs": [
				{
					"name": "",
					"type": "bool"
				}
			],
			"payable": false,
			"stateMutability": "view",
			"type": "function"
		},
		{
			"constant": true,
			"inputs": [],
			"name": "owner",
			"outputs": [
				{
					"name": "",
					"type": "address"
				}
			],
			"payable": false,
			"stateMutability": "view",
			"type": "function"
		},
		{
			"constant": true,
			"inputs": [],
			"name": "BANCOR_NETWORK",
			"outputs": [
				{
					"name": "",
					"type": "bytes32"
				}
			],
			"payable": false,
			"stateMutability": "view",
			"type": "function"
		},
		{
			"constant": true,
			"inputs": [],
			"name": "BANCOR_GAS_PRICE_LIMIT",
			"outputs": [
				{
					"name": "",
					"type": "bytes32"
				}
			],
			"payable": false,
			"stateMutability": "view",
			"type": "function"
		},
		{
			"constant": true,
			"inputs": [],
			"name": "reportingEnabled",
			"outputs": [
				{
					"name": "",
					"type": "bool"
				}
			],
			"payable": false,
			"stateMutability": "view",
			"type": "function"
		},
		{
			"constant": true,
			"inputs": [
				{
					"name": "",
					"type": "uint256"
				}
			],
			"name": "transactions",
			"outputs": [
				{
					"name": "amount",
					"type": "uint256"
				},
				{
					"name": "fromBlockchain",
					"type": "bytes32"
				},
				{
					"name": "to",
					"type": "address"
				},
				{
					"name": "numOfReports",
					"type": "uint8"
				},
				{
					"name": "completed",
					"type": "bool"
				}
			],
			"payable": false,
			"stateMutability": "view",
			"type": "function"
		},
		{
			"constant": false,
			"inputs": [
				{
					"name": "_limitIncPerBlock",
					"type": "uint256"
				}
			],
			"name": "setLimitIncPerBlock",
			"outputs": [],
			"payable": false,
			"stateMutability": "nonpayable",
			"type": "function"
		},
		{
			"constant": false,
			"inputs": [
				{
					"name": "_enable",
					"type": "bool"
				}
			],
			"name": "enableXTransfers",
			"outputs": [],
			"payable": false,
			"stateMutability": "nonpayable",
			"type": "function"
		},
		{
			"constant": true,
			"inputs": [],
			"name": "maxLockLimit",
			"outputs": [
				{
					"name": "",
					"type": "uint256"
				}
			],
			"payable": false,
			"stateMutability": "view",
			"type": "function"
		},
		{
			"constant": true,
			"inputs": [
				{
					"name": "_xTransferId",
					"type": "uint256"
				},
				{
					"name": "_for",
					"type": "address"
				}
			],
			"name": "getXTransferAmount",
			"outputs": [
				{
					"name": "",
					"type": "uint256"
				}
			],
			"payable": false,
			"stateMutability": "view",
			"type": "function"
		},
		{
			"constant": false,
			"inputs": [
				{
					"name": "_maxLockLimit",
					"type": "uint256"
				}
			],
			"name": "setMaxLockLimit",
			"outputs": [],
			"payable": false,
			"stateMutability": "nonpayable",
			"type": "function"
		},
		{
			"constant": true,
			"inputs": [],
			"name": "bntToken",
			"outputs": [
				{
					"name": "",
					"type": "address"
				}
			],
			"payable": false,
			"stateMutability": "view",
			"type": "function"
		},
		{
			"constant": false,
			"inputs": [],
			"name": "restoreRegistry",
			"outputs": [],
			"payable": false,
			"stateMutability": "nonpayable",
			"type": "function"
		},
		{
			"constant": false,
			"inputs": [
				{
					"name": "_maxReleaseLimit",
					"type": "uint256"
				}
			],
			"name": "setMaxReleaseLimit",
			"outputs": [],
			"payable": false,
			"stateMutability": "nonpayable",
			"type": "function"
		},
		{
			"constant": true,
			"inputs": [],
			"name": "BANCOR_X",
			"outputs": [
				{
					"name": "",
					"type": "bytes32"
				}
			],
			"payable": false,
			"stateMutability": "view",
			"type": "function"
		},
		{
			"constant": true,
			"inputs": [],
			"name": "minRequiredReports",
			"outputs": [
				{
					"name": "",
					"type": "uint256"
				}
			],
			"payable": false,
			"stateMutability": "view",
			"type": "function"
		},
		{
			"constant": true,
			"inputs": [],
			"name": "BANCOR_X_UPGRADER",
			"outputs": [
				{
					"name": "",
					"type": "bytes32"
				}
			],
			"payable": false,
			"stateMutability": "view",
			"type": "function"
		},
		{
			"constant": true,
			"inputs": [],
			"name": "newOwner",
			"outputs": [
				{
					"name": "",
					"type": "address"
				}
			],
			"payable": false,
			"stateMutability": "view",
			"type": "function"
		},
		{
			"constant": false,
			"inputs": [
				{
					"name": "_minRequiredReports",
					"type": "uint256"
				}
			],
			"name": "setMinRequiredReports",
			"outputs": [],
			"payable": false,
			"stateMutability": "nonpayable",
			"type": "function"
		},
		{
			"constant": false,
			"inputs": [
				{
					"name": "_reporter",
					"type": "address"
				},
				{
					"name": "_active",
					"type": "bool"
				}
			],
			"name": "setReporter",
			"outputs": [],
			"payable": false,
			"stateMutability": "nonpayable",
			"type": "function"
		},
		{
			"constant": true,
			"inputs": [
				{
					"name": "",
					"type": "uint256"
				}
			],
			"name": "transactionIds",
			"outputs": [
				{
					"name": "",
					"type": "uint256"
				}
			],
			"payable": false,
			"stateMutability": "view",
			"type": "function"
		},
		{
			"constant": false,
			"inputs": [
				{
					"name": "_enable",
					"type": "bool"
				}
			],
			"name": "enableReporting",
			"outputs": [],
			"payable": false,
			"stateMutability": "nonpayable",
			"type": "function"
		},
		{
			"constant": false,
			"inputs": [
				{
					"name": "_newOwner",
					"type": "address"
				}
			],
			"name": "transferOwnership",
			"outputs": [],
			"payable": false,
			"stateMutability": "nonpayable",
			"type": "function"
		},
		{
			"constant": true,
			"inputs": [],
			"name": "NON_STANDARD_TOKEN_REGISTRY",
			"outputs": [
				{
					"name": "",
					"type": "bytes32"
				}
			],
			"payable": false,
			"stateMutability": "view",
			"type": "function"
		},
		{
			"constant": true,
			"inputs": [],
			"name": "prevReleaseLimit",
			"outputs": [
				{
					"name": "",
					"type": "uint256"
				}
			],
			"payable": false,
			"stateMutability": "view",
			"type": "function"
		},
		{
			"constant": false,
			"inputs": [
				{
					"name": "_disable",
					"type": "bool"
				}
			],
			"name": "disableRegistryUpdate",
			"outputs": [],
			"payable": false,
			"stateMutability": "nonpayable",
			"type": "function"
		},
		{
			"constant": true,
			"inputs": [],
			"name": "xTransfersEnabled",
			"outputs": [
				{
					"name": "",
					"type": "bool"
				}
			],
			"payable": false,
			"stateMutability": "view",
			"type": "function"
		},
		{
			"inputs": [
				{
					"name": "_maxLockLimit",
					"type": "uint256"
				},
				{
					"name": "_maxReleaseLimit",
					"type": "uint256"
				},
				{
					"name": "_minLimit",
					"type": "uint256"
				},
				{
					"name": "_limitIncPerBlock",
					"type": "uint256"
				},
				{
					"name": "_minRequiredReports",
					"type": "uint256"
				},
				{
					"name": "_registry",
					"type": "address"
				}
			],
			"payable": false,
			"stateMutability": "nonpayable",
			"type": "constructor"
		},
		{
			"anonymous": false,
			"inputs": [
				{
					"indexed": true,
					"name": "_from",
					"type": "address"
				},
				{
					"indexed": false,
					"name": "_amount",
					"type": "uint256"
				}
			],
			"name": "TokensLock",
			"type": "event"
		},
		{
			"anonymous": false,
			"inputs": [
				{
					"indexed": true,
					"name": "_to",
					"type": "address"
				},
				{
					"indexed": false,
					"name": "_amount",
					"type": "uint256"
				}
			],
			"name": "TokensRelease",
			"type": "event"
		},
		{
			"anonymous": false,
			"inputs": [
				{
					"indexed": true,
					"name": "_from",
					"type": "address"
				},
				{
					"indexed": false,
					"name": "_toBlockchain",
					"type": "bytes32"
				},
				{
					"indexed": true,
					"name": "_to",
					"type": "bytes32"
				},
				{
					"indexed": false,
					"name": "_amount",
					"type": "uint256"
				},
				{
					"indexed": false,
					"name": "_id",
					"type": "uint256"
				}
			],
			"name": "XTransfer",
			"type": "event"
		},
		{
			"anonymous": false,
			"inputs": [
				{
					"indexed": true,
					"name": "_reporter",
					"type": "address"
				},
				{
					"indexed": false,
					"name": "_fromBlockchain",
					"type": "bytes32"
				},
				{
					"indexed": false,
					"name": "_txId",
					"type": "uint256"
				},
				{
					"indexed": false,
					"name": "_to",
					"type": "address"
				},
				{
					"indexed": false,
					"name": "_amount",
					"type": "uint256"
				},
				{
					"indexed": false,
					"name": "_xTransferId",
					"type": "uint256"
				}
			],
			"name": "TxReport",
			"type": "event"
		},
		{
			"anonymous": false,
			"inputs": [
				{
					"indexed": false,
					"name": "_to",
					"type": "address"
				},
				{
					"indexed": false,
					"name": "_id",
					"type": "uint256"
				}
			],
			"name": "XTransferComplete",
			"type": "event"
		},
		{
			"anonymous": false,
			"inputs": [
				{
					"indexed": true,
					"name": "_prevOwner",
					"type": "address"
				},
				{
					"indexed": true,
					"name": "_newOwner",
					"type": "address"
				}
			],
			"name": "OwnerUpdate",
			"type": "event"
		}
	]
}