{
  "contractName": "MintableToken",
  "abi": [
    {
      "inputs": [
        {
          "internalType": "string",
          "name": "name",
          "type": "string"
        },
        {
          "internalType": "string",
          "name": "symbol",
          "type": "string"
        }
      ],
      "stateMutability": "nonpayable",
      "type": "constructor"
    },
    {
      "anonymous": false,
      "inputs": [
        {
          "indexed": true,
          "internalType": "address",
          "name": "owner",
          "type": "address"
        },
        {
          "indexed": true,
          "internalType": "address",
          "name": "spender",
          "type": "address"
        },
        {
          "indexed": false,
          "internalType": "uint256",
          "name": "value",
          "type": "uint256"
        }
      ],
      "name": "Approval",
      "type": "event"
    },
    {
      "anonymous": false,
      "inputs": [
        {
          "indexed": true,
          "internalType": "address",
          "name": "prevOwner",
          "type": "address"
        },
        {
          "indexed": true,
          "internalType": "address",
          "name": "newOwner",
          "type": "address"
        }
      ],
      "name": "OwnerUpdate",
      "type": "event"
    },
    {
      "anonymous": false,
      "inputs": [
        {
          "indexed": true,
          "internalType": "address",
          "name": "from",
          "type": "address"
        },
        {
          "indexed": true,
          "internalType": "address",
          "name": "to",
          "type": "address"
        },
        {
          "indexed": false,
          "internalType": "uint256",
          "name": "value",
          "type": "uint256"
        }
      ],
      "name": "Transfer",
      "type": "event"
    },
    {
      "inputs": [],
      "name": "acceptOwnership",
      "outputs": [],
      "stateMutability": "nonpayable",
      "type": "function"
    },
    {
      "inputs": [
        {
          "internalType": "address",
          "name": "owner",
          "type": "address"
        },
        {
          "internalType": "address",
          "name": "spender",
          "type": "address"
        }
      ],
      "name": "allowance",
      "outputs": [
        {
          "internalType": "uint256",
          "name": "",
          "type": "uint256"
        }
      ],
      "stateMutability": "view",
      "type": "function"
    },
    {
      "inputs": [
        {
          "internalType": "address",
          "name": "spender",
          "type": "address"
        },
        {
          "internalType": "uint256",
          "name": "amount",
          "type": "uint256"
        }
      ],
      "name": "approve",
      "outputs": [
        {
          "internalType": "bool",
          "name": "",
          "type": "bool"
        }
      ],
      "stateMutability": "nonpayable",
      "type": "function"
    },
    {
      "inputs": [
        {
          "internalType": "address",
          "name": "account",
          "type": "address"
        }
      ],
      "name": "balanceOf",
      "outputs": [
        {
          "internalType": "uint256",
          "name": "",
          "type": "uint256"
        }
      ],
      "stateMutability": "view",
      "type": "function"
    },
    {
      "inputs": [],
      "name": "decimals",
      "outputs": [
        {
          "internalType": "uint8",
          "name": "",
          "type": "uint8"
        }
      ],
      "stateMutability": "view",
      "type": "function"
    },
    {
      "inputs": [
        {
          "internalType": "address",
          "name": "spender",
          "type": "address"
        },
        {
          "internalType": "uint256",
          "name": "subtractedValue",
          "type": "uint256"
        }
      ],
      "name": "decreaseAllowance",
      "outputs": [
        {
          "internalType": "bool",
          "name": "",
          "type": "bool"
        }
      ],
      "stateMutability": "nonpayable",
      "type": "function"
    },
    {
      "inputs": [
        {
          "internalType": "address",
          "name": "spender",
          "type": "address"
        },
        {
          "internalType": "uint256",
          "name": "addedValue",
          "type": "uint256"
        }
      ],
      "name": "increaseAllowance",
      "outputs": [
        {
          "internalType": "bool",
          "name": "",
          "type": "bool"
        }
      ],
      "stateMutability": "nonpayable",
      "type": "function"
    },
    {
      "inputs": [],
      "name": "name",
      "outputs": [
        {
          "internalType": "string",
          "name": "",
          "type": "string"
        }
      ],
      "stateMutability": "view",
      "type": "function"
    },
    {
      "inputs": [],
      "name": "newOwner",
      "outputs": [
        {
          "internalType": "address",
          "name": "",
          "type": "address"
        }
      ],
      "stateMutability": "view",
      "type": "function"
    },
    {
      "inputs": [],
      "name": "owner",
      "outputs": [
        {
          "internalType": "address",
          "name": "",
          "type": "address"
        }
      ],
      "stateMutability": "view",
      "type": "function"
    },
    {
      "inputs": [],
      "name": "symbol",
      "outputs": [
        {
          "internalType": "string",
          "name": "",
          "type": "string"
        }
      ],
      "stateMutability": "view",
      "type": "function"
    },
    {
      "inputs": [],
      "name": "totalSupply",
      "outputs": [
        {
          "internalType": "uint256",
          "name": "",
          "type": "uint256"
        }
      ],
      "stateMutability": "view",
      "type": "function"
    },
    {
      "inputs": [
        {
          "internalType": "address",
          "name": "newOwnerCandidate",
          "type": "address"
        }
      ],
      "name": "transferOwnership",
      "outputs": [],
      "stateMutability": "nonpayable",
      "type": "function"
    },
    {
      "inputs": [],
      "name": "transfersEnabled",
      "outputs": [
        {
          "internalType": "bool",
          "name": "",
          "type": "bool"
        }
      ],
      "stateMutability": "view",
      "type": "function"
    },
    {
      "inputs": [
        {
          "internalType": "address",
          "name": "to",
          "type": "address"
        },
        {
          "internalType": "uint256",
          "name": "amount",
          "type": "uint256"
        }
      ],
      "name": "issue",
      "outputs": [],
      "stateMutability": "nonpayable",
      "type": "function"
    },
    {
      "inputs": [
        {
          "internalType": "address",
          "name": "from",
          "type": "address"
        },
        {
          "internalType": "uint256",
          "name": "amount",
          "type": "uint256"
        }
      ],
      "name": "destroy",
      "outputs": [],
      "stateMutability": "nonpayable",
      "type": "function"
    },
    {
      "inputs": [
        {
          "internalType": "address",
          "name": "to",
          "type": "address"
        },
        {
          "internalType": "uint256",
          "name": "value",
          "type": "uint256"
        }
      ],
      "name": "transfer",
      "outputs": [
        {
          "internalType": "bool",
          "name": "",
          "type": "bool"
        }
      ],
      "stateMutability": "nonpayable",
      "type": "function"
    },
    {
      "inputs": [
        {
          "internalType": "address",
          "name": "from",
          "type": "address"
        },
        {
          "internalType": "address",
          "name": "to",
          "type": "address"
        },
        {
          "internalType": "uint256",
          "name": "value",
          "type": "uint256"
        }
      ],
      "name": "transferFrom",
      "outputs": [
        {
          "internalType": "bool",
          "name": "",
          "type": "bool"
        }
      ],
      "stateMutability": "nonpayable",
      "type": "function"
    }
  ],
  "bytecode": "0x60806040526001600660146101000a81548160ff0219169083151502179055503480156200002c57600080fd5b506040516200213138038062002131833981810160405260408110156200005257600080fd5b81019080805160405193929190846401000000008211156200007357600080fd5b838201915060208201858111156200008a57600080fd5b8251866001820283011164010000000082111715620000a857600080fd5b8083526020830192505050908051906020019080838360005b83811015620000de578082015181840152602081019050620000c1565b50505050905090810190601f1680156200010c5780820380516001836020036101000a031916815260200191505b50604052602001805160405193929190846401000000008211156200013057600080fd5b838201915060208201858111156200014757600080fd5b82518660018202830111640100000000821117156200016557600080fd5b8083526020830192505050908051906020019080838360005b838110156200019b5780820151818401526020810190506200017e565b50505050905090810190601f168015620001c95780820380516001836020036101000a031916815260200191505b5060405250505081818160039080519060200190620001ea9291906200026b565b508060049080519060200190620002039291906200026b565b506012600560006101000a81548160ff021916908360ff160217905550505033600560016101000a81548173ffffffffffffffffffffffffffffffffffffffff021916908373ffffffffffffffffffffffffffffffffffffffff160217905550505062000311565b828054600181600116156101000203166002900490600052602060002090601f016020900481019282601f10620002ae57805160ff1916838001178555620002df565b82800160010185558215620002df579182015b82811115620002de578251825591602001919060010190620002c1565b5b509050620002ee9190620002f2565b5090565b5b808211156200030d576000816000905550600101620002f3565b5090565b611e1080620003216000396000f3fe608060405234801561001057600080fd5b50600436106101165760003560e01c80638da5cb5b116100a2578063a9059cbb11610071578063a9059cbb14610542578063bef97c87146105a6578063d4ee1d90146105c6578063dd62ed3e146105fa578063f2fde38b1461067257610116565b80638da5cb5b146103d957806395d89b411461040d578063a24835d114610490578063a457c2d7146104de57610116565b8063313ce567116100e9578063313ce567146102a457806339509351146102c557806370a082311461032957806379ba509714610381578063867904b41461038b57610116565b806306fdde031461011b578063095ea7b31461019e57806318160ddd1461020257806323b872dd14610220575b600080fd5b6101236106b6565b6040518080602001828103825283818151815260200191508051906020019080838360005b83811015610163578082015181840152602081019050610148565b50505050905090810190601f1680156101905780820380516001836020036101000a031916815260200191505b509250505060405180910390f35b6101ea600480360360408110156101b457600080fd5b81019080803573ffffffffffffffffffffffffffffffffffffffff16906020019092919080359060200190929190505050610758565b60405180821515815260200191505060405180910390f35b61020a610776565b6040518082815260200191505060405180910390f35b61028c6004803603606081101561023657600080fd5b81019080803573ffffffffffffffffffffffffffffffffffffffff169060200190929190803573ffffffffffffffffffffffffffffffffffffffff16906020019092919080359060200190929190505050610780565b60405180821515815260200191505060405180910390f35b6102ac610818565b604051808260ff16815260200191505060405180910390f35b610311600480360360408110156102db57600080fd5b81019080803573ffffffffffffffffffffffffffffffffffffffff1690602001909291908035906020019092919050505061082f565b60405180821515815260200191505060405180910390f35b61036b6004803603602081101561033f57600080fd5b81019080803573ffffffffffffffffffffffffffffffffffffffff1690602001909291905050506108e2565b6040518082815260200191505060405180910390f35b61038961092a565b005b6103d7600480360360408110156103a157600080fd5b81019080803573ffffffffffffffffffffffffffffffffffffffff16906020019092919080359060200190929190505050610b32565b005b6103e1610c03565b604051808273ffffffffffffffffffffffffffffffffffffffff16815260200191505060405180910390f35b610415610c29565b6040518080602001828103825283818151815260200191508051906020019080838360005b8381101561045557808201518184015260208101905061043a565b50505050905090810190601f1680156104825780820380516001836020036101000a031916815260200191505b509250505060405180910390f35b6104dc600480360360408110156104a657600080fd5b81019080803573ffffffffffffffffffffffffffffffffffffffff16906020019092919080359060200190929190505050610ccb565b005b61052a600480360360408110156104f457600080fd5b81019080803573ffffffffffffffffffffffffffffffffffffffff16906020019092919080359060200190929190505050610d9c565b60405180821515815260200191505060405180910390f35b61058e6004803603604081101561055857600080fd5b81019080803573ffffffffffffffffffffffffffffffffffffffff16906020019092919080359060200190929190505050610e69565b60405180821515815260200191505060405180910390f35b6105ae610eff565b60405180821515815260200191505060405180910390f35b6105ce610f12565b604051808273ffffffffffffffffffffffffffffffffffffffff16815260200191505060405180910390f35b61065c6004803603604081101561061057600080fd5b81019080803573ffffffffffffffffffffffffffffffffffffffff169060200190929190803573ffffffffffffffffffffffffffffffffffffffff169060200190929190505050610f38565b6040518082815260200191505060405180910390f35b6106b46004803603602081101561068857600080fd5b81019080803573ffffffffffffffffffffffffffffffffffffffff169060200190929190505050610fbf565b005b606060038054600181600116156101000203166002900480601f01602080910402602001604051908101604052809291908181526020018280546001816001161561010002031660029004801561074e5780601f106107235761010080835404028352916020019161074e565b820191906000526020600020905b81548152906001019060200180831161073157829003601f168201915b5050505050905090565b600061076c61076561118a565b8484611192565b6001905092915050565b6000600254905090565b6000600660149054906101000a900460ff16610804576040517f08c379a00000000000000000000000000000000000000000000000000000000081526004018080602001828103825260168152602001807f4552525f5452414e53464552535f44495341424c45440000000000000000000081525060200191505060405180910390fd5b61080f848484611389565b90509392505050565b6000600560009054906101000a900460ff16905090565b60006108d861083c61118a565b846108d3856001600061084d61118a565b73ffffffffffffffffffffffffffffffffffffffff1673ffffffffffffffffffffffffffffffffffffffff16815260200190815260200160002060008973ffffffffffffffffffffffffffffffffffffffff1673ffffffffffffffffffffffffffffffffffffffff1681526020019081526020016000205461146290919063ffffffff16565b611192565b6001905092915050565b60008060008373ffffffffffffffffffffffffffffffffffffffff1673ffffffffffffffffffffffffffffffffffffffff168152602001908152602001600020549050919050565b600660009054906101000a900473ffffffffffffffffffffffffffffffffffffffff1673ffffffffffffffffffffffffffffffffffffffff163373ffffffffffffffffffffffffffffffffffffffff16146109ed576040517f08c379a00000000000000000000000000000000000000000000000000000000081526004018080602001828103825260118152602001807f4552525f4143434553535f44454e49454400000000000000000000000000000081525060200191505060405180910390fd5b600660009054906101000a900473ffffffffffffffffffffffffffffffffffffffff1673ffffffffffffffffffffffffffffffffffffffff16600560019054906101000a900473ffffffffffffffffffffffffffffffffffffffff1673ffffffffffffffffffffffffffffffffffffffff167f343765429aea5a34b3ff6a3785a98a5abb2597aca87bfbb58632c173d585373a60405160405180910390a3600660009054906101000a900473ffffffffffffffffffffffffffffffffffffffff16600560016101000a81548173ffffffffffffffffffffffffffffffffffffffff021916908373ffffffffffffffffffffffffffffffffffffffff1602179055506000600660006101000a81548173ffffffffffffffffffffffffffffffffffffffff021916908373ffffffffffffffffffffffffffffffffffffffff160217905550565b600560019054906101000a900473ffffffffffffffffffffffffffffffffffffffff1673ffffffffffffffffffffffffffffffffffffffff163373ffffffffffffffffffffffffffffffffffffffff1614610bf5576040517f08c379a00000000000000000000000000000000000000000000000000000000081526004018080602001828103825260118152602001807f4552525f4143434553535f44454e49454400000000000000000000000000000081525060200191505060405180910390fd5b610bff82826114ea565b5050565b600560019054906101000a900473ffffffffffffffffffffffffffffffffffffffff1681565b606060048054600181600116156101000203166002900480601f016020809104026020016040519081016040528092919081815260200182805460018160011615610100020316600290048015610cc15780601f10610c9657610100808354040283529160200191610cc1565b820191906000526020600020905b815481529060010190602001808311610ca457829003601f168201915b5050505050905090565b600560019054906101000a900473ffffffffffffffffffffffffffffffffffffffff1673ffffffffffffffffffffffffffffffffffffffff163373ffffffffffffffffffffffffffffffffffffffff1614610d8e576040517f08c379a00000000000000000000000000000000000000000000000000000000081526004018080602001828103825260118152602001807f4552525f4143434553535f44454e49454400000000000000000000000000000081525060200191505060405180910390fd5b610d9882826116b1565b5050565b6000610e5f610da961118a565b84610e5a85604051806060016040528060258152602001611db66025913960016000610dd361118a565b73ffffffffffffffffffffffffffffffffffffffff1673ffffffffffffffffffffffffffffffffffffffff16815260200190815260200160002060008a73ffffffffffffffffffffffffffffffffffffffff1673ffffffffffffffffffffffffffffffffffffffff168152602001908152602001600020546118759092919063ffffffff16565b611192565b6001905092915050565b6000600660149054906101000a900460ff16610eed576040517f08c379a00000000000000000000000000000000000000000000000000000000081526004018080602001828103825260168152602001807f4552525f5452414e53464552535f44495341424c45440000000000000000000081525060200191505060405180910390fd5b610ef7838361192f565b905092915050565b600660149054906101000a900460ff1681565b600660009054906101000a900473ffffffffffffffffffffffffffffffffffffffff1681565b6000600160008473ffffffffffffffffffffffffffffffffffffffff1673ffffffffffffffffffffffffffffffffffffffff16815260200190815260200160002060008373ffffffffffffffffffffffffffffffffffffffff1673ffffffffffffffffffffffffffffffffffffffff16815260200190815260200160002054905092915050565b600560019054906101000a900473ffffffffffffffffffffffffffffffffffffffff1673ffffffffffffffffffffffffffffffffffffffff163373ffffffffffffffffffffffffffffffffffffffff1614611082576040517f08c379a00000000000000000000000000000000000000000000000000000000081526004018080602001828103825260118152602001807f4552525f4143434553535f44454e49454400000000000000000000000000000081525060200191505060405180910390fd5b600560019054906101000a900473ffffffffffffffffffffffffffffffffffffffff1673ffffffffffffffffffffffffffffffffffffffff168173ffffffffffffffffffffffffffffffffffffffff161415611146576040517f08c379a000000000000000000000000000000000000000000000000000000000815260040180806020018281038252600e8152602001807f4552525f53414d455f4f574e455200000000000000000000000000000000000081525060200191505060405180910390fd5b80600660006101000a81548173ffffffffffffffffffffffffffffffffffffffff021916908373ffffffffffffffffffffffffffffffffffffffff16021790555050565b600033905090565b600073ffffffffffffffffffffffffffffffffffffffff168373ffffffffffffffffffffffffffffffffffffffff161415611218576040517f08c379a0000000000000000000000000000000000000000000000000000000008152600401808060200182810382526024815260200180611d926024913960400191505060405180910390fd5b600073ffffffffffffffffffffffffffffffffffffffff168273ffffffffffffffffffffffffffffffffffffffff16141561129e576040517f08c379a0000000000000000000000000000000000000000000000000000000008152600401808060200182810382526022815260200180611cdc6022913960400191505060405180910390fd5b80600160008573ffffffffffffffffffffffffffffffffffffffff1673ffffffffffffffffffffffffffffffffffffffff16815260200190815260200160002060008473ffffffffffffffffffffffffffffffffffffffff1673ffffffffffffffffffffffffffffffffffffffff168152602001908152602001600020819055508173ffffffffffffffffffffffffffffffffffffffff168373ffffffffffffffffffffffffffffffffffffffff167f8c5be1e5ebec7d5bd14f71427d1e84f3dd0314c0f7b2291e5b200ac8c7c3b925836040518082815260200191505060405180910390a3505050565b600061139684848461194d565b611457846113a261118a565b61145285604051806060016040528060288152602001611d2460289139600160008b73ffffffffffffffffffffffffffffffffffffffff1673ffffffffffffffffffffffffffffffffffffffff168152602001908152602001600020600061140861118a565b73ffffffffffffffffffffffffffffffffffffffff1673ffffffffffffffffffffffffffffffffffffffff168152602001908152602001600020546118759092919063ffffffff16565b611192565b600190509392505050565b6000808284019050838110156114e0576040517f08c379a000000000000000000000000000000000000000000000000000000000815260040180806020018281038252601b8152602001807f536166654d6174683a206164646974696f6e206f766572666c6f77000000000081525060200191505060405180910390fd5b8091505092915050565b600073ffffffffffffffffffffffffffffffffffffffff168273ffffffffffffffffffffffffffffffffffffffff16141561158d576040517f08c379a000000000000000000000000000000000000000000000000000000000815260040180806020018281038252601f8152602001807f45524332303a206d696e7420746f20746865207a65726f20616464726573730081525060200191505060405180910390fd5b61159960008383611c0e565b6115ae8160025461146290919063ffffffff16565b600281905550611605816000808573ffffffffffffffffffffffffffffffffffffffff1673ffffffffffffffffffffffffffffffffffffffff1681526020019081526020016000205461146290919063ffffffff16565b6000808473ffffffffffffffffffffffffffffffffffffffff1673ffffffffffffffffffffffffffffffffffffffff168152602001908152602001600020819055508173ffffffffffffffffffffffffffffffffffffffff16600073ffffffffffffffffffffffffffffffffffffffff167fddf252ad1be2c89b69c2b068fc378daa952ba7f163c4a11628f55a4df523b3ef836040518082815260200191505060405180910390a35050565b600073ffffffffffffffffffffffffffffffffffffffff168273ffffffffffffffffffffffffffffffffffffffff161415611737576040517f08c379a0000000000000000000000000000000000000000000000000000000008152600401808060200182810382526021815260200180611d4c6021913960400191505060405180910390fd5b61174382600083611c0e565b6117ae81604051806060016040528060228152602001611cba602291396000808673ffffffffffffffffffffffffffffffffffffffff1673ffffffffffffffffffffffffffffffffffffffff168152602001908152602001600020546118759092919063ffffffff16565b6000808473ffffffffffffffffffffffffffffffffffffffff1673ffffffffffffffffffffffffffffffffffffffff1681526020019081526020016000208190555061180581600254611c1390919063ffffffff16565b600281905550600073ffffffffffffffffffffffffffffffffffffffff168273ffffffffffffffffffffffffffffffffffffffff167fddf252ad1be2c89b69c2b068fc378daa952ba7f163c4a11628f55a4df523b3ef836040518082815260200191505060405180910390a35050565b6000838311158290611922576040517f08c379a00000000000000000000000000000000000000000000000000000000081526004018080602001828103825283818151815260200191508051906020019080838360005b838110156118e75780820151818401526020810190506118cc565b50505050905090810190601f1680156119145780820380516001836020036101000a031916815260200191505b509250505060405180910390fd5b5082840390509392505050565b600061194361193c61118a565b848461194d565b6001905092915050565b600073ffffffffffffffffffffffffffffffffffffffff168373ffffffffffffffffffffffffffffffffffffffff1614156119d3576040517f08c379a0000000000000000000000000000000000000000000000000000000008152600401808060200182810382526025815260200180611d6d6025913960400191505060405180910390fd5b600073ffffffffffffffffffffffffffffffffffffffff168273ffffffffffffffffffffffffffffffffffffffff161415611a59576040517f08c379a0000000000000000000000000000000000000000000000000000000008152600401808060200182810382526023815260200180611c976023913960400191505060405180910390fd5b611a64838383611c0e565b611acf81604051806060016040528060268152602001611cfe602691396000808773ffffffffffffffffffffffffffffffffffffffff1673ffffffffffffffffffffffffffffffffffffffff168152602001908152602001600020546118759092919063ffffffff16565b6000808573ffffffffffffffffffffffffffffffffffffffff1673ffffffffffffffffffffffffffffffffffffffff16815260200190815260200160002081905550611b62816000808573ffffffffffffffffffffffffffffffffffffffff1673ffffffffffffffffffffffffffffffffffffffff1681526020019081526020016000205461146290919063ffffffff16565b6000808473ffffffffffffffffffffffffffffffffffffffff1673ffffffffffffffffffffffffffffffffffffffff168152602001908152602001600020819055508173ffffffffffffffffffffffffffffffffffffffff168373ffffffffffffffffffffffffffffffffffffffff167fddf252ad1be2c89b69c2b068fc378daa952ba7f163c4a11628f55a4df523b3ef836040518082815260200191505060405180910390a3505050565b505050565b600082821115611c8b576040517f08c379a000000000000000000000000000000000000000000000000000000000815260040180806020018281038252601e8152602001807f536166654d6174683a207375627472616374696f6e206f766572666c6f77000081525060200191505060405180910390fd5b81830390509291505056fe45524332303a207472616e7366657220746f20746865207a65726f206164647265737345524332303a206275726e20616d6f756e7420657863656564732062616c616e636545524332303a20617070726f766520746f20746865207a65726f206164647265737345524332303a207472616e7366657220616d6f756e7420657863656564732062616c616e636545524332303a207472616e7366657220616d6f756e74206578636565647320616c6c6f77616e636545524332303a206275726e2066726f6d20746865207a65726f206164647265737345524332303a207472616e736665722066726f6d20746865207a65726f206164647265737345524332303a20617070726f76652066726f6d20746865207a65726f206164647265737345524332303a2064656372656173656420616c6c6f77616e63652062656c6f77207a65726fa26469706673582212203322b8777a8351549fa3c530e5bea753d381e22f85c41a071a251a4ed2132f9f64736f6c634300060c0033",
  "immutableReferences": {},
  "source": "// SPDX-License-Identifier: MIT\npragma solidity 0.6.12;\n\nimport \"@openzeppelin/contracts/token/ERC20/ERC20.sol\";\n\nimport \"../IMintableToken.sol\";\nimport \"./Claimable.sol\";\n\n/// @title Mintable Token\ncontract MintableToken is IMintableToken, ERC20, Claimable {\n    bool public transfersEnabled = true;\n\n    /// @dev initializes a new MintableToken instance.\n    ///\n    /// @param name token name.\n    /// @param symbol token short symbol.\n    ///\n    constructor(string memory name, string memory symbol) public ERC20(name, symbol) {}\n\n    modifier transfersAllowed {\n        require(transfersEnabled, \"ERR_TRANSFERS_DISABLED\");\n\n        _;\n    }\n\n    /// @dev Increases the token supply and sends the new tokens to the given account.\n    ///\n    /// @param to Account to receive the new amount.\n    /// @param amount Amount to increase the supply by.\n    ///\n    function issue(address to, uint256 amount) public override ownerOnly {\n        _mint(to, amount);\n    }\n\n    /// @dev Removes tokens from the given account and decreases the token supply.\n    ///\n    /// @param from Account to remove the amount from.\n    /// @param amount Amount to decrease the supply by.\n    ///\n    function destroy(address from, uint256 amount) public override ownerOnly {\n        _burn(from, amount);\n    }\n\n    /// @dev Transfers tokens.\n    /// @param to Target address.\n    /// @param value Amount to transfer.\n    ///\n    /// @return true if the transfer was successful, false if it wasn't\n    ///\n    function transfer(address to, uint256 value) public override(IERC20, ERC20) transfersAllowed returns (bool) {\n        return super.transfer(to, value);\n    }\n\n    /// @dev Transfers tokens from another account.\n\n    /// @param from Source address.\n    /// @param to Target address.\n    /// @param value Transfer amount.\n    ///\n    /// @return true if the transfer was successful, false if it wasn't\n    function transferFrom(\n        address from,\n        address to,\n        uint256 value\n    ) public override(IERC20, ERC20) transfersAllowed returns (bool) {\n        return super.transferFrom(from, to, value);\n    }\n}\n",
  "sourcePath": "D:\\Work Space\\bancor_project\\token-governance\\contracts\\tests\\MintableToken.sol",
  "compiler": {
    "name": "solc",
    "version": "0.6.12+commit.27d51765.Emscripten.clang"
  },
  "schemaVersion": "3.4.3",
  "updatedAt": "2021-08-19T14:48:28.559Z",
  "devdoc": {
    "kind": "dev",
    "methods": {
      "acceptOwnership()": {
        "details": "Used by a new owner to accept an ownership transfer."
      },
      "allowance(address,address)": {
        "details": "See {IERC20-allowance}."
      },
      "approve(address,uint256)": {
        "details": "See {IERC20-approve}. Requirements: - `spender` cannot be the zero address."
      },
      "balanceOf(address)": {
        "details": "See {IERC20-balanceOf}."
      },
      "constructor": {
        "details": "initializes a new MintableToken instance.",
        "params": {
          "name": "token name.",
          "symbol": "token short symbol."
        }
      },
      "decimals()": {
        "details": "Returns the number of decimals used to get its user representation. For example, if `decimals` equals `2`, a balance of `505` tokens should be displayed to a user as `5,05` (`505 / 10 ** 2`). Tokens usually opt for a value of 18, imitating the relationship between Ether and Wei. This is the value {ERC20} uses, unless {_setupDecimals} is called. NOTE: This information is only used for _display_ purposes: it in no way affects any of the arithmetic of the contract, including {IERC20-balanceOf} and {IERC20-transfer}."
      },
      "decreaseAllowance(address,uint256)": {
        "details": "Atomically decreases the allowance granted to `spender` by the caller. This is an alternative to {approve} that can be used as a mitigation for problems described in {IERC20-approve}. Emits an {Approval} event indicating the updated allowance. Requirements: - `spender` cannot be the zero address. - `spender` must have allowance for the caller of at least `subtractedValue`."
      },
      "destroy(address,uint256)": {
        "details": "Removes tokens from the given account and decreases the token supply.",
        "params": {
          "amount": "Amount to decrease the supply by.",
          "from": "Account to remove the amount from."
        }
      },
      "increaseAllowance(address,uint256)": {
        "details": "Atomically increases the allowance granted to `spender` by the caller. This is an alternative to {approve} that can be used as a mitigation for problems described in {IERC20-approve}. Emits an {Approval} event indicating the updated allowance. Requirements: - `spender` cannot be the zero address."
      },
      "issue(address,uint256)": {
        "details": "Increases the token supply and sends the new tokens to the given account.",
        "params": {
          "amount": "Amount to increase the supply by.",
          "to": "Account to receive the new amount."
        }
      },
      "name()": {
        "details": "Returns the name of the token."
      },
      "symbol()": {
        "details": "Returns the symbol of the token, usually a shorter version of the name."
      },
      "totalSupply()": {
        "details": "See {IERC20-totalSupply}."
      },
      "transfer(address,uint256)": {
        "details": "Transfers tokens.",
        "params": {
          "to": "Target address.",
          "value": "Amount to transfer."
        },
        "returns": {
          "_0": "true if the transfer was successful, false if it wasn't"
        }
      },
      "transferFrom(address,address,uint256)": {
        "params": {
          "from": "Source address.",
          "to": "Target address.",
          "value": "Transfer amount."
        },
        "returns": {
          "_0": "true if the transfer was successful, false if it wasn't"
        }
      },
      "transferOwnership(address)": {
        "details": "Allows transferring the contract ownership.",
        "params": {
          "newOwnerCandidate": "New contract owner candidate."
        }
      }
    },
    "title": "Mintable Token",
    "version": 1
  },
  "userdoc": {
    "kind": "user",
    "methods": {},
    "version": 1
  }
}