{
  "contractName": "BancorX",
  "abi": [
    {
      "inputs": [
        {
          "internalType": "uint256",
          "name": "_maxLockLimit",
          "type": "uint256"
        },
        {
          "internalType": "uint256",
          "name": "_maxReleaseLimit",
          "type": "uint256"
        },
        {
          "internalType": "uint256",
          "name": "_minLimit",
          "type": "uint256"
        },
        {
          "internalType": "uint256",
          "name": "_limitIncPerBlock",
          "type": "uint256"
        },
        {
          "internalType": "uint8",
          "name": "_minRequiredReports",
          "type": "uint8"
        },
        {
          "internalType": "contract IContractRegistry",
          "name": "_registry",
          "type": "address"
        },
        {
          "internalType": "contract IERC20",
          "name": "_token",
          "type": "address"
        }
      ],
      "stateMutability": "nonpayable",
      "type": "constructor"
    },
    {
      "anonymous": false,
      "inputs": [
        {
          "indexed": true,
          "internalType": "address",
          "name": "_prevOwner",
          "type": "address"
        },
        {
          "indexed": true,
          "internalType": "address",
          "name": "_newOwner",
          "type": "address"
        }
      ],
      "name": "OwnerUpdate",
      "type": "event"
    },
    {
      "anonymous": false,
      "inputs": [
        {
          "indexed": true,
          "internalType": "address",
          "name": "_from",
          "type": "address"
        },
        {
          "indexed": false,
          "internalType": "uint256",
          "name": "_amount",
          "type": "uint256"
        }
      ],
      "name": "TokensLock",
      "type": "event"
    },
    {
      "anonymous": false,
      "inputs": [
        {
          "indexed": true,
          "internalType": "address",
          "name": "_to",
          "type": "address"
        },
        {
          "indexed": false,
          "internalType": "uint256",
          "name": "_amount",
          "type": "uint256"
        }
      ],
      "name": "TokensRelease",
      "type": "event"
    },
    {
      "anonymous": false,
      "inputs": [
        {
          "indexed": true,
          "internalType": "address",
          "name": "_reporter",
          "type": "address"
        },
        {
          "indexed": false,
          "internalType": "bytes32",
          "name": "_fromBlockchain",
          "type": "bytes32"
        },
        {
          "indexed": false,
          "internalType": "uint256",
          "name": "_txId",
          "type": "uint256"
        },
        {
          "indexed": false,
          "internalType": "address",
          "name": "_to",
          "type": "address"
        },
        {
          "indexed": false,
          "internalType": "uint256",
          "name": "_amount",
          "type": "uint256"
        },
        {
          "indexed": false,
          "internalType": "uint256",
          "name": "_xTransferId",
          "type": "uint256"
        }
      ],
      "name": "TxReport",
      "type": "event"
    },
    {
      "anonymous": false,
      "inputs": [
        {
          "indexed": true,
          "internalType": "address",
          "name": "_from",
          "type": "address"
        },
        {
          "indexed": false,
          "internalType": "bytes32",
          "name": "_toBlockchain",
          "type": "bytes32"
        },
        {
          "indexed": true,
          "internalType": "bytes32",
          "name": "_to",
          "type": "bytes32"
        },
        {
          "indexed": false,
          "internalType": "uint256",
          "name": "_amount",
          "type": "uint256"
        },
        {
          "indexed": false,
          "internalType": "uint256",
          "name": "_id",
          "type": "uint256"
        }
      ],
      "name": "XTransfer",
      "type": "event"
    },
    {
      "anonymous": false,
      "inputs": [
        {
          "indexed": false,
          "internalType": "address",
          "name": "_to",
          "type": "address"
        },
        {
          "indexed": false,
          "internalType": "uint256",
          "name": "_id",
          "type": "uint256"
        }
      ],
      "name": "XTransferComplete",
      "type": "event"
    },
    {
      "inputs": [],
      "name": "acceptOwnership",
      "outputs": [],
      "stateMutability": "nonpayable",
      "type": "function"
    },
    {
      "inputs": [],
      "name": "limitIncPerBlock",
      "outputs": [
        {
          "internalType": "uint256",
          "name": "",
          "type": "uint256"
        }
      ],
      "stateMutability": "view",
      "type": "function"
    },
    {
      "inputs": [],
      "name": "maxLockLimit",
      "outputs": [
        {
          "internalType": "uint256",
          "name": "",
          "type": "uint256"
        }
      ],
      "stateMutability": "view",
      "type": "function"
    },
    {
      "inputs": [],
      "name": "maxReleaseLimit",
      "outputs": [
        {
          "internalType": "uint256",
          "name": "",
          "type": "uint256"
        }
      ],
      "stateMutability": "view",
      "type": "function"
    },
    {
      "inputs": [],
      "name": "minLimit",
      "outputs": [
        {
          "internalType": "uint256",
          "name": "",
          "type": "uint256"
        }
      ],
      "stateMutability": "view",
      "type": "function"
    },
    {
      "inputs": [],
      "name": "minRequiredReports",
      "outputs": [
        {
          "internalType": "uint8",
          "name": "",
          "type": "uint8"
        }
      ],
      "stateMutability": "view",
      "type": "function"
    },
    {
      "inputs": [],
      "name": "newOwner",
      "outputs": [
        {
          "internalType": "address",
          "name": "",
          "type": "address"
        }
      ],
      "stateMutability": "view",
      "type": "function"
    },
    {
      "inputs": [],
      "name": "onlyOwnerCanUpdateRegistry",
      "outputs": [
        {
          "internalType": "bool",
          "name": "",
          "type": "bool"
        }
      ],
      "stateMutability": "view",
      "type": "function"
    },
    {
      "inputs": [],
      "name": "owner",
      "outputs": [
        {
          "internalType": "address",
          "name": "",
          "type": "address"
        }
      ],
      "stateMutability": "view",
      "type": "function"
    },
    {
      "inputs": [],
      "name": "prevLockBlockNumber",
      "outputs": [
        {
          "internalType": "uint256",
          "name": "",
          "type": "uint256"
        }
      ],
      "stateMutability": "view",
      "type": "function"
    },
    {
      "inputs": [],
      "name": "prevLockLimit",
      "outputs": [
        {
          "internalType": "uint256",
          "name": "",
          "type": "uint256"
        }
      ],
      "stateMutability": "view",
      "type": "function"
    },
    {
      "inputs": [],
      "name": "prevRegistry",
      "outputs": [
        {
          "internalType": "contract IContractRegistry",
          "name": "",
          "type": "address"
        }
      ],
      "stateMutability": "view",
      "type": "function"
    },
    {
      "inputs": [],
      "name": "prevReleaseBlockNumber",
      "outputs": [
        {
          "internalType": "uint256",
          "name": "",
          "type": "uint256"
        }
      ],
      "stateMutability": "view",
      "type": "function"
    },
    {
      "inputs": [],
      "name": "prevReleaseLimit",
      "outputs": [
        {
          "internalType": "uint256",
          "name": "",
          "type": "uint256"
        }
      ],
      "stateMutability": "view",
      "type": "function"
    },
    {
      "inputs": [],
      "name": "registry",
      "outputs": [
        {
          "internalType": "contract IContractRegistry",
          "name": "",
          "type": "address"
        }
      ],
      "stateMutability": "view",
      "type": "function"
    },
    {
      "inputs": [
        {
          "internalType": "uint256",
          "name": "",
          "type": "uint256"
        },
        {
          "internalType": "address",
          "name": "",
          "type": "address"
        }
      ],
      "name": "reportedTxs",
      "outputs": [
        {
          "internalType": "bool",
          "name": "",
          "type": "bool"
        }
      ],
      "stateMutability": "view",
      "type": "function"
    },
    {
      "inputs": [
        {
          "internalType": "address",
          "name": "",
          "type": "address"
        }
      ],
      "name": "reporters",
      "outputs": [
        {
          "internalType": "bool",
          "name": "",
          "type": "bool"
        }
      ],
      "stateMutability": "view",
      "type": "function"
    },
    {
      "inputs": [],
      "name": "reportingEnabled",
      "outputs": [
        {
          "internalType": "bool",
          "name": "",
          "type": "bool"
        }
      ],
      "stateMutability": "view",
      "type": "function"
    },
    {
      "inputs": [],
      "name": "restoreRegistry",
      "outputs": [],
      "stateMutability": "nonpayable",
      "type": "function"
    },
    {
      "inputs": [
        {
          "internalType": "bool",
          "name": "_onlyOwnerCanUpdateRegistry",
          "type": "bool"
        }
      ],
      "name": "restrictRegistryUpdate",
      "outputs": [],
      "stateMutability": "nonpayable",
      "type": "function"
    },
    {
      "inputs": [],
      "name": "token",
      "outputs": [
        {
          "internalType": "contract IERC20",
          "name": "",
          "type": "address"
        }
      ],
      "stateMutability": "view",
      "type": "function"
    },
    {
      "inputs": [
        {
          "internalType": "uint256",
          "name": "",
          "type": "uint256"
        }
      ],
      "name": "transactionIds",
      "outputs": [
        {
          "internalType": "uint256",
          "name": "",
          "type": "uint256"
        }
      ],
      "stateMutability": "view",
      "type": "function"
    },
    {
      "inputs": [
        {
          "internalType": "uint256",
          "name": "",
          "type": "uint256"
        }
      ],
      "name": "transactions",
      "outputs": [
        {
          "internalType": "uint256",
          "name": "amount",
          "type": "uint256"
        },
        {
          "internalType": "bytes32",
          "name": "fromBlockchain",
          "type": "bytes32"
        },
        {
          "internalType": "address",
          "name": "to",
          "type": "address"
        },
        {
          "internalType": "uint8",
          "name": "numOfReports",
          "type": "uint8"
        },
        {
          "internalType": "bool",
          "name": "completed",
          "type": "bool"
        }
      ],
      "stateMutability": "view",
      "type": "function"
    },
    {
      "inputs": [
        {
          "internalType": "address",
          "name": "_newOwner",
          "type": "address"
        }
      ],
      "name": "transferOwnership",
      "outputs": [],
      "stateMutability": "nonpayable",
      "type": "function"
    },
    {
      "inputs": [],
      "name": "updateRegistry",
      "outputs": [],
      "stateMutability": "nonpayable",
      "type": "function"
    },
    {
      "inputs": [],
      "name": "version",
      "outputs": [
        {
          "internalType": "uint16",
          "name": "",
          "type": "uint16"
        }
      ],
      "stateMutability": "view",
      "type": "function"
    },
    {
      "inputs": [
        {
          "internalType": "contract IReserveToken",
          "name": "reserveToken",
          "type": "address"
        },
        {
          "internalType": "address payable",
          "name": "to",
          "type": "address"
        },
        {
          "internalType": "uint256",
          "name": "amount",
          "type": "uint256"
        }
      ],
      "name": "withdrawTokens",
      "outputs": [],
      "stateMutability": "nonpayable",
      "type": "function"
    },
    {
      "inputs": [
        {
          "internalType": "contract IReserveToken[]",
          "name": "reserveTokens",
          "type": "address[]"
        },
        {
          "internalType": "address payable",
          "name": "to",
          "type": "address"
        },
        {
          "internalType": "uint256[]",
          "name": "amounts",
          "type": "uint256[]"
        }
      ],
      "name": "withdrawTokensMultiple",
      "outputs": [],
      "stateMutability": "nonpayable",
      "type": "function"
    },
    {
      "inputs": [],
      "name": "xTransfersEnabled",
      "outputs": [
        {
          "internalType": "bool",
          "name": "",
          "type": "bool"
        }
      ],
      "stateMutability": "view",
      "type": "function"
    },
    {
      "stateMutability": "payable",
      "type": "receive"
    },
    {
      "inputs": [
        {
          "internalType": "uint256",
          "name": "_maxLockLimit",
          "type": "uint256"
        }
      ],
      "name": "setMaxLockLimit",
      "outputs": [],
      "stateMutability": "nonpayable",
      "type": "function"
    },
    {
      "inputs": [
        {
          "internalType": "uint256",
          "name": "_maxReleaseLimit",
          "type": "uint256"
        }
      ],
      "name": "setMaxReleaseLimit",
      "outputs": [],
      "stateMutability": "nonpayable",
      "type": "function"
    },
    {
      "inputs": [
        {
          "internalType": "uint256",
          "name": "_minLimit",
          "type": "uint256"
        }
      ],
      "name": "setMinLimit",
      "outputs": [],
      "stateMutability": "nonpayable",
      "type": "function"
    },
    {
      "inputs": [
        {
          "internalType": "uint256",
          "name": "_limitIncPerBlock",
          "type": "uint256"
        }
      ],
      "name": "setLimitIncPerBlock",
      "outputs": [],
      "stateMutability": "nonpayable",
      "type": "function"
    },
    {
      "inputs": [
        {
          "internalType": "uint8",
          "name": "_minRequiredReports",
          "type": "uint8"
        }
      ],
      "name": "setMinRequiredReports",
      "outputs": [],
      "stateMutability": "nonpayable",
      "type": "function"
    },
    {
      "inputs": [
        {
          "internalType": "address",
          "name": "_reporter",
          "type": "address"
        },
        {
          "internalType": "bool",
          "name": "_active",
          "type": "bool"
        }
      ],
      "name": "setReporter",
      "outputs": [],
      "stateMutability": "nonpayable",
      "type": "function"
    },
    {
      "inputs": [
        {
          "internalType": "bool",
          "name": "_enable",
          "type": "bool"
        }
      ],
      "name": "enableXTransfers",
      "outputs": [],
      "stateMutability": "nonpayable",
      "type": "function"
    },
    {
      "inputs": [
        {
          "internalType": "bool",
          "name": "_enable",
          "type": "bool"
        }
      ],
      "name": "enableReporting",
      "outputs": [],
      "stateMutability": "nonpayable",
      "type": "function"
    },
    {
      "inputs": [
        {
          "internalType": "address[]",
          "name": "_reporters",
          "type": "address[]"
        }
      ],
      "name": "upgrade",
      "outputs": [],
      "stateMutability": "nonpayable",
      "type": "function"
    },
    {
      "inputs": [
        {
          "internalType": "bytes32",
          "name": "_toBlockchain",
          "type": "bytes32"
        },
        {
          "internalType": "bytes32",
          "name": "_to",
          "type": "bytes32"
        },
        {
          "internalType": "uint256",
          "name": "_amount",
          "type": "uint256"
        },
        {
          "internalType": "uint256",
          "name": "_id",
          "type": "uint256"
        }
      ],
      "name": "xTransfer",
      "outputs": [],
      "stateMutability": "nonpayable",
      "type": "function"
    },
    {
      "inputs": [
        {
          "internalType": "bytes32",
          "name": "_toBlockchain",
          "type": "bytes32"
        },
        {
          "internalType": "bytes32",
          "name": "_to",
          "type": "bytes32"
        },
        {
          "internalType": "uint256",
          "name": "_amount",
          "type": "uint256"
        }
      ],
      "name": "xTransfer",
      "outputs": [],
      "stateMutability": "nonpayable",
      "type": "function"
    },
    {
      "inputs": [
        {
          "internalType": "bytes32",
          "name": "_fromBlockchain",
          "type": "bytes32"
        },
        {
          "internalType": "uint256",
          "name": "_txId",
          "type": "uint256"
        },
        {
          "internalType": "address",
          "name": "_to",
          "type": "address"
        },
        {
          "internalType": "uint256",
          "name": "_amount",
          "type": "uint256"
        },
        {
          "internalType": "uint256",
          "name": "_xTransferId",
          "type": "uint256"
        }
      ],
      "name": "reportTx",
      "outputs": [],
      "stateMutability": "nonpayable",
      "type": "function"
    },
    {
      "inputs": [
        {
          "internalType": "uint256",
          "name": "_xTransferId",
          "type": "uint256"
        },
        {
          "internalType": "address",
          "name": "_for",
          "type": "address"
        }
      ],
      "name": "getXTransferAmount",
      "outputs": [
        {
          "internalType": "uint256",
          "name": "",
          "type": "uint256"
        }
      ],
      "stateMutability": "view",
      "type": "function"
    },
    {
      "inputs": [],
      "name": "getCurrentLockLimit",
      "outputs": [
        {
          "internalType": "uint256",
          "name": "",
          "type": "uint256"
        }
      ],
      "stateMutability": "view",
      "type": "function"
    },
    {
      "inputs": [],
      "name": "getCurrentReleaseLimit",
      "outputs": [
        {
          "internalType": "uint256",
          "name": "",
          "type": "uint256"
        }
      ],
      "stateMutability": "view",
      "type": "function"
    }
  ],
  "bytecode": "0x60806040526001600c60156101000a81548160ff0219169083151502179055506001600c60166101000a81548160ff0219169083151502179055503480156200004757600080fd5b5060405162003b3e38038062003b3e833981810160405260e08110156200006d57600080fd5b810190808051906020019092919080519060200190929190805190602001909291908051906020019092919080519060200190929190805190602001909291908051906020019092919050505081336000806101000a81548173ffffffffffffffffffffffffffffffffffffffff021916908373ffffffffffffffffffffffffffffffffffffffff160217905550806200010d816200032b60201b60201c565b81600260006101000a81548173ffffffffffffffffffffffffffffffffffffffff021916908373ffffffffffffffffffffffffffffffffffffffff16021790555081600360006101000a81548173ffffffffffffffffffffffffffffffffffffffff021916908373ffffffffffffffffffffffffffffffffffffffff160217905550505086620001a381620003d260201b60201c565b86620001b581620003d260201b60201c565b86620001c781620003d260201b60201c565b86620001d981620003d260201b60201c565b8660ff16620001ee81620003d260201b60201c565b8562000200816200044c60201b60201c565b8c8b111580156200021157508b8b11155b62000284576040517f08c379a00000000000000000000000000000000000000000000000000000000081526004018080602001828103825260158152602001807f4552525f494e56414c49445f4d494e5f4c494d4954000000000000000000000081525060200191505060405180910390fd5b8c6004819055508b6005819055508a6006819055508960098190555088600c60006101000a81548160ff021916908360ff1602179055508c6007819055508b60088190555043600a8190555043600b8190555086600c60016101000a81548173ffffffffffffffffffffffffffffffffffffffff021916908373ffffffffffffffffffffffffffffffffffffffff160217905550505050505050505050505050506200052c565b600073ffffffffffffffffffffffffffffffffffffffff168173ffffffffffffffffffffffffffffffffffffffff161415620003cf576040517f08c379a00000000000000000000000000000000000000000000000000000000081526004018080602001828103825260138152602001807f4552525f494e56414c49445f414444524553530000000000000000000000000081525060200191505060405180910390fd5b50565b6000811162000449576040517f08c379a000000000000000000000000000000000000000000000000000000000815260040180806020018281038252600e8152602001807f4552525f5a45524f5f56414c554500000000000000000000000000000000000081525060200191505060405180910390fd5b50565b600073ffffffffffffffffffffffffffffffffffffffff168173ffffffffffffffffffffffffffffffffffffffff1614158015620004b657503073ffffffffffffffffffffffffffffffffffffffff168173ffffffffffffffffffffffffffffffffffffffff1614155b62000529576040517f08c379a000000000000000000000000000000000000000000000000000000000815260040180806020018281038252601c8152602001807f4552525f494e56414c49445f45585445524e414c5f414444524553530000000081525060200191505060405180910390fd5b50565b613602806200053c6000396000f3fe60806040526004361061026b5760003560e01c80637b10399911610144578063b4a176d3116100b6578063e36f8dc51161007a578063e36f8dc514610d24578063ed1d73a614610d73578063f2fde38b14610db0578063f7385f7614610e01578063fbb2469214610e2c578063fc0c546a14610e5957610272565b8063b4a176d314610c06578063bf28ece414610c1d578063ca27e01114610c58578063d4ee1d9014610c86578063e1bb513314610cc757610272565b80639ace38c2116101085780639ace38c214610a33578063a50c326c14610ab9578063a5c670ca14610af4578063a8c36a9014610b31578063aafd6b7614610b5c578063af2b961814610bcb57610272565b80637b103999146108d55780637b15879c146109165780638544c52d146109545780638da5cb5b146109c55780639390701c14610a0657610272565b806349282538116101dd5780635e35359e116101a15780635e35359e1461072357806361cd756e1461079e5780636dc6a01b146107df5780636ec6d4a61461085857806372f43d191461089357806379ba5097146108be57610272565b8063492825381461063857806349d10b64146106875780634b3e475c1461069e57806352e94ce3146106c957806354fd4d50146106f457610272565b80631aff29eb1161022f5780631aff29eb146104ca5780631e04a593146104f55780631fd8088d146105205780632cc1cd9e1461054b5780632fe8a6ad146105b2578063427c0374146105df57610272565b80630183592b14610277578063024c7ec71461033c57806308506df71461037957806316c76c2714610474578063199674391461049f57610272565b3661027257005b600080fd5b34801561028357600080fd5b5061033a6004803603602081101561029a57600080fd5b81019080803590602001906401000000008111156102b757600080fd5b8201836020820111156102c957600080fd5b803590602001918460208302840111640100000000831117156102eb57600080fd5b919080806020026020016040519081016040528093929190818152602001838360200280828437600081840152601f19601f820116905080830192505050505050509192919290505050610e9a565b005b34801561034857600080fd5b506103776004803603602081101561035f57600080fd5b81019080803515159060200190929190505050610f9d565b005b34801561038557600080fd5b506104726004803603606081101561039c57600080fd5b81019080803590602001906401000000008111156103b957600080fd5b8201836020820111156103cb57600080fd5b803590602001918460208302840111640100000000831117156103ed57600080fd5b9091929391929390803573ffffffffffffffffffffffffffffffffffffffff1690602001909291908035906020019064010000000081111561042e57600080fd5b82018360208201111561044057600080fd5b8035906020019184602083028401116401000000008311171561046257600080fd5b9091929391929390505050610fc2565b005b34801561048057600080fd5b506104896110d9565b6040518082815260200191505060405180910390f35b3480156104ab57600080fd5b506104b46110df565b6040518082815260200191505060405180910390f35b3480156104d657600080fd5b506104df61113e565b6040518082815260200191505060405180910390f35b34801561050157600080fd5b5061050a611144565b6040518082815260200191505060405180910390f35b34801561052c57600080fd5b506105356111a3565b6040518082815260200191505060405180910390f35b34801561055757600080fd5b5061059a6004803603602081101561056e57600080fd5b81019080803573ffffffffffffffffffffffffffffffffffffffff1690602001909291905050506111a9565b60405180821515815260200191505060405180910390f35b3480156105be57600080fd5b506105c76111c9565b60405180821515815260200191505060405180910390f35b3480156105eb57600080fd5b506106366004803603608081101561060257600080fd5b81019080803590602001909291908035906020019092919080359060200190929190803590602001909291905050506111dc565b005b34801561064457600080fd5b506106856004803603606081101561065b57600080fd5b81019080803590602001909291908035906020019092919080359060200190929190505050611303565b005b34801561069357600080fd5b5061069c61142a565b005b3480156106aa57600080fd5b506106b3611822565b6040518082815260200191505060405180910390f35b3480156106d557600080fd5b506106de611828565b6040518082815260200191505060405180910390f35b34801561070057600080fd5b5061070961182e565b604051808261ffff16815260200191505060405180910390f35b34801561072f57600080fd5b5061079c6004803603606081101561074657600080fd5b81019080803573ffffffffffffffffffffffffffffffffffffffff169060200190929190803573ffffffffffffffffffffffffffffffffffffffff16906020019092919080359060200190929190505050611833565b005b3480156107aa57600080fd5b506107b3611876565b604051808273ffffffffffffffffffffffffffffffffffffffff16815260200191505060405180910390f35b3480156107eb57600080fd5b50610856600480360360a081101561080257600080fd5b810190808035906020019092919080359060200190929190803573ffffffffffffffffffffffffffffffffffffffff169060200190929190803590602001909291908035906020019092919050505061189c565b005b34801561086457600080fd5b506108916004803603602081101561087b57600080fd5b8101908080359060200190929190505050611ebc565b005b34801561089f57600080fd5b506108a8611f5f565b6040518082815260200191505060405180910390f35b3480156108ca57600080fd5b506108d3611f65565b005b3480156108e157600080fd5b506108ea61216a565b604051808273ffffffffffffffffffffffffffffffffffffffff16815260200191505060405180910390f35b34801561092257600080fd5b506109526004803603602081101561093957600080fd5b81019080803560ff169060200190929190505050612190565b005b34801561096057600080fd5b506109ad6004803603604081101561097757600080fd5b8101908080359060200190929190803573ffffffffffffffffffffffffffffffffffffffff1690602001909291905050506121c4565b60405180821515815260200191505060405180910390f35b3480156109d157600080fd5b506109da6121f3565b604051808273ffffffffffffffffffffffffffffffffffffffff16815260200191505060405180910390f35b348015610a1257600080fd5b50610a1b612217565b60405180821515815260200191505060405180910390f35b348015610a3f57600080fd5b50610a6c60048036036020811015610a5657600080fd5b810190808035906020019092919050505061222a565b604051808681526020018581526020018473ffffffffffffffffffffffffffffffffffffffff1681526020018360ff16815260200182151581526020019550505050505060405180910390f35b348015610ac557600080fd5b50610af260048036036020811015610adc57600080fd5b810190808035906020019092919050505061229a565b005b348015610b0057600080fd5b50610b2f60048036036020811015610b1757600080fd5b810190808035151590602001909291905050506122b7565b005b348015610b3d57600080fd5b50610b466122dc565b6040518082815260200191505060405180910390f35b348015610b6857600080fd5b50610bb560048036036040811015610b7f57600080fd5b8101908080359060200190929190803573ffffffffffffffffffffffffffffffffffffffff1690602001909291905050506122e2565b6040518082815260200191505060405180910390f35b348015610bd757600080fd5b50610c0460048036036020811015610bee57600080fd5b8101908080359060200190929190505050612474565b005b348015610c1257600080fd5b50610c1b612491565b005b348015610c2957600080fd5b50610c5660048036036020811015610c4057600080fd5b81019080803590602001909291905050506124fe565b005b348015610c6457600080fd5b50610c6d61251b565b604051808260ff16815260200191505060405180910390f35b348015610c9257600080fd5b50610c9b61252e565b604051808273ffffffffffffffffffffffffffffffffffffffff16815260200191505060405180910390f35b348015610cd357600080fd5b50610d2260048036036040811015610cea57600080fd5b81019080803573ffffffffffffffffffffffffffffffffffffffff169060200190929190803515159060200190929190505050612554565b005b348015610d3057600080fd5b50610d5d60048036036020811015610d4757600080fd5b81019080803590602001909291905050506125b7565b6040518082815260200191505060405180910390f35b348015610d7f57600080fd5b50610dae60048036036020811015610d9657600080fd5b810190808035151590602001909291905050506125cf565b005b348015610dbc57600080fd5b50610dff60048036036020811015610dd357600080fd5b81019080803573ffffffffffffffffffffffffffffffffffffffff1690602001909291905050506125f4565b005b348015610e0d57600080fd5b50610e16612702565b6040518082815260200191505060405180910390f35b348015610e3857600080fd5b50610e41612708565b60405180821515815260200191505060405180910390f35b348015610e6557600080fd5b50610e6e61271b565b604051808273ffffffffffffffffffffffffffffffffffffffff16815260200191505060405180910390f35b610ea2612741565b6000610ecd7f42616e636f725855706772616465720000000000000000000000000000000000612804565b9050610ed8816125f4565b8073ffffffffffffffffffffffffffffffffffffffff1663546872cc6004846040518363ffffffff1660e01b8152600401808361ffff16815260200180602001828103825283818151815260200191508051906020019060200280838360005b83811015610f53578082015181840152602081019050610f38565b505050509050019350505050600060405180830381600087803b158015610f7957600080fd5b505af1158015610f8d573d6000803e3d6000fd5b50505050610f99611f65565b5050565b610fa5612741565b80600360146101000a81548160ff02191690831515021790555050565b610fca612741565b82610fd4816128bb565b6000868690509050838390508114611054576040517f08c379a00000000000000000000000000000000000000000000000000000000081526004018080602001828103825260128152602001807f4552525f494e56414c49445f4c454e475448000000000000000000000000000081525060200191505060405180910390fd5b60005b818110156110cf576110c48686868481811061106f57fe5b905060200201358a8a8581811061108257fe5b9050602002013573ffffffffffffffffffffffffffffffffffffffff1673ffffffffffffffffffffffffffffffffffffffff166129619092919063ffffffff16565b806001019050611057565b5050505050505050565b60075481565b60008061111f61110e600954611100600a5443612a0390919063ffffffff16565b612a8690919063ffffffff16565b600754612b0c90919063ffffffff16565b90506004548111156111365760045491505061113b565b809150505b90565b600a5481565b600080611184611173600954611165600b5443612a0390919063ffffffff16565b612a8690919063ffffffff16565b600854612b0c90919063ffffffff16565b905060055481111561119b576005549150506111a0565b809150505b90565b60065481565b60106020528060005260406000206000915054906101000a900460ff1681565b600360149054906101000a900460ff1681565b6111e4612b94565b60006111ee6110df565b905060065483101580156112025750808311155b611274576040517f08c379a00000000000000000000000000000000000000000000000000000000081526004018080602001828103825260138152602001807f4552525f414d4f554e545f544f4f5f484947480000000000000000000000000081525060200191505060405180910390fd5b61127d83612c18565b6112908382612a0390919063ffffffff16565b60078190555043600a81905550833373ffffffffffffffffffffffffffffffffffffffff167f4780f3edc9124597ede658e04ed3d8887b58c86943b2a805dc961cf512570b6287868660405180848152602001838152602001828152602001935050505060405180910390a35050505050565b61130b612b94565b60006113156110df565b905060065482101580156113295750808211155b61139b576040517f08c379a00000000000000000000000000000000000000000000000000000000081526004018080602001828103825260138152602001807f4552525f414d4f554e545f544f4f5f484947480000000000000000000000000081525060200191505060405180910390fd5b6113a482612c18565b6113b78282612a0390919063ffffffff16565b60078190555043600a81905550823373ffffffffffffffffffffffffffffffffffffffff167f4780f3edc9124597ede658e04ed3d8887b58c86943b2a805dc961cf512570b628685600060405180848152602001838152602001828152602001935050505060405180910390a350505050565b60008054906101000a900473ffffffffffffffffffffffffffffffffffffffff1673ffffffffffffffffffffffffffffffffffffffff163373ffffffffffffffffffffffffffffffffffffffff1614806114915750600360149054906101000a900460ff16155b611503576040517f08c379a00000000000000000000000000000000000000000000000000000000081526004018080602001828103825260118152602001807f4552525f4143434553535f44454e49454400000000000000000000000000000081525060200191505060405180910390fd5b600061152e7f436f6e7472616374526567697374727900000000000000000000000000000000612804565b9050600260009054906101000a900473ffffffffffffffffffffffffffffffffffffffff1673ffffffffffffffffffffffffffffffffffffffff168173ffffffffffffffffffffffffffffffffffffffff16141580156115bb5750600073ffffffffffffffffffffffffffffffffffffffff168173ffffffffffffffffffffffffffffffffffffffff1614155b61162d576040517f08c379a00000000000000000000000000000000000000000000000000000000081526004018080602001828103825260148152602001807f4552525f494e56414c49445f524547495354525900000000000000000000000081525060200191505060405180910390fd5b600073ffffffffffffffffffffffffffffffffffffffff168173ffffffffffffffffffffffffffffffffffffffff1663bb34534c7f436f6e74726163745265676973747279000000000000000000000000000000006040518263ffffffff1660e01b81526004018082815260200191505060206040518083038186803b1580156116b657600080fd5b505afa1580156116ca573d6000803e3d6000fd5b505050506040513d60208110156116e057600080fd5b810190808051906020019092919050505073ffffffffffffffffffffffffffffffffffffffff16141561177b576040517f08c379a00000000000000000000000000000000000000000000000000000000081526004018080602001828103825260148152602001807f4552525f494e56414c49445f524547495354525900000000000000000000000081525060200191505060405180910390fd5b600260009054906101000a900473ffffffffffffffffffffffffffffffffffffffff16600360006101000a81548173ffffffffffffffffffffffffffffffffffffffff021916908373ffffffffffffffffffffffffffffffffffffffff16021790555080600260006101000a81548173ffffffffffffffffffffffffffffffffffffffff021916908373ffffffffffffffffffffffffffffffffffffffff16021790555050565b600b5481565b60055481565b600481565b61183b612741565b81611845816128bb565b61187083838673ffffffffffffffffffffffffffffffffffffffff166129619092919063ffffffff16565b50505050565b600360009054906101000a900473ffffffffffffffffffffffffffffffffffffffff1681565b6118a4612cb8565b6118ac612d79565b826118b6816128bb565b826118c081612dfd565b600f600087815260200190815260200160002060003373ffffffffffffffffffffffffffffffffffffffff1673ffffffffffffffffffffffffffffffffffffffff16815260200190815260200160002060009054906101000a900460ff1615611991576040517f08c379a00000000000000000000000000000000000000000000000000000000081526004018080602001828103825260148152602001807f4552525f414c52454144595f5245504f5254454400000000000000000000000081525060200191505060405180910390fd5b6001600f600088815260200190815260200160002060003373ffffffffffffffffffffffffffffffffffffffff1673ffffffffffffffffffffffffffffffffffffffff16815260200190815260200160002060006101000a81548160ff0219169083151502179055506000600d6000888152602001908152602001600020905060008160020160149054906101000a900460ff1660ff161415611b3257858160020160006101000a81548173ffffffffffffffffffffffffffffffffffffffff021916908373ffffffffffffffffffffffffffffffffffffffff16021790555084816000018190555087816001018190555060008414611b2d576000600e60008681526020019081526020016000205414611b14576040517f08c379a00000000000000000000000000000000000000000000000000000000081526004018080602001828103825260158152602001807f4552525f54585f414c52454144595f455849535453000000000000000000000081525060200191505060405180910390fd5b86600e6000868152602001908152602001600020819055505b611ca7565b8573ffffffffffffffffffffffffffffffffffffffff168160020160009054906101000a900473ffffffffffffffffffffffffffffffffffffffff1673ffffffffffffffffffffffffffffffffffffffff16148015611b945750848160000154145b8015611ba35750878160010154145b611c15576040517f08c379a000000000000000000000000000000000000000000000000000000000815260040180806020018281038252600f8152602001807f4552525f54585f4d49534d41544348000000000000000000000000000000000081525060200191505060405180910390fd5b60008414611ca65786600e60008681526020019081526020016000205414611ca5576040517f08c379a00000000000000000000000000000000000000000000000000000000081526004018080602001828103825260158152602001807f4552525f54585f414c52454144595f455849535453000000000000000000000081525060200191505060405180910390fd5b5b5b80600201601481819054906101000a900460ff168092919060010191906101000a81548160ff021916908360ff160217905550503373ffffffffffffffffffffffffffffffffffffffff167f5e77831e701760f7f4a1e61a8e9834d773b52c45d91ba9006b7d2afb7a1447398989898989604051808681526020018581526020018473ffffffffffffffffffffffffffffffffffffffff1681526020018381526020018281526020019550505050505060405180910390a2600c60009054906101000a900460ff1660ff168160020160149054906101000a900460ff1660ff1610611eb257600d600088815260200190815260200160002060020160159054906101000a900460ff1615611e23576040517f08c379a00000000000000000000000000000000000000000000000000000000081526004018080602001828103825260188152602001807f4552525f54585f414c52454144595f434f4d504c45544544000000000000000081525060200191505060405180910390fd5b6001600d600089815260200190815260200160002060020160156101000a81548160ff0219169083151502179055507fd87906b7fce534fc5e6dde30064e777d92d0aaf3a28c72315de8ef2e4134dfef8685604051808373ffffffffffffffffffffffffffffffffffffffff1681526020018281526020019250505060405180910390a1611eb18686612e76565b5b5050505050505050565b611ec4612741565b80611ece81612dfd565b6004548211158015611ee257506005548211155b611f54576040517f08c379a00000000000000000000000000000000000000000000000000000000081526004018080602001828103825260158152602001807f4552525f494e56414c49445f4d494e5f4c494d4954000000000000000000000081525060200191505060405180910390fd5b816006819055505050565b60095481565b600160009054906101000a900473ffffffffffffffffffffffffffffffffffffffff1673ffffffffffffffffffffffffffffffffffffffff163373ffffffffffffffffffffffffffffffffffffffff1614612028576040517f08c379a00000000000000000000000000000000000000000000000000000000081526004018080602001828103825260118152602001807f4552525f4143434553535f44454e49454400000000000000000000000000000081525060200191505060405180910390fd5b600160009054906101000a900473ffffffffffffffffffffffffffffffffffffffff1673ffffffffffffffffffffffffffffffffffffffff1660008054906101000a900473ffffffffffffffffffffffffffffffffffffffff1673ffffffffffffffffffffffffffffffffffffffff167f343765429aea5a34b3ff6a3785a98a5abb2597aca87bfbb58632c173d585373a60405160405180910390a3600160009054906101000a900473ffffffffffffffffffffffffffffffffffffffff166000806101000a81548173ffffffffffffffffffffffffffffffffffffffff021916908373ffffffffffffffffffffffffffffffffffffffff1602179055506000600160006101000a81548173ffffffffffffffffffffffffffffffffffffffff021916908373ffffffffffffffffffffffffffffffffffffffff160217905550565b600260009054906101000a900473ffffffffffffffffffffffffffffffffffffffff1681565b612198612741565b8060ff166121a581612dfd565b81600c60006101000a81548160ff021916908360ff1602179055505050565b600f6020528160005260406000206020528060005260406000206000915091509054906101000a900460ff1681565b60008054906101000a900473ffffffffffffffffffffffffffffffffffffffff1681565b600c60169054906101000a900460ff1681565b600d6020528060005260406000206000915090508060000154908060010154908060020160009054906101000a900473ffffffffffffffffffffffffffffffffffffffff16908060020160149054906101000a900460ff16908060020160159054906101000a900460ff16905085565b6122a2612741565b806122ac81612dfd565b816009819055505050565b6122bf612741565b80600c60156101000a81548160ff02191690831515021790555050565b60045481565b60006122ec61350e565b600d6000600e60008781526020019081526020016000205481526020019081526020016000206040518060a001604052908160008201548152602001600182015481526020016002820160009054906101000a900473ffffffffffffffffffffffffffffffffffffffff1673ffffffffffffffffffffffffffffffffffffffff1673ffffffffffffffffffffffffffffffffffffffff1681526020016002820160149054906101000a900460ff1660ff1660ff1681526020016002820160159054906101000a900460ff16151515158152505090508273ffffffffffffffffffffffffffffffffffffffff16816040015173ffffffffffffffffffffffffffffffffffffffff1614612466576040517f08c379a000000000000000000000000000000000000000000000000000000000815260040180806020018281038252600f8152602001807f4552525f54585f4d49534d41544348000000000000000000000000000000000081525060200191505060405180910390fd5b806000015191505092915050565b61247c612741565b8061248681612dfd565b816004819055505050565b612499612741565b600360009054906101000a900473ffffffffffffffffffffffffffffffffffffffff16600260006101000a81548173ffffffffffffffffffffffffffffffffffffffff021916908373ffffffffffffffffffffffffffffffffffffffff160217905550565b612506612741565b8061251081612dfd565b816005819055505050565b600c60009054906101000a900460ff1681565b600160009054906101000a900473ffffffffffffffffffffffffffffffffffffffff1681565b61255c612741565b80601060008473ffffffffffffffffffffffffffffffffffffffff1673ffffffffffffffffffffffffffffffffffffffff16815260200190815260200160002060006101000a81548160ff0219169083151502179055505050565b600e6020528060005260406000206000915090505481565b6125d7612741565b80600c60166101000a81548160ff02191690831515021790555050565b6125fc612741565b60008054906101000a900473ffffffffffffffffffffffffffffffffffffffff1673ffffffffffffffffffffffffffffffffffffffff168173ffffffffffffffffffffffffffffffffffffffff1614156126be576040517f08c379a000000000000000000000000000000000000000000000000000000000815260040180806020018281038252600e8152602001807f4552525f53414d455f4f574e455200000000000000000000000000000000000081525060200191505060405180910390fd5b80600160006101000a81548173ffffffffffffffffffffffffffffffffffffffff021916908373ffffffffffffffffffffffffffffffffffffffff16021790555050565b60085481565b600c60159054906101000a900460ff1681565b600c60019054906101000a900473ffffffffffffffffffffffffffffffffffffffff1681565b60008054906101000a900473ffffffffffffffffffffffffffffffffffffffff1673ffffffffffffffffffffffffffffffffffffffff163373ffffffffffffffffffffffffffffffffffffffff1614612802576040517f08c379a00000000000000000000000000000000000000000000000000000000081526004018080602001828103825260118152602001807f4552525f4143434553535f44454e49454400000000000000000000000000000081525060200191505060405180910390fd5b565b6000600260009054906101000a900473ffffffffffffffffffffffffffffffffffffffff1673ffffffffffffffffffffffffffffffffffffffff1663bb34534c836040518263ffffffff1660e01b81526004018082815260200191505060206040518083038186803b15801561287957600080fd5b505afa15801561288d573d6000803e3d6000fd5b505050506040513d60208110156128a357600080fd5b81019080805190602001909291905050509050919050565b600073ffffffffffffffffffffffffffffffffffffffff168173ffffffffffffffffffffffffffffffffffffffff16141561295e576040517f08c379a00000000000000000000000000000000000000000000000000000000081526004018080602001828103825260138152602001807f4552525f494e56414c49445f414444524553530000000000000000000000000081525060200191505060405180910390fd5b50565b600081141561296f576129fe565b61297883612fc6565b156129c9578173ffffffffffffffffffffffffffffffffffffffff166108fc829081150290604051600060405180830381858888f193505050501580156129c3573d6000803e3d6000fd5b506129fd565b6129fc82826129d786613012565b73ffffffffffffffffffffffffffffffffffffffff1661301c9092919063ffffffff16565b5b5b505050565b600082821115612a7b576040517f08c379a000000000000000000000000000000000000000000000000000000000815260040180806020018281038252601e8152602001807f536166654d6174683a207375627472616374696f6e206f766572666c6f77000081525060200191505060405180910390fd5b818303905092915050565b600080831415612a995760009050612b06565b6000828402905082848281612aaa57fe5b0414612b01576040517f08c379a00000000000000000000000000000000000000000000000000000000081526004018080602001828103825260218152602001806135826021913960400191505060405180910390fd5b809150505b92915050565b600080828401905083811015612b8a576040517f08c379a000000000000000000000000000000000000000000000000000000000815260040180806020018281038252601b8152602001807f536166654d6174683a206164646974696f6e206f766572666c6f77000000000081525060200191505060405180910390fd5b8091505092915050565b600c60159054906101000a900460ff16612c16576040517f08c379a000000000000000000000000000000000000000000000000000000000815260040180806020018281038252600c8152602001807f4552525f44495341424c4544000000000000000000000000000000000000000081525060200191505060405180910390fd5b565b612c67333083600c60019054906101000a900473ffffffffffffffffffffffffffffffffffffffff1673ffffffffffffffffffffffffffffffffffffffff166130be909392919063ffffffff16565b3373ffffffffffffffffffffffffffffffffffffffff167ff5d7535a395393675f56d066384113754ca9cf4abd37298469934e2e9c2ec902826040518082815260200191505060405180910390a250565b601060003373ffffffffffffffffffffffffffffffffffffffff1673ffffffffffffffffffffffffffffffffffffffff16815260200190815260200160002060009054906101000a900460ff16612d77576040517f08c379a00000000000000000000000000000000000000000000000000000000081526004018080602001828103825260118152602001807f4552525f4143434553535f44454e49454400000000000000000000000000000081525060200191505060405180910390fd5b565b600c60169054906101000a900460ff16612dfb576040517f08c379a000000000000000000000000000000000000000000000000000000000815260040180806020018281038252600c8152602001807f4552525f44495341424c4544000000000000000000000000000000000000000081525060200191505060405180910390fd5b565b60008111612e73576040517f08c379a000000000000000000000000000000000000000000000000000000000815260040180806020018281038252600e8152602001807f4552525f5a45524f5f56414c554500000000000000000000000000000000000081525060200191505060405180910390fd5b50565b6000612e80611144565b90506006548210158015612e945750808211155b612f06576040517f08c379a00000000000000000000000000000000000000000000000000000000081526004018080602001828103825260138152602001807f4552525f414d4f554e545f544f4f5f484947480000000000000000000000000081525060200191505060405180910390fd5b612f198282612a0390919063ffffffff16565b60088190555043600b81905550612f738383600c60019054906101000a900473ffffffffffffffffffffffffffffffffffffffff1673ffffffffffffffffffffffffffffffffffffffff1661301c9092919063ffffffff16565b8273ffffffffffffffffffffffffffffffffffffffff167fbfdc1f3c02b4715077e0be4a262f967d53d4d0fcd76c6987fa2ad6e2257d7c8f836040518082815260200191505060405180910390a2505050565b600073eeeeeeeeeeeeeeeeeeeeeeeeeeeeeeeeeeeeeeee73ffffffffffffffffffffffffffffffffffffffff168273ffffffffffffffffffffffffffffffffffffffff16149050919050565b6000819050919050565b6130b98363a9059cbb60e01b8484604051602401808373ffffffffffffffffffffffffffffffffffffffff16815260200182815260200192505050604051602081830303815290604052907bffffffffffffffffffffffffffffffffffffffffffffffffffffffff19166020820180517bffffffffffffffffffffffffffffffffffffffffffffffffffffffff838183161783525050505061317f565b505050565b613179846323b872dd60e01b858585604051602401808473ffffffffffffffffffffffffffffffffffffffff1681526020018373ffffffffffffffffffffffffffffffffffffffff1681526020018281526020019350505050604051602081830303815290604052907bffffffffffffffffffffffffffffffffffffffffffffffffffffffff19166020820180517bffffffffffffffffffffffffffffffffffffffffffffffffffffffff838183161783525050505061317f565b50505050565b60606131e1826040518060400160405280602081526020017f5361666545524332303a206c6f772d6c6576656c2063616c6c206661696c65648152508573ffffffffffffffffffffffffffffffffffffffff1661326e9092919063ffffffff16565b90506000815111156132695780806020019051602081101561320257600080fd5b8101908080519060200190929190505050613268576040517f08c379a000000000000000000000000000000000000000000000000000000000815260040180806020018281038252602a8152602001806135a3602a913960400191505060405180910390fd5b5b505050565b606061327d8484600085613286565b90509392505050565b6060824710156132e1576040517f08c379a000000000000000000000000000000000000000000000000000000000815260040180806020018281038252602681526020018061355c6026913960400191505060405180910390fd5b6132ea8561342f565b61335c576040517f08c379a000000000000000000000000000000000000000000000000000000000815260040180806020018281038252601d8152602001807f416464726573733a2063616c6c20746f206e6f6e2d636f6e747261637400000081525060200191505060405180910390fd5b600060608673ffffffffffffffffffffffffffffffffffffffff1685876040518082805190602001908083835b602083106133ac5780518252602082019150602081019050602083039250613389565b6001836020036101000a03801982511681845116808217855250505050505090500191505060006040518083038185875af1925050503d806000811461340e576040519150601f19603f3d011682016040523d82523d6000602084013e613413565b606091505b5091509150613423828286613442565b92505050949350505050565b600080823b905060008111915050919050565b6060831561345257829050613507565b6000835111156134655782518084602001fd5b816040517f08c379a00000000000000000000000000000000000000000000000000000000081526004018080602001828103825283818151815260200191508051906020019080838360005b838110156134cc5780820151818401526020810190506134b1565b50505050905090810190601f1680156134f95780820380516001836020036101000a031916815260200191505b509250505060405180910390fd5b9392505050565b6040518060a001604052806000815260200160008019168152602001600073ffffffffffffffffffffffffffffffffffffffff168152602001600060ff168152602001600015158152509056fe416464726573733a20696e73756666696369656e742062616c616e636520666f722063616c6c536166654d6174683a206d756c7469706c69636174696f6e206f766572666c6f775361666545524332303a204552433230206f7065726174696f6e20646964206e6f742073756363656564a264697066735822122056eee6a54b71ebad573d6b6021e1d8dfb2bd7b07dc48a3db3a0fbbe2d069811364736f6c634300060c0033",
  "immutableReferences": {},
  "source": "// SPDX-License-Identifier: SEE LICENSE IN LICENSE\npragma solidity 0.6.12;\n\nimport \"@openzeppelin/contracts/math/SafeMath.sol\";\n\nimport \"./interfaces/IBancorXUpgrader.sol\";\nimport \"./interfaces/IBancorX.sol\";\n\nimport \"../utility/ContractRegistryClient.sol\";\nimport \"../utility/TokenHolder.sol\";\n\nimport \"../token/SafeERC20Ex.sol\";\n\n/**\n * @dev This contract allows cross chain token transfers.\n *\n * There are two processes that take place in the contract -\n * - Initiate a cross chain transfer to a target blockchain (locks tokens from the caller account on Ethereum)\n * - Report a cross chain transfer initiated on a source blockchain (releases tokens to an account on Ethereum)\n *\n * Reporting cross chain transfers works similar to standard multisig contracts, meaning that multiple\n * callers are required to report a transfer before tokens are released to the target account.\n */\ncontract BancorX is IBancorX, TokenHolder, ContractRegistryClient {\n    using SafeMath for uint256;\n    using SafeERC20 for IERC20;\n\n    // represents a transaction on another blockchain where tokens were destroyed/locked\n    struct Transaction {\n        uint256 amount;\n        bytes32 fromBlockchain;\n        address to;\n        uint8 numOfReports;\n        bool completed;\n    }\n\n    uint16 public constant version = 4;\n\n    uint256 public maxLockLimit; // the maximum amount of tokens that can be locked in one transaction\n    uint256 public maxReleaseLimit; // the maximum amount of tokens that can be released in one transaction\n    uint256 public minLimit; // the minimum amount of tokens that can be transferred in one transaction\n    uint256 public prevLockLimit; // the lock limit *after* the last transaction\n    uint256 public prevReleaseLimit; // the release limit *after* the last transaction\n    uint256 public limitIncPerBlock; // how much the limit increases per block\n    uint256 public prevLockBlockNumber; // the block number of the last lock transaction\n    uint256 public prevReleaseBlockNumber; // the block number of the last release transaction\n    uint8 public minRequiredReports; // minimum number of required reports to release tokens\n\n    IERC20 public override token; // erc20 token\n\n    bool public xTransfersEnabled = true; // true if x transfers are enabled, false if not\n    bool public reportingEnabled = true; // true if reporting is enabled, false if not\n\n    // txId -> Transaction\n    mapping(uint256 => Transaction) public transactions;\n\n    // xTransferId -> txId\n    mapping(uint256 => uint256) public transactionIds;\n\n    // txId -> reporter -> true if reporter already reported txId\n    mapping(uint256 => mapping(address => bool)) public reportedTxs;\n\n    // address -> true if address is reporter\n    mapping(address => bool) public reporters;\n\n    /**\n     * @dev triggered when tokens are locked in smart contract\n     *\n     * @param _from    wallet address that the tokens are locked from\n     * @param _amount  amount locked\n     */\n    event TokensLock(address indexed _from, uint256 _amount);\n\n    /**\n     * @dev triggered when tokens are released by the smart contract\n     *\n     * @param _to      wallet address that the tokens are released to\n     * @param _amount  amount released\n     */\n    event TokensRelease(address indexed _to, uint256 _amount);\n\n    /**\n     * @dev triggered when xTransfer is successfully called\n     *\n     * @param _from            wallet address that initiated the xtransfer\n     * @param _toBlockchain    target blockchain\n     * @param _to              target wallet\n     * @param _amount          transfer amount\n     * @param _id              xtransfer id\n     */\n    event XTransfer(address indexed _from, bytes32 _toBlockchain, bytes32 indexed _to, uint256 _amount, uint256 _id);\n\n    /**\n     * @dev triggered when report is successfully submitted\n     *\n     * @param _reporter        reporter wallet\n     * @param _fromBlockchain  source blockchain\n     * @param _txId            tx id on the source blockchain\n     * @param _to              target wallet\n     * @param _amount          transfer amount\n     * @param _xTransferId     xtransfer id\n     */\n    event TxReport(\n        address indexed _reporter,\n        bytes32 _fromBlockchain,\n        uint256 _txId,\n        address _to,\n        uint256 _amount,\n        uint256 _xTransferId\n    );\n\n    /**\n     * @dev triggered when final report is successfully submitted\n     *\n     * @param _to  target wallet\n     * @param _id  xtransfer id\n     */\n    event XTransferComplete(address _to, uint256 _id);\n\n    /**\n     * @dev initializes a new BancorX instance\n     *\n     * @param _maxLockLimit          maximum amount of tokens that can be locked in one transaction\n     * @param _maxReleaseLimit       maximum amount of tokens that can be released in one transaction\n     * @param _minLimit              minimum amount of tokens that can be transferred in one transaction\n     * @param _limitIncPerBlock      how much the limit increases per block\n     * @param _minRequiredReports    minimum number of reporters to report transaction before tokens can be released\n     * @param _registry              address of contract registry\n     * @param _token                 erc20 token\n     */\n    constructor(\n        uint256 _maxLockLimit,\n        uint256 _maxReleaseLimit,\n        uint256 _minLimit,\n        uint256 _limitIncPerBlock,\n        uint8 _minRequiredReports,\n        IContractRegistry _registry,\n        IERC20 _token\n    )\n        public\n        ContractRegistryClient(_registry)\n        greaterThanZero(_maxLockLimit)\n        greaterThanZero(_maxReleaseLimit)\n        greaterThanZero(_minLimit)\n        greaterThanZero(_limitIncPerBlock)\n        greaterThanZero(_minRequiredReports)\n        validExternalAddress(address(_token))\n    {\n        // validate input\n        require(_minLimit <= _maxLockLimit && _minLimit <= _maxReleaseLimit, \"ERR_INVALID_MIN_LIMIT\");\n\n        // the maximum limits, minimum limit, and limit increase per block\n        maxLockLimit = _maxLockLimit;\n        maxReleaseLimit = _maxReleaseLimit;\n        minLimit = _minLimit;\n        limitIncPerBlock = _limitIncPerBlock;\n        minRequiredReports = _minRequiredReports;\n\n        // previous limit is _maxLimit, and previous block number is current block number\n        prevLockLimit = _maxLockLimit;\n        prevReleaseLimit = _maxReleaseLimit;\n        prevLockBlockNumber = block.number;\n        prevReleaseBlockNumber = block.number;\n\n        token = _token;\n    }\n\n    // validates that the caller is a reporter\n    modifier reporterOnly {\n        _reporterOnly();\n        _;\n    }\n\n    // error message binary size optimization\n    function _reporterOnly() internal view {\n        require(reporters[msg.sender], \"ERR_ACCESS_DENIED\");\n    }\n\n    // allows execution only when x transfers are enabled\n    modifier xTransfersAllowed {\n        _xTransfersAllowed();\n        _;\n    }\n\n    // error message binary size optimization\n    function _xTransfersAllowed() internal view {\n        require(xTransfersEnabled, \"ERR_DISABLED\");\n    }\n\n    // allows execution only when reporting is enabled\n    modifier reportingAllowed {\n        _reportingAllowed();\n        _;\n    }\n\n    // error message binary size optimization\n    function _reportingAllowed() internal view {\n        require(reportingEnabled, \"ERR_DISABLED\");\n    }\n\n    /**\n     * @dev setter\n     *\n     * @param _maxLockLimit    new maxLockLimit\n     */\n    function setMaxLockLimit(uint256 _maxLockLimit) public ownerOnly greaterThanZero(_maxLockLimit) {\n        maxLockLimit = _maxLockLimit;\n    }\n\n    /**\n     * @dev setter\n     *\n     * @param _maxReleaseLimit    new maxReleaseLimit\n     */\n    function setMaxReleaseLimit(uint256 _maxReleaseLimit) public ownerOnly greaterThanZero(_maxReleaseLimit) {\n        maxReleaseLimit = _maxReleaseLimit;\n    }\n\n    /**\n     * @dev setter\n     *\n     * @param _minLimit    new minLimit\n     */\n    function setMinLimit(uint256 _minLimit) public ownerOnly greaterThanZero(_minLimit) {\n        // validate input\n        require(_minLimit <= maxLockLimit && _minLimit <= maxReleaseLimit, \"ERR_INVALID_MIN_LIMIT\");\n\n        minLimit = _minLimit;\n    }\n\n    /**\n     * @dev setter\n     *\n     * @param _limitIncPerBlock    new limitIncPerBlock\n     */\n    function setLimitIncPerBlock(uint256 _limitIncPerBlock) public ownerOnly greaterThanZero(_limitIncPerBlock) {\n        limitIncPerBlock = _limitIncPerBlock;\n    }\n\n    /**\n     * @dev setter\n     *\n     * @param _minRequiredReports    new minRequiredReports\n     */\n    function setMinRequiredReports(uint8 _minRequiredReports) public ownerOnly greaterThanZero(_minRequiredReports) {\n        minRequiredReports = _minRequiredReports;\n    }\n\n    /**\n     * @dev allows the owner to set/remove reporters\n     *\n     * @param _reporter    reporter whos status is to be set\n     * @param _active      true if the reporter is approved, false otherwise\n     */\n    function setReporter(address _reporter, bool _active) public ownerOnly {\n        reporters[_reporter] = _active;\n    }\n\n    /**\n     * @dev allows the owner enable/disable the xTransfer method\n     *\n     * @param _enable     true to enable, false to disable\n     */\n    function enableXTransfers(bool _enable) public ownerOnly {\n        xTransfersEnabled = _enable;\n    }\n\n    /**\n     * @dev allows the owner enable/disable the reportTransaction method\n     *\n     * @param _enable     true to enable, false to disable\n     */\n    function enableReporting(bool _enable) public ownerOnly {\n        reportingEnabled = _enable;\n    }\n\n    /**\n     * @dev upgrades the contract to the latest version\n     * can only be called by the owner\n     * note that the owner needs to call acceptOwnership on the new contract after the upgrade\n     *\n     * @param _reporters    new list of reporters\n     */\n    function upgrade(address[] memory _reporters) public ownerOnly {\n        IBancorXUpgrader bancorXUpgrader = IBancorXUpgrader(addressOf(BANCOR_X_UPGRADER));\n\n        transferOwnership(address(bancorXUpgrader));\n        bancorXUpgrader.upgrade(version, _reporters);\n        acceptOwnership();\n    }\n\n    /**\n     * @dev claims tokens from msg.sender to be converted to tokens on another blockchain\n     *\n     * @param _toBlockchain    blockchain on which tokens will be issued\n     * @param _to              address to send the tokens to\n     * @param _amount          the amount of tokens to transfer\n     */\n    function xTransfer(\n        bytes32 _toBlockchain,\n        bytes32 _to,\n        uint256 _amount\n    ) public xTransfersAllowed {\n        // get the current lock limit\n        uint256 currentLockLimit = getCurrentLockLimit();\n\n        // verify lock limit\n        require(_amount >= minLimit && _amount <= currentLockLimit, \"ERR_AMOUNT_TOO_HIGH\");\n\n        lockTokens(_amount);\n\n        // set the previous lock limit and block number\n        prevLockLimit = currentLockLimit.sub(_amount);\n        prevLockBlockNumber = block.number;\n\n        // emit XTransfer event with id of 0\n        emit XTransfer(msg.sender, _toBlockchain, _to, _amount, 0);\n    }\n\n    /**\n     * @dev claims tokens from msg.sender to be converted to tokens on another blockchain\n     *\n     * @param _toBlockchain    blockchain on which tokens will be issued\n     * @param _to              address to send the tokens to\n     * @param _amount          the amount of tokens to transfer\n     * @param _id              pre-determined unique (if non zero) id which refers to this transaction\n     */\n    function xTransfer(\n        bytes32 _toBlockchain,\n        bytes32 _to,\n        uint256 _amount,\n        uint256 _id\n    ) public override xTransfersAllowed {\n        // get the current lock limit\n        uint256 currentLockLimit = getCurrentLockLimit();\n\n        // require that; minLimit <= _amount <= currentLockLimit\n        require(_amount >= minLimit && _amount <= currentLockLimit, \"ERR_AMOUNT_TOO_HIGH\");\n\n        lockTokens(_amount);\n\n        // set the previous lock limit and block number\n        prevLockLimit = currentLockLimit.sub(_amount);\n        prevLockBlockNumber = block.number;\n\n        // emit XTransfer event\n        emit XTransfer(msg.sender, _toBlockchain, _to, _amount, _id);\n    }\n\n    /**\n     * @dev allows reporter to report transaction which occured on another blockchain\n     *\n     * @param _fromBlockchain  blockchain in which tokens were destroyed\n     * @param _txId            transactionId of transaction thats being reported\n     * @param _to              address to receive tokens\n     * @param _amount          amount of tokens destroyed on another blockchain\n     * @param _xTransferId     unique (if non zero) pre-determined id (unlike _txId which is determined after the transactions been mined)\n     */\n    function reportTx(\n        bytes32 _fromBlockchain,\n        uint256 _txId,\n        address _to,\n        uint256 _amount,\n        uint256 _xTransferId\n    ) public reporterOnly reportingAllowed validAddress(_to) greaterThanZero(_amount) {\n        // require that the transaction has not been reported yet by the reporter\n        require(!reportedTxs[_txId][msg.sender], \"ERR_ALREADY_REPORTED\");\n\n        // set reported as true\n        reportedTxs[_txId][msg.sender] = true;\n\n        Transaction storage txn = transactions[_txId];\n\n        // If the caller is the first reporter, set the transaction details\n        if (txn.numOfReports == 0) {\n            txn.to = _to;\n            txn.amount = _amount;\n            txn.fromBlockchain = _fromBlockchain;\n\n            if (_xTransferId != 0) {\n                // verify uniqueness of xTransfer id to prevent overwriting\n                require(transactionIds[_xTransferId] == 0, \"ERR_TX_ALREADY_EXISTS\");\n                transactionIds[_xTransferId] = _txId;\n            }\n        } else {\n            // otherwise, verify transaction details\n            require(txn.to == _to && txn.amount == _amount && txn.fromBlockchain == _fromBlockchain, \"ERR_TX_MISMATCH\");\n\n            if (_xTransferId != 0) {\n                require(transactionIds[_xTransferId] == _txId, \"ERR_TX_ALREADY_EXISTS\");\n            }\n        }\n\n        // increment the number of reports\n        txn.numOfReports++;\n\n        emit TxReport(msg.sender, _fromBlockchain, _txId, _to, _amount, _xTransferId);\n\n        // if theres enough reports, try to release tokens\n        if (txn.numOfReports >= minRequiredReports) {\n            require(!transactions[_txId].completed, \"ERR_TX_ALREADY_COMPLETED\");\n\n            // set the transaction as completed\n            transactions[_txId].completed = true;\n\n            emit XTransferComplete(_to, _xTransferId);\n\n            releaseTokens(_to, _amount);\n        }\n    }\n\n    /**\n     * @dev gets x transfer amount by xTransferId (not txId)\n     *\n     * @param _xTransferId    unique (if non zero) pre-determined id (unlike _txId which is determined after the transactions been broadcasted)\n     * @param _for            address corresponding to xTransferId\n     *\n     * @return amount that was sent in xTransfer corresponding to _xTransferId\n     */\n    function getXTransferAmount(uint256 _xTransferId, address _for) public view override returns (uint256) {\n        // xTransferId -> txId -> Transaction\n        Transaction memory transaction = transactions[transactionIds[_xTransferId]];\n\n        // verify that the xTransferId is for _for\n        require(transaction.to == _for, \"ERR_TX_MISMATCH\");\n\n        return transaction.amount;\n    }\n\n    /**\n     * @dev method for calculating current lock limit\n     *\n     * @return the current maximum limit of tokens that can be locked\n     */\n    function getCurrentLockLimit() public view returns (uint256) {\n        // prevLockLimit + ((currBlockNumber - prevLockBlockNumber) * limitIncPerBlock)\n        uint256 currentLockLimit = prevLockLimit.add(((block.number).sub(prevLockBlockNumber)).mul(limitIncPerBlock));\n        if (currentLockLimit > maxLockLimit) {\n            return maxLockLimit;\n        }\n\n        return currentLockLimit;\n    }\n\n    /**\n     * @dev method for calculating current release limit\n     *\n     * @return the current maximum limit of tokens that can be released\n     */\n    function getCurrentReleaseLimit() public view returns (uint256) {\n        // prevReleaseLimit + ((currBlockNumber - prevReleaseBlockNumber) * limitIncPerBlock)\n        uint256 currentReleaseLimit =\n            prevReleaseLimit.add(((block.number).sub(prevReleaseBlockNumber)).mul(limitIncPerBlock));\n        if (currentReleaseLimit > maxReleaseLimit) {\n            return maxReleaseLimit;\n        }\n\n        return currentReleaseLimit;\n    }\n\n    /**\n     * @dev claims and locks tokens from msg.sender to be converted to tokens on another blockchain\n     *\n     * @param _amount  the amount of tokens to lock\n     */\n    function lockTokens(uint256 _amount) private {\n        token.safeTransferFrom(msg.sender, address(this), _amount);\n\n        emit TokensLock(msg.sender, _amount);\n    }\n\n    /**\n     * @dev private method to release tokens held by the contract\n     *\n     * @param _to      the address to release tokens to\n     * @param _amount  the amount of tokens to release\n     */\n    function releaseTokens(address _to, uint256 _amount) private {\n        // get the current release limit\n        uint256 currentReleaseLimit = getCurrentReleaseLimit();\n\n        require(_amount >= minLimit && _amount <= currentReleaseLimit, \"ERR_AMOUNT_TOO_HIGH\");\n\n        // update the previous release limit and block number\n        prevReleaseLimit = currentReleaseLimit.sub(_amount);\n        prevReleaseBlockNumber = block.number;\n\n        // no need to require, reverts on failure\n        token.safeTransfer(_to, _amount);\n\n        emit TokensRelease(_to, _amount);\n    }\n}\n",
  "sourcePath": "D:\\Work Space\\bancor_project\\core\\contracts\\bancorx\\BancorX.sol",
  "compiler": {
    "name": "solc",
    "version": "0.6.12+commit.27d51765.Emscripten.clang"
  },
  "schemaVersion": "3.4.3",
  "updatedAt": "2021-08-23T11:45:53.696Z",
  "devdoc": {
    "details": "This contract allows cross chain token transfers. There are two processes that take place in the contract - - Initiate a cross chain transfer to a target blockchain (locks tokens from the caller account on Ethereum) - Report a cross chain transfer initiated on a source blockchain (releases tokens to an account on Ethereum) Reporting cross chain transfers works similar to standard multisig contracts, meaning that multiple callers are required to report a transfer before tokens are released to the target account.",
    "events": {
      "TokensLock(address,uint256)": {
        "details": "triggered when tokens are locked in smart contract",
        "params": {
          "_amount": "amount locked",
          "_from": "wallet address that the tokens are locked from"
        }
      },
      "TokensRelease(address,uint256)": {
        "details": "triggered when tokens are released by the smart contract",
        "params": {
          "_amount": "amount released",
          "_to": "wallet address that the tokens are released to"
        }
      },
      "TxReport(address,bytes32,uint256,address,uint256,uint256)": {
        "details": "triggered when report is successfully submitted",
        "params": {
          "_amount": "transfer amount",
          "_fromBlockchain": "source blockchain",
          "_reporter": "reporter wallet",
          "_to": "target wallet",
          "_txId": "tx id on the source blockchain",
          "_xTransferId": "xtransfer id"
        }
      },
      "XTransfer(address,bytes32,bytes32,uint256,uint256)": {
        "details": "triggered when xTransfer is successfully called",
        "params": {
          "_amount": "transfer amount",
          "_from": "wallet address that initiated the xtransfer",
          "_id": "xtransfer id",
          "_to": "target wallet",
          "_toBlockchain": "target blockchain"
        }
      },
      "XTransferComplete(address,uint256)": {
        "details": "triggered when final report is successfully submitted",
        "params": {
          "_id": "xtransfer id",
          "_to": "target wallet"
        }
      }
    },
    "kind": "dev",
    "methods": {
      "acceptOwnership()": {
        "details": "used by a new owner to accept an ownership transfer"
      },
      "constructor": {
        "details": "initializes a new BancorX instance",
        "params": {
          "_limitIncPerBlock": "how much the limit increases per block",
          "_maxLockLimit": "maximum amount of tokens that can be locked in one transaction",
          "_maxReleaseLimit": "maximum amount of tokens that can be released in one transaction",
          "_minLimit": "minimum amount of tokens that can be transferred in one transaction",
          "_minRequiredReports": "minimum number of reporters to report transaction before tokens can be released",
          "_registry": "address of contract registry",
          "_token": "erc20 token"
        }
      },
      "enableReporting(bool)": {
        "details": "allows the owner enable/disable the reportTransaction method",
        "params": {
          "_enable": "true to enable, false to disable"
        }
      },
      "enableXTransfers(bool)": {
        "details": "allows the owner enable/disable the xTransfer method",
        "params": {
          "_enable": "true to enable, false to disable"
        }
      },
      "getCurrentLockLimit()": {
        "details": "method for calculating current lock limit",
        "returns": {
          "_0": "the current maximum limit of tokens that can be locked"
        }
      },
      "getCurrentReleaseLimit()": {
        "details": "method for calculating current release limit",
        "returns": {
          "_0": "the current maximum limit of tokens that can be released"
        }
      },
      "getXTransferAmount(uint256,address)": {
        "details": "gets x transfer amount by xTransferId (not txId)",
        "params": {
          "_for": "address corresponding to xTransferId",
          "_xTransferId": "unique (if non zero) pre-determined id (unlike _txId which is determined after the transactions been broadcasted)"
        },
        "returns": {
          "_0": "amount that was sent in xTransfer corresponding to _xTransferId"
        }
      },
      "reportTx(bytes32,uint256,address,uint256,uint256)": {
        "details": "allows reporter to report transaction which occured on another blockchain",
        "params": {
          "_amount": "amount of tokens destroyed on another blockchain",
          "_fromBlockchain": "blockchain in which tokens were destroyed",
          "_to": "address to receive tokens",
          "_txId": "transactionId of transaction thats being reported",
          "_xTransferId": "unique (if non zero) pre-determined id (unlike _txId which is determined after the transactions been mined)"
        }
      },
      "restoreRegistry()": {
        "details": "restores the previous contract-registry"
      },
      "restrictRegistryUpdate(bool)": {
        "details": "restricts the permission to update the contract-registry",
        "params": {
          "_onlyOwnerCanUpdateRegistry": "indicates whether or not permission is restricted to owner only"
        }
      },
      "setLimitIncPerBlock(uint256)": {
        "details": "setter",
        "params": {
          "_limitIncPerBlock": "new limitIncPerBlock"
        }
      },
      "setMaxLockLimit(uint256)": {
        "details": "setter",
        "params": {
          "_maxLockLimit": "new maxLockLimit"
        }
      },
      "setMaxReleaseLimit(uint256)": {
        "details": "setter",
        "params": {
          "_maxReleaseLimit": "new maxReleaseLimit"
        }
      },
      "setMinLimit(uint256)": {
        "details": "setter",
        "params": {
          "_minLimit": "new minLimit"
        }
      },
      "setMinRequiredReports(uint8)": {
        "details": "setter",
        "params": {
          "_minRequiredReports": "new minRequiredReports"
        }
      },
      "setReporter(address,bool)": {
        "details": "allows the owner to set/remove reporters",
        "params": {
          "_active": "true if the reporter is approved, false otherwise",
          "_reporter": "reporter whos status is to be set"
        }
      },
      "transferOwnership(address)": {
        "details": "allows transferring the contract ownership the new owner still needs to accept the transfer can only be called by the contract owner",
        "params": {
          "_newOwner": "new contract owner"
        }
      },
      "updateRegistry()": {
        "details": "updates to the new contract-registry"
      },
      "upgrade(address[])": {
        "details": "upgrades the contract to the latest version can only be called by the owner note that the owner needs to call acceptOwnership on the new contract after the upgrade",
        "params": {
          "_reporters": "new list of reporters"
        }
      },
      "withdrawTokens(address,address,uint256)": {
        "details": "withdraws funds held by the contract and sends them to an account can only be called by the owner",
        "params": {
          "amount": "amount to withdraw",
          "reserveToken": "reserve token contract address",
          "to": "account to receive the new amount"
        }
      },
      "withdrawTokensMultiple(address[],address,uint256[])": {
        "details": "withdraws multiple funds held by the contract and sends them to an account can only be called by the owner",
        "params": {
          "amounts": "amounts to withdraw",
          "reserveTokens": "reserve tokens contract addresses",
          "to": "account to receive the new amount"
        }
      },
      "xTransfer(bytes32,bytes32,uint256)": {
        "details": "claims tokens from msg.sender to be converted to tokens on another blockchain",
        "params": {
          "_amount": "the amount of tokens to transfer",
          "_to": "address to send the tokens to",
          "_toBlockchain": "blockchain on which tokens will be issued"
        }
      },
      "xTransfer(bytes32,bytes32,uint256,uint256)": {
        "details": "claims tokens from msg.sender to be converted to tokens on another blockchain",
        "params": {
          "_amount": "the amount of tokens to transfer",
          "_id": "pre-determined unique (if non zero) id which refers to this transaction",
          "_to": "address to send the tokens to",
          "_toBlockchain": "blockchain on which tokens will be issued"
        }
      }
    },
    "version": 1
  },
  "userdoc": {
    "kind": "user",
    "methods": {},
    "version": 1
  }
}