{
  "contractName": "BancorNetwork",
  "abi": [
    {
      "inputs": [
        {
          "internalType": "contract IContractRegistry",
          "name": "_registry",
          "type": "address"
        }
      ],
      "stateMutability": "nonpayable",
      "type": "constructor"
    },
    {
      "anonymous": false,
      "inputs": [
        {
          "indexed": true,
          "internalType": "contract IConverterAnchor",
          "name": "_smartToken",
          "type": "address"
        },
        {
          "indexed": true,
          "internalType": "contract IReserveToken",
          "name": "_fromToken",
          "type": "address"
        },
        {
          "indexed": true,
          "internalType": "contract IReserveToken",
          "name": "_toToken",
          "type": "address"
        },
        {
          "indexed": false,
          "internalType": "uint256",
          "name": "_fromAmount",
          "type": "uint256"
        },
        {
          "indexed": false,
          "internalType": "uint256",
          "name": "_toAmount",
          "type": "uint256"
        },
        {
          "indexed": false,
          "internalType": "address",
          "name": "_trader",
          "type": "address"
        }
      ],
      "name": "Conversion",
      "type": "event"
    },
    {
      "anonymous": false,
      "inputs": [
        {
          "indexed": true,
          "internalType": "address",
          "name": "_prevOwner",
          "type": "address"
        },
        {
          "indexed": true,
          "internalType": "address",
          "name": "_newOwner",
          "type": "address"
        }
      ],
      "name": "OwnerUpdate",
      "type": "event"
    },
    {
      "inputs": [],
      "name": "acceptOwnership",
      "outputs": [],
      "stateMutability": "nonpayable",
      "type": "function"
    },
    {
      "inputs": [],
      "name": "newOwner",
      "outputs": [
        {
          "internalType": "address",
          "name": "",
          "type": "address"
        }
      ],
      "stateMutability": "view",
      "type": "function"
    },
    {
      "inputs": [],
      "name": "onlyOwnerCanUpdateRegistry",
      "outputs": [
        {
          "internalType": "bool",
          "name": "",
          "type": "bool"
        }
      ],
      "stateMutability": "view",
      "type": "function"
    },
    {
      "inputs": [],
      "name": "owner",
      "outputs": [
        {
          "internalType": "address",
          "name": "",
          "type": "address"
        }
      ],
      "stateMutability": "view",
      "type": "function"
    },
    {
      "inputs": [],
      "name": "prevRegistry",
      "outputs": [
        {
          "internalType": "contract IContractRegistry",
          "name": "",
          "type": "address"
        }
      ],
      "stateMutability": "view",
      "type": "function"
    },
    {
      "inputs": [],
      "name": "registry",
      "outputs": [
        {
          "internalType": "contract IContractRegistry",
          "name": "",
          "type": "address"
        }
      ],
      "stateMutability": "view",
      "type": "function"
    },
    {
      "inputs": [],
      "name": "restoreRegistry",
      "outputs": [],
      "stateMutability": "nonpayable",
      "type": "function"
    },
    {
      "inputs": [
        {
          "internalType": "bool",
          "name": "_onlyOwnerCanUpdateRegistry",
          "type": "bool"
        }
      ],
      "name": "restrictRegistryUpdate",
      "outputs": [],
      "stateMutability": "nonpayable",
      "type": "function"
    },
    {
      "inputs": [
        {
          "internalType": "address",
          "name": "_newOwner",
          "type": "address"
        }
      ],
      "name": "transferOwnership",
      "outputs": [],
      "stateMutability": "nonpayable",
      "type": "function"
    },
    {
      "inputs": [],
      "name": "updateRegistry",
      "outputs": [],
      "stateMutability": "nonpayable",
      "type": "function"
    },
    {
      "inputs": [
        {
          "internalType": "contract IReserveToken",
          "name": "reserveToken",
          "type": "address"
        },
        {
          "internalType": "address payable",
          "name": "to",
          "type": "address"
        },
        {
          "internalType": "uint256",
          "name": "amount",
          "type": "uint256"
        }
      ],
      "name": "withdrawTokens",
      "outputs": [],
      "stateMutability": "nonpayable",
      "type": "function"
    },
    {
      "inputs": [
        {
          "internalType": "contract IReserveToken[]",
          "name": "reserveTokens",
          "type": "address[]"
        },
        {
          "internalType": "address payable",
          "name": "to",
          "type": "address"
        },
        {
          "internalType": "uint256[]",
          "name": "amounts",
          "type": "uint256[]"
        }
      ],
      "name": "withdrawTokensMultiple",
      "outputs": [],
      "stateMutability": "nonpayable",
      "type": "function"
    },
    {
      "stateMutability": "payable",
      "type": "receive"
    },
    {
      "inputs": [
        {
          "internalType": "contract IReserveToken",
          "name": "_sourceToken",
          "type": "address"
        },
        {
          "internalType": "contract IReserveToken",
          "name": "_targetToken",
          "type": "address"
        }
      ],
      "name": "conversionPath",
      "outputs": [
        {
          "internalType": "address[]",
          "name": "",
          "type": "address[]"
        }
      ],
      "stateMutability": "view",
      "type": "function"
    },
    {
      "inputs": [
        {
          "internalType": "address[]",
          "name": "_path",
          "type": "address[]"
        },
        {
          "internalType": "uint256",
          "name": "_amount",
          "type": "uint256"
        }
      ],
      "name": "rateByPath",
      "outputs": [
        {
          "internalType": "uint256",
          "name": "",
          "type": "uint256"
        }
      ],
      "stateMutability": "view",
      "type": "function"
    },
    {
      "inputs": [
        {
          "internalType": "address[]",
          "name": "_path",
          "type": "address[]"
        },
        {
          "internalType": "uint256",
          "name": "_amount",
          "type": "uint256"
        },
        {
          "internalType": "uint256",
          "name": "_minReturn",
          "type": "uint256"
        },
        {
          "internalType": "address payable",
          "name": "_beneficiary",
          "type": "address"
        }
      ],
      "name": "convertByPath2",
      "outputs": [
        {
          "internalType": "uint256",
          "name": "",
          "type": "uint256"
        }
      ],
      "stateMutability": "payable",
      "type": "function"
    },
    {
      "inputs": [
        {
          "internalType": "address[]",
          "name": "_path",
          "type": "address[]"
        },
        {
          "internalType": "uint256",
          "name": "_amount",
          "type": "uint256"
        },
        {
          "internalType": "uint256",
          "name": "_minReturn",
          "type": "uint256"
        },
        {
          "internalType": "bytes32",
          "name": "_targetBlockchain",
          "type": "bytes32"
        },
        {
          "internalType": "bytes32",
          "name": "_targetAccount",
          "type": "bytes32"
        },
        {
          "internalType": "uint256",
          "name": "_conversionId",
          "type": "uint256"
        }
      ],
      "name": "xConvert",
      "outputs": [
        {
          "internalType": "uint256",
          "name": "",
          "type": "uint256"
        }
      ],
      "stateMutability": "payable",
      "type": "function"
    },
    {
      "inputs": [
        {
          "internalType": "address[]",
          "name": "_path",
          "type": "address[]"
        },
        {
          "internalType": "contract IBancorX",
          "name": "_bancorX",
          "type": "address"
        },
        {
          "internalType": "uint256",
          "name": "_conversionId",
          "type": "uint256"
        },
        {
          "internalType": "uint256",
          "name": "_minReturn",
          "type": "uint256"
        },
        {
          "internalType": "address payable",
          "name": "_beneficiary",
          "type": "address"
        }
      ],
      "name": "completeXConversion",
      "outputs": [
        {
          "internalType": "uint256",
          "name": "",
          "type": "uint256"
        }
      ],
      "stateMutability": "nonpayable",
      "type": "function"
    },
    {
      "inputs": [
        {
          "internalType": "address[]",
          "name": "_path",
          "type": "address[]"
        },
        {
          "internalType": "uint256",
          "name": "_amount",
          "type": "uint256"
        }
      ],
      "name": "getReturnByPath",
      "outputs": [
        {
          "internalType": "uint256",
          "name": "",
          "type": "uint256"
        },
        {
          "internalType": "uint256",
          "name": "",
          "type": "uint256"
        }
      ],
      "stateMutability": "view",
      "type": "function"
    },
    {
      "inputs": [
        {
          "internalType": "address[]",
          "name": "_path",
          "type": "address[]"
        },
        {
          "internalType": "uint256",
          "name": "_amount",
          "type": "uint256"
        },
        {
          "internalType": "uint256",
          "name": "_minReturn",
          "type": "uint256"
        },
        {
          "internalType": "address payable",
          "name": "_beneficiary",
          "type": "address"
        },
        {
          "internalType": "address",
          "name": "",
          "type": "address"
        },
        {
          "internalType": "uint256",
          "name": "",
          "type": "uint256"
        }
      ],
      "name": "convertByPath",
      "outputs": [
        {
          "internalType": "uint256",
          "name": "",
          "type": "uint256"
        }
      ],
      "stateMutability": "payable",
      "type": "function"
    },
    {
      "inputs": [
        {
          "internalType": "address[]",
          "name": "_path",
          "type": "address[]"
        },
        {
          "internalType": "uint256",
          "name": "_amount",
          "type": "uint256"
        },
        {
          "internalType": "uint256",
          "name": "_minReturn",
          "type": "uint256"
        }
      ],
      "name": "convert",
      "outputs": [
        {
          "internalType": "uint256",
          "name": "",
          "type": "uint256"
        }
      ],
      "stateMutability": "payable",
      "type": "function"
    },
    {
      "inputs": [
        {
          "internalType": "address[]",
          "name": "_path",
          "type": "address[]"
        },
        {
          "internalType": "uint256",
          "name": "_amount",
          "type": "uint256"
        },
        {
          "internalType": "uint256",
          "name": "_minReturn",
          "type": "uint256"
        },
        {
          "internalType": "address",
          "name": "",
          "type": "address"
        },
        {
          "internalType": "uint256",
          "name": "",
          "type": "uint256"
        }
      ],
      "name": "convert2",
      "outputs": [
        {
          "internalType": "uint256",
          "name": "",
          "type": "uint256"
        }
      ],
      "stateMutability": "payable",
      "type": "function"
    },
    {
      "inputs": [
        {
          "internalType": "address[]",
          "name": "_path",
          "type": "address[]"
        },
        {
          "internalType": "uint256",
          "name": "_amount",
          "type": "uint256"
        },
        {
          "internalType": "uint256",
          "name": "_minReturn",
          "type": "uint256"
        },
        {
          "internalType": "address payable",
          "name": "_beneficiary",
          "type": "address"
        }
      ],
      "name": "convertFor",
      "outputs": [
        {
          "internalType": "uint256",
          "name": "",
          "type": "uint256"
        }
      ],
      "stateMutability": "payable",
      "type": "function"
    },
    {
      "inputs": [
        {
          "internalType": "address[]",
          "name": "_path",
          "type": "address[]"
        },
        {
          "internalType": "uint256",
          "name": "_amount",
          "type": "uint256"
        },
        {
          "internalType": "uint256",
          "name": "_minReturn",
          "type": "uint256"
        },
        {
          "internalType": "address payable",
          "name": "_beneficiary",
          "type": "address"
        },
        {
          "internalType": "address",
          "name": "",
          "type": "address"
        },
        {
          "internalType": "uint256",
          "name": "",
          "type": "uint256"
        }
      ],
      "name": "convertFor2",
      "outputs": [
        {
          "internalType": "uint256",
          "name": "",
          "type": "uint256"
        }
      ],
      "stateMutability": "payable",
      "type": "function"
    },
    {
      "inputs": [
        {
          "internalType": "address[]",
          "name": "_path",
          "type": "address[]"
        },
        {
          "internalType": "uint256",
          "name": "_amount",
          "type": "uint256"
        },
        {
          "internalType": "uint256",
          "name": "_minReturn",
          "type": "uint256"
        }
      ],
      "name": "claimAndConvert",
      "outputs": [
        {
          "internalType": "uint256",
          "name": "",
          "type": "uint256"
        }
      ],
      "stateMutability": "nonpayable",
      "type": "function"
    },
    {
      "inputs": [
        {
          "internalType": "address[]",
          "name": "_path",
          "type": "address[]"
        },
        {
          "internalType": "uint256",
          "name": "_amount",
          "type": "uint256"
        },
        {
          "internalType": "uint256",
          "name": "_minReturn",
          "type": "uint256"
        },
        {
          "internalType": "address",
          "name": "",
          "type": "address"
        },
        {
          "internalType": "uint256",
          "name": "",
          "type": "uint256"
        }
      ],
      "name": "claimAndConvert2",
      "outputs": [
        {
          "internalType": "uint256",
          "name": "",
          "type": "uint256"
        }
      ],
      "stateMutability": "nonpayable",
      "type": "function"
    },
    {
      "inputs": [
        {
          "internalType": "address[]",
          "name": "_path",
          "type": "address[]"
        },
        {
          "internalType": "uint256",
          "name": "_amount",
          "type": "uint256"
        },
        {
          "internalType": "uint256",
          "name": "_minReturn",
          "type": "uint256"
        },
        {
          "internalType": "address payable",
          "name": "_beneficiary",
          "type": "address"
        }
      ],
      "name": "claimAndConvertFor",
      "outputs": [
        {
          "internalType": "uint256",
          "name": "",
          "type": "uint256"
        }
      ],
      "stateMutability": "nonpayable",
      "type": "function"
    },
    {
      "inputs": [
        {
          "internalType": "address[]",
          "name": "_path",
          "type": "address[]"
        },
        {
          "internalType": "uint256",
          "name": "_amount",
          "type": "uint256"
        },
        {
          "internalType": "uint256",
          "name": "_minReturn",
          "type": "uint256"
        },
        {
          "internalType": "address payable",
          "name": "_beneficiary",
          "type": "address"
        },
        {
          "internalType": "address",
          "name": "",
          "type": "address"
        },
        {
          "internalType": "uint256",
          "name": "",
          "type": "uint256"
        }
      ],
      "name": "claimAndConvertFor2",
      "outputs": [
        {
          "internalType": "uint256",
          "name": "",
          "type": "uint256"
        }
      ],
      "stateMutability": "nonpayable",
      "type": "function"
    }
  ],
  "bytecode": "0x608060405260016004553480156200001657600080fd5b506040516200533d3803806200533d833981810160405260208110156200003c57600080fd5b810190808051906020019092919050505080336000806101000a81548173ffffffffffffffffffffffffffffffffffffffff021916908373ffffffffffffffffffffffffffffffffffffffff16021790555080620000a0816200012b60201b60201c565b81600260006101000a81548173ffffffffffffffffffffffffffffffffffffffff021916908373ffffffffffffffffffffffffffffffffffffffff16021790555081600360006101000a81548173ffffffffffffffffffffffffffffffffffffffff021916908373ffffffffffffffffffffffffffffffffffffffff160217905550505050620001d2565b600073ffffffffffffffffffffffffffffffffffffffff168173ffffffffffffffffffffffffffffffffffffffff161415620001cf576040517f08c379a00000000000000000000000000000000000000000000000000000000081526004018080602001828103825260138152602001807f4552525f494e56414c49445f414444524553530000000000000000000000000081525060200191505060405180910390fd5b50565b61515b80620001e26000396000f3fe6080604052600436106101a05760003560e01c80638da5cb5b116100ec578063c98fefed1161008a578063e57738e511610064578063e57738e514611122578063f2fde38b14611239578063f3898a971461128a578063f8394fb71461136a576101a7565b8063c98fefed14610f1b578063d4ee1d901461101b578063d734fa191461105c576101a7565b8063b4a176d3116100c6578063b4a176d314610bef578063b77d239b14610c06578063c52173de14610d30578063c7ba24bc14610e2e576101a7565b80638da5cb5b14610977578063ab6214ce146109b8578063b1e9932b14610ae2576101a7565b8063569706eb1161015957806379ba50971161013357806379ba50971461070f5780637b103999146107265780637f9c0ecd1461076757806389f9cc611461084a576101a7565b8063569706eb146105495780635e35359e1461065357806361cd756e146106ce576101a7565b8063024c7ec7146101ac57806308506df7146101e95780630c8496cc146102e45780632978c10e146103ce5780632fe8a6ad1461050557806349d10b6414610532576101a7565b366101a757005b600080fd5b3480156101b857600080fd5b506101e7600480360360208110156101cf57600080fd5b8101908080351515906020019092919050505061146a565b005b3480156101f557600080fd5b506102e26004803603606081101561020c57600080fd5b810190808035906020019064010000000081111561022957600080fd5b82018360208201111561023b57600080fd5b8035906020019184602083028401116401000000008311171561025d57600080fd5b9091929391929390803573ffffffffffffffffffffffffffffffffffffffff1690602001909291908035906020019064010000000081111561029e57600080fd5b8201836020820111156102b057600080fd5b803590602001918460208302840111640100000000831117156102d257600080fd5b909192939192939050505061148f565b005b3480156102f057600080fd5b506103b16004803603604081101561030757600080fd5b810190808035906020019064010000000081111561032457600080fd5b82018360208201111561033657600080fd5b8035906020019184602083028401116401000000008311171561035857600080fd5b919080806020026020016040519081016040528093929190818152602001838360200280828437600081840152601f19601f820116905080830192505050505050509192919290803590602001909291905050506115a6565b604051808381526020018281526020019250505060405180910390f35b3480156103da57600080fd5b506104ef600480360360c08110156103f157600080fd5b810190808035906020019064010000000081111561040e57600080fd5b82018360208201111561042057600080fd5b8035906020019184602083028401116401000000008311171561044257600080fd5b919080806020026020016040519081016040528093929190818152602001838360200280828437600081840152601f19601f8201169050808301925050505050505091929192908035906020019092919080359060200190929190803573ffffffffffffffffffffffffffffffffffffffff169060200190929190803573ffffffffffffffffffffffffffffffffffffffff169060200190929190803590602001909291905050506115c0565b6040518082815260200191505060405180910390f35b34801561051157600080fd5b5061051a6115da565b60405180821515815260200191505060405180910390f35b34801561053e57600080fd5b506105476115ed565b005b61063d600480360360a081101561055f57600080fd5b810190808035906020019064010000000081111561057c57600080fd5b82018360208201111561058e57600080fd5b803590602001918460208302840111640100000000831117156105b057600080fd5b919080806020026020016040519081016040528093929190818152602001838360200280828437600081840152601f19601f8201169050808301925050505050505091929192908035906020019092919080359060200190929190803573ffffffffffffffffffffffffffffffffffffffff169060200190929190803590602001909291905050506119e5565b6040518082815260200191505060405180910390f35b34801561065f57600080fd5b506106cc6004803603606081101561067657600080fd5b81019080803573ffffffffffffffffffffffffffffffffffffffff169060200190929190803573ffffffffffffffffffffffffffffffffffffffff169060200190929190803590602001909291905050506119ff565b005b3480156106da57600080fd5b506106e3611a42565b604051808273ffffffffffffffffffffffffffffffffffffffff16815260200191505060405180910390f35b34801561071b57600080fd5b50610724611a68565b005b34801561073257600080fd5b5061073b611c6d565b604051808273ffffffffffffffffffffffffffffffffffffffff16815260200191505060405180910390f35b34801561077357600080fd5b506108346004803603604081101561078a57600080fd5b81019080803590602001906401000000008111156107a757600080fd5b8201836020820111156107b957600080fd5b803590602001918460208302840111640100000000831117156107db57600080fd5b919080806020026020016040519081016040528093929190818152602001838360200280828437600081840152601f19601f82011690508083019250505050505050919291929080359060200190929190505050611c93565b6040518082815260200191505060405180910390f35b34801561085657600080fd5b50610961600480360360a081101561086d57600080fd5b810190808035906020019064010000000081111561088a57600080fd5b82018360208201111561089c57600080fd5b803590602001918460208302840111640100000000831117156108be57600080fd5b919080806020026020016040519081016040528093929190818152602001838360200280828437600081840152601f19601f820116905080830192505050505050509192919290803573ffffffffffffffffffffffffffffffffffffffff1690602001909291908035906020019092919080359060200190929190803573ffffffffffffffffffffffffffffffffffffffff169060200190929190505050612689565b6040518082815260200191505060405180910390f35b34801561098357600080fd5b5061098c612886565b604051808273ffffffffffffffffffffffffffffffffffffffff16815260200191505060405180910390f35b610acc600480360360c08110156109ce57600080fd5b81019080803590602001906401000000008111156109eb57600080fd5b8201836020820111156109fd57600080fd5b80359060200191846020830284011164010000000083111715610a1f57600080fd5b919080806020026020016040519081016040528093929190818152602001838360200280828437600081840152601f19601f8201169050808301925050505050505091929192908035906020019092919080359060200190929190803573ffffffffffffffffffffffffffffffffffffffff169060200190929190803573ffffffffffffffffffffffffffffffffffffffff169060200190929190803590602001909291905050506128aa565b6040518082815260200191505060405180910390f35b348015610aee57600080fd5b50610bd960048036036080811015610b0557600080fd5b8101908080359060200190640100000000811115610b2257600080fd5b820183602082011115610b3457600080fd5b80359060200191846020830284011164010000000083111715610b5657600080fd5b919080806020026020016040519081016040528093929190818152602001838360200280828437600081840152601f19601f8201169050808301925050505050505091929192908035906020019092919080359060200190929190803573ffffffffffffffffffffffffffffffffffffffff1690602001909291905050506128cf565b6040518082815260200191505060405180910390f35b348015610bfb57600080fd5b50610c046128e7565b005b610d1a600480360360c0811015610c1c57600080fd5b8101908080359060200190640100000000811115610c3957600080fd5b820183602082011115610c4b57600080fd5b80359060200191846020830284011164010000000083111715610c6d57600080fd5b919080806020026020016040519081016040528093929190818152602001838360200280828437600081840152601f19601f8201169050808301925050505050505091929192908035906020019092919080359060200190929190803573ffffffffffffffffffffffffffffffffffffffff169060200190929190803573ffffffffffffffffffffffffffffffffffffffff16906020019092919080359060200190929190505050612954565b6040518082815260200191505060405180910390f35b610e18600480360360c0811015610d4657600080fd5b8101908080359060200190640100000000811115610d6357600080fd5b820183602082011115610d7557600080fd5b80359060200191846020830284011164010000000083111715610d9757600080fd5b919080806020026020016040519081016040528093929190818152602001838360200280828437600081840152601f19601f820116905080830192505050505050509192919290803590602001909291908035906020019092919080359060200190929190803590602001909291908035906020019092919050505061296e565b6040518082815260200191505060405180910390f35b348015610e3a57600080fd5b50610f0560048036036060811015610e5157600080fd5b8101908080359060200190640100000000811115610e6e57600080fd5b820183602082011115610e8057600080fd5b80359060200191846020830284011164010000000083111715610ea257600080fd5b919080806020026020016040519081016040528093929190818152602001838360200280828437600081840152601f19601f8201169050808301925050505050505091929192908035906020019092919080359060200190929190505050612b5b565b6040518082815260200191505060405180910390f35b61100560048036036080811015610f3157600080fd5b8101908080359060200190640100000000811115610f4e57600080fd5b820183602082011115610f6057600080fd5b80359060200191846020830284011164010000000083111715610f8257600080fd5b919080806020026020016040519081016040528093929190818152602001838360200280828437600081840152601f19601f8201169050808301925050505050505091929192908035906020019092919080359060200190929190803573ffffffffffffffffffffffffffffffffffffffff169060200190929190505050612b73565b6040518082815260200191505060405180910390f35b34801561102757600080fd5b50611030612b8b565b604051808273ffffffffffffffffffffffffffffffffffffffff16815260200191505060405180910390f35b34801561106857600080fd5b506110cb6004803603604081101561107f57600080fd5b81019080803573ffffffffffffffffffffffffffffffffffffffff169060200190929190803573ffffffffffffffffffffffffffffffffffffffff169060200190929190505050612bb1565b6040518080602001828103825283818151815260200191508051906020019060200280838360005b8381101561110e5780820151818401526020810190506110f3565b505050509050019250505060405180910390f35b34801561112e57600080fd5b50611223600480360360a081101561114557600080fd5b810190808035906020019064010000000081111561116257600080fd5b82018360208201111561117457600080fd5b8035906020019184602083028401116401000000008311171561119657600080fd5b919080806020026020016040519081016040528093929190818152602001838360200280828437600081840152601f19601f8201169050808301925050505050505091929192908035906020019092919080359060200190929190803573ffffffffffffffffffffffffffffffffffffffff16906020019092919080359060200190929190505050612d43565b6040518082815260200191505060405180910390f35b34801561124557600080fd5b506112886004803603602081101561125c57600080fd5b81019080803573ffffffffffffffffffffffffffffffffffffffff169060200190929190505050612d5d565b005b611354600480360360608110156112a057600080fd5b81019080803590602001906401000000008111156112bd57600080fd5b8201836020820111156112cf57600080fd5b803590602001918460208302840111640100000000831117156112f157600080fd5b919080806020026020016040519081016040528093929190818152602001838360200280828437600081840152601f19601f8201169050808301925050505050505091929192908035906020019092919080359060200190929190505050612e6b565b6040518082815260200191505060405180910390f35b6114546004803603608081101561138057600080fd5b810190808035906020019064010000000081111561139d57600080fd5b8201836020820111156113af57600080fd5b803590602001918460208302840111640100000000831117156113d157600080fd5b919080806020026020016040519081016040528093929190818152602001838360200280828437600081840152601f19601f8201169050808301925050505050505091929192908035906020019092919080359060200190929190803573ffffffffffffffffffffffffffffffffffffffff169060200190929190505050612e83565b6040518082815260200191505060405180910390f35b611472612fdc565b80600360146101000a81548160ff02191690831515021790555050565b611497612fdc565b826114a18161309f565b6000868690509050838390508114611521576040517f08c379a00000000000000000000000000000000000000000000000000000000081526004018080602001828103825260128152602001807f4552525f494e56414c49445f4c454e475448000000000000000000000000000081525060200191505060405180910390fd5b60005b8181101561159c576115918686868481811061153c57fe5b905060200201358a8a8581811061154f57fe5b9050602002013573ffffffffffffffffffffffffffffffffffffffff1673ffffffffffffffffffffffffffffffffffffffff166131459092919063ffffffff16565b806001019050611524565b5050505050505050565b6000806115b38484611c93565b6000915091509250929050565b60006115ce87878787612e83565b90509695505050505050565b600360149054906101000a900460ff1681565b60008054906101000a900473ffffffffffffffffffffffffffffffffffffffff1673ffffffffffffffffffffffffffffffffffffffff163373ffffffffffffffffffffffffffffffffffffffff1614806116545750600360149054906101000a900460ff16155b6116c6576040517f08c379a00000000000000000000000000000000000000000000000000000000081526004018080602001828103825260118152602001807f4552525f4143434553535f44454e49454400000000000000000000000000000081525060200191505060405180910390fd5b60006116f17f436f6e74726163745265676973747279000000000000000000000000000000006131e7565b9050600260009054906101000a900473ffffffffffffffffffffffffffffffffffffffff1673ffffffffffffffffffffffffffffffffffffffff168173ffffffffffffffffffffffffffffffffffffffff161415801561177e5750600073ffffffffffffffffffffffffffffffffffffffff168173ffffffffffffffffffffffffffffffffffffffff1614155b6117f0576040517f08c379a00000000000000000000000000000000000000000000000000000000081526004018080602001828103825260148152602001807f4552525f494e56414c49445f524547495354525900000000000000000000000081525060200191505060405180910390fd5b600073ffffffffffffffffffffffffffffffffffffffff168173ffffffffffffffffffffffffffffffffffffffff1663bb34534c7f436f6e74726163745265676973747279000000000000000000000000000000006040518263ffffffff1660e01b81526004018082815260200191505060206040518083038186803b15801561187957600080fd5b505afa15801561188d573d6000803e3d6000fd5b505050506040513d60208110156118a357600080fd5b810190808051906020019092919050505073ffffffffffffffffffffffffffffffffffffffff16141561193e576040517f08c379a00000000000000000000000000000000000000000000000000000000081526004018080602001828103825260148152602001807f4552525f494e56414c49445f524547495354525900000000000000000000000081525060200191505060405180910390fd5b600260009054906101000a900473ffffffffffffffffffffffffffffffffffffffff16600360006101000a81548173ffffffffffffffffffffffffffffffffffffffff021916908373ffffffffffffffffffffffffffffffffffffffff16021790555080600260006101000a81548173ffffffffffffffffffffffffffffffffffffffff021916908373ffffffffffffffffffffffffffffffffffffffff16021790555050565b60006119f48686866000612e83565b905095945050505050565b611a07612fdc565b81611a118161309f565b611a3c83838673ffffffffffffffffffffffffffffffffffffffff166131459092919063ffffffff16565b50505050565b600360009054906101000a900473ffffffffffffffffffffffffffffffffffffffff1681565b600160009054906101000a900473ffffffffffffffffffffffffffffffffffffffff1673ffffffffffffffffffffffffffffffffffffffff163373ffffffffffffffffffffffffffffffffffffffff1614611b2b576040517f08c379a00000000000000000000000000000000000000000000000000000000081526004018080602001828103825260118152602001807f4552525f4143434553535f44454e49454400000000000000000000000000000081525060200191505060405180910390fd5b600160009054906101000a900473ffffffffffffffffffffffffffffffffffffffff1673ffffffffffffffffffffffffffffffffffffffff1660008054906101000a900473ffffffffffffffffffffffffffffffffffffffff1673ffffffffffffffffffffffffffffffffffffffff167f343765429aea5a34b3ff6a3785a98a5abb2597aca87bfbb58632c173d585373a60405160405180910390a3600160009054906101000a900473ffffffffffffffffffffffffffffffffffffffff166000806101000a81548173ffffffffffffffffffffffffffffffffffffffff021916908373ffffffffffffffffffffffffffffffffffffffff1602179055506000600160006101000a81548173ffffffffffffffffffffffffffffffffffffffff021916908373ffffffffffffffffffffffffffffffffffffffff160217905550565b600260009054906101000a900473ffffffffffffffffffffffffffffffffffffffff1681565b600080600080600080600080611cc87f42616e636f72466f726d756c61000000000000000000000000000000000000006131e7565b905088965060028a51118015611ce95750600160028b5181611ce657fe5b06145b611d5b576040517f08c379a00000000000000000000000000000000000000000000000000000000081526004018080602001828103825260108152602001807f4552525f494e56414c49445f504154480000000000000000000000000000000081525060200191505060405180910390fd5b6000600290505b8a518110156126785760008b6002830381518110611d7c57fe5b6020026020010151905060008c6001840381518110611d9757fe5b6020026020010151905060008d8481518110611daf57fe5b602002602001015190508173ffffffffffffffffffffffffffffffffffffffff16638da5cb5b6040518163ffffffff1660e01b815260040160206040518083038186803b158015611dff57600080fd5b505afa158015611e13573d6000803e3d6000fd5b505050506040513d6020811015611e2957600080fd5b810190808051906020019092919050505095508173ffffffffffffffffffffffffffffffffffffffff168173ffffffffffffffffffffffffffffffffffffffff161415612248576003841080611ec157508d6003850381518110611e8957fe5b602002602001015173ffffffffffffffffffffffffffffffffffffffff168273ffffffffffffffffffffffffffffffffffffffff1614155b15611f4a578173ffffffffffffffffffffffffffffffffffffffff166318160ddd6040518163ffffffff1660e01b815260040160206040518083038186803b158015611f0c57600080fd5b505afa158015611f20573d6000803e3d6000fd5b505050506040513d6020811015611f3657600080fd5b810190808051906020019092919050505098505b8573ffffffffffffffffffffffffffffffffffffffff1663d8959512846040518263ffffffff1660e01b8152600401808273ffffffffffffffffffffffffffffffffffffffff16815260200191505060206040518083038186803b158015611fb157600080fd5b505afa158015611fc5573d6000803e3d6000fd5b505050506040513d6020811015611fdb57600080fd5b810190808051906020019092919050505097508573ffffffffffffffffffffffffffffffffffffffff16630e53aae9846040518263ffffffff1660e01b8152600401808273ffffffffffffffffffffffffffffffffffffffff16815260200191505060a06040518083038186803b15801561205557600080fd5b505afa158015612069573d6000803e3d6000fd5b505050506040513d60a081101561207f57600080fd5b8101908080519060200190929190805190602001909291908051906020019092919080519060200190929190805190602001909291905050509091929350909150905050809750508473ffffffffffffffffffffffffffffffffffffffff1663f3250fe28a8a8a8f6040518563ffffffff1660e01b8152600401808581526020018481526020018363ffffffff16815260200182815260200194505050505060206040518083038186803b15801561213657600080fd5b505afa15801561214a573d6000803e3d6000fd5b505050506040513d602081101561216057600080fd5b81019080805190602001909291905050509a50612227620f424063ffffffff166122198873ffffffffffffffffffffffffffffffffffffffff1663579cd3ca6040518163ffffffff1660e01b815260040160206040518083038186803b1580156121c957600080fd5b505afa1580156121dd573d6000803e3d6000fd5b505050506040513d60208110156121f357600080fd5b810190808051906020019092919050505063ffffffff168e61329e90919063ffffffff16565b61332490919063ffffffff16565b9950898b039a506122418b8a6133ad90919063ffffffff16565b985061266a565b8173ffffffffffffffffffffffffffffffffffffffff168373ffffffffffffffffffffffffffffffffffffffff1614156126545760038410806122cd57508d600385038151811061229557fe5b602002602001015173ffffffffffffffffffffffffffffffffffffffff168273ffffffffffffffffffffffffffffffffffffffff1614155b15612356578173ffffffffffffffffffffffffffffffffffffffff166318160ddd6040518163ffffffff1660e01b815260040160206040518083038186803b15801561231857600080fd5b505afa15801561232c573d6000803e3d6000fd5b505050506040513d602081101561234257600080fd5b810190808051906020019092919050505098505b8573ffffffffffffffffffffffffffffffffffffffff1663d8959512826040518263ffffffff1660e01b8152600401808273ffffffffffffffffffffffffffffffffffffffff16815260200191505060206040518083038186803b1580156123bd57600080fd5b505afa1580156123d1573d6000803e3d6000fd5b505050506040513d60208110156123e757600080fd5b810190808051906020019092919050505097508573ffffffffffffffffffffffffffffffffffffffff16630e53aae9826040518263ffffffff1660e01b8152600401808273ffffffffffffffffffffffffffffffffffffffff16815260200191505060a06040518083038186803b15801561246157600080fd5b505afa158015612475573d6000803e3d6000fd5b505050506040513d60a081101561248b57600080fd5b8101908080519060200190929190805190602001909291908051906020019092919080519060200190929190805190602001909291905050509091929350909150905050809750508473ffffffffffffffffffffffffffffffffffffffff166376cf0b568a8a8a8f6040518563ffffffff1660e01b8152600401808581526020018481526020018363ffffffff16815260200182815260200194505050505060206040518083038186803b15801561254257600080fd5b505afa158015612556573d6000803e3d6000fd5b505050506040513d602081101561256c57600080fd5b81019080805190602001909291905050509a50612633620f424063ffffffff166126258873ffffffffffffffffffffffffffffffffffffffff1663579cd3ca6040518163ffffffff1660e01b815260040160206040518083038186803b1580156125d557600080fd5b505afa1580156125e9573d6000803e3d6000fd5b505050506040513d60208110156125ff57600080fd5b810190808051906020019092919050505063ffffffff168e61329e90919063ffffffff16565b61332490919063ffffffff16565b9950898b039a5061264d8b8a61343590919063ffffffff16565b9850612669565b6126608684838e6134b8565b809b50819c5050505b5b505050600281019050611d62565b508697505050505050505092915050565b60008473ffffffffffffffffffffffffffffffffffffffff1663fc0c546a6040518163ffffffff1660e01b815260040160206040518083038186803b1580156126d157600080fd5b505afa1580156126e5573d6000803e3d6000fd5b505050506040513d60208110156126fb57600080fd5b810190808051906020019092919050505073ffffffffffffffffffffffffffffffffffffffff168660008151811061272f57fe5b602002602001015173ffffffffffffffffffffffffffffffffffffffff16146127c0576040517f08c379a00000000000000000000000000000000000000000000000000000000081526004018080602001828103825260188152602001807f4552525f494e56414c49445f534f555243455f544f4b454e000000000000000081525060200191505060405180910390fd5b60008573ffffffffffffffffffffffffffffffffffffffff1663aafd6b7686336040518363ffffffff1660e01b8152600401808381526020018273ffffffffffffffffffffffffffffffffffffffff1681526020019250505060206040518083038186803b15801561283157600080fd5b505afa158015612845573d6000803e3d6000fd5b505050506040513d602081101561285b57600080fd5b8101908080519060200190929190505050905061287a87828686612e83565b91505095945050505050565b60008054906101000a900473ffffffffffffffffffffffffffffffffffffffff1681565b6000846128b6816136e2565b6128c288888888612e83565b9150509695505050505050565b60006128dd85858585612e83565b9050949350505050565b6128ef612fdc565b600360009054906101000a900473ffffffffffffffffffffffffffffffffffffffff16600260006101000a81548173ffffffffffffffffffffffffffffffffffffffff021916908373ffffffffffffffffffffffffffffffffffffffff160217905550565b600061296287878787612e83565b90509695505050505050565b60008461297a816136e2565b60008860018a51038151811061298c57fe5b6020026020010151905060006129c17f42616e636f7258000000000000000000000000000000000000000000000000006131e7565b90506129ec7f424e54546f6b656e0000000000000000000000000000000000000000000000006131e7565b73ffffffffffffffffffffffffffffffffffffffff168273ffffffffffffffffffffffffffffffffffffffff1614612a8c576040517f08c379a00000000000000000000000000000000000000000000000000000000081526004018080602001828103825260188152602001807f4552525f494e56414c49445f5441524745545f544f4b454e000000000000000081525060200191505060405180910390fd5b6000612a9a8b8b8b30612e83565b9050612ac782828573ffffffffffffffffffffffffffffffffffffffff1661375b9092919063ffffffff16565b8173ffffffffffffffffffffffffffffffffffffffff1663427c03748989848a6040518563ffffffff1660e01b815260040180858152602001848152602001838152602001828152602001945050505050600060405180830381600087803b158015612b3257600080fd5b505af1158015612b46573d6000803e3d6000fd5b50505050809450505050509695505050505050565b6000612b6a8484846000612e83565b90509392505050565b6000612b8185858585612e83565b9050949350505050565b600160009054906101000a900473ffffffffffffffffffffffffffffffffffffffff1681565b60606000612bde7f436f6e76657273696f6e5061746846696e6465720000000000000000000000006131e7565b90508073ffffffffffffffffffffffffffffffffffffffff1663a1c421cd85856040518363ffffffff1660e01b8152600401808373ffffffffffffffffffffffffffffffffffffffff1681526020018273ffffffffffffffffffffffffffffffffffffffff1681526020019250505060006040518083038186803b158015612c6557600080fd5b505afa158015612c79573d6000803e3d6000fd5b505050506040513d6000823e3d601f19601f820116820180604052506020811015612ca357600080fd5b8101908080516040519392919084640100000000821115612cc357600080fd5b83820191506020820185811115612cd957600080fd5b8251866020820283011164010000000082111715612cf657600080fd5b8083526020830192505050908051906020019060200280838360005b83811015612d2d578082015181840152602081019050612d12565b5050505090500160405250505091505092915050565b6000612d528686866000612e83565b905095945050505050565b612d65612fdc565b60008054906101000a900473ffffffffffffffffffffffffffffffffffffffff1673ffffffffffffffffffffffffffffffffffffffff168173ffffffffffffffffffffffffffffffffffffffff161415612e27576040517f08c379a000000000000000000000000000000000000000000000000000000000815260040180806020018281038252600e8152602001807f4552525f53414d455f4f574e455200000000000000000000000000000000000081525060200191505060405180910390fd5b80600160006101000a81548173ffffffffffffffffffffffffffffffffffffffff021916908373ffffffffffffffffffffffffffffffffffffffff16021790555050565b6000612e7a8484846000612e83565b90509392505050565b6000612e8d6137a7565b600260048190555082612e9f816136e2565b60028651118015612ebb575060016002875181612eb857fe5b06145b612f2d576040517f08c379a00000000000000000000000000000000000000000000000000000000081526004018080602001828103825260108152602001807f4552525f494e56414c49445f504154480000000000000000000000000000000081525060200191505060405180910390fd5b612f6086600081518110612f3d57fe5b602002602001015187600181518110612f5257fe5b602002602001015187613821565b6000339050600073ffffffffffffffffffffffffffffffffffffffff168473ffffffffffffffffffffffffffffffffffffffff1614612f9d578390505b6060612fa98883613b3a565b90506000612fb8828989613ed5565b9050612fc58282856144d2565b809450505050506001600481905550949350505050565b60008054906101000a900473ffffffffffffffffffffffffffffffffffffffff1673ffffffffffffffffffffffffffffffffffffffff163373ffffffffffffffffffffffffffffffffffffffff161461309d576040517f08c379a00000000000000000000000000000000000000000000000000000000081526004018080602001828103825260118152602001807f4552525f4143434553535f44454e49454400000000000000000000000000000081525060200191505060405180910390fd5b565b600073ffffffffffffffffffffffffffffffffffffffff168173ffffffffffffffffffffffffffffffffffffffff161415613142576040517f08c379a00000000000000000000000000000000000000000000000000000000081526004018080602001828103825260138152602001807f4552525f494e56414c49445f414444524553530000000000000000000000000081525060200191505060405180910390fd5b50565b6000811415613153576131e2565b61315c83614593565b156131ad578173ffffffffffffffffffffffffffffffffffffffff166108fc829081150290604051600060405180830381858888f193505050501580156131a7573d6000803e3d6000fd5b506131e1565b6131e082826131bb866145df565b73ffffffffffffffffffffffffffffffffffffffff166145e99092919063ffffffff16565b5b5b505050565b6000600260009054906101000a900473ffffffffffffffffffffffffffffffffffffffff1673ffffffffffffffffffffffffffffffffffffffff1663bb34534c836040518263ffffffff1660e01b81526004018082815260200191505060206040518083038186803b15801561325c57600080fd5b505afa158015613270573d6000803e3d6000fd5b505050506040513d602081101561328657600080fd5b81019080805190602001909291905050509050919050565b6000808314156132b1576000905061331e565b60008284029050828482816132c257fe5b0414613319576040517f08c379a00000000000000000000000000000000000000000000000000000000081526004018080602001828103825260218152602001806150a56021913960400191505060405180910390fd5b809150505b92915050565b600080821161339b576040517f08c379a000000000000000000000000000000000000000000000000000000000815260040180806020018281038252601a8152602001807f536166654d6174683a206469766973696f6e206279207a65726f00000000000081525060200191505060405180910390fd5b8183816133a457fe5b04905092915050565b60008082840190508381101561342b576040517f08c379a000000000000000000000000000000000000000000000000000000000815260040180806020018281038252601b8152602001807f536166654d6174683a206164646974696f6e206f766572666c6f77000000000081525060200191505060405180910390fd5b8091505092915050565b6000828211156134ad576040517f08c379a000000000000000000000000000000000000000000000000000000000815260040180806020018281038252601e8152602001807f536166654d6174683a207375627472616374696f6e206f766572666c6f77000081525060200191505060405180910390fd5b818303905092915050565b60008060607f1e1401f8329fe5eb5c7e76277d3c971ffeee3a41a0eef7c00afeb0a286cef0af868686604051602401808473ffffffffffffffffffffffffffffffffffffffff1681526020018373ffffffffffffffffffffffffffffffffffffffff1681526020018281526020019350505050604051602081830303815290604052907bffffffffffffffffffffffffffffffffffffffffffffffffffffffff19166020820180517bffffffffffffffffffffffffffffffffffffffffffffffffffffffff83818316178352505050509050600060608873ffffffffffffffffffffffffffffffffffffffff16836040518082805190602001908083835b602083106135d957805182526020820191506020810190506020830392506135b6565b6001836020036101000a038019825116818451168082178552505050505050905001915050600060405180830381855afa9150503d8060008114613639576040519150601f19603f3d011682016040523d82523d6000602084013e61363e565b606091505b509150915081156136ce5760408151141561368f5780806020019051604081101561366857600080fd5b810190808051906020019092919080519060200190929190505050945094505050506136d9565b6020815114156136cd578080602001905160208110156136ae57600080fd5b81019080805190602001909291905050506000945094505050506136d9565b5b600080945094505050505b94509492505050565b60008111613758576040517f08c379a000000000000000000000000000000000000000000000000000000000815260040180806020018281038252600e8152602001807f4552525f5a45524f5f56414c554500000000000000000000000000000000000081525060200191505060405180910390fd5b50565b61376483614593565b1561376e576137a2565b6137a1828261377c866145df565b73ffffffffffffffffffffffffffffffffffffffff1661468b9092919063ffffffff16565b5b505050565b60016004541461381f576040517f08c379a000000000000000000000000000000000000000000000000000000000815260040180806020018281038252600e8152602001807f4552525f5245454e5452414e435900000000000000000000000000000000000081525060200191505060405180910390fd5b565b60008273ffffffffffffffffffffffffffffffffffffffff16638da5cb5b6040518163ffffffff1660e01b815260040160206040518083038186803b15801561386957600080fd5b505afa15801561387d573d6000803e3d6000fd5b505050506040513d602081101561389357600080fd5b8101908080519060200190929190505050905060006138b1826147d2565b90506000341115613a3a57823414613931576040517f08c379a00000000000000000000000000000000000000000000000000000000081526004018080602001828103825260178152602001807f4552525f4554485f414d4f554e545f4d49534d4154434800000000000000000081525060200191505060405180910390fd5b6139508573ffffffffffffffffffffffffffffffffffffffff16614593565b6139c2576040517f08c379a00000000000000000000000000000000000000000000000000000000081526004018080602001828103825260188152602001807f4552525f494e56414c49445f534f555243455f544f4b454e000000000000000081525060200191505060405180910390fd5b80613a35576040517f08c379a000000000000000000000000000000000000000000000000000000000815260040180806020018281038252601b8152602001807f4552525f434f4e5645525445525f4e4f545f535550504f52544544000000000081525060200191505060405180910390fd5b613b33565b613a598573ffffffffffffffffffffffffffffffffffffffff16614593565b15613acc576040517f08c379a00000000000000000000000000000000000000000000000000000000081526004018080602001828103825260188152602001807f4552525f494e56414c49445f534f555243455f544f4b454e000000000000000081525060200191505060405180910390fd5b8015613b0457613aff3383858873ffffffffffffffffffffffffffffffffffffffff16614969909392919063ffffffff16565b613b32565b613b313330858873ffffffffffffffffffffffffffffffffffffffff16614969909392919063ffffffff16565b5b5b5050505050565b6060806002845181613b4857fe5b0467ffffffffffffffff81118015613b5f57600080fd5b50604051908082528060200260200182016040528015613b9957816020015b613b86614fd8565b815260200190600190039081613b7e5790505b50905060005b6001855103811015613d4e576000856001830181518110613bbc57fe5b6020026020010151905060008173ffffffffffffffffffffffffffffffffffffffff16638da5cb5b6040518163ffffffff1660e01b815260040160206040518083038186803b158015613c0e57600080fd5b505afa158015613c22573d6000803e3d6000fd5b505050506040513d6020811015613c3857600080fd5b810190808051906020019092919050505090506000876002850181518110613c5c57fe5b602002602001015190506040518060c001604052808373ffffffffffffffffffffffffffffffffffffffff1681526020018473ffffffffffffffffffffffffffffffffffffffff168152602001898681518110613cb557fe5b602002602001015173ffffffffffffffffffffffffffffffffffffffff1681526020018273ffffffffffffffffffffffffffffffffffffffff168152602001600073ffffffffffffffffffffffffffffffffffffffff168152602001613d1a846147d2565b15158152508560028681613d2a57fe5b0481518110613d3557fe5b6020026020010181905250505050600281019050613b9f565b600090505b8151811015613eca57613d64614fd8565b828281518110613d7057fe5b602002602001015190508060a0015115613e83576001835103821415613dcd5784816080019073ffffffffffffffffffffffffffffffffffffffff16908173ffffffffffffffffffffffffffffffffffffffff1681525050613e7e565b826001830181518110613ddc57fe5b602002602001015160a0015115613e4457826001830181518110613dfc57fe5b602002602001015160000151816080019073ffffffffffffffffffffffffffffffffffffffff16908173ffffffffffffffffffffffffffffffffffffffff1681525050613e7d565b30816080019073ffffffffffffffffffffffffffffffffffffffff16908173ffffffffffffffffffffffffffffffffffffffff16815250505b5b613ebc565b30816080019073ffffffffffffffffffffffffffffffffffffffff16908173ffffffffffffffffffffffffffffffffffffffff16815250505b508080600101915050613d53565b819250505092915050565b600080600084905060005b865181101561444f57613ef1614fd8565b878281518110613efd57fe5b602002602001015190508060a0015115613fd15760008214158015613f6757503073ffffffffffffffffffffffffffffffffffffffff16886001840381518110613f4357fe5b60200260200101516080015173ffffffffffffffffffffffffffffffffffffffff16145b8015613f935750613f91816040015173ffffffffffffffffffffffffffffffffffffffff16614593565b155b15613fcc57613fcb816000015184836040015173ffffffffffffffffffffffffffffffffffffffff166131459092919063ffffffff16565b5b614041565b806020015173ffffffffffffffffffffffffffffffffffffffff16816040015173ffffffffffffffffffffffffffffffffffffffff16146140405761403f816000015184836040015173ffffffffffffffffffffffffffffffffffffffff1661375b9092919063ffffffff16565b5b5b8060a0015161413057806000015173ffffffffffffffffffffffffffffffffffffffff16635e5144eb826040015183606001518660016040518563ffffffff1660e01b8152600401808573ffffffffffffffffffffffffffffffffffffffff1681526020018473ffffffffffffffffffffffffffffffffffffffff168152602001838152602001828152602001945050505050602060405180830381600087803b1580156140ee57600080fd5b505af1158015614102573d6000803e3d6000fd5b505050506040513d602081101561411857600080fd5b81019080805190602001909291905050509350614390565b614153816040015173ffffffffffffffffffffffffffffffffffffffff16614593565b1561427657806000015173ffffffffffffffffffffffffffffffffffffffff1663e8dc12ff3483604001518460600151873387608001516040518763ffffffff1660e01b8152600401808673ffffffffffffffffffffffffffffffffffffffff1681526020018573ffffffffffffffffffffffffffffffffffffffff1681526020018481526020018373ffffffffffffffffffffffffffffffffffffffff1681526020018273ffffffffffffffffffffffffffffffffffffffff168152602001955050505050506020604051808303818588803b15801561423357600080fd5b505af1158015614247573d6000803e3d6000fd5b50505050506040513d602081101561425e57600080fd5b8101908080519060200190929190505050935061438f565b806000015173ffffffffffffffffffffffffffffffffffffffff1663e8dc12ff82604001518360600151863386608001516040518663ffffffff1660e01b8152600401808673ffffffffffffffffffffffffffffffffffffffff1681526020018573ffffffffffffffffffffffffffffffffffffffff1681526020018481526020018373ffffffffffffffffffffffffffffffffffffffff1681526020018273ffffffffffffffffffffffffffffffffffffffff16815260200195505050505050602060405180830381600087803b15801561435157600080fd5b505af1158015614365573d6000803e3d6000fd5b505050506040513d602081101561437b57600080fd5b810190808051906020019092919050505093505b5b806060015173ffffffffffffffffffffffffffffffffffffffff16816040015173ffffffffffffffffffffffffffffffffffffffff16826020015173ffffffffffffffffffffffffffffffffffffffff167f7154b38b5dd31bb3122436a96d4e09aba5b323ae1fd580025fab55074334c095868833604051808481526020018381526020018273ffffffffffffffffffffffffffffffffffffffff168152602001935050505060405180910390a4839250508080600101915050613ee0565b50838210156144c6576040517f08c379a00000000000000000000000000000000000000000000000000000000081526004018080602001828103825260128152602001807f4552525f52455455524e5f544f4f5f4c4f57000000000000000000000000000081525060200191505060405180910390fd5b81925050509392505050565b6144da614fd8565b836001855103815181106144ea57fe5b602002602001015190503073ffffffffffffffffffffffffffffffffffffffff16816080015173ffffffffffffffffffffffffffffffffffffffff1614614531575061458e565b6000816060015190506145598173ffffffffffffffffffffffffffffffffffffffff16614593565b1561456057fe5b61458b83858373ffffffffffffffffffffffffffffffffffffffff166131459092919063ffffffff16565b50505b505050565b600073eeeeeeeeeeeeeeeeeeeeeeeeeeeeeeeeeeeeeeee73ffffffffffffffffffffffffffffffffffffffff168273ffffffffffffffffffffffffffffffffffffffff16149050919050565b6000819050919050565b6146868363a9059cbb60e01b8484604051602401808373ffffffffffffffffffffffffffffffffffffffff16815260200182815260200192505050604051602081830303815290604052907bffffffffffffffffffffffffffffffffffffffffffffffffffffffff19166020820180517bffffffffffffffffffffffffffffffffffffffffffffffffffffffff83818316178352505050506149c3565b505050565b6000811415614699576147cd565b60008373ffffffffffffffffffffffffffffffffffffffff1663dd62ed3e30856040518363ffffffff1660e01b8152600401808373ffffffffffffffffffffffffffffffffffffffff1681526020018273ffffffffffffffffffffffffffffffffffffffff1681526020019250505060206040518083038186803b15801561472057600080fd5b505afa158015614734573d6000803e3d6000fd5b505050506040513d602081101561474a57600080fd5b8101908080519060200190929190505050905081811061476a57506147cd565b60008111156147a05761479f8360008673ffffffffffffffffffffffffffffffffffffffff16614ab29092919063ffffffff16565b5b6147cb83838673ffffffffffffffffffffffffffffffffffffffff16614ab29092919063ffffffff16565b505b505050565b600060607fd260529c8620a59d78f2e58cfd1294673bb6cba228ad1f34ac7731003ab870dd604051602401604051602081830303815290604052907bffffffffffffffffffffffffffffffffffffffffffffffffffffffff19166020820180517bffffffffffffffffffffffffffffffffffffffffffffffffffffffff83818316178352505050509050600060608473ffffffffffffffffffffffffffffffffffffffff16610fa0846040518082805190602001908083835b602083106148ae578051825260208201915060208101905060208303925061488b565b6001836020036101000a0380198251168184511680821785525050505050509050019150506000604051808303818686fa925050503d806000811461490f576040519150601f19603f3d011682016040523d82523d6000602084013e614914565b606091505b5091509150818015614927575060208151145b1561495c5780806020019051602081101561494157600080fd5b81019080805190602001909291905050509350505050614964565b600093505050505b919050565b600081148061497d575061497c84614593565b5b15614987576149bd565b6149bc838383614996886145df565b73ffffffffffffffffffffffffffffffffffffffff16614c77909392919063ffffffff16565b5b50505050565b6060614a25826040518060400160405280602081526020017f5361666545524332303a206c6f772d6c6576656c2063616c6c206661696c65648152508573ffffffffffffffffffffffffffffffffffffffff16614d389092919063ffffffff16565b9050600081511115614aad57808060200190516020811015614a4657600080fd5b8101908080519060200190929190505050614aac576040517f08c379a000000000000000000000000000000000000000000000000000000000815260040180806020018281038252602a8152602001806150c6602a913960400191505060405180910390fd5b5b505050565b6000811480614b80575060008373ffffffffffffffffffffffffffffffffffffffff1663dd62ed3e30856040518363ffffffff1660e01b8152600401808373ffffffffffffffffffffffffffffffffffffffff1681526020018273ffffffffffffffffffffffffffffffffffffffff1681526020019250505060206040518083038186803b158015614b4357600080fd5b505afa158015614b57573d6000803e3d6000fd5b505050506040513d6020811015614b6d57600080fd5b8101908080519060200190929190505050145b614bd5576040517f08c379a00000000000000000000000000000000000000000000000000000000081526004018080602001828103825260368152602001806150f06036913960400191505060405180910390fd5b614c728363095ea7b360e01b8484604051602401808373ffffffffffffffffffffffffffffffffffffffff16815260200182815260200192505050604051602081830303815290604052907bffffffffffffffffffffffffffffffffffffffffffffffffffffffff19166020820180517bffffffffffffffffffffffffffffffffffffffffffffffffffffffff83818316178352505050506149c3565b505050565b614d32846323b872dd60e01b858585604051602401808473ffffffffffffffffffffffffffffffffffffffff1681526020018373ffffffffffffffffffffffffffffffffffffffff1681526020018281526020019350505050604051602081830303815290604052907bffffffffffffffffffffffffffffffffffffffffffffffffffffffff19166020820180517bffffffffffffffffffffffffffffffffffffffffffffffffffffffff83818316178352505050506149c3565b50505050565b6060614d478484600085614d50565b90509392505050565b606082471015614dab576040517f08c379a000000000000000000000000000000000000000000000000000000000815260040180806020018281038252602681526020018061507f6026913960400191505060405180910390fd5b614db485614ef9565b614e26576040517f08c379a000000000000000000000000000000000000000000000000000000000815260040180806020018281038252601d8152602001807f416464726573733a2063616c6c20746f206e6f6e2d636f6e747261637400000081525060200191505060405180910390fd5b600060608673ffffffffffffffffffffffffffffffffffffffff1685876040518082805190602001908083835b60208310614e765780518252602082019150602081019050602083039250614e53565b6001836020036101000a03801982511681845116808217855250505050505090500191505060006040518083038185875af1925050503d8060008114614ed8576040519150601f19603f3d011682016040523d82523d6000602084013e614edd565b606091505b5091509150614eed828286614f0c565b92505050949350505050565b600080823b905060008111915050919050565b60608315614f1c57829050614fd1565b600083511115614f2f5782518084602001fd5b816040517f08c379a00000000000000000000000000000000000000000000000000000000081526004018080602001828103825283818151815260200191508051906020019080838360005b83811015614f96578082015181840152602081019050614f7b565b50505050905090810190601f168015614fc35780820380516001836020036101000a031916815260200191505b509250505060405180910390fd5b9392505050565b6040518060c00160405280600073ffffffffffffffffffffffffffffffffffffffff168152602001600073ffffffffffffffffffffffffffffffffffffffff168152602001600073ffffffffffffffffffffffffffffffffffffffff168152602001600073ffffffffffffffffffffffffffffffffffffffff168152602001600073ffffffffffffffffffffffffffffffffffffffff168152602001600015158152509056fe416464726573733a20696e73756666696369656e742062616c616e636520666f722063616c6c536166654d6174683a206d756c7469706c69636174696f6e206f766572666c6f775361666545524332303a204552433230206f7065726174696f6e20646964206e6f7420737563636565645361666545524332303a20617070726f76652066726f6d206e6f6e2d7a65726f20746f206e6f6e2d7a65726f20616c6c6f77616e6365a2646970667358221220d7ece0ac80616fedff72600f605fefeccdd3e3fd43eaa25786de5b73b8aa0d1164736f6c634300060c0033",
  "immutableReferences": {},
  "source": "// SPDX-License-Identifier: SEE LICENSE IN LICENSE\npragma solidity 0.6.12;\n\nimport \"@openzeppelin/contracts/math/SafeMath.sol\";\n\nimport \"./IBancorNetwork.sol\";\nimport \"./IConversionPathFinder.sol\";\nimport \"./converter/interfaces/IConverter.sol\";\nimport \"./converter/interfaces/IConverterAnchor.sol\";\nimport \"./converter/interfaces/IBancorFormula.sol\";\nimport \"./utility/ContractRegistryClient.sol\";\nimport \"./utility/ReentrancyGuard.sol\";\nimport \"./utility/TokenHolder.sol\";\n\nimport \"./token/interfaces/IDSToken.sol\";\nimport \"./token/SafeERC20Ex.sol\";\nimport \"./token/ReserveToken.sol\";\n\nimport \"./bancorx/interfaces/IBancorX.sol\";\n\n// interface of older converters for backward compatibility\ninterface ILegacyConverter {\n    function change(\n        IReserveToken _sourceToken,\n        IReserveToken _targetToken,\n        uint256 _amount,\n        uint256 _minReturn\n    ) external returns (uint256);\n}\n\n/**\n * @dev This contract is the main entry point for Bancor token conversions.\n * It also allows for the conversion of any token in the Bancor Network to any other token in a single\n * transaction by providing a conversion path.\n *\n * A note on Conversion Path: Conversion path is a data structure that is used when converting a token\n * to another token in the Bancor Network, when the conversion cannot necessarily be done by a single\n * converter and might require multiple 'hops'.\n * The path defines which converters should be used and what kind of conversion should be done in each step.\n *\n * The path format doesn't include complex structure; instead, it is represented by a single array\n * in which each 'hop' is represented by a 2-tuple - converter anchor & target token.\n * In addition, the first element is always the source token.\n * The converter anchor is only used as a pointer to a converter (since converter addresses are more\n * likely to change as opposed to anchor addresses).\n *\n * Format:\n * [source token, converter anchor, target token, converter anchor, target token...]\n */\ncontract BancorNetwork is IBancorNetwork, TokenHolder, ContractRegistryClient, ReentrancyGuard {\n    using SafeMath for uint256;\n    using ReserveToken for IReserveToken;\n    using SafeERC20 for IERC20;\n    using SafeERC20Ex for IERC20;\n\n    struct ConversionStep {\n        IConverter converter;\n        IConverterAnchor anchor;\n        IReserveToken sourceToken;\n        IReserveToken targetToken;\n        address payable beneficiary;\n        bool isV28OrHigherConverter;\n    }\n\n    /**\n     * @dev triggered when a conversion between two tokens occurs\n     *\n     * @param _smartToken  anchor governed by the converter\n     * @param _fromToken   source reserve token\n     * @param _toToken     target reserve token\n     * @param _fromAmount  amount converted, in the source token\n     * @param _toAmount    amount returned, minus conversion fee\n     * @param _trader      wallet that initiated the trade\n     */\n    event Conversion(\n        IConverterAnchor indexed _smartToken,\n        IReserveToken indexed _fromToken,\n        IReserveToken indexed _toToken,\n        uint256 _fromAmount,\n        uint256 _toAmount,\n        address _trader\n    );\n\n    /**\n     * @dev initializes a new BancorNetwork instance\n     *\n     * @param _registry    address of a contract registry contract\n     */\n    constructor(IContractRegistry _registry) public ContractRegistryClient(_registry) {}\n\n    /**\n     * @dev returns the conversion path between two tokens in the network\n     * note that this method is quite expensive in terms of gas and should generally be called off-chain\n     *\n     * @param _sourceToken source reserve token address\n     * @param _targetToken target reserve token address\n     *\n     * @return conversion path between the two tokens\n     */\n    function conversionPath(IReserveToken _sourceToken, IReserveToken _targetToken)\n        public\n        view\n        returns (address[] memory)\n    {\n        IConversionPathFinder pathFinder = IConversionPathFinder(addressOf(CONVERSION_PATH_FINDER));\n        return pathFinder.findPath(_sourceToken, _targetToken);\n    }\n\n    /**\n     * @dev returns the expected target amount of converting a given amount on a given path\n     * note that there is no support for circular paths\n     *\n     * @param _path        conversion path (see conversion path format above)\n     * @param _amount      amount of _path[0] tokens received from the sender\n     *\n     * @return expected target amount\n     */\n    function rateByPath(address[] memory _path, uint256 _amount) public view override returns (uint256) {\n        uint256 amount;\n        uint256 fee;\n        uint256 supply;\n        uint256 balance;\n        uint32 weight;\n        IConverter converter;\n        IBancorFormula formula = IBancorFormula(addressOf(BANCOR_FORMULA));\n\n        amount = _amount;\n\n        // verify that the number of elements is larger than 2 and odd\n        require(_path.length > 2 && _path.length % 2 == 1, \"ERR_INVALID_PATH\");\n\n        // iterate over the conversion path\n        for (uint256 i = 2; i < _path.length; i += 2) {\n            IReserveToken sourceToken = IReserveToken(_path[i - 2]);\n            address anchor = _path[i - 1];\n            IReserveToken targetToken = IReserveToken(_path[i]);\n\n            converter = IConverter(payable(IConverterAnchor(anchor).owner()));\n\n            if (address(targetToken) == anchor) {\n                // buy the anchor\n                // check if the current anchor has changed\n                if (i < 3 || anchor != _path[i - 3]) {\n                    supply = IDSToken(anchor).totalSupply();\n                }\n\n                // get the amount & the conversion fee\n                balance = converter.getConnectorBalance(sourceToken);\n                (, weight, , , ) = converter.connectors(sourceToken);\n                amount = formula.purchaseTargetAmount(supply, balance, weight, amount);\n                fee = amount.mul(converter.conversionFee()).div(PPM_RESOLUTION);\n                amount -= fee;\n\n                // update the anchor supply for the next iteration\n                supply = supply.add(amount);\n            } else if (address(sourceToken) == anchor) {\n                // sell the anchor\n                // check if the current anchor has changed\n                if (i < 3 || anchor != _path[i - 3]) {\n                    supply = IDSToken(anchor).totalSupply();\n                }\n\n                // get the amount & the conversion fee\n                balance = converter.getConnectorBalance(targetToken);\n                (, weight, , , ) = converter.connectors(targetToken);\n                amount = formula.saleTargetAmount(supply, balance, weight, amount);\n                fee = amount.mul(converter.conversionFee()).div(PPM_RESOLUTION);\n                amount -= fee;\n\n                // update the anchor supply for the next iteration\n                supply = supply.sub(amount);\n            } else {\n                // cross reserve conversion\n                (amount, fee) = getReturn(converter, sourceToken, targetToken, amount);\n            }\n        }\n\n        return amount;\n    }\n\n    /**\n     * @dev converts the token to any other token in the bancor network by following\n     * a predefined conversion path and transfers the result tokens to a target account\n     * note that the network should already have been given allowance of the source token (if not ETH)\n     *\n     * @param _path                conversion path, see conversion path format above\n     * @param _amount              amount to convert from, in the source token\n     * @param _minReturn           if the conversion results in an amount smaller than the minimum return - it is cancelled, must be greater than zero\n     * @param _beneficiary         account that will receive the conversion result or 0x0 to send the result to the sender account\n     *\n     * @return amount of tokens received from the conversion\n     */\n    function convertByPath2(\n        address[] memory _path,\n        uint256 _amount,\n        uint256 _minReturn,\n        address payable _beneficiary\n    ) public payable protected greaterThanZero(_minReturn) returns (uint256) {\n        // verify that the path contains at least a single 'hop' and that the number of elements is odd\n        require(_path.length > 2 && _path.length % 2 == 1, \"ERR_INVALID_PATH\");\n\n        // validate msg.value and prepare the source token for the conversion\n        handleSourceToken(IReserveToken(_path[0]), IConverterAnchor(_path[1]), _amount);\n\n        // check if beneficiary is set\n        address payable beneficiary = msg.sender;\n        if (_beneficiary != address(0)) {\n            beneficiary = _beneficiary;\n        }\n\n        // convert and get the resulting amount\n        ConversionStep[] memory data = createConversionData(_path, beneficiary);\n        uint256 amount = doConversion(data, _amount, _minReturn);\n\n        // handle the conversion target tokens\n        handleTargetToken(data, amount, beneficiary);\n\n        return amount;\n    }\n\n    /**\n      * @dev converts any other token to BNT in the bancor network by following\n      a predefined conversion path and transfers the result to an account on a different blockchain\n      * note that the network should already have been given allowance of the source token (if not ETH)\n      *\n      * @param _path                conversion path, see conversion path format above\n      * @param _amount              amount to convert from, in the source token\n      * @param _minReturn           if the conversion results in an amount smaller than the minimum return - it is cancelled, must be greater than zero\n      * @param _targetBlockchain    blockchain BNT will be issued on\n      * @param _targetAccount       address/account on the target blockchain to send the BNT to\n      * @param _conversionId        pre-determined unique (if non zero) id which refers to this transaction\n      *\n      * @return the amount of BNT received from this conversion\n    */\n    function xConvert(\n        address[] memory _path,\n        uint256 _amount,\n        uint256 _minReturn,\n        bytes32 _targetBlockchain,\n        bytes32 _targetAccount,\n        uint256 _conversionId\n    ) public payable greaterThanZero(_minReturn) returns (uint256) {\n        IReserveToken targetToken = IReserveToken(_path[_path.length - 1]);\n        IBancorX bancorX = IBancorX(addressOf(BANCOR_X));\n\n        // verify that the destination token is BNT\n        require(targetToken == IReserveToken(addressOf(BNT_TOKEN)), \"ERR_INVALID_TARGET_TOKEN\");\n\n        // convert and get the resulting amount\n        uint256 amount = convertByPath2(_path, _amount, _minReturn, payable(address(this)));\n\n        // grant BancorX allowance\n        targetToken.ensureApprove(address(bancorX), amount);\n\n        // transfer the resulting amount to BancorX\n        bancorX.xTransfer(_targetBlockchain, _targetAccount, amount, _conversionId);\n\n        return amount;\n    }\n\n    /**\n     * @dev allows a user to convert a token that was sent from another blockchain into any other\n     * token on the BancorNetwork\n     * ideally this transaction is created before the previous conversion is even complete, so\n     * so the input amount isn't known at that point - the amount is actually take from the\n     * BancorX contract directly by specifying the conversion id\n     *\n     * @param _path            conversion path\n     * @param _bancorX         address of the BancorX contract for the source token\n     * @param _conversionId    pre-determined unique (if non zero) id which refers to this conversion\n     * @param _minReturn       if the conversion results in an amount smaller than the minimum return - it is cancelled, must be nonzero\n     * @param _beneficiary     wallet to receive the conversion result\n     *\n     * @return amount of tokens received from the conversion\n     */\n    function completeXConversion(\n        address[] memory _path,\n        IBancorX _bancorX,\n        uint256 _conversionId,\n        uint256 _minReturn,\n        address payable _beneficiary\n    ) public returns (uint256) {\n        // verify that the source token is the BancorX token\n        require(_path[0] == address(_bancorX.token()), \"ERR_INVALID_SOURCE_TOKEN\");\n\n        // get conversion amount from BancorX contract\n        uint256 amount = _bancorX.getXTransferAmount(_conversionId, msg.sender);\n\n        // perform the conversion\n        return convertByPath2(_path, amount, _minReturn, _beneficiary);\n    }\n\n    /**\n     * @dev executes the actual conversion by following the conversion path\n     *\n     * @param _data                conversion data, see ConversionStep struct above\n     * @param _amount              amount to convert from, in the source token\n     * @param _minReturn           if the conversion results in an amount smaller than the minimum return - it is cancelled, must be greater than zero\n     *\n     * @return amount of tokens received from the conversion\n     */\n    function doConversion(\n        ConversionStep[] memory _data,\n        uint256 _amount,\n        uint256 _minReturn\n    ) private returns (uint256) {\n        uint256 toAmount;\n        uint256 fromAmount = _amount;\n\n        // iterate over the conversion data\n        for (uint256 i = 0; i < _data.length; i++) {\n            ConversionStep memory stepData = _data[i];\n\n            // newer converter\n            if (stepData.isV28OrHigherConverter) {\n                // transfer the tokens to the converter only if the network contract currently holds the tokens\n                // not needed with ETH or if it's the first conversion step\n                if (i != 0 && _data[i - 1].beneficiary == address(this) && !stepData.sourceToken.isNativeToken()) {\n                    stepData.sourceToken.safeTransfer(address(stepData.converter), fromAmount);\n                }\n            } else if (address(stepData.sourceToken) != address(stepData.anchor)) {\n                // if the source token is the liquid token, no need to do any transfers as the converter controls it\n\n                // grant allowance for it to transfer the tokens from the network contract\n                stepData.sourceToken.ensureApprove(address(stepData.converter), fromAmount);\n            }\n\n            // do the conversion\n            if (!stepData.isV28OrHigherConverter) {\n                toAmount = ILegacyConverter(address(stepData.converter)).change(\n                    stepData.sourceToken,\n                    stepData.targetToken,\n                    fromAmount,\n                    1\n                );\n            } else if (stepData.sourceToken.isNativeToken()) {\n                toAmount = stepData.converter.convert{ value: msg.value }(\n                    stepData.sourceToken,\n                    stepData.targetToken,\n                    fromAmount,\n                    msg.sender,\n                    stepData.beneficiary\n                );\n            } else {\n                toAmount = stepData.converter.convert(\n                    stepData.sourceToken,\n                    stepData.targetToken,\n                    fromAmount,\n                    msg.sender,\n                    stepData.beneficiary\n                );\n            }\n\n            emit Conversion(\n                stepData.anchor,\n                stepData.sourceToken,\n                stepData.targetToken,\n                fromAmount,\n                toAmount,\n                msg.sender\n            );\n            fromAmount = toAmount;\n        }\n\n        // ensure the trade meets the minimum requested amount\n        require(toAmount >= _minReturn, \"ERR_RETURN_TOO_LOW\");\n\n        return toAmount;\n    }\n\n    /**\n     * @dev validates msg.value and prepares the conversion source token for the conversion\n     *\n     * @param _sourceToken source token of the first conversion step\n     * @param _anchor      converter anchor of the first conversion step\n     * @param _amount      amount to convert from, in the source token\n     */\n    function handleSourceToken(\n        IReserveToken _sourceToken,\n        IConverterAnchor _anchor,\n        uint256 _amount\n    ) private {\n        IConverter firstConverter = IConverter(payable(_anchor.owner()));\n        bool isNewerConverter = isV28OrHigherConverter(firstConverter);\n\n        if (msg.value > 0) {\n            require(msg.value == _amount, \"ERR_ETH_AMOUNT_MISMATCH\");\n            require(_sourceToken.isNativeToken(), \"ERR_INVALID_SOURCE_TOKEN\");\n            require(isNewerConverter, \"ERR_CONVERTER_NOT_SUPPORTED\");\n        } else {\n            require(!_sourceToken.isNativeToken(), \"ERR_INVALID_SOURCE_TOKEN\");\n            if (isNewerConverter) {\n                // newer converter - transfer the tokens from the sender directly to the converter\n                _sourceToken.safeTransferFrom(msg.sender, address(firstConverter), _amount);\n            } else {\n                // otherwise claim the tokens\n                _sourceToken.safeTransferFrom(msg.sender, address(this), _amount);\n            }\n        }\n    }\n\n    /**\n     * @dev handles the conversion target token if the network still holds it at the end of the conversion\n     *\n     * @param _data        conversion data, see ConversionStep struct above\n     * @param _amount      conversion target amount\n     * @param _beneficiary wallet to receive the conversion result\n     */\n    function handleTargetToken(\n        ConversionStep[] memory _data,\n        uint256 _amount,\n        address payable _beneficiary\n    ) private {\n        ConversionStep memory stepData = _data[_data.length - 1];\n\n        // network contract doesn't hold the tokens, do nothing\n        if (stepData.beneficiary != address(this)) {\n            return;\n        }\n\n        IReserveToken targetToken = stepData.targetToken;\n        assert(!targetToken.isNativeToken());\n        targetToken.safeTransfer(_beneficiary, _amount);\n    }\n\n    /**\n     * @dev creates a memory cache of all conversion steps data to minimize logic and external calls during conversions\n     *\n     * @param _conversionPath      conversion path, see conversion path format above\n     * @param _beneficiary         wallet to receive the conversion result\n     *\n     * @return cached conversion data to be ingested later on by the conversion flow\n     */\n    function createConversionData(address[] memory _conversionPath, address payable _beneficiary)\n        private\n        view\n        returns (ConversionStep[] memory)\n    {\n        ConversionStep[] memory data = new ConversionStep[](_conversionPath.length / 2);\n\n        // iterate the conversion path and create the conversion data for each step\n        uint256 i;\n        for (i = 0; i < _conversionPath.length - 1; i += 2) {\n            IConverterAnchor anchor = IConverterAnchor(_conversionPath[i + 1]);\n            IConverter converter = IConverter(payable(anchor.owner()));\n            IReserveToken targetToken = IReserveToken(_conversionPath[i + 2]);\n\n            data[i / 2] = ConversionStep({ // set the converter anchor\n                anchor: anchor, // set the converter\n                converter: converter, // set the source/target tokens\n                sourceToken: IReserveToken(_conversionPath[i]),\n                targetToken: targetToken, // requires knowledge about the next step, so initialize in the next phase\n                beneficiary: address(0), // set flags\n                isV28OrHigherConverter: isV28OrHigherConverter(converter)\n            });\n        }\n\n        // set the beneficiary for each step\n        for (i = 0; i < data.length; i++) {\n            ConversionStep memory stepData = data[i];\n            // check if the converter in this step is newer as older converters don't even support the beneficiary argument\n            if (stepData.isV28OrHigherConverter) {\n                if (i == data.length - 1) {\n                    // converter in this step is newer, beneficiary is the user input address\n                    stepData.beneficiary = _beneficiary;\n                } else if (data[i + 1].isV28OrHigherConverter) {\n                    // the converter in the next step is newer, beneficiary is the next converter\n                    stepData.beneficiary = address(data[i + 1].converter);\n                } else {\n                    // the converter in the next step is older, beneficiary is the network contract\n                    stepData.beneficiary = payable(address(this));\n                }\n            } else {\n                // converter in this step is older, beneficiary is the network contract\n                stepData.beneficiary = payable(address(this));\n            }\n        }\n\n        return data;\n    }\n\n    bytes4 private constant GET_RETURN_FUNC_SELECTOR = bytes4(keccak256(\"getReturn(address,address,uint256)\"));\n\n    // using a static call to get the return from older converters\n    function getReturn(\n        IConverter _dest,\n        IReserveToken _sourceToken,\n        IReserveToken _targetToken,\n        uint256 _amount\n    ) internal view returns (uint256, uint256) {\n        bytes memory data = abi.encodeWithSelector(GET_RETURN_FUNC_SELECTOR, _sourceToken, _targetToken, _amount);\n        (bool success, bytes memory returnData) = address(_dest).staticcall(data);\n\n        if (success) {\n            if (returnData.length == 64) {\n                return abi.decode(returnData, (uint256, uint256));\n            }\n\n            if (returnData.length == 32) {\n                return (abi.decode(returnData, (uint256)), 0);\n            }\n        }\n\n        return (0, 0);\n    }\n\n    bytes4 private constant IS_V28_OR_HIGHER_FUNC_SELECTOR = bytes4(keccak256(\"isV28OrHigher()\"));\n\n    // using a static call to identify converter version\n    // can't rely on the version number since the function had a different signature in older converters\n    function isV28OrHigherConverter(IConverter _converter) internal view returns (bool) {\n        bytes memory data = abi.encodeWithSelector(IS_V28_OR_HIGHER_FUNC_SELECTOR);\n        (bool success, bytes memory returnData) = address(_converter).staticcall{ gas: 4000 }(data);\n\n        if (success && returnData.length == 32) {\n            return abi.decode(returnData, (bool));\n        }\n\n        return false;\n    }\n\n    /**\n     * @dev deprecated, backward compatibility\n     */\n    function getReturnByPath(address[] memory _path, uint256 _amount) public view returns (uint256, uint256) {\n        return (rateByPath(_path, _amount), 0);\n    }\n\n    /**\n     * @dev deprecated, backward compatibility\n     */\n    function convertByPath(\n        address[] memory _path,\n        uint256 _amount,\n        uint256 _minReturn,\n        address payable _beneficiary,\n        address, /* _affiliateAccount */\n        uint256 /* _affiliateFee */\n    ) public payable override returns (uint256) {\n        return convertByPath2(_path, _amount, _minReturn, _beneficiary);\n    }\n\n    /**\n     * @dev deprecated, backward compatibility\n     */\n    function convert(\n        address[] memory _path,\n        uint256 _amount,\n        uint256 _minReturn\n    ) public payable returns (uint256) {\n        return convertByPath2(_path, _amount, _minReturn, address(0));\n    }\n\n    /**\n     * @dev deprecated, backward compatibility\n     */\n    function convert2(\n        address[] memory _path,\n        uint256 _amount,\n        uint256 _minReturn,\n        address, /* _affiliateAccount */\n        uint256 /* _affiliateFee */\n    ) public payable returns (uint256) {\n        return convertByPath2(_path, _amount, _minReturn, address(0));\n    }\n\n    /**\n     * @dev deprecated, backward compatibility\n     */\n    function convertFor(\n        address[] memory _path,\n        uint256 _amount,\n        uint256 _minReturn,\n        address payable _beneficiary\n    ) public payable returns (uint256) {\n        return convertByPath2(_path, _amount, _minReturn, _beneficiary);\n    }\n\n    /**\n     * @dev deprecated, backward compatibility\n     */\n    function convertFor2(\n        address[] memory _path,\n        uint256 _amount,\n        uint256 _minReturn,\n        address payable _beneficiary,\n        address, /* _affiliateAccount */\n        uint256 /* _affiliateFee */\n    ) public payable greaterThanZero(_minReturn) returns (uint256) {\n        return convertByPath2(_path, _amount, _minReturn, _beneficiary);\n    }\n\n    /**\n     * @dev deprecated, backward compatibility\n     */\n    function claimAndConvert(\n        address[] memory _path,\n        uint256 _amount,\n        uint256 _minReturn\n    ) public returns (uint256) {\n        return convertByPath2(_path, _amount, _minReturn, address(0));\n    }\n\n    /**\n     * @dev deprecated, backward compatibility\n     */\n    function claimAndConvert2(\n        address[] memory _path,\n        uint256 _amount,\n        uint256 _minReturn,\n        address, /* _affiliateAccount */\n        uint256 /* _affiliateFee */\n    ) public returns (uint256) {\n        return convertByPath2(_path, _amount, _minReturn, address(0));\n    }\n\n    /**\n     * @dev deprecated, backward compatibility\n     */\n    function claimAndConvertFor(\n        address[] memory _path,\n        uint256 _amount,\n        uint256 _minReturn,\n        address payable _beneficiary\n    ) public returns (uint256) {\n        return convertByPath2(_path, _amount, _minReturn, _beneficiary);\n    }\n\n    /**\n     * @dev deprecated, backward compatibility\n     */\n    function claimAndConvertFor2(\n        address[] memory _path,\n        uint256 _amount,\n        uint256 _minReturn,\n        address payable _beneficiary,\n        address, /* _affiliateAccount */\n        uint256 /* _affiliateFee */\n    ) public returns (uint256) {\n        return convertByPath2(_path, _amount, _minReturn, _beneficiary);\n    }\n}\n",
  "sourcePath": "D:\\Work Space\\bancor_project\\core\\contracts\\BancorNetwork.sol",
  "compiler": {
    "name": "solc",
    "version": "0.6.12+commit.27d51765.Emscripten.clang"
  },
  "schemaVersion": "3.4.3",
  "updatedAt": "2021-08-23T03:19:29.265Z",
  "devdoc": {
    "details": "This contract is the main entry point for Bancor token conversions. It also allows for the conversion of any token in the Bancor Network to any other token in a single transaction by providing a conversion path. A note on Conversion Path: Conversion path is a data structure that is used when converting a token to another token in the Bancor Network, when the conversion cannot necessarily be done by a single converter and might require multiple 'hops'. The path defines which converters should be used and what kind of conversion should be done in each step. The path format doesn't include complex structure; instead, it is represented by a single array in which each 'hop' is represented by a 2-tuple - converter anchor & target token. In addition, the first element is always the source token. The converter anchor is only used as a pointer to a converter (since converter addresses are more likely to change as opposed to anchor addresses). Format: [source token, converter anchor, target token, converter anchor, target token...]",
    "events": {
      "Conversion(address,address,address,uint256,uint256,address)": {
        "details": "triggered when a conversion between two tokens occurs",
        "params": {
          "_fromAmount": "amount converted, in the source token",
          "_fromToken": "source reserve token",
          "_smartToken": "anchor governed by the converter",
          "_toAmount": "amount returned, minus conversion fee",
          "_toToken": "target reserve token",
          "_trader": "wallet that initiated the trade"
        }
      }
    },
    "kind": "dev",
    "methods": {
      "acceptOwnership()": {
        "details": "used by a new owner to accept an ownership transfer"
      },
      "claimAndConvert(address[],uint256,uint256)": {
        "details": "deprecated, backward compatibility"
      },
      "claimAndConvert2(address[],uint256,uint256,address,uint256)": {
        "details": "deprecated, backward compatibility"
      },
      "claimAndConvertFor(address[],uint256,uint256,address)": {
        "details": "deprecated, backward compatibility"
      },
      "claimAndConvertFor2(address[],uint256,uint256,address,address,uint256)": {
        "details": "deprecated, backward compatibility"
      },
      "completeXConversion(address[],address,uint256,uint256,address)": {
        "details": "allows a user to convert a token that was sent from another blockchain into any other token on the BancorNetwork ideally this transaction is created before the previous conversion is even complete, so so the input amount isn't known at that point - the amount is actually take from the BancorX contract directly by specifying the conversion id",
        "params": {
          "_bancorX": "address of the BancorX contract for the source token",
          "_beneficiary": "wallet to receive the conversion result",
          "_conversionId": "pre-determined unique (if non zero) id which refers to this conversion",
          "_minReturn": "if the conversion results in an amount smaller than the minimum return - it is cancelled, must be nonzero",
          "_path": "conversion path"
        },
        "returns": {
          "_0": "amount of tokens received from the conversion"
        }
      },
      "constructor": {
        "details": "initializes a new BancorNetwork instance",
        "params": {
          "_registry": "address of a contract registry contract"
        }
      },
      "conversionPath(address,address)": {
        "details": "returns the conversion path between two tokens in the network note that this method is quite expensive in terms of gas and should generally be called off-chain",
        "params": {
          "_sourceToken": "source reserve token address",
          "_targetToken": "target reserve token address"
        },
        "returns": {
          "_0": "conversion path between the two tokens"
        }
      },
      "convert(address[],uint256,uint256)": {
        "details": "deprecated, backward compatibility"
      },
      "convert2(address[],uint256,uint256,address,uint256)": {
        "details": "deprecated, backward compatibility"
      },
      "convertByPath(address[],uint256,uint256,address,address,uint256)": {
        "details": "deprecated, backward compatibility"
      },
      "convertByPath2(address[],uint256,uint256,address)": {
        "details": "converts the token to any other token in the bancor network by following a predefined conversion path and transfers the result tokens to a target account note that the network should already have been given allowance of the source token (if not ETH)",
        "params": {
          "_amount": "amount to convert from, in the source token",
          "_beneficiary": "account that will receive the conversion result or 0x0 to send the result to the sender account",
          "_minReturn": "if the conversion results in an amount smaller than the minimum return - it is cancelled, must be greater than zero",
          "_path": "conversion path, see conversion path format above"
        },
        "returns": {
          "_0": "amount of tokens received from the conversion"
        }
      },
      "convertFor(address[],uint256,uint256,address)": {
        "details": "deprecated, backward compatibility"
      },
      "convertFor2(address[],uint256,uint256,address,address,uint256)": {
        "details": "deprecated, backward compatibility"
      },
      "getReturnByPath(address[],uint256)": {
        "details": "deprecated, backward compatibility"
      },
      "rateByPath(address[],uint256)": {
        "details": "returns the expected target amount of converting a given amount on a given path note that there is no support for circular paths",
        "params": {
          "_amount": "amount of _path[0] tokens received from the sender",
          "_path": "conversion path (see conversion path format above)"
        },
        "returns": {
          "_0": "expected target amount"
        }
      },
      "restoreRegistry()": {
        "details": "restores the previous contract-registry"
      },
      "restrictRegistryUpdate(bool)": {
        "details": "restricts the permission to update the contract-registry",
        "params": {
          "_onlyOwnerCanUpdateRegistry": "indicates whether or not permission is restricted to owner only"
        }
      },
      "transferOwnership(address)": {
        "details": "allows transferring the contract ownership the new owner still needs to accept the transfer can only be called by the contract owner",
        "params": {
          "_newOwner": "new contract owner"
        }
      },
      "updateRegistry()": {
        "details": "updates to the new contract-registry"
      },
      "withdrawTokens(address,address,uint256)": {
        "details": "withdraws funds held by the contract and sends them to an account can only be called by the owner",
        "params": {
          "amount": "amount to withdraw",
          "reserveToken": "reserve token contract address",
          "to": "account to receive the new amount"
        }
      },
      "withdrawTokensMultiple(address[],address,uint256[])": {
        "details": "withdraws multiple funds held by the contract and sends them to an account can only be called by the owner",
        "params": {
          "amounts": "amounts to withdraw",
          "reserveTokens": "reserve tokens contract addresses",
          "to": "account to receive the new amount"
        }
      },
      "xConvert(address[],uint256,uint256,bytes32,bytes32,uint256)": {
        "details": "converts any other token to BNT in the bancor network by following a predefined conversion path and transfers the result to an account on a different blockchain note that the network should already have been given allowance of the source token (if not ETH)",
        "params": {
          "_amount": "amount to convert from, in the source token",
          "_conversionId": "pre-determined unique (if non zero) id which refers to this transaction",
          "_minReturn": "if the conversion results in an amount smaller than the minimum return - it is cancelled, must be greater than zero",
          "_path": "conversion path, see conversion path format above",
          "_targetAccount": "address/account on the target blockchain to send the BNT to",
          "_targetBlockchain": "blockchain BNT will be issued on"
        },
        "returns": {
          "_0": "the amount of BNT received from this conversion"
        }
      }
    },
    "version": 1
  },
  "userdoc": {
    "kind": "user",
    "methods": {},
    "version": 1
  }
}