{
  "contractName": "CheckpointStore",
  "abi": [
    {
      "inputs": [],
      "stateMutability": "nonpayable",
      "type": "constructor"
    },
    {
      "anonymous": false,
      "inputs": [
        {
          "indexed": true,
          "internalType": "address",
          "name": "_address",
          "type": "address"
        },
        {
          "indexed": false,
          "internalType": "uint256",
          "name": "_time",
          "type": "uint256"
        }
      ],
      "name": "CheckpointUpdated",
      "type": "event"
    },
    {
      "anonymous": false,
      "inputs": [
        {
          "indexed": true,
          "internalType": "bytes32",
          "name": "role",
          "type": "bytes32"
        },
        {
          "indexed": true,
          "internalType": "bytes32",
          "name": "previousAdminRole",
          "type": "bytes32"
        },
        {
          "indexed": true,
          "internalType": "bytes32",
          "name": "newAdminRole",
          "type": "bytes32"
        }
      ],
      "name": "RoleAdminChanged",
      "type": "event"
    },
    {
      "anonymous": false,
      "inputs": [
        {
          "indexed": true,
          "internalType": "bytes32",
          "name": "role",
          "type": "bytes32"
        },
        {
          "indexed": true,
          "internalType": "address",
          "name": "account",
          "type": "address"
        },
        {
          "indexed": true,
          "internalType": "address",
          "name": "sender",
          "type": "address"
        }
      ],
      "name": "RoleGranted",
      "type": "event"
    },
    {
      "anonymous": false,
      "inputs": [
        {
          "indexed": true,
          "internalType": "bytes32",
          "name": "role",
          "type": "bytes32"
        },
        {
          "indexed": true,
          "internalType": "address",
          "name": "account",
          "type": "address"
        },
        {
          "indexed": true,
          "internalType": "address",
          "name": "sender",
          "type": "address"
        }
      ],
      "name": "RoleRevoked",
      "type": "event"
    },
    {
      "inputs": [],
      "name": "DEFAULT_ADMIN_ROLE",
      "outputs": [
        {
          "internalType": "bytes32",
          "name": "",
          "type": "bytes32"
        }
      ],
      "stateMutability": "view",
      "type": "function"
    },
    {
      "inputs": [],
      "name": "ROLE_OWNER",
      "outputs": [
        {
          "internalType": "bytes32",
          "name": "",
          "type": "bytes32"
        }
      ],
      "stateMutability": "view",
      "type": "function"
    },
    {
      "inputs": [],
      "name": "ROLE_SEEDER",
      "outputs": [
        {
          "internalType": "bytes32",
          "name": "",
          "type": "bytes32"
        }
      ],
      "stateMutability": "view",
      "type": "function"
    },
    {
      "inputs": [
        {
          "internalType": "bytes32",
          "name": "role",
          "type": "bytes32"
        }
      ],
      "name": "getRoleAdmin",
      "outputs": [
        {
          "internalType": "bytes32",
          "name": "",
          "type": "bytes32"
        }
      ],
      "stateMutability": "view",
      "type": "function"
    },
    {
      "inputs": [
        {
          "internalType": "bytes32",
          "name": "role",
          "type": "bytes32"
        },
        {
          "internalType": "uint256",
          "name": "index",
          "type": "uint256"
        }
      ],
      "name": "getRoleMember",
      "outputs": [
        {
          "internalType": "address",
          "name": "",
          "type": "address"
        }
      ],
      "stateMutability": "view",
      "type": "function"
    },
    {
      "inputs": [
        {
          "internalType": "bytes32",
          "name": "role",
          "type": "bytes32"
        }
      ],
      "name": "getRoleMemberCount",
      "outputs": [
        {
          "internalType": "uint256",
          "name": "",
          "type": "uint256"
        }
      ],
      "stateMutability": "view",
      "type": "function"
    },
    {
      "inputs": [
        {
          "internalType": "bytes32",
          "name": "role",
          "type": "bytes32"
        },
        {
          "internalType": "address",
          "name": "account",
          "type": "address"
        }
      ],
      "name": "grantRole",
      "outputs": [],
      "stateMutability": "nonpayable",
      "type": "function"
    },
    {
      "inputs": [
        {
          "internalType": "bytes32",
          "name": "role",
          "type": "bytes32"
        },
        {
          "internalType": "address",
          "name": "account",
          "type": "address"
        }
      ],
      "name": "hasRole",
      "outputs": [
        {
          "internalType": "bool",
          "name": "",
          "type": "bool"
        }
      ],
      "stateMutability": "view",
      "type": "function"
    },
    {
      "inputs": [
        {
          "internalType": "bytes32",
          "name": "role",
          "type": "bytes32"
        },
        {
          "internalType": "address",
          "name": "account",
          "type": "address"
        }
      ],
      "name": "renounceRole",
      "outputs": [],
      "stateMutability": "nonpayable",
      "type": "function"
    },
    {
      "inputs": [
        {
          "internalType": "bytes32",
          "name": "role",
          "type": "bytes32"
        },
        {
          "internalType": "address",
          "name": "account",
          "type": "address"
        }
      ],
      "name": "revokeRole",
      "outputs": [],
      "stateMutability": "nonpayable",
      "type": "function"
    },
    {
      "inputs": [
        {
          "internalType": "address",
          "name": "_address",
          "type": "address"
        },
        {
          "internalType": "uint256",
          "name": "_time",
          "type": "uint256"
        }
      ],
      "name": "addPastCheckpoint",
      "outputs": [],
      "stateMutability": "nonpayable",
      "type": "function"
    },
    {
      "inputs": [
        {
          "internalType": "address[]",
          "name": "_addresses",
          "type": "address[]"
        },
        {
          "internalType": "uint256[]",
          "name": "_times",
          "type": "uint256[]"
        }
      ],
      "name": "addPastCheckpoints",
      "outputs": [],
      "stateMutability": "nonpayable",
      "type": "function"
    },
    {
      "inputs": [
        {
          "internalType": "address",
          "name": "_address",
          "type": "address"
        }
      ],
      "name": "checkpoint",
      "outputs": [
        {
          "internalType": "uint256",
          "name": "",
          "type": "uint256"
        }
      ],
      "stateMutability": "view",
      "type": "function"
    },
    {
      "inputs": [
        {
          "internalType": "address",
          "name": "_address",
          "type": "address"
        }
      ],
      "name": "addCheckpoint",
      "outputs": [],
      "stateMutability": "nonpayable",
      "type": "function"
    }
  ],
  "bytecode": "0x60806040523480156200001157600080fd5b50620000447f9f4e1c871d5fdd0aee1cd182666698a4492b24c6832aac230d07b11046af5a8980620000ce60201b60201c565b620000967fd040da8733f282f8b56d042e742cba64aa94b6398cd5a45974e40912f9b3b33f7f9f4e1c871d5fdd0aee1cd182666698a4492b24c6832aac230d07b11046af5a89620000ce60201b60201c565b620000c87f9f4e1c871d5fdd0aee1cd182666698a4492b24c6832aac230d07b11046af5a89336200013060201b60201c565b620002c6565b8060008084815260200190815260200160002060020154837fbd79b86ffe0ab8e8776151514217cd7cacd52c909f66475c3af44e129f0b00ff60405160405180910390a480600080848152602001908152602001600020600201819055505050565b6200014282826200014660201b60201c565b5050565b6200017481600080858152602001908152602001600020600001620001e960201b62000c1c1790919060201c565b15620001e5576200018a6200022160201b60201c565b73ffffffffffffffffffffffffffffffffffffffff168173ffffffffffffffffffffffffffffffffffffffff16837f2f8788117e7eff1d82e926ec794901d17c78024a50270940304540a733656f0d60405160405180910390a45b5050565b600062000219836000018373ffffffffffffffffffffffffffffffffffffffff1660001b6200022960201b60201c565b905092915050565b600033905090565b60006200023d8383620002a360201b60201c565b620002985782600001829080600181540180825580915050600190039060005260206000200160009091909190915055826000018054905083600101600084815260200190815260200160002081905550600190506200029d565b600090505b92915050565b600080836001016000848152602001908152602001600020541415905092915050565b6112f780620002d66000396000f3fe608060405234801561001057600080fd5b50600436106100ea5760003560e01c806391d148541161008c578063a972985e11610066578063a972985e1461037f578063bcb81bfc146103d7578063ca15c873146104a5578063d547741f146104e7576100ea565b806391d14854146102af578063a217fddf14610313578063a3699b3714610331576100ea565b806336568abe116100c857806336568abe146101c35780636b639ced146102115780638ad682af1461022f5780639010d07c1461024d576100ea565b80631d092adf146100ef578063248a9ca3146101335780632f2ff15d14610175575b600080fd5b6101316004803603602081101561010557600080fd5b81019080803573ffffffffffffffffffffffffffffffffffffffff169060200190929190505050610535565b005b61015f6004803603602081101561014957600080fd5b81019080803590602001909291905050506105f0565b6040518082815260200191505060405180910390f35b6101c16004803603604081101561018b57600080fd5b8101908080359060200190929190803573ffffffffffffffffffffffffffffffffffffffff16906020019092919050505061060f565b005b61020f600480360360408110156101d957600080fd5b8101908080359060200190929190803573ffffffffffffffffffffffffffffffffffffffff169060200190929190505050610698565b005b610219610731565b6040518082815260200191505060405180910390f35b610237610755565b6040518082815260200191505060405180910390f35b6102836004803603604081101561026357600080fd5b810190808035906020019092919080359060200190929190505050610779565b604051808273ffffffffffffffffffffffffffffffffffffffff16815260200191505060405180910390f35b6102fb600480360360408110156102c557600080fd5b8101908080359060200190929190803573ffffffffffffffffffffffffffffffffffffffff1690602001909291905050506107aa565b60405180821515815260200191505060405180910390f35b61031b6107db565b6040518082815260200191505060405180910390f35b61037d6004803603604081101561034757600080fd5b81019080803573ffffffffffffffffffffffffffffffffffffffff169060200190929190803590602001909291905050506107e2565b005b6103c16004803603602081101561039557600080fd5b81019080803573ffffffffffffffffffffffffffffffffffffffff169060200190929190505050610913565b6040518082815260200191505060405180910390f35b6104a3600480360360408110156103ed57600080fd5b810190808035906020019064010000000081111561040a57600080fd5b82018360208201111561041c57600080fd5b8035906020019184602083028401116401000000008311171561043e57600080fd5b90919293919293908035906020019064010000000081111561045f57600080fd5b82018360208201111561047157600080fd5b8035906020019184602083028401116401000000008311171561049357600080fd5b909192939192939050505061095c565b005b6104d1600480360360208110156104bb57600080fd5b8101908080359060200190929190505050610b6d565b6040518082815260200191505060405180910390f35b610533600480360360408110156104fd57600080fd5b8101908080359060200190929190803573ffffffffffffffffffffffffffffffffffffffff169060200190929190505050610b93565b005b8061053f81610c4c565b6105697f9f4e1c871d5fdd0aee1cd182666698a4492b24c6832aac230d07b11046af5a89336107aa565b6105db576040517f08c379a00000000000000000000000000000000000000000000000000000000081526004018080602001828103825260118152602001807f4552525f4143434553535f44454e49454400000000000000000000000000000081525060200191505060405180910390fd5b6105ec826105e7610cf2565b610cfa565b5050565b6000806000838152602001908152602001600020600201549050919050565b61063560008084815260200190815260200160002060020154610630610e45565b6107aa565b61068a576040517f08c379a000000000000000000000000000000000000000000000000000000000815260040180806020018281038252602f815260200180611234602f913960400191505060405180910390fd5b6106948282610e4d565b5050565b6106a0610e45565b73ffffffffffffffffffffffffffffffffffffffff168173ffffffffffffffffffffffffffffffffffffffff1614610723576040517f08c379a000000000000000000000000000000000000000000000000000000000815260040180806020018281038252602f815260200180611293602f913960400191505060405180910390fd5b61072d8282610ee0565b5050565b7fd040da8733f282f8b56d042e742cba64aa94b6398cd5a45974e40912f9b3b33f81565b7f9f4e1c871d5fdd0aee1cd182666698a4492b24c6832aac230d07b11046af5a8981565b60006107a282600080868152602001908152602001600020600001610f7390919063ffffffff16565b905092915050565b60006107d382600080868152602001908152602001600020600001610f8d90919063ffffffff16565b905092915050565b6000801b81565b816107ec81610c4c565b6108167fd040da8733f282f8b56d042e742cba64aa94b6398cd5a45974e40912f9b3b33f336107aa565b610888576040517f08c379a00000000000000000000000000000000000000000000000000000000081526004018080602001828103825260118152602001807f4552525f4143434553535f44454e49454400000000000000000000000000000081525060200191505060405180910390fd5b610890610cf2565b8210610904576040517f08c379a00000000000000000000000000000000000000000000000000000000081526004018080602001828103825260108152602001807f4552525f494e56414c49445f54494d450000000000000000000000000000000081525060200191505060405180910390fd5b61090e8383610cfa565b505050565b6000600160008373ffffffffffffffffffffffffffffffffffffffff1673ffffffffffffffffffffffffffffffffffffffff168152602001908152602001600020549050919050565b6109867fd040da8733f282f8b56d042e742cba64aa94b6398cd5a45974e40912f9b3b33f336107aa565b6109f8576040517f08c379a00000000000000000000000000000000000000000000000000000000081526004018080602001828103825260118152602001807f4552525f4143434553535f44454e49454400000000000000000000000000000081525060200191505060405180910390fd5b6000848490509050828290508114610a78576040517f08c379a00000000000000000000000000000000000000000000000000000000081526004018080602001828103825260128152602001807f4552525f494e56414c49445f4c454e475448000000000000000000000000000081525060200191505060405180910390fd5b60005b81811015610b65576000868683818110610a9157fe5b9050602002013573ffffffffffffffffffffffffffffffffffffffff1690506000858584818110610abe57fe5b905060200201359050610ad082610c4c565b610ad8610cf2565b8110610b4c576040517f08c379a00000000000000000000000000000000000000000000000000000000081526004018080602001828103825260108152602001807f4552525f494e56414c49445f54494d450000000000000000000000000000000081525060200191505060405180910390fd5b610b568282610cfa565b50508080600101915050610a7b565b505050505050565b6000610b8c600080848152602001908152602001600020600001610fbd565b9050919050565b610bb960008084815260200190815260200160002060020154610bb4610e45565b6107aa565b610c0e576040517f08c379a00000000000000000000000000000000000000000000000000000000081526004018080602001828103825260308152602001806112636030913960400191505060405180910390fd5b610c188282610ee0565b5050565b6000610c44836000018373ffffffffffffffffffffffffffffffffffffffff1660001b610fd2565b905092915050565b600073ffffffffffffffffffffffffffffffffffffffff168173ffffffffffffffffffffffffffffffffffffffff161415610cef576040517f08c379a00000000000000000000000000000000000000000000000000000000081526004018080602001828103825260138152602001807f4552525f494e56414c49445f414444524553530000000000000000000000000081525060200191505060405180910390fd5b50565b600042905090565b80600160008473ffffffffffffffffffffffffffffffffffffffff1673ffffffffffffffffffffffffffffffffffffffff168152602001908152602001600020541115610daf576040517f08c379a000000000000000000000000000000000000000000000000000000000815260040180806020018281038252600f8152602001807f4552525f57524f4e475f4f52444552000000000000000000000000000000000081525060200191505060405180910390fd5b80600160008473ffffffffffffffffffffffffffffffffffffffff1673ffffffffffffffffffffffffffffffffffffffff168152602001908152602001600020819055508173ffffffffffffffffffffffffffffffffffffffff167f6eb3d2afd129515b81e7e76f1cd8eef506c90c811bed42bda361e9bebd93be25826040518082815260200191505060405180910390a25050565b600033905090565b610e7481600080858152602001908152602001600020600001610c1c90919063ffffffff16565b15610edc57610e81610e45565b73ffffffffffffffffffffffffffffffffffffffff168173ffffffffffffffffffffffffffffffffffffffff16837f2f8788117e7eff1d82e926ec794901d17c78024a50270940304540a733656f0d60405160405180910390a45b5050565b610f078160008085815260200190815260200160002060000161104290919063ffffffff16565b15610f6f57610f14610e45565b73ffffffffffffffffffffffffffffffffffffffff168173ffffffffffffffffffffffffffffffffffffffff16837ff6391f5c32d9c69d2a47ea670b442974b53935d1edc7fd64eb21e047a839171b60405160405180910390a45b5050565b6000610f828360000183611072565b60001c905092915050565b6000610fb5836000018373ffffffffffffffffffffffffffffffffffffffff1660001b6110f5565b905092915050565b6000610fcb82600001611118565b9050919050565b6000610fde83836110f5565b61103757826000018290806001815401808255809150506001900390600052602060002001600090919091909150558260000180549050836001016000848152602001908152602001600020819055506001905061103c565b600090505b92915050565b600061106a836000018373ffffffffffffffffffffffffffffffffffffffff1660001b611129565b905092915050565b6000818360000180549050116110d3576040517f08c379a00000000000000000000000000000000000000000000000000000000081526004018080602001828103825260228152602001806112126022913960400191505060405180910390fd5b8260000182815481106110e257fe5b9060005260206000200154905092915050565b600080836001016000848152602001908152602001600020541415905092915050565b600081600001805490509050919050565b60008083600101600084815260200190815260200160002054905060008114611205576000600182039050600060018660000180549050039050600086600001828154811061117457fe5b906000526020600020015490508087600001848154811061119157fe5b90600052602060002001819055506001830187600101600083815260200190815260200160002081905550866000018054806111c957fe5b6001900381819060005260206000200160009055905586600101600087815260200190815260200160002060009055600194505050505061120b565b60009150505b9291505056fe456e756d657261626c655365743a20696e646578206f7574206f6620626f756e6473416363657373436f6e74726f6c3a2073656e646572206d75737420626520616e2061646d696e20746f206772616e74416363657373436f6e74726f6c3a2073656e646572206d75737420626520616e2061646d696e20746f207265766f6b65416363657373436f6e74726f6c3a2063616e206f6e6c792072656e6f756e636520726f6c657320666f722073656c66a2646970667358221220ee053a01cbb7fafaaa80c41067bfad15d76991a45fe5725eec0725841bcdbf3164736f6c634300060c0033",
  "immutableReferences": {},
  "source": "// SPDX-License-Identifier: SEE LICENSE IN LICENSE\npragma solidity 0.6.12;\n\nimport \"@openzeppelin/contracts/access/AccessControl.sol\";\n\nimport \"./interfaces/ICheckpointStore.sol\";\n\nimport \"../utility/Utils.sol\";\nimport \"../utility/Time.sol\";\n\n/**\n * @dev Time store contract\n */\ncontract CheckpointStore is ICheckpointStore, AccessControl, Utils, Time {\n    mapping(address => uint256) private data;\n\n    // the owner role is used to add values to the store, but it can't update them\n    bytes32 public constant ROLE_OWNER = keccak256(\"ROLE_OWNER\");\n\n    // the seeder roles is used to seed the store with past values\n    bytes32 public constant ROLE_SEEDER = keccak256(\"ROLE_SEEDER\");\n\n    /**\n     * @dev triggered when a new data point is being added\n     *\n     * @param _address the address we're collecting the data for\n     * @param _time the checkpoint\n     */\n    event CheckpointUpdated(address indexed _address, uint256 _time);\n\n    constructor() public {\n        // set up administrative roles.\n        _setRoleAdmin(ROLE_OWNER, ROLE_OWNER);\n        _setRoleAdmin(ROLE_SEEDER, ROLE_OWNER);\n\n        // allow the deployer to initially govern the contract.\n        _setupRole(ROLE_OWNER, msg.sender);\n    }\n\n    /**\n     * @dev adds a new data point to the store\n     * can only be called by an owner\n     *\n     * @param _address the address we're collecting the data for\n     */\n    function addCheckpoint(address _address) external override validAddress(_address) {\n        require(hasRole(ROLE_OWNER, msg.sender), \"ERR_ACCESS_DENIED\");\n\n        addCheckpoint(_address, time());\n    }\n\n    /**\n     * @dev adds a past checkpoint to the store\n     * can only be called by a seeder\n     *\n     * @param _address the address we're collecting the data for\n     * @param _time the checkpoint\n     */\n    function addPastCheckpoint(address _address, uint256 _time) external override validAddress(_address) {\n        require(hasRole(ROLE_SEEDER, msg.sender), \"ERR_ACCESS_DENIED\");\n        require(_time < time(), \"ERR_INVALID_TIME\");\n\n        addCheckpoint(_address, _time);\n    }\n\n    /**\n     * @dev adds past checkpoints to the store\n     * can only be called by a seeder\n     *\n     * @param _addresses the addresses we're collecting the data for\n     * @param _times the checkpoints\n     */\n    function addPastCheckpoints(address[] calldata _addresses, uint256[] calldata _times) external override {\n        require(hasRole(ROLE_SEEDER, msg.sender), \"ERR_ACCESS_DENIED\");\n\n        uint256 length = _addresses.length;\n        require(length == _times.length, \"ERR_INVALID_LENGTH\");\n\n        for (uint256 i = 0; i < length; i++) {\n            address addr = _addresses[i];\n            uint256 t = _times[i];\n\n            _validAddress(addr);\n            require(t < time(), \"ERR_INVALID_TIME\");\n\n            addCheckpoint(addr, t);\n        }\n    }\n\n    /**\n     * @dev returns the store value for a specific address\n     *\n     * @param _address the address we're collecting the data for\n     *\n     * @return the checkpoint\n     */\n    function checkpoint(address _address) external view override returns (uint256) {\n        return data[_address];\n    }\n\n    /**\n     * @dev adds a new checkpoint\n     * can only be called by a seeder\n     *\n     * @param _address the address we're collecting the data for\n     * @param _time the checkpoint\n     */\n    function addCheckpoint(address _address, uint256 _time) private {\n        require(data[_address] <= _time, \"ERR_WRONG_ORDER\");\n\n        data[_address] = _time;\n\n        emit CheckpointUpdated(_address, _time);\n    }\n}\n",
  "sourcePath": "D:\\Work Space\\bancor_project\\core\\contracts\\utility\\CheckpointStore.sol",
  "compiler": {
    "name": "solc",
    "version": "0.6.12+commit.27d51765.Emscripten.clang"
  },
  "schemaVersion": "3.4.3",
  "updatedAt": "2021-08-23T03:19:30.250Z",
  "devdoc": {
    "details": "Time store contract",
    "events": {
      "CheckpointUpdated(address,uint256)": {
        "details": "triggered when a new data point is being added",
        "params": {
          "_address": "the address we're collecting the data for",
          "_time": "the checkpoint"
        }
      }
    },
    "kind": "dev",
    "methods": {
      "addCheckpoint(address)": {
        "details": "adds a new data point to the store can only be called by an owner",
        "params": {
          "_address": "the address we're collecting the data for"
        }
      },
      "addPastCheckpoint(address,uint256)": {
        "details": "adds a past checkpoint to the store can only be called by a seeder",
        "params": {
          "_address": "the address we're collecting the data for",
          "_time": "the checkpoint"
        }
      },
      "addPastCheckpoints(address[],uint256[])": {
        "details": "adds past checkpoints to the store can only be called by a seeder",
        "params": {
          "_addresses": "the addresses we're collecting the data for",
          "_times": "the checkpoints"
        }
      },
      "checkpoint(address)": {
        "details": "returns the store value for a specific address",
        "params": {
          "_address": "the address we're collecting the data for"
        },
        "returns": {
          "_0": "the checkpoint"
        }
      },
      "getRoleAdmin(bytes32)": {
        "details": "Returns the admin role that controls `role`. See {grantRole} and {revokeRole}. To change a role's admin, use {_setRoleAdmin}."
      },
      "getRoleMember(bytes32,uint256)": {
        "details": "Returns one of the accounts that have `role`. `index` must be a value between 0 and {getRoleMemberCount}, non-inclusive. Role bearers are not sorted in any particular way, and their ordering may change at any point. WARNING: When using {getRoleMember} and {getRoleMemberCount}, make sure you perform all queries on the same block. See the following https://forum.openzeppelin.com/t/iterating-over-elements-on-enumerableset-in-openzeppelin-contracts/2296[forum post] for more information."
      },
      "getRoleMemberCount(bytes32)": {
        "details": "Returns the number of accounts that have `role`. Can be used together with {getRoleMember} to enumerate all bearers of a role."
      },
      "grantRole(bytes32,address)": {
        "details": "Grants `role` to `account`. If `account` had not been already granted `role`, emits a {RoleGranted} event. Requirements: - the caller must have ``role``'s admin role."
      },
      "hasRole(bytes32,address)": {
        "details": "Returns `true` if `account` has been granted `role`."
      },
      "renounceRole(bytes32,address)": {
        "details": "Revokes `role` from the calling account. Roles are often managed via {grantRole} and {revokeRole}: this function's purpose is to provide a mechanism for accounts to lose their privileges if they are compromised (such as when a trusted device is misplaced). If the calling account had been granted `role`, emits a {RoleRevoked} event. Requirements: - the caller must be `account`."
      },
      "revokeRole(bytes32,address)": {
        "details": "Revokes `role` from `account`. If `account` had been granted `role`, emits a {RoleRevoked} event. Requirements: - the caller must have ``role``'s admin role."
      }
    },
    "version": 1
  },
  "userdoc": {
    "kind": "user",
    "methods": {},
    "version": 1
  }
}