{
  "contractName": "LiquidityProtectionStats",
  "abi": [
    {
      "inputs": [],
      "stateMutability": "nonpayable",
      "type": "constructor"
    },
    {
      "anonymous": false,
      "inputs": [
        {
          "indexed": true,
          "internalType": "bytes32",
          "name": "role",
          "type": "bytes32"
        },
        {
          "indexed": true,
          "internalType": "bytes32",
          "name": "previousAdminRole",
          "type": "bytes32"
        },
        {
          "indexed": true,
          "internalType": "bytes32",
          "name": "newAdminRole",
          "type": "bytes32"
        }
      ],
      "name": "RoleAdminChanged",
      "type": "event"
    },
    {
      "anonymous": false,
      "inputs": [
        {
          "indexed": true,
          "internalType": "bytes32",
          "name": "role",
          "type": "bytes32"
        },
        {
          "indexed": true,
          "internalType": "address",
          "name": "account",
          "type": "address"
        },
        {
          "indexed": true,
          "internalType": "address",
          "name": "sender",
          "type": "address"
        }
      ],
      "name": "RoleGranted",
      "type": "event"
    },
    {
      "anonymous": false,
      "inputs": [
        {
          "indexed": true,
          "internalType": "bytes32",
          "name": "role",
          "type": "bytes32"
        },
        {
          "indexed": true,
          "internalType": "address",
          "name": "account",
          "type": "address"
        },
        {
          "indexed": true,
          "internalType": "address",
          "name": "sender",
          "type": "address"
        }
      ],
      "name": "RoleRevoked",
      "type": "event"
    },
    {
      "inputs": [],
      "name": "DEFAULT_ADMIN_ROLE",
      "outputs": [
        {
          "internalType": "bytes32",
          "name": "",
          "type": "bytes32"
        }
      ],
      "stateMutability": "view",
      "type": "function"
    },
    {
      "inputs": [],
      "name": "ROLE_OWNER",
      "outputs": [
        {
          "internalType": "bytes32",
          "name": "",
          "type": "bytes32"
        }
      ],
      "stateMutability": "view",
      "type": "function"
    },
    {
      "inputs": [],
      "name": "ROLE_SEEDER",
      "outputs": [
        {
          "internalType": "bytes32",
          "name": "",
          "type": "bytes32"
        }
      ],
      "stateMutability": "view",
      "type": "function"
    },
    {
      "inputs": [],
      "name": "ROLE_SUPERVISOR",
      "outputs": [
        {
          "internalType": "bytes32",
          "name": "",
          "type": "bytes32"
        }
      ],
      "stateMutability": "view",
      "type": "function"
    },
    {
      "inputs": [
        {
          "internalType": "bytes32",
          "name": "role",
          "type": "bytes32"
        }
      ],
      "name": "getRoleAdmin",
      "outputs": [
        {
          "internalType": "bytes32",
          "name": "",
          "type": "bytes32"
        }
      ],
      "stateMutability": "view",
      "type": "function"
    },
    {
      "inputs": [
        {
          "internalType": "bytes32",
          "name": "role",
          "type": "bytes32"
        },
        {
          "internalType": "uint256",
          "name": "index",
          "type": "uint256"
        }
      ],
      "name": "getRoleMember",
      "outputs": [
        {
          "internalType": "address",
          "name": "",
          "type": "address"
        }
      ],
      "stateMutability": "view",
      "type": "function"
    },
    {
      "inputs": [
        {
          "internalType": "bytes32",
          "name": "role",
          "type": "bytes32"
        }
      ],
      "name": "getRoleMemberCount",
      "outputs": [
        {
          "internalType": "uint256",
          "name": "",
          "type": "uint256"
        }
      ],
      "stateMutability": "view",
      "type": "function"
    },
    {
      "inputs": [
        {
          "internalType": "bytes32",
          "name": "role",
          "type": "bytes32"
        },
        {
          "internalType": "address",
          "name": "account",
          "type": "address"
        }
      ],
      "name": "grantRole",
      "outputs": [],
      "stateMutability": "nonpayable",
      "type": "function"
    },
    {
      "inputs": [
        {
          "internalType": "bytes32",
          "name": "role",
          "type": "bytes32"
        },
        {
          "internalType": "address",
          "name": "account",
          "type": "address"
        }
      ],
      "name": "hasRole",
      "outputs": [
        {
          "internalType": "bool",
          "name": "",
          "type": "bool"
        }
      ],
      "stateMutability": "view",
      "type": "function"
    },
    {
      "inputs": [
        {
          "internalType": "bytes32",
          "name": "role",
          "type": "bytes32"
        },
        {
          "internalType": "address",
          "name": "account",
          "type": "address"
        }
      ],
      "name": "renounceRole",
      "outputs": [],
      "stateMutability": "nonpayable",
      "type": "function"
    },
    {
      "inputs": [
        {
          "internalType": "bytes32",
          "name": "role",
          "type": "bytes32"
        },
        {
          "internalType": "address",
          "name": "account",
          "type": "address"
        }
      ],
      "name": "revokeRole",
      "outputs": [],
      "stateMutability": "nonpayable",
      "type": "function"
    },
    {
      "inputs": [
        {
          "internalType": "address",
          "name": "provider",
          "type": "address"
        },
        {
          "internalType": "contract IDSToken",
          "name": "poolToken",
          "type": "address"
        },
        {
          "internalType": "contract IReserveToken",
          "name": "reserveToken",
          "type": "address"
        },
        {
          "internalType": "uint256",
          "name": "poolAmount",
          "type": "uint256"
        },
        {
          "internalType": "uint256",
          "name": "reserveAmount",
          "type": "uint256"
        }
      ],
      "name": "increaseTotalAmounts",
      "outputs": [],
      "stateMutability": "nonpayable",
      "type": "function"
    },
    {
      "inputs": [
        {
          "internalType": "address",
          "name": "provider",
          "type": "address"
        },
        {
          "internalType": "contract IDSToken",
          "name": "poolToken",
          "type": "address"
        },
        {
          "internalType": "contract IReserveToken",
          "name": "reserveToken",
          "type": "address"
        },
        {
          "internalType": "uint256",
          "name": "poolAmount",
          "type": "uint256"
        },
        {
          "internalType": "uint256",
          "name": "reserveAmount",
          "type": "uint256"
        }
      ],
      "name": "decreaseTotalAmounts",
      "outputs": [],
      "stateMutability": "nonpayable",
      "type": "function"
    },
    {
      "inputs": [
        {
          "internalType": "address",
          "name": "provider",
          "type": "address"
        },
        {
          "internalType": "contract IDSToken",
          "name": "poolToken",
          "type": "address"
        }
      ],
      "name": "addProviderPool",
      "outputs": [
        {
          "internalType": "bool",
          "name": "",
          "type": "bool"
        }
      ],
      "stateMutability": "nonpayable",
      "type": "function"
    },
    {
      "inputs": [
        {
          "internalType": "address",
          "name": "provider",
          "type": "address"
        },
        {
          "internalType": "contract IDSToken",
          "name": "poolToken",
          "type": "address"
        }
      ],
      "name": "removeProviderPool",
      "outputs": [
        {
          "internalType": "bool",
          "name": "",
          "type": "bool"
        }
      ],
      "stateMutability": "nonpayable",
      "type": "function"
    },
    {
      "inputs": [
        {
          "internalType": "contract IDSToken",
          "name": "poolToken",
          "type": "address"
        }
      ],
      "name": "totalPoolAmount",
      "outputs": [
        {
          "internalType": "uint256",
          "name": "",
          "type": "uint256"
        }
      ],
      "stateMutability": "view",
      "type": "function"
    },
    {
      "inputs": [
        {
          "internalType": "contract IDSToken",
          "name": "poolToken",
          "type": "address"
        },
        {
          "internalType": "contract IReserveToken",
          "name": "reserveToken",
          "type": "address"
        }
      ],
      "name": "totalReserveAmount",
      "outputs": [
        {
          "internalType": "uint256",
          "name": "",
          "type": "uint256"
        }
      ],
      "stateMutability": "view",
      "type": "function"
    },
    {
      "inputs": [
        {
          "internalType": "address",
          "name": "provider",
          "type": "address"
        },
        {
          "internalType": "contract IDSToken",
          "name": "poolToken",
          "type": "address"
        },
        {
          "internalType": "contract IReserveToken",
          "name": "reserveToken",
          "type": "address"
        }
      ],
      "name": "totalProviderAmount",
      "outputs": [
        {
          "internalType": "uint256",
          "name": "",
          "type": "uint256"
        }
      ],
      "stateMutability": "view",
      "type": "function"
    },
    {
      "inputs": [
        {
          "internalType": "address",
          "name": "provider",
          "type": "address"
        }
      ],
      "name": "providerPools",
      "outputs": [
        {
          "internalType": "contract IDSToken[]",
          "name": "",
          "type": "address[]"
        }
      ],
      "stateMutability": "view",
      "type": "function"
    },
    {
      "inputs": [
        {
          "internalType": "contract IDSToken[]",
          "name": "poolTokens",
          "type": "address[]"
        },
        {
          "internalType": "uint256[]",
          "name": "poolAmounts",
          "type": "uint256[]"
        }
      ],
      "name": "seedPoolAmounts",
      "outputs": [],
      "stateMutability": "nonpayable",
      "type": "function"
    },
    {
      "inputs": [
        {
          "internalType": "contract IDSToken[]",
          "name": "poolTokens",
          "type": "address[]"
        },
        {
          "internalType": "contract IReserveToken[]",
          "name": "reserveTokens",
          "type": "address[]"
        },
        {
          "internalType": "uint256[]",
          "name": "reserveAmounts",
          "type": "uint256[]"
        }
      ],
      "name": "seedReserveAmounts",
      "outputs": [],
      "stateMutability": "nonpayable",
      "type": "function"
    },
    {
      "inputs": [
        {
          "internalType": "address[]",
          "name": "providers",
          "type": "address[]"
        },
        {
          "internalType": "contract IDSToken[]",
          "name": "poolTokens",
          "type": "address[]"
        },
        {
          "internalType": "contract IReserveToken[]",
          "name": "reserveTokens",
          "type": "address[]"
        },
        {
          "internalType": "uint256[]",
          "name": "reserveAmounts",
          "type": "uint256[]"
        }
      ],
      "name": "seedProviderAmounts",
      "outputs": [],
      "stateMutability": "nonpayable",
      "type": "function"
    },
    {
      "inputs": [
        {
          "internalType": "address[]",
          "name": "providers",
          "type": "address[]"
        },
        {
          "internalType": "contract IDSToken[]",
          "name": "poolTokens",
          "type": "address[]"
        }
      ],
      "name": "seedProviderPools",
      "outputs": [],
      "stateMutability": "nonpayable",
      "type": "function"
    }
  ],
  "bytecode": "0x60806040523480156200001157600080fd5b50620000447f0c7ade2c7c08453ea605b4a8f3fb0e03e3ffcffbfa41ca8ee543d0fd74cada38806200012060201b60201c565b620000967fd040da8733f282f8b56d042e742cba64aa94b6398cd5a45974e40912f9b3b33f7f0c7ade2c7c08453ea605b4a8f3fb0e03e3ffcffbfa41ca8ee543d0fd74cada386200012060201b60201c565b620000e87f9f4e1c871d5fdd0aee1cd182666698a4492b24c6832aac230d07b11046af5a897f0c7ade2c7c08453ea605b4a8f3fb0e03e3ffcffbfa41ca8ee543d0fd74cada386200012060201b60201c565b6200011a7f0c7ade2c7c08453ea605b4a8f3fb0e03e3ffcffbfa41ca8ee543d0fd74cada38336200018260201b60201c565b62000318565b8060008084815260200190815260200160002060020154837fbd79b86ffe0ab8e8776151514217cd7cacd52c909f66475c3af44e129f0b00ff60405160405180910390a480600080848152602001908152602001600020600201819055505050565b6200019482826200019860201b60201c565b5050565b620001c6816000808581526020019081526020016000206000016200023b60201b62001e251790919060201c565b156200023757620001dc6200027360201b60201c565b73ffffffffffffffffffffffffffffffffffffffff168173ffffffffffffffffffffffffffffffffffffffff16837f2f8788117e7eff1d82e926ec794901d17c78024a50270940304540a733656f0d60405160405180910390a45b5050565b60006200026b836000018373ffffffffffffffffffffffffffffffffffffffff1660001b6200027b60201b60201c565b905092915050565b600033905090565b60006200028f8383620002f560201b60201c565b620002ea578260000182908060018154018082558091505060019003906000526020600020016000909190919091505582600001805490508360010160008481526020019081526020016000208190555060019050620002ef565b600090505b92915050565b600080836001016000848152602001908152602001600020541415905092915050565b61249180620003286000396000f3fe608060405234801561001057600080fd5b506004361061014d5760003560e01c80639010d07c116100c3578063b9571ddb1161007c578063b9571ddb14610907578063ca15c8731461095f578063d547741f146109a1578063dd5617ec146109ef578063ef7b4c6f14610abd578063fd4bc1e614610be05761014d565b80639010d07c1461054557806391d14854146105a757806394713f161461060b57806394f4c60814610783578063a217fddf14610851578063aa558ef01461086f5761014d565b806336568abe1161011557806336568abe1461031057806342d16abf1461035e5780634a91787c146103f65780635408b440146104705780636b639ced146105095780638ad682af146105275761014d565b80630d80af9b1461015257806322677c5214610170578063248a9ca3146101e857806327396b6d1461022a5780632f2ff15d146102c2575b600080fd5b61015a610c5a565b6040518082815260200191505060405180910390f35b6101d26004803603604081101561018657600080fd5b81019080803573ffffffffffffffffffffffffffffffffffffffff169060200190929190803573ffffffffffffffffffffffffffffffffffffffff169060200190929190505050610c7e565b6040518082815260200191505060405180910390f35b610214600480360360208110156101fe57600080fd5b8101908080359060200190929190505050610d05565b6040518082815260200191505060405180910390f35b6102c0600480360360a081101561024057600080fd5b81019080803573ffffffffffffffffffffffffffffffffffffffff169060200190929190803573ffffffffffffffffffffffffffffffffffffffff169060200190929190803573ffffffffffffffffffffffffffffffffffffffff1690602001909291908035906020019092919080359060200190929190505050610d24565b005b61030e600480360360408110156102d857600080fd5b8101908080359060200190929190803573ffffffffffffffffffffffffffffffffffffffff169060200190929190505050611081565b005b61035c6004803603604081101561032657600080fd5b8101908080359060200190929190803573ffffffffffffffffffffffffffffffffffffffff16906020019092919050505061110a565b005b6103e06004803603606081101561037457600080fd5b81019080803573ffffffffffffffffffffffffffffffffffffffff169060200190929190803573ffffffffffffffffffffffffffffffffffffffff169060200190929190803573ffffffffffffffffffffffffffffffffffffffff1690602001909291905050506111a3565b6040518082815260200191505060405180910390f35b6104586004803603604081101561040c57600080fd5b81019080803573ffffffffffffffffffffffffffffffffffffffff169060200190929190803573ffffffffffffffffffffffffffffffffffffffff169060200190929190505050611268565b60405180821515815260200191505060405180910390f35b6104b26004803603602081101561048657600080fd5b81019080803573ffffffffffffffffffffffffffffffffffffffff1690602001909291905050506112ec565b6040518080602001828103825283818151815260200191508051906020019060200280838360005b838110156104f55780820151818401526020810190506104da565b505050509050019250505060405180910390f35b610511611406565b6040518082815260200191505060405180910390f35b61052f61142a565b6040518082815260200191505060405180910390f35b61057b6004803603604081101561055b57600080fd5b81019080803590602001909291908035906020019092919050505061144e565b604051808273ffffffffffffffffffffffffffffffffffffffff16815260200191505060405180910390f35b6105f3600480360360408110156105bd57600080fd5b8101908080359060200190929190803573ffffffffffffffffffffffffffffffffffffffff16906020019092919050505061147f565b60405180821515815260200191505060405180910390f35b6107816004803603608081101561062157600080fd5b810190808035906020019064010000000081111561063e57600080fd5b82018360208201111561065057600080fd5b8035906020019184602083028401116401000000008311171561067257600080fd5b90919293919293908035906020019064010000000081111561069357600080fd5b8201836020820111156106a557600080fd5b803590602001918460208302840111640100000000831117156106c757600080fd5b9091929391929390803590602001906401000000008111156106e857600080fd5b8201836020820111156106fa57600080fd5b8035906020019184602083028401116401000000008311171561071c57600080fd5b90919293919293908035906020019064010000000081111561073d57600080fd5b82018360208201111561074f57600080fd5b8035906020019184602083028401116401000000008311171561077157600080fd5b90919293919293905050506114b0565b005b61084f6004803603604081101561079957600080fd5b81019080803590602001906401000000008111156107b657600080fd5b8201836020820111156107c857600080fd5b803590602001918460208302840111640100000000831117156107ea57600080fd5b90919293919293908035906020019064010000000081111561080b57600080fd5b82018360208201111561081d57600080fd5b8035906020019184602083028401116401000000008311171561083f57600080fd5b909192939192939050505061164d565b005b610859611740565b6040518082815260200191505060405180910390f35b610905600480360360a081101561088557600080fd5b81019080803573ffffffffffffffffffffffffffffffffffffffff169060200190929190803573ffffffffffffffffffffffffffffffffffffffff169060200190929190803573ffffffffffffffffffffffffffffffffffffffff1690602001909291908035906020019092919080359060200190929190505050611747565b005b6109496004803603602081101561091d57600080fd5b81019080803573ffffffffffffffffffffffffffffffffffffffff169060200190929190505050611aa4565b6040518082815260200191505060405180910390f35b61098b6004803603602081101561097557600080fd5b8101908080359060200190929190505050611aed565b6040518082815260200191505060405180910390f35b6109ed600480360360408110156109b757600080fd5b8101908080359060200190929190803573ffffffffffffffffffffffffffffffffffffffff169060200190929190505050611b13565b005b610abb60048036036040811015610a0557600080fd5b8101908080359060200190640100000000811115610a2257600080fd5b820183602082011115610a3457600080fd5b80359060200191846020830284011164010000000083111715610a5657600080fd5b909192939192939080359060200190640100000000811115610a7757600080fd5b820183602082011115610a8957600080fd5b80359060200191846020830284011164010000000083111715610aab57600080fd5b9091929391929390505050611b9c565b005b610bde60048036036060811015610ad357600080fd5b8101908080359060200190640100000000811115610af057600080fd5b820183602082011115610b0257600080fd5b80359060200191846020830284011164010000000083111715610b2457600080fd5b909192939192939080359060200190640100000000811115610b4557600080fd5b820183602082011115610b5757600080fd5b80359060200191846020830284011164010000000083111715610b7957600080fd5b909192939192939080359060200190640100000000811115610b9a57600080fd5b820183602082011115610bac57600080fd5b80359060200191846020830284011164010000000083111715610bce57600080fd5b9091929391929390505050611c6b565b005b610c4260048036036040811015610bf657600080fd5b81019080803573ffffffffffffffffffffffffffffffffffffffff169060200190929190803573ffffffffffffffffffffffffffffffffffffffff169060200190929190505050611da1565b60405180821515815260200191505060405180910390f35b7f0c7ade2c7c08453ea605b4a8f3fb0e03e3ffcffbfa41ca8ee543d0fd74cada3881565b6000600260008473ffffffffffffffffffffffffffffffffffffffff1673ffffffffffffffffffffffffffffffffffffffff16815260200190815260200160002060008373ffffffffffffffffffffffffffffffffffffffff1673ffffffffffffffffffffffffffffffffffffffff16815260200190815260200160002054905092915050565b6000806000838152602001908152602001600020600201549050919050565b610d4d7f9f4e1c871d5fdd0aee1cd182666698a4492b24c6832aac230d07b11046af5a89611e55565b610d9f82600160008773ffffffffffffffffffffffffffffffffffffffff1673ffffffffffffffffffffffffffffffffffffffff16815260200190815260200160002054611ed490919063ffffffff16565b600160008673ffffffffffffffffffffffffffffffffffffffff1673ffffffffffffffffffffffffffffffffffffffff16815260200190815260200160002081905550610e7181600260008773ffffffffffffffffffffffffffffffffffffffff1673ffffffffffffffffffffffffffffffffffffffff16815260200190815260200160002060008673ffffffffffffffffffffffffffffffffffffffff1673ffffffffffffffffffffffffffffffffffffffff16815260200190815260200160002054611ed490919063ffffffff16565b600260008673ffffffffffffffffffffffffffffffffffffffff1673ffffffffffffffffffffffffffffffffffffffff16815260200190815260200160002060008573ffffffffffffffffffffffffffffffffffffffff1673ffffffffffffffffffffffffffffffffffffffff16815260200190815260200160002081905550610fbd81600360008873ffffffffffffffffffffffffffffffffffffffff1673ffffffffffffffffffffffffffffffffffffffff16815260200190815260200160002060008773ffffffffffffffffffffffffffffffffffffffff1673ffffffffffffffffffffffffffffffffffffffff16815260200190815260200160002060008673ffffffffffffffffffffffffffffffffffffffff1673ffffffffffffffffffffffffffffffffffffffff16815260200190815260200160002054611ed490919063ffffffff16565b600360008773ffffffffffffffffffffffffffffffffffffffff1673ffffffffffffffffffffffffffffffffffffffff16815260200190815260200160002060008673ffffffffffffffffffffffffffffffffffffffff1673ffffffffffffffffffffffffffffffffffffffff16815260200190815260200160002060008573ffffffffffffffffffffffffffffffffffffffff1673ffffffffffffffffffffffffffffffffffffffff168152602001908152602001600020819055505050505050565b6110a7600080848152602001908152602001600020600201546110a2611f57565b61147f565b6110fc576040517f08c379a000000000000000000000000000000000000000000000000000000000815260040180806020018281038252602f8152602001806123ce602f913960400191505060405180910390fd5b6111068282611f5f565b5050565b611112611f57565b73ffffffffffffffffffffffffffffffffffffffff168173ffffffffffffffffffffffffffffffffffffffff1614611195576040517f08c379a000000000000000000000000000000000000000000000000000000000815260040180806020018281038252602f81526020018061242d602f913960400191505060405180910390fd5b61119f8282611ff2565b5050565b6000600360008573ffffffffffffffffffffffffffffffffffffffff1673ffffffffffffffffffffffffffffffffffffffff16815260200190815260200160002060008473ffffffffffffffffffffffffffffffffffffffff1673ffffffffffffffffffffffffffffffffffffffff16815260200190815260200160002060008373ffffffffffffffffffffffffffffffffffffffff1673ffffffffffffffffffffffffffffffffffffffff1681526020019081526020016000205490509392505050565b60006112937f9f4e1c871d5fdd0aee1cd182666698a4492b24c6832aac230d07b11046af5a89611e55565b6112e482600460008673ffffffffffffffffffffffffffffffffffffffff1673ffffffffffffffffffffffffffffffffffffffff16815260200190815260200160002061208590919063ffffffff16565b905092915050565b60606000600460008473ffffffffffffffffffffffffffffffffffffffff1673ffffffffffffffffffffffffffffffffffffffff1681526020019081526020016000209050600061133c826120b5565b905060608167ffffffffffffffff8111801561135757600080fd5b506040519080825280602002602001820160405280156113865781602001602082028036833780820191505090505b50905060005b828110156113fa576113a781856120ca90919063ffffffff16565b8282815181106113b357fe5b602002602001019073ffffffffffffffffffffffffffffffffffffffff16908173ffffffffffffffffffffffffffffffffffffffff1681525050808060010191505061138c565b50809350505050919050565b7fd040da8733f282f8b56d042e742cba64aa94b6398cd5a45974e40912f9b3b33f81565b7f9f4e1c871d5fdd0aee1cd182666698a4492b24c6832aac230d07b11046af5a8981565b6000611477826000808681526020019081526020016000206000016120ca90919063ffffffff16565b905092915050565b60006114a8826000808681526020019081526020016000206000016120e490919063ffffffff16565b905092915050565b6114d97fd040da8733f282f8b56d042e742cba64aa94b6398cd5a45974e40912f9b3b33f611e55565b600088889050905060005b81811015611641578383828181106114f857fe5b90506020020135600360008c8c8581811061150f57fe5b9050602002013573ffffffffffffffffffffffffffffffffffffffff1673ffffffffffffffffffffffffffffffffffffffff1673ffffffffffffffffffffffffffffffffffffffff16815260200190815260200160002060008a8a8581811061157457fe5b9050602002013573ffffffffffffffffffffffffffffffffffffffff1673ffffffffffffffffffffffffffffffffffffffff1673ffffffffffffffffffffffffffffffffffffffff16815260200190815260200160002060008888858181106115d957fe5b9050602002013573ffffffffffffffffffffffffffffffffffffffff1673ffffffffffffffffffffffffffffffffffffffff1673ffffffffffffffffffffffffffffffffffffffff1681526020019081526020016000208190555080806001019150506114e4565b50505050505050505050565b6116767fd040da8733f282f8b56d042e742cba64aa94b6398cd5a45974e40912f9b3b33f611e55565b600084849050905060005b818110156117385761172a84848381811061169857fe5b9050602002013573ffffffffffffffffffffffffffffffffffffffff16600460008989868181106116c557fe5b9050602002013573ffffffffffffffffffffffffffffffffffffffff1673ffffffffffffffffffffffffffffffffffffffff1673ffffffffffffffffffffffffffffffffffffffff168152602001908152602001600020611e2590919063ffffffff16565b508080600101915050611681565b505050505050565b6000801b81565b6117707f9f4e1c871d5fdd0aee1cd182666698a4492b24c6832aac230d07b11046af5a89611e55565b6117c282600160008773ffffffffffffffffffffffffffffffffffffffff1673ffffffffffffffffffffffffffffffffffffffff1681526020019081526020016000205461211490919063ffffffff16565b600160008673ffffffffffffffffffffffffffffffffffffffff1673ffffffffffffffffffffffffffffffffffffffff1681526020019081526020016000208190555061189481600260008773ffffffffffffffffffffffffffffffffffffffff1673ffffffffffffffffffffffffffffffffffffffff16815260200190815260200160002060008673ffffffffffffffffffffffffffffffffffffffff1673ffffffffffffffffffffffffffffffffffffffff1681526020019081526020016000205461211490919063ffffffff16565b600260008673ffffffffffffffffffffffffffffffffffffffff1673ffffffffffffffffffffffffffffffffffffffff16815260200190815260200160002060008573ffffffffffffffffffffffffffffffffffffffff1673ffffffffffffffffffffffffffffffffffffffff168152602001908152602001600020819055506119e081600360008873ffffffffffffffffffffffffffffffffffffffff1673ffffffffffffffffffffffffffffffffffffffff16815260200190815260200160002060008773ffffffffffffffffffffffffffffffffffffffff1673ffffffffffffffffffffffffffffffffffffffff16815260200190815260200160002060008673ffffffffffffffffffffffffffffffffffffffff1673ffffffffffffffffffffffffffffffffffffffff1681526020019081526020016000205461211490919063ffffffff16565b600360008773ffffffffffffffffffffffffffffffffffffffff1673ffffffffffffffffffffffffffffffffffffffff16815260200190815260200160002060008673ffffffffffffffffffffffffffffffffffffffff1673ffffffffffffffffffffffffffffffffffffffff16815260200190815260200160002060008573ffffffffffffffffffffffffffffffffffffffff1673ffffffffffffffffffffffffffffffffffffffff168152602001908152602001600020819055505050505050565b6000600160008373ffffffffffffffffffffffffffffffffffffffff1673ffffffffffffffffffffffffffffffffffffffff168152602001908152602001600020549050919050565b6000611b0c6000808481526020019081526020016000206000016120b5565b9050919050565b611b3960008084815260200190815260200160002060020154611b34611f57565b61147f565b611b8e576040517f08c379a00000000000000000000000000000000000000000000000000000000081526004018080602001828103825260308152602001806123fd6030913960400191505060405180910390fd5b611b988282611ff2565b5050565b611bc57fd040da8733f282f8b56d042e742cba64aa94b6398cd5a45974e40912f9b3b33f611e55565b600084849050905060005b81811015611c6357838382818110611be457fe5b9050602002013560016000888885818110611bfb57fe5b9050602002013573ffffffffffffffffffffffffffffffffffffffff1673ffffffffffffffffffffffffffffffffffffffff1673ffffffffffffffffffffffffffffffffffffffff168152602001908152602001600020819055508080600101915050611bd0565b505050505050565b611c947fd040da8733f282f8b56d042e742cba64aa94b6398cd5a45974e40912f9b3b33f611e55565b600086869050905060005b81811015611d9757838382818110611cb357fe5b90506020020135600260008a8a85818110611cca57fe5b9050602002013573ffffffffffffffffffffffffffffffffffffffff1673ffffffffffffffffffffffffffffffffffffffff1673ffffffffffffffffffffffffffffffffffffffff1681526020019081526020016000206000888885818110611d2f57fe5b9050602002013573ffffffffffffffffffffffffffffffffffffffff1673ffffffffffffffffffffffffffffffffffffffff1673ffffffffffffffffffffffffffffffffffffffff168152602001908152602001600020819055508080600101915050611c9f565b5050505050505050565b6000611dcc7f9f4e1c871d5fdd0aee1cd182666698a4492b24c6832aac230d07b11046af5a89611e55565b611e1d82600460008673ffffffffffffffffffffffffffffffffffffffff1673ffffffffffffffffffffffffffffffffffffffff168152602001908152602001600020611e2590919063ffffffff16565b905092915050565b6000611e4d836000018373ffffffffffffffffffffffffffffffffffffffff1660001b61219c565b905092915050565b611e5f813361147f565b611ed1576040517f08c379a00000000000000000000000000000000000000000000000000000000081526004018080602001828103825260118152602001807f4552525f4143434553535f44454e49454400000000000000000000000000000081525060200191505060405180910390fd5b50565b600082821115611f4c576040517f08c379a000000000000000000000000000000000000000000000000000000000815260040180806020018281038252601e8152602001807f536166654d6174683a207375627472616374696f6e206f766572666c6f77000081525060200191505060405180910390fd5b818303905092915050565b600033905090565b611f8681600080858152602001908152602001600020600001611e2590919063ffffffff16565b15611fee57611f93611f57565b73ffffffffffffffffffffffffffffffffffffffff168173ffffffffffffffffffffffffffffffffffffffff16837f2f8788117e7eff1d82e926ec794901d17c78024a50270940304540a733656f0d60405160405180910390a45b5050565b6120198160008085815260200190815260200160002060000161208590919063ffffffff16565b1561208157612026611f57565b73ffffffffffffffffffffffffffffffffffffffff168173ffffffffffffffffffffffffffffffffffffffff16837ff6391f5c32d9c69d2a47ea670b442974b53935d1edc7fd64eb21e047a839171b60405160405180910390a45b5050565b60006120ad836000018373ffffffffffffffffffffffffffffffffffffffff1660001b61220c565b905092915050565b60006120c3826000016122f4565b9050919050565b60006120d98360000183612305565b60001c905092915050565b600061210c836000018373ffffffffffffffffffffffffffffffffffffffff1660001b612388565b905092915050565b600080828401905083811015612192576040517f08c379a000000000000000000000000000000000000000000000000000000000815260040180806020018281038252601b8152602001807f536166654d6174683a206164646974696f6e206f766572666c6f77000000000081525060200191505060405180910390fd5b8091505092915050565b60006121a88383612388565b612201578260000182908060018154018082558091505060019003906000526020600020016000909190919091505582600001805490508360010160008481526020019081526020016000208190555060019050612206565b600090505b92915050565b600080836001016000848152602001908152602001600020549050600081146122e8576000600182039050600060018660000180549050039050600086600001828154811061225757fe5b906000526020600020015490508087600001848154811061227457fe5b90600052602060002001819055506001830187600101600083815260200190815260200160002081905550866000018054806122ac57fe5b600190038181906000526020600020016000905590558660010160008781526020019081526020016000206000905560019450505050506122ee565b60009150505b92915050565b600081600001805490509050919050565b600081836000018054905011612366576040517f08c379a00000000000000000000000000000000000000000000000000000000081526004018080602001828103825260228152602001806123ac6022913960400191505060405180910390fd5b82600001828154811061237557fe5b9060005260206000200154905092915050565b60008083600101600084815260200190815260200160002054141590509291505056fe456e756d657261626c655365743a20696e646578206f7574206f6620626f756e6473416363657373436f6e74726f6c3a2073656e646572206d75737420626520616e2061646d696e20746f206772616e74416363657373436f6e74726f6c3a2073656e646572206d75737420626520616e2061646d696e20746f207265766f6b65416363657373436f6e74726f6c3a2063616e206f6e6c792072656e6f756e636520726f6c657320666f722073656c66a264697066735822122006c6e9839b1c7c20125323d78951bf82343c0b0647b9a6c637d7a853206597b664736f6c634300060c0033",
  "immutableReferences": {},
  "source": "// SPDX-License-Identifier: SEE LICENSE IN LICENSE\npragma solidity 0.6.12;\n\nimport \"@openzeppelin/contracts/access/AccessControl.sol\";\nimport \"@openzeppelin/contracts/utils/EnumerableSet.sol\";\nimport \"@openzeppelin/contracts/math/SafeMath.sol\";\n\nimport \"./interfaces/ILiquidityProtectionStats.sol\";\n\n/**\n * @dev This contract aggregates the statistics of the liquidity protection mechanism.\n */\ncontract LiquidityProtectionStats is ILiquidityProtectionStats, AccessControl {\n    using EnumerableSet for EnumerableSet.AddressSet;\n    using SafeMath for uint256;\n\n    bytes32 public constant ROLE_SUPERVISOR = keccak256(\"ROLE_SUPERVISOR\");\n    bytes32 public constant ROLE_SEEDER = keccak256(\"ROLE_SEEDER\");\n    bytes32 public constant ROLE_OWNER = keccak256(\"ROLE_OWNER\");\n\n    mapping(IDSToken => uint256) private _totalPoolAmounts;\n    mapping(IDSToken => mapping(IReserveToken => uint256)) private _totalReserveAmounts;\n    mapping(address => mapping(IDSToken => mapping(IReserveToken => uint256))) private _totalProviderAmounts;\n\n    mapping(address => EnumerableSet.AddressSet) private _providerPools;\n\n    // allows execution only by an owner\n    modifier ownerOnly {\n        _hasRole(ROLE_OWNER);\n        _;\n    }\n\n    // allows execution only by a seeder\n    modifier seederOnly {\n        _hasRole(ROLE_SEEDER);\n        _;\n    }\n\n    // error message binary size optimization\n    function _hasRole(bytes32 role) internal view {\n        require(hasRole(role, msg.sender), \"ERR_ACCESS_DENIED\");\n    }\n\n    constructor() public {\n        // set up administrative roles\n        _setRoleAdmin(ROLE_SUPERVISOR, ROLE_SUPERVISOR);\n        _setRoleAdmin(ROLE_SEEDER, ROLE_SUPERVISOR);\n        _setRoleAdmin(ROLE_OWNER, ROLE_SUPERVISOR);\n\n        // allow the deployer to initially govern the contract\n        _setupRole(ROLE_SUPERVISOR, msg.sender);\n    }\n\n    /**\n     * @dev increases the total amounts\n     * can be executed only by an owner\n     *\n     * @param provider          liquidity provider address\n     * @param poolToken         pool token address\n     * @param reserveToken      reserve token address\n     * @param poolAmount        pool token amount\n     * @param reserveAmount     reserve token amount\n     */\n    function increaseTotalAmounts(\n        address provider,\n        IDSToken poolToken,\n        IReserveToken reserveToken,\n        uint256 poolAmount,\n        uint256 reserveAmount\n    ) external override ownerOnly {\n        _totalPoolAmounts[poolToken] = _totalPoolAmounts[poolToken].add(poolAmount);\n        _totalReserveAmounts[poolToken][reserveToken] = _totalReserveAmounts[poolToken][reserveToken].add(\n            reserveAmount\n        );\n        _totalProviderAmounts[provider][poolToken][reserveToken] = _totalProviderAmounts[provider][poolToken][\n            reserveToken\n        ]\n            .add(reserveAmount);\n    }\n\n    /**\n     * @dev decreases the total amounts\n     * can be executed only by an owner\n     *\n     * @param provider          liquidity provider address\n     * @param poolToken         pool token address\n     * @param reserveToken      reserve token address\n     * @param poolAmount        pool token amount\n     * @param reserveAmount     reserve token amount\n     */\n    function decreaseTotalAmounts(\n        address provider,\n        IDSToken poolToken,\n        IReserveToken reserveToken,\n        uint256 poolAmount,\n        uint256 reserveAmount\n    ) external override ownerOnly {\n        _totalPoolAmounts[poolToken] = _totalPoolAmounts[poolToken].sub(poolAmount);\n        _totalReserveAmounts[poolToken][reserveToken] = _totalReserveAmounts[poolToken][reserveToken].sub(\n            reserveAmount\n        );\n        _totalProviderAmounts[provider][poolToken][reserveToken] = _totalProviderAmounts[provider][poolToken][\n            reserveToken\n        ]\n            .sub(reserveAmount);\n    }\n\n    /**\n     * @dev adds a pool to the list of pools of a liquidity provider\n     * can be executed only by an owner\n     *\n     * @param provider  liquidity provider address\n     * @param poolToken pool token address\n     */\n    function addProviderPool(address provider, IDSToken poolToken) external override ownerOnly returns (bool) {\n        return _providerPools[provider].add(address(poolToken));\n    }\n\n    /**\n     * @dev removes a pool from the list of pools of a liquidity provider\n     * can be executed only by an owner\n     *\n     * @param provider  liquidity provider address\n     * @param poolToken pool token address\n     */\n    function removeProviderPool(address provider, IDSToken poolToken) external override ownerOnly returns (bool) {\n        return _providerPools[provider].remove(address(poolToken));\n    }\n\n    /**\n     * @dev returns the total amount of protected pool tokens\n     *\n     * @param poolToken pool token address\n     * @return total amount of protected pool tokens\n     */\n    function totalPoolAmount(IDSToken poolToken) external view override returns (uint256) {\n        return _totalPoolAmounts[poolToken];\n    }\n\n    /**\n     * @dev returns the total amount of protected reserve tokens\n     *\n     * @param poolToken     pool token address\n     * @param reserveToken  reserve token address\n     * @return total amount of protected reserve tokens\n     */\n    function totalReserveAmount(IDSToken poolToken, IReserveToken reserveToken)\n        external\n        view\n        override\n        returns (uint256)\n    {\n        return _totalReserveAmounts[poolToken][reserveToken];\n    }\n\n    /**\n     * @dev returns the total amount of a liquidity provider's protected reserve tokens\n     *\n     * @param provider      liquidity provider address\n     * @param poolToken     pool token address\n     * @param reserveToken  reserve token address\n     * @return total amount of the liquidity provider's protected reserve tokens\n     */\n    function totalProviderAmount(\n        address provider,\n        IDSToken poolToken,\n        IReserveToken reserveToken\n    ) external view override returns (uint256) {\n        return _totalProviderAmounts[provider][poolToken][reserveToken];\n    }\n\n    /**\n     * @dev returns the list of pools of a liquidity provider\n     *\n     * @param provider  liquidity provider address\n     * @return pool tokens\n     */\n    function providerPools(address provider) external view override returns (IDSToken[] memory) {\n        EnumerableSet.AddressSet storage set = _providerPools[provider];\n        uint256 length = set.length();\n        IDSToken[] memory arr = new IDSToken[](length);\n        for (uint256 i = 0; i < length; i++) {\n            arr[i] = IDSToken(set.at(i));\n        }\n        return arr;\n    }\n\n    /**\n     * @dev seeds the total amount of protected pool tokens\n     * can be executed only by a seeder\n     *\n     * @param poolTokens    pool token addresses\n     * @param poolAmounts   pool token amounts\n     */\n    function seedPoolAmounts(IDSToken[] calldata poolTokens, uint256[] calldata poolAmounts) external seederOnly {\n        uint256 length = poolTokens.length;\n        for (uint256 i = 0; i < length; i++) {\n            _totalPoolAmounts[poolTokens[i]] = poolAmounts[i];\n        }\n    }\n\n    /**\n     * @dev seeds the total amount of protected reserve tokens\n     * can be executed only by a seeder\n     *\n     * @param poolTokens        pool token addresses\n     * @param reserveTokens     reserve token addresses\n     * @param reserveAmounts    reserve token amounts\n     */\n    function seedReserveAmounts(\n        IDSToken[] calldata poolTokens,\n        IReserveToken[] calldata reserveTokens,\n        uint256[] calldata reserveAmounts\n    ) external seederOnly {\n        uint256 length = poolTokens.length;\n        for (uint256 i = 0; i < length; i++) {\n            _totalReserveAmounts[poolTokens[i]][reserveTokens[i]] = reserveAmounts[i];\n        }\n    }\n\n    /**\n     * @dev seeds the total amount of protected reserve tokens per liquidity provider\n     * can be executed only by a seeder\n     *\n     * @param providers         liquidity provider addresses\n     * @param poolTokens        pool token addresses\n     * @param reserveTokens     reserve token addresses\n     * @param reserveAmounts    reserve token amounts\n     */\n    function seedProviderAmounts(\n        address[] calldata providers,\n        IDSToken[] calldata poolTokens,\n        IReserveToken[] calldata reserveTokens,\n        uint256[] calldata reserveAmounts\n    ) external seederOnly {\n        uint256 length = providers.length;\n        for (uint256 i = 0; i < length; i++) {\n            _totalProviderAmounts[providers[i]][poolTokens[i]][reserveTokens[i]] = reserveAmounts[i];\n        }\n    }\n\n    /**\n     * @dev seeds the list of pools per liquidity provider\n     * can be executed only by a seeder\n     *\n     * @param providers     liquidity provider addresses\n     * @param poolTokens    pool token addresses\n     */\n    function seedProviderPools(address[] calldata providers, IDSToken[] calldata poolTokens) external seederOnly {\n        uint256 length = providers.length;\n        for (uint256 i = 0; i < length; i++) {\n            _providerPools[providers[i]].add(address(poolTokens[i]));\n        }\n    }\n}\n",
  "sourcePath": "D:\\Work Space\\bancor_project\\core\\contracts\\liquidity-protection\\LiquidityProtectionStats.sol",
  "compiler": {
    "name": "solc",
    "version": "0.6.12+commit.27d51765.Emscripten.clang"
  },
  "schemaVersion": "3.4.3",
  "updatedAt": "2021-08-23T11:45:54.505Z",
  "devdoc": {
    "details": "This contract aggregates the statistics of the liquidity protection mechanism.",
    "kind": "dev",
    "methods": {
      "addProviderPool(address,address)": {
        "details": "adds a pool to the list of pools of a liquidity provider can be executed only by an owner",
        "params": {
          "poolToken": "pool token address",
          "provider": "liquidity provider address"
        }
      },
      "decreaseTotalAmounts(address,address,address,uint256,uint256)": {
        "details": "decreases the total amounts can be executed only by an owner",
        "params": {
          "poolAmount": "pool token amount",
          "poolToken": "pool token address",
          "provider": "liquidity provider address",
          "reserveAmount": "reserve token amount",
          "reserveToken": "reserve token address"
        }
      },
      "getRoleAdmin(bytes32)": {
        "details": "Returns the admin role that controls `role`. See {grantRole} and {revokeRole}. To change a role's admin, use {_setRoleAdmin}."
      },
      "getRoleMember(bytes32,uint256)": {
        "details": "Returns one of the accounts that have `role`. `index` must be a value between 0 and {getRoleMemberCount}, non-inclusive. Role bearers are not sorted in any particular way, and their ordering may change at any point. WARNING: When using {getRoleMember} and {getRoleMemberCount}, make sure you perform all queries on the same block. See the following https://forum.openzeppelin.com/t/iterating-over-elements-on-enumerableset-in-openzeppelin-contracts/2296[forum post] for more information."
      },
      "getRoleMemberCount(bytes32)": {
        "details": "Returns the number of accounts that have `role`. Can be used together with {getRoleMember} to enumerate all bearers of a role."
      },
      "grantRole(bytes32,address)": {
        "details": "Grants `role` to `account`. If `account` had not been already granted `role`, emits a {RoleGranted} event. Requirements: - the caller must have ``role``'s admin role."
      },
      "hasRole(bytes32,address)": {
        "details": "Returns `true` if `account` has been granted `role`."
      },
      "increaseTotalAmounts(address,address,address,uint256,uint256)": {
        "details": "increases the total amounts can be executed only by an owner",
        "params": {
          "poolAmount": "pool token amount",
          "poolToken": "pool token address",
          "provider": "liquidity provider address",
          "reserveAmount": "reserve token amount",
          "reserveToken": "reserve token address"
        }
      },
      "providerPools(address)": {
        "details": "returns the list of pools of a liquidity provider",
        "params": {
          "provider": "liquidity provider address"
        },
        "returns": {
          "_0": "pool tokens"
        }
      },
      "removeProviderPool(address,address)": {
        "details": "removes a pool from the list of pools of a liquidity provider can be executed only by an owner",
        "params": {
          "poolToken": "pool token address",
          "provider": "liquidity provider address"
        }
      },
      "renounceRole(bytes32,address)": {
        "details": "Revokes `role` from the calling account. Roles are often managed via {grantRole} and {revokeRole}: this function's purpose is to provide a mechanism for accounts to lose their privileges if they are compromised (such as when a trusted device is misplaced). If the calling account had been granted `role`, emits a {RoleRevoked} event. Requirements: - the caller must be `account`."
      },
      "revokeRole(bytes32,address)": {
        "details": "Revokes `role` from `account`. If `account` had been granted `role`, emits a {RoleRevoked} event. Requirements: - the caller must have ``role``'s admin role."
      },
      "seedPoolAmounts(address[],uint256[])": {
        "details": "seeds the total amount of protected pool tokens can be executed only by a seeder",
        "params": {
          "poolAmounts": "pool token amounts",
          "poolTokens": "pool token addresses"
        }
      },
      "seedProviderAmounts(address[],address[],address[],uint256[])": {
        "details": "seeds the total amount of protected reserve tokens per liquidity provider can be executed only by a seeder",
        "params": {
          "poolTokens": "pool token addresses",
          "providers": "liquidity provider addresses",
          "reserveAmounts": "reserve token amounts",
          "reserveTokens": "reserve token addresses"
        }
      },
      "seedProviderPools(address[],address[])": {
        "details": "seeds the list of pools per liquidity provider can be executed only by a seeder",
        "params": {
          "poolTokens": "pool token addresses",
          "providers": "liquidity provider addresses"
        }
      },
      "seedReserveAmounts(address[],address[],uint256[])": {
        "details": "seeds the total amount of protected reserve tokens can be executed only by a seeder",
        "params": {
          "poolTokens": "pool token addresses",
          "reserveAmounts": "reserve token amounts",
          "reserveTokens": "reserve token addresses"
        }
      },
      "totalPoolAmount(address)": {
        "details": "returns the total amount of protected pool tokens",
        "params": {
          "poolToken": "pool token address"
        },
        "returns": {
          "_0": "total amount of protected pool tokens"
        }
      },
      "totalProviderAmount(address,address,address)": {
        "details": "returns the total amount of a liquidity provider's protected reserve tokens",
        "params": {
          "poolToken": "pool token address",
          "provider": "liquidity provider address",
          "reserveToken": "reserve token address"
        },
        "returns": {
          "_0": "total amount of the liquidity provider's protected reserve tokens"
        }
      },
      "totalReserveAmount(address,address)": {
        "details": "returns the total amount of protected reserve tokens",
        "params": {
          "poolToken": "pool token address",
          "reserveToken": "reserve token address"
        },
        "returns": {
          "_0": "total amount of protected reserve tokens"
        }
      }
    },
    "version": 1
  },
  "userdoc": {
    "kind": "user",
    "methods": {},
    "version": 1
  }
}