{
  "contractName": "LiquidityProtectionSettings",
  "abi": [
    {
      "inputs": [
        {
          "internalType": "contract IERC20",
          "name": "networkToken",
          "type": "address"
        },
        {
          "internalType": "contract IContractRegistry",
          "name": "registry",
          "type": "address"
        }
      ],
      "stateMutability": "nonpayable",
      "type": "constructor"
    },
    {
      "anonymous": false,
      "inputs": [
        {
          "indexed": true,
          "internalType": "contract IConverterAnchor",
          "name": "poolAnchor",
          "type": "address"
        },
        {
          "indexed": true,
          "internalType": "contract IReserveToken",
          "name": "reserveToken",
          "type": "address"
        },
        {
          "indexed": false,
          "internalType": "bool",
          "name": "disabled",
          "type": "bool"
        }
      ],
      "name": "AddLiquidityDisabled",
      "type": "event"
    },
    {
      "anonymous": false,
      "inputs": [
        {
          "indexed": false,
          "internalType": "uint32",
          "name": "prevAverageRateMaxDeviation",
          "type": "uint32"
        },
        {
          "indexed": false,
          "internalType": "uint32",
          "name": "newAverageRateMaxDeviation",
          "type": "uint32"
        }
      ],
      "name": "AverageRateMaxDeviationUpdated",
      "type": "event"
    },
    {
      "anonymous": false,
      "inputs": [
        {
          "indexed": false,
          "internalType": "uint256",
          "name": "prevDefault",
          "type": "uint256"
        },
        {
          "indexed": false,
          "internalType": "uint256",
          "name": "newDefault",
          "type": "uint256"
        }
      ],
      "name": "DefaultNetworkTokenMintingLimitUpdated",
      "type": "event"
    },
    {
      "anonymous": false,
      "inputs": [
        {
          "indexed": false,
          "internalType": "uint256",
          "name": "prevLockDuration",
          "type": "uint256"
        },
        {
          "indexed": false,
          "internalType": "uint256",
          "name": "newLockDuration",
          "type": "uint256"
        }
      ],
      "name": "LockDurationUpdated",
      "type": "event"
    },
    {
      "anonymous": false,
      "inputs": [
        {
          "indexed": false,
          "internalType": "uint256",
          "name": "prevMinNetworkCompensation",
          "type": "uint256"
        },
        {
          "indexed": false,
          "internalType": "uint256",
          "name": "newMinNetworkCompensation",
          "type": "uint256"
        }
      ],
      "name": "MinNetworkCompensationUpdated",
      "type": "event"
    },
    {
      "anonymous": false,
      "inputs": [
        {
          "indexed": false,
          "internalType": "uint256",
          "name": "prevMin",
          "type": "uint256"
        },
        {
          "indexed": false,
          "internalType": "uint256",
          "name": "newMin",
          "type": "uint256"
        }
      ],
      "name": "MinNetworkTokenLiquidityForMintingUpdated",
      "type": "event"
    },
    {
      "anonymous": false,
      "inputs": [
        {
          "indexed": true,
          "internalType": "contract IConverterAnchor",
          "name": "poolAnchor",
          "type": "address"
        },
        {
          "indexed": false,
          "internalType": "uint256",
          "name": "prevLimit",
          "type": "uint256"
        },
        {
          "indexed": false,
          "internalType": "uint256",
          "name": "newLimit",
          "type": "uint256"
        }
      ],
      "name": "NetworkTokenMintingLimitUpdated",
      "type": "event"
    },
    {
      "anonymous": false,
      "inputs": [
        {
          "indexed": true,
          "internalType": "address",
          "name": "_prevOwner",
          "type": "address"
        },
        {
          "indexed": true,
          "internalType": "address",
          "name": "_newOwner",
          "type": "address"
        }
      ],
      "name": "OwnerUpdate",
      "type": "event"
    },
    {
      "anonymous": false,
      "inputs": [
        {
          "indexed": true,
          "internalType": "contract IConverterAnchor",
          "name": "poolAnchor",
          "type": "address"
        },
        {
          "indexed": false,
          "internalType": "bool",
          "name": "added",
          "type": "bool"
        }
      ],
      "name": "PoolWhitelistUpdated",
      "type": "event"
    },
    {
      "anonymous": false,
      "inputs": [
        {
          "indexed": false,
          "internalType": "uint256",
          "name": "prevMinProtectionDelay",
          "type": "uint256"
        },
        {
          "indexed": false,
          "internalType": "uint256",
          "name": "newMinProtectionDelay",
          "type": "uint256"
        },
        {
          "indexed": false,
          "internalType": "uint256",
          "name": "prevMaxProtectionDelay",
          "type": "uint256"
        },
        {
          "indexed": false,
          "internalType": "uint256",
          "name": "newMaxProtectionDelay",
          "type": "uint256"
        }
      ],
      "name": "ProtectionDelaysUpdated",
      "type": "event"
    },
    {
      "anonymous": false,
      "inputs": [
        {
          "indexed": true,
          "internalType": "bytes32",
          "name": "role",
          "type": "bytes32"
        },
        {
          "indexed": true,
          "internalType": "bytes32",
          "name": "previousAdminRole",
          "type": "bytes32"
        },
        {
          "indexed": true,
          "internalType": "bytes32",
          "name": "newAdminRole",
          "type": "bytes32"
        }
      ],
      "name": "RoleAdminChanged",
      "type": "event"
    },
    {
      "anonymous": false,
      "inputs": [
        {
          "indexed": true,
          "internalType": "bytes32",
          "name": "role",
          "type": "bytes32"
        },
        {
          "indexed": true,
          "internalType": "address",
          "name": "account",
          "type": "address"
        },
        {
          "indexed": true,
          "internalType": "address",
          "name": "sender",
          "type": "address"
        }
      ],
      "name": "RoleGranted",
      "type": "event"
    },
    {
      "anonymous": false,
      "inputs": [
        {
          "indexed": true,
          "internalType": "bytes32",
          "name": "role",
          "type": "bytes32"
        },
        {
          "indexed": true,
          "internalType": "address",
          "name": "account",
          "type": "address"
        },
        {
          "indexed": true,
          "internalType": "address",
          "name": "sender",
          "type": "address"
        }
      ],
      "name": "RoleRevoked",
      "type": "event"
    },
    {
      "anonymous": false,
      "inputs": [
        {
          "indexed": true,
          "internalType": "contract ILiquidityProvisionEventsSubscriber",
          "name": "subscriber",
          "type": "address"
        },
        {
          "indexed": false,
          "internalType": "bool",
          "name": "added",
          "type": "bool"
        }
      ],
      "name": "SubscriberUpdated",
      "type": "event"
    },
    {
      "inputs": [],
      "name": "DEFAULT_ADMIN_ROLE",
      "outputs": [
        {
          "internalType": "bytes32",
          "name": "",
          "type": "bytes32"
        }
      ],
      "stateMutability": "view",
      "type": "function"
    },
    {
      "inputs": [],
      "name": "ROLE_OWNER",
      "outputs": [
        {
          "internalType": "bytes32",
          "name": "",
          "type": "bytes32"
        }
      ],
      "stateMutability": "view",
      "type": "function"
    },
    {
      "inputs": [],
      "name": "acceptOwnership",
      "outputs": [],
      "stateMutability": "nonpayable",
      "type": "function"
    },
    {
      "inputs": [
        {
          "internalType": "bytes32",
          "name": "role",
          "type": "bytes32"
        }
      ],
      "name": "getRoleAdmin",
      "outputs": [
        {
          "internalType": "bytes32",
          "name": "",
          "type": "bytes32"
        }
      ],
      "stateMutability": "view",
      "type": "function"
    },
    {
      "inputs": [
        {
          "internalType": "bytes32",
          "name": "role",
          "type": "bytes32"
        },
        {
          "internalType": "uint256",
          "name": "index",
          "type": "uint256"
        }
      ],
      "name": "getRoleMember",
      "outputs": [
        {
          "internalType": "address",
          "name": "",
          "type": "address"
        }
      ],
      "stateMutability": "view",
      "type": "function"
    },
    {
      "inputs": [
        {
          "internalType": "bytes32",
          "name": "role",
          "type": "bytes32"
        }
      ],
      "name": "getRoleMemberCount",
      "outputs": [
        {
          "internalType": "uint256",
          "name": "",
          "type": "uint256"
        }
      ],
      "stateMutability": "view",
      "type": "function"
    },
    {
      "inputs": [
        {
          "internalType": "bytes32",
          "name": "role",
          "type": "bytes32"
        },
        {
          "internalType": "address",
          "name": "account",
          "type": "address"
        }
      ],
      "name": "grantRole",
      "outputs": [],
      "stateMutability": "nonpayable",
      "type": "function"
    },
    {
      "inputs": [
        {
          "internalType": "bytes32",
          "name": "role",
          "type": "bytes32"
        },
        {
          "internalType": "address",
          "name": "account",
          "type": "address"
        }
      ],
      "name": "hasRole",
      "outputs": [
        {
          "internalType": "bool",
          "name": "",
          "type": "bool"
        }
      ],
      "stateMutability": "view",
      "type": "function"
    },
    {
      "inputs": [],
      "name": "newOwner",
      "outputs": [
        {
          "internalType": "address",
          "name": "",
          "type": "address"
        }
      ],
      "stateMutability": "view",
      "type": "function"
    },
    {
      "inputs": [],
      "name": "onlyOwnerCanUpdateRegistry",
      "outputs": [
        {
          "internalType": "bool",
          "name": "",
          "type": "bool"
        }
      ],
      "stateMutability": "view",
      "type": "function"
    },
    {
      "inputs": [],
      "name": "owner",
      "outputs": [
        {
          "internalType": "address",
          "name": "",
          "type": "address"
        }
      ],
      "stateMutability": "view",
      "type": "function"
    },
    {
      "inputs": [],
      "name": "prevRegistry",
      "outputs": [
        {
          "internalType": "contract IContractRegistry",
          "name": "",
          "type": "address"
        }
      ],
      "stateMutability": "view",
      "type": "function"
    },
    {
      "inputs": [],
      "name": "registry",
      "outputs": [
        {
          "internalType": "contract IContractRegistry",
          "name": "",
          "type": "address"
        }
      ],
      "stateMutability": "view",
      "type": "function"
    },
    {
      "inputs": [
        {
          "internalType": "bytes32",
          "name": "role",
          "type": "bytes32"
        },
        {
          "internalType": "address",
          "name": "account",
          "type": "address"
        }
      ],
      "name": "renounceRole",
      "outputs": [],
      "stateMutability": "nonpayable",
      "type": "function"
    },
    {
      "inputs": [],
      "name": "restoreRegistry",
      "outputs": [],
      "stateMutability": "nonpayable",
      "type": "function"
    },
    {
      "inputs": [
        {
          "internalType": "bool",
          "name": "_onlyOwnerCanUpdateRegistry",
          "type": "bool"
        }
      ],
      "name": "restrictRegistryUpdate",
      "outputs": [],
      "stateMutability": "nonpayable",
      "type": "function"
    },
    {
      "inputs": [
        {
          "internalType": "bytes32",
          "name": "role",
          "type": "bytes32"
        },
        {
          "internalType": "address",
          "name": "account",
          "type": "address"
        }
      ],
      "name": "revokeRole",
      "outputs": [],
      "stateMutability": "nonpayable",
      "type": "function"
    },
    {
      "inputs": [
        {
          "internalType": "address",
          "name": "_newOwner",
          "type": "address"
        }
      ],
      "name": "transferOwnership",
      "outputs": [],
      "stateMutability": "nonpayable",
      "type": "function"
    },
    {
      "inputs": [],
      "name": "updateRegistry",
      "outputs": [],
      "stateMutability": "nonpayable",
      "type": "function"
    },
    {
      "inputs": [],
      "name": "networkToken",
      "outputs": [
        {
          "internalType": "contract IERC20",
          "name": "",
          "type": "address"
        }
      ],
      "stateMutability": "view",
      "type": "function"
    },
    {
      "inputs": [],
      "name": "minNetworkTokenLiquidityForMinting",
      "outputs": [
        {
          "internalType": "uint256",
          "name": "",
          "type": "uint256"
        }
      ],
      "stateMutability": "view",
      "type": "function"
    },
    {
      "inputs": [],
      "name": "defaultNetworkTokenMintingLimit",
      "outputs": [
        {
          "internalType": "uint256",
          "name": "",
          "type": "uint256"
        }
      ],
      "stateMutability": "view",
      "type": "function"
    },
    {
      "inputs": [
        {
          "internalType": "contract IConverterAnchor",
          "name": "poolAnchor",
          "type": "address"
        }
      ],
      "name": "networkTokenMintingLimits",
      "outputs": [
        {
          "internalType": "uint256",
          "name": "",
          "type": "uint256"
        }
      ],
      "stateMutability": "view",
      "type": "function"
    },
    {
      "inputs": [
        {
          "internalType": "contract IConverterAnchor",
          "name": "poolAnchor",
          "type": "address"
        },
        {
          "internalType": "contract IReserveToken",
          "name": "reserveToken",
          "type": "address"
        }
      ],
      "name": "addLiquidityDisabled",
      "outputs": [
        {
          "internalType": "bool",
          "name": "",
          "type": "bool"
        }
      ],
      "stateMutability": "view",
      "type": "function"
    },
    {
      "inputs": [],
      "name": "minProtectionDelay",
      "outputs": [
        {
          "internalType": "uint256",
          "name": "",
          "type": "uint256"
        }
      ],
      "stateMutability": "view",
      "type": "function"
    },
    {
      "inputs": [],
      "name": "maxProtectionDelay",
      "outputs": [
        {
          "internalType": "uint256",
          "name": "",
          "type": "uint256"
        }
      ],
      "stateMutability": "view",
      "type": "function"
    },
    {
      "inputs": [],
      "name": "minNetworkCompensation",
      "outputs": [
        {
          "internalType": "uint256",
          "name": "",
          "type": "uint256"
        }
      ],
      "stateMutability": "view",
      "type": "function"
    },
    {
      "inputs": [],
      "name": "lockDuration",
      "outputs": [
        {
          "internalType": "uint256",
          "name": "",
          "type": "uint256"
        }
      ],
      "stateMutability": "view",
      "type": "function"
    },
    {
      "inputs": [],
      "name": "averageRateMaxDeviation",
      "outputs": [
        {
          "internalType": "uint32",
          "name": "",
          "type": "uint32"
        }
      ],
      "stateMutability": "view",
      "type": "function"
    },
    {
      "inputs": [
        {
          "internalType": "contract IConverterAnchor",
          "name": "poolAnchor",
          "type": "address"
        }
      ],
      "name": "addPoolToWhitelist",
      "outputs": [],
      "stateMutability": "nonpayable",
      "type": "function"
    },
    {
      "inputs": [
        {
          "internalType": "contract IConverterAnchor",
          "name": "poolAnchor",
          "type": "address"
        }
      ],
      "name": "removePoolFromWhitelist",
      "outputs": [],
      "stateMutability": "nonpayable",
      "type": "function"
    },
    {
      "inputs": [
        {
          "internalType": "contract IConverterAnchor",
          "name": "poolAnchor",
          "type": "address"
        }
      ],
      "name": "isPoolWhitelisted",
      "outputs": [
        {
          "internalType": "bool",
          "name": "",
          "type": "bool"
        }
      ],
      "stateMutability": "view",
      "type": "function"
    },
    {
      "inputs": [],
      "name": "poolWhitelist",
      "outputs": [
        {
          "internalType": "address[]",
          "name": "",
          "type": "address[]"
        }
      ],
      "stateMutability": "view",
      "type": "function"
    },
    {
      "inputs": [
        {
          "internalType": "contract ILiquidityProvisionEventsSubscriber",
          "name": "subscriber",
          "type": "address"
        }
      ],
      "name": "addSubscriber",
      "outputs": [],
      "stateMutability": "nonpayable",
      "type": "function"
    },
    {
      "inputs": [
        {
          "internalType": "contract ILiquidityProvisionEventsSubscriber",
          "name": "subscriber",
          "type": "address"
        }
      ],
      "name": "removeSubscriber",
      "outputs": [],
      "stateMutability": "nonpayable",
      "type": "function"
    },
    {
      "inputs": [],
      "name": "subscribers",
      "outputs": [
        {
          "internalType": "address[]",
          "name": "",
          "type": "address[]"
        }
      ],
      "stateMutability": "view",
      "type": "function"
    },
    {
      "inputs": [
        {
          "internalType": "uint256",
          "name": "amount",
          "type": "uint256"
        }
      ],
      "name": "setMinNetworkTokenLiquidityForMinting",
      "outputs": [],
      "stateMutability": "nonpayable",
      "type": "function"
    },
    {
      "inputs": [
        {
          "internalType": "uint256",
          "name": "amount",
          "type": "uint256"
        }
      ],
      "name": "setDefaultNetworkTokenMintingLimit",
      "outputs": [],
      "stateMutability": "nonpayable",
      "type": "function"
    },
    {
      "inputs": [
        {
          "internalType": "contract IConverterAnchor",
          "name": "poolAnchor",
          "type": "address"
        },
        {
          "internalType": "uint256",
          "name": "amount",
          "type": "uint256"
        }
      ],
      "name": "setNetworkTokenMintingLimit",
      "outputs": [],
      "stateMutability": "nonpayable",
      "type": "function"
    },
    {
      "inputs": [
        {
          "internalType": "uint256",
          "name": "minDelay",
          "type": "uint256"
        },
        {
          "internalType": "uint256",
          "name": "maxDelay",
          "type": "uint256"
        }
      ],
      "name": "setProtectionDelays",
      "outputs": [],
      "stateMutability": "nonpayable",
      "type": "function"
    },
    {
      "inputs": [
        {
          "internalType": "uint256",
          "name": "amount",
          "type": "uint256"
        }
      ],
      "name": "setMinNetworkCompensation",
      "outputs": [],
      "stateMutability": "nonpayable",
      "type": "function"
    },
    {
      "inputs": [
        {
          "internalType": "uint256",
          "name": "duration",
          "type": "uint256"
        }
      ],
      "name": "setLockDuration",
      "outputs": [],
      "stateMutability": "nonpayable",
      "type": "function"
    },
    {
      "inputs": [
        {
          "internalType": "uint32",
          "name": "deviation",
          "type": "uint32"
        }
      ],
      "name": "setAverageRateMaxDeviation",
      "outputs": [],
      "stateMutability": "nonpayable",
      "type": "function"
    },
    {
      "inputs": [
        {
          "internalType": "contract IConverterAnchor",
          "name": "poolAnchor",
          "type": "address"
        },
        {
          "internalType": "contract IReserveToken",
          "name": "reserveToken",
          "type": "address"
        },
        {
          "internalType": "bool",
          "name": "disable",
          "type": "bool"
        }
      ],
      "name": "disableAddLiquidity",
      "outputs": [],
      "stateMutability": "nonpayable",
      "type": "function"
    },
    {
      "inputs": [
        {
          "internalType": "contract IConverterAnchor",
          "name": "poolAnchor",
          "type": "address"
        }
      ],
      "name": "isPoolSupported",
      "outputs": [
        {
          "internalType": "bool",
          "name": "",
          "type": "bool"
        }
      ],
      "stateMutability": "view",
      "type": "function"
    }
  ],
  "bytecode": "0x60a0604052683635c9adc5dea0000060095569043c33c1937564800000600a5562278d00600d556283d600600e55662386f26fc10000600f5562015180601055611388601160006101000a81548163ffffffff021916908363ffffffff1602179055503480156200006f57600080fd5b506040516200375c3803806200375c833981810160405260408110156200009557600080fd5b8101908080519060200190929190805190602001909291905050508033600160006101000a81548173ffffffffffffffffffffffffffffffffffffffff021916908373ffffffffffffffffffffffffffffffffffffffff1602179055508062000104816200023e60201b60201c565b81600360006101000a81548173ffffffffffffffffffffffffffffffffffffffff021916908373ffffffffffffffffffffffffffffffffffffffff16021790555081600460006101000a81548173ffffffffffffffffffffffffffffffffffffffff021916908373ffffffffffffffffffffffffffffffffffffffff1602179055505050816200019a81620002e560201b60201c565b620001cc7f9f4e1c871d5fdd0aee1cd182666698a4492b24c6832aac230d07b11046af5a8980620003c560201b60201c565b620001fe7f9f4e1c871d5fdd0aee1cd182666698a4492b24c6832aac230d07b11046af5a89336200042760201b60201c565b8273ffffffffffffffffffffffffffffffffffffffff1660808173ffffffffffffffffffffffffffffffffffffffff1660601b81525050505050620005bd565b600073ffffffffffffffffffffffffffffffffffffffff168173ffffffffffffffffffffffffffffffffffffffff161415620002e2576040517f08c379a00000000000000000000000000000000000000000000000000000000081526004018080602001828103825260138152602001807f4552525f494e56414c49445f414444524553530000000000000000000000000081525060200191505060405180910390fd5b50565b600073ffffffffffffffffffffffffffffffffffffffff168173ffffffffffffffffffffffffffffffffffffffff16141580156200034f57503073ffffffffffffffffffffffffffffffffffffffff168173ffffffffffffffffffffffffffffffffffffffff1614155b620003c2576040517f08c379a000000000000000000000000000000000000000000000000000000000815260040180806020018281038252601c8152602001807f4552525f494e56414c49445f45585445524e414c5f414444524553530000000081525060200191505060405180910390fd5b50565b8060008084815260200190815260200160002060020154837fbd79b86ffe0ab8e8776151514217cd7cacd52c909f66475c3af44e129f0b00ff60405160405180910390a480600080848152602001908152602001600020600201819055505050565b6200043982826200043d60201b60201c565b5050565b6200046b81600080858152602001908152602001600020600001620004e060201b6200272d1790919060201c565b15620004dc57620004816200051860201b60201c565b73ffffffffffffffffffffffffffffffffffffffff168173ffffffffffffffffffffffffffffffffffffffff16837f2f8788117e7eff1d82e926ec794901d17c78024a50270940304540a733656f0d60405160405180910390a45b5050565b600062000510836000018373ffffffffffffffffffffffffffffffffffffffff1660001b6200052060201b60201c565b905092915050565b600033905090565b60006200053483836200059a60201b60201c565b6200058f57826000018290806001815401808255809150506001900390600052602060002001600090919091909150558260000180549050836001016000848152602001908152602001600020819055506001905062000594565b600090505b92915050565b600080836001016000848152602001908152602001600020541415905092915050565b60805160601c61317c620005e06000398061170c5280612d56525061317c6000f3fe608060405234801561001057600080fd5b506004361061027f5760003560e01c80638da5cb5b1161015c578063b4a176d3116100ce578063d4f6314811610087578063d4f6314814610b11578063d547741f14610b6b578063db8ac95a14610bb9578063ef43963414610be7578063f2fde38b14610c15578063f89ae87e14610c595761027f565b8063b4a176d314610a21578063b5768e0e14610a2b578063b97b55ce14610a5f578063ca15c87314610a7d578063ce3f3adb14610abf578063d4ee1d9014610add5761027f565b80639afc6b26116101205780639afc6b26146108905780639e2ce9d2146108c85780639e571a6a14610927578063a217fddf146109a1578063a80c76ff146109bf578063ab99c651146109dd5761027f565b80638da5cb5b146106fa5780639010d07c1461072e57806391d1485414610790578063943fd08a146107f457806394555d1a1461084c5761027f565b806336568abe116101f557806361cd756e116101b957806361cd756e146105f2578063627c34ad146106265780636ca95a4e1461066a57806379ba50971461069e5780637b103999146106a85780638ad682af146106dc5761027f565b806336568abe146104ce57806343cf828d1461051c57806347bfe2e41461058c57806349d10b64146105ba5780634eb665af146105c45761027f565b8063248a9ca311610247578063248a9ca31461038257806324a08868146103c45780632b26a982146103e85780632c560f89146104425780632f2ff15d146104605780632fe8a6ad146104ae5761027f565b8063024c7ec71461028457806304554443146102b457806312588d0e146102d25780631b26d753146102f057806321efd30a14610334575b600080fd5b6102b26004803603602081101561029a57600080fd5b81019080803515159060200190929190505050610cb8565b005b6102bc610cdd565b6040518082815260200191505060405180910390f35b6102da610ce7565b6040518082815260200191505060405180910390f35b6103326004803603602081101561030657600080fd5b81019080803573ffffffffffffffffffffffffffffffffffffffff169060200190929190505050610cf1565b005b6103806004803603604081101561034a57600080fd5b81019080803573ffffffffffffffffffffffffffffffffffffffff16906020019092919080359060200190929190505050610dd3565b005b6103ae6004803603602081101561039857600080fd5b8101908080359060200190929190505050610ec3565b6040518082815260200191505060405180910390f35b6103cc610ee2565b604051808263ffffffff16815260200191505060405180910390f35b61042a600480360360208110156103fe57600080fd5b81019080803573ffffffffffffffffffffffffffffffffffffffff169060200190929190505050610efc565b60405180821515815260200191505060405180910390f35b61044a610f19565b6040518082815260200191505060405180910390f35b6104ac6004803603604081101561047657600080fd5b8101908080359060200190929190803573ffffffffffffffffffffffffffffffffffffffff169060200190929190505050610f23565b005b6104b6610fac565b60405180821515815260200191505060405180910390f35b61051a600480360360408110156104e457600080fd5b8101908080359060200190929190803573ffffffffffffffffffffffffffffffffffffffff169060200190929190505050610fbf565b005b61058a6004803603606081101561053257600080fd5b81019080803573ffffffffffffffffffffffffffffffffffffffff169060200190929190803573ffffffffffffffffffffffffffffffffffffffff169060200190929190803515159060200190929190505050611058565b005b6105b8600480360360208110156105a257600080fd5b8101908080359060200190929190505050611160565b005b6105c26111b3565b005b6105f0600480360360208110156105da57600080fd5b81019080803590602001909291905050506115ad565b005b6105fa611600565b604051808273ffffffffffffffffffffffffffffffffffffffff16815260200191505060405180910390f35b6106686004803603602081101561063c57600080fd5b81019080803573ffffffffffffffffffffffffffffffffffffffff169060200190929190505050611626565b005b610672611708565b604051808273ffffffffffffffffffffffffffffffffffffffff16815260200191505060405180910390f35b6106a6611730565b005b6106b0611938565b604051808273ffffffffffffffffffffffffffffffffffffffff16815260200191505060405180910390f35b6106e461195e565b6040518082815260200191505060405180910390f35b610702611982565b604051808273ffffffffffffffffffffffffffffffffffffffff16815260200191505060405180910390f35b6107646004803603604081101561074457600080fd5b8101908080359060200190929190803590602001909291905050506119a8565b604051808273ffffffffffffffffffffffffffffffffffffffff16815260200191505060405180910390f35b6107dc600480360360408110156107a657600080fd5b8101908080359060200190929190803573ffffffffffffffffffffffffffffffffffffffff1690602001909291905050506119d9565b60405180821515815260200191505060405180910390f35b6108366004803603602081101561080a57600080fd5b81019080803573ffffffffffffffffffffffffffffffffffffffff169060200190929190505050611a0a565b6040518082815260200191505060405180910390f35b61088e6004803603602081101561086257600080fd5b81019080803573ffffffffffffffffffffffffffffffffffffffff169060200190929190505050611a53565b005b6108c6600480360360408110156108a657600080fd5b810190808035906020019092919080359060200190929190505050611b40565b005b6108d0611c22565b6040518080602001828103825283818151815260200191508051906020019060200280838360005b838110156109135780820151818401526020810190506108f8565b505050509050019250505060405180910390f35b6109896004803603604081101561093d57600080fd5b81019080803573ffffffffffffffffffffffffffffffffffffffff169060200190929190803573ffffffffffffffffffffffffffffffffffffffff169060200190929190505050611cf8565b60405180821515815260200191505060405180910390f35b6109a9611d8c565b6040518082815260200191505060405180910390f35b6109c7611d93565b6040518082815260200191505060405180910390f35b610a1f600480360360208110156109f357600080fd5b81019080803573ffffffffffffffffffffffffffffffffffffffff169060200190929190505050611d9d565b005b610a29611e8a565b005b610a5d60048036036020811015610a4157600080fd5b81019080803563ffffffff169060200190929190505050611ef7565b005b610a67611f8b565b6040518082815260200191505060405180910390f35b610aa960048036036020811015610a9357600080fd5b8101908080359060200190929190505050611f95565b6040518082815260200191505060405180910390f35b610ac7611fbb565b6040518082815260200191505060405180910390f35b610ae5611fc5565b604051808273ffffffffffffffffffffffffffffffffffffffff16815260200191505060405180910390f35b610b5360048036036020811015610b2757600080fd5b81019080803573ffffffffffffffffffffffffffffffffffffffff169060200190929190505050611feb565b60405180821515815260200191505060405180910390f35b610bb760048036036040811015610b8157600080fd5b8101908080359060200190929190803573ffffffffffffffffffffffffffffffffffffffff169060200190929190505050612418565b005b610be560048036036020811015610bcf57600080fd5b81019080803590602001909291905050506124a1565b005b610c1360048036036020811015610bfd57600080fd5b81019080803590602001909291905050506124f4565b005b610c5760048036036020811015610c2b57600080fd5b81019080803573ffffffffffffffffffffffffffffffffffffffff169060200190929190505050612547565b005b610c61612657565b6040518080602001828103825283818151815260200191508051906020019060200280838360005b83811015610ca4578082015181840152602081019050610c89565b505050509050019250505060405180910390f35b610cc061275d565b80600460146101000a81548160ff02191690831515021790555050565b6000601054905090565b6000600954905090565b610cf9612822565b610d0d8160056128c090919063ffffffff16565b610d7f576040517f08c379a00000000000000000000000000000000000000000000000000000000081526004018080602001828103825260188152602001807f4552525f504f4f4c5f4e4f545f57484954454c4953544544000000000000000081525060200191505060405180910390fd5b8073ffffffffffffffffffffffffffffffffffffffff167fb7acd3c0ece90b3e568f5796fdf644dd4f98535f18b425552d5920e7f82af3e4600060405180821515815260200191505060405180910390a250565b610ddb612822565b81610de5816128f0565b8273ffffffffffffffffffffffffffffffffffffffff167f52e7a4b26db9c77dcae6378bbc9b06698f8d68b745d6ede13e6b228231fa42cd600b60008673ffffffffffffffffffffffffffffffffffffffff1673ffffffffffffffffffffffffffffffffffffffff1681526020019081526020016000205484604051808381526020018281526020019250505060405180910390a281600b60008573ffffffffffffffffffffffffffffffffffffffff1673ffffffffffffffffffffffffffffffffffffffff16815260200190815260200160002081905550505050565b6000806000838152602001908152602001600020600201549050919050565b6000601160009054906101000a900463ffffffff16905090565b6000610f1282600561299690919063ffffffff16565b9050919050565b6000600d54905090565b610f4960008084815260200190815260200160002060020154610f446129c6565b6119d9565b610f9e576040517f08c379a000000000000000000000000000000000000000000000000000000000815260040180806020018281038252602f8152602001806130b9602f913960400191505060405180910390fd5b610fa882826129ce565b5050565b600460149054906101000a900460ff1681565b610fc76129c6565b73ffffffffffffffffffffffffffffffffffffffff168173ffffffffffffffffffffffffffffffffffffffff161461104a576040517f08c379a000000000000000000000000000000000000000000000000000000000815260040180806020018281038252602f815260200180613118602f913960400191505060405180910390fd5b6110548282612a61565b5050565b611060612822565b8173ffffffffffffffffffffffffffffffffffffffff168373ffffffffffffffffffffffffffffffffffffffff167fd103a879486ba900e0dccd4c5d6058fca83cc4b94e320eb48ddcdf4beedfb54b8360405180821515815260200191505060405180910390a380600c60008573ffffffffffffffffffffffffffffffffffffffff1673ffffffffffffffffffffffffffffffffffffffff16815260200190815260200160002060008473ffffffffffffffffffffffffffffffffffffffff1673ffffffffffffffffffffffffffffffffffffffff16815260200190815260200160002060006101000a81548160ff021916908315150217905550505050565b611168612822565b7fff80bfa16436dbb8ee89d8804f78196e9b48c9f0f55490e8e41a8cb3ef15b0c3600f5482604051808381526020018281526020019250505060405180910390a180600f8190555050565b600160009054906101000a900473ffffffffffffffffffffffffffffffffffffffff1673ffffffffffffffffffffffffffffffffffffffff163373ffffffffffffffffffffffffffffffffffffffff16148061121c5750600460149054906101000a900460ff16155b61128e576040517f08c379a00000000000000000000000000000000000000000000000000000000081526004018080602001828103825260118152602001807f4552525f4143434553535f44454e49454400000000000000000000000000000081525060200191505060405180910390fd5b60006112b97f436f6e7472616374526567697374727900000000000000000000000000000000612af4565b9050600360009054906101000a900473ffffffffffffffffffffffffffffffffffffffff1673ffffffffffffffffffffffffffffffffffffffff168173ffffffffffffffffffffffffffffffffffffffff16141580156113465750600073ffffffffffffffffffffffffffffffffffffffff168173ffffffffffffffffffffffffffffffffffffffff1614155b6113b8576040517f08c379a00000000000000000000000000000000000000000000000000000000081526004018080602001828103825260148152602001807f4552525f494e56414c49445f524547495354525900000000000000000000000081525060200191505060405180910390fd5b600073ffffffffffffffffffffffffffffffffffffffff168173ffffffffffffffffffffffffffffffffffffffff1663bb34534c7f436f6e74726163745265676973747279000000000000000000000000000000006040518263ffffffff1660e01b81526004018082815260200191505060206040518083038186803b15801561144157600080fd5b505afa158015611455573d6000803e3d6000fd5b505050506040513d602081101561146b57600080fd5b810190808051906020019092919050505073ffffffffffffffffffffffffffffffffffffffff161415611506576040517f08c379a00000000000000000000000000000000000000000000000000000000081526004018080602001828103825260148152602001807f4552525f494e56414c49445f524547495354525900000000000000000000000081525060200191505060405180910390fd5b600360009054906101000a900473ffffffffffffffffffffffffffffffffffffffff16600460006101000a81548173ffffffffffffffffffffffffffffffffffffffff021916908373ffffffffffffffffffffffffffffffffffffffff16021790555080600360006101000a81548173ffffffffffffffffffffffffffffffffffffffff021916908373ffffffffffffffffffffffffffffffffffffffff16021790555050565b6115b5612822565b7f960da93dd9b69d9002b820a04d4dba66c8e69ce03fc13fcf89429fadd93607c860105482604051808381526020018281526020019250505060405180910390a18060108190555050565b600460009054906101000a900473ffffffffffffffffffffffffffffffffffffffff1681565b61162e612822565b6116428160076128c090919063ffffffff16565b6116b4576040517f08c379a00000000000000000000000000000000000000000000000000000000081526004018080602001828103825260168152602001807f4552525f494e56414c49445f535542534352494245520000000000000000000081525060200191505060405180910390fd5b8073ffffffffffffffffffffffffffffffffffffffff167f814e8056440719db4ef836304a4dbd1a8c79f49052e04433fbb679c3fdfa6698600060405180821515815260200191505060405180910390a250565b60007f0000000000000000000000000000000000000000000000000000000000000000905090565b600260009054906101000a900473ffffffffffffffffffffffffffffffffffffffff1673ffffffffffffffffffffffffffffffffffffffff163373ffffffffffffffffffffffffffffffffffffffff16146117f3576040517f08c379a00000000000000000000000000000000000000000000000000000000081526004018080602001828103825260118152602001807f4552525f4143434553535f44454e49454400000000000000000000000000000081525060200191505060405180910390fd5b600260009054906101000a900473ffffffffffffffffffffffffffffffffffffffff1673ffffffffffffffffffffffffffffffffffffffff16600160009054906101000a900473ffffffffffffffffffffffffffffffffffffffff1673ffffffffffffffffffffffffffffffffffffffff167f343765429aea5a34b3ff6a3785a98a5abb2597aca87bfbb58632c173d585373a60405160405180910390a3600260009054906101000a900473ffffffffffffffffffffffffffffffffffffffff16600160006101000a81548173ffffffffffffffffffffffffffffffffffffffff021916908373ffffffffffffffffffffffffffffffffffffffff1602179055506000600260006101000a81548173ffffffffffffffffffffffffffffffffffffffff021916908373ffffffffffffffffffffffffffffffffffffffff160217905550565b600360009054906101000a900473ffffffffffffffffffffffffffffffffffffffff1681565b7f9f4e1c871d5fdd0aee1cd182666698a4492b24c6832aac230d07b11046af5a8981565b600160009054906101000a900473ffffffffffffffffffffffffffffffffffffffff1681565b60006119d182600080868152602001908152602001600020600001612bab90919063ffffffff16565b905092915050565b6000611a028260008086815260200190815260200160002060000161299690919063ffffffff16565b905092915050565b6000600b60008373ffffffffffffffffffffffffffffffffffffffff1673ffffffffffffffffffffffffffffffffffffffff168152602001908152602001600020549050919050565b611a5b612822565b80611a6581612bc5565b611a7982600761272d90919063ffffffff16565b611aeb576040517f08c379a000000000000000000000000000000000000000000000000000000000815260040180806020018281038252601a8152602001807f4552525f535542534352494245525f414c52454144595f53455400000000000081525060200191505060405180910390fd5b8173ffffffffffffffffffffffffffffffffffffffff167f814e8056440719db4ef836304a4dbd1a8c79f49052e04433fbb679c3fdfa6698600160405180821515815260200191505060405180910390a25050565b611b48612822565b808210611bbd576040517f08c379a000000000000000000000000000000000000000000000000000000000815260040180806020018281038252601c8152602001807f4552525f494e56414c49445f50524f54454354494f4e5f44454c41590000000081525060200191505060405180910390fd5b7f635ce4d6b41e8ffd69a74f8ab405dff0328384161ea5fb70c3041dc9943f0e40600d5483600e54846040518085815260200184815260200183815260200182815260200194505050505060405180910390a181600d8190555080600e819055505050565b60606000611c306007612ca3565b905060608167ffffffffffffffff81118015611c4b57600080fd5b50604051908082528060200260200182016040528015611c7a5781602001602082028036833780820191505090505b50905060005b82811015611cef57611c9c816007612bab90919063ffffffff16565b828281518110611ca857fe5b602002602001019073ffffffffffffffffffffffffffffffffffffffff16908173ffffffffffffffffffffffffffffffffffffffff16815250508080600101915050611c80565b50809250505090565b6000600c60008473ffffffffffffffffffffffffffffffffffffffff1673ffffffffffffffffffffffffffffffffffffffff16815260200190815260200160002060008373ffffffffffffffffffffffffffffffffffffffff1673ffffffffffffffffffffffffffffffffffffffff16815260200190815260200160002060009054906101000a900460ff16905092915050565b6000801b81565b6000600f54905090565b611da5612822565b80611daf81612bc5565b611dc382600561272d90919063ffffffff16565b611e35576040517f08c379a000000000000000000000000000000000000000000000000000000000815260040180806020018281038252601c8152602001807f4552525f504f4f4c5f414c52454144595f57484954454c49535445440000000081525060200191505060405180910390fd5b8173ffffffffffffffffffffffffffffffffffffffff167fb7acd3c0ece90b3e568f5796fdf644dd4f98535f18b425552d5920e7f82af3e4600160405180821515815260200191505060405180910390a25050565b611e9261275d565b600460009054906101000a900473ffffffffffffffffffffffffffffffffffffffff16600360006101000a81548173ffffffffffffffffffffffffffffffffffffffff021916908373ffffffffffffffffffffffffffffffffffffffff160217905550565b611eff612822565b80611f0981612cb8565b7fd454d862256f659afda88568899fdc348a2ca310726f7e1abd701884990d5d5f601160009054906101000a900463ffffffff1683604051808363ffffffff1681526020018263ffffffff1681526020019250505060405180910390a181601160006101000a81548163ffffffff021916908363ffffffff1602179055505050565b6000600a54905090565b6000611fb4600080848152602001908152602001600020600001612ca3565b9050919050565b6000600e54905090565b600260009054906101000a900473ffffffffffffffffffffffffffffffffffffffff1681565b6000806120177f42616e636f72436f6e7665727465725265676973747279000000000000000000612af4565b90508073ffffffffffffffffffffffffffffffffffffffff1663d8cced2a846040518263ffffffff1660e01b8152600401808273ffffffffffffffffffffffffffffffffffffffff16815260200191505060206040518083038186803b15801561208057600080fd5b505afa158015612094573d6000803e3d6000fd5b505050506040513d60208110156120aa57600080fd5b810190808051906020019092919050505061212d576040517f08c379a00000000000000000000000000000000000000000000000000000000081526004018080602001828103825260128152602001807f4552525f494e56414c49445f414e43484f52000000000000000000000000000081525060200191505060405180910390fd5b60008373ffffffffffffffffffffffffffffffffffffffff16638da5cb5b6040518163ffffffff1660e01b815260040160206040518083038186803b15801561217557600080fd5b505afa158015612189573d6000803e3d6000fd5b505050506040513d602081101561219f57600080fd5b8101908080519060200190929190505050905060028173ffffffffffffffffffffffffffffffffffffffff166371f52bf36040518163ffffffff1660e01b815260040160206040518083038186803b1580156121fa57600080fd5b505afa15801561220e573d6000803e3d6000fd5b505050506040513d602081101561222457600080fd5b810190808051906020019092919050505061ffff161461224957600092505050612413565b60008173ffffffffffffffffffffffffffffffffffffffff166319b6401560006040518263ffffffff1660e01b81526004018082815260200191505060206040518083038186803b15801561229d57600080fd5b505afa1580156122b1573d6000803e3d6000fd5b505050506040513d60208110156122c757600080fd5b8101908080519060200190929190505050905060008273ffffffffffffffffffffffffffffffffffffffff166319b6401560016040518263ffffffff1660e01b81526004018082815260200191505060206040518083038186803b15801561232e57600080fd5b505afa158015612342573d6000803e3d6000fd5b505050506040513d602081101561235857600080fd5b8101908080519060200190929190505050905061237482612d52565b158015612387575061238581612d52565b155b15612399576000945050505050612413565b6002620f424063ffffffff16816123ac57fe5b0463ffffffff166123bd8484612daa565b63ffffffff161415806123f857506002620f424063ffffffff16816123de57fe5b0463ffffffff166123ef8483612daa565b63ffffffff1614155b1561240a576000945050505050612413565b60019450505050505b919050565b61243e600080848152602001908152602001600020600201546124396129c6565b6119d9565b612493576040517f08c379a00000000000000000000000000000000000000000000000000000000081526004018080602001828103825260308152602001806130e86030913960400191505060405180910390fd5b61249d8282612a61565b5050565b6124a9612822565b7f5a99968e3e63af857ff70564d9804774b0ad158a5ef8cbc5ef452733d063d00560095482604051808381526020018281526020019250505060405180910390a18060098190555050565b6124fc612822565b7faa79d0332376731d9c08954a25227f4e9b64483c2ba9234ebddf7143b092dc6c600a5482604051808381526020018281526020019250505060405180910390a180600a8190555050565b61254f61275d565b600160009054906101000a900473ffffffffffffffffffffffffffffffffffffffff1673ffffffffffffffffffffffffffffffffffffffff168173ffffffffffffffffffffffffffffffffffffffff161415612613576040517f08c379a000000000000000000000000000000000000000000000000000000000815260040180806020018281038252600e8152602001807f4552525f53414d455f4f574e455200000000000000000000000000000000000081525060200191505060405180910390fd5b80600260006101000a81548173ffffffffffffffffffffffffffffffffffffffff021916908373ffffffffffffffffffffffffffffffffffffffff16021790555050565b606060006126656005612ca3565b905060608167ffffffffffffffff8111801561268057600080fd5b506040519080825280602002602001820160405280156126af5781602001602082028036833780820191505090505b50905060005b82811015612724576126d1816005612bab90919063ffffffff16565b8282815181106126dd57fe5b602002602001019073ffffffffffffffffffffffffffffffffffffffff16908173ffffffffffffffffffffffffffffffffffffffff168152505080806001019150506126b5565b50809250505090565b6000612755836000018373ffffffffffffffffffffffffffffffffffffffff1660001b612e87565b905092915050565b600160009054906101000a900473ffffffffffffffffffffffffffffffffffffffff1673ffffffffffffffffffffffffffffffffffffffff163373ffffffffffffffffffffffffffffffffffffffff1614612820576040517f08c379a00000000000000000000000000000000000000000000000000000000081526004018080602001828103825260118152602001807f4552525f4143434553535f44454e49454400000000000000000000000000000081525060200191505060405180910390fd5b565b61284c7f9f4e1c871d5fdd0aee1cd182666698a4492b24c6832aac230d07b11046af5a89336119d9565b6128be576040517f08c379a00000000000000000000000000000000000000000000000000000000081526004018080602001828103825260118152602001807f4552525f4143434553535f44454e49454400000000000000000000000000000081525060200191505060405180910390fd5b565b60006128e8836000018373ffffffffffffffffffffffffffffffffffffffff1660001b612ef7565b905092915050565b600073ffffffffffffffffffffffffffffffffffffffff168173ffffffffffffffffffffffffffffffffffffffff161415612993576040517f08c379a00000000000000000000000000000000000000000000000000000000081526004018080602001828103825260138152602001807f4552525f494e56414c49445f414444524553530000000000000000000000000081525060200191505060405180910390fd5b50565b60006129be836000018373ffffffffffffffffffffffffffffffffffffffff1660001b612fdf565b905092915050565b600033905090565b6129f58160008085815260200190815260200160002060000161272d90919063ffffffff16565b15612a5d57612a026129c6565b73ffffffffffffffffffffffffffffffffffffffff168173ffffffffffffffffffffffffffffffffffffffff16837f2f8788117e7eff1d82e926ec794901d17c78024a50270940304540a733656f0d60405160405180910390a45b5050565b612a88816000808581526020019081526020016000206000016128c090919063ffffffff16565b15612af057612a956129c6565b73ffffffffffffffffffffffffffffffffffffffff168173ffffffffffffffffffffffffffffffffffffffff16837ff6391f5c32d9c69d2a47ea670b442974b53935d1edc7fd64eb21e047a839171b60405160405180910390a45b5050565b6000600360009054906101000a900473ffffffffffffffffffffffffffffffffffffffff1673ffffffffffffffffffffffffffffffffffffffff1663bb34534c836040518263ffffffff1660e01b81526004018082815260200191505060206040518083038186803b158015612b6957600080fd5b505afa158015612b7d573d6000803e3d6000fd5b505050506040513d6020811015612b9357600080fd5b81019080805190602001909291905050509050919050565b6000612bba8360000183613002565b60001c905092915050565b600073ffffffffffffffffffffffffffffffffffffffff168173ffffffffffffffffffffffffffffffffffffffff1614158015612c2e57503073ffffffffffffffffffffffffffffffffffffffff168173ffffffffffffffffffffffffffffffffffffffff1614155b612ca0576040517f08c379a000000000000000000000000000000000000000000000000000000000815260040180806020018281038252601c8152602001807f4552525f494e56414c49445f45585445524e414c5f414444524553530000000081525060200191505060405180910390fd5b50565b6000612cb182600001613085565b9050919050565b60008163ffffffff16118015612cdd5750620f424063ffffffff168163ffffffff1611155b612d4f576040517f08c379a00000000000000000000000000000000000000000000000000000000081526004018080602001828103825260138152602001807f4552525f494e56414c49445f504f5254494f4e0000000000000000000000000081525060200191505060405180910390fd5b50565b60007f000000000000000000000000000000000000000000000000000000000000000073ffffffffffffffffffffffffffffffffffffffff168273ffffffffffffffffffffffffffffffffffffffff16149050919050565b6000808373ffffffffffffffffffffffffffffffffffffffff16630e53aae9846040518263ffffffff1660e01b8152600401808273ffffffffffffffffffffffffffffffffffffffff16815260200191505060a06040518083038186803b158015612e1457600080fd5b505afa158015612e28573d6000803e3d6000fd5b505050506040513d60a0811015612e3e57600080fd5b8101908080519060200190929190805190602001909291908051906020019092919080519060200190929190805190602001909291905050505050509150508091505092915050565b6000612e938383612fdf565b612eec578260000182908060018154018082558091505060019003906000526020600020016000909190919091505582600001805490508360010160008481526020019081526020016000208190555060019050612ef1565b600090505b92915050565b60008083600101600084815260200190815260200160002054905060008114612fd35760006001820390506000600186600001805490500390506000866000018281548110612f4257fe5b9060005260206000200154905080876000018481548110612f5f57fe5b9060005260206000200181905550600183018760010160008381526020019081526020016000208190555086600001805480612f9757fe5b60019003818190600052602060002001600090559055866001016000878152602001908152602001600020600090556001945050505050612fd9565b60009150505b92915050565b600080836001016000848152602001908152602001600020541415905092915050565b600081836000018054905011613063576040517f08c379a00000000000000000000000000000000000000000000000000000000081526004018080602001828103825260228152602001806130976022913960400191505060405180910390fd5b82600001828154811061307257fe5b9060005260206000200154905092915050565b60008160000180549050905091905056fe456e756d657261626c655365743a20696e646578206f7574206f6620626f756e6473416363657373436f6e74726f6c3a2073656e646572206d75737420626520616e2061646d696e20746f206772616e74416363657373436f6e74726f6c3a2073656e646572206d75737420626520616e2061646d696e20746f207265766f6b65416363657373436f6e74726f6c3a2063616e206f6e6c792072656e6f756e636520726f6c657320666f722073656c66a2646970667358221220b8cc3c08ca6fff35bfa4680d65423a0f3e29ef35d52203fc4de150976606292a64736f6c634300060c0033",
  "immutableReferences": {
    "27256": [
      {
        "length": 32,
        "start": 5900
      },
      {
        "length": 32,
        "start": 11606
      }
    ]
  },
  "source": "// SPDX-License-Identifier: SEE LICENSE IN LICENSE\npragma solidity 0.6.12;\n\nimport \"@openzeppelin/contracts/math/SafeMath.sol\";\nimport \"@openzeppelin/contracts/access/AccessControl.sol\";\nimport \"@openzeppelin/contracts/utils/EnumerableSet.sol\";\n\nimport \"./interfaces/ILiquidityProtectionSettings.sol\";\nimport \"../converter/interfaces/IConverter.sol\";\nimport \"../converter/interfaces/IConverterRegistry.sol\";\nimport \"../utility/ContractRegistryClient.sol\";\nimport \"../utility/Utils.sol\";\n\n/**\n * @dev Liquidity Protection Settings contract\n */\ncontract LiquidityProtectionSettings is ILiquidityProtectionSettings, AccessControl, ContractRegistryClient {\n    using SafeMath for uint256;\n    using EnumerableSet for EnumerableSet.AddressSet;\n\n    // the owner role is used to update the settings\n    bytes32 public constant ROLE_OWNER = keccak256(\"ROLE_OWNER\");\n\n    IERC20 private immutable _networkToken;\n\n    // list of whitelisted pools\n    EnumerableSet.AddressSet private _poolWhitelist;\n\n    // list of subscribers\n    EnumerableSet.AddressSet private _subscribers;\n\n    // network token minting limits\n    uint256 private _minNetworkTokenLiquidityForMinting = 1000e18;\n    uint256 private _defaultNetworkTokenMintingLimit = 20000e18;\n    mapping(IConverterAnchor => uint256) private _networkTokenMintingLimits;\n\n    // permission of adding liquidity for a given reserve on a given pool\n    mapping(IConverterAnchor => mapping(IReserveToken => bool)) private _addLiquidityDisabled;\n\n    // number of seconds until any protection is in effect\n    uint256 private _minProtectionDelay = 30 days;\n\n    // number of seconds until full protection is in effect\n    uint256 private _maxProtectionDelay = 100 days;\n\n    // minimum amount of network tokens that the system can mint as compensation for base token losses\n    uint256 private _minNetworkCompensation = 1e16; // = 0.01 network tokens\n\n    // number of seconds from liquidation to full network token release\n    uint256 private _lockDuration = 24 hours;\n\n    // maximum deviation of the average rate from the spot rate\n    uint32 private _averageRateMaxDeviation = 5000; // PPM units\n\n    /**\n     * @dev triggered when the pool whitelist is updated\n     *\n     * @param poolAnchor pool anchor\n     * @param added true if the pool was added to the whitelist, false if it was removed\n     */\n    event PoolWhitelistUpdated(IConverterAnchor indexed poolAnchor, bool added);\n\n    /**\n     * @dev triggered when a subscriber is added or removed\n     *\n     * @param subscriber subscriber\n     * @param added true if the subscriber was added, false if it was removed\n     */\n    event SubscriberUpdated(ILiquidityProvisionEventsSubscriber indexed subscriber, bool added);\n\n    /**\n     * @dev triggered when the minimum amount of network token liquidity to allow minting is updated\n     *\n     * @param prevMin previous minimum amount of network token liquidity for minting\n     * @param newMin new minimum amount of network token liquidity for minting\n     */\n    event MinNetworkTokenLiquidityForMintingUpdated(uint256 prevMin, uint256 newMin);\n\n    /**\n     * @dev triggered when the default network token minting limit is updated\n     *\n     * @param prevDefault previous default network token minting limit\n     * @param newDefault new default network token minting limit\n     */\n    event DefaultNetworkTokenMintingLimitUpdated(uint256 prevDefault, uint256 newDefault);\n\n    /**\n     * @dev triggered when a pool network token minting limit is updated\n     *\n     * @param poolAnchor pool anchor\n     * @param prevLimit previous limit\n     * @param newLimit new limit\n     */\n    event NetworkTokenMintingLimitUpdated(IConverterAnchor indexed poolAnchor, uint256 prevLimit, uint256 newLimit);\n\n    /**\n     * @dev triggered when the protection delays are updated\n     *\n     * @param prevMinProtectionDelay previous seconds until the protection starts\n     * @param newMinProtectionDelay new seconds until the protection starts\n     * @param prevMaxProtectionDelay previous seconds until full protection\n     * @param newMaxProtectionDelay new seconds until full protection\n     */\n    event ProtectionDelaysUpdated(\n        uint256 prevMinProtectionDelay,\n        uint256 newMinProtectionDelay,\n        uint256 prevMaxProtectionDelay,\n        uint256 newMaxProtectionDelay\n    );\n\n    /**\n     * @dev triggered when the minimum network token compensation is updated\n     *\n     * @param prevMinNetworkCompensation previous minimum network token compensation\n     * @param newMinNetworkCompensation new minimum network token compensation\n     */\n    event MinNetworkCompensationUpdated(uint256 prevMinNetworkCompensation, uint256 newMinNetworkCompensation);\n\n    /**\n     * @dev triggered when the network token lock duration is updated\n     *\n     * @param prevLockDuration previous network token lock duration, in seconds\n     * @param newLockDuration new network token lock duration, in seconds\n     */\n    event LockDurationUpdated(uint256 prevLockDuration, uint256 newLockDuration);\n\n    /**\n     * @dev triggered when the maximum deviation of the average rate from the spot rate is updated\n     *\n     * @param prevAverageRateMaxDeviation previous maximum deviation of the average rate from the spot rate\n     * @param newAverageRateMaxDeviation new maximum deviation of the average rate from the spot rate\n     */\n    event AverageRateMaxDeviationUpdated(uint32 prevAverageRateMaxDeviation, uint32 newAverageRateMaxDeviation);\n\n    /**\n     * @dev triggered when adding liquidity is disabled or enabled for a given reserve on a given pool\n     *\n     * @param poolAnchor pool anchor\n     * @param reserveToken reserve token\n     * @param disabled true if disabled, false otherwise\n     */\n    event AddLiquidityDisabled(IConverterAnchor indexed poolAnchor, IReserveToken indexed reserveToken, bool disabled);\n\n    /**\n     * @dev initializes a new LiquidityProtectionSettings contract\n     *\n     * @param registry contract registry\n     * @param networkToken the network token\n     */\n    constructor(IERC20 networkToken, IContractRegistry registry)\n        public\n        ContractRegistryClient(registry)\n        validExternalAddress(address(networkToken))\n    {\n        // set up administrative roles.\n        _setRoleAdmin(ROLE_OWNER, ROLE_OWNER);\n\n        // allow the deployer to initially govern the contract.\n        _setupRole(ROLE_OWNER, msg.sender);\n\n        _networkToken = networkToken;\n    }\n\n    modifier onlyOwner() {\n        _onlyOwner();\n        _;\n    }\n\n    // error message binary size optimization\n    function _onlyOwner() internal view {\n        require(hasRole(ROLE_OWNER, msg.sender), \"ERR_ACCESS_DENIED\");\n    }\n\n    /**\n     * @dev returns the network token\n     *\n     * @return the network token\n     */\n    function networkToken() external view returns (IERC20) {\n        return _networkToken;\n    }\n\n    /**\n     * @dev returns the minimum network token liquidity for minting\n     *\n     * @return the minimum network token liquidity for minting\n     */\n    function minNetworkTokenLiquidityForMinting() external view override returns (uint256) {\n        return _minNetworkTokenLiquidityForMinting;\n    }\n\n    /**\n     * @dev returns the default network token minting limit\n     *\n     * @return the default network token minting limit\n     */\n    function defaultNetworkTokenMintingLimit() external view override returns (uint256) {\n        return _defaultNetworkTokenMintingLimit;\n    }\n\n    /**\n     * @dev returns the network token minting limit for a given pool\n     *\n     * @param poolAnchor pool anchor\n     * @return the network token minting limit for a given pool\n     */\n    function networkTokenMintingLimits(IConverterAnchor poolAnchor) external view override returns (uint256) {\n        return _networkTokenMintingLimits[poolAnchor];\n    }\n\n    /**\n     * @dev returns the permission of adding liquidity for a given reserve on a given pool\n     *\n     * @param poolAnchor pool anchor\n     * @param reserveToken reserve token\n     * @return true if adding liquidity is disabled, false otherwise\n     */\n    function addLiquidityDisabled(IConverterAnchor poolAnchor, IReserveToken reserveToken)\n        external\n        view\n        override\n        returns (bool)\n    {\n        return _addLiquidityDisabled[poolAnchor][reserveToken];\n    }\n\n    /**\n     * @dev returns the minimum number of seconds until any protection is in effect\n     *\n     * @return the minimum number of seconds until any protection is in effect\n     */\n    function minProtectionDelay() external view override returns (uint256) {\n        return _minProtectionDelay;\n    }\n\n    /**\n     * @dev returns the maximum number of seconds until full protection is in effect\n     *\n     * @return the maximum number of seconds until full protection is in effect\n     */\n    function maxProtectionDelay() external view override returns (uint256) {\n        return _maxProtectionDelay;\n    }\n\n    /**\n     * @dev returns the minimum amount of network tokens that the system can mint as compensation for base token losses\n     *\n     * @return the minimum amount of network tokens that the system can mint as compensation for base token losses\n     */\n    function minNetworkCompensation() external view override returns (uint256) {\n        return _minNetworkCompensation;\n    }\n\n    /**\n     * @dev returns the number of seconds from liquidation to full network token release\n     *\n     * @return the number of seconds from liquidation to full network token release\n     */\n    function lockDuration() external view override returns (uint256) {\n        return _lockDuration;\n    }\n\n    /**\n     * @dev returns the maximum deviation of the average rate from the spot rate\n     *\n     * @return the maximum deviation of the average rate from the spot rate\n     */\n    function averageRateMaxDeviation() external view override returns (uint32) {\n        return _averageRateMaxDeviation;\n    }\n\n    /**\n     * @dev adds a pool to the whitelist\n     * can only be called by the contract owner\n     *\n     * @param poolAnchor pool anchor\n     */\n    function addPoolToWhitelist(IConverterAnchor poolAnchor)\n        external\n        onlyOwner\n        validExternalAddress(address(poolAnchor))\n    {\n        require(_poolWhitelist.add(address(poolAnchor)), \"ERR_POOL_ALREADY_WHITELISTED\");\n\n        emit PoolWhitelistUpdated(poolAnchor, true);\n    }\n\n    /**\n     * @dev removes a pool from the whitelist\n     * can only be called by the contract owner\n     *\n     * @param poolAnchor pool anchor\n     */\n    function removePoolFromWhitelist(IConverterAnchor poolAnchor) external onlyOwner {\n        require(_poolWhitelist.remove(address(poolAnchor)), \"ERR_POOL_NOT_WHITELISTED\");\n\n        emit PoolWhitelistUpdated(poolAnchor, false);\n    }\n\n    /**\n     * @dev checks whether a given pool is whitelisted\n     *\n     * @param poolAnchor pool anchor\n     *\n     * @return true if the given pool is whitelisted, false otherwise\n     */\n    function isPoolWhitelisted(IConverterAnchor poolAnchor) external view override returns (bool) {\n        return _poolWhitelist.contains(address(poolAnchor));\n    }\n\n    /**\n     * @dev returns pools whitelist\n     *\n     * @return pools whitelist\n     */\n    function poolWhitelist() external view override returns (address[] memory) {\n        uint256 length = _poolWhitelist.length();\n        address[] memory list = new address[](length);\n        for (uint256 i = 0; i < length; i++) {\n            list[i] = _poolWhitelist.at(i);\n        }\n        return list;\n    }\n\n    /**\n     * @dev adds a subscriber\n     * can only be called by the contract owner\n     *\n     * @param subscriber subscriber address\n     */\n    function addSubscriber(ILiquidityProvisionEventsSubscriber subscriber)\n        external\n        onlyOwner\n        validExternalAddress(address(subscriber))\n    {\n        require(_subscribers.add(address(subscriber)), \"ERR_SUBSCRIBER_ALREADY_SET\");\n\n        emit SubscriberUpdated(subscriber, true);\n    }\n\n    /**\n     * @dev removes a subscriber\n     * can only be called by the contract owner\n     *\n     * @param subscriber    subscriber address\n     */\n    function removeSubscriber(ILiquidityProvisionEventsSubscriber subscriber) external onlyOwner {\n        require(_subscribers.remove(address(subscriber)), \"ERR_INVALID_SUBSCRIBER\");\n\n        emit SubscriberUpdated(subscriber, false);\n    }\n\n    /**\n     * @dev returns subscribers list\n     *\n     * @return subscribers list\n     */\n    function subscribers() external view override returns (address[] memory) {\n        uint256 length = _subscribers.length();\n        address[] memory list = new address[](length);\n        for (uint256 i = 0; i < length; i++) {\n            list[i] = _subscribers.at(i);\n        }\n        return list;\n    }\n\n    /**\n     * @dev updates the minimum amount of network token liquidity to allow minting\n     * can only be called by the contract owner\n     *\n     * @param amount the minimum amount of network token liquidity to allow minting\n     */\n    function setMinNetworkTokenLiquidityForMinting(uint256 amount) external onlyOwner() {\n        emit MinNetworkTokenLiquidityForMintingUpdated(_minNetworkTokenLiquidityForMinting, amount);\n\n        _minNetworkTokenLiquidityForMinting = amount;\n    }\n\n    /**\n     * @dev updates the default amount of network token that the system can mint into each pool\n     * can only be called by the contract owner\n     *\n     * @param amount the default amount of network token that the system can mint into each pool\n     */\n    function setDefaultNetworkTokenMintingLimit(uint256 amount) external onlyOwner() {\n        emit DefaultNetworkTokenMintingLimitUpdated(_defaultNetworkTokenMintingLimit, amount);\n\n        _defaultNetworkTokenMintingLimit = amount;\n    }\n\n    /**\n     * @dev updates the amount of network tokens that the system can mint into a specific pool\n     * can only be called by the contract owner\n     *\n     * @param poolAnchor pool anchor\n     * @param amount the amount of network tokens that the system can mint into a specific pool\n     */\n    function setNetworkTokenMintingLimit(IConverterAnchor poolAnchor, uint256 amount)\n        external\n        onlyOwner()\n        validAddress(address(poolAnchor))\n    {\n        emit NetworkTokenMintingLimitUpdated(poolAnchor, _networkTokenMintingLimits[poolAnchor], amount);\n\n        _networkTokenMintingLimits[poolAnchor] = amount;\n    }\n\n    /**\n     * @dev updates the protection delays\n     * can only be called by the contract owner\n     *\n     * @param minDelay seconds until the protection starts\n     * @param maxDelay seconds until full protection\n     */\n    function setProtectionDelays(uint256 minDelay, uint256 maxDelay) external onlyOwner() {\n        require(minDelay < maxDelay, \"ERR_INVALID_PROTECTION_DELAY\");\n\n        emit ProtectionDelaysUpdated(_minProtectionDelay, minDelay, _maxProtectionDelay, maxDelay);\n\n        _minProtectionDelay = minDelay;\n        _maxProtectionDelay = maxDelay;\n    }\n\n    /**\n     * @dev updates the minimum amount of network token compensation\n     * can only be called by the contract owner\n     *\n     * @param amount the minimum amount of network token compensation\n     */\n    function setMinNetworkCompensation(uint256 amount) external onlyOwner() {\n        emit MinNetworkCompensationUpdated(_minNetworkCompensation, amount);\n\n        _minNetworkCompensation = amount;\n    }\n\n    /**\n     * @dev updates the network token lock duration\n     * can only be called by the contract owner\n     *\n     * @param duration network token lock duration, in seconds\n     */\n    function setLockDuration(uint256 duration) external onlyOwner() {\n        emit LockDurationUpdated(_lockDuration, duration);\n\n        _lockDuration = duration;\n    }\n\n    /**\n     * @dev sets the maximum deviation of the average rate from the spot rate\n     * can only be called by the contract owner\n     *\n     * @param deviation maximum deviation of the average rate from the spot rate\n     */\n    function setAverageRateMaxDeviation(uint32 deviation) external onlyOwner() validPortion(deviation) {\n        emit AverageRateMaxDeviationUpdated(_averageRateMaxDeviation, deviation);\n\n        _averageRateMaxDeviation = deviation;\n    }\n\n    /**\n     * @dev disables or enables adding liquidity for a given reserve on a given pool\n     * can only be called by the contract owner\n     *\n     * @param poolAnchor pool anchor\n     * @param reserveToken reserve token\n     * @param disable true to disable, false otherwise\n     */\n    function disableAddLiquidity(\n        IConverterAnchor poolAnchor,\n        IReserveToken reserveToken,\n        bool disable\n    ) external onlyOwner() {\n        emit AddLiquidityDisabled(poolAnchor, reserveToken, disable);\n\n        _addLiquidityDisabled[poolAnchor][reserveToken] = disable;\n    }\n\n    /**\n     * @dev checks if protection is supported for the given pool\n     * only standard pools are supported (2 reserves, 50%/50% weights)\n     * note that the pool should still be whitelisted\n     *\n     * @param poolAnchor anchor of the pool\n     *\n     * @return true if the pool is supported, false otherwise\n     */\n    function isPoolSupported(IConverterAnchor poolAnchor) external view override returns (bool) {\n        // verify that the pool exists in the registry\n        IConverterRegistry converterRegistry = IConverterRegistry(addressOf(CONVERTER_REGISTRY));\n        require(converterRegistry.isAnchor(address(poolAnchor)), \"ERR_INVALID_ANCHOR\");\n\n        // get the converter\n        IConverter converter = IConverter(payable(poolAnchor.owner()));\n\n        // verify that the converter has 2 reserves\n        if (converter.connectorTokenCount() != 2) {\n            return false;\n        }\n\n        // verify that one of the reserves is the network token\n        IReserveToken reserve0Token = converter.connectorTokens(0);\n        IReserveToken reserve1Token = converter.connectorTokens(1);\n        if (!isNetworkToken(reserve0Token) && !isNetworkToken(reserve1Token)) {\n            return false;\n        }\n\n        // verify that the reserve weights are exactly 50%/50%\n        if (\n            converterReserveWeight(converter, reserve0Token) != PPM_RESOLUTION / 2 ||\n            converterReserveWeight(converter, reserve1Token) != PPM_RESOLUTION / 2\n        ) {\n            return false;\n        }\n\n        return true;\n    }\n\n    // utility to get the reserve weight (including from older converters that don't support the new converterReserveWeight function)\n    function converterReserveWeight(IConverter converter, IReserveToken reserveToken) private view returns (uint32) {\n        (, uint32 weight, , , ) = converter.connectors(reserveToken);\n        return weight;\n    }\n\n    /**\n     * @dev returns whether the provided reserve token is the network token\n     *\n     * @return whether the provided reserve token is the network token\n     */\n    function isNetworkToken(IReserveToken reserveToken) private view returns (bool) {\n        return address(reserveToken) == address(_networkToken);\n    }\n}\n",
  "sourcePath": "D:\\Work Space\\bancor_project\\core\\contracts\\liquidity-protection\\LiquidityProtectionSettings.sol",
  "compiler": {
    "name": "solc",
    "version": "0.6.12+commit.27d51765.Emscripten.clang"
  },
  "schemaVersion": "3.4.3",
  "updatedAt": "2021-08-23T11:45:54.488Z",
  "devdoc": {
    "details": "Liquidity Protection Settings contract",
    "events": {
      "AddLiquidityDisabled(address,address,bool)": {
        "details": "triggered when adding liquidity is disabled or enabled for a given reserve on a given pool",
        "params": {
          "disabled": "true if disabled, false otherwise",
          "poolAnchor": "pool anchor",
          "reserveToken": "reserve token"
        }
      },
      "AverageRateMaxDeviationUpdated(uint32,uint32)": {
        "details": "triggered when the maximum deviation of the average rate from the spot rate is updated",
        "params": {
          "newAverageRateMaxDeviation": "new maximum deviation of the average rate from the spot rate",
          "prevAverageRateMaxDeviation": "previous maximum deviation of the average rate from the spot rate"
        }
      },
      "DefaultNetworkTokenMintingLimitUpdated(uint256,uint256)": {
        "details": "triggered when the default network token minting limit is updated",
        "params": {
          "newDefault": "new default network token minting limit",
          "prevDefault": "previous default network token minting limit"
        }
      },
      "LockDurationUpdated(uint256,uint256)": {
        "details": "triggered when the network token lock duration is updated",
        "params": {
          "newLockDuration": "new network token lock duration, in seconds",
          "prevLockDuration": "previous network token lock duration, in seconds"
        }
      },
      "MinNetworkCompensationUpdated(uint256,uint256)": {
        "details": "triggered when the minimum network token compensation is updated",
        "params": {
          "newMinNetworkCompensation": "new minimum network token compensation",
          "prevMinNetworkCompensation": "previous minimum network token compensation"
        }
      },
      "MinNetworkTokenLiquidityForMintingUpdated(uint256,uint256)": {
        "details": "triggered when the minimum amount of network token liquidity to allow minting is updated",
        "params": {
          "newMin": "new minimum amount of network token liquidity for minting",
          "prevMin": "previous minimum amount of network token liquidity for minting"
        }
      },
      "NetworkTokenMintingLimitUpdated(address,uint256,uint256)": {
        "details": "triggered when a pool network token minting limit is updated",
        "params": {
          "newLimit": "new limit",
          "poolAnchor": "pool anchor",
          "prevLimit": "previous limit"
        }
      },
      "PoolWhitelistUpdated(address,bool)": {
        "details": "triggered when the pool whitelist is updated",
        "params": {
          "added": "true if the pool was added to the whitelist, false if it was removed",
          "poolAnchor": "pool anchor"
        }
      },
      "ProtectionDelaysUpdated(uint256,uint256,uint256,uint256)": {
        "details": "triggered when the protection delays are updated",
        "params": {
          "newMaxProtectionDelay": "new seconds until full protection",
          "newMinProtectionDelay": "new seconds until the protection starts",
          "prevMaxProtectionDelay": "previous seconds until full protection",
          "prevMinProtectionDelay": "previous seconds until the protection starts"
        }
      },
      "SubscriberUpdated(address,bool)": {
        "details": "triggered when a subscriber is added or removed",
        "params": {
          "added": "true if the subscriber was added, false if it was removed",
          "subscriber": "subscriber"
        }
      }
    },
    "kind": "dev",
    "methods": {
      "acceptOwnership()": {
        "details": "used by a new owner to accept an ownership transfer"
      },
      "addLiquidityDisabled(address,address)": {
        "details": "returns the permission of adding liquidity for a given reserve on a given pool",
        "params": {
          "poolAnchor": "pool anchor",
          "reserveToken": "reserve token"
        },
        "returns": {
          "_0": "true if adding liquidity is disabled, false otherwise"
        }
      },
      "addPoolToWhitelist(address)": {
        "details": "adds a pool to the whitelist can only be called by the contract owner",
        "params": {
          "poolAnchor": "pool anchor"
        }
      },
      "addSubscriber(address)": {
        "details": "adds a subscriber can only be called by the contract owner",
        "params": {
          "subscriber": "subscriber address"
        }
      },
      "averageRateMaxDeviation()": {
        "details": "returns the maximum deviation of the average rate from the spot rate",
        "returns": {
          "_0": "the maximum deviation of the average rate from the spot rate"
        }
      },
      "constructor": {
        "details": "initializes a new LiquidityProtectionSettings contract",
        "params": {
          "networkToken": "the network token",
          "registry": "contract registry"
        }
      },
      "defaultNetworkTokenMintingLimit()": {
        "details": "returns the default network token minting limit",
        "returns": {
          "_0": "the default network token minting limit"
        }
      },
      "disableAddLiquidity(address,address,bool)": {
        "details": "disables or enables adding liquidity for a given reserve on a given pool can only be called by the contract owner",
        "params": {
          "disable": "true to disable, false otherwise",
          "poolAnchor": "pool anchor",
          "reserveToken": "reserve token"
        }
      },
      "getRoleAdmin(bytes32)": {
        "details": "Returns the admin role that controls `role`. See {grantRole} and {revokeRole}. To change a role's admin, use {_setRoleAdmin}."
      },
      "getRoleMember(bytes32,uint256)": {
        "details": "Returns one of the accounts that have `role`. `index` must be a value between 0 and {getRoleMemberCount}, non-inclusive. Role bearers are not sorted in any particular way, and their ordering may change at any point. WARNING: When using {getRoleMember} and {getRoleMemberCount}, make sure you perform all queries on the same block. See the following https://forum.openzeppelin.com/t/iterating-over-elements-on-enumerableset-in-openzeppelin-contracts/2296[forum post] for more information."
      },
      "getRoleMemberCount(bytes32)": {
        "details": "Returns the number of accounts that have `role`. Can be used together with {getRoleMember} to enumerate all bearers of a role."
      },
      "grantRole(bytes32,address)": {
        "details": "Grants `role` to `account`. If `account` had not been already granted `role`, emits a {RoleGranted} event. Requirements: - the caller must have ``role``'s admin role."
      },
      "hasRole(bytes32,address)": {
        "details": "Returns `true` if `account` has been granted `role`."
      },
      "isPoolSupported(address)": {
        "details": "checks if protection is supported for the given pool only standard pools are supported (2 reserves, 50%/50% weights) note that the pool should still be whitelisted",
        "params": {
          "poolAnchor": "anchor of the pool"
        },
        "returns": {
          "_0": "true if the pool is supported, false otherwise"
        }
      },
      "isPoolWhitelisted(address)": {
        "details": "checks whether a given pool is whitelisted",
        "params": {
          "poolAnchor": "pool anchor"
        },
        "returns": {
          "_0": "true if the given pool is whitelisted, false otherwise"
        }
      },
      "lockDuration()": {
        "details": "returns the number of seconds from liquidation to full network token release",
        "returns": {
          "_0": "the number of seconds from liquidation to full network token release"
        }
      },
      "maxProtectionDelay()": {
        "details": "returns the maximum number of seconds until full protection is in effect",
        "returns": {
          "_0": "the maximum number of seconds until full protection is in effect"
        }
      },
      "minNetworkCompensation()": {
        "details": "returns the minimum amount of network tokens that the system can mint as compensation for base token losses",
        "returns": {
          "_0": "the minimum amount of network tokens that the system can mint as compensation for base token losses"
        }
      },
      "minNetworkTokenLiquidityForMinting()": {
        "details": "returns the minimum network token liquidity for minting",
        "returns": {
          "_0": "the minimum network token liquidity for minting"
        }
      },
      "minProtectionDelay()": {
        "details": "returns the minimum number of seconds until any protection is in effect",
        "returns": {
          "_0": "the minimum number of seconds until any protection is in effect"
        }
      },
      "networkToken()": {
        "details": "returns the network token",
        "returns": {
          "_0": "the network token"
        }
      },
      "networkTokenMintingLimits(address)": {
        "details": "returns the network token minting limit for a given pool",
        "params": {
          "poolAnchor": "pool anchor"
        },
        "returns": {
          "_0": "the network token minting limit for a given pool"
        }
      },
      "poolWhitelist()": {
        "details": "returns pools whitelist",
        "returns": {
          "_0": "pools whitelist"
        }
      },
      "removePoolFromWhitelist(address)": {
        "details": "removes a pool from the whitelist can only be called by the contract owner",
        "params": {
          "poolAnchor": "pool anchor"
        }
      },
      "removeSubscriber(address)": {
        "details": "removes a subscriber can only be called by the contract owner",
        "params": {
          "subscriber": "subscriber address"
        }
      },
      "renounceRole(bytes32,address)": {
        "details": "Revokes `role` from the calling account. Roles are often managed via {grantRole} and {revokeRole}: this function's purpose is to provide a mechanism for accounts to lose their privileges if they are compromised (such as when a trusted device is misplaced). If the calling account had been granted `role`, emits a {RoleRevoked} event. Requirements: - the caller must be `account`."
      },
      "restoreRegistry()": {
        "details": "restores the previous contract-registry"
      },
      "restrictRegistryUpdate(bool)": {
        "details": "restricts the permission to update the contract-registry",
        "params": {
          "_onlyOwnerCanUpdateRegistry": "indicates whether or not permission is restricted to owner only"
        }
      },
      "revokeRole(bytes32,address)": {
        "details": "Revokes `role` from `account`. If `account` had been granted `role`, emits a {RoleRevoked} event. Requirements: - the caller must have ``role``'s admin role."
      },
      "setAverageRateMaxDeviation(uint32)": {
        "details": "sets the maximum deviation of the average rate from the spot rate can only be called by the contract owner",
        "params": {
          "deviation": "maximum deviation of the average rate from the spot rate"
        }
      },
      "setDefaultNetworkTokenMintingLimit(uint256)": {
        "details": "updates the default amount of network token that the system can mint into each pool can only be called by the contract owner",
        "params": {
          "amount": "the default amount of network token that the system can mint into each pool"
        }
      },
      "setLockDuration(uint256)": {
        "details": "updates the network token lock duration can only be called by the contract owner",
        "params": {
          "duration": "network token lock duration, in seconds"
        }
      },
      "setMinNetworkCompensation(uint256)": {
        "details": "updates the minimum amount of network token compensation can only be called by the contract owner",
        "params": {
          "amount": "the minimum amount of network token compensation"
        }
      },
      "setMinNetworkTokenLiquidityForMinting(uint256)": {
        "details": "updates the minimum amount of network token liquidity to allow minting can only be called by the contract owner",
        "params": {
          "amount": "the minimum amount of network token liquidity to allow minting"
        }
      },
      "setNetworkTokenMintingLimit(address,uint256)": {
        "details": "updates the amount of network tokens that the system can mint into a specific pool can only be called by the contract owner",
        "params": {
          "amount": "the amount of network tokens that the system can mint into a specific pool",
          "poolAnchor": "pool anchor"
        }
      },
      "setProtectionDelays(uint256,uint256)": {
        "details": "updates the protection delays can only be called by the contract owner",
        "params": {
          "maxDelay": "seconds until full protection",
          "minDelay": "seconds until the protection starts"
        }
      },
      "subscribers()": {
        "details": "returns subscribers list",
        "returns": {
          "_0": "subscribers list"
        }
      },
      "transferOwnership(address)": {
        "details": "allows transferring the contract ownership the new owner still needs to accept the transfer can only be called by the contract owner",
        "params": {
          "_newOwner": "new contract owner"
        }
      },
      "updateRegistry()": {
        "details": "updates to the new contract-registry"
      }
    },
    "version": 1
  },
  "userdoc": {
    "kind": "user",
    "methods": {},
    "version": 1
  }
}