{
  "contractName": "LiquidityPoolV1ConverterFactory",
  "abi": [
    {
      "inputs": [],
      "name": "converterType",
      "outputs": [
        {
          "internalType": "uint16",
          "name": "",
          "type": "uint16"
        }
      ],
      "stateMutability": "pure",
      "type": "function"
    },
    {
      "inputs": [
        {
          "internalType": "contract IConverterAnchor",
          "name": "_anchor",
          "type": "address"
        },
        {
          "internalType": "contract IContractRegistry",
          "name": "_registry",
          "type": "address"
        },
        {
          "internalType": "uint32",
          "name": "_maxConversionFee",
          "type": "uint32"
        }
      ],
      "name": "createConverter",
      "outputs": [
        {
          "internalType": "contract IConverter",
          "name": "",
          "type": "address"
        }
      ],
      "stateMutability": "nonpayable",
      "type": "function"
    }
  ],
  "bytecode": "0x608060405234801561001057600080fd5b50618075806100206000396000f3fe608060405234801561001057600080fd5b50600436106100365760003560e01c8063114139581461003b5780633e8ff43f146100d9575b600080fd5b6100ad6004803603606081101561005157600080fd5b81019080803573ffffffffffffffffffffffffffffffffffffffff169060200190929190803573ffffffffffffffffffffffffffffffffffffffff169060200190929190803563ffffffff1690602001909291905050506100fb565b604051808273ffffffffffffffffffffffffffffffffffffffff16815260200191505060405180910390f35b6100e1610202565b604051808261ffff16815260200191505060405180910390f35b60008084848460405161010d9061020b565b808473ffffffffffffffffffffffffffffffffffffffff1681526020018373ffffffffffffffffffffffffffffffffffffffff1681526020018263ffffffff1681526020019350505050604051809103906000f080158015610173573d6000803e3d6000fd5b5090508073ffffffffffffffffffffffffffffffffffffffff1663f2fde38b336040518263ffffffff1660e01b8152600401808273ffffffffffffffffffffffffffffffffffffffff168152602001915050600060405180830381600087803b1580156101df57600080fd5b505af11580156101f3573d6000803e3d6000fd5b50505050809150509392505050565b60006001905090565b617e27806102198339019056fe608060405260016004556000600960006101000a81548163ffffffff021916908363ffffffff1602179055506000600960046101000a81548163ffffffff021916908363ffffffff1602179055506000600960086101000a81548163ffffffff021916908363ffffffff16021790555060006009600c6101000a81548160ff0219169083151502179055503480156200009757600080fd5b5060405162007e2738038062007e2783398181016040526060811015620000bd57600080fd5b8101908080519060200190929190805190602001909291908051906020019092919050505082828282828281336000806101000a81548173ffffffffffffffffffffffffffffffffffffffff021916908373ffffffffffffffffffffffffffffffffffffffff160217905550806200013b816200025660201b60201c565b81600260006101000a81548173ffffffffffffffffffffffffffffffffffffffff021916908373ffffffffffffffffffffffffffffffffffffffff16021790555081600360006101000a81548173ffffffffffffffffffffffffffffffffffffffff021916908373ffffffffffffffffffffffffffffffffffffffff160217905550505082620001d1816200025660201b60201c565b81620001e381620002fd60201b60201c565b84600560006101000a81548173ffffffffffffffffffffffffffffffffffffffff021916908373ffffffffffffffffffffffffffffffffffffffff16021790555082600960046101000a81548163ffffffff021916908363ffffffff160217905550505050505050505050505062000386565b600073ffffffffffffffffffffffffffffffffffffffff168173ffffffffffffffffffffffffffffffffffffffff161415620002fa576040517f08c379a00000000000000000000000000000000000000000000000000000000081526004018080602001828103825260138152602001807f4552525f494e56414c49445f414444524553530000000000000000000000000081525060200191505060405180910390fd5b50565b620f424063ffffffff168163ffffffff16111562000383576040517f08c379a000000000000000000000000000000000000000000000000000000000815260040180806020018281038252601a8152602001807f4552525f494e56414c49445f434f4e56455253494f4e5f46454500000000000081525060200191505060405180910390fd5b50565b617a9180620003966000396000f3fe60806040526004361061031e5760003560e01c806371f52bf3116101ab578063cdc91c69116100f7578063d895951211610095578063e8dc12ff1161006f578063e8dc12ff14611616578063ecbca55d146116d8578063f2fde38b14611719578063fc0c546a1461176a57610344565b8063d89595121461151a578063dc8de3791461157f578063e2c52468146115e457610344565b8063d3fb73b4116100d1578063d3fb73b4146113f4578063d4ee1d9014611435578063d55ec69714611476578063d66bd5241461148d57610344565b8063cdc91c691461134b578063d031370b14611362578063d260529c146113c757610344565b806394c275ad11610164578063b127c0a51161013e578063b127c0a5146110f9578063b4a176d3146112b1578063c45d3d92146112c8578063ca1d209d1461130957610344565b806394c275ad146110035780639b99a8e214611034578063af94b8d81461106357610344565b806371f52bf314610ca357806379ba509714610cd25780637b10399914610ce95780637d8916bd14610d2a57806380d9416d14610e945780638da5cb5b14610fc257610344565b80632fe8a6ad1161026a5780634af80f0e11610223578063579cd3ca116101fd578063579cd3ca14610b7f57806361cd756e14610bb057806367b6d57c14610bf15780636a49d2c414610c4257610344565b80634af80f0e14610ae857806350dc78f914610b3957806354fd4d5014610b5057610344565b80632fe8a6ad146109a157806338a5e016146109ce57806338e9f27a146109e55780633e8ff43f14610a12578063415f124014610a4157806349d10b6414610ad157610344565b80631cfab290116102d75780631f0181bc116102b15780631f0181bc1461074a57806321e6b53d146107b657806322f3e2d4146108075780632e9abc7a1461083457610344565b80631cfab2901461061e5780631d4db791146106895780631e1401f8146106b457610344565b8063024c7ec714610349578063038d09e1146103865780630c7d5cd8146103d75780630e53aae914610408578063154588371461049557806319b64015146105b957610344565b366103445773eeeeeeeeeeeeeeeeeeeeeeeeeeeeeeeeeeeeeeee610341816117ab565b50005b600080fd5b34801561035557600080fd5b506103846004803603602081101561036c57600080fd5b81019080803515159060200190929190505050611870565b005b34801561039257600080fd5b506103d5600480360360208110156103a957600080fd5b81019080803573ffffffffffffffffffffffffffffffffffffffff169060200190929190505050611895565b005b3480156103e357600080fd5b506103ec61199e565b604051808263ffffffff16815260200191505060405180910390f35b34801561041457600080fd5b506104576004803603602081101561042b57600080fd5b81019080803573ffffffffffffffffffffffffffffffffffffffff1690602001909291905050506119b4565b604051808681526020018563ffffffff1681526020018415158152602001831515815260200182151581526020019550505050505060405180910390f35b3480156104a157600080fd5b50610562600480360360408110156104b857600080fd5b8101908080359060200190929190803590602001906401000000008111156104df57600080fd5b8201836020820111156104f157600080fd5b8035906020019184602083028401116401000000008311171561051357600080fd5b919080806020026020016040519081016040528093929190818152602001838360200280828437600081840152601f19601f820116905080830192505050505050509192919290505050611ab7565b6040518080602001828103825283818151815260200191508051906020019060200280838360005b838110156105a557808201518184015260208101905061058a565b505050509050019250505060405180910390f35b3480156105c557600080fd5b506105f2600480360360208110156105dc57600080fd5b8101908080359060200190929190505050611ba3565b604051808273ffffffffffffffffffffffffffffffffffffffff16815260200191505060405180910390f35b34801561062a57600080fd5b5061066d6004803603602081101561064157600080fd5b81019080803573ffffffffffffffffffffffffffffffffffffffff169060200190929190505050611be4565b604051808263ffffffff16815260200191505060405180910390f35b34801561069557600080fd5b5061069e611c4b565b6040518082815260200191505060405180910390f35b3480156106c057600080fd5b5061072d600480360360608110156106d757600080fd5b81019080803573ffffffffffffffffffffffffffffffffffffffff169060200190929190803573ffffffffffffffffffffffffffffffffffffffff16906020019092919080359060200190929190505050611c51565b604051808381526020018281526020019250505060405180910390f35b34801561075657600080fd5b506107996004803603602081101561076d57600080fd5b81019080803573ffffffffffffffffffffffffffffffffffffffff169060200190929190505050611c6b565b604051808381526020018281526020019250505060405180910390f35b3480156107c257600080fd5b50610805600480360360208110156107d957600080fd5b81019080803573ffffffffffffffffffffffffffffffffffffffff169060200190929190505050611da2565b005b34801561081357600080fd5b5061081c611db6565b60405180821515815260200191505060405180910390f35b34801561084057600080fd5b5061098b6004803603604081101561085757600080fd5b810190808035906020019064010000000081111561087457600080fd5b82018360208201111561088657600080fd5b803590602001918460208302840111640100000000831117156108a857600080fd5b919080806020026020016040519081016040528093929190818152602001838360200280828437600081840152601f19601f8201169050808301925050505050505091929192908035906020019064010000000081111561090857600080fd5b82018360208201111561091a57600080fd5b8035906020019184602083028401116401000000008311171561093c57600080fd5b919080806020026020016040519081016040528093929190818152602001838360200280828437600081840152601f19601f820116905080830192505050505050509192919290505050611e8e565b6040518082815260200191505060405180910390f35b3480156109ad57600080fd5b506109b6611f79565b60405180821515815260200191505060405180910390f35b3480156109da57600080fd5b506109e3611f8c565b005b3480156109f157600080fd5b506109fa611f9e565b60405180821515815260200191505060405180910390f35b348015610a1e57600080fd5b50610a27611fb1565b604051808261ffff16815260200191505060405180910390f35b348015610a4d57600080fd5b50610a7a60048036036020811015610a6457600080fd5b8101908080359060200190929190505050611fba565b6040518080602001828103825283818151815260200191508051906020019060200280838360005b83811015610abd578082015181840152602081019050610aa2565b505050509050019250505060405180910390f35b348015610add57600080fd5b50610ae66122bb565b005b348015610af457600080fd5b50610b3760048036036020811015610b0b57600080fd5b81019080803573ffffffffffffffffffffffffffffffffffffffff1690602001909291905050506126b3565b005b348015610b4557600080fd5b50610b4e6126ff565b005b348015610b5c57600080fd5b50610b6561274c565b604051808261ffff16815260200191505060405180910390f35b348015610b8b57600080fd5b50610b94612751565b604051808263ffffffff16815260200191505060405180910390f35b348015610bbc57600080fd5b50610bc5612767565b604051808273ffffffffffffffffffffffffffffffffffffffff16815260200191505060405180910390f35b348015610bfd57600080fd5b50610c4060048036036020811015610c1457600080fd5b81019080803573ffffffffffffffffffffffffffffffffffffffff16906020019092919050505061278d565b005b348015610c4e57600080fd5b50610ca160048036036040811015610c6557600080fd5b81019080803573ffffffffffffffffffffffffffffffffffffffff169060200190929190803563ffffffff169060200190929190505050612866565b005b348015610caf57600080fd5b50610cb8612a06565b604051808261ffff16815260200191505060405180910390f35b348015610cde57600080fd5b50610ce7612a15565b005b348015610cf557600080fd5b50610cfe612c1a565b604051808273ffffffffffffffffffffffffffffffffffffffff16815260200191505060405180910390f35b610e7e60048036036060811015610d4057600080fd5b8101908080359060200190640100000000811115610d5d57600080fd5b820183602082011115610d6f57600080fd5b80359060200191846020830284011164010000000083111715610d9157600080fd5b919080806020026020016040519081016040528093929190818152602001838360200280828437600081840152601f19601f82011690508083019250505050505050919291929080359060200190640100000000811115610df157600080fd5b820183602082011115610e0357600080fd5b80359060200191846020830284011164010000000083111715610e2557600080fd5b919080806020026020016040519081016040528093929190818152602001838360200280828437600081840152601f19601f82011690508083019250505050505050919291929080359060200190929190505050612c40565b6040518082815260200191505060405180910390f35b348015610ea057600080fd5b50610f6b60048036036060811015610eb757600080fd5b8101908080359060200190640100000000811115610ed457600080fd5b820183602082011115610ee657600080fd5b80359060200191846020830284011164010000000083111715610f0857600080fd5b919080806020026020016040519081016040528093929190818152602001838360200280828437600081840152601f19601f820116905080830192505050505050509192919290803590602001909291908035906020019092919050505061300a565b6040518080602001828103825283818151815260200191508051906020019060200280838360005b83811015610fae578082015181840152602081019050610f93565b505050509050019250505060405180910390f35b348015610fce57600080fd5b50610fd7613391565b604051808273ffffffffffffffffffffffffffffffffffffffff16815260200191505060405180910390f35b34801561100f57600080fd5b506110186133b5565b604051808263ffffffff16815260200191505060405180910390f35b34801561104057600080fd5b506110496133cb565b604051808261ffff16815260200191505060405180910390f35b34801561106f57600080fd5b506110dc6004803603606081101561108657600080fd5b81019080803573ffffffffffffffffffffffffffffffffffffffff169060200190929190803573ffffffffffffffffffffffffffffffffffffffff169060200190929190803590602001909291905050506133d8565b604051808381526020018281526020019250505060405180910390f35b34801561110557600080fd5b5061125a6004803603606081101561111c57600080fd5b81019080803590602001909291908035906020019064010000000081111561114357600080fd5b82018360208201111561115557600080fd5b8035906020019184602083028401116401000000008311171561117757600080fd5b919080806020026020016040519081016040528093929190818152602001838360200280828437600081840152601f19601f820116905080830192505050505050509192919290803590602001906401000000008111156111d757600080fd5b8201836020820111156111e957600080fd5b8035906020019184602083028401116401000000008311171561120b57600080fd5b919080806020026020016040519081016040528093929190818152602001838360200280828437600081840152601f19601f820116905080830192505050505050509192919290505050613652565b6040518080602001828103825283818151815260200191508051906020019060200280838360005b8381101561129d578082015181840152602081019050611282565b505050509050019250505060405180910390f35b3480156112bd57600080fd5b506112c66137e7565b005b3480156112d457600080fd5b506112dd613854565b604051808273ffffffffffffffffffffffffffffffffffffffff16815260200191505060405180910390f35b6113356004803603602081101561131f57600080fd5b810190808035906020019092919050505061387a565b6040518082815260200191505060405180910390f35b34801561135757600080fd5b50611360613ebf565b005b34801561136e57600080fd5b5061139b6004803603602081101561138557600080fd5b8101908080359060200190929190505050613f46565b604051808273ffffffffffffffffffffffffffffffffffffffff16815260200191505060405180910390f35b3480156113d357600080fd5b506113dc613f82565b60405180821515815260200191505060405180910390f35b34801561140057600080fd5b50611409613f8b565b604051808273ffffffffffffffffffffffffffffffffffffffff16815260200191505060405180910390f35b34801561144157600080fd5b5061144a613fb1565b604051808273ffffffffffffffffffffffffffffffffffffffff16815260200191505060405180910390f35b34801561148257600080fd5b5061148b613fd7565b005b34801561149957600080fd5b506114dc600480360360208110156114b057600080fd5b81019080803573ffffffffffffffffffffffffffffffffffffffff169060200190929190505050614105565b604051808681526020018563ffffffff1681526020018415158152602001831515815260200182151581526020019550505050505060405180910390f35b34801561152657600080fd5b506115696004803603602081101561153d57600080fd5b81019080803573ffffffffffffffffffffffffffffffffffffffff169060200190929190505050614172565b6040518082815260200191505060405180910390f35b34801561158b57600080fd5b506115ce600480360360208110156115a257600080fd5b81019080803573ffffffffffffffffffffffffffffffffffffffff169060200190929190505050614184565b6040518082815260200191505060405180910390f35b3480156115f057600080fd5b506115f96141db565b604051808381526020018281526020019250505060405180910390f35b6116c2600480360360a081101561162c57600080fd5b81019080803573ffffffffffffffffffffffffffffffffffffffff169060200190929190803573ffffffffffffffffffffffffffffffffffffffff16906020019092919080359060200190929190803573ffffffffffffffffffffffffffffffffffffffff169060200190929190803573ffffffffffffffffffffffffffffffffffffffff1690602001909291905050506141ed565b6040518082815260200191505060405180910390f35b3480156116e457600080fd5b50611717600480360360208110156116fb57600080fd5b81019080803563ffffffff169060200190929190505050614547565b005b34801561172557600080fd5b506117686004803603602081101561173c57600080fd5b81019080803573ffffffffffffffffffffffffffffffffffffffff169060200190929190505050614664565b005b34801561177657600080fd5b5061177f614772565b604051808273ffffffffffffffffffffffffffffffffffffffff16815260200191505060405180910390f35b600860008273ffffffffffffffffffffffffffffffffffffffff1673ffffffffffffffffffffffffffffffffffffffff16815260200190815260200160002060010160069054906101000a900460ff1661186d576040517f08c379a00000000000000000000000000000000000000000000000000000000081526004018080602001828103825260138152602001807f4552525f494e56414c49445f524553455256450000000000000000000000000081525060200191505060405180910390fd5b50565b61187861479c565b80600360146101000a81548160ff02191690831515021790555050565b61189d61485f565b60026004819055506118ad61479c565b7f42616e636f72436f6e76657274657255706772616465720000000000000000006118d7816148d9565b6000600780549050905060005b81811015611990576000600782815481106118fb57fe5b9060005260206000200160009054906101000a900473ffffffffffffffffffffffffffffffffffffffff16905061197b85611955308473ffffffffffffffffffffffffffffffffffffffff1661498590919063ffffffff16565b8373ffffffffffffffffffffffffffffffffffffffff16614a679092919063ffffffff16565b61198481614b09565b508060010190506118e4565b505050600160048190555050565b600960009054906101000a900463ffffffff1681565b60008060008060006119c4617995565b600860008873ffffffffffffffffffffffffffffffffffffffff1673ffffffffffffffffffffffffffffffffffffffff1681526020019081526020016000206040518060a0016040529081600082015481526020016001820160009054906101000a900463ffffffff1663ffffffff1663ffffffff1681526020016001820160049054906101000a900460ff161515151581526020016001820160059054906101000a900460ff161515151581526020016001820160069054906101000a900460ff1615151515815250509050806000015181602001516000808460800151955095509550955095505091939590929450565b60606000600560009054906101000a900473ffffffffffffffffffffffffffffffffffffffff1673ffffffffffffffffffffffffffffffffffffffff166318160ddd6040518163ffffffff1660e01b815260040160206040518083038186803b158015611b2357600080fd5b505afa158015611b37573d6000803e3d6000fd5b505050506040513d6020811015611b4d57600080fd5b810190808051906020019092919050505090506000611b8b7f42616e636f72466f726d756c6100000000000000000000000000000000000000614b86565b9050611b9985858484614c3d565b9250505092915050565b600060078281548110611bb257fe5b9060005260206000200160009054906101000a900473ffffffffffffffffffffffffffffffffffffffff169050919050565b600081611bf0816117ab565b600860008473ffffffffffffffffffffffffffffffffffffffff1673ffffffffffffffffffffffffffffffffffffffff16815260200190815260200160002060010160009054906101000a900463ffffffff16915050919050565b600c5481565b600080611c5f8585856133d8565b91509150935093915050565b60008082611c78816117ab565b6009600c9054906101000a900460ff16611cfa576040517f08c379a00000000000000000000000000000000000000000000000000000000081526004018080602001828103825260158152602001807f4552525f4e4f4e5f5354414e444152445f504f4f4c000000000000000000000081525060200191505060405180910390fd5b611d026179d0565b611d0a614dd9565b90506007600081548110611d1a57fe5b9060005260206000200160009054906101000a900473ffffffffffffffffffffffffffffffffffffffff1673ffffffffffffffffffffffffffffffffffffffff168573ffffffffffffffffffffffffffffffffffffffff161415611d8c57806000015181602001519350935050611d9c565b8060200151816000015193509350505b50915091565b611daa61479c565b611db38161278d565b50565b60003073ffffffffffffffffffffffffffffffffffffffff16600560009054906101000a900473ffffffffffffffffffffffffffffffffffffffff1673ffffffffffffffffffffffffffffffffffffffff16638da5cb5b6040518163ffffffff1660e01b815260040160206040518083038186803b158015611e3757600080fd5b505afa158015611e4b573d6000803e3d6000fd5b505050506040513d6020811015611e6157600080fd5b810190808051906020019092919050505073ffffffffffffffffffffffffffffffffffffffff1614905090565b600080600560009054906101000a900473ffffffffffffffffffffffffffffffffffffffff1673ffffffffffffffffffffffffffffffffffffffff166318160ddd6040518163ffffffff1660e01b815260040160206040518083038186803b158015611ef957600080fd5b505afa158015611f0d573d6000803e3d6000fd5b505050506040513d6020811015611f2357600080fd5b810190808051906020019092919050505090506000611f617f42616e636f72466f726d756c6100000000000000000000000000000000000000614b86565b9050611f6f81838787615098565b9250505092915050565b600360149054906101000a900460ff1681565b611f9461479c565b611f9c613ebf565b565b6009600c9054906101000a900460ff1681565b60006001905090565b6060611fc461485f565b600260048190555060008211612042576040517f08c379a000000000000000000000000000000000000000000000000000000000815260040180806020018281038252600f8152602001807f4552525f5a45524f5f414d4f554e54000000000000000000000000000000000081525060200191505060405180910390fd5b6000600560009054906101000a900473ffffffffffffffffffffffffffffffffffffffff1673ffffffffffffffffffffffffffffffffffffffff166318160ddd6040518163ffffffff1660e01b815260040160206040518083038186803b1580156120ac57600080fd5b505afa1580156120c0573d6000803e3d6000fd5b505050506040513d60208110156120d657600080fd5b81019080805190602001909291905050509050600560009054906101000a900473ffffffffffffffffffffffffffffffffffffffff1673ffffffffffffffffffffffffffffffffffffffff1663a24835d133856040518363ffffffff1660e01b8152600401808373ffffffffffffffffffffffffffffffffffffffff16815260200182815260200192505050600060405180830381600087803b15801561217c57600080fd5b505af1158015612190573d6000803e3d6000fd5b50505050606060078054905067ffffffffffffffff811180156121b257600080fd5b506040519080825280602002602001820160405280156121e15781602001602082028036833780820191505090505b50905060005b81518110156122175760018282815181106121fe57fe5b60200260200101818152505080806001019150506121e7565b506122aa600780548060200260200160405190810160405280929190818152602001828054801561229d57602002820191906000526020600020905b8160009054906101000a900473ffffffffffffffffffffffffffffffffffffffff1673ffffffffffffffffffffffffffffffffffffffff1681526020019060010190808311612253575b50505050508284876152a7565b925050506001600481905550919050565b60008054906101000a900473ffffffffffffffffffffffffffffffffffffffff1673ffffffffffffffffffffffffffffffffffffffff163373ffffffffffffffffffffffffffffffffffffffff1614806123225750600360149054906101000a900460ff16155b612394576040517f08c379a00000000000000000000000000000000000000000000000000000000081526004018080602001828103825260118152602001807f4552525f4143434553535f44454e49454400000000000000000000000000000081525060200191505060405180910390fd5b60006123bf7f436f6e7472616374526567697374727900000000000000000000000000000000614b86565b9050600260009054906101000a900473ffffffffffffffffffffffffffffffffffffffff1673ffffffffffffffffffffffffffffffffffffffff168173ffffffffffffffffffffffffffffffffffffffff161415801561244c5750600073ffffffffffffffffffffffffffffffffffffffff168173ffffffffffffffffffffffffffffffffffffffff1614155b6124be576040517f08c379a00000000000000000000000000000000000000000000000000000000081526004018080602001828103825260148152602001807f4552525f494e56414c49445f524547495354525900000000000000000000000081525060200191505060405180910390fd5b600073ffffffffffffffffffffffffffffffffffffffff168173ffffffffffffffffffffffffffffffffffffffff1663bb34534c7f436f6e74726163745265676973747279000000000000000000000000000000006040518263ffffffff1660e01b81526004018082815260200191505060206040518083038186803b15801561254757600080fd5b505afa15801561255b573d6000803e3d6000fd5b505050506040513d602081101561257157600080fd5b810190808051906020019092919050505073ffffffffffffffffffffffffffffffffffffffff16141561260c576040517f08c379a00000000000000000000000000000000000000000000000000000000081526004018080602001828103825260148152602001807f4552525f494e56414c49445f524547495354525900000000000000000000000081525060200191505060405180910390fd5b600260009054906101000a900473ffffffffffffffffffffffffffffffffffffffff16600360006101000a81548173ffffffffffffffffffffffffffffffffffffffff021916908373ffffffffffffffffffffffffffffffffffffffff16021790555080600260006101000a81548173ffffffffffffffffffffffffffffffffffffffff021916908373ffffffffffffffffffffffffffffffffffffffff16021790555050565b6126bb61479c565b80600660006101000a81548173ffffffffffffffffffffffffffffffffffffffff021916908373ffffffffffffffffffffffffffffffffffffffff16021790555050565b61270761485f565b600260048190555061271761479c565b7f42616e636f72436f6e7665727465725570677261646572000000000000000000612741816148d9565b506001600481905550565b602f81565b600960089054906101000a900463ffffffff1681565b600360009054906101000a900473ffffffffffffffffffffffffffffffffffffffff1681565b61279561479c565b7f42616e636f72436f6e76657274657255706772616465720000000000000000006127bf816148d9565b600560009054906101000a900473ffffffffffffffffffffffffffffffffffffffff1673ffffffffffffffffffffffffffffffffffffffff1663f2fde38b836040518263ffffffff1660e01b8152600401808273ffffffffffffffffffffffffffffffffffffffff168152602001915050600060405180830381600087803b15801561284a57600080fd5b505af115801561285e573d6000803e3d6000fd5b505050505050565b61286e61479c565b6128788282615587565b600260078054905014801561293557506002620f424063ffffffff168161289b57fe5b0463ffffffff166008600060076000815481106128b457fe5b9060005260206000200160009054906101000a900473ffffffffffffffffffffffffffffffffffffffff1673ffffffffffffffffffffffffffffffffffffffff1673ffffffffffffffffffffffffffffffffffffffff16815260200190815260200160002060010160009054906101000a900463ffffffff1663ffffffff16145b80156129e957506002620f424063ffffffff168161294f57fe5b0463ffffffff1660086000600760018154811061296857fe5b9060005260206000200160009054906101000a900473ffffffffffffffffffffffffffffffffffffffff1673ffffffffffffffffffffffffffffffffffffffff1673ffffffffffffffffffffffffffffffffffffffff16815260200190815260200160002060010160009054906101000a900463ffffffff1663ffffffff16145b6009600c6101000a81548160ff0219169083151502179055505050565b6000612a106133cb565b905090565b600160009054906101000a900473ffffffffffffffffffffffffffffffffffffffff1673ffffffffffffffffffffffffffffffffffffffff163373ffffffffffffffffffffffffffffffffffffffff1614612ad8576040517f08c379a00000000000000000000000000000000000000000000000000000000081526004018080602001828103825260118152602001807f4552525f4143434553535f44454e49454400000000000000000000000000000081525060200191505060405180910390fd5b600160009054906101000a900473ffffffffffffffffffffffffffffffffffffffff1673ffffffffffffffffffffffffffffffffffffffff1660008054906101000a900473ffffffffffffffffffffffffffffffffffffffff1673ffffffffffffffffffffffffffffffffffffffff167f343765429aea5a34b3ff6a3785a98a5abb2597aca87bfbb58632c173d585373a60405160405180910390a3600160009054906101000a900473ffffffffffffffffffffffffffffffffffffffff166000806101000a81548173ffffffffffffffffffffffffffffffffffffffff021916908373ffffffffffffffffffffffffffffffffffffffff1602179055506000600160006101000a81548173ffffffffffffffffffffffffffffffffffffffff021916908373ffffffffffffffffffffffffffffffffffffffff160217905550565b600260009054906101000a900473ffffffffffffffffffffffffffffffffffffffff1681565b6000612c4a61485f565b6002600481905550612c5a615932565b612c658484846159ae565b60005b8451811015612d3e57612ca3858281518110612c8057fe5b602002602001015173ffffffffffffffffffffffffffffffffffffffff16615daf565b15612d315734848281518110612cb557fe5b602002602001015114612d30576040517f08c379a00000000000000000000000000000000000000000000000000000000081526004018080602001828103825260178152602001807f4552525f4554485f414d4f554e545f4d49534d4154434800000000000000000081525060200191505060405180910390fd5b5b8080600101915050612c68565b506000341115612e1f576008600073eeeeeeeeeeeeeeeeeeeeeeeeeeeeeeeeeeeeeeee73ffffffffffffffffffffffffffffffffffffffff1673ffffffffffffffffffffffffffffffffffffffff16815260200190815260200160002060010160069054906101000a900460ff16612e1e576040517f08c379a00000000000000000000000000000000000000000000000000000000081526004018080602001828103825260128152602001807f4552525f4e4f5f4554485f52455345525645000000000000000000000000000081525060200191505060405180910390fd5b5b6000600560009054906101000a900473ffffffffffffffffffffffffffffffffffffffff1673ffffffffffffffffffffffffffffffffffffffff166318160ddd6040518163ffffffff1660e01b815260040160206040518083038186803b158015612e8957600080fd5b505afa158015612e9d573d6000803e3d6000fd5b505050506040513d6020811015612eb357600080fd5b810190808051906020019092919050505090506000612ed3868684615dfb565b905083811015612f4b576040517f08c379a00000000000000000000000000000000000000000000000000000000081526004018080602001828103825260128152602001807f4552525f52455455524e5f544f4f5f4c4f57000000000000000000000000000081525060200191505060405180910390fd5b600560009054906101000a900473ffffffffffffffffffffffffffffffffffffffff1673ffffffffffffffffffffffffffffffffffffffff1663867904b433836040518363ffffffff1660e01b8152600401808373ffffffffffffffffffffffffffffffffffffffff16815260200182815260200192505050600060405180830381600087803b158015612fde57600080fd5b505af1158015612ff2573d6000803e3d6000fd5b50505050809250505060016004819055509392505050565b606080845167ffffffffffffffff8111801561302557600080fd5b506040519080825280602002602001820160405280156130545781602001602082028036833780820191505090505b5090506000600560009054906101000a900473ffffffffffffffffffffffffffffffffffffffff1673ffffffffffffffffffffffffffffffffffffffff166318160ddd6040518163ffffffff1660e01b815260040160206040518083038186803b1580156130c157600080fd5b505afa1580156130d5573d6000803e3d6000fd5b505050506040513d60208110156130eb57600080fd5b8101908080519060200190929190505050905060006131297f42616e636f72466f726d756c6100000000000000000000000000000000000000614b86565b905060008173ffffffffffffffffffffffffffffffffffffffff16632f55bdb584600860008c8c8151811061315a57fe5b602002602001015173ffffffffffffffffffffffffffffffffffffffff1673ffffffffffffffffffffffffffffffffffffffff16815260200190815260200160002060000154600960009054906101000a900463ffffffff168a6040518563ffffffff1660e01b8152600401808581526020018481526020018363ffffffff16815260200182815260200194505050505060206040518083038186803b15801561320357600080fd5b505afa158015613217573d6000803e3d6000fd5b505050506040513d602081101561322d57600080fd5b8101908080519060200190929190505050905060005b8451811015613382578273ffffffffffffffffffffffffffffffffffffffff1663ebbb215885600860008d868151811061327957fe5b602002602001015173ffffffffffffffffffffffffffffffffffffffff1673ffffffffffffffffffffffffffffffffffffffff16815260200190815260200160002060000154600960009054906101000a900463ffffffff16866040518563ffffffff1660e01b8152600401808581526020018481526020018363ffffffff16815260200182815260200194505050505060206040518083038186803b15801561332257600080fd5b505afa158015613336573d6000803e3d6000fd5b505050506040513d602081101561334c57600080fd5b810190808051906020019092919050505085828151811061336957fe5b6020026020010181815250508080600101915050613243565b50839450505050509392505050565b60008054906101000a900473ffffffffffffffffffffffffffffffffffffffff1681565b600960049054906101000a900463ffffffff1681565b6000600780549050905090565b6000806133e3615932565b846133ed816117ab565b846133f7816117ab565b8573ffffffffffffffffffffffffffffffffffffffff168773ffffffffffffffffffffffffffffffffffffffff161415613499576040517f08c379a00000000000000000000000000000000000000000000000000000000081526004018080602001828103825260168152602001807f4552525f53414d455f534f555243455f5441524745540000000000000000000081525060200191505060405180910390fd5b60006134c47f42616e636f72466f726d756c6100000000000000000000000000000000000000614b86565b73ffffffffffffffffffffffffffffffffffffffff166394491fab6134e88a614184565b600860008c73ffffffffffffffffffffffffffffffffffffffff1673ffffffffffffffffffffffffffffffffffffffff16815260200190815260200160002060010160009054906101000a900463ffffffff166135448b614184565b600860008d73ffffffffffffffffffffffffffffffffffffffff1673ffffffffffffffffffffffffffffffffffffffff16815260200190815260200160002060010160009054906101000a900463ffffffff168b6040518663ffffffff1660e01b8152600401808681526020018563ffffffff1681526020018481526020018363ffffffff1681526020018281526020019550505050505060206040518083038186803b1580156135f457600080fd5b505afa158015613608573d6000803e3d6000fd5b505050506040513d602081101561361e57600080fd5b81019080805190602001909291905050509050600061363c82615e2b565b9050808203819550955050505050935093915050565b606061365c61485f565b600260048190555061366c615932565b6136778383866159ae565b6000600560009054906101000a900473ffffffffffffffffffffffffffffffffffffffff1673ffffffffffffffffffffffffffffffffffffffff166318160ddd6040518163ffffffff1660e01b815260040160206040518083038186803b1580156136e157600080fd5b505afa1580156136f5573d6000803e3d6000fd5b505050506040513d602081101561370b57600080fd5b81019080805190602001909291905050509050600560009054906101000a900473ffffffffffffffffffffffffffffffffffffffff1673ffffffffffffffffffffffffffffffffffffffff1663a24835d133876040518363ffffffff1660e01b8152600401808373ffffffffffffffffffffffffffffffffffffffff16815260200182815260200192505050600060405180830381600087803b1580156137b157600080fd5b505af11580156137c5573d6000803e3d6000fd5b505050506137d5848483886152a7565b91505060016004819055509392505050565b6137ef61479c565b600360009054906101000a900473ffffffffffffffffffffffffffffffffffffffff16600260006101000a81548173ffffffffffffffffffffffffffffffffffffffff021916908373ffffffffffffffffffffffffffffffffffffffff160217905550565b600660009054906101000a900473ffffffffffffffffffffffffffffffffffffffff1681565b600061388461485f565b6002600481905550613894615e71565b6138fd346008600073eeeeeeeeeeeeeeeeeeeeeeeeeeeeeeeeeeeeeeee73ffffffffffffffffffffffffffffffffffffffff1673ffffffffffffffffffffffffffffffffffffffff16815260200190815260200160002060000154615ed790919063ffffffff16565b6008600073eeeeeeeeeeeeeeeeeeeeeeeeeeeeeeeeeeeeeeee73ffffffffffffffffffffffffffffffffffffffff1673ffffffffffffffffffffffffffffffffffffffff168152602001908152602001600020600001819055506000600560009054906101000a900473ffffffffffffffffffffffffffffffffffffffff1673ffffffffffffffffffffffffffffffffffffffff166318160ddd6040518163ffffffff1660e01b815260040160206040518083038186803b1580156139c157600080fd5b505afa1580156139d5573d6000803e3d6000fd5b505050506040513d60208110156139eb57600080fd5b810190808051906020019092919050505090506000613a297f42616e636f72466f726d756c6100000000000000000000000000000000000000614b86565b90506000600780549050905060005b81811015613e0057600060078281548110613a4f57fe5b9060005260206000200160009054906101000a900473ffffffffffffffffffffffffffffffffffffffff1690506000600860008373ffffffffffffffffffffffffffffffffffffffff1673ffffffffffffffffffffffffffffffffffffffff16815260200190815260200160002060000154905060008573ffffffffffffffffffffffffffffffffffffffff1663ebbb21588884600960009054906101000a900463ffffffff168d6040518563ffffffff1660e01b8152600401808581526020018481526020018363ffffffff16815260200182815260200194505050505060206040518083038186803b158015613b4657600080fd5b505afa158015613b5a573d6000803e3d6000fd5b505050506040513d6020811015613b7057600080fd5b81019080805190602001909291905050509050613ba28373ffffffffffffffffffffffffffffffffffffffff16615daf565b15613c785780341115613bfd573373ffffffffffffffffffffffffffffffffffffffff166108fc8234039081150290604051600060405180830381858888f19350505050158015613bf7573d6000803e3d6000fd5b50613c73565b803414613c72576040517f08c379a00000000000000000000000000000000000000000000000000000000081526004018080602001828103825260158152602001807f4552525f494e56414c49445f4554485f56414c5545000000000000000000000081525060200191505060405180910390fd5b5b613ca6565b613ca53330838673ffffffffffffffffffffffffffffffffffffffff16615f5a909392919063ffffffff16565b5b6000613cbb8284615fb490919063ffffffff16565b905080600860008673ffffffffffffffffffffffffffffffffffffffff1673ffffffffffffffffffffffffffffffffffffffff168152602001908152602001600020600001819055506000613d198b8a615fb490919063ffffffff16565b90508473ffffffffffffffffffffffffffffffffffffffff163373ffffffffffffffffffffffffffffffffffffffff167f4a1a2a6176e9646d9e3157f7c2ab3c499f18337c0b0828cfb28e0a61de4a11f785858560405180848152602001838152602001828152602001935050505060405180910390a3613dee818684600860008a73ffffffffffffffffffffffffffffffffffffffff1673ffffffffffffffffffffffffffffffffffffffff16815260200190815260200160002060010160009054906101000a900463ffffffff1661603c565b50505050508080600101915050613a38565b50600560009054906101000a900473ffffffffffffffffffffffffffffffffffffffff1673ffffffffffffffffffffffffffffffffffffffff1663867904b433876040518363ffffffff1660e01b8152600401808373ffffffffffffffffffffffffffffffffffffffff16815260200182815260200192505050600060405180830381600087803b158015613e9457600080fd5b505af1158015613ea8573d6000803e3d6000fd5b505050508493505050506001600481905550919050565b613ec761479c565b613ecf616104565b60011515600560009054906101000a900473ffffffffffffffffffffffffffffffffffffffff1673ffffffffffffffffffffffffffffffffffffffff16613f14611fb1565b61ffff167f6b08c2e2c9969e55a647a764db9b554d64dc42f1a704da11a6d5b129ad163f2c60405160405180910390a4565b60078181548110613f5357fe5b906000526020600020016000915054906101000a900473ffffffffffffffffffffffffffffffffffffffff1681565b60006001905090565b600560009054906101000a900473ffffffffffffffffffffffffffffffffffffffff1681565b600160009054906101000a900473ffffffffffffffffffffffffffffffffffffffff1681565b613fdf61479c565b600061400a7f42616e636f72436f6e7665727465725570677261646572000000000000000000614b86565b905060001515600560009054906101000a900473ffffffffffffffffffffffffffffffffffffffff1673ffffffffffffffffffffffffffffffffffffffff16614051611fb1565b61ffff167f6b08c2e2c9969e55a647a764db9b554d64dc42f1a704da11a6d5b129ad163f2c60405160405180910390a461408a81614664565b8073ffffffffffffffffffffffffffffffffffffffff166390f58c96602f6040518263ffffffff1660e01b8152600401808261ffff168152602001915050600060405180830381600087803b1580156140e257600080fd5b505af11580156140f6573d6000803e3d6000fd5b50505050614102612a15565b50565b60086020528060005260406000206000915090508060000154908060010160009054906101000a900463ffffffff16908060010160049054906101000a900460ff16908060010160059054906101000a900460ff16908060010160069054906101000a900460ff16905085565b600061417d82614184565b9050919050565b600081614190816117ab565b600860008473ffffffffffffffffffffffffffffffffffffffff1673ffffffffffffffffffffffffffffffffffffffff16815260200190815260200160002060000154915050919050565b600a8060000154908060010154905082565b60006141f761485f565b60026004819055507f42616e636f724e6574776f726b00000000000000000000000000000000000000614229816148d9565b8573ffffffffffffffffffffffffffffffffffffffff168773ffffffffffffffffffffffffffffffffffffffff1614156142cb576040517f08c379a00000000000000000000000000000000000000000000000000000000081526004018080602001828103825260168152602001807f4552525f53414d455f534f555243455f5441524745540000000000000000000081525060200191505060405180910390fd5b600073ffffffffffffffffffffffffffffffffffffffff16600660009054906101000a900473ffffffffffffffffffffffffffffffffffffffff1673ffffffffffffffffffffffffffffffffffffffff1614806144b45750600660009054906101000a900473ffffffffffffffffffffffffffffffffffffffff1673ffffffffffffffffffffffffffffffffffffffff16633af32abf856040518263ffffffff1660e01b8152600401808273ffffffffffffffffffffffffffffffffffffffff16815260200191505060206040518083038186803b1580156143ac57600080fd5b505afa1580156143c0573d6000803e3d6000fd5b505050506040513d60208110156143d657600080fd5b810190808051906020019092919050505080156144b35750600660009054906101000a900473ffffffffffffffffffffffffffffffffffffffff1673ffffffffffffffffffffffffffffffffffffffff16633af32abf846040518263ffffffff1660e01b8152600401808273ffffffffffffffffffffffffffffffffffffffff16815260200191505060206040518083038186803b15801561447757600080fd5b505afa15801561448b573d6000803e3d6000fd5b505050506040513d60208110156144a157600080fd5b81019080805190602001909291905050505b5b614526576040517f08c379a00000000000000000000000000000000000000000000000000000000081526004018080602001828103825260138152602001807f4552525f4e4f545f57484954454c49535445440000000000000000000000000081525060200191505060405180910390fd5b614533878787878761618f565b915050600160048190555095945050505050565b61454f61479c565b600960049054906101000a900463ffffffff1663ffffffff168163ffffffff1611156145e3576040517f08c379a000000000000000000000000000000000000000000000000000000000815260040180806020018281038252601a8152602001807f4552525f494e56414c49445f434f4e56455253494f4e5f46454500000000000081525060200191505060405180910390fd5b7f81cd2ffb37dd237c0e4e2a3de5265fcf9deb43d3e7801e80db9f1ccfba7ee600600960089054906101000a900463ffffffff1682604051808363ffffffff1681526020018263ffffffff1681526020019250505060405180910390a180600960086101000a81548163ffffffff021916908363ffffffff16021790555050565b61466c61479c565b60008054906101000a900473ffffffffffffffffffffffffffffffffffffffff1673ffffffffffffffffffffffffffffffffffffffff168173ffffffffffffffffffffffffffffffffffffffff16141561472e576040517f08c379a000000000000000000000000000000000000000000000000000000000815260040180806020018281038252600e8152602001807f4552525f53414d455f4f574e455200000000000000000000000000000000000081525060200191505060405180910390fd5b80600160006101000a81548173ffffffffffffffffffffffffffffffffffffffff021916908373ffffffffffffffffffffffffffffffffffffffff16021790555050565b6000600560009054906101000a900473ffffffffffffffffffffffffffffffffffffffff16905090565b60008054906101000a900473ffffffffffffffffffffffffffffffffffffffff1673ffffffffffffffffffffffffffffffffffffffff163373ffffffffffffffffffffffffffffffffffffffff161461485d576040517f08c379a00000000000000000000000000000000000000000000000000000000081526004018080602001828103825260118152602001807f4552525f4143434553535f44454e49454400000000000000000000000000000081525060200191505060405180910390fd5b565b6001600454146148d7576040517f08c379a000000000000000000000000000000000000000000000000000000000815260040180806020018281038252600e8152602001807f4552525f5245454e5452414e435900000000000000000000000000000000000081525060200191505060405180910390fd5b565b6148e281614b86565b73ffffffffffffffffffffffffffffffffffffffff163373ffffffffffffffffffffffffffffffffffffffff1614614982576040517f08c379a00000000000000000000000000000000000000000000000000000000081526004018080602001828103825260118152602001807f4552525f4143434553535f44454e49454400000000000000000000000000000081525060200191505060405180910390fd5b50565b600061499083615daf565b156149b4578173ffffffffffffffffffffffffffffffffffffffff16319050614a61565b6149bd836164dc565b73ffffffffffffffffffffffffffffffffffffffff166370a08231836040518263ffffffff1660e01b8152600401808273ffffffffffffffffffffffffffffffffffffffff16815260200191505060206040518083038186803b158015614a2357600080fd5b505afa158015614a37573d6000803e3d6000fd5b505050506040513d6020811015614a4d57600080fd5b810190808051906020019092919050505090505b92915050565b6000811415614a7557614b04565b614a7e83615daf565b15614acf578173ffffffffffffffffffffffffffffffffffffffff166108fc829081150290604051600060405180830381858888f19350505050158015614ac9573d6000803e3d6000fd5b50614b03565b614b028282614add866164dc565b73ffffffffffffffffffffffffffffffffffffffff166164e69092919063ffffffff16565b5b5b505050565b80614b13816117ab565b614b3c308373ffffffffffffffffffffffffffffffffffffffff1661498590919063ffffffff16565b600860008473ffffffffffffffffffffffffffffffffffffffff1673ffffffffffffffffffffffffffffffffffffffff168152602001908152602001600020600001819055505050565b6000600260009054906101000a900473ffffffffffffffffffffffffffffffffffffffff1673ffffffffffffffffffffffffffffffffffffffff1663bb34534c836040518263ffffffff1660e01b81526004018082815260200191505060206040518083038186803b158015614bfb57600080fd5b505afa158015614c0f573d6000803e3d6000fd5b505050506040513d6020811015614c2557600080fd5b81019080805190602001909291905050509050919050565b606080845167ffffffffffffffff81118015614c5857600080fd5b50604051908082528060200260200182016040528015614c875781602001602082028036833780820191505090505b50905060005b8151811015614dcc578373ffffffffffffffffffffffffffffffffffffffff16638074590a86600860008a8681518110614cc357fe5b602002602001015173ffffffffffffffffffffffffffffffffffffffff1673ffffffffffffffffffffffffffffffffffffffff16815260200190815260200160002060000154600960009054906101000a900463ffffffff168b6040518563ffffffff1660e01b8152600401808581526020018481526020018363ffffffff16815260200182815260200194505050505060206040518083038186803b158015614d6c57600080fd5b505afa158015614d80573d6000803e3d6000fd5b505050506040513d6020811015614d9657600080fd5b8101908080519060200190929190505050828281518110614db357fe5b6020026020010181815250508080600101915050614c8d565b5080915050949350505050565b614de16179d0565b6000600c54614dee616588565b0390506000811415614e2357600a60405180604001604052908160008201548152602001600182015481525050915050615095565b6000600860006007600181548110614e3757fe5b9060005260206000200160009054906101000a900473ffffffffffffffffffffffffffffffffffffffff1673ffffffffffffffffffffffffffffffffffffffff1673ffffffffffffffffffffffffffffffffffffffff1681526020019081526020016000206000015490506000600860006007600081548110614eb657fe5b9060005260206000200160009054906101000a900473ffffffffffffffffffffffffffffffffffffffff1673ffffffffffffffffffffffffffffffffffffffff1673ffffffffffffffffffffffffffffffffffffffff1681526020019081526020016000206000015490506102588310614f49576040518060400160405280838152602001828152509350505050615095565b614f516179d0565b600a60405180604001604052908160008201548152602001600182015481525050905060008160000151148015614f8c575060008160200151145b15614fb157604051806040016040528084815260200183815250945050505050615095565b6000614fca84836020015161659090919063ffffffff16565b90506000614fe584846000015161659090919063ffffffff16565b90506000615024614fff888561659090919063ffffffff16565b61501689610258038561659090919063ffffffff16565b615fb490919063ffffffff16565b9050600061505361025861504588886020015161659090919063ffffffff16565b61659090919063ffffffff16565b905061506d82826c0c9f2c9cd04674edea40000000616616565b8092508193505050604051806040016040528083815260200182815250985050505050505050505b90565b60008060009050600060086000866000815181106150b257fe5b602002602001015173ffffffffffffffffffffffffffffffffffffffff1673ffffffffffffffffffffffffffffffffffffffff1681526020019081526020016000206000015490506000600190505b85518110156151cb5760006008600088848151811061511c57fe5b602002602001015173ffffffffffffffffffffffffffffffffffffffff1673ffffffffffffffffffffffffffffffffffffffff16815260200190815260200160002060000154905061518a8187868151811061517457fe5b602002602001015161659090919063ffffffff16565b6151b08488858151811061519a57fe5b602002602001015161659090919063ffffffff16565b10156151bd578193508092505b508080600101915050615101565b508673ffffffffffffffffffffffffffffffffffffffff16632f55bdb58783600960009054906101000a900463ffffffff1688878151811061520957fe5b60200260200101516040518563ffffffff1660e01b8152600401808581526020018481526020018363ffffffff16815260200182815260200194505050505060206040518083038186803b15801561526057600080fd5b505afa158015615274573d6000803e3d6000fd5b505050506040513d602081101561528a57600080fd5b810190808051906020019092919050505092505050949350505050565b60606152b1615e71565b60006152dc7f42616e636f72466f726d756c6100000000000000000000000000000000000000614b86565b905060006152f38486615ed790919063ffffffff16565b9050606061530385898886614c3d565b905060005b885181101561557857600089828151811061531f57fe5b60200260200101519050600083838151811061533757fe5b6020026020010151905089838151811061534d57fe5b60200260200101518110156153ca576040517f08c379a00000000000000000000000000000000000000000000000000000000081526004018080602001828103825260168152602001807f4552525f5a45524f5f5441524745545f414d4f554e540000000000000000000081525060200191505060405180910390fd5b600061542182600860008673ffffffffffffffffffffffffffffffffffffffff1673ffffffffffffffffffffffffffffffffffffffff16815260200190815260200160002060000154615ed790919063ffffffff16565b905080600860008573ffffffffffffffffffffffffffffffffffffffff1673ffffffffffffffffffffffffffffffffffffffff1681526020019081526020016000206000018190555061549533838573ffffffffffffffffffffffffffffffffffffffff16614a679092919063ffffffff16565b8273ffffffffffffffffffffffffffffffffffffffff163373ffffffffffffffffffffffffffffffffffffffff167fbc7d19d505c7ec4db83f3b51f19fb98c4c8a99922e7839d1ee608dfbee29501b84848a60405180848152602001838152602001828152602001935050505060405180910390a3615568868483600860008873ffffffffffffffffffffffffffffffffffffffff1673ffffffffffffffffffffffffffffffffffffffff16815260200190815260200160002060010160009054906101000a900463ffffffff1661603c565b5050508080600101915050615308565b50809350505050949350505050565b61558f61479c565b61559761666e565b816155a1816166eb565b816155ab816167c9565b600560009054906101000a900473ffffffffffffffffffffffffffffffffffffffff1673ffffffffffffffffffffffffffffffffffffffff168473ffffffffffffffffffffffffffffffffffffffff16141580156156565750600860008573ffffffffffffffffffffffffffffffffffffffff1673ffffffffffffffffffffffffffffffffffffffff16815260200190815260200160002060010160069054906101000a900460ff16155b6156c8576040517f08c379a00000000000000000000000000000000000000000000000000000000081526004018080602001828103825260138152602001807f4552525f494e56414c49445f524553455256450000000000000000000000000081525060200191505060405180910390fd5b600960009054906101000a900463ffffffff16620f42400363ffffffff168363ffffffff161115615761576040517f08c379a000000000000000000000000000000000000000000000000000000000815260040180806020018281038252601a8152602001807f4552525f494e56414c49445f524553455256455f57454947485400000000000081525060200191505060405180910390fd5b7fffffffffffffffffffffffffffffffffffffffffffffffffffffffffffffffff61ffff1661578e6133cb565b61ffff1610615805576040517f08c379a00000000000000000000000000000000000000000000000000000000081526004018080602001828103825260198152602001807f4552525f494e56414c49445f524553455256455f434f554e540000000000000081525060200191505060405180910390fd5b6000600860008673ffffffffffffffffffffffffffffffffffffffff1673ffffffffffffffffffffffffffffffffffffffff168152602001908152602001600020905060008160000181905550838160010160006101000a81548163ffffffff021916908363ffffffff16021790555060018160010160066101000a81548160ff0219169083151502179055506007859080600181540180825580915050600190039060005260206000200160009091909190916101000a81548173ffffffffffffffffffffffffffffffffffffffff021916908373ffffffffffffffffffffffffffffffffffffffff16021790555083600960008282829054906101000a900463ffffffff160192506101000a81548163ffffffff021916908363ffffffff1602179055505050505050565b61593a611db6565b6159ac576040517f08c379a000000000000000000000000000000000000000000000000000000000815260040180806020018281038252600c8152602001807f4552525f494e414354495645000000000000000000000000000000000000000081525060200191505060405180910390fd5b565b6000806000600780549050905085518114615a31576040517f08c379a00000000000000000000000000000000000000000000000000000000081526004018080602001828103825260148152602001807f4552525f494e56414c49445f524553455256455300000000000000000000000081525060200191505060405180910390fd5b84518114615aa7576040517f08c379a00000000000000000000000000000000000000000000000000000000081526004018080602001828103825260138152602001807f4552525f494e56414c49445f414d4f554e54530000000000000000000000000081525060200191505060405180910390fd5b600092505b80831015615d315760086000878581518110615ac457fe5b602002602001015173ffffffffffffffffffffffffffffffffffffffff1673ffffffffffffffffffffffffffffffffffffffff16815260200190815260200160002060010160069054906101000a900460ff16615b89576040517f08c379a00000000000000000000000000000000000000000000000000000000081526004018080602001828103825260138152602001807f4552525f494e56414c49445f524553455256450000000000000000000000000081525060200191505060405180910390fd5b600091505b80821015615c2657858281518110615ba257fe5b602002602001015173ffffffffffffffffffffffffffffffffffffffff1660078481548110615bcd57fe5b9060005260206000200160009054906101000a900473ffffffffffffffffffffffffffffffffffffffff1673ffffffffffffffffffffffffffffffffffffffff161415615c1957615c26565b8180600101925050615b8e565b808210615c9b576040517f08c379a00000000000000000000000000000000000000000000000000000000081526004018080602001828103825260138152602001807f4552525f494e56414c49445f524553455256450000000000000000000000000081525060200191505060405180910390fd5b6000858481518110615ca957fe5b602002602001015111615d24576040517f08c379a000000000000000000000000000000000000000000000000000000000815260040180806020018281038252600f8152602001807f4552525f5a45524f5f414d4f554e54000000000000000000000000000000000081525060200191505060405180910390fd5b8280600101935050615aac565b60008411615da7576040517f08c379a000000000000000000000000000000000000000000000000000000000815260040180806020018281038252600f8152602001807f4552525f5a45524f5f414d4f554e54000000000000000000000000000000000081525060200191505060405180910390fd5b505050505050565b600073eeeeeeeeeeeeeeeeeeeeeeeeeeeeeeeeeeeeeeee73ffffffffffffffffffffffffffffffffffffffff168273ffffffffffffffffffffffffffffffffffffffff16149050919050565b600080821415615e1657615e0f8484616863565b9050615e24565b615e21848484616a0e565b90505b9392505050565b6000620f424063ffffffff16615e62600960089054906101000a900463ffffffff1663ffffffff168461659090919063ffffffff16565b81615e6957fe5b049050919050565b6000600780549050905060005b81811015615ed357615ec660078281548110615e9657fe5b9060005260206000200160009054906101000a900473ffffffffffffffffffffffffffffffffffffffff16614b09565b8080600101915050615e7e565b5050565b600082821115615f4f576040517f08c379a000000000000000000000000000000000000000000000000000000000815260040180806020018281038252601e8152602001807f536166654d6174683a207375627472616374696f6e206f766572666c6f77000081525060200191505060405180910390fd5b818303905092915050565b6000811480615f6e5750615f6d84615daf565b5b15615f7857615fae565b615fad838383615f87886164dc565b73ffffffffffffffffffffffffffffffffffffffff16616f0b909392919063ffffffff16565b5b50505050565b600080828401905083811015616032576040517f08c379a000000000000000000000000000000000000000000000000000000000815260040180806020018281038252601b8152602001807f536166654d6174683a206164646974696f6e206f766572666c6f77000000000081525060200191505060405180910390fd5b8091505092915050565b8273ffffffffffffffffffffffffffffffffffffffff16600560009054906101000a900473ffffffffffffffffffffffffffffffffffffffff1673ffffffffffffffffffffffffffffffffffffffff167f77f29993cf2c084e726f7e802da0719d6a0ade3e204badc7a3ffd57ecb768c246160c9620f424063ffffffff168661659090919063ffffffff16565b6160e28563ffffffff168961659090919063ffffffff16565b604051808381526020018281526020019250505060405180910390a350505050565b600161610e6133cb565b61ffff1611616185576040517f08c379a00000000000000000000000000000000000000000000000000000000081526004018080602001828103825260198152602001807f4552525f494e56414c49445f524553455256455f434f554e540000000000000081525060200191505060405180910390fd5b61618d616fcc565b565b60006009600c9054906101000a900460ff1680156161b557506161b0616588565b600c54105b156161ea576161c2614dd9565b600a60008201518160000155602082015181600101559050506161e3616588565b600c819055505b6000806161f88888886133d8565b915091506000821415616273576040517f08c379a00000000000000000000000000000000000000000000000000000000081526004018080602001828103825260168152602001807f4552525f5a45524f5f5441524745545f414d4f554e540000000000000000000081525060200191505060405180910390fd5b61627c87614184565b821061628457fe5b6162a38873ffffffffffffffffffffffffffffffffffffffff16615daf565b156163225785341461631d576040517f08c379a00000000000000000000000000000000000000000000000000000000081526004018080602001828103825260178152602001807f4552525f4554485f414d4f554e545f4d49534d4154434800000000000000000081525060200191505060405180910390fd5b6163e7565b60003414801561637457508561637161633a8a614184565b616363308c73ffffffffffffffffffffffffffffffffffffffff1661498590919063ffffffff16565b615ed790919063ffffffff16565b10155b6163e6576040517f08c379a00000000000000000000000000000000000000000000000000000000081526004018080602001828103825260128152602001807f4552525f494e56414c49445f414d4f554e54000000000000000000000000000081525060200191505060405180910390fd5b5b6163f088614b09565b61644582600860008a73ffffffffffffffffffffffffffffffffffffffff1673ffffffffffffffffffffffffffffffffffffffff16815260200190815260200160002060000154615ed790919063ffffffff16565b600860008973ffffffffffffffffffffffffffffffffffffffff1673ffffffffffffffffffffffffffffffffffffffff168152602001908152602001600020600001819055506164b684838973ffffffffffffffffffffffffffffffffffffffff16614a679092919063ffffffff16565b6164c48888878986866170e1565b6164ce888861719e565b819250505095945050505050565b6000819050919050565b6165838363a9059cbb60e01b8484604051602401808373ffffffffffffffffffffffffffffffffffffffff16815260200182815260200192505050604051602081830303815290604052907bffffffffffffffffffffffffffffffffffffffffffffffffffffffff19166020820180517bffffffffffffffffffffffffffffffffffffffffffffffffffffffff83818316178352505050506173d7565b505050565b600042905090565b6000808314156165a35760009050616610565b60008284029050828482816165b457fe5b041461660b576040517f08c379a0000000000000000000000000000000000000000000000000000000008152600401808060200182810382526021815260200180617a116021913960400191505060405180910390fd5b809150505b92915050565b6000806000808686915091508482118061662f57508481115b156166485761663f8282876174c6565b80925081935050505b80821461665c578181935093505050616666565b6001809350935050505b935093915050565b616676611db6565b156166e9576040517f08c379a000000000000000000000000000000000000000000000000000000000815260040180806020018281038252600a8152602001807f4552525f4143544956450000000000000000000000000000000000000000000081525060200191505060405180910390fd5b565b600073ffffffffffffffffffffffffffffffffffffffff168173ffffffffffffffffffffffffffffffffffffffff161415801561675457503073ffffffffffffffffffffffffffffffffffffffff168173ffffffffffffffffffffffffffffffffffffffff1614155b6167c6576040517f08c379a000000000000000000000000000000000000000000000000000000000815260040180806020018281038252601c8152602001807f4552525f494e56414c49445f45585445524e414c5f414444524553530000000081525060200191505060405180910390fd5b50565b60008163ffffffff161180156167ee5750620f424063ffffffff168163ffffffff1611155b616860576040517f08c379a000000000000000000000000000000000000000000000000000000000815260040180806020018281038252601a8152602001807f4552525f494e56414c49445f524553455256455f57454947485400000000000081525060200191505060405180910390fd5b50565b60008061686f83617507565b905060005b8451811015616a0357600085828151811061688b57fe5b6020026020010151905060008583815181106168a357fe5b602002602001015190506168da3330838573ffffffffffffffffffffffffffffffffffffffff16615f5a909392919063ffffffff16565b80600860008473ffffffffffffffffffffffffffffffffffffffff1673ffffffffffffffffffffffffffffffffffffffff168152602001908152602001600020600001819055508173ffffffffffffffffffffffffffffffffffffffff163373ffffffffffffffffffffffffffffffffffffffff167f4a1a2a6176e9646d9e3157f7c2ab3c499f18337c0b0828cfb28e0a61de4a11f783848860405180848152602001838152602001828152602001935050505060405180910390a36169f4848383600860008773ffffffffffffffffffffffffffffffffffffffff1673ffffffffffffffffffffffffffffffffffffffff16815260200190815260200160002060010160009054906101000a900463ffffffff1661603c565b50508080600101915050616874565b508091505092915050565b6000616a18615e71565b616a81346008600073eeeeeeeeeeeeeeeeeeeeeeeeeeeeeeeeeeeeeeee73ffffffffffffffffffffffffffffffffffffffff1673ffffffffffffffffffffffffffffffffffffffff16815260200190815260200160002060000154615ed790919063ffffffff16565b6008600073eeeeeeeeeeeeeeeeeeeeeeeeeeeeeeeeeeeeeeee73ffffffffffffffffffffffffffffffffffffffff1673ffffffffffffffffffffffffffffffffffffffff168152602001908152602001600020600001819055506000616b067f42616e636f72466f726d756c6100000000000000000000000000000000000000614b86565b90506000616b1682858888615098565b90506000616b2d8286615fb490919063ffffffff16565b905060005b8751811015616efd576000888281518110616b4957fe5b602002602001015190506000600860008373ffffffffffffffffffffffffffffffffffffffff1673ffffffffffffffffffffffffffffffffffffffff16815260200190815260200160002060000154905060008673ffffffffffffffffffffffffffffffffffffffff1663ebbb21588a84600960009054906101000a900463ffffffff168a6040518563ffffffff1660e01b8152600401808581526020018481526020018363ffffffff16815260200182815260200194505050505060206040518083038186803b158015616c1d57600080fd5b505afa158015616c31573d6000803e3d6000fd5b505050506040513d6020811015616c4757600080fd5b8101908080519060200190929190505050905060008111616cd0576040517f08c379a00000000000000000000000000000000000000000000000000000000081526004018080602001828103825260168152602001807f4552525f5a45524f5f5441524745545f414d4f554e540000000000000000000081525060200191505060405180910390fd5b898481518110616cdc57fe5b6020026020010151811115616ced57fe5b616d0c8373ffffffffffffffffffffffffffffffffffffffff16615daf565b616d4257616d3d3330838673ffffffffffffffffffffffffffffffffffffffff16615f5a909392919063ffffffff16565b616dbb565b808a8581518110616d4f57fe5b60200260200101511115616dba573373ffffffffffffffffffffffffffffffffffffffff166108fc828c8781518110616d8457fe5b6020026020010151039081150290604051600060405180830381858888f19350505050158015616db8573d6000803e3d6000fd5b505b5b6000616dd08284615fb490919063ffffffff16565b905080600860008673ffffffffffffffffffffffffffffffffffffffff1673ffffffffffffffffffffffffffffffffffffffff168152602001908152602001600020600001819055508373ffffffffffffffffffffffffffffffffffffffff163373ffffffffffffffffffffffffffffffffffffffff167f4a1a2a6176e9646d9e3157f7c2ab3c499f18337c0b0828cfb28e0a61de4a11f784848a60405180848152602001838152602001828152602001935050505060405180910390a3616eec868583600860008973ffffffffffffffffffffffffffffffffffffffff1673ffffffffffffffffffffffffffffffffffffffff16815260200190815260200160002060010160009054906101000a900463ffffffff1661603c565b505050508080600101915050616b32565b508193505050509392505050565b616fc6846323b872dd60e01b858585604051602401808473ffffffffffffffffffffffffffffffffffffffff1681526020018373ffffffffffffffffffffffffffffffffffffffff1681526020018281526020019350505050604051602081830303815290604052907bffffffffffffffffffffffffffffffffffffffffffffffffffffffff19166020820180517bffffffffffffffffffffffffffffffffffffffffffffffffffffffff83818316178352505050506173d7565b50505050565b616fd461479c565b6000616fde6133cb565b61ffff1611617055576040517f08c379a00000000000000000000000000000000000000000000000000000000081526004018080602001828103825260198152602001807f4552525f494e56414c49445f524553455256455f434f554e540000000000000081525060200191505060405180910390fd5b600560009054906101000a900473ffffffffffffffffffffffffffffffffffffffff1673ffffffffffffffffffffffffffffffffffffffff166379ba50976040518163ffffffff1660e01b8152600401600060405180830381600087803b1580156170bf57600080fd5b505af11580156170d3573d6000803e3d6000fd5b505050506170df615e71565b565b7f8000000000000000000000000000000000000000000000000000000000000000811061710a57fe5b8373ffffffffffffffffffffffffffffffffffffffff168573ffffffffffffffffffffffffffffffffffffffff168773ffffffffffffffffffffffffffffffffffffffff167f276856b36cbc45526a0ba64f44611557a2a8b68662c5388e9fe6d72e86e1c8cb86868660405180848152602001838152602001828152602001935050505060405180910390a4505050505050565b6000600560009054906101000a900473ffffffffffffffffffffffffffffffffffffffff1673ffffffffffffffffffffffffffffffffffffffff166318160ddd6040518163ffffffff1660e01b815260040160206040518083038186803b15801561720857600080fd5b505afa15801561721c573d6000803e3d6000fd5b505050506040513d602081101561723257600080fd5b81019080805190602001909291905050509050600061725084614184565b9050600061725d84614184565b90506000600860008773ffffffffffffffffffffffffffffffffffffffff1673ffffffffffffffffffffffffffffffffffffffff16815260200190815260200160002060010160009054906101000a900463ffffffff1690506000600860008773ffffffffffffffffffffffffffffffffffffffff1673ffffffffffffffffffffffffffffffffffffffff16815260200190815260200160002060010160009054906101000a900463ffffffff16905060006173288363ffffffff168561659090919063ffffffff16565b905060006173458363ffffffff168761659090919063ffffffff16565b90508773ffffffffffffffffffffffffffffffffffffffff168973ffffffffffffffffffffffffffffffffffffffff167f77f29993cf2c084e726f7e802da0719d6a0ade3e204badc7a3ffd57ecb768c248484604051808381526020018281526020019250505060405180910390a36173c0878a888761603c565b6173cc8789878661603c565b505050505050505050565b6060617439826040518060400160405280602081526020017f5361666545524332303a206c6f772d6c6576656c2063616c6c206661696c65648152508573ffffffffffffffffffffffffffffffffffffffff166175669092919063ffffffff16565b90506000815111156174c15780806020019051602081101561745a57600080fd5b81019080805190602001909291905050506174c0576040517f08c379a000000000000000000000000000000000000000000000000000000000815260040180806020018281038252602a815260200180617a32602a913960400191505060405180910390fd5b5b505050565b6000808385116174e4576174db85858561757e565b915091506174ff565b6000806174f286888761757e565b9150915080829350935050505b935093915050565b6000806000905060008351905060005b8181101561754c5761753b85828151811061752e57fe5b602002602001015161767f565b830192508080600101915050617517565b50600161755983836176b9565b03600a0a92505050919050565b606061757584846000856176d9565b90509392505050565b6000806000837fffffffffffffffffffffffffffffffffffffffffffffffffffffffffffffffff816175ac57fe5b049050808611156175e4576000600180830188816175c657fe5b040190508087816175d357fe5b0496508086816175df57fe5b049550505b84861461765b57600084870290506000868801905087811061762557600061760c8383617882565b9050600081880390508181965096505050505050617677565b60028888038161763157fe5b04870382101561764a5760008694509450505050617677565b600180870394509450505050617677565b6002848161766557fe5b046002858161767057fe5b0492509250505b935093915050565b6000806000905060008390505b60008111156176af578180600101925050600a81816176a757fe5b04905061768c565b5080915050919050565b600081600283816176c657fe5b048401816176d057fe5b04905092915050565b606082471015617734576040517f08c379a00000000000000000000000000000000000000000000000000000000081526004018080602001828103825260268152602001806179eb6026913960400191505060405180910390fd5b61773d856178b6565b6177af576040517f08c379a000000000000000000000000000000000000000000000000000000000815260040180806020018281038252601d8152602001807f416464726573733a2063616c6c20746f206e6f6e2d636f6e747261637400000081525060200191505060405180910390fd5b600060608673ffffffffffffffffffffffffffffffffffffffff1685876040518082805190602001908083835b602083106177ff57805182526020820191506020810190506020830392506177dc565b6001836020036101000a03801982511681845116808217855250505050505090500191505060006040518083038185875af1925050503d8060008114617861576040519150601f19603f3d011682016040523d82523d6000602084013e617866565b606091505b50915091506178768282866178c9565b92505050949350505050565b60006002828161788e57fe5b04820382848161789a57fe5b06816178a257fe5b048284816178ac57fe5b0401905092915050565b600080823b905060008111915050919050565b606083156178d95782905061798e565b6000835111156178ec5782518084602001fd5b816040517f08c379a00000000000000000000000000000000000000000000000000000000081526004018080602001828103825283818151815260200191508051906020019080838360005b83811015617953578082015181840152602081019050617938565b50505050905090810190601f1680156179805780820380516001836020036101000a031916815260200191505b509250505060405180910390fd5b9392505050565b6040518060a0016040528060008152602001600063ffffffff1681526020016000151581526020016000151581526020016000151581525090565b60405180604001604052806000815260200160008152509056fe416464726573733a20696e73756666696369656e742062616c616e636520666f722063616c6c536166654d6174683a206d756c7469706c69636174696f6e206f766572666c6f775361666545524332303a204552433230206f7065726174696f6e20646964206e6f742073756363656564a26469706673582212200b75b35eed769b8b0781bc02d9fc8f9a42d6fbd6a422dc235bc7a048c347e14d64736f6c634300060c0033a264697066735822122054eee2d6c259456d005a89180d10cb541b4f006f89253e6200803f699de5ac4164736f6c634300060c0033",
  "immutableReferences": {},
  "source": "// SPDX-License-Identifier: SEE LICENSE IN LICENSE\npragma solidity 0.6.12;\nimport \"./LiquidityPoolV1Converter.sol\";\nimport \"../../interfaces/IConverter.sol\";\nimport \"../../interfaces/ITypedConverterFactory.sol\";\nimport \"../../../token/interfaces/IDSToken.sol\";\n\n/*\n    LiquidityPoolV1Converter Factory\n*/\ncontract LiquidityPoolV1ConverterFactory is ITypedConverterFactory {\n    /**\n     * @dev returns the converter type the factory is associated with\n     *\n     * @return converter type\n     */\n    function converterType() external pure override returns (uint16) {\n        return 1;\n    }\n\n    /**\n     * @dev creates a new converter with the given arguments and transfers\n     * the ownership to the caller\n     *\n     * @param _anchor            anchor governed by the converter\n     * @param _registry          address of a contract registry contract\n     * @param _maxConversionFee  maximum conversion fee, represented in ppm\n     *\n     * @return a new converter\n     */\n    function createConverter(\n        IConverterAnchor _anchor,\n        IContractRegistry _registry,\n        uint32 _maxConversionFee\n    ) external virtual override returns (IConverter) {\n        IConverter converter = new LiquidityPoolV1Converter(IDSToken(address(_anchor)), _registry, _maxConversionFee);\n        converter.transferOwnership(msg.sender);\n        return converter;\n    }\n}\n",
  "sourcePath": "D:\\Work Space\\bancor_project\\core\\contracts\\converter\\types\\liquidity-pool-v1\\LiquidityPoolV1ConverterFactory.sol",
  "compiler": {
    "name": "solc",
    "version": "0.6.12+commit.27d51765.Emscripten.clang"
  },
  "schemaVersion": "3.4.3",
  "updatedAt": "2021-08-23T11:45:54.060Z",
  "devdoc": {
    "kind": "dev",
    "methods": {
      "converterType()": {
        "details": "returns the converter type the factory is associated with",
        "returns": {
          "_0": "converter type"
        }
      },
      "createConverter(address,address,uint32)": {
        "details": "creates a new converter with the given arguments and transfers the ownership to the caller",
        "params": {
          "_anchor": "anchor governed by the converter",
          "_maxConversionFee": "maximum conversion fee, represented in ppm",
          "_registry": "address of a contract registry contract"
        },
        "returns": {
          "_0": "a new converter"
        }
      }
    },
    "version": 1
  },
  "userdoc": {
    "kind": "user",
    "methods": {},
    "version": 1
  }
}