{
  "contractName": "LiquidityProtectionStore",
  "abi": [
    {
      "anonymous": false,
      "inputs": [
        {
          "indexed": true,
          "internalType": "address",
          "name": "_provider",
          "type": "address"
        },
        {
          "indexed": false,
          "internalType": "uint256",
          "name": "_amount",
          "type": "uint256"
        },
        {
          "indexed": false,
          "internalType": "uint256",
          "name": "_expirationTime",
          "type": "uint256"
        }
      ],
      "name": "BalanceLocked",
      "type": "event"
    },
    {
      "anonymous": false,
      "inputs": [
        {
          "indexed": true,
          "internalType": "address",
          "name": "_provider",
          "type": "address"
        },
        {
          "indexed": false,
          "internalType": "uint256",
          "name": "_amount",
          "type": "uint256"
        }
      ],
      "name": "BalanceUnlocked",
      "type": "event"
    },
    {
      "anonymous": false,
      "inputs": [
        {
          "indexed": true,
          "internalType": "address",
          "name": "_prevOwner",
          "type": "address"
        },
        {
          "indexed": true,
          "internalType": "address",
          "name": "_newOwner",
          "type": "address"
        }
      ],
      "name": "OwnerUpdate",
      "type": "event"
    },
    {
      "anonymous": false,
      "inputs": [
        {
          "indexed": true,
          "internalType": "address",
          "name": "_provider",
          "type": "address"
        },
        {
          "indexed": true,
          "internalType": "contract IDSToken",
          "name": "_poolToken",
          "type": "address"
        },
        {
          "indexed": true,
          "internalType": "contract IReserveToken",
          "name": "_reserveToken",
          "type": "address"
        },
        {
          "indexed": false,
          "internalType": "uint256",
          "name": "_poolAmount",
          "type": "uint256"
        },
        {
          "indexed": false,
          "internalType": "uint256",
          "name": "_reserveAmount",
          "type": "uint256"
        }
      ],
      "name": "ProtectionAdded",
      "type": "event"
    },
    {
      "anonymous": false,
      "inputs": [
        {
          "indexed": true,
          "internalType": "address",
          "name": "_provider",
          "type": "address"
        },
        {
          "indexed": true,
          "internalType": "contract IDSToken",
          "name": "_poolToken",
          "type": "address"
        },
        {
          "indexed": true,
          "internalType": "contract IReserveToken",
          "name": "_reserveToken",
          "type": "address"
        },
        {
          "indexed": false,
          "internalType": "uint256",
          "name": "_poolAmount",
          "type": "uint256"
        },
        {
          "indexed": false,
          "internalType": "uint256",
          "name": "_reserveAmount",
          "type": "uint256"
        }
      ],
      "name": "ProtectionRemoved",
      "type": "event"
    },
    {
      "anonymous": false,
      "inputs": [
        {
          "indexed": true,
          "internalType": "address",
          "name": "_provider",
          "type": "address"
        },
        {
          "indexed": false,
          "internalType": "uint256",
          "name": "_prevPoolAmount",
          "type": "uint256"
        },
        {
          "indexed": false,
          "internalType": "uint256",
          "name": "_prevReserveAmount",
          "type": "uint256"
        },
        {
          "indexed": false,
          "internalType": "uint256",
          "name": "_newPoolAmount",
          "type": "uint256"
        },
        {
          "indexed": false,
          "internalType": "uint256",
          "name": "_newReserveAmount",
          "type": "uint256"
        }
      ],
      "name": "ProtectionUpdated",
      "type": "event"
    },
    {
      "anonymous": false,
      "inputs": [
        {
          "indexed": false,
          "internalType": "contract IReserveToken",
          "name": "_token",
          "type": "address"
        },
        {
          "indexed": false,
          "internalType": "uint256",
          "name": "_prevAmount",
          "type": "uint256"
        },
        {
          "indexed": false,
          "internalType": "uint256",
          "name": "_newAmount",
          "type": "uint256"
        }
      ],
      "name": "SystemBalanceUpdated",
      "type": "event"
    },
    {
      "inputs": [],
      "name": "acceptOwnership",
      "outputs": [],
      "stateMutability": "nonpayable",
      "type": "function"
    },
    {
      "inputs": [],
      "name": "newOwner",
      "outputs": [
        {
          "internalType": "address",
          "name": "",
          "type": "address"
        }
      ],
      "stateMutability": "view",
      "type": "function"
    },
    {
      "inputs": [],
      "name": "owner",
      "outputs": [
        {
          "internalType": "address",
          "name": "",
          "type": "address"
        }
      ],
      "stateMutability": "view",
      "type": "function"
    },
    {
      "inputs": [
        {
          "internalType": "address",
          "name": "_newOwner",
          "type": "address"
        }
      ],
      "name": "transferOwnership",
      "outputs": [],
      "stateMutability": "nonpayable",
      "type": "function"
    },
    {
      "inputs": [
        {
          "internalType": "contract IReserveToken",
          "name": "_token",
          "type": "address"
        },
        {
          "internalType": "address",
          "name": "_to",
          "type": "address"
        },
        {
          "internalType": "uint256",
          "name": "_amount",
          "type": "uint256"
        }
      ],
      "name": "withdrawTokens",
      "outputs": [],
      "stateMutability": "nonpayable",
      "type": "function"
    },
    {
      "inputs": [
        {
          "internalType": "address",
          "name": "_provider",
          "type": "address"
        }
      ],
      "name": "protectedLiquidityCount",
      "outputs": [
        {
          "internalType": "uint256",
          "name": "",
          "type": "uint256"
        }
      ],
      "stateMutability": "view",
      "type": "function"
    },
    {
      "inputs": [
        {
          "internalType": "address",
          "name": "_provider",
          "type": "address"
        }
      ],
      "name": "protectedLiquidityIds",
      "outputs": [
        {
          "internalType": "uint256[]",
          "name": "",
          "type": "uint256[]"
        }
      ],
      "stateMutability": "view",
      "type": "function"
    },
    {
      "inputs": [
        {
          "internalType": "address",
          "name": "_provider",
          "type": "address"
        },
        {
          "internalType": "uint256",
          "name": "_index",
          "type": "uint256"
        }
      ],
      "name": "protectedLiquidityId",
      "outputs": [
        {
          "internalType": "uint256",
          "name": "",
          "type": "uint256"
        }
      ],
      "stateMutability": "view",
      "type": "function"
    },
    {
      "inputs": [
        {
          "internalType": "uint256",
          "name": "_id",
          "type": "uint256"
        }
      ],
      "name": "protectedLiquidity",
      "outputs": [
        {
          "internalType": "address",
          "name": "",
          "type": "address"
        },
        {
          "internalType": "contract IDSToken",
          "name": "",
          "type": "address"
        },
        {
          "internalType": "contract IReserveToken",
          "name": "",
          "type": "address"
        },
        {
          "internalType": "uint256",
          "name": "",
          "type": "uint256"
        },
        {
          "internalType": "uint256",
          "name": "",
          "type": "uint256"
        },
        {
          "internalType": "uint256",
          "name": "",
          "type": "uint256"
        },
        {
          "internalType": "uint256",
          "name": "",
          "type": "uint256"
        },
        {
          "internalType": "uint256",
          "name": "",
          "type": "uint256"
        }
      ],
      "stateMutability": "view",
      "type": "function"
    },
    {
      "inputs": [
        {
          "internalType": "address",
          "name": "_provider",
          "type": "address"
        },
        {
          "internalType": "contract IDSToken",
          "name": "_poolToken",
          "type": "address"
        },
        {
          "internalType": "contract IReserveToken",
          "name": "_reserveToken",
          "type": "address"
        },
        {
          "internalType": "uint256",
          "name": "_poolAmount",
          "type": "uint256"
        },
        {
          "internalType": "uint256",
          "name": "_reserveAmount",
          "type": "uint256"
        },
        {
          "internalType": "uint256",
          "name": "_reserveRateN",
          "type": "uint256"
        },
        {
          "internalType": "uint256",
          "name": "_reserveRateD",
          "type": "uint256"
        },
        {
          "internalType": "uint256",
          "name": "_timestamp",
          "type": "uint256"
        }
      ],
      "name": "addProtectedLiquidity",
      "outputs": [
        {
          "internalType": "uint256",
          "name": "",
          "type": "uint256"
        }
      ],
      "stateMutability": "nonpayable",
      "type": "function"
    },
    {
      "inputs": [
        {
          "internalType": "uint256",
          "name": "_id",
          "type": "uint256"
        },
        {
          "internalType": "uint256",
          "name": "_newPoolAmount",
          "type": "uint256"
        },
        {
          "internalType": "uint256",
          "name": "_newReserveAmount",
          "type": "uint256"
        }
      ],
      "name": "updateProtectedLiquidityAmounts",
      "outputs": [],
      "stateMutability": "nonpayable",
      "type": "function"
    },
    {
      "inputs": [
        {
          "internalType": "uint256",
          "name": "_id",
          "type": "uint256"
        }
      ],
      "name": "removeProtectedLiquidity",
      "outputs": [],
      "stateMutability": "nonpayable",
      "type": "function"
    },
    {
      "inputs": [
        {
          "internalType": "address",
          "name": "_provider",
          "type": "address"
        }
      ],
      "name": "lockedBalanceCount",
      "outputs": [
        {
          "internalType": "uint256",
          "name": "",
          "type": "uint256"
        }
      ],
      "stateMutability": "view",
      "type": "function"
    },
    {
      "inputs": [
        {
          "internalType": "address",
          "name": "_provider",
          "type": "address"
        },
        {
          "internalType": "uint256",
          "name": "_index",
          "type": "uint256"
        }
      ],
      "name": "lockedBalance",
      "outputs": [
        {
          "internalType": "uint256",
          "name": "",
          "type": "uint256"
        },
        {
          "internalType": "uint256",
          "name": "",
          "type": "uint256"
        }
      ],
      "stateMutability": "view",
      "type": "function"
    },
    {
      "inputs": [
        {
          "internalType": "address",
          "name": "_provider",
          "type": "address"
        },
        {
          "internalType": "uint256",
          "name": "_startIndex",
          "type": "uint256"
        },
        {
          "internalType": "uint256",
          "name": "_endIndex",
          "type": "uint256"
        }
      ],
      "name": "lockedBalanceRange",
      "outputs": [
        {
          "internalType": "uint256[]",
          "name": "",
          "type": "uint256[]"
        },
        {
          "internalType": "uint256[]",
          "name": "",
          "type": "uint256[]"
        }
      ],
      "stateMutability": "view",
      "type": "function"
    },
    {
      "inputs": [
        {
          "internalType": "address",
          "name": "_provider",
          "type": "address"
        },
        {
          "internalType": "uint256",
          "name": "_amount",
          "type": "uint256"
        },
        {
          "internalType": "uint256",
          "name": "_expirationTime",
          "type": "uint256"
        }
      ],
      "name": "addLockedBalance",
      "outputs": [
        {
          "internalType": "uint256",
          "name": "",
          "type": "uint256"
        }
      ],
      "stateMutability": "nonpayable",
      "type": "function"
    },
    {
      "inputs": [
        {
          "internalType": "address",
          "name": "_provider",
          "type": "address"
        },
        {
          "internalType": "uint256",
          "name": "_index",
          "type": "uint256"
        }
      ],
      "name": "removeLockedBalance",
      "outputs": [],
      "stateMutability": "nonpayable",
      "type": "function"
    },
    {
      "inputs": [
        {
          "internalType": "contract IReserveToken",
          "name": "_token",
          "type": "address"
        }
      ],
      "name": "systemBalance",
      "outputs": [
        {
          "internalType": "uint256",
          "name": "",
          "type": "uint256"
        }
      ],
      "stateMutability": "view",
      "type": "function"
    },
    {
      "inputs": [
        {
          "internalType": "contract IReserveToken",
          "name": "_token",
          "type": "address"
        },
        {
          "internalType": "uint256",
          "name": "_amount",
          "type": "uint256"
        }
      ],
      "name": "incSystemBalance",
      "outputs": [],
      "stateMutability": "nonpayable",
      "type": "function"
    },
    {
      "inputs": [
        {
          "internalType": "contract IReserveToken",
          "name": "_token",
          "type": "address"
        },
        {
          "internalType": "uint256",
          "name": "_amount",
          "type": "uint256"
        }
      ],
      "name": "decSystemBalance",
      "outputs": [],
      "stateMutability": "nonpayable",
      "type": "function"
    },
    {
      "inputs": [
        {
          "internalType": "contract IDSToken",
          "name": "_poolToken",
          "type": "address"
        }
      ],
      "name": "totalProtectedPoolAmount",
      "outputs": [
        {
          "internalType": "uint256",
          "name": "",
          "type": "uint256"
        }
      ],
      "stateMutability": "view",
      "type": "function"
    },
    {
      "inputs": [
        {
          "internalType": "contract IDSToken",
          "name": "_poolToken",
          "type": "address"
        },
        {
          "internalType": "contract IReserveToken",
          "name": "_reserveToken",
          "type": "address"
        }
      ],
      "name": "totalProtectedReserveAmount",
      "outputs": [
        {
          "internalType": "uint256",
          "name": "",
          "type": "uint256"
        }
      ],
      "stateMutability": "view",
      "type": "function"
    }
  ],
  "bytecode": "0x608060405234801561001057600080fd5b50336000806101000a81548173ffffffffffffffffffffffffffffffffffffffff021916908373ffffffffffffffffffffffffffffffffffffffff160217905550613257806100606000396000f3fe608060405234801561001057600080fd5b50600436106101425760003560e01c80638da5cb5b116100b8578063d4ee1d901161007c578063d4ee1d901461074f578063dbae3a5d14610783578063f2fde38b146107ef578063f4206dea14610833578063fb6c03fa14610928578063fd589e501461098a57610142565b80638da5cb5b1461057a57806390e0661b146105ae57806396ad435b146105fc578063b089cde814610674578063d3d1e7bd146106b657610142565b80635290ffbb1161010a5780635290ffbb146102fc57806357dac2ec146103b15780635e35359e1461040957806361d5f087146104775780636f366b711461054257806379ba50971461057057610142565b806319c6a5e4146101475780632fb4f04a14610195578063332100fa146101fe57806337fc38df1461024c5780635121220c146102a4575b600080fd5b6101936004803603604081101561015d57600080fd5b81019080803573ffffffffffffffffffffffffffffffffffffffff169060200190929190803590602001909291905050506109e2565b005b6101e1600480360360408110156101ab57600080fd5b81019080803573ffffffffffffffffffffffffffffffffffffffff16906020019092919080359060200190929190505050610af7565b604051808381526020018281526020019250505060405180910390f35b61024a6004803603604081101561021457600080fd5b81019080803573ffffffffffffffffffffffffffffffffffffffff16906020019092919080359060200190929190505050610b6c565b005b61028e6004803603602081101561026257600080fd5b81019080803573ffffffffffffffffffffffffffffffffffffffff169060200190929190505050610c81565b6040518082815260200191505060405180910390f35b6102e6600480360360208110156102ba57600080fd5b81019080803573ffffffffffffffffffffffffffffffffffffffff169060200190929190505050610ccd565b6040518082815260200191505060405180910390f35b6103286004803603602081101561031257600080fd5b8101908080359060200190929190505050610d16565b604051808973ffffffffffffffffffffffffffffffffffffffff1681526020018873ffffffffffffffffffffffffffffffffffffffff1681526020018773ffffffffffffffffffffffffffffffffffffffff1681526020018681526020018581526020018481526020018381526020018281526020019850505050505050505060405180910390f35b6103f3600480360360208110156103c757600080fd5b81019080803573ffffffffffffffffffffffffffffffffffffffff169060200190929190505050610ddd565b6040518082815260200191505060405180910390f35b6104756004803603606081101561041f57600080fd5b81019080803573ffffffffffffffffffffffffffffffffffffffff169060200190929190803573ffffffffffffffffffffffffffffffffffffffff16906020019092919080359060200190929190505050610e29565b005b61052c600480360361010081101561048e57600080fd5b81019080803573ffffffffffffffffffffffffffffffffffffffff169060200190929190803573ffffffffffffffffffffffffffffffffffffffff169060200190929190803573ffffffffffffffffffffffffffffffffffffffff1690602001909291908035906020019092919080359060200190929190803590602001909291908035906020019092919080359060200190929190505050610e6c565b6040518082815260200191505060405180910390f35b61056e6004803603602081101561055857600080fd5b8101908080359060200190929190505050611543565b005b610578611a64565b005b610582611c69565b604051808273ffffffffffffffffffffffffffffffffffffffff16815260200191505060405180910390f35b6105fa600480360360408110156105c457600080fd5b81019080803573ffffffffffffffffffffffffffffffffffffffff16906020019092919080359060200190929190505050611c8d565b005b61065e6004803603604081101561061257600080fd5b81019080803573ffffffffffffffffffffffffffffffffffffffff169060200190929190803573ffffffffffffffffffffffffffffffffffffffff169060200190929190505050611e68565b6040518082815260200191505060405180910390f35b6106b46004803603606081101561068a57600080fd5b81019080803590602001909291908035906020019092919080359060200190929190505050611eef565b005b6106f8600480360360208110156106cc57600080fd5b81019080803573ffffffffffffffffffffffffffffffffffffffff16906020019092919050505061229f565b6040518080602001828103825283818151815260200191508051906020019060200280838360005b8381101561073b578082015181840152602081019050610720565b505050509050019250505060405180910390f35b610757612336565b604051808273ffffffffffffffffffffffffffffffffffffffff16815260200191505060405180910390f35b6107d96004803603606081101561079957600080fd5b81019080803573ffffffffffffffffffffffffffffffffffffffff169060200190929190803590602001909291908035906020019092919050505061235c565b6040518082815260200191505060405180910390f35b6108316004803603602081101561080557600080fd5b81019080803573ffffffffffffffffffffffffffffffffffffffff1690602001909291905050506124bf565b005b6108896004803603606081101561084957600080fd5b81019080803573ffffffffffffffffffffffffffffffffffffffff16906020019092919080359060200190929190803590602001909291905050506125cd565b604051808060200180602001838103835285818151815260200191508051906020019060200280838360005b838110156108d05780820151818401526020810190506108b5565b50505050905001838103825284818151815260200191508051906020019060200280838360005b838110156109125780820151818401526020810190506108f7565b5050505090500194505050505060405180910390f35b6109746004803603604081101561093e57600080fd5b81019080803573ffffffffffffffffffffffffffffffffffffffff16906020019092919080359060200190929190505050612835565b6040518082815260200191505060405180910390f35b6109cc600480360360208110156109a057600080fd5b81019080803573ffffffffffffffffffffffffffffffffffffffff169060200190929190505050612894565b6040518082815260200191505060405180910390f35b6109ea6128dd565b816109f4816129a0565b6000600660008573ffffffffffffffffffffffffffffffffffffffff1673ffffffffffffffffffffffffffffffffffffffff1681526020019081526020016000205490506000610a4d8483612a4690919063ffffffff16565b905080600660008773ffffffffffffffffffffffffffffffffffffffff1673ffffffffffffffffffffffffffffffffffffffff168152602001908152602001600020819055507f407aa06211cf8eec4798e12787e05d8e5ba13eab80aac8df1b59ed5db8520197858383604051808473ffffffffffffffffffffffffffffffffffffffff168152602001838152602001828152602001935050505060405180910390a15050505050565b6000806000600560008673ffffffffffffffffffffffffffffffffffffffff1673ffffffffffffffffffffffffffffffffffffffff1681526020019081526020016000208481548110610b4657fe5b906000526020600020906002020190508060000154816001015492509250509250929050565b610b746128dd565b81610b7e816129a0565b6000600660008573ffffffffffffffffffffffffffffffffffffffff1673ffffffffffffffffffffffffffffffffffffffff1681526020019081526020016000205490506000610bd78483612ac990919063ffffffff16565b905080600660008773ffffffffffffffffffffffffffffffffffffffff1673ffffffffffffffffffffffffffffffffffffffff168152602001908152602001600020819055507f407aa06211cf8eec4798e12787e05d8e5ba13eab80aac8df1b59ed5db8520197858383604051808473ffffffffffffffffffffffffffffffffffffffff168152602001838152602001828152602001935050505060405180910390a15050505050565b6000600560008373ffffffffffffffffffffffffffffffffffffffff1673ffffffffffffffffffffffffffffffffffffffff168152602001908152602001600020805490509050919050565b6000600660008373ffffffffffffffffffffffffffffffffffffffff1673ffffffffffffffffffffffffffffffffffffffff168152602001908152602001600020549050919050565b6000806000806000806000806000600460008b815260200190815260200160002090508060000160009054906101000a900473ffffffffffffffffffffffffffffffffffffffff168160020160009054906101000a900473ffffffffffffffffffffffffffffffffffffffff168260030160009054906101000a900473ffffffffffffffffffffffffffffffffffffffff16836004015484600501548560060154866007015487600801549850985098509850985098509850985050919395975091939597565b6000600360008373ffffffffffffffffffffffffffffffffffffffff1673ffffffffffffffffffffffffffffffffffffffff168152602001908152602001600020805490509050919050565b610e316128dd565b81610e3b81612b51565b610e6683838673ffffffffffffffffffffffffffffffffffffffff16612c2f9092919063ffffffff16565b50505050565b6000610e766128dd565b600073ffffffffffffffffffffffffffffffffffffffff168973ffffffffffffffffffffffffffffffffffffffff1614158015610edf57503073ffffffffffffffffffffffffffffffffffffffff168973ffffffffffffffffffffffffffffffffffffffff1614155b8015610f185750600073ffffffffffffffffffffffffffffffffffffffff168873ffffffffffffffffffffffffffffffffffffffff1614155b8015610f5057503073ffffffffffffffffffffffffffffffffffffffff168873ffffffffffffffffffffffffffffffffffffffff1614155b8015610f895750600073ffffffffffffffffffffffffffffffffffffffff168773ffffffffffffffffffffffffffffffffffffffff1614155b8015610fc157503073ffffffffffffffffffffffffffffffffffffffff168773ffffffffffffffffffffffffffffffffffffffff1614155b611033576040517f08c379a00000000000000000000000000000000000000000000000000000000081526004018080602001828103825260138152602001807f4552525f494e56414c49445f414444524553530000000000000000000000000081525060200191505060405180910390fd5b6000861180156110435750600085115b801561104f5750600084115b801561105b5750600083115b80156110675750600082115b6110d9576040517f08c379a000000000000000000000000000000000000000000000000000000000815260040180806020018281038252600e8152602001807f4552525f5a45524f5f56414c554500000000000000000000000000000000000081525060200191505060405180910390fd5b6000600360008b73ffffffffffffffffffffffffffffffffffffffff1673ffffffffffffffffffffffffffffffffffffffff16815260200190815260200160002090506000600254905060016002600082825401925050819055506040518061012001604052808c73ffffffffffffffffffffffffffffffffffffffff168152602001838054905081526020018b73ffffffffffffffffffffffffffffffffffffffff1681526020018a73ffffffffffffffffffffffffffffffffffffffff168152602001898152602001888152602001878152602001868152602001858152506004600083815260200190815260200160002060008201518160000160006101000a81548173ffffffffffffffffffffffffffffffffffffffff021916908373ffffffffffffffffffffffffffffffffffffffff1602179055506020820151816001015560408201518160020160006101000a81548173ffffffffffffffffffffffffffffffffffffffff021916908373ffffffffffffffffffffffffffffffffffffffff16021790555060608201518160030160006101000a81548173ffffffffffffffffffffffffffffffffffffffff021916908373ffffffffffffffffffffffffffffffffffffffff1602179055506080820151816004015560a0820151816005015560c0820151816006015560e0820151816007015561010082015181600801559050508181908060018154018082558091505060019003906000526020600020016000909190919091505561135c88600760008d73ffffffffffffffffffffffffffffffffffffffff1673ffffffffffffffffffffffffffffffffffffffff16815260200190815260200160002054612ac990919063ffffffff16565b600760008c73ffffffffffffffffffffffffffffffffffffffff1673ffffffffffffffffffffffffffffffffffffffff1681526020019081526020016000208190555061142e87600860008d73ffffffffffffffffffffffffffffffffffffffff1673ffffffffffffffffffffffffffffffffffffffff16815260200190815260200160002060008c73ffffffffffffffffffffffffffffffffffffffff1673ffffffffffffffffffffffffffffffffffffffff16815260200190815260200160002054612ac990919063ffffffff16565b600860008c73ffffffffffffffffffffffffffffffffffffffff1673ffffffffffffffffffffffffffffffffffffffff16815260200190815260200160002060008b73ffffffffffffffffffffffffffffffffffffffff1673ffffffffffffffffffffffffffffffffffffffff168152602001908152602001600020819055508873ffffffffffffffffffffffffffffffffffffffff168a73ffffffffffffffffffffffffffffffffffffffff168c73ffffffffffffffffffffffffffffffffffffffff167f3ad050950cfb9657a985fbfebb84c6e7c799d8c08e4fc412cb84e9bd2e68f8cd8b8b604051808381526020018281526020019250505060405180910390a4809250505098975050505050505050565b61154b6128dd565b600060046000838152602001908152602001600020905060008160000160009054906101000a900473ffffffffffffffffffffffffffffffffffffffff169050600073ffffffffffffffffffffffffffffffffffffffff168173ffffffffffffffffffffffffffffffffffffffff16141561162e576040517f08c379a000000000000000000000000000000000000000000000000000000000815260040180806020018281038252600e8152602001807f4552525f494e56414c49445f494400000000000000000000000000000000000081525060200191505060405180910390fd5b60008260010154905060008360020160009054906101000a900473ffffffffffffffffffffffffffffffffffffffff16905060008460030160009054906101000a900473ffffffffffffffffffffffffffffffffffffffff16905060008560040154905060008660050154905060046000898152602001908152602001600020600080820160006101000a81549073ffffffffffffffffffffffffffffffffffffffff021916905560018201600090556002820160006101000a81549073ffffffffffffffffffffffffffffffffffffffff02191690556003820160006101000a81549073ffffffffffffffffffffffffffffffffffffffff02191690556004820160009055600582016000905560068201600090556007820160009055600882016000905550506000600360008873ffffffffffffffffffffffffffffffffffffffff1673ffffffffffffffffffffffffffffffffffffffff1681526020019081526020016000209050600081805490509050600081116117ac57fe5b60006001820390508088101561180f5760008382815481106117ca57fe5b9060005260206000200154905080848a815481106117e457fe5b9060005260206000200181905550886004600083815260200190815260200160002060010181905550505b8280548061181957fe5b6001900381819060005260206000200160009055905561188185600760008a73ffffffffffffffffffffffffffffffffffffffff1673ffffffffffffffffffffffffffffffffffffffff16815260200190815260200160002054612a4690919063ffffffff16565b600760008973ffffffffffffffffffffffffffffffffffffffff1673ffffffffffffffffffffffffffffffffffffffff1681526020019081526020016000208190555061195384600860008a73ffffffffffffffffffffffffffffffffffffffff1673ffffffffffffffffffffffffffffffffffffffff16815260200190815260200160002060008973ffffffffffffffffffffffffffffffffffffffff1673ffffffffffffffffffffffffffffffffffffffff16815260200190815260200160002054612a4690919063ffffffff16565b600860008973ffffffffffffffffffffffffffffffffffffffff1673ffffffffffffffffffffffffffffffffffffffff16815260200190815260200160002060008873ffffffffffffffffffffffffffffffffffffffff1673ffffffffffffffffffffffffffffffffffffffff168152602001908152602001600020819055508573ffffffffffffffffffffffffffffffffffffffff168773ffffffffffffffffffffffffffffffffffffffff168a73ffffffffffffffffffffffffffffffffffffffff167feafbca2ddc06778be021087babbeda29033997e4e461abdc6d5bf30a0f14a0258888604051808381526020018281526020019250505060405180910390a45050505050505050505050565b600160009054906101000a900473ffffffffffffffffffffffffffffffffffffffff1673ffffffffffffffffffffffffffffffffffffffff163373ffffffffffffffffffffffffffffffffffffffff1614611b27576040517f08c379a00000000000000000000000000000000000000000000000000000000081526004018080602001828103825260118152602001807f4552525f4143434553535f44454e49454400000000000000000000000000000081525060200191505060405180910390fd5b600160009054906101000a900473ffffffffffffffffffffffffffffffffffffffff1673ffffffffffffffffffffffffffffffffffffffff1660008054906101000a900473ffffffffffffffffffffffffffffffffffffffff1673ffffffffffffffffffffffffffffffffffffffff167f343765429aea5a34b3ff6a3785a98a5abb2597aca87bfbb58632c173d585373a60405160405180910390a3600160009054906101000a900473ffffffffffffffffffffffffffffffffffffffff166000806101000a81548173ffffffffffffffffffffffffffffffffffffffff021916908373ffffffffffffffffffffffffffffffffffffffff1602179055506000600160006101000a81548173ffffffffffffffffffffffffffffffffffffffff021916908373ffffffffffffffffffffffffffffffffffffffff160217905550565b60008054906101000a900473ffffffffffffffffffffffffffffffffffffffff1681565b611c956128dd565b81611c9f816129a0565b6000600560008573ffffffffffffffffffffffffffffffffffffffff1673ffffffffffffffffffffffffffffffffffffffff1681526020019081526020016000209050600081805490509050808410611d60576040517f08c379a00000000000000000000000000000000000000000000000000000000081526004018080602001828103825260118152602001807f4552525f494e56414c49445f494e44455800000000000000000000000000000081525060200191505060405180910390fd5b6000828581548110611d6e57fe5b9060005260206000209060020201600001549050600060018303905080861015611dde57838181548110611d9e57fe5b9060005260206000209060020201848781548110611db857fe5b906000526020600020906002020160008201548160000155600182015481600101559050505b83805480611de857fe5b60019003818190600052602060002090600202016000808201600090556001820160009055505090558673ffffffffffffffffffffffffffffffffffffffff167f43e8fb9d4f009c90c55a3fa108b177b794704d61af7af6f6512db7883f8ed843836040518082815260200191505060405180910390a250505050505050565b6000600860008473ffffffffffffffffffffffffffffffffffffffff1673ffffffffffffffffffffffffffffffffffffffff16815260200190815260200160002060008373ffffffffffffffffffffffffffffffffffffffff1673ffffffffffffffffffffffffffffffffffffffff16815260200190815260200160002054905092915050565b611ef76128dd565b81611f0181612cd1565b81611f0b81612cd1565b600060046000878152602001908152602001600020905060008160000160009054906101000a900473ffffffffffffffffffffffffffffffffffffffff169050600073ffffffffffffffffffffffffffffffffffffffff168173ffffffffffffffffffffffffffffffffffffffff161415611fee576040517f08c379a000000000000000000000000000000000000000000000000000000000815260040180806020018281038252600e8152602001807f4552525f494e56414c49445f494400000000000000000000000000000000000081525060200191505060405180910390fd5b60008260020160009054906101000a900473ffffffffffffffffffffffffffffffffffffffff16905060008360030160009054906101000a900473ffffffffffffffffffffffffffffffffffffffff1690506000846004015490506000856005015490508986600401819055508886600501819055506120c8826120ba8c600760008973ffffffffffffffffffffffffffffffffffffffff1673ffffffffffffffffffffffffffffffffffffffff16815260200190815260200160002054612ac990919063ffffffff16565b612a4690919063ffffffff16565b600760008673ffffffffffffffffffffffffffffffffffffffff1673ffffffffffffffffffffffffffffffffffffffff168152602001908152602001600020819055506121ac8161219e8b600860008973ffffffffffffffffffffffffffffffffffffffff1673ffffffffffffffffffffffffffffffffffffffff16815260200190815260200160002060008873ffffffffffffffffffffffffffffffffffffffff1673ffffffffffffffffffffffffffffffffffffffff16815260200190815260200160002054612ac990919063ffffffff16565b612a4690919063ffffffff16565b600860008673ffffffffffffffffffffffffffffffffffffffff1673ffffffffffffffffffffffffffffffffffffffff16815260200190815260200160002060008573ffffffffffffffffffffffffffffffffffffffff1673ffffffffffffffffffffffffffffffffffffffff168152602001908152602001600020819055508473ffffffffffffffffffffffffffffffffffffffff167f4b40353ab8113f910f903abef8926205420b70265d2a3db18168b0dff00dff0d83838d8d6040518085815260200184815260200183815260200182815260200194505050505060405180910390a25050505050505050505050565b6060600360008373ffffffffffffffffffffffffffffffffffffffff1673ffffffffffffffffffffffffffffffffffffffff16815260200190815260200160002080548060200260200160405190810160405280929190818152602001828054801561232a57602002820191906000526020600020905b815481526020019060010190808311612316575b50505050509050919050565b600160009054906101000a900473ffffffffffffffffffffffffffffffffffffffff1681565b60006123666128dd565b8361237081612b51565b8361237a81612cd1565b8361238481612cd1565b600560008873ffffffffffffffffffffffffffffffffffffffff1673ffffffffffffffffffffffffffffffffffffffff1681526020019081526020016000206040518060400160405280888152602001878152509080600181540180825580915050600190039060005260206000209060020201600090919091909150600082015181600001556020820151816001015550508673ffffffffffffffffffffffffffffffffffffffff167f931ca4971b116a87c466516714a76b130f47bd6627f93d3c351f672f950703658787604051808381526020018281526020019250505060405180910390a26001600560008973ffffffffffffffffffffffffffffffffffffffff1673ffffffffffffffffffffffffffffffffffffffff168152602001908152602001600020805490500393505050509392505050565b6124c76128dd565b60008054906101000a900473ffffffffffffffffffffffffffffffffffffffff1673ffffffffffffffffffffffffffffffffffffffff168173ffffffffffffffffffffffffffffffffffffffff161415612589576040517f08c379a000000000000000000000000000000000000000000000000000000000815260040180806020018281038252600e8152602001807f4552525f53414d455f4f574e455200000000000000000000000000000000000081525060200191505060405180910390fd5b80600160006101000a81548173ffffffffffffffffffffffffffffffffffffffff021916908373ffffffffffffffffffffffffffffffffffffffff16021790555050565b606080600560008673ffffffffffffffffffffffffffffffffffffffff1673ffffffffffffffffffffffffffffffffffffffff1681526020019081526020016000208054905083111561266057600560008673ffffffffffffffffffffffffffffffffffffffff1673ffffffffffffffffffffffffffffffffffffffff1681526020019081526020016000208054905092505b8383116126d5576040517f08c379a00000000000000000000000000000000000000000000000000000000081526004018080602001828103825260138152602001807f4552525f494e56414c49445f494e44494345530000000000000000000000000081525060200191505060405180910390fd5b6000848403905060608167ffffffffffffffff811180156126f557600080fd5b506040519080825280602002602001820160405280156127245781602001602082028036833780820191505090505b50905060608267ffffffffffffffff8111801561274057600080fd5b5060405190808252806020026020018201604052801561276f5781602001602082028036833780820191505090505b50905060005b83811015612823576000600560008b73ffffffffffffffffffffffffffffffffffffffff1673ffffffffffffffffffffffffffffffffffffffff168152602001908152602001600020828a01815481106127cb57fe5b9060005260206000209060020201905080600001548483815181106127ec57fe5b602002602001018181525050806001015483838151811061280957fe5b602002602001018181525050508080600101915050612775565b50818194509450505050935093915050565b6000600360008473ffffffffffffffffffffffffffffffffffffffff1673ffffffffffffffffffffffffffffffffffffffff168152602001908152602001600020828154811061288157fe5b9060005260206000200154905092915050565b6000600760008373ffffffffffffffffffffffffffffffffffffffff1673ffffffffffffffffffffffffffffffffffffffff168152602001908152602001600020549050919050565b60008054906101000a900473ffffffffffffffffffffffffffffffffffffffff1673ffffffffffffffffffffffffffffffffffffffff163373ffffffffffffffffffffffffffffffffffffffff161461299e576040517f08c379a00000000000000000000000000000000000000000000000000000000081526004018080602001828103825260118152602001807f4552525f4143434553535f44454e49454400000000000000000000000000000081525060200191505060405180910390fd5b565b600073ffffffffffffffffffffffffffffffffffffffff168173ffffffffffffffffffffffffffffffffffffffff161415612a43576040517f08c379a00000000000000000000000000000000000000000000000000000000081526004018080602001828103825260138152602001807f4552525f494e56414c49445f414444524553530000000000000000000000000081525060200191505060405180910390fd5b50565b600082821115612abe576040517f08c379a000000000000000000000000000000000000000000000000000000000815260040180806020018281038252601e8152602001807f536166654d6174683a207375627472616374696f6e206f766572666c6f77000081525060200191505060405180910390fd5b818303905092915050565b600080828401905083811015612b47576040517f08c379a000000000000000000000000000000000000000000000000000000000815260040180806020018281038252601b8152602001807f536166654d6174683a206164646974696f6e206f766572666c6f77000000000081525060200191505060405180910390fd5b8091505092915050565b600073ffffffffffffffffffffffffffffffffffffffff168173ffffffffffffffffffffffffffffffffffffffff1614158015612bba57503073ffffffffffffffffffffffffffffffffffffffff168173ffffffffffffffffffffffffffffffffffffffff1614155b612c2c576040517f08c379a000000000000000000000000000000000000000000000000000000000815260040180806020018281038252601c8152602001807f4552525f494e56414c49445f45585445524e414c5f414444524553530000000081525060200191505060405180910390fd5b50565b6000811415612c3d57612ccc565b612c4683612d4a565b15612c97578173ffffffffffffffffffffffffffffffffffffffff166108fc829081150290604051600060405180830381858888f19350505050158015612c91573d6000803e3d6000fd5b50612ccb565b612cca8282612ca586612d96565b73ffffffffffffffffffffffffffffffffffffffff16612da09092919063ffffffff16565b5b5b505050565b60008111612d47576040517f08c379a000000000000000000000000000000000000000000000000000000000815260040180806020018281038252600e8152602001807f4552525f5a45524f5f56414c554500000000000000000000000000000000000081525060200191505060405180910390fd5b50565b600073eeeeeeeeeeeeeeeeeeeeeeeeeeeeeeeeeeeeeeee73ffffffffffffffffffffffffffffffffffffffff168273ffffffffffffffffffffffffffffffffffffffff16149050919050565b6000819050919050565b612e3d8363a9059cbb60e01b8484604051602401808373ffffffffffffffffffffffffffffffffffffffff16815260200182815260200192505050604051602081830303815290604052907bffffffffffffffffffffffffffffffffffffffffffffffffffffffff19166020820180517bffffffffffffffffffffffffffffffffffffffffffffffffffffffff8381831617835250505050612e42565b505050565b6060612ea4826040518060400160405280602081526020017f5361666545524332303a206c6f772d6c6576656c2063616c6c206661696c65648152508573ffffffffffffffffffffffffffffffffffffffff16612f319092919063ffffffff16565b9050600081511115612f2c57808060200190516020811015612ec557600080fd5b8101908080519060200190929190505050612f2b576040517f08c379a000000000000000000000000000000000000000000000000000000000815260040180806020018281038252602a8152602001806131f8602a913960400191505060405180910390fd5b5b505050565b6060612f408484600085612f49565b90509392505050565b606082471015612fa4576040517f08c379a00000000000000000000000000000000000000000000000000000000081526004018080602001828103825260268152602001806131d26026913960400191505060405180910390fd5b612fad856130f2565b61301f576040517f08c379a000000000000000000000000000000000000000000000000000000000815260040180806020018281038252601d8152602001807f416464726573733a2063616c6c20746f206e6f6e2d636f6e747261637400000081525060200191505060405180910390fd5b600060608673ffffffffffffffffffffffffffffffffffffffff1685876040518082805190602001908083835b6020831061306f578051825260208201915060208101905060208303925061304c565b6001836020036101000a03801982511681845116808217855250505050505090500191505060006040518083038185875af1925050503d80600081146130d1576040519150601f19603f3d011682016040523d82523d6000602084013e6130d6565b606091505b50915091506130e6828286613105565b92505050949350505050565b600080823b905060008111915050919050565b60608315613115578290506131ca565b6000835111156131285782518084602001fd5b816040517f08c379a00000000000000000000000000000000000000000000000000000000081526004018080602001828103825283818151815260200191508051906020019080838360005b8381101561318f578082015181840152602081019050613174565b50505050905090810190601f1680156131bc5780820380516001836020036101000a031916815260200191505b509250505060405180910390fd5b939250505056fe416464726573733a20696e73756666696369656e742062616c616e636520666f722063616c6c5361666545524332303a204552433230206f7065726174696f6e20646964206e6f742073756363656564a2646970667358221220a9109db5d8a98b5546880c7efeafe81a1619a6a8bd81da64cac38d070de0f96d64736f6c634300060c0033",
  "immutableReferences": {},
  "source": "// SPDX-License-Identifier: SEE LICENSE IN LICENSE\npragma solidity 0.6.12;\n\nimport \"@openzeppelin/contracts/math/SafeMath.sol\";\n\nimport \"./interfaces/ILiquidityProtectionStore.sol\";\n\nimport \"../token/ReserveToken.sol\";\n\nimport \"../utility/Owned.sol\";\nimport \"../utility/Utils.sol\";\n\n/**\n * @dev This contract serves as the storage of the liquidity protection mechanism.\n *\n * It holds the data and tokens, and it is generally non-upgradable.\n */\ncontract LiquidityProtectionStore is ILiquidityProtectionStore, Owned, Utils {\n    using SafeMath for uint256;\n    using ReserveToken for IReserveToken;\n\n    struct ProtectedLiquidity {\n        address provider; // liquidity provider\n        uint256 index; // index in the provider liquidity ids array\n        IDSToken poolToken; // pool token address\n        IReserveToken reserveToken; // reserve token address\n        uint256 poolAmount; // pool token amount\n        uint256 reserveAmount; // reserve token amount\n        uint256 reserveRateN; // rate of 1 protected reserve token in units of the other reserve token (numerator)\n        uint256 reserveRateD; // rate of 1 protected reserve token in units of the other reserve token (denominator)\n        uint256 timestamp; // timestamp\n    }\n\n    struct LockedBalance {\n        uint256 amount; // amount of network tokens\n        uint256 expirationTime; // lock expiration time\n    }\n\n    // protected liquidity by provider\n    uint256 private nextProtectedLiquidityId;\n    mapping(address => uint256[]) private protectedLiquidityIdsByProvider;\n    mapping(uint256 => ProtectedLiquidity) private protectedLiquidities;\n\n    // user locked network token balances\n    mapping(address => LockedBalance[]) private lockedBalances;\n\n    // system balances\n    mapping(IReserveToken => uint256) private systemBalances;\n\n    // total protected pool supplies / reserve amounts\n    mapping(IDSToken => uint256) private totalProtectedPoolAmounts;\n    mapping(IDSToken => mapping(IReserveToken => uint256)) private totalProtectedReserveAmounts;\n\n    /**\n     * @dev triggered when liquidity protection is added\n     *\n     * @param _provider        liquidity provider\n     * @param _poolToken       pool token address\n     * @param _reserveToken    reserve token address\n     * @param _poolAmount      amount of pool tokens\n     * @param _reserveAmount   amount of reserve tokens\n     */\n    event ProtectionAdded(\n        address indexed _provider,\n        IDSToken indexed _poolToken,\n        IReserveToken indexed _reserveToken,\n        uint256 _poolAmount,\n        uint256 _reserveAmount\n    );\n\n    /**\n     * @dev triggered when liquidity protection is updated\n     *\n     * @param _provider            liquidity provider\n     * @param _prevPoolAmount      previous amount of pool tokens\n     * @param _prevReserveAmount   previous amount of reserve tokens\n     * @param _newPoolAmount       new amount of pool tokens\n     * @param _newReserveAmount    new amount of reserve tokens\n     */\n    event ProtectionUpdated(\n        address indexed _provider,\n        uint256 _prevPoolAmount,\n        uint256 _prevReserveAmount,\n        uint256 _newPoolAmount,\n        uint256 _newReserveAmount\n    );\n\n    /**\n     * @dev triggered when liquidity protection is removed\n     *\n     * @param _provider        liquidity provider\n     * @param _poolToken       pool token address\n     * @param _reserveToken    reserve token address\n     * @param _poolAmount      amount of pool tokens\n     * @param _reserveAmount   amount of reserve tokens\n     */\n    event ProtectionRemoved(\n        address indexed _provider,\n        IDSToken indexed _poolToken,\n        IReserveToken indexed _reserveToken,\n        uint256 _poolAmount,\n        uint256 _reserveAmount\n    );\n\n    /**\n     * @dev triggered when network tokens are locked\n     *\n     * @param _provider        provider of the network tokens\n     * @param _amount          amount of network tokens\n     * @param _expirationTime  lock expiration time\n     */\n    event BalanceLocked(address indexed _provider, uint256 _amount, uint256 _expirationTime);\n\n    /**\n     * @dev triggered when network tokens are unlocked\n     *\n     * @param _provider    provider of the network tokens\n     * @param _amount      amount of network tokens\n     */\n    event BalanceUnlocked(address indexed _provider, uint256 _amount);\n\n    /**\n     * @dev triggered when the system balance for a given token is updated\n     *\n     * @param _token       token address\n     * @param _prevAmount  previous amount\n     * @param _newAmount   new amount\n     */\n    event SystemBalanceUpdated(IReserveToken _token, uint256 _prevAmount, uint256 _newAmount);\n\n    /**\n     * @dev withdraws tokens held by the contract\n     * can only be called by the contract owner\n     *\n     * @param _token   token address\n     * @param _to      recipient address\n     * @param _amount  amount to withdraw\n     */\n    function withdrawTokens(\n        IReserveToken _token,\n        address _to,\n        uint256 _amount\n    ) external override ownerOnly validExternalAddress(_to) {\n        _token.safeTransfer(_to, _amount);\n    }\n\n    /**\n     * @dev returns the number of protected liquidities for the given provider\n     *\n     * @param _provider    liquidity provider\n     * @return number of protected liquidities\n     */\n    function protectedLiquidityCount(address _provider) external view returns (uint256) {\n        return protectedLiquidityIdsByProvider[_provider].length;\n    }\n\n    /**\n     * @dev returns the list of protected liquidity ids for the given provider\n     *\n     * @param _provider    liquidity provider\n     * @return protected liquidity ids\n     */\n    function protectedLiquidityIds(address _provider) external view returns (uint256[] memory) {\n        return protectedLiquidityIdsByProvider[_provider];\n    }\n\n    /**\n     * @dev returns the id of a protected liquidity for the given provider at a specific index\n     *\n     * @param _provider    liquidity provider\n     * @param _index       protected liquidity index\n     * @return protected liquidity id\n     */\n    function protectedLiquidityId(address _provider, uint256 _index) external view returns (uint256) {\n        return protectedLiquidityIdsByProvider[_provider][_index];\n    }\n\n    /**\n     * @dev returns an existing protected liquidity details\n     *\n     * @param _id  protected liquidity id\n     *\n     * @return liquidity provider\n     * @return pool token address\n     * @return reserve token address\n     * @return pool token amount\n     * @return reserve token amount\n     * @return rate of 1 protected reserve token in units of the other reserve token (numerator)\n     * @return rate of 1 protected reserve token in units of the other reserve token (denominator)\n     * @return timestamp\n     */\n    function protectedLiquidity(uint256 _id)\n        external\n        view\n        override\n        returns (\n            address,\n            IDSToken,\n            IReserveToken,\n            uint256,\n            uint256,\n            uint256,\n            uint256,\n            uint256\n        )\n    {\n        ProtectedLiquidity storage liquidity = protectedLiquidities[_id];\n        return (\n            liquidity.provider,\n            liquidity.poolToken,\n            liquidity.reserveToken,\n            liquidity.poolAmount,\n            liquidity.reserveAmount,\n            liquidity.reserveRateN,\n            liquidity.reserveRateD,\n            liquidity.timestamp\n        );\n    }\n\n    /**\n     * @dev adds protected liquidity\n     * can only be called by the contract owner\n     *\n     * @param _provider        liquidity provider\n     * @param _poolToken       pool token address\n     * @param _reserveToken    reserve token address\n     * @param _poolAmount      pool token amount\n     * @param _reserveAmount   reserve token amount\n     * @param _reserveRateN    rate of 1 protected reserve token in units of the other reserve token (numerator)\n     * @param _reserveRateD    rate of 1 protected reserve token in units of the other reserve token (denominator)\n     * @param _timestamp       timestamp\n     * @return new protected liquidity id\n     */\n    function addProtectedLiquidity(\n        address _provider,\n        IDSToken _poolToken,\n        IReserveToken _reserveToken,\n        uint256 _poolAmount,\n        uint256 _reserveAmount,\n        uint256 _reserveRateN,\n        uint256 _reserveRateD,\n        uint256 _timestamp\n    ) external override ownerOnly returns (uint256) {\n        // validate input\n        require(\n            _provider != address(0) &&\n                _provider != address(this) &&\n                address(_poolToken) != address(0) &&\n                address(_poolToken) != address(this) &&\n                address(_reserveToken) != address(0) &&\n                address(_reserveToken) != address(this),\n            \"ERR_INVALID_ADDRESS\"\n        );\n        require(\n            _poolAmount > 0 && _reserveAmount > 0 && _reserveRateN > 0 && _reserveRateD > 0 && _timestamp > 0,\n            \"ERR_ZERO_VALUE\"\n        );\n\n        // add the protected liquidity\n        uint256[] storage ids = protectedLiquidityIdsByProvider[_provider];\n        uint256 id = nextProtectedLiquidityId;\n        nextProtectedLiquidityId += 1;\n\n        protectedLiquidities[id] = ProtectedLiquidity({\n            provider: _provider,\n            index: ids.length,\n            poolToken: _poolToken,\n            reserveToken: _reserveToken,\n            poolAmount: _poolAmount,\n            reserveAmount: _reserveAmount,\n            reserveRateN: _reserveRateN,\n            reserveRateD: _reserveRateD,\n            timestamp: _timestamp\n        });\n\n        ids.push(id);\n\n        // update the total amounts\n        totalProtectedPoolAmounts[_poolToken] = totalProtectedPoolAmounts[_poolToken].add(_poolAmount);\n        totalProtectedReserveAmounts[_poolToken][_reserveToken] = totalProtectedReserveAmounts[_poolToken][\n            _reserveToken\n        ]\n            .add(_reserveAmount);\n\n        emit ProtectionAdded(_provider, _poolToken, _reserveToken, _poolAmount, _reserveAmount);\n        return id;\n    }\n\n    /**\n     * @dev updates an existing protected liquidity pool/reserve amounts\n     * can only be called by the contract owner\n     *\n     * @param _id                  protected liquidity id\n     * @param _newPoolAmount       new pool tokens amount\n     * @param _newReserveAmount    new reserve tokens amount\n     */\n    function updateProtectedLiquidityAmounts(\n        uint256 _id,\n        uint256 _newPoolAmount,\n        uint256 _newReserveAmount\n    ) external override ownerOnly greaterThanZero(_newPoolAmount) greaterThanZero(_newReserveAmount) {\n        // update the protected liquidity\n        ProtectedLiquidity storage liquidity = protectedLiquidities[_id];\n\n        // validate input\n        address provider = liquidity.provider;\n        require(provider != address(0), \"ERR_INVALID_ID\");\n\n        IDSToken poolToken = liquidity.poolToken;\n        IReserveToken reserveToken = liquidity.reserveToken;\n        uint256 prevPoolAmount = liquidity.poolAmount;\n        uint256 prevReserveAmount = liquidity.reserveAmount;\n        liquidity.poolAmount = _newPoolAmount;\n        liquidity.reserveAmount = _newReserveAmount;\n\n        // update the total amounts\n        totalProtectedPoolAmounts[poolToken] = totalProtectedPoolAmounts[poolToken].add(_newPoolAmount).sub(\n            prevPoolAmount\n        );\n        totalProtectedReserveAmounts[poolToken][reserveToken] = totalProtectedReserveAmounts[poolToken][reserveToken]\n            .add(_newReserveAmount)\n            .sub(prevReserveAmount);\n\n        emit ProtectionUpdated(provider, prevPoolAmount, prevReserveAmount, _newPoolAmount, _newReserveAmount);\n    }\n\n    /**\n     * @dev removes protected liquidity\n     * can only be called by the contract owner\n     *\n     * @param _id  protected liquidity id\n     */\n    function removeProtectedLiquidity(uint256 _id) external override ownerOnly {\n        // remove the protected liquidity\n        ProtectedLiquidity storage liquidity = protectedLiquidities[_id];\n\n        // validate input\n        address provider = liquidity.provider;\n        require(provider != address(0), \"ERR_INVALID_ID\");\n\n        uint256 index = liquidity.index;\n        IDSToken poolToken = liquidity.poolToken;\n        IReserveToken reserveToken = liquidity.reserveToken;\n        uint256 poolAmount = liquidity.poolAmount;\n        uint256 reserveAmount = liquidity.reserveAmount;\n        delete protectedLiquidities[_id];\n\n        uint256[] storage ids = protectedLiquidityIdsByProvider[provider];\n        uint256 length = ids.length;\n        assert(length > 0);\n\n        uint256 lastIndex = length - 1;\n        if (index < lastIndex) {\n            uint256 lastId = ids[lastIndex];\n            ids[index] = lastId;\n            protectedLiquidities[lastId].index = index;\n        }\n\n        ids.pop();\n\n        // update the total amounts\n        totalProtectedPoolAmounts[poolToken] = totalProtectedPoolAmounts[poolToken].sub(poolAmount);\n        totalProtectedReserveAmounts[poolToken][reserveToken] = totalProtectedReserveAmounts[poolToken][reserveToken]\n            .sub(reserveAmount);\n\n        emit ProtectionRemoved(provider, poolToken, reserveToken, poolAmount, reserveAmount);\n    }\n\n    /**\n     * @dev returns the number of network token locked balances for a given provider\n     *\n     * @param _provider    locked balances provider\n     * @return the number of network token locked balances\n     */\n    function lockedBalanceCount(address _provider) external view returns (uint256) {\n        return lockedBalances[_provider].length;\n    }\n\n    /**\n     * @dev returns an existing locked network token balance details\n     *\n     * @param _provider    locked balances provider\n     * @param _index       start index\n     * @return amount of network tokens\n     * @return lock expiration time\n     */\n    function lockedBalance(address _provider, uint256 _index) external view override returns (uint256, uint256) {\n        LockedBalance storage balance = lockedBalances[_provider][_index];\n        return (balance.amount, balance.expirationTime);\n    }\n\n    /**\n     * @dev returns a range of locked network token balances for a given provider\n     *\n     * @param _provider    locked balances provider\n     * @param _startIndex  start index\n     * @param _endIndex    end index (exclusive)\n     * @return locked amounts\n     * @return expiration times\n     */\n    function lockedBalanceRange(\n        address _provider,\n        uint256 _startIndex,\n        uint256 _endIndex\n    ) external view override returns (uint256[] memory, uint256[] memory) {\n        // limit the end index by the number of locked balances\n        if (_endIndex > lockedBalances[_provider].length) {\n            _endIndex = lockedBalances[_provider].length;\n        }\n\n        // ensure that the end index is higher than the start index\n        require(_endIndex > _startIndex, \"ERR_INVALID_INDICES\");\n\n        // get the locked balances for the given range and return them\n        uint256 length = _endIndex - _startIndex;\n        uint256[] memory amounts = new uint256[](length);\n        uint256[] memory expirationTimes = new uint256[](length);\n\n        for (uint256 i = 0; i < length; i++) {\n            LockedBalance storage balance = lockedBalances[_provider][_startIndex + i];\n            amounts[i] = balance.amount;\n            expirationTimes[i] = balance.expirationTime;\n        }\n\n        return (amounts, expirationTimes);\n    }\n\n    /**\n     * @dev adds new locked network token balance\n     * can only be called by the contract owner\n     *\n     * @param _provider        liquidity provider\n     * @param _amount          token amount\n     * @param _expirationTime  lock expiration time\n     * @return new locked balance index\n     */\n    function addLockedBalance(\n        address _provider,\n        uint256 _amount,\n        uint256 _expirationTime\n    )\n        external\n        override\n        ownerOnly\n        validExternalAddress(_provider)\n        greaterThanZero(_amount)\n        greaterThanZero(_expirationTime)\n        returns (uint256)\n    {\n        lockedBalances[_provider].push(LockedBalance({ amount: _amount, expirationTime: _expirationTime }));\n\n        emit BalanceLocked(_provider, _amount, _expirationTime);\n        return lockedBalances[_provider].length - 1;\n    }\n\n    /**\n     * @dev removes a locked network token balance\n     * can only be called by the contract owner\n     *\n     * @param _provider    liquidity provider\n     * @param _index       index of the locked balance\n     */\n    function removeLockedBalance(address _provider, uint256 _index)\n        external\n        override\n        ownerOnly\n        validAddress(_provider)\n    {\n        LockedBalance[] storage balances = lockedBalances[_provider];\n        uint256 length = balances.length;\n\n        // validate input\n        require(_index < length, \"ERR_INVALID_INDEX\");\n\n        uint256 amount = balances[_index].amount;\n        uint256 lastIndex = length - 1;\n        if (_index < lastIndex) {\n            balances[_index] = balances[lastIndex];\n        }\n\n        balances.pop();\n\n        emit BalanceUnlocked(_provider, amount);\n    }\n\n    /**\n     * @dev returns the system balance for a given token\n     *\n     * @param _token   token address\n     * @return system balance\n     */\n    function systemBalance(IReserveToken _token) external view override returns (uint256) {\n        return systemBalances[_token];\n    }\n\n    /**\n     * @dev increases the system balance for a given token\n     * can only be called by the contract owner\n     *\n     * @param _token   token address\n     * @param _amount  token amount\n     */\n    function incSystemBalance(IReserveToken _token, uint256 _amount)\n        external\n        override\n        ownerOnly\n        validAddress(address(_token))\n    {\n        uint256 prevAmount = systemBalances[_token];\n        uint256 newAmount = prevAmount.add(_amount);\n        systemBalances[_token] = newAmount;\n\n        emit SystemBalanceUpdated(_token, prevAmount, newAmount);\n    }\n\n    /**\n     * @dev decreases the system balance for a given token\n     * can only be called by the contract owner\n     *\n     * @param _token   token address\n     * @param _amount  token amount\n     */\n    function decSystemBalance(IReserveToken _token, uint256 _amount)\n        external\n        override\n        ownerOnly\n        validAddress(address(_token))\n    {\n        uint256 prevAmount = systemBalances[_token];\n        uint256 newAmount = prevAmount.sub(_amount);\n        systemBalances[_token] = newAmount;\n\n        emit SystemBalanceUpdated(_token, prevAmount, newAmount);\n    }\n\n    /**\n     * @dev returns the total protected pool token amount for a given pool\n     *\n     * @param _poolToken   pool token address\n     * @return total protected amount\n     */\n    function totalProtectedPoolAmount(IDSToken _poolToken) external view returns (uint256) {\n        return totalProtectedPoolAmounts[_poolToken];\n    }\n\n    /**\n     * @dev returns the total protected reserve amount for a given pool\n     *\n     * @param _poolToken       pool token address\n     * @param _reserveToken    reserve token address\n     * @return total protected amount\n     */\n    function totalProtectedReserveAmount(IDSToken _poolToken, IReserveToken _reserveToken)\n        external\n        view\n        returns (uint256)\n    {\n        return totalProtectedReserveAmounts[_poolToken][_reserveToken];\n    }\n}\n",
  "sourcePath": "D:\\Work Space\\bancor_project\\core\\contracts\\liquidity-protection\\LiquidityProtectionStore.sol",
  "compiler": {
    "name": "solc",
    "version": "0.6.12+commit.27d51765.Emscripten.clang"
  },
  "schemaVersion": "3.4.3",
  "updatedAt": "2021-08-23T03:19:30.187Z",
  "devdoc": {
    "details": "This contract serves as the storage of the liquidity protection mechanism. It holds the data and tokens, and it is generally non-upgradable.",
    "events": {
      "BalanceLocked(address,uint256,uint256)": {
        "details": "triggered when network tokens are locked",
        "params": {
          "_amount": "amount of network tokens",
          "_expirationTime": "lock expiration time",
          "_provider": "provider of the network tokens"
        }
      },
      "BalanceUnlocked(address,uint256)": {
        "details": "triggered when network tokens are unlocked",
        "params": {
          "_amount": "amount of network tokens",
          "_provider": "provider of the network tokens"
        }
      },
      "ProtectionAdded(address,address,address,uint256,uint256)": {
        "details": "triggered when liquidity protection is added",
        "params": {
          "_poolAmount": "amount of pool tokens",
          "_poolToken": "pool token address",
          "_provider": "liquidity provider",
          "_reserveAmount": "amount of reserve tokens",
          "_reserveToken": "reserve token address"
        }
      },
      "ProtectionRemoved(address,address,address,uint256,uint256)": {
        "details": "triggered when liquidity protection is removed",
        "params": {
          "_poolAmount": "amount of pool tokens",
          "_poolToken": "pool token address",
          "_provider": "liquidity provider",
          "_reserveAmount": "amount of reserve tokens",
          "_reserveToken": "reserve token address"
        }
      },
      "ProtectionUpdated(address,uint256,uint256,uint256,uint256)": {
        "details": "triggered when liquidity protection is updated",
        "params": {
          "_newPoolAmount": "new amount of pool tokens",
          "_newReserveAmount": "new amount of reserve tokens",
          "_prevPoolAmount": "previous amount of pool tokens",
          "_prevReserveAmount": "previous amount of reserve tokens",
          "_provider": "liquidity provider"
        }
      },
      "SystemBalanceUpdated(address,uint256,uint256)": {
        "details": "triggered when the system balance for a given token is updated",
        "params": {
          "_newAmount": "new amount",
          "_prevAmount": "previous amount",
          "_token": "token address"
        }
      }
    },
    "kind": "dev",
    "methods": {
      "acceptOwnership()": {
        "details": "used by a new owner to accept an ownership transfer"
      },
      "addLockedBalance(address,uint256,uint256)": {
        "details": "adds new locked network token balance can only be called by the contract owner",
        "params": {
          "_amount": "token amount",
          "_expirationTime": "lock expiration time",
          "_provider": "liquidity provider"
        },
        "returns": {
          "_0": "new locked balance index"
        }
      },
      "addProtectedLiquidity(address,address,address,uint256,uint256,uint256,uint256,uint256)": {
        "details": "adds protected liquidity can only be called by the contract owner",
        "params": {
          "_poolAmount": "pool token amount",
          "_poolToken": "pool token address",
          "_provider": "liquidity provider",
          "_reserveAmount": "reserve token amount",
          "_reserveRateD": "rate of 1 protected reserve token in units of the other reserve token (denominator)",
          "_reserveRateN": "rate of 1 protected reserve token in units of the other reserve token (numerator)",
          "_reserveToken": "reserve token address",
          "_timestamp": "timestamp"
        },
        "returns": {
          "_0": "new protected liquidity id"
        }
      },
      "decSystemBalance(address,uint256)": {
        "details": "decreases the system balance for a given token can only be called by the contract owner",
        "params": {
          "_amount": "token amount",
          "_token": "token address"
        }
      },
      "incSystemBalance(address,uint256)": {
        "details": "increases the system balance for a given token can only be called by the contract owner",
        "params": {
          "_amount": "token amount",
          "_token": "token address"
        }
      },
      "lockedBalance(address,uint256)": {
        "details": "returns an existing locked network token balance details",
        "params": {
          "_index": "start index",
          "_provider": "locked balances provider"
        },
        "returns": {
          "_0": "amount of network tokens",
          "_1": "lock expiration time"
        }
      },
      "lockedBalanceCount(address)": {
        "details": "returns the number of network token locked balances for a given provider",
        "params": {
          "_provider": "locked balances provider"
        },
        "returns": {
          "_0": "the number of network token locked balances"
        }
      },
      "lockedBalanceRange(address,uint256,uint256)": {
        "details": "returns a range of locked network token balances for a given provider",
        "params": {
          "_endIndex": "end index (exclusive)",
          "_provider": "locked balances provider",
          "_startIndex": "start index"
        },
        "returns": {
          "_0": "locked amounts",
          "_1": "expiration times"
        }
      },
      "protectedLiquidity(uint256)": {
        "details": "returns an existing protected liquidity details",
        "params": {
          "_id": "protected liquidity id"
        },
        "returns": {
          "_0": "liquidity provider",
          "_1": "pool token address",
          "_2": "reserve token address",
          "_3": "pool token amount",
          "_4": "reserve token amount",
          "_5": "rate of 1 protected reserve token in units of the other reserve token (numerator)",
          "_6": "rate of 1 protected reserve token in units of the other reserve token (denominator)",
          "_7": "timestamp"
        }
      },
      "protectedLiquidityCount(address)": {
        "details": "returns the number of protected liquidities for the given provider",
        "params": {
          "_provider": "liquidity provider"
        },
        "returns": {
          "_0": "number of protected liquidities"
        }
      },
      "protectedLiquidityId(address,uint256)": {
        "details": "returns the id of a protected liquidity for the given provider at a specific index",
        "params": {
          "_index": "protected liquidity index",
          "_provider": "liquidity provider"
        },
        "returns": {
          "_0": "protected liquidity id"
        }
      },
      "protectedLiquidityIds(address)": {
        "details": "returns the list of protected liquidity ids for the given provider",
        "params": {
          "_provider": "liquidity provider"
        },
        "returns": {
          "_0": "protected liquidity ids"
        }
      },
      "removeLockedBalance(address,uint256)": {
        "details": "removes a locked network token balance can only be called by the contract owner",
        "params": {
          "_index": "index of the locked balance",
          "_provider": "liquidity provider"
        }
      },
      "removeProtectedLiquidity(uint256)": {
        "details": "removes protected liquidity can only be called by the contract owner",
        "params": {
          "_id": "protected liquidity id"
        }
      },
      "systemBalance(address)": {
        "details": "returns the system balance for a given token",
        "params": {
          "_token": "token address"
        },
        "returns": {
          "_0": "system balance"
        }
      },
      "totalProtectedPoolAmount(address)": {
        "details": "returns the total protected pool token amount for a given pool",
        "params": {
          "_poolToken": "pool token address"
        },
        "returns": {
          "_0": "total protected amount"
        }
      },
      "totalProtectedReserveAmount(address,address)": {
        "details": "returns the total protected reserve amount for a given pool",
        "params": {
          "_poolToken": "pool token address",
          "_reserveToken": "reserve token address"
        },
        "returns": {
          "_0": "total protected amount"
        }
      },
      "transferOwnership(address)": {
        "details": "allows transferring the contract ownership the new owner still needs to accept the transfer can only be called by the contract owner",
        "params": {
          "_newOwner": "new contract owner"
        }
      },
      "updateProtectedLiquidityAmounts(uint256,uint256,uint256)": {
        "details": "updates an existing protected liquidity pool/reserve amounts can only be called by the contract owner",
        "params": {
          "_id": "protected liquidity id",
          "_newPoolAmount": "new pool tokens amount",
          "_newReserveAmount": "new reserve tokens amount"
        }
      },
      "withdrawTokens(address,address,uint256)": {
        "details": "withdraws tokens held by the contract can only be called by the contract owner",
        "params": {
          "_amount": "amount to withdraw",
          "_to": "recipient address",
          "_token": "token address"
        }
      }
    },
    "version": 1
  },
  "userdoc": {
    "kind": "user",
    "methods": {},
    "version": 1
  }
}