{
  "contractName": "LiquidityProtectionSystemStore",
  "abi": [
    {
      "inputs": [],
      "stateMutability": "nonpayable",
      "type": "constructor"
    },
    {
      "anonymous": false,
      "inputs": [
        {
          "indexed": true,
          "internalType": "contract IConverterAnchor",
          "name": "poolAnchor",
          "type": "address"
        },
        {
          "indexed": false,
          "internalType": "uint256",
          "name": "prevAmount",
          "type": "uint256"
        },
        {
          "indexed": false,
          "internalType": "uint256",
          "name": "newAmount",
          "type": "uint256"
        }
      ],
      "name": "NetworkTokensMintedUpdated",
      "type": "event"
    },
    {
      "anonymous": false,
      "inputs": [
        {
          "indexed": true,
          "internalType": "bytes32",
          "name": "role",
          "type": "bytes32"
        },
        {
          "indexed": true,
          "internalType": "bytes32",
          "name": "previousAdminRole",
          "type": "bytes32"
        },
        {
          "indexed": true,
          "internalType": "bytes32",
          "name": "newAdminRole",
          "type": "bytes32"
        }
      ],
      "name": "RoleAdminChanged",
      "type": "event"
    },
    {
      "anonymous": false,
      "inputs": [
        {
          "indexed": true,
          "internalType": "bytes32",
          "name": "role",
          "type": "bytes32"
        },
        {
          "indexed": true,
          "internalType": "address",
          "name": "account",
          "type": "address"
        },
        {
          "indexed": true,
          "internalType": "address",
          "name": "sender",
          "type": "address"
        }
      ],
      "name": "RoleGranted",
      "type": "event"
    },
    {
      "anonymous": false,
      "inputs": [
        {
          "indexed": true,
          "internalType": "bytes32",
          "name": "role",
          "type": "bytes32"
        },
        {
          "indexed": true,
          "internalType": "address",
          "name": "account",
          "type": "address"
        },
        {
          "indexed": true,
          "internalType": "address",
          "name": "sender",
          "type": "address"
        }
      ],
      "name": "RoleRevoked",
      "type": "event"
    },
    {
      "anonymous": false,
      "inputs": [
        {
          "indexed": true,
          "internalType": "contract IERC20",
          "name": "token",
          "type": "address"
        },
        {
          "indexed": false,
          "internalType": "uint256",
          "name": "prevAmount",
          "type": "uint256"
        },
        {
          "indexed": false,
          "internalType": "uint256",
          "name": "newAmount",
          "type": "uint256"
        }
      ],
      "name": "SystemBalanceUpdated",
      "type": "event"
    },
    {
      "inputs": [],
      "name": "DEFAULT_ADMIN_ROLE",
      "outputs": [
        {
          "internalType": "bytes32",
          "name": "",
          "type": "bytes32"
        }
      ],
      "stateMutability": "view",
      "type": "function"
    },
    {
      "inputs": [],
      "name": "ROLE_OWNER",
      "outputs": [
        {
          "internalType": "bytes32",
          "name": "",
          "type": "bytes32"
        }
      ],
      "stateMutability": "view",
      "type": "function"
    },
    {
      "inputs": [],
      "name": "ROLE_SUPERVISOR",
      "outputs": [
        {
          "internalType": "bytes32",
          "name": "",
          "type": "bytes32"
        }
      ],
      "stateMutability": "view",
      "type": "function"
    },
    {
      "inputs": [
        {
          "internalType": "bytes32",
          "name": "role",
          "type": "bytes32"
        }
      ],
      "name": "getRoleAdmin",
      "outputs": [
        {
          "internalType": "bytes32",
          "name": "",
          "type": "bytes32"
        }
      ],
      "stateMutability": "view",
      "type": "function"
    },
    {
      "inputs": [
        {
          "internalType": "bytes32",
          "name": "role",
          "type": "bytes32"
        },
        {
          "internalType": "uint256",
          "name": "index",
          "type": "uint256"
        }
      ],
      "name": "getRoleMember",
      "outputs": [
        {
          "internalType": "address",
          "name": "",
          "type": "address"
        }
      ],
      "stateMutability": "view",
      "type": "function"
    },
    {
      "inputs": [
        {
          "internalType": "bytes32",
          "name": "role",
          "type": "bytes32"
        }
      ],
      "name": "getRoleMemberCount",
      "outputs": [
        {
          "internalType": "uint256",
          "name": "",
          "type": "uint256"
        }
      ],
      "stateMutability": "view",
      "type": "function"
    },
    {
      "inputs": [
        {
          "internalType": "bytes32",
          "name": "role",
          "type": "bytes32"
        },
        {
          "internalType": "address",
          "name": "account",
          "type": "address"
        }
      ],
      "name": "grantRole",
      "outputs": [],
      "stateMutability": "nonpayable",
      "type": "function"
    },
    {
      "inputs": [
        {
          "internalType": "bytes32",
          "name": "role",
          "type": "bytes32"
        },
        {
          "internalType": "address",
          "name": "account",
          "type": "address"
        }
      ],
      "name": "hasRole",
      "outputs": [
        {
          "internalType": "bool",
          "name": "",
          "type": "bool"
        }
      ],
      "stateMutability": "view",
      "type": "function"
    },
    {
      "inputs": [
        {
          "internalType": "bytes32",
          "name": "role",
          "type": "bytes32"
        },
        {
          "internalType": "address",
          "name": "account",
          "type": "address"
        }
      ],
      "name": "renounceRole",
      "outputs": [],
      "stateMutability": "nonpayable",
      "type": "function"
    },
    {
      "inputs": [
        {
          "internalType": "bytes32",
          "name": "role",
          "type": "bytes32"
        },
        {
          "internalType": "address",
          "name": "account",
          "type": "address"
        }
      ],
      "name": "revokeRole",
      "outputs": [],
      "stateMutability": "nonpayable",
      "type": "function"
    },
    {
      "inputs": [
        {
          "internalType": "contract IERC20",
          "name": "token",
          "type": "address"
        }
      ],
      "name": "systemBalance",
      "outputs": [
        {
          "internalType": "uint256",
          "name": "",
          "type": "uint256"
        }
      ],
      "stateMutability": "view",
      "type": "function"
    },
    {
      "inputs": [
        {
          "internalType": "contract IERC20",
          "name": "token",
          "type": "address"
        },
        {
          "internalType": "uint256",
          "name": "amount",
          "type": "uint256"
        }
      ],
      "name": "incSystemBalance",
      "outputs": [],
      "stateMutability": "nonpayable",
      "type": "function"
    },
    {
      "inputs": [
        {
          "internalType": "contract IERC20",
          "name": "token",
          "type": "address"
        },
        {
          "internalType": "uint256",
          "name": "amount",
          "type": "uint256"
        }
      ],
      "name": "decSystemBalance",
      "outputs": [],
      "stateMutability": "nonpayable",
      "type": "function"
    },
    {
      "inputs": [
        {
          "internalType": "contract IConverterAnchor",
          "name": "poolAnchor",
          "type": "address"
        }
      ],
      "name": "networkTokensMinted",
      "outputs": [
        {
          "internalType": "uint256",
          "name": "",
          "type": "uint256"
        }
      ],
      "stateMutability": "view",
      "type": "function"
    },
    {
      "inputs": [
        {
          "internalType": "contract IConverterAnchor",
          "name": "poolAnchor",
          "type": "address"
        },
        {
          "internalType": "uint256",
          "name": "amount",
          "type": "uint256"
        }
      ],
      "name": "incNetworkTokensMinted",
      "outputs": [],
      "stateMutability": "nonpayable",
      "type": "function"
    },
    {
      "inputs": [
        {
          "internalType": "contract IConverterAnchor",
          "name": "poolAnchor",
          "type": "address"
        },
        {
          "internalType": "uint256",
          "name": "amount",
          "type": "uint256"
        }
      ],
      "name": "decNetworkTokensMinted",
      "outputs": [],
      "stateMutability": "nonpayable",
      "type": "function"
    }
  ],
  "bytecode": "0x60806040523480156200001157600080fd5b50620000447f0c7ade2c7c08453ea605b4a8f3fb0e03e3ffcffbfa41ca8ee543d0fd74cada3880620000ce60201b60201c565b620000967f9f4e1c871d5fdd0aee1cd182666698a4492b24c6832aac230d07b11046af5a897f0c7ade2c7c08453ea605b4a8f3fb0e03e3ffcffbfa41ca8ee543d0fd74cada38620000ce60201b60201c565b620000c87f0c7ade2c7c08453ea605b4a8f3fb0e03e3ffcffbfa41ca8ee543d0fd74cada38336200013060201b60201c565b620002c6565b8060008084815260200190815260200160002060020154837fbd79b86ffe0ab8e8776151514217cd7cacd52c909f66475c3af44e129f0b00ff60405160405180910390a480600080848152602001908152602001600020600201819055505050565b6200014282826200014660201b60201c565b5050565b6200017481600080858152602001908152602001600020600001620001e960201b62000d691790919060201c565b15620001e5576200018a6200022160201b60201c565b73ffffffffffffffffffffffffffffffffffffffff168173ffffffffffffffffffffffffffffffffffffffff16837f2f8788117e7eff1d82e926ec794901d17c78024a50270940304540a733656f0d60405160405180910390a45b5050565b600062000219836000018373ffffffffffffffffffffffffffffffffffffffff1660001b6200022960201b60201c565b905092915050565b600033905090565b60006200023d8383620002a360201b60201c565b620002985782600001829080600181540180825580915050600190039060005260206000200160009091909190915055826000018054905083600101600084815260200190815260200160002081905550600190506200029d565b600090505b92915050565b600080836001016000848152602001908152602001600020541415905092915050565b61147b80620002d66000396000f3fe608060405234801561001057600080fd5b50600436106101005760003560e01c8063802fa3ba11610097578063a217fddf11610066578063a217fddf1461047f578063ca15c8731461049d578063d547741f146104df578063deacd84e1461052d57610100565b8063802fa3ba1461034d5780638ad682af1461039b5780639010d07c146103b957806391d148541461041b57610100565b8063332100fa116100d3578063332100fa14610201578063350ed8e71461024f57806336568abe146102a75780635121220c146102f557610100565b80630d80af9b1461010557806319c6a5e414610123578063248a9ca3146101715780632f2ff15d146101b3575b600080fd5b61010d61057b565b6040518082815260200191505060405180910390f35b61016f6004803603604081101561013957600080fd5b81019080803573ffffffffffffffffffffffffffffffffffffffff1690602001909291908035906020019092919050505061059f565b005b61019d6004803603602081101561018757600080fd5b81019080803590602001909291905050506106ce565b6040518082815260200191505060405180910390f35b6101ff600480360360408110156101c957600080fd5b8101908080359060200190929190803573ffffffffffffffffffffffffffffffffffffffff1690602001909291905050506106ed565b005b61024d6004803603604081101561021757600080fd5b81019080803573ffffffffffffffffffffffffffffffffffffffff16906020019092919080359060200190929190505050610776565b005b6102916004803603602081101561026557600080fd5b81019080803573ffffffffffffffffffffffffffffffffffffffff1690602001909291905050506108a5565b6040518082815260200191505060405180910390f35b6102f3600480360360408110156102bd57600080fd5b8101908080359060200190929190803573ffffffffffffffffffffffffffffffffffffffff1690602001909291905050506108ee565b005b6103376004803603602081101561030b57600080fd5b81019080803573ffffffffffffffffffffffffffffffffffffffff169060200190929190505050610987565b6040518082815260200191505060405180910390f35b6103996004803603604081101561036357600080fd5b81019080803573ffffffffffffffffffffffffffffffffffffffff169060200190929190803590602001909291905050506109d0565b005b6103a3610afe565b6040518082815260200191505060405180910390f35b6103ef600480360360408110156103cf57600080fd5b810190808035906020019092919080359060200190929190505050610b22565b604051808273ffffffffffffffffffffffffffffffffffffffff16815260200191505060405180910390f35b6104676004803603604081101561043157600080fd5b8101908080359060200190929190803573ffffffffffffffffffffffffffffffffffffffff169060200190929190505050610b53565b60405180821515815260200191505060405180910390f35b610487610b84565b6040518082815260200191505060405180910390f35b6104c9600480360360208110156104b357600080fd5b8101908080359060200190929190505050610b8b565b6040518082815260200191505060405180910390f35b61052b600480360360408110156104f557600080fd5b8101908080359060200190929190803573ffffffffffffffffffffffffffffffffffffffff169060200190929190505050610bb1565b005b6105796004803603604081101561054357600080fd5b81019080803573ffffffffffffffffffffffffffffffffffffffff16906020019092919080359060200190929190505050610c3a565b005b7f0c7ade2c7c08453ea605b4a8f3fb0e03e3ffcffbfa41ca8ee543d0fd74cada3881565b6105c87f9f4e1c871d5fdd0aee1cd182666698a4492b24c6832aac230d07b11046af5a89610d99565b816105d281610e18565b6000600160008573ffffffffffffffffffffffffffffffffffffffff1673ffffffffffffffffffffffffffffffffffffffff168152602001908152602001600020549050600061062b8483610ebe90919063ffffffff16565b905080600160008773ffffffffffffffffffffffffffffffffffffffff1673ffffffffffffffffffffffffffffffffffffffff168152602001908152602001600020819055508473ffffffffffffffffffffffffffffffffffffffff167f407aa06211cf8eec4798e12787e05d8e5ba13eab80aac8df1b59ed5db85201978383604051808381526020018281526020019250505060405180910390a25050505050565b6000806000838152602001908152602001600020600201549050919050565b6107136000808481526020019081526020016000206002015461070e610f41565b610b53565b610768576040517f08c379a000000000000000000000000000000000000000000000000000000000815260040180806020018281038252602f8152602001806113b8602f913960400191505060405180910390fd5b6107728282610f49565b5050565b61079f7f9f4e1c871d5fdd0aee1cd182666698a4492b24c6832aac230d07b11046af5a89610d99565b816107a981610e18565b6000600160008573ffffffffffffffffffffffffffffffffffffffff1673ffffffffffffffffffffffffffffffffffffffff16815260200190815260200160002054905060006108028483610fdc90919063ffffffff16565b905080600160008773ffffffffffffffffffffffffffffffffffffffff1673ffffffffffffffffffffffffffffffffffffffff168152602001908152602001600020819055508473ffffffffffffffffffffffffffffffffffffffff167f407aa06211cf8eec4798e12787e05d8e5ba13eab80aac8df1b59ed5db85201978383604051808381526020018281526020019250505060405180910390a25050505050565b6000600260008373ffffffffffffffffffffffffffffffffffffffff1673ffffffffffffffffffffffffffffffffffffffff168152602001908152602001600020549050919050565b6108f6610f41565b73ffffffffffffffffffffffffffffffffffffffff168173ffffffffffffffffffffffffffffffffffffffff1614610979576040517f08c379a000000000000000000000000000000000000000000000000000000000815260040180806020018281038252602f815260200180611417602f913960400191505060405180910390fd5b6109838282611064565b5050565b6000600160008373ffffffffffffffffffffffffffffffffffffffff1673ffffffffffffffffffffffffffffffffffffffff168152602001908152602001600020549050919050565b6109f97f9f4e1c871d5fdd0aee1cd182666698a4492b24c6832aac230d07b11046af5a89610d99565b81610a0381610e18565b6000600260008573ffffffffffffffffffffffffffffffffffffffff1673ffffffffffffffffffffffffffffffffffffffff1681526020019081526020016000205490506000838211610a57576000610a5b565b8382035b905080600260008773ffffffffffffffffffffffffffffffffffffffff1673ffffffffffffffffffffffffffffffffffffffff168152602001908152602001600020819055508473ffffffffffffffffffffffffffffffffffffffff167fac906a35879322fae6cc4da99d202a54cee7958738dda32d3ff821913a0f27398383604051808381526020018281526020019250505060405180910390a25050505050565b7f9f4e1c871d5fdd0aee1cd182666698a4492b24c6832aac230d07b11046af5a8981565b6000610b4b826000808681526020019081526020016000206000016110f790919063ffffffff16565b905092915050565b6000610b7c8260008086815260200190815260200160002060000161111190919063ffffffff16565b905092915050565b6000801b81565b6000610baa600080848152602001908152602001600020600001611141565b9050919050565b610bd760008084815260200190815260200160002060020154610bd2610f41565b610b53565b610c2c576040517f08c379a00000000000000000000000000000000000000000000000000000000081526004018080602001828103825260308152602001806113e76030913960400191505060405180910390fd5b610c368282611064565b5050565b610c637f9f4e1c871d5fdd0aee1cd182666698a4492b24c6832aac230d07b11046af5a89610d99565b81610c6d81610e18565b6000600260008573ffffffffffffffffffffffffffffffffffffffff1673ffffffffffffffffffffffffffffffffffffffff1681526020019081526020016000205490506000610cc68483610fdc90919063ffffffff16565b905080600260008773ffffffffffffffffffffffffffffffffffffffff1673ffffffffffffffffffffffffffffffffffffffff168152602001908152602001600020819055508473ffffffffffffffffffffffffffffffffffffffff167fac906a35879322fae6cc4da99d202a54cee7958738dda32d3ff821913a0f27398383604051808381526020018281526020019250505060405180910390a25050505050565b6000610d91836000018373ffffffffffffffffffffffffffffffffffffffff1660001b611156565b905092915050565b610da38133610b53565b610e15576040517f08c379a00000000000000000000000000000000000000000000000000000000081526004018080602001828103825260118152602001807f4552525f4143434553535f44454e49454400000000000000000000000000000081525060200191505060405180910390fd5b50565b600073ffffffffffffffffffffffffffffffffffffffff168173ffffffffffffffffffffffffffffffffffffffff161415610ebb576040517f08c379a00000000000000000000000000000000000000000000000000000000081526004018080602001828103825260138152602001807f4552525f494e56414c49445f414444524553530000000000000000000000000081525060200191505060405180910390fd5b50565b600082821115610f36576040517f08c379a000000000000000000000000000000000000000000000000000000000815260040180806020018281038252601e8152602001807f536166654d6174683a207375627472616374696f6e206f766572666c6f77000081525060200191505060405180910390fd5b818303905092915050565b600033905090565b610f7081600080858152602001908152602001600020600001610d6990919063ffffffff16565b15610fd857610f7d610f41565b73ffffffffffffffffffffffffffffffffffffffff168173ffffffffffffffffffffffffffffffffffffffff16837f2f8788117e7eff1d82e926ec794901d17c78024a50270940304540a733656f0d60405160405180910390a45b5050565b60008082840190508381101561105a576040517f08c379a000000000000000000000000000000000000000000000000000000000815260040180806020018281038252601b8152602001807f536166654d6174683a206164646974696f6e206f766572666c6f77000000000081525060200191505060405180910390fd5b8091505092915050565b61108b816000808581526020019081526020016000206000016111c690919063ffffffff16565b156110f357611098610f41565b73ffffffffffffffffffffffffffffffffffffffff168173ffffffffffffffffffffffffffffffffffffffff16837ff6391f5c32d9c69d2a47ea670b442974b53935d1edc7fd64eb21e047a839171b60405160405180910390a45b5050565b600061110683600001836111f6565b60001c905092915050565b6000611139836000018373ffffffffffffffffffffffffffffffffffffffff1660001b611279565b905092915050565b600061114f8260000161129c565b9050919050565b60006111628383611279565b6111bb5782600001829080600181540180825580915050600190039060005260206000200160009091909190915055826000018054905083600101600084815260200190815260200160002081905550600190506111c0565b600090505b92915050565b60006111ee836000018373ffffffffffffffffffffffffffffffffffffffff1660001b6112ad565b905092915050565b600081836000018054905011611257576040517f08c379a00000000000000000000000000000000000000000000000000000000081526004018080602001828103825260228152602001806113966022913960400191505060405180910390fd5b82600001828154811061126657fe5b9060005260206000200154905092915050565b600080836001016000848152602001908152602001600020541415905092915050565b600081600001805490509050919050565b6000808360010160008481526020019081526020016000205490506000811461138957600060018203905060006001866000018054905003905060008660000182815481106112f857fe5b906000526020600020015490508087600001848154811061131557fe5b906000526020600020018190555060018301876001016000838152602001908152602001600020819055508660000180548061134d57fe5b6001900381819060005260206000200160009055905586600101600087815260200190815260200160002060009055600194505050505061138f565b60009150505b9291505056fe456e756d657261626c655365743a20696e646578206f7574206f6620626f756e6473416363657373436f6e74726f6c3a2073656e646572206d75737420626520616e2061646d696e20746f206772616e74416363657373436f6e74726f6c3a2073656e646572206d75737420626520616e2061646d696e20746f207265766f6b65416363657373436f6e74726f6c3a2063616e206f6e6c792072656e6f756e636520726f6c657320666f722073656c66a2646970667358221220a456990298ac155f4aa94c685a010966c3b05b1e5431600b09ea668590a2ea5864736f6c634300060c0033",
  "immutableReferences": {},
  "source": "// SPDX-License-Identifier: SEE LICENSE IN LICENSE\npragma solidity 0.6.12;\n\nimport \"@openzeppelin/contracts/access/AccessControl.sol\";\nimport \"@openzeppelin/contracts/math/SafeMath.sol\";\n\nimport \"./interfaces/ILiquidityProtectionSystemStore.sol\";\n\nimport \"../utility/Utils.sol\";\n\n/**\n * @dev This contract aggregates the system balances of the liquidity protection mechanism.\n */\ncontract LiquidityProtectionSystemStore is ILiquidityProtectionSystemStore, AccessControl, Utils {\n    using SafeMath for uint256;\n\n    bytes32 public constant ROLE_SUPERVISOR = keccak256(\"ROLE_SUPERVISOR\");\n    bytes32 public constant ROLE_OWNER = keccak256(\"ROLE_OWNER\");\n\n    // system balances\n    mapping(IERC20 => uint256) private _systemBalances;\n\n    // network tokens minted\n    mapping(IConverterAnchor => uint256) private _networkTokensMinted;\n\n    // allows execution only by an owner\n    modifier ownerOnly {\n        _hasRole(ROLE_OWNER);\n        _;\n    }\n\n    // error message binary size optimization\n    function _hasRole(bytes32 role) internal view {\n        require(hasRole(role, msg.sender), \"ERR_ACCESS_DENIED\");\n    }\n\n    /**\n     * @dev triggered when the system balance for a given token is updated\n     *\n     * @param token         token address\n     * @param prevAmount    previous amount\n     * @param newAmount     new amount\n     */\n    event SystemBalanceUpdated(IERC20 indexed token, uint256 prevAmount, uint256 newAmount);\n\n    /**\n     * @dev triggered when the amount of network tokens minted into a specific pool is updated\n     *\n     * @param poolAnchor    pool anchor\n     * @param prevAmount    previous amount\n     * @param newAmount     new amount\n     */\n    event NetworkTokensMintedUpdated(IConverterAnchor indexed poolAnchor, uint256 prevAmount, uint256 newAmount);\n\n    constructor() public {\n        // set up administrative roles\n        _setRoleAdmin(ROLE_SUPERVISOR, ROLE_SUPERVISOR);\n        _setRoleAdmin(ROLE_OWNER, ROLE_SUPERVISOR);\n\n        // allow the deployer to initially govern the contract\n        _setupRole(ROLE_SUPERVISOR, msg.sender);\n    }\n\n    /**\n     * @dev returns the system balance for a given token\n     *\n     * @param token token address\n     * @return system balance\n     */\n    function systemBalance(IERC20 token) external view override returns (uint256) {\n        return _systemBalances[token];\n    }\n\n    /**\n     * @dev increases the system balance for a given token\n     * can be executed only by an owner\n     *\n     * @param token token address\n     * @param amount token amount\n     */\n    function incSystemBalance(IERC20 token, uint256 amount) external override ownerOnly validAddress(address(token)) {\n        uint256 prevAmount = _systemBalances[token];\n        uint256 newAmount = prevAmount.add(amount);\n        _systemBalances[token] = newAmount;\n\n        emit SystemBalanceUpdated(token, prevAmount, newAmount);\n    }\n\n    /**\n     * @dev decreases the system balance for a given token\n     * can be executed only by an owner\n     *\n     * @param token token address\n     * @param amount token amount\n     */\n    function decSystemBalance(IERC20 token, uint256 amount) external override ownerOnly validAddress(address(token)) {\n        uint256 prevAmount = _systemBalances[token];\n        uint256 newAmount = prevAmount.sub(amount);\n        _systemBalances[token] = newAmount;\n\n        emit SystemBalanceUpdated(token, prevAmount, newAmount);\n    }\n\n    /**\n     * @dev returns the amount of network tokens minted into a specific pool\n     *\n     * @param poolAnchor    pool anchor\n     * @return amount of network tokens\n     */\n    function networkTokensMinted(IConverterAnchor poolAnchor) external view override returns (uint256) {\n        return _networkTokensMinted[poolAnchor];\n    }\n\n    /**\n     * @dev increases the amount of network tokens minted into a specific pool\n     * can be executed only by an owner\n     *\n     * @param poolAnchor    pool anchor\n     * @param amount        amount to increase the minted tokens by\n     */\n    function incNetworkTokensMinted(IConverterAnchor poolAnchor, uint256 amount)\n        external\n        override\n        ownerOnly\n        validAddress(address(poolAnchor))\n    {\n        uint256 prevAmount = _networkTokensMinted[poolAnchor];\n        uint256 newAmount = prevAmount.add(amount);\n        _networkTokensMinted[poolAnchor] = newAmount;\n\n        emit NetworkTokensMintedUpdated(poolAnchor, prevAmount, newAmount);\n    }\n\n    /**\n     * @dev decreases the amount of network tokens minted into a specific pool\n     * can be executed only by an owner\n     *\n     * @param poolAnchor    pool anchor\n     * @param amount        amount to decrease the minted tokens by\n     */\n    function decNetworkTokensMinted(IConverterAnchor poolAnchor, uint256 amount)\n        external\n        override\n        ownerOnly\n        validAddress(address(poolAnchor))\n    {\n        uint256 prevAmount = _networkTokensMinted[poolAnchor];\n        uint256 newAmount = prevAmount > amount ? prevAmount - amount : 0;\n        _networkTokensMinted[poolAnchor] = newAmount;\n\n        emit NetworkTokensMintedUpdated(poolAnchor, prevAmount, newAmount);\n    }\n}\n",
  "sourcePath": "D:\\Work Space\\bancor_project\\core\\contracts\\liquidity-protection\\LiquidityProtectionSystemStore.sol",
  "compiler": {
    "name": "solc",
    "version": "0.6.12+commit.27d51765.Emscripten.clang"
  },
  "schemaVersion": "3.4.3",
  "updatedAt": "2021-08-23T03:19:30.206Z",
  "devdoc": {
    "details": "This contract aggregates the system balances of the liquidity protection mechanism.",
    "events": {
      "NetworkTokensMintedUpdated(address,uint256,uint256)": {
        "details": "triggered when the amount of network tokens minted into a specific pool is updated",
        "params": {
          "newAmount": "new amount",
          "poolAnchor": "pool anchor",
          "prevAmount": "previous amount"
        }
      },
      "SystemBalanceUpdated(address,uint256,uint256)": {
        "details": "triggered when the system balance for a given token is updated",
        "params": {
          "newAmount": "new amount",
          "prevAmount": "previous amount",
          "token": "token address"
        }
      }
    },
    "kind": "dev",
    "methods": {
      "decNetworkTokensMinted(address,uint256)": {
        "details": "decreases the amount of network tokens minted into a specific pool can be executed only by an owner",
        "params": {
          "amount": "amount to decrease the minted tokens by",
          "poolAnchor": "pool anchor"
        }
      },
      "decSystemBalance(address,uint256)": {
        "details": "decreases the system balance for a given token can be executed only by an owner",
        "params": {
          "amount": "token amount",
          "token": "token address"
        }
      },
      "getRoleAdmin(bytes32)": {
        "details": "Returns the admin role that controls `role`. See {grantRole} and {revokeRole}. To change a role's admin, use {_setRoleAdmin}."
      },
      "getRoleMember(bytes32,uint256)": {
        "details": "Returns one of the accounts that have `role`. `index` must be a value between 0 and {getRoleMemberCount}, non-inclusive. Role bearers are not sorted in any particular way, and their ordering may change at any point. WARNING: When using {getRoleMember} and {getRoleMemberCount}, make sure you perform all queries on the same block. See the following https://forum.openzeppelin.com/t/iterating-over-elements-on-enumerableset-in-openzeppelin-contracts/2296[forum post] for more information."
      },
      "getRoleMemberCount(bytes32)": {
        "details": "Returns the number of accounts that have `role`. Can be used together with {getRoleMember} to enumerate all bearers of a role."
      },
      "grantRole(bytes32,address)": {
        "details": "Grants `role` to `account`. If `account` had not been already granted `role`, emits a {RoleGranted} event. Requirements: - the caller must have ``role``'s admin role."
      },
      "hasRole(bytes32,address)": {
        "details": "Returns `true` if `account` has been granted `role`."
      },
      "incNetworkTokensMinted(address,uint256)": {
        "details": "increases the amount of network tokens minted into a specific pool can be executed only by an owner",
        "params": {
          "amount": "amount to increase the minted tokens by",
          "poolAnchor": "pool anchor"
        }
      },
      "incSystemBalance(address,uint256)": {
        "details": "increases the system balance for a given token can be executed only by an owner",
        "params": {
          "amount": "token amount",
          "token": "token address"
        }
      },
      "networkTokensMinted(address)": {
        "details": "returns the amount of network tokens minted into a specific pool",
        "params": {
          "poolAnchor": "pool anchor"
        },
        "returns": {
          "_0": "amount of network tokens"
        }
      },
      "renounceRole(bytes32,address)": {
        "details": "Revokes `role` from the calling account. Roles are often managed via {grantRole} and {revokeRole}: this function's purpose is to provide a mechanism for accounts to lose their privileges if they are compromised (such as when a trusted device is misplaced). If the calling account had been granted `role`, emits a {RoleRevoked} event. Requirements: - the caller must be `account`."
      },
      "revokeRole(bytes32,address)": {
        "details": "Revokes `role` from `account`. If `account` had been granted `role`, emits a {RoleRevoked} event. Requirements: - the caller must have ``role``'s admin role."
      },
      "systemBalance(address)": {
        "details": "returns the system balance for a given token",
        "params": {
          "token": "token address"
        },
        "returns": {
          "_0": "system balance"
        }
      }
    },
    "version": 1
  },
  "userdoc": {
    "kind": "user",
    "methods": {},
    "version": 1
  }
}