{
  "contractName": "NetworkSettings",
  "abi": [
    {
      "inputs": [
        {
          "internalType": "contract ITokenHolder",
          "name": "initialNetworkFeeWallet",
          "type": "address"
        },
        {
          "internalType": "uint32",
          "name": "initialNetworkFee",
          "type": "uint32"
        }
      ],
      "stateMutability": "nonpayable",
      "type": "constructor"
    },
    {
      "anonymous": false,
      "inputs": [
        {
          "indexed": false,
          "internalType": "uint32",
          "name": "prevNetworkFee",
          "type": "uint32"
        },
        {
          "indexed": false,
          "internalType": "uint32",
          "name": "newNetworkFee",
          "type": "uint32"
        }
      ],
      "name": "NetworkFeeUpdated",
      "type": "event"
    },
    {
      "anonymous": false,
      "inputs": [
        {
          "indexed": false,
          "internalType": "contract ITokenHolder",
          "name": "prevNetworkFeeWallet",
          "type": "address"
        },
        {
          "indexed": false,
          "internalType": "contract ITokenHolder",
          "name": "newNetworkFeeWallet",
          "type": "address"
        }
      ],
      "name": "NetworkFeeWalletUpdated",
      "type": "event"
    },
    {
      "anonymous": false,
      "inputs": [
        {
          "indexed": true,
          "internalType": "address",
          "name": "_prevOwner",
          "type": "address"
        },
        {
          "indexed": true,
          "internalType": "address",
          "name": "_newOwner",
          "type": "address"
        }
      ],
      "name": "OwnerUpdate",
      "type": "event"
    },
    {
      "inputs": [],
      "name": "acceptOwnership",
      "outputs": [],
      "stateMutability": "nonpayable",
      "type": "function"
    },
    {
      "inputs": [],
      "name": "newOwner",
      "outputs": [
        {
          "internalType": "address",
          "name": "",
          "type": "address"
        }
      ],
      "stateMutability": "view",
      "type": "function"
    },
    {
      "inputs": [],
      "name": "owner",
      "outputs": [
        {
          "internalType": "address",
          "name": "",
          "type": "address"
        }
      ],
      "stateMutability": "view",
      "type": "function"
    },
    {
      "inputs": [
        {
          "internalType": "address",
          "name": "_newOwner",
          "type": "address"
        }
      ],
      "name": "transferOwnership",
      "outputs": [],
      "stateMutability": "nonpayable",
      "type": "function"
    },
    {
      "inputs": [],
      "name": "networkFeeParams",
      "outputs": [
        {
          "internalType": "contract ITokenHolder",
          "name": "",
          "type": "address"
        },
        {
          "internalType": "uint32",
          "name": "",
          "type": "uint32"
        }
      ],
      "stateMutability": "view",
      "type": "function"
    },
    {
      "inputs": [],
      "name": "networkFeeWallet",
      "outputs": [
        {
          "internalType": "contract ITokenHolder",
          "name": "",
          "type": "address"
        }
      ],
      "stateMutability": "view",
      "type": "function"
    },
    {
      "inputs": [],
      "name": "networkFee",
      "outputs": [
        {
          "internalType": "uint32",
          "name": "",
          "type": "uint32"
        }
      ],
      "stateMutability": "view",
      "type": "function"
    },
    {
      "inputs": [
        {
          "internalType": "contract ITokenHolder",
          "name": "newNetworkFeeWallet",
          "type": "address"
        }
      ],
      "name": "setNetworkFeeWallet",
      "outputs": [],
      "stateMutability": "nonpayable",
      "type": "function"
    },
    {
      "inputs": [
        {
          "internalType": "uint32",
          "name": "newNetworkFee",
          "type": "uint32"
        }
      ],
      "name": "setNetworkFee",
      "outputs": [],
      "stateMutability": "nonpayable",
      "type": "function"
    }
  ],
  "bytecode": "0x608060405234801561001057600080fd5b50604051610c36380380610c368339818101604052604081101561003357600080fd5b810190808051906020019092919080519060200190929190505050336000806101000a81548173ffffffffffffffffffffffffffffffffffffffff021916908373ffffffffffffffffffffffffffffffffffffffff1602179055508161009e8161011960201b60201c565b816100ae816101bf60201b60201c565b83600260006101000a81548173ffffffffffffffffffffffffffffffffffffffff021916908373ffffffffffffffffffffffffffffffffffffffff16021790555082600260146101000a81548163ffffffff021916908363ffffffff16021790555050505050610247565b600073ffffffffffffffffffffffffffffffffffffffff168173ffffffffffffffffffffffffffffffffffffffff1614156101bc576040517f08c379a00000000000000000000000000000000000000000000000000000000081526004018080602001828103825260138152602001807f4552525f494e56414c49445f414444524553530000000000000000000000000081525060200191505060405180910390fd5b50565b620f424063ffffffff168163ffffffff161115610244576040517f08c379a000000000000000000000000000000000000000000000000000000000815260040180806020018281038252600f8152602001807f4552525f494e56414c49445f464545000000000000000000000000000000000081525060200191505060405180910390fd5b50565b6109e0806102566000396000f3fe608060405234801561001057600080fd5b50600436106100935760003560e01c80638da5cb5b116100665780638da5cb5b1461014e5780639db9e18b14610182578063d4ee1d90146101a6578063e33b5f5f146101da578063f2fde38b1461021b57610093565b8063155bb726146100985780633e456504146100cc578063551e9a6f1461010057806379ba509714610144575b600080fd5b6100ca600480360360208110156100ae57600080fd5b81019080803563ffffffff16906020019092919050505061025f565b005b6100d46102f3565b604051808273ffffffffffffffffffffffffffffffffffffffff16815260200191505060405180910390f35b6101426004803603602081101561011657600080fd5b81019080803573ffffffffffffffffffffffffffffffffffffffff16906020019092919050505061031d565b005b61014c610401565b005b610156610606565b604051808273ffffffffffffffffffffffffffffffffffffffff16815260200191505060405180910390f35b61018a61062a565b604051808263ffffffff16815260200191505060405180910390f35b6101ae610644565b604051808273ffffffffffffffffffffffffffffffffffffffff16815260200191505060405180910390f35b6101e261066a565b604051808373ffffffffffffffffffffffffffffffffffffffff1681526020018263ffffffff1681526020019250505060405180910390f35b61025d6004803603602081101561023157600080fd5b81019080803573ffffffffffffffffffffffffffffffffffffffff1690602001909291905050506106ab565b005b6102676107b9565b806102718161087c565b7f3f421a4eb9000b7b5fd6b0947132c94b9d04fa31e65a2f4843261c186bb3bec6600260149054906101000a900463ffffffff1683604051808363ffffffff1681526020018263ffffffff1681526020019250505060405180910390a181600260146101000a81548163ffffffff021916908363ffffffff1602179055505050565b6000600260009054906101000a900473ffffffffffffffffffffffffffffffffffffffff16905090565b6103256107b9565b8061032f81610904565b7f70c95ab75c8116dcc974957f01a8ff5e6c23a3413e7c94c5a31de9779b2cdbb8600260009054906101000a900473ffffffffffffffffffffffffffffffffffffffff1683604051808373ffffffffffffffffffffffffffffffffffffffff1681526020018273ffffffffffffffffffffffffffffffffffffffff1681526020019250505060405180910390a181600260006101000a81548173ffffffffffffffffffffffffffffffffffffffff021916908373ffffffffffffffffffffffffffffffffffffffff1602179055505050565b600160009054906101000a900473ffffffffffffffffffffffffffffffffffffffff1673ffffffffffffffffffffffffffffffffffffffff163373ffffffffffffffffffffffffffffffffffffffff16146104c4576040517f08c379a00000000000000000000000000000000000000000000000000000000081526004018080602001828103825260118152602001807f4552525f4143434553535f44454e49454400000000000000000000000000000081525060200191505060405180910390fd5b600160009054906101000a900473ffffffffffffffffffffffffffffffffffffffff1673ffffffffffffffffffffffffffffffffffffffff1660008054906101000a900473ffffffffffffffffffffffffffffffffffffffff1673ffffffffffffffffffffffffffffffffffffffff167f343765429aea5a34b3ff6a3785a98a5abb2597aca87bfbb58632c173d585373a60405160405180910390a3600160009054906101000a900473ffffffffffffffffffffffffffffffffffffffff166000806101000a81548173ffffffffffffffffffffffffffffffffffffffff021916908373ffffffffffffffffffffffffffffffffffffffff1602179055506000600160006101000a81548173ffffffffffffffffffffffffffffffffffffffff021916908373ffffffffffffffffffffffffffffffffffffffff160217905550565b60008054906101000a900473ffffffffffffffffffffffffffffffffffffffff1681565b6000600260149054906101000a900463ffffffff16905090565b600160009054906101000a900473ffffffffffffffffffffffffffffffffffffffff1681565b600080600260009054906101000a900473ffffffffffffffffffffffffffffffffffffffff16600260149054906101000a900463ffffffff16915091509091565b6106b36107b9565b60008054906101000a900473ffffffffffffffffffffffffffffffffffffffff1673ffffffffffffffffffffffffffffffffffffffff168173ffffffffffffffffffffffffffffffffffffffff161415610775576040517f08c379a000000000000000000000000000000000000000000000000000000000815260040180806020018281038252600e8152602001807f4552525f53414d455f4f574e455200000000000000000000000000000000000081525060200191505060405180910390fd5b80600160006101000a81548173ffffffffffffffffffffffffffffffffffffffff021916908373ffffffffffffffffffffffffffffffffffffffff16021790555050565b60008054906101000a900473ffffffffffffffffffffffffffffffffffffffff1673ffffffffffffffffffffffffffffffffffffffff163373ffffffffffffffffffffffffffffffffffffffff161461087a576040517f08c379a00000000000000000000000000000000000000000000000000000000081526004018080602001828103825260118152602001807f4552525f4143434553535f44454e49454400000000000000000000000000000081525060200191505060405180910390fd5b565b620f424063ffffffff168163ffffffff161115610901576040517f08c379a000000000000000000000000000000000000000000000000000000000815260040180806020018281038252600f8152602001807f4552525f494e56414c49445f464545000000000000000000000000000000000081525060200191505060405180910390fd5b50565b600073ffffffffffffffffffffffffffffffffffffffff168173ffffffffffffffffffffffffffffffffffffffff1614156109a7576040517f08c379a00000000000000000000000000000000000000000000000000000000081526004018080602001828103825260138152602001807f4552525f494e56414c49445f414444524553530000000000000000000000000081525060200191505060405180910390fd5b5056fea2646970667358221220a09a86e9900d65e04e87d90209d58379e564d2e8ec2542ffe2862360a725381b64736f6c634300060c0033",
  "immutableReferences": {},
  "source": "// SPDX-License-Identifier: SEE LICENSE IN LICENSE\npragma solidity 0.6.12;\n\nimport \"./INetworkSettings.sol\";\n\nimport \"./utility/Owned.sol\";\nimport \"./utility/Utils.sol\";\n\n/**\n * @dev This contract maintains the network settings.\n *\n */\ncontract NetworkSettings is INetworkSettings, Owned, Utils {\n    ITokenHolder private _networkFeeWallet;\n    uint32 private _networkFee;\n\n    /**\n     * @dev triggered when the network fee wallet is updated\n     *\n     * @param prevNetworkFeeWallet  previous network fee wallet\n     * @param newNetworkFeeWallet   new network fee wallet\n     */\n    event NetworkFeeWalletUpdated(ITokenHolder prevNetworkFeeWallet, ITokenHolder newNetworkFeeWallet);\n\n    /**\n     * @dev triggered when the network fee is updated\n     *\n     * @param prevNetworkFee    previous network fee\n     * @param newNetworkFee     new network fee\n     */\n    event NetworkFeeUpdated(uint32 prevNetworkFee, uint32 newNetworkFee);\n\n    /**\n     * @dev initializes a new NetworkSettings contract\n     *\n     * @param initialNetworkFeeWallet initial network fee wallet\n     * @param initialNetworkFee initial network fee in ppm units\n     */\n    constructor(ITokenHolder initialNetworkFeeWallet, uint32 initialNetworkFee)\n        public\n        validAddress(address(initialNetworkFeeWallet))\n        validFee(initialNetworkFee)\n    {\n        _networkFeeWallet = initialNetworkFeeWallet;\n        _networkFee = initialNetworkFee;\n    }\n\n    /**\n     * @dev returns the network fee parameters\n     *\n     * @return network fee wallet\n     * @return network fee in ppm units\n     */\n    function networkFeeParams() external view override returns (ITokenHolder, uint32) {\n        return (_networkFeeWallet, _networkFee);\n    }\n\n    /**\n     * @dev returns the wallet that receives the global network fees\n     *\n     * @return network fee wallet\n     */\n    function networkFeeWallet() external view override returns (ITokenHolder) {\n        return _networkFeeWallet;\n    }\n\n    /**\n     * @dev returns the global network fee\n     * the network fee is a portion of the total fees from each pool\n     *\n     * @return network fee in ppm units\n     */\n    function networkFee() external view override returns (uint32) {\n        return _networkFee;\n    }\n\n    /**\n     * @dev sets the network fee wallet\n     * can be executed only by the owner\n     *\n     * @param newNetworkFeeWallet new network fee wallet\n     */\n    function setNetworkFeeWallet(ITokenHolder newNetworkFeeWallet)\n        external\n        ownerOnly\n        validAddress(address(newNetworkFeeWallet))\n    {\n        emit NetworkFeeWalletUpdated(_networkFeeWallet, newNetworkFeeWallet);\n        _networkFeeWallet = newNetworkFeeWallet;\n    }\n\n    /**\n     * @dev sets the network fee\n     * can be executed only by the owner\n     *\n     * @param newNetworkFee new network fee in ppm units\n     */\n    function setNetworkFee(uint32 newNetworkFee) external ownerOnly validFee(newNetworkFee) {\n        emit NetworkFeeUpdated(_networkFee, newNetworkFee);\n        _networkFee = newNetworkFee;\n    }\n}\n",
  "sourcePath": "D:\\Work Space\\bancor_project\\core\\contracts\\NetworkSettings.sol",
  "compiler": {
    "name": "solc",
    "version": "0.6.12+commit.27d51765.Emscripten.clang"
  },
  "schemaVersion": "3.4.3",
  "updatedAt": "2021-08-23T11:45:53.687Z",
  "devdoc": {
    "details": "This contract maintains the network settings.",
    "events": {
      "NetworkFeeUpdated(uint32,uint32)": {
        "details": "triggered when the network fee is updated",
        "params": {
          "newNetworkFee": "new network fee",
          "prevNetworkFee": "previous network fee"
        }
      },
      "NetworkFeeWalletUpdated(address,address)": {
        "details": "triggered when the network fee wallet is updated",
        "params": {
          "newNetworkFeeWallet": "new network fee wallet",
          "prevNetworkFeeWallet": "previous network fee wallet"
        }
      }
    },
    "kind": "dev",
    "methods": {
      "acceptOwnership()": {
        "details": "used by a new owner to accept an ownership transfer"
      },
      "constructor": {
        "details": "initializes a new NetworkSettings contract",
        "params": {
          "initialNetworkFee": "initial network fee in ppm units",
          "initialNetworkFeeWallet": "initial network fee wallet"
        }
      },
      "networkFee()": {
        "details": "returns the global network fee the network fee is a portion of the total fees from each pool",
        "returns": {
          "_0": "network fee in ppm units"
        }
      },
      "networkFeeParams()": {
        "details": "returns the network fee parameters",
        "returns": {
          "_0": "network fee wallet",
          "_1": "network fee in ppm units"
        }
      },
      "networkFeeWallet()": {
        "details": "returns the wallet that receives the global network fees",
        "returns": {
          "_0": "network fee wallet"
        }
      },
      "setNetworkFee(uint32)": {
        "details": "sets the network fee can be executed only by the owner",
        "params": {
          "newNetworkFee": "new network fee in ppm units"
        }
      },
      "setNetworkFeeWallet(address)": {
        "details": "sets the network fee wallet can be executed only by the owner",
        "params": {
          "newNetworkFeeWallet": "new network fee wallet"
        }
      },
      "transferOwnership(address)": {
        "details": "allows transferring the contract ownership the new owner still needs to accept the transfer can only be called by the contract owner",
        "params": {
          "_newOwner": "new contract owner"
        }
      }
    },
    "version": 1
  },
  "userdoc": {
    "kind": "user",
    "methods": {},
    "version": 1
  }
}