{
  "contractName": "OvidexToken",
  "abi": [
    {
      "inputs": [
        {
          "internalType": "string",
          "name": "_name",
          "type": "string"
        },
        {
          "internalType": "string",
          "name": "_symbol",
          "type": "string"
        },
        {
          "internalType": "uint8",
          "name": "_decimals",
          "type": "uint8"
        }
      ],
      "stateMutability": "nonpayable",
      "type": "constructor"
    },
    {
      "anonymous": false,
      "inputs": [
        {
          "indexed": true,
          "internalType": "address",
          "name": "owner",
          "type": "address"
        },
        {
          "indexed": true,
          "internalType": "address",
          "name": "spender",
          "type": "address"
        },
        {
          "indexed": false,
          "internalType": "uint256",
          "name": "value",
          "type": "uint256"
        }
      ],
      "name": "Approval",
      "type": "event"
    },
    {
      "anonymous": false,
      "inputs": [
        {
          "indexed": false,
          "internalType": "uint256",
          "name": "_amount",
          "type": "uint256"
        }
      ],
      "name": "Destruction",
      "type": "event"
    },
    {
      "anonymous": false,
      "inputs": [
        {
          "indexed": false,
          "internalType": "uint256",
          "name": "_amount",
          "type": "uint256"
        }
      ],
      "name": "Issuance",
      "type": "event"
    },
    {
      "anonymous": false,
      "inputs": [
        {
          "indexed": true,
          "internalType": "address",
          "name": "_prevOwner",
          "type": "address"
        },
        {
          "indexed": true,
          "internalType": "address",
          "name": "_newOwner",
          "type": "address"
        }
      ],
      "name": "OwnerUpdate",
      "type": "event"
    },
    {
      "anonymous": false,
      "inputs": [
        {
          "indexed": true,
          "internalType": "address",
          "name": "from",
          "type": "address"
        },
        {
          "indexed": true,
          "internalType": "address",
          "name": "to",
          "type": "address"
        },
        {
          "indexed": false,
          "internalType": "uint256",
          "name": "value",
          "type": "uint256"
        }
      ],
      "name": "Transfer",
      "type": "event"
    },
    {
      "inputs": [],
      "name": "acceptOwnership",
      "outputs": [],
      "stateMutability": "nonpayable",
      "type": "function"
    },
    {
      "inputs": [
        {
          "internalType": "address",
          "name": "owner",
          "type": "address"
        },
        {
          "internalType": "address",
          "name": "spender",
          "type": "address"
        }
      ],
      "name": "allowance",
      "outputs": [
        {
          "internalType": "uint256",
          "name": "",
          "type": "uint256"
        }
      ],
      "stateMutability": "view",
      "type": "function"
    },
    {
      "inputs": [
        {
          "internalType": "address",
          "name": "spender",
          "type": "address"
        },
        {
          "internalType": "uint256",
          "name": "amount",
          "type": "uint256"
        }
      ],
      "name": "approve",
      "outputs": [
        {
          "internalType": "bool",
          "name": "",
          "type": "bool"
        }
      ],
      "stateMutability": "nonpayable",
      "type": "function"
    },
    {
      "inputs": [
        {
          "internalType": "address",
          "name": "account",
          "type": "address"
        }
      ],
      "name": "balanceOf",
      "outputs": [
        {
          "internalType": "uint256",
          "name": "",
          "type": "uint256"
        }
      ],
      "stateMutability": "view",
      "type": "function"
    },
    {
      "inputs": [],
      "name": "decimals",
      "outputs": [
        {
          "internalType": "uint8",
          "name": "",
          "type": "uint8"
        }
      ],
      "stateMutability": "view",
      "type": "function"
    },
    {
      "inputs": [
        {
          "internalType": "address",
          "name": "spender",
          "type": "address"
        },
        {
          "internalType": "uint256",
          "name": "subtractedValue",
          "type": "uint256"
        }
      ],
      "name": "decreaseAllowance",
      "outputs": [
        {
          "internalType": "bool",
          "name": "",
          "type": "bool"
        }
      ],
      "stateMutability": "nonpayable",
      "type": "function"
    },
    {
      "inputs": [
        {
          "internalType": "address",
          "name": "_from",
          "type": "address"
        },
        {
          "internalType": "uint256",
          "name": "_amount",
          "type": "uint256"
        }
      ],
      "name": "destroy",
      "outputs": [],
      "stateMutability": "nonpayable",
      "type": "function"
    },
    {
      "inputs": [
        {
          "internalType": "address",
          "name": "spender",
          "type": "address"
        },
        {
          "internalType": "uint256",
          "name": "addedValue",
          "type": "uint256"
        }
      ],
      "name": "increaseAllowance",
      "outputs": [
        {
          "internalType": "bool",
          "name": "",
          "type": "bool"
        }
      ],
      "stateMutability": "nonpayable",
      "type": "function"
    },
    {
      "inputs": [
        {
          "internalType": "address",
          "name": "_to",
          "type": "address"
        },
        {
          "internalType": "uint256",
          "name": "_amount",
          "type": "uint256"
        }
      ],
      "name": "issue",
      "outputs": [],
      "stateMutability": "nonpayable",
      "type": "function"
    },
    {
      "inputs": [],
      "name": "name",
      "outputs": [
        {
          "internalType": "string",
          "name": "",
          "type": "string"
        }
      ],
      "stateMutability": "view",
      "type": "function"
    },
    {
      "inputs": [],
      "name": "newOwner",
      "outputs": [
        {
          "internalType": "address",
          "name": "",
          "type": "address"
        }
      ],
      "stateMutability": "view",
      "type": "function"
    },
    {
      "inputs": [],
      "name": "owner",
      "outputs": [
        {
          "internalType": "address",
          "name": "",
          "type": "address"
        }
      ],
      "stateMutability": "view",
      "type": "function"
    },
    {
      "inputs": [],
      "name": "symbol",
      "outputs": [
        {
          "internalType": "string",
          "name": "",
          "type": "string"
        }
      ],
      "stateMutability": "view",
      "type": "function"
    },
    {
      "inputs": [],
      "name": "totalSupply",
      "outputs": [
        {
          "internalType": "uint256",
          "name": "",
          "type": "uint256"
        }
      ],
      "stateMutability": "view",
      "type": "function"
    },
    {
      "inputs": [
        {
          "internalType": "address",
          "name": "recipient",
          "type": "address"
        },
        {
          "internalType": "uint256",
          "name": "amount",
          "type": "uint256"
        }
      ],
      "name": "transfer",
      "outputs": [
        {
          "internalType": "bool",
          "name": "",
          "type": "bool"
        }
      ],
      "stateMutability": "nonpayable",
      "type": "function"
    },
    {
      "inputs": [
        {
          "internalType": "address",
          "name": "sender",
          "type": "address"
        },
        {
          "internalType": "address",
          "name": "recipient",
          "type": "address"
        },
        {
          "internalType": "uint256",
          "name": "amount",
          "type": "uint256"
        }
      ],
      "name": "transferFrom",
      "outputs": [
        {
          "internalType": "bool",
          "name": "",
          "type": "bool"
        }
      ],
      "stateMutability": "nonpayable",
      "type": "function"
    },
    {
      "inputs": [
        {
          "internalType": "address",
          "name": "_newOwner",
          "type": "address"
        }
      ],
      "name": "transferOwnership",
      "outputs": [],
      "stateMutability": "nonpayable",
      "type": "function"
    }
  ],
  "bytecode": "0x60a06040523480156200001157600080fd5b5060405162001fd938038062001fd9833981810160405260608110156200003757600080fd5b81019080805160405193929190846401000000008211156200005857600080fd5b838201915060208201858111156200006f57600080fd5b82518660018202830111640100000000821117156200008d57600080fd5b8083526020830192505050908051906020019080838360005b83811015620000c3578082015181840152602081019050620000a6565b50505050905090810190601f168015620000f15780820380516001836020036101000a031916815260200191505b50604052602001805160405193929190846401000000008211156200011557600080fd5b838201915060208201858111156200012c57600080fd5b82518660018202830111640100000000821117156200014a57600080fd5b8083526020830192505050908051906020019080838360005b838110156200018057808201518184015260208101905062000163565b50505050905090810190601f168015620001ae5780820380516001836020036101000a031916815260200191505b506040526020018051906020019092919050505082828282828160039080519060200190620001df92919062000275565b508060049080519060200190620001f892919062000275565b506012600560006101000a81548160ff021916908360ff160217905550505033600560016101000a81548173ffffffffffffffffffffffffffffffffffffffff021916908373ffffffffffffffffffffffffffffffffffffffff1602179055508060ff1660808160ff1660f81b815250505050505050506200031b565b828054600181600116156101000203166002900490600052602060002090601f016020900481019282601f10620002b857805160ff1916838001178555620002e9565b82800160010185558215620002e9579182015b82811115620002e8578251825591602001919060010190620002cb565b5b509050620002f89190620002fc565b5090565b5b8082111562000317576000816000905550600101620002fd565b5090565b60805160f81c611ca062000339600039806108325250611ca06000f3fe608060405234801561001057600080fd5b506004361061010b5760003560e01c8063867904b4116100a2578063a457c2d711610071578063a457c2d7146104d3578063a9059cbb14610537578063d4ee1d901461059b578063dd62ed3e146105cf578063f2fde38b146106475761010b565b8063867904b4146103805780638da5cb5b146103ce57806395d89b4114610402578063a24835d1146104855761010b565b8063313ce567116100de578063313ce5671461029957806339509351146102ba57806370a082311461031e57806379ba5097146103765761010b565b806306fdde0314610110578063095ea7b31461019357806318160ddd146101f757806323b872dd14610215575b600080fd5b61011861068b565b6040518080602001828103825283818151815260200191508051906020019080838360005b8381101561015857808201518184015260208101905061013d565b50505050905090810190601f1680156101855780820380516001836020036101000a031916815260200191505b509250505060405180910390f35b6101df600480360360408110156101a957600080fd5b81019080803573ffffffffffffffffffffffffffffffffffffffff1690602001909291908035906020019092919050505061072d565b60405180821515815260200191505060405180910390f35b6101ff61074b565b6040518082815260200191505060405180910390f35b6102816004803603606081101561022b57600080fd5b81019080803573ffffffffffffffffffffffffffffffffffffffff169060200190929190803573ffffffffffffffffffffffffffffffffffffffff16906020019092919080359060200190929190505050610755565b60405180821515815260200191505060405180910390f35b6102a161082e565b604051808260ff16815260200191505060405180910390f35b610306600480360360408110156102d057600080fd5b81019080803573ffffffffffffffffffffffffffffffffffffffff16906020019092919080359060200190929190505050610856565b60405180821515815260200191505060405180910390f35b6103606004803603602081101561033457600080fd5b81019080803573ffffffffffffffffffffffffffffffffffffffff169060200190929190505050610909565b6040518082815260200191505060405180910390f35b61037e610951565b005b6103cc6004803603604081101561039657600080fd5b81019080803573ffffffffffffffffffffffffffffffffffffffff16906020019092919080359060200190929190505050610b59565b005b6103d6610bb1565b604051808273ffffffffffffffffffffffffffffffffffffffff16815260200191505060405180910390f35b61040a610bd7565b6040518080602001828103825283818151815260200191508051906020019080838360005b8381101561044a57808201518184015260208101905061042f565b50505050905090810190601f1680156104775780820380516001836020036101000a031916815260200191505b509250505060405180910390f35b6104d16004803603604081101561049b57600080fd5b81019080803573ffffffffffffffffffffffffffffffffffffffff16906020019092919080359060200190929190505050610c79565b005b61051f600480360360408110156104e957600080fd5b81019080803573ffffffffffffffffffffffffffffffffffffffff16906020019092919080359060200190929190505050610cc6565b60405180821515815260200191505060405180910390f35b6105836004803603604081101561054d57600080fd5b81019080803573ffffffffffffffffffffffffffffffffffffffff16906020019092919080359060200190929190505050610d93565b60405180821515815260200191505060405180910390f35b6105a3610db1565b604051808273ffffffffffffffffffffffffffffffffffffffff16815260200191505060405180910390f35b610631600480360360408110156105e557600080fd5b81019080803573ffffffffffffffffffffffffffffffffffffffff169060200190929190803573ffffffffffffffffffffffffffffffffffffffff169060200190929190505050610dd7565b6040518082815260200191505060405180910390f35b6106896004803603602081101561065d57600080fd5b81019080803573ffffffffffffffffffffffffffffffffffffffff169060200190929190505050610e5e565b005b606060038054600181600116156101000203166002900480601f0160208091040260200160405190810160405280929190818152602001828054600181600116156101000203166002900480156107235780601f106106f857610100808354040283529160200191610723565b820191906000526020600020905b81548152906001019060200180831161070657829003601f168201915b5050505050905090565b600061074161073a610f6e565b8484610f76565b6001905092915050565b6000600254905090565b600061076284848461116d565b6108238461076e610f6e565b61081e85604051806060016040528060288152602001611bb460289139600160008b73ffffffffffffffffffffffffffffffffffffffff1673ffffffffffffffffffffffffffffffffffffffff16815260200190815260200160002060006107d4610f6e565b73ffffffffffffffffffffffffffffffffffffffff1673ffffffffffffffffffffffffffffffffffffffff1681526020019081526020016000205461142e9092919063ffffffff16565b610f76565b600190509392505050565b60007f0000000000000000000000000000000000000000000000000000000000000000905090565b60006108ff610863610f6e565b846108fa8560016000610874610f6e565b73ffffffffffffffffffffffffffffffffffffffff1673ffffffffffffffffffffffffffffffffffffffff16815260200190815260200160002060008973ffffffffffffffffffffffffffffffffffffffff1673ffffffffffffffffffffffffffffffffffffffff168152602001908152602001600020546114e890919063ffffffff16565b610f76565b6001905092915050565b60008060008373ffffffffffffffffffffffffffffffffffffffff1673ffffffffffffffffffffffffffffffffffffffff168152602001908152602001600020549050919050565b600660009054906101000a900473ffffffffffffffffffffffffffffffffffffffff1673ffffffffffffffffffffffffffffffffffffffff163373ffffffffffffffffffffffffffffffffffffffff1614610a14576040517f08c379a00000000000000000000000000000000000000000000000000000000081526004018080602001828103825260118152602001807f4552525f4143434553535f44454e49454400000000000000000000000000000081525060200191505060405180910390fd5b600660009054906101000a900473ffffffffffffffffffffffffffffffffffffffff1673ffffffffffffffffffffffffffffffffffffffff16600560019054906101000a900473ffffffffffffffffffffffffffffffffffffffff1673ffffffffffffffffffffffffffffffffffffffff167f343765429aea5a34b3ff6a3785a98a5abb2597aca87bfbb58632c173d585373a60405160405180910390a3600660009054906101000a900473ffffffffffffffffffffffffffffffffffffffff16600560016101000a81548173ffffffffffffffffffffffffffffffffffffffff021916908373ffffffffffffffffffffffffffffffffffffffff1602179055506000600660006101000a81548173ffffffffffffffffffffffffffffffffffffffff021916908373ffffffffffffffffffffffffffffffffffffffff160217905550565b610b61611570565b81610b6b81611635565b610b758383611713565b7f9386c90217c323f58030f9dadcbc938f807a940f4ff41cd4cead9562f5da7dc3826040518082815260200191505060405180910390a1505050565b600560019054906101000a900473ffffffffffffffffffffffffffffffffffffffff1681565b606060048054600181600116156101000203166002900480601f016020809104026020016040519081016040528092919081815260200182805460018160011615610100020316600290048015610c6f5780601f10610c4457610100808354040283529160200191610c6f565b820191906000526020600020905b815481529060010190602001808311610c5257829003601f168201915b5050505050905090565b610c81611570565b610c8b82826118da565b7f9a1b418bc061a5d80270261562e6986a35d995f8051145f277be16103abd3453816040518082815260200191505060405180910390a15050565b6000610d89610cd3610f6e565b84610d8485604051806060016040528060258152602001611c466025913960016000610cfd610f6e565b73ffffffffffffffffffffffffffffffffffffffff1673ffffffffffffffffffffffffffffffffffffffff16815260200190815260200160002060008a73ffffffffffffffffffffffffffffffffffffffff1673ffffffffffffffffffffffffffffffffffffffff1681526020019081526020016000205461142e9092919063ffffffff16565b610f76565b6001905092915050565b6000610da7610da0610f6e565b848461116d565b6001905092915050565b600660009054906101000a900473ffffffffffffffffffffffffffffffffffffffff1681565b6000600160008473ffffffffffffffffffffffffffffffffffffffff1673ffffffffffffffffffffffffffffffffffffffff16815260200190815260200160002060008373ffffffffffffffffffffffffffffffffffffffff1673ffffffffffffffffffffffffffffffffffffffff16815260200190815260200160002054905092915050565b610e66611570565b600560019054906101000a900473ffffffffffffffffffffffffffffffffffffffff1673ffffffffffffffffffffffffffffffffffffffff168173ffffffffffffffffffffffffffffffffffffffff161415610f2a576040517f08c379a000000000000000000000000000000000000000000000000000000000815260040180806020018281038252600e8152602001807f4552525f53414d455f4f574e455200000000000000000000000000000000000081525060200191505060405180910390fd5b80600660006101000a81548173ffffffffffffffffffffffffffffffffffffffff021916908373ffffffffffffffffffffffffffffffffffffffff16021790555050565b600033905090565b600073ffffffffffffffffffffffffffffffffffffffff168373ffffffffffffffffffffffffffffffffffffffff161415610ffc576040517f08c379a0000000000000000000000000000000000000000000000000000000008152600401808060200182810382526024815260200180611c226024913960400191505060405180910390fd5b600073ffffffffffffffffffffffffffffffffffffffff168273ffffffffffffffffffffffffffffffffffffffff161415611082576040517f08c379a0000000000000000000000000000000000000000000000000000000008152600401808060200182810382526022815260200180611b6c6022913960400191505060405180910390fd5b80600160008573ffffffffffffffffffffffffffffffffffffffff1673ffffffffffffffffffffffffffffffffffffffff16815260200190815260200160002060008473ffffffffffffffffffffffffffffffffffffffff1673ffffffffffffffffffffffffffffffffffffffff168152602001908152602001600020819055508173ffffffffffffffffffffffffffffffffffffffff168373ffffffffffffffffffffffffffffffffffffffff167f8c5be1e5ebec7d5bd14f71427d1e84f3dd0314c0f7b2291e5b200ac8c7c3b925836040518082815260200191505060405180910390a3505050565b600073ffffffffffffffffffffffffffffffffffffffff168373ffffffffffffffffffffffffffffffffffffffff1614156111f3576040517f08c379a0000000000000000000000000000000000000000000000000000000008152600401808060200182810382526025815260200180611bfd6025913960400191505060405180910390fd5b600073ffffffffffffffffffffffffffffffffffffffff168273ffffffffffffffffffffffffffffffffffffffff161415611279576040517f08c379a0000000000000000000000000000000000000000000000000000000008152600401808060200182810382526023815260200180611b276023913960400191505060405180910390fd5b611284838383611a9e565b6112ef81604051806060016040528060268152602001611b8e602691396000808773ffffffffffffffffffffffffffffffffffffffff1673ffffffffffffffffffffffffffffffffffffffff1681526020019081526020016000205461142e9092919063ffffffff16565b6000808573ffffffffffffffffffffffffffffffffffffffff1673ffffffffffffffffffffffffffffffffffffffff16815260200190815260200160002081905550611382816000808573ffffffffffffffffffffffffffffffffffffffff1673ffffffffffffffffffffffffffffffffffffffff168152602001908152602001600020546114e890919063ffffffff16565b6000808473ffffffffffffffffffffffffffffffffffffffff1673ffffffffffffffffffffffffffffffffffffffff168152602001908152602001600020819055508173ffffffffffffffffffffffffffffffffffffffff168373ffffffffffffffffffffffffffffffffffffffff167fddf252ad1be2c89b69c2b068fc378daa952ba7f163c4a11628f55a4df523b3ef836040518082815260200191505060405180910390a3505050565b60008383111582906114db576040517f08c379a00000000000000000000000000000000000000000000000000000000081526004018080602001828103825283818151815260200191508051906020019080838360005b838110156114a0578082015181840152602081019050611485565b50505050905090810190601f1680156114cd5780820380516001836020036101000a031916815260200191505b509250505060405180910390fd5b5082840390509392505050565b600080828401905083811015611566576040517f08c379a000000000000000000000000000000000000000000000000000000000815260040180806020018281038252601b8152602001807f536166654d6174683a206164646974696f6e206f766572666c6f77000000000081525060200191505060405180910390fd5b8091505092915050565b600560019054906101000a900473ffffffffffffffffffffffffffffffffffffffff1673ffffffffffffffffffffffffffffffffffffffff163373ffffffffffffffffffffffffffffffffffffffff1614611633576040517f08c379a00000000000000000000000000000000000000000000000000000000081526004018080602001828103825260118152602001807f4552525f4143434553535f44454e49454400000000000000000000000000000081525060200191505060405180910390fd5b565b600073ffffffffffffffffffffffffffffffffffffffff168173ffffffffffffffffffffffffffffffffffffffff161415801561169e57503073ffffffffffffffffffffffffffffffffffffffff168173ffffffffffffffffffffffffffffffffffffffff1614155b611710576040517f08c379a000000000000000000000000000000000000000000000000000000000815260040180806020018281038252601c8152602001807f4552525f494e56414c49445f45585445524e414c5f414444524553530000000081525060200191505060405180910390fd5b50565b600073ffffffffffffffffffffffffffffffffffffffff168273ffffffffffffffffffffffffffffffffffffffff1614156117b6576040517f08c379a000000000000000000000000000000000000000000000000000000000815260040180806020018281038252601f8152602001807f45524332303a206d696e7420746f20746865207a65726f20616464726573730081525060200191505060405180910390fd5b6117c260008383611a9e565b6117d7816002546114e890919063ffffffff16565b60028190555061182e816000808573ffffffffffffffffffffffffffffffffffffffff1673ffffffffffffffffffffffffffffffffffffffff168152602001908152602001600020546114e890919063ffffffff16565b6000808473ffffffffffffffffffffffffffffffffffffffff1673ffffffffffffffffffffffffffffffffffffffff168152602001908152602001600020819055508173ffffffffffffffffffffffffffffffffffffffff16600073ffffffffffffffffffffffffffffffffffffffff167fddf252ad1be2c89b69c2b068fc378daa952ba7f163c4a11628f55a4df523b3ef836040518082815260200191505060405180910390a35050565b600073ffffffffffffffffffffffffffffffffffffffff168273ffffffffffffffffffffffffffffffffffffffff161415611960576040517f08c379a0000000000000000000000000000000000000000000000000000000008152600401808060200182810382526021815260200180611bdc6021913960400191505060405180910390fd5b61196c82600083611a9e565b6119d781604051806060016040528060228152602001611b4a602291396000808673ffffffffffffffffffffffffffffffffffffffff1673ffffffffffffffffffffffffffffffffffffffff1681526020019081526020016000205461142e9092919063ffffffff16565b6000808473ffffffffffffffffffffffffffffffffffffffff1673ffffffffffffffffffffffffffffffffffffffff16815260200190815260200160002081905550611a2e81600254611aa390919063ffffffff16565b600281905550600073ffffffffffffffffffffffffffffffffffffffff168273ffffffffffffffffffffffffffffffffffffffff167fddf252ad1be2c89b69c2b068fc378daa952ba7f163c4a11628f55a4df523b3ef836040518082815260200191505060405180910390a35050565b505050565b600082821115611b1b576040517f08c379a000000000000000000000000000000000000000000000000000000000815260040180806020018281038252601e8152602001807f536166654d6174683a207375627472616374696f6e206f766572666c6f77000081525060200191505060405180910390fd5b81830390509291505056fe45524332303a207472616e7366657220746f20746865207a65726f206164647265737345524332303a206275726e20616d6f756e7420657863656564732062616c616e636545524332303a20617070726f766520746f20746865207a65726f206164647265737345524332303a207472616e7366657220616d6f756e7420657863656564732062616c616e636545524332303a207472616e7366657220616d6f756e74206578636565647320616c6c6f77616e636545524332303a206275726e2066726f6d20746865207a65726f206164647265737345524332303a207472616e736665722066726f6d20746865207a65726f206164647265737345524332303a20617070726f76652066726f6d20746865207a65726f206164647265737345524332303a2064656372656173656420616c6c6f77616e63652062656c6f77207a65726fa2646970667358221220d14ce2f275ae94592dd0dbb2efaf858f8a10a0f14bace3360add2d3f8630ee8064736f6c634300060c0033",
  "immutableReferences": {
    "30776": [
      {
        "length": 32,
        "start": 2098
      }
    ]
  },
  "source": "// SPDX-License-Identifier: SEE LICENSE IN LICENSE\r\npragma solidity 0.6.12;\r\n\r\nimport \"@openzeppelin/contracts/token/ERC20/ERC20.sol\";\r\nimport \"./DSToken.sol\";\r\n\r\ncontract OvidexToken is DSToken {\r\n    constructor(string memory _name, string memory _symbol, uint8 _decimals) DSToken(_name, _symbol, _decimals) public {}\r\n}",
  "sourcePath": "D:\\Work Space\\bancor_project\\core\\contracts\\token\\OvidexToken.sol",
  "compiler": {
    "name": "solc",
    "version": "0.6.12+commit.27d51765.Emscripten.clang"
  },
  "schemaVersion": "3.4.3",
  "updatedAt": "2021-08-23T03:19:30.238Z",
  "devdoc": {
    "kind": "dev",
    "methods": {
      "acceptOwnership()": {
        "details": "used by a new owner to accept an ownership transfer"
      },
      "allowance(address,address)": {
        "details": "See {IERC20-allowance}."
      },
      "approve(address,uint256)": {
        "details": "See {IERC20-approve}. Requirements: - `spender` cannot be the zero address."
      },
      "balanceOf(address)": {
        "details": "See {IERC20-balanceOf}."
      },
      "decimals()": {
        "details": "Returns the number of decimals used to get its user representation. For example, if `decimals` equals `2`, a balance of `505` tokens should be displayed to a user as `5,05` (`505 / 10 ** 2`). Tokens usually opt for a value of 18, imitating the relationship between Ether and Wei. This is the value {ERC20} uses, unless {_setupDecimals} is called. NOTE: This information is only used for _display_ purposes: it in no way affects any of the arithmetic of the contract, including {IERC20-balanceOf} and {IERC20-transfer}."
      },
      "decreaseAllowance(address,uint256)": {
        "details": "Atomically decreases the allowance granted to `spender` by the caller. This is an alternative to {approve} that can be used as a mitigation for problems described in {IERC20-approve}. Emits an {Approval} event indicating the updated allowance. Requirements: - `spender` cannot be the zero address. - `spender` must have allowance for the caller of at least `subtractedValue`."
      },
      "destroy(address,uint256)": {
        "details": "removes tokens from the given account and decreases the token supply can only be called by the contract owner",
        "params": {
          "_amount": "amount to decrease the supply by",
          "_from": "account to remove the amount from"
        }
      },
      "increaseAllowance(address,uint256)": {
        "details": "Atomically increases the allowance granted to `spender` by the caller. This is an alternative to {approve} that can be used as a mitigation for problems described in {IERC20-approve}. Emits an {Approval} event indicating the updated allowance. Requirements: - `spender` cannot be the zero address."
      },
      "issue(address,uint256)": {
        "details": "increases the token supply and sends the new tokens to the given account can only be called by the contract owner",
        "params": {
          "_amount": "amount to increase the supply by",
          "_to": "account to receive the new amount"
        }
      },
      "name()": {
        "details": "Returns the name of the token."
      },
      "symbol()": {
        "details": "Returns the symbol of the token, usually a shorter version of the name."
      },
      "totalSupply()": {
        "details": "See {IERC20-totalSupply}."
      },
      "transfer(address,uint256)": {
        "details": "See {IERC20-transfer}. Requirements: - `recipient` cannot be the zero address. - the caller must have a balance of at least `amount`."
      },
      "transferFrom(address,address,uint256)": {
        "details": "See {IERC20-transferFrom}. Emits an {Approval} event indicating the updated allowance. This is not required by the EIP. See the note at the beginning of {ERC20}. Requirements: - `sender` and `recipient` cannot be the zero address. - `sender` must have a balance of at least `amount`. - the caller must have allowance for ``sender``'s tokens of at least `amount`."
      },
      "transferOwnership(address)": {
        "details": "allows transferring the contract ownership the new owner still needs to accept the transfer can only be called by the contract owner",
        "params": {
          "_newOwner": "new contract owner"
        }
      }
    },
    "version": 1
  },
  "userdoc": {
    "kind": "user",
    "methods": {},
    "version": 1
  }
}