{
  "contractName": "ReserveToken",
  "abi": [
    {
      "inputs": [],
      "name": "NATIVE_TOKEN_ADDRESS",
      "outputs": [
        {
          "internalType": "contract IReserveToken",
          "name": "",
          "type": "IReserveToken"
        }
      ],
      "stateMutability": "view",
      "type": "function"
    }
  ],
  "bytecode": "0x60b8610024600b82828239805160001a607314601757fe5b30600052607381538281f3fe730000000000000000000000000000000000000000301460806040526004361060335760003560e01c8063df2ebdbb146038575b600080fd5b603e606a565b604051808273ffffffffffffffffffffffffffffffffffffffff16815260200191505060405180910390f35b73eeeeeeeeeeeeeeeeeeeeeeeeeeeeeeeeeeeeeeee8156fea26469706673582212207c579813856db968bb1061e7b237ce817d1d8663fda2cf9e006e711891bfe56764736f6c634300060c0033",
  "immutableReferences": {},
  "source": "// SPDX-License-Identifier: SEE LICENSE IN LICENSE\npragma solidity 0.6.12;\n\nimport \"@openzeppelin/contracts/math/SafeMath.sol\";\n\nimport \"./interfaces/IReserveToken.sol\";\n\nimport \"./SafeERC20Ex.sol\";\n\n/**\n * @dev This library implements ERC20 and SafeERC20 utilities for reserve tokens, which can be either ERC20 tokens or ETH\n */\nlibrary ReserveToken {\n    using SafeERC20 for IERC20;\n    using SafeERC20Ex for IERC20;\n\n    // the address that represents an ETH reserve\n    IReserveToken public constant NATIVE_TOKEN_ADDRESS = IReserveToken(0xEeeeeEeeeEeEeeEeEeEeeEEEeeeeEeeeeeeeEEeE);\n\n    /**\n     * @dev returns whether the provided token represents an ERC20 or ETH reserve\n     *\n     * @param reserveToken the address of the reserve token\n     *\n     * @return whether the provided token represents an ERC20 or ETH reserve\n     */\n    function isNativeToken(IReserveToken reserveToken) internal pure returns (bool) {\n        return reserveToken == NATIVE_TOKEN_ADDRESS;\n    }\n\n    /**\n     * @dev returns the balance of the reserve token\n     *\n     * @param reserveToken the address of the reserve token\n     * @param account the address of the account to check\n     *\n     * @return the balance of the reserve token\n     */\n    function balanceOf(IReserveToken reserveToken, address account) internal view returns (uint256) {\n        if (isNativeToken(reserveToken)) {\n            return account.balance;\n        }\n\n        return toIERC20(reserveToken).balanceOf(account);\n    }\n\n    /**\n     * @dev transfers a specific amount of the reserve token\n     *\n     * @param reserveToken the address of the reserve token\n     * @param to the destination address to transfer the amount to\n     * @param amount the amount to transfer\n     */\n    function safeTransfer(\n        IReserveToken reserveToken,\n        address to,\n        uint256 amount\n    ) internal {\n        if (amount == 0) {\n            return;\n        }\n\n        if (isNativeToken(reserveToken)) {\n            payable(to).transfer(amount);\n        } else {\n            toIERC20(reserveToken).safeTransfer(to, amount);\n        }\n    }\n\n    /**\n     * @dev transfers a specific amount of the reserve token from a specific holder using the allowance mechanism\n     * this function ignores a reserve token which represents an ETH reserve\n     *\n     * @param reserveToken the address of the reserve token\n     * @param from the source address to transfer the amount from\n     * @param to the destination address to transfer the amount to\n     * @param amount the amount to transfer\n     */\n    function safeTransferFrom(\n        IReserveToken reserveToken,\n        address from,\n        address to,\n        uint256 amount\n    ) internal {\n        if (amount == 0 || isNativeToken(reserveToken)) {\n            return;\n        }\n\n        toIERC20(reserveToken).safeTransferFrom(from, to, amount);\n    }\n\n    /**\n     * @dev ensures that the spender has sufficient allowance\n     * this function ignores a reserve token which represents an ETH reserve\n     *\n     * @param reserveToken the address of the reserve token\n     * @param spender the address allowed to spend\n     * @param amount the allowed amount to spend\n     */\n    function ensureApprove(\n        IReserveToken reserveToken,\n        address spender,\n        uint256 amount\n    ) internal {\n        if (isNativeToken(reserveToken)) {\n            return;\n        }\n\n        toIERC20(reserveToken).ensureApprove(spender, amount);\n    }\n\n    /**\n     * @dev utility function that converts an IReserveToken to an IERC20\n     *\n     * @param reserveToken the address of the reserve token\n     *\n     * @return an IERC20\n     */\n    function toIERC20(IReserveToken reserveToken) private pure returns (IERC20) {\n        return IERC20(address(reserveToken));\n    }\n}\n",
  "sourcePath": "D:\\Work Space\\bancor_project\\core\\contracts\\token\\ReserveToken.sol",
  "compiler": {
    "name": "solc",
    "version": "0.6.12+commit.27d51765.Emscripten.clang"
  },
  "schemaVersion": "3.4.3",
  "updatedAt": "2021-08-23T03:19:30.241Z",
  "devdoc": {
    "details": "This library implements ERC20 and SafeERC20 utilities for reserve tokens, which can be either ERC20 tokens or ETH",
    "kind": "dev",
    "methods": {},
    "version": 1
  },
  "userdoc": {
    "kind": "user",
    "methods": {},
    "version": 1
  }
}