{
  "contractName": "TestSafeERC20Ex",
  "abi": [
    {
      "inputs": [
        {
          "internalType": "contract IERC20",
          "name": "token",
          "type": "address"
        },
        {
          "internalType": "address",
          "name": "spender",
          "type": "address"
        },
        {
          "internalType": "uint256",
          "name": "amount",
          "type": "uint256"
        }
      ],
      "name": "ensureApprove",
      "outputs": [],
      "stateMutability": "nonpayable",
      "type": "function"
    }
  ],
  "bytecode": "0x608060405234801561001057600080fd5b50610825806100206000396000f3fe608060405234801561001057600080fd5b506004361061002b5760003560e01c806349422df014610030575b600080fd5b61009c6004803603606081101561004657600080fd5b81019080803573ffffffffffffffffffffffffffffffffffffffff169060200190929190803573ffffffffffffffffffffffffffffffffffffffff1690602001909291908035906020019092919050505061009e565b005b6100c982828573ffffffffffffffffffffffffffffffffffffffff166100ce9092919063ffffffff16565b505050565b60008114156100dc57610210565b60008373ffffffffffffffffffffffffffffffffffffffff1663dd62ed3e30856040518363ffffffff1660e01b8152600401808373ffffffffffffffffffffffffffffffffffffffff1681526020018273ffffffffffffffffffffffffffffffffffffffff1681526020019250505060206040518083038186803b15801561016357600080fd5b505afa158015610177573d6000803e3d6000fd5b505050506040513d602081101561018d57600080fd5b810190808051906020019092919050505090508181106101ad5750610210565b60008111156101e3576101e28360008673ffffffffffffffffffffffffffffffffffffffff166102159092919063ffffffff16565b5b61020e83838673ffffffffffffffffffffffffffffffffffffffff166102159092919063ffffffff16565b505b505050565b60008114806102e3575060008373ffffffffffffffffffffffffffffffffffffffff1663dd62ed3e30856040518363ffffffff1660e01b8152600401808373ffffffffffffffffffffffffffffffffffffffff1681526020018273ffffffffffffffffffffffffffffffffffffffff1681526020019250505060206040518083038186803b1580156102a657600080fd5b505afa1580156102ba573d6000803e3d6000fd5b505050506040513d60208110156102d057600080fd5b8101908080519060200190929190505050145b610338576040517f08c379a00000000000000000000000000000000000000000000000000000000081526004018080602001828103825260368152602001806107ba6036913960400191505060405180910390fd5b6103d58363095ea7b360e01b8484604051602401808373ffffffffffffffffffffffffffffffffffffffff16815260200182815260200192505050604051602081830303815290604052907bffffffffffffffffffffffffffffffffffffffffffffffffffffffff19166020820180517bffffffffffffffffffffffffffffffffffffffffffffffffffffffff83818316178352505050506103da565b505050565b606061043c826040518060400160405280602081526020017f5361666545524332303a206c6f772d6c6576656c2063616c6c206661696c65648152508573ffffffffffffffffffffffffffffffffffffffff166104c99092919063ffffffff16565b90506000815111156104c45780806020019051602081101561045d57600080fd5b81019080805190602001909291905050506104c3576040517f08c379a000000000000000000000000000000000000000000000000000000000815260040180806020018281038252602a815260200180610790602a913960400191505060405180910390fd5b5b505050565b60606104d884846000856104e1565b90509392505050565b60608247101561053c576040517f08c379a000000000000000000000000000000000000000000000000000000000815260040180806020018281038252602681526020018061076a6026913960400191505060405180910390fd5b6105458561068a565b6105b7576040517f08c379a000000000000000000000000000000000000000000000000000000000815260040180806020018281038252601d8152602001807f416464726573733a2063616c6c20746f206e6f6e2d636f6e747261637400000081525060200191505060405180910390fd5b600060608673ffffffffffffffffffffffffffffffffffffffff1685876040518082805190602001908083835b6020831061060757805182526020820191506020810190506020830392506105e4565b6001836020036101000a03801982511681845116808217855250505050505090500191505060006040518083038185875af1925050503d8060008114610669576040519150601f19603f3d011682016040523d82523d6000602084013e61066e565b606091505b509150915061067e82828661069d565b92505050949350505050565b600080823b905060008111915050919050565b606083156106ad57829050610762565b6000835111156106c05782518084602001fd5b816040517f08c379a00000000000000000000000000000000000000000000000000000000081526004018080602001828103825283818151815260200191508051906020019080838360005b8381101561072757808201518184015260208101905061070c565b50505050905090810190601f1680156107545780820380516001836020036101000a031916815260200191505b509250505060405180910390fd5b939250505056fe416464726573733a20696e73756666696369656e742062616c616e636520666f722063616c6c5361666545524332303a204552433230206f7065726174696f6e20646964206e6f7420737563636565645361666545524332303a20617070726f76652066726f6d206e6f6e2d7a65726f20746f206e6f6e2d7a65726f20616c6c6f77616e6365a2646970667358221220d43bdeb36078f48451d4b7ab587ea392e630be268c1b7e536ed5de3b3c8523d364736f6c634300060c0033",
  "immutableReferences": {},
  "source": "// SPDX-License-Identifier: SEE LICENSE IN LICENSE\npragma solidity 0.6.12;\n\nimport \"../token/SafeERC20Ex.sol\";\n\ncontract TestSafeERC20Ex {\n    using SafeERC20Ex for IERC20;\n\n    function ensureApprove(\n        IERC20 token,\n        address spender,\n        uint256 amount\n    ) external {\n        token.ensureApprove(spender, amount);\n    }\n}\n",
  "sourcePath": "D:\\Work Space\\bancor_project\\core\\contracts\\helpers\\TestSafeERC20Ex.sol",
  "compiler": {
    "name": "solc",
    "version": "0.6.12+commit.27d51765.Emscripten.clang"
  },
  "schemaVersion": "3.4.3",
  "updatedAt": "2021-08-23T03:19:29.916Z",
  "devdoc": {
    "kind": "dev",
    "methods": {},
    "version": 1
  },
  "userdoc": {
    "kind": "user",
    "methods": {},
    "version": 1
  }
}