{
  "contractName": "TestConverterRegistry",
  "abi": [
    {
      "inputs": [
        {
          "internalType": "contract IContractRegistry",
          "name": "_registry",
          "type": "address"
        }
      ],
      "stateMutability": "nonpayable",
      "type": "constructor"
    },
    {
      "anonymous": false,
      "inputs": [
        {
          "indexed": true,
          "internalType": "contract IConverterAnchor",
          "name": "_anchor",
          "type": "address"
        }
      ],
      "name": "ConverterAnchorAdded",
      "type": "event"
    },
    {
      "anonymous": false,
      "inputs": [
        {
          "indexed": true,
          "internalType": "contract IConverterAnchor",
          "name": "_anchor",
          "type": "address"
        }
      ],
      "name": "ConverterAnchorRemoved",
      "type": "event"
    },
    {
      "anonymous": false,
      "inputs": [
        {
          "indexed": true,
          "internalType": "contract IReserveToken",
          "name": "_convertibleToken",
          "type": "address"
        },
        {
          "indexed": true,
          "internalType": "contract IConverterAnchor",
          "name": "_smartToken",
          "type": "address"
        }
      ],
      "name": "ConvertibleTokenAdded",
      "type": "event"
    },
    {
      "anonymous": false,
      "inputs": [
        {
          "indexed": true,
          "internalType": "contract IReserveToken",
          "name": "_convertibleToken",
          "type": "address"
        },
        {
          "indexed": true,
          "internalType": "contract IConverterAnchor",
          "name": "_smartToken",
          "type": "address"
        }
      ],
      "name": "ConvertibleTokenRemoved",
      "type": "event"
    },
    {
      "anonymous": false,
      "inputs": [
        {
          "indexed": true,
          "internalType": "contract IConverterAnchor",
          "name": "_liquidityPool",
          "type": "address"
        }
      ],
      "name": "LiquidityPoolAdded",
      "type": "event"
    },
    {
      "anonymous": false,
      "inputs": [
        {
          "indexed": true,
          "internalType": "contract IConverterAnchor",
          "name": "_liquidityPool",
          "type": "address"
        }
      ],
      "name": "LiquidityPoolRemoved",
      "type": "event"
    },
    {
      "anonymous": false,
      "inputs": [
        {
          "indexed": true,
          "internalType": "address",
          "name": "_prevOwner",
          "type": "address"
        },
        {
          "indexed": true,
          "internalType": "address",
          "name": "_newOwner",
          "type": "address"
        }
      ],
      "name": "OwnerUpdate",
      "type": "event"
    },
    {
      "anonymous": false,
      "inputs": [
        {
          "indexed": true,
          "internalType": "contract IConverterAnchor",
          "name": "_smartToken",
          "type": "address"
        }
      ],
      "name": "SmartTokenAdded",
      "type": "event"
    },
    {
      "anonymous": false,
      "inputs": [
        {
          "indexed": true,
          "internalType": "contract IConverterAnchor",
          "name": "_smartToken",
          "type": "address"
        }
      ],
      "name": "SmartTokenRemoved",
      "type": "event"
    },
    {
      "inputs": [],
      "name": "acceptOwnership",
      "outputs": [],
      "stateMutability": "nonpayable",
      "type": "function"
    },
    {
      "inputs": [
        {
          "internalType": "contract IConverter",
          "name": "_converter",
          "type": "address"
        }
      ],
      "name": "addConverter",
      "outputs": [],
      "stateMutability": "nonpayable",
      "type": "function"
    },
    {
      "inputs": [],
      "name": "createdConverter",
      "outputs": [
        {
          "internalType": "contract IConverter",
          "name": "",
          "type": "address"
        }
      ],
      "stateMutability": "view",
      "type": "function"
    },
    {
      "inputs": [
        {
          "internalType": "uint256",
          "name": "_index",
          "type": "uint256"
        }
      ],
      "name": "getAnchor",
      "outputs": [
        {
          "internalType": "contract IConverterAnchor",
          "name": "",
          "type": "address"
        }
      ],
      "stateMutability": "view",
      "type": "function"
    },
    {
      "inputs": [],
      "name": "getAnchorCount",
      "outputs": [
        {
          "internalType": "uint256",
          "name": "",
          "type": "uint256"
        }
      ],
      "stateMutability": "view",
      "type": "function"
    },
    {
      "inputs": [],
      "name": "getAnchors",
      "outputs": [
        {
          "internalType": "address[]",
          "name": "",
          "type": "address[]"
        }
      ],
      "stateMutability": "view",
      "type": "function"
    },
    {
      "inputs": [
        {
          "internalType": "address[]",
          "name": "_anchors",
          "type": "address[]"
        }
      ],
      "name": "getConvertersByAnchors",
      "outputs": [
        {
          "internalType": "contract IConverter[]",
          "name": "",
          "type": "address[]"
        }
      ],
      "stateMutability": "view",
      "type": "function"
    },
    {
      "inputs": [
        {
          "internalType": "address[]",
          "name": "_smartTokens",
          "type": "address[]"
        }
      ],
      "name": "getConvertersBySmartTokens",
      "outputs": [
        {
          "internalType": "contract IConverter[]",
          "name": "",
          "type": "address[]"
        }
      ],
      "stateMutability": "view",
      "type": "function"
    },
    {
      "inputs": [
        {
          "internalType": "uint256",
          "name": "_index",
          "type": "uint256"
        }
      ],
      "name": "getConvertibleToken",
      "outputs": [
        {
          "internalType": "contract IReserveToken",
          "name": "",
          "type": "address"
        }
      ],
      "stateMutability": "view",
      "type": "function"
    },
    {
      "inputs": [
        {
          "internalType": "contract IReserveToken",
          "name": "_convertibleToken",
          "type": "address"
        },
        {
          "internalType": "uint256",
          "name": "_index",
          "type": "uint256"
        }
      ],
      "name": "getConvertibleTokenAnchor",
      "outputs": [
        {
          "internalType": "contract IConverterAnchor",
          "name": "",
          "type": "address"
        }
      ],
      "stateMutability": "view",
      "type": "function"
    },
    {
      "inputs": [
        {
          "internalType": "contract IReserveToken",
          "name": "_convertibleToken",
          "type": "address"
        }
      ],
      "name": "getConvertibleTokenAnchorCount",
      "outputs": [
        {
          "internalType": "uint256",
          "name": "",
          "type": "uint256"
        }
      ],
      "stateMutability": "view",
      "type": "function"
    },
    {
      "inputs": [
        {
          "internalType": "contract IReserveToken",
          "name": "_convertibleToken",
          "type": "address"
        }
      ],
      "name": "getConvertibleTokenAnchors",
      "outputs": [
        {
          "internalType": "address[]",
          "name": "",
          "type": "address[]"
        }
      ],
      "stateMutability": "view",
      "type": "function"
    },
    {
      "inputs": [],
      "name": "getConvertibleTokenCount",
      "outputs": [
        {
          "internalType": "uint256",
          "name": "",
          "type": "uint256"
        }
      ],
      "stateMutability": "view",
      "type": "function"
    },
    {
      "inputs": [
        {
          "internalType": "contract IReserveToken",
          "name": "_convertibleToken",
          "type": "address"
        },
        {
          "internalType": "uint256",
          "name": "_index",
          "type": "uint256"
        }
      ],
      "name": "getConvertibleTokenSmartToken",
      "outputs": [
        {
          "internalType": "contract IConverterAnchor",
          "name": "",
          "type": "address"
        }
      ],
      "stateMutability": "view",
      "type": "function"
    },
    {
      "inputs": [
        {
          "internalType": "contract IReserveToken",
          "name": "_convertibleToken",
          "type": "address"
        }
      ],
      "name": "getConvertibleTokenSmartTokenCount",
      "outputs": [
        {
          "internalType": "uint256",
          "name": "",
          "type": "uint256"
        }
      ],
      "stateMutability": "view",
      "type": "function"
    },
    {
      "inputs": [
        {
          "internalType": "contract IReserveToken",
          "name": "_convertibleToken",
          "type": "address"
        }
      ],
      "name": "getConvertibleTokenSmartTokens",
      "outputs": [
        {
          "internalType": "address[]",
          "name": "",
          "type": "address[]"
        }
      ],
      "stateMutability": "view",
      "type": "function"
    },
    {
      "inputs": [],
      "name": "getConvertibleTokens",
      "outputs": [
        {
          "internalType": "address[]",
          "name": "",
          "type": "address[]"
        }
      ],
      "stateMutability": "view",
      "type": "function"
    },
    {
      "inputs": [
        {
          "internalType": "uint256",
          "name": "_index",
          "type": "uint256"
        }
      ],
      "name": "getLiquidityPool",
      "outputs": [
        {
          "internalType": "contract IConverterAnchor",
          "name": "",
          "type": "address"
        }
      ],
      "stateMutability": "view",
      "type": "function"
    },
    {
      "inputs": [
        {
          "internalType": "uint16",
          "name": "_type",
          "type": "uint16"
        },
        {
          "internalType": "contract IReserveToken[]",
          "name": "_reserveTokens",
          "type": "address[]"
        },
        {
          "internalType": "uint32[]",
          "name": "_reserveWeights",
          "type": "uint32[]"
        }
      ],
      "name": "getLiquidityPoolByConfig",
      "outputs": [
        {
          "internalType": "contract IConverterAnchor",
          "name": "",
          "type": "address"
        }
      ],
      "stateMutability": "view",
      "type": "function"
    },
    {
      "inputs": [
        {
          "internalType": "contract IReserveToken[]",
          "name": "_reserveTokens",
          "type": "address[]"
        },
        {
          "internalType": "uint32[]",
          "name": "_reserveWeights",
          "type": "uint32[]"
        }
      ],
      "name": "getLiquidityPoolByReserveConfig",
      "outputs": [
        {
          "internalType": "contract IConverterAnchor",
          "name": "",
          "type": "address"
        }
      ],
      "stateMutability": "view",
      "type": "function"
    },
    {
      "inputs": [],
      "name": "getLiquidityPoolCount",
      "outputs": [
        {
          "internalType": "uint256",
          "name": "",
          "type": "uint256"
        }
      ],
      "stateMutability": "view",
      "type": "function"
    },
    {
      "inputs": [],
      "name": "getLiquidityPools",
      "outputs": [
        {
          "internalType": "address[]",
          "name": "",
          "type": "address[]"
        }
      ],
      "stateMutability": "view",
      "type": "function"
    },
    {
      "inputs": [
        {
          "internalType": "uint256",
          "name": "_index",
          "type": "uint256"
        }
      ],
      "name": "getSmartToken",
      "outputs": [
        {
          "internalType": "contract IConverterAnchor",
          "name": "",
          "type": "address"
        }
      ],
      "stateMutability": "view",
      "type": "function"
    },
    {
      "inputs": [],
      "name": "getSmartTokenCount",
      "outputs": [
        {
          "internalType": "uint256",
          "name": "",
          "type": "uint256"
        }
      ],
      "stateMutability": "view",
      "type": "function"
    },
    {
      "inputs": [],
      "name": "getSmartTokens",
      "outputs": [
        {
          "internalType": "address[]",
          "name": "",
          "type": "address[]"
        }
      ],
      "stateMutability": "view",
      "type": "function"
    },
    {
      "inputs": [
        {
          "internalType": "address",
          "name": "_value",
          "type": "address"
        }
      ],
      "name": "isAnchor",
      "outputs": [
        {
          "internalType": "bool",
          "name": "",
          "type": "bool"
        }
      ],
      "stateMutability": "view",
      "type": "function"
    },
    {
      "inputs": [
        {
          "internalType": "contract IConverter",
          "name": "_converter",
          "type": "address"
        }
      ],
      "name": "isConverterValid",
      "outputs": [
        {
          "internalType": "bool",
          "name": "",
          "type": "bool"
        }
      ],
      "stateMutability": "view",
      "type": "function"
    },
    {
      "inputs": [
        {
          "internalType": "address",
          "name": "_value",
          "type": "address"
        }
      ],
      "name": "isConvertibleToken",
      "outputs": [
        {
          "internalType": "bool",
          "name": "",
          "type": "bool"
        }
      ],
      "stateMutability": "view",
      "type": "function"
    },
    {
      "inputs": [
        {
          "internalType": "contract IReserveToken",
          "name": "_convertibleToken",
          "type": "address"
        },
        {
          "internalType": "address",
          "name": "_value",
          "type": "address"
        }
      ],
      "name": "isConvertibleTokenAnchor",
      "outputs": [
        {
          "internalType": "bool",
          "name": "",
          "type": "bool"
        }
      ],
      "stateMutability": "view",
      "type": "function"
    },
    {
      "inputs": [
        {
          "internalType": "contract IReserveToken",
          "name": "_convertibleToken",
          "type": "address"
        },
        {
          "internalType": "address",
          "name": "_value",
          "type": "address"
        }
      ],
      "name": "isConvertibleTokenSmartToken",
      "outputs": [
        {
          "internalType": "bool",
          "name": "",
          "type": "bool"
        }
      ],
      "stateMutability": "view",
      "type": "function"
    },
    {
      "inputs": [
        {
          "internalType": "address",
          "name": "_value",
          "type": "address"
        }
      ],
      "name": "isLiquidityPool",
      "outputs": [
        {
          "internalType": "bool",
          "name": "",
          "type": "bool"
        }
      ],
      "stateMutability": "view",
      "type": "function"
    },
    {
      "inputs": [
        {
          "internalType": "contract IConverter",
          "name": "_converter",
          "type": "address"
        }
      ],
      "name": "isSimilarLiquidityPoolRegistered",
      "outputs": [
        {
          "internalType": "bool",
          "name": "",
          "type": "bool"
        }
      ],
      "stateMutability": "view",
      "type": "function"
    },
    {
      "inputs": [
        {
          "internalType": "address",
          "name": "_value",
          "type": "address"
        }
      ],
      "name": "isSmartToken",
      "outputs": [
        {
          "internalType": "bool",
          "name": "",
          "type": "bool"
        }
      ],
      "stateMutability": "view",
      "type": "function"
    },
    {
      "inputs": [],
      "name": "newOwner",
      "outputs": [
        {
          "internalType": "address",
          "name": "",
          "type": "address"
        }
      ],
      "stateMutability": "view",
      "type": "function"
    },
    {
      "inputs": [],
      "name": "onlyOwnerCanUpdateRegistry",
      "outputs": [
        {
          "internalType": "bool",
          "name": "",
          "type": "bool"
        }
      ],
      "stateMutability": "view",
      "type": "function"
    },
    {
      "inputs": [],
      "name": "owner",
      "outputs": [
        {
          "internalType": "address",
          "name": "",
          "type": "address"
        }
      ],
      "stateMutability": "view",
      "type": "function"
    },
    {
      "inputs": [],
      "name": "prevRegistry",
      "outputs": [
        {
          "internalType": "contract IContractRegistry",
          "name": "",
          "type": "address"
        }
      ],
      "stateMutability": "view",
      "type": "function"
    },
    {
      "inputs": [],
      "name": "registry",
      "outputs": [
        {
          "internalType": "contract IContractRegistry",
          "name": "",
          "type": "address"
        }
      ],
      "stateMutability": "view",
      "type": "function"
    },
    {
      "inputs": [
        {
          "internalType": "contract IConverter",
          "name": "_converter",
          "type": "address"
        }
      ],
      "name": "removeConverter",
      "outputs": [],
      "stateMutability": "nonpayable",
      "type": "function"
    },
    {
      "inputs": [],
      "name": "restoreRegistry",
      "outputs": [],
      "stateMutability": "nonpayable",
      "type": "function"
    },
    {
      "inputs": [
        {
          "internalType": "bool",
          "name": "_onlyOwnerCanUpdateRegistry",
          "type": "bool"
        }
      ],
      "name": "restrictRegistryUpdate",
      "outputs": [],
      "stateMutability": "nonpayable",
      "type": "function"
    },
    {
      "inputs": [
        {
          "internalType": "address",
          "name": "_newOwner",
          "type": "address"
        }
      ],
      "name": "transferOwnership",
      "outputs": [],
      "stateMutability": "nonpayable",
      "type": "function"
    },
    {
      "inputs": [],
      "name": "typeChangingEnabled",
      "outputs": [
        {
          "internalType": "bool",
          "name": "",
          "type": "bool"
        }
      ],
      "stateMutability": "view",
      "type": "function"
    },
    {
      "inputs": [],
      "name": "updateRegistry",
      "outputs": [],
      "stateMutability": "nonpayable",
      "type": "function"
    },
    {
      "inputs": [
        {
          "internalType": "uint16",
          "name": "_type",
          "type": "uint16"
        },
        {
          "internalType": "string",
          "name": "_name",
          "type": "string"
        },
        {
          "internalType": "string",
          "name": "_symbol",
          "type": "string"
        },
        {
          "internalType": "uint8",
          "name": "_decimals",
          "type": "uint8"
        },
        {
          "internalType": "uint32",
          "name": "_maxConversionFee",
          "type": "uint32"
        },
        {
          "internalType": "contract IReserveToken[]",
          "name": "_reserveTokens",
          "type": "address[]"
        },
        {
          "internalType": "uint32[]",
          "name": "_reserveWeights",
          "type": "uint32[]"
        }
      ],
      "name": "newConverter",
      "outputs": [
        {
          "internalType": "contract IConverter",
          "name": "",
          "type": "address"
        }
      ],
      "stateMutability": "nonpayable",
      "type": "function"
    },
    {
      "inputs": [
        {
          "internalType": "bool",
          "name": "_state",
          "type": "bool"
        }
      ],
      "name": "enableTypeChanging",
      "outputs": [],
      "stateMutability": "nonpayable",
      "type": "function"
    }
  ],
  "bytecode": "0x60806040526001600460146101000a81548160ff0219169083151502179055503480156200002c57600080fd5b506040516200526738038062005267833981810160405260208110156200005257600080fd5b81019080805190602001909291905050508080336000806101000a81548173ffffffffffffffffffffffffffffffffffffffff021916908373ffffffffffffffffffffffffffffffffffffffff16021790555080620000b7816200014360201b60201c565b81600260006101000a81548173ffffffffffffffffffffffffffffffffffffffff021916908373ffffffffffffffffffffffffffffffffffffffff16021790555081600360006101000a81548173ffffffffffffffffffffffffffffffffffffffff021916908373ffffffffffffffffffffffffffffffffffffffff16021790555050505050620001ea565b600073ffffffffffffffffffffffffffffffffffffffff168173ffffffffffffffffffffffffffffffffffffffff161415620001e7576040517f08c379a00000000000000000000000000000000000000000000000000000000081526004018080602001828103825260138152602001807f4552525f494e56414c49445f414444524553530000000000000000000000000081525060200191505060405180910390fd5b50565b61506d80620001fa6000396000f3fe608060405234801561001057600080fd5b506004361061028a5760003560e01c80637a5f0ffd1161015c578063b4a176d3116100ce578063d8cced2a11610087578063d8cced2a14611428578063e571049b14611482578063e85455d7146114a0578063effb3c6e146114fa578063f2fde38b14611559578063f4fb86c01461159d5761028a565b8063b4a176d314611164578063b4c4197a1461116e578063c22b82f0146111e8578063d3182bed1461135e578063d4ee1d901461137c578063d6c4b5b2146113b05761028a565b80638f1d0e1a116101205780638f1d0e1a14610f64578063954254f514610fbe5780639e76a00714611018578063a109d2141461105c578063a43d5e94146110b4578063a74498aa1461110c5761028a565b80637a5f0ffd14610e275780637b10399914610e455780637f45c4c314610e79578063865cf19414610ed85780638da5cb5b14610f305761028a565b806349d10b641161020057806361cd756e116101b957806361cd756e14610cdd57806369be478414610d115780636ce1c4dc14610d2f578063725b878614610d73578063760d236c14610ded57806379ba509714610e1d5761028a565b806349d10b64146107c85780634c7df18f146107d25780635a0a66181461082a5780635f1b50fe14610af9578063603f51e414610b58578063610c0b0514610bd05761028a565b80631f8e2620116102525780631f8e26201461056f57806326bfa2161461067c5780632fe8a6ad1461069c5780633ab8857c146106bc5780634123ef601461071657806349c5f32b146107705761028a565b8063024c7ec71461028f57806304ceaf41146102bf578063118390641461031e5780631814f2d2146103b75780631d3fccd5146103eb575b600080fd5b6102bd600480360360208110156102a557600080fd5b81019080803515159060200190929190505050611636565b005b6102c761165b565b6040518080602001828103825283818151815260200191508051906020019060200280838360005b8381101561030a5780820151818401526020810190506102ef565b505050509050019250505060405180910390f35b6103606004803603602081101561033457600080fd5b81019080803573ffffffffffffffffffffffffffffffffffffffff16906020019092919050505061166a565b6040518080602001828103825283818151815260200191508051906020019060200280838360005b838110156103a3578082015181840152602081019050610388565b505050509050019250505060405180910390f35b6103bf6117d7565b604051808273ffffffffffffffffffffffffffffffffffffffff16815260200191505060405180910390f35b6105436004803603606081101561040157600080fd5b81019080803561ffff1690602001909291908035906020019064010000000081111561042c57600080fd5b82018360208201111561043e57600080fd5b8035906020019184602083028401116401000000008311171561046057600080fd5b919080806020026020016040519081016040528093929190818152602001838360200280828437600081840152601f19601f820116905080830192505050505050509192919290803590602001906401000000008111156104c057600080fd5b8201836020820111156104d257600080fd5b803590602001918460208302840111640100000000831117156104f457600080fd5b919080806020026020016040519081016040528093929190818152602001838360200280828437600081840152601f19601f8201169050808301925050505050505091929192905050506117fd565b604051808273ffffffffffffffffffffffffffffffffffffffff16815260200191505060405180910390f35b6106256004803603602081101561058557600080fd5b81019080803590602001906401000000008111156105a257600080fd5b8201836020820111156105b457600080fd5b803590602001918460208302840111640100000000831117156105d657600080fd5b919080806020026020016040519081016040528093929190818152602001838360200280828437600081840152601f19601f820116905080830192505050505050509192919290505050611907565b6040518080602001828103825283818151815260200191508051906020019060200280838360005b8381101561066857808201518184015260208101905061064d565b505050509050019250505060405180910390f35b610684611919565b60405180821515815260200191505060405180910390f35b6106a461192c565b60405180821515815260200191505060405180910390f35b6106fe600480360360208110156106d257600080fd5b81019080803573ffffffffffffffffffffffffffffffffffffffff16906020019092919050505061193f565b60405180821515815260200191505060405180910390f35b6107586004803603602081101561072c57600080fd5b81019080803573ffffffffffffffffffffffffffffffffffffffff169060200190929190505050611a12565b60405180821515815260200191505060405180910390f35b6107b26004803603602081101561078657600080fd5b81019080803573ffffffffffffffffffffffffffffffffffffffff169060200190929190505050611a24565b6040518082815260200191505060405180910390f35b6107d0611af7565b005b6107fe600480360360208110156107e857600080fd5b8101908080359060200190929190505050611eef565b604051808273ffffffffffffffffffffffffffffffffffffffff16815260200191505060405180910390f35b610acd600480360360e081101561084057600080fd5b81019080803561ffff1690602001909291908035906020019064010000000081111561086b57600080fd5b82018360208201111561087d57600080fd5b8035906020019184600183028401116401000000008311171561089f57600080fd5b91908080601f016020809104026020016040519081016040528093929190818152602001838380828437600081840152601f19601f8201169050808301925050505050505091929192908035906020019064010000000081111561090257600080fd5b82018360208201111561091457600080fd5b8035906020019184600183028401116401000000008311171561093657600080fd5b91908080601f016020809104026020016040519081016040528093929190818152602001838380828437600081840152601f19601f820116905080830192505050505050509192919290803560ff169060200190929190803563ffffffff169060200190929190803590602001906401000000008111156109b657600080fd5b8201836020820111156109c857600080fd5b803590602001918460208302840111640100000000831117156109ea57600080fd5b919080806020026020016040519081016040528093929190818152602001838360200280828437600081840152601f19601f82011690508083019250505050505050919291929080359060200190640100000000811115610a4a57600080fd5b820183602082011115610a5c57600080fd5b80359060200191846020830284011164010000000083111715610a7e57600080fd5b919080806020026020016040519081016040528093929190818152602001838360200280828437600081840152601f19601f820116905080830192505050505050509192919290505050611fac565b604051808273ffffffffffffffffffffffffffffffffffffffff16815260200191505060405180910390f35b610b0161202d565b6040518080602001828103825283818151815260200191508051906020019060200280838360005b83811015610b44578082015181840152602081019050610b29565b505050509050019250505060405180910390f35b610ba460048036036040811015610b6e57600080fd5b81019080803573ffffffffffffffffffffffffffffffffffffffff16906020019092919080359060200190929190505050612177565b604051808273ffffffffffffffffffffffffffffffffffffffff16815260200191505060405180910390f35b610c8660048036036020811015610be657600080fd5b8101908080359060200190640100000000811115610c0357600080fd5b820183602082011115610c1557600080fd5b80359060200191846020830284011164010000000083111715610c3757600080fd5b919080806020026020016040519081016040528093929190818152602001838360200280828437600081840152601f19601f820116905080830192505050505050509192919290505050612253565b6040518080602001828103825283818151815260200191508051906020019060200280838360005b83811015610cc9578082015181840152602081019050610cae565b505050509050019250505060405180910390f35b610ce561239d565b604051808273ffffffffffffffffffffffffffffffffffffffff16815260200191505060405180910390f35b610d196123c3565b6040518082815260200191505060405180910390f35b610d7160048036036020811015610d4557600080fd5b81019080803573ffffffffffffffffffffffffffffffffffffffff169060200190929190505050612473565b005b610dd560048036036040811015610d8957600080fd5b81019080803573ffffffffffffffffffffffffffffffffffffffff169060200190929190803573ffffffffffffffffffffffffffffffffffffffff169060200190929190505050612502565b60405180821515815260200191505060405180910390f35b610e1b60048036036020811015610e0357600080fd5b81019080803515159060200190929190505050612516565b005b610e25612533565b005b610e2f612738565b6040518082815260200191505060405180910390f35b610e4d6127e8565b604051808273ffffffffffffffffffffffffffffffffffffffff16815260200191505060405180910390f35b610e8161280e565b6040518080602001828103825283818151815260200191508051906020019060200280838360005b83811015610ec4578082015181840152602081019050610ea9565b505050509050019250505060405180910390f35b610f0460048036036020811015610eee57600080fd5b8101908080359060200190929190505050612958565b604051808273ffffffffffffffffffffffffffffffffffffffff16815260200191505060405180910390f35b610f38612a15565b604051808273ffffffffffffffffffffffffffffffffffffffff16815260200191505060405180910390f35b610fa660048036036020811015610f7a57600080fd5b81019080803573ffffffffffffffffffffffffffffffffffffffff169060200190929190505050612a39565b60405180821515815260200191505060405180910390f35b61100060048036036020811015610fd457600080fd5b81019080803573ffffffffffffffffffffffffffffffffffffffff169060200190929190505050612cc8565b60405180821515815260200191505060405180910390f35b61105a6004803603602081101561102e57600080fd5b81019080803573ffffffffffffffffffffffffffffffffffffffff169060200190929190505050612e00565b005b6110886004803603602081101561107257600080fd5b8101908080359060200190929190505050612ede565b604051808273ffffffffffffffffffffffffffffffffffffffff16815260200191505060405180910390f35b6110f6600480360360208110156110ca57600080fd5b81019080803573ffffffffffffffffffffffffffffffffffffffff169060200190929190505050612ef0565b6040518082815260200191505060405180910390f35b6111386004803603602081101561112257600080fd5b8101908080359060200190929190505050612f02565b604051808273ffffffffffffffffffffffffffffffffffffffff16815260200191505060405180910390f35b61116c612fbf565b005b6111d06004803603604081101561118457600080fd5b81019080803573ffffffffffffffffffffffffffffffffffffffff169060200190929190803573ffffffffffffffffffffffffffffffffffffffff16906020019092919050505061302c565b60405180821515815260200191505060405180910390f35b611332600480360360408110156111fe57600080fd5b810190808035906020019064010000000081111561121b57600080fd5b82018360208201111561122d57600080fd5b8035906020019184602083028401116401000000008311171561124f57600080fd5b919080806020026020016040519081016040528093929190818152602001838360200280828437600081840152601f19601f820116905080830192505050505050509192919290803590602001906401000000008111156112af57600080fd5b8201836020820111156112c157600080fd5b803590602001918460208302840111640100000000831117156112e357600080fd5b919080806020026020016040519081016040528093929190818152602001838360200280828437600081840152601f19601f82011690508083019250505050505050919291929050505061311e565b604051808273ffffffffffffffffffffffffffffffffffffffff16815260200191505060405180910390f35b611366613148565b6040518082815260200191505060405180910390f35b6113846131f8565b604051808273ffffffffffffffffffffffffffffffffffffffff16815260200191505060405180910390f35b6113fc600480360360408110156113c657600080fd5b81019080803573ffffffffffffffffffffffffffffffffffffffff1690602001909291908035906020019092919050505061321e565b604051808273ffffffffffffffffffffffffffffffffffffffff16815260200191505060405180910390f35b61146a6004803603602081101561143e57600080fd5b81019080803573ffffffffffffffffffffffffffffffffffffffff169060200190929190505050613232565b60405180821515815260200191505060405180910390f35b61148a613305565b6040518082815260200191505060405180910390f35b6114e2600480360360208110156114b657600080fd5b81019080803573ffffffffffffffffffffffffffffffffffffffff169060200190929190505050613314565b60405180821515815260200191505060405180910390f35b6115026133e7565b6040518080602001828103825283818151815260200191508051906020019060200280838360005b8381101561154557808201518184015260208101905061152a565b505050509050019250505060405180910390f35b61159b6004803603602081101561156f57600080fd5b81019080803573ffffffffffffffffffffffffffffffffffffffff169060200190929190505050613531565b005b6115df600480360360208110156115b357600080fd5b81019080803573ffffffffffffffffffffffffffffffffffffffff16906020019092919050505061363f565b6040518080602001828103825283818151815260200191508051906020019060200280838360005b83811015611622578082015181840152602081019050611607565b505050509050019250505060405180910390f35b61163e613651565b80600360146101000a81548160ff02191690831515021790555050565b60606116656133e7565b905090565b60606116957f42616e636f72436f6e7665727465725265676973747279446174610000000000613714565b73ffffffffffffffffffffffffffffffffffffffff1663f4fb86c0836040518263ffffffff1660e01b8152600401808273ffffffffffffffffffffffffffffffffffffffff16815260200191505060006040518083038186803b1580156116fb57600080fd5b505afa15801561170f573d6000803e3d6000fd5b505050506040513d6000823e3d601f19601f82011682018060405250602081101561173957600080fd5b810190808051604051939291908464010000000082111561175957600080fd5b8382019150602082018581111561176f57600080fd5b825186602082028301116401000000008211171561178c57600080fd5b8083526020830192505050908051906020019060200280838360005b838110156117c35780820151818401526020810190506117a8565b505050509050016040525050509050919050565b600460009054906101000a900473ffffffffffffffffffffffffffffffffffffffff1681565b600081518351148015611811575060018351115b156118fb576060611821846137cb565b905060005b81518110156118f857600082828151811061183d57fe5b6020026020010151905060008173ffffffffffffffffffffffffffffffffffffffff16638da5cb5b6040518163ffffffff1660e01b815260040160206040518083038186803b15801561188f57600080fd5b505afa1580156118a3573d6000803e3d6000fd5b505050506040513d60208110156118b957600080fd5b810190808051906020019092919050505090506118d881898989613af5565b156118e95781945050505050611900565b50508080600101915050611826565b50505b600090505b9392505050565b606061191282612253565b9050919050565b600460149054906101000a900460ff1681565b600360149054906101000a900460ff1681565b600061196a7f42616e636f72436f6e7665727465725265676973747279446174610000000000613714565b73ffffffffffffffffffffffffffffffffffffffff16633ab8857c836040518263ffffffff1660e01b8152600401808273ffffffffffffffffffffffffffffffffffffffff16815260200191505060206040518083038186803b1580156119d057600080fd5b505afa1580156119e4573d6000803e3d6000fd5b505050506040513d60208110156119fa57600080fd5b81019080805190602001909291905050509050919050565b6000611a1d82613232565b9050919050565b6000611a4f7f42616e636f72436f6e7665727465725265676973747279446174610000000000613714565b73ffffffffffffffffffffffffffffffffffffffff1663a43d5e94836040518263ffffffff1660e01b8152600401808273ffffffffffffffffffffffffffffffffffffffff16815260200191505060206040518083038186803b158015611ab557600080fd5b505afa158015611ac9573d6000803e3d6000fd5b505050506040513d6020811015611adf57600080fd5b81019080805190602001909291905050509050919050565b60008054906101000a900473ffffffffffffffffffffffffffffffffffffffff1673ffffffffffffffffffffffffffffffffffffffff163373ffffffffffffffffffffffffffffffffffffffff161480611b5e5750600360149054906101000a900460ff16155b611bd0576040517f08c379a00000000000000000000000000000000000000000000000000000000081526004018080602001828103825260118152602001807f4552525f4143434553535f44454e49454400000000000000000000000000000081525060200191505060405180910390fd5b6000611bfb7f436f6e7472616374526567697374727900000000000000000000000000000000613714565b9050600260009054906101000a900473ffffffffffffffffffffffffffffffffffffffff1673ffffffffffffffffffffffffffffffffffffffff168173ffffffffffffffffffffffffffffffffffffffff1614158015611c885750600073ffffffffffffffffffffffffffffffffffffffff168173ffffffffffffffffffffffffffffffffffffffff1614155b611cfa576040517f08c379a00000000000000000000000000000000000000000000000000000000081526004018080602001828103825260148152602001807f4552525f494e56414c49445f524547495354525900000000000000000000000081525060200191505060405180910390fd5b600073ffffffffffffffffffffffffffffffffffffffff168173ffffffffffffffffffffffffffffffffffffffff1663bb34534c7f436f6e74726163745265676973747279000000000000000000000000000000006040518263ffffffff1660e01b81526004018082815260200191505060206040518083038186803b158015611d8357600080fd5b505afa158015611d97573d6000803e3d6000fd5b505050506040513d6020811015611dad57600080fd5b810190808051906020019092919050505073ffffffffffffffffffffffffffffffffffffffff161415611e48576040517f08c379a00000000000000000000000000000000000000000000000000000000081526004018080602001828103825260148152602001807f4552525f494e56414c49445f524547495354525900000000000000000000000081525060200191505060405180910390fd5b600260009054906101000a900473ffffffffffffffffffffffffffffffffffffffff16600360006101000a81548173ffffffffffffffffffffffffffffffffffffffff021916908373ffffffffffffffffffffffffffffffffffffffff16021790555080600260006101000a81548173ffffffffffffffffffffffffffffffffffffffff021916908373ffffffffffffffffffffffffffffffffffffffff16021790555050565b6000611f1a7f42616e636f72436f6e7665727465725265676973747279446174610000000000613714565b73ffffffffffffffffffffffffffffffffffffffff1663a109d214836040518263ffffffff1660e01b81526004018082815260200191505060206040518083038186803b158015611f6a57600080fd5b505afa158015611f7e573d6000803e3d6000fd5b505050506040513d6020811015611f9457600080fd5b81019080805190602001909291905050509050919050565b6000611fbd88888888888888613c28565b600460006101000a81548173ffffffffffffffffffffffffffffffffffffffff021916908373ffffffffffffffffffffffffffffffffffffffff160217905550600460009054906101000a900473ffffffffffffffffffffffffffffffffffffffff169050979650505050505050565b60606120587f42616e636f72436f6e7665727465725265676973747279446174610000000000613714565b73ffffffffffffffffffffffffffffffffffffffff16635f1b50fe6040518163ffffffff1660e01b815260040160006040518083038186803b15801561209d57600080fd5b505afa1580156120b1573d6000803e3d6000fd5b505050506040513d6000823e3d601f19601f8201168201806040525060208110156120db57600080fd5b81019080805160405193929190846401000000008211156120fb57600080fd5b8382019150602082018581111561211157600080fd5b825186602082028301116401000000008211171561212e57600080fd5b8083526020830192505050908051906020019060200280838360005b8381101561216557808201518184015260208101905061214a565b50505050905001604052505050905090565b60006121a27f42616e636f72436f6e7665727465725265676973747279446174610000000000613714565b73ffffffffffffffffffffffffffffffffffffffff1663d6c4b5b284846040518363ffffffff1660e01b8152600401808373ffffffffffffffffffffffffffffffffffffffff1681526020018281526020019250505060206040518083038186803b15801561221057600080fd5b505afa158015612224573d6000803e3d6000fd5b505050506040513d602081101561223a57600080fd5b8101908080519060200190929190505050905092915050565b606080825167ffffffffffffffff8111801561226e57600080fd5b5060405190808252806020026020018201604052801561229d5781602001602082028036833780820191505090505b50905060005b8351811015612393578381815181106122b857fe5b602002602001015173ffffffffffffffffffffffffffffffffffffffff16638da5cb5b6040518163ffffffff1660e01b815260040160206040518083038186803b15801561230557600080fd5b505afa158015612319573d6000803e3d6000fd5b505050506040513d602081101561232f57600080fd5b810190808051906020019092919050505082828151811061234c57fe5b602002602001019073ffffffffffffffffffffffffffffffffffffffff16908173ffffffffffffffffffffffffffffffffffffffff168152505080806001019150506122a3565b5080915050919050565b600360009054906101000a900473ffffffffffffffffffffffffffffffffffffffff1681565b60006123ee7f42616e636f72436f6e7665727465725265676973747279446174610000000000613714565b73ffffffffffffffffffffffffffffffffffffffff166369be47846040518163ffffffff1660e01b815260040160206040518083038186803b15801561243357600080fd5b505afa158015612447573d6000803e3d6000fd5b505050506040513d602081101561245d57600080fd5b8101908080519060200190929190505050905090565b61247b613651565b61248481612cc8565b6124f6576040517f08c379a00000000000000000000000000000000000000000000000000000000081526004018080602001828103825260158152602001807f4552525f494e56414c49445f434f4e564552544552000000000000000000000081525060200191505060405180910390fd5b6124ff81614329565b50565b600061250e838361302c565b905092915050565b80600460146101000a81548160ff02191690831515021790555050565b600160009054906101000a900473ffffffffffffffffffffffffffffffffffffffff1673ffffffffffffffffffffffffffffffffffffffff163373ffffffffffffffffffffffffffffffffffffffff16146125f6576040517f08c379a00000000000000000000000000000000000000000000000000000000081526004018080602001828103825260118152602001807f4552525f4143434553535f44454e49454400000000000000000000000000000081525060200191505060405180910390fd5b600160009054906101000a900473ffffffffffffffffffffffffffffffffffffffff1673ffffffffffffffffffffffffffffffffffffffff1660008054906101000a900473ffffffffffffffffffffffffffffffffffffffff1673ffffffffffffffffffffffffffffffffffffffff167f343765429aea5a34b3ff6a3785a98a5abb2597aca87bfbb58632c173d585373a60405160405180910390a3600160009054906101000a900473ffffffffffffffffffffffffffffffffffffffff166000806101000a81548173ffffffffffffffffffffffffffffffffffffffff021916908373ffffffffffffffffffffffffffffffffffffffff1602179055506000600160006101000a81548173ffffffffffffffffffffffffffffffffffffffff021916908373ffffffffffffffffffffffffffffffffffffffff160217905550565b60006127637f42616e636f72436f6e7665727465725265676973747279446174610000000000613714565b73ffffffffffffffffffffffffffffffffffffffff16637a5f0ffd6040518163ffffffff1660e01b815260040160206040518083038186803b1580156127a857600080fd5b505afa1580156127bc573d6000803e3d6000fd5b505050506040513d60208110156127d257600080fd5b8101908080519060200190929190505050905090565b600260009054906101000a900473ffffffffffffffffffffffffffffffffffffffff1681565b60606128397f42616e636f72436f6e7665727465725265676973747279446174610000000000613714565b73ffffffffffffffffffffffffffffffffffffffff16637f45c4c36040518163ffffffff1660e01b815260040160006040518083038186803b15801561287e57600080fd5b505afa158015612892573d6000803e3d6000fd5b505050506040513d6000823e3d601f19601f8201168201806040525060208110156128bc57600080fd5b81019080805160405193929190846401000000008211156128dc57600080fd5b838201915060208201858111156128f257600080fd5b825186602082028301116401000000008211171561290f57600080fd5b8083526020830192505050908051906020019060200280838360005b8381101561294657808201518184015260208101905061292b565b50505050905001604052505050905090565b60006129837f42616e636f72436f6e7665727465725265676973747279446174610000000000613714565b73ffffffffffffffffffffffffffffffffffffffff1663865cf194836040518263ffffffff1660e01b81526004018082815260200191505060206040518083038186803b1580156129d357600080fd5b505afa1580156129e7573d6000803e3d6000fd5b505050506040513d60208110156129fd57600080fd5b81019080805190602001909291905050509050919050565b60008054906101000a900473ffffffffffffffffffffffffffffffffffffffff1681565b6000808273ffffffffffffffffffffffffffffffffffffffff166371f52bf36040518163ffffffff1660e01b815260040160206040518083038186803b158015612a8257600080fd5b505afa158015612a96573d6000803e3d6000fd5b505050506040513d6020811015612aac57600080fd5b810190808051906020019092919050505061ffff16905060608167ffffffffffffffff81118015612adc57600080fd5b50604051908082528060200260200182016040528015612b0b5781602001602082028036833780820191505090505b50905060608267ffffffffffffffff81118015612b2757600080fd5b50604051908082528060200260200182016040528015612b565781602001602082028036833780820191505090505b50905060005b83811015612c795760008673ffffffffffffffffffffffffffffffffffffffff166319b64015836040518263ffffffff1660e01b81526004018082815260200191505060206040518083038186803b158015612bb757600080fd5b505afa158015612bcb573d6000803e3d6000fd5b505050506040513d6020811015612be157600080fd5b8101908080519060200190929190505050905080848381518110612c0157fe5b602002602001019073ffffffffffffffffffffffffffffffffffffffff16908173ffffffffffffffffffffffffffffffffffffffff1681525050612c458782614547565b838381518110612c5157fe5b602002602001019063ffffffff16908163ffffffff1681525050508080600101915050612b5c565b50600073ffffffffffffffffffffffffffffffffffffffff16612ca6612c9f8786614624565b84846117fd565b73ffffffffffffffffffffffffffffffffffffffff1614159350505050919050565b60008173ffffffffffffffffffffffffffffffffffffffff168273ffffffffffffffffffffffffffffffffffffffff1663fc0c546a6040518163ffffffff1660e01b815260040160206040518083038186803b158015612d2757600080fd5b505afa158015612d3b573d6000803e3d6000fd5b505050506040513d6020811015612d5157600080fd5b810190808051906020019092919050505073ffffffffffffffffffffffffffffffffffffffff16638da5cb5b6040518163ffffffff1660e01b815260040160206040518083038186803b158015612da757600080fd5b505afa158015612dbb573d6000803e3d6000fd5b505050506040513d6020811015612dd157600080fd5b810190808051906020019092919050505073ffffffffffffffffffffffffffffffffffffffff16149050919050565b60008054906101000a900473ffffffffffffffffffffffffffffffffffffffff1673ffffffffffffffffffffffffffffffffffffffff163373ffffffffffffffffffffffffffffffffffffffff161480612e605750612e5e81612cc8565b155b612ed2576040517f08c379a00000000000000000000000000000000000000000000000000000000081526004018080602001828103825260118152602001807f4552525f4143434553535f44454e49454400000000000000000000000000000081525060200191505060405180910390fd5b612edb816147c3565b50565b6000612ee982611eef565b9050919050565b6000612efb82611a24565b9050919050565b6000612f2d7f42616e636f72436f6e7665727465725265676973747279446174610000000000613714565b73ffffffffffffffffffffffffffffffffffffffff1663a74498aa836040518263ffffffff1660e01b81526004018082815260200191505060206040518083038186803b158015612f7d57600080fd5b505afa158015612f91573d6000803e3d6000fd5b505050506040513d6020811015612fa757600080fd5b81019080805190602001909291905050509050919050565b612fc7613651565b600360009054906101000a900473ffffffffffffffffffffffffffffffffffffffff16600260006101000a81548173ffffffffffffffffffffffffffffffffffffffff021916908373ffffffffffffffffffffffffffffffffffffffff160217905550565b60006130577f42616e636f72436f6e7665727465725265676973747279446174610000000000613714565b73ffffffffffffffffffffffffffffffffffffffff1663725b878684846040518363ffffffff1660e01b8152600401808373ffffffffffffffffffffffffffffffffffffffff1681526020018273ffffffffffffffffffffffffffffffffffffffff1681526020019250505060206040518083038186803b1580156130db57600080fd5b505afa1580156130ef573d6000803e3d6000fd5b505050506040513d602081101561310557600080fd5b8101908080519060200190929190505050905092915050565b60006131406001845111613133576000613136565b60015b60ff1684846117fd565b905092915050565b60006131737f42616e636f72436f6e7665727465725265676973747279446174610000000000613714565b73ffffffffffffffffffffffffffffffffffffffff1663e571049b6040518163ffffffff1660e01b815260040160206040518083038186803b1580156131b857600080fd5b505afa1580156131cc573d6000803e3d6000fd5b505050506040513d60208110156131e257600080fd5b8101908080519060200190929190505050905090565b600160009054906101000a900473ffffffffffffffffffffffffffffffffffffffff1681565b600061322a8383612177565b905092915050565b600061325d7f42616e636f72436f6e7665727465725265676973747279446174610000000000613714565b73ffffffffffffffffffffffffffffffffffffffff16634123ef60836040518263ffffffff1660e01b8152600401808273ffffffffffffffffffffffffffffffffffffffff16815260200191505060206040518083038186803b1580156132c357600080fd5b505afa1580156132d7573d6000803e3d6000fd5b505050506040513d60208110156132ed57600080fd5b81019080805190602001909291905050509050919050565b600061330f613148565b905090565b600061333f7f42616e636f72436f6e7665727465725265676973747279446174610000000000613714565b73ffffffffffffffffffffffffffffffffffffffff1663e85455d7836040518263ffffffff1660e01b8152600401808273ffffffffffffffffffffffffffffffffffffffff16815260200191505060206040518083038186803b1580156133a557600080fd5b505afa1580156133b9573d6000803e3d6000fd5b505050506040513d60208110156133cf57600080fd5b81019080805190602001909291905050509050919050565b60606134127f42616e636f72436f6e7665727465725265676973747279446174610000000000613714565b73ffffffffffffffffffffffffffffffffffffffff166304ceaf416040518163ffffffff1660e01b815260040160006040518083038186803b15801561345757600080fd5b505afa15801561346b573d6000803e3d6000fd5b505050506040513d6000823e3d601f19601f82011682018060405250602081101561349557600080fd5b81019080805160405193929190846401000000008211156134b557600080fd5b838201915060208201858111156134cb57600080fd5b82518660208202830111640100000000821117156134e857600080fd5b8083526020830192505050908051906020019060200280838360005b8381101561351f578082015181840152602081019050613504565b50505050905001604052505050905090565b613539613651565b60008054906101000a900473ffffffffffffffffffffffffffffffffffffffff1673ffffffffffffffffffffffffffffffffffffffff168173ffffffffffffffffffffffffffffffffffffffff1614156135fb576040517f08c379a000000000000000000000000000000000000000000000000000000000815260040180806020018281038252600e8152602001807f4552525f53414d455f4f574e455200000000000000000000000000000000000081525060200191505060405180910390fd5b80600160006101000a81548173ffffffffffffffffffffffffffffffffffffffff021916908373ffffffffffffffffffffffffffffffffffffffff16021790555050565b606061364a8261166a565b9050919050565b60008054906101000a900473ffffffffffffffffffffffffffffffffffffffff1673ffffffffffffffffffffffffffffffffffffffff163373ffffffffffffffffffffffffffffffffffffffff1614613712576040517f08c379a00000000000000000000000000000000000000000000000000000000081526004018080602001828103825260118152602001807f4552525f4143434553535f44454e49454400000000000000000000000000000081525060200191505060405180910390fd5b565b6000600260009054906101000a900473ffffffffffffffffffffffffffffffffffffffff1673ffffffffffffffffffffffffffffffffffffffff1663bb34534c836040518263ffffffff1660e01b81526004018082815260200191505060206040518083038186803b15801561378957600080fd5b505afa15801561379d573d6000803e3d6000fd5b505050506040513d60208110156137b357600080fd5b81019080805190602001909291905050509050919050565b606060006137f87f42616e636f72436f6e7665727465725265676973747279446174610000000000613714565b905060008173ffffffffffffffffffffffffffffffffffffffff1663a43d5e948560008151811061382557fe5b60200260200101516040518263ffffffff1660e01b8152600401808273ffffffffffffffffffffffffffffffffffffffff16815260200191505060206040518083038186803b15801561387757600080fd5b505afa15801561388b573d6000803e3d6000fd5b505050506040513d60208110156138a157600080fd5b81019080805190602001909291905050509050600080600190505b855181101561399b5760008473ffffffffffffffffffffffffffffffffffffffff1663a43d5e948884815181106138ef57fe5b60200260200101516040518263ffffffff1660e01b8152600401808273ffffffffffffffffffffffffffffffffffffffff16815260200191505060206040518083038186803b15801561394157600080fd5b505afa158015613955573d6000803e3d6000fd5b505050506040513d602081101561396b57600080fd5b810190808051906020019092919050505090508084111561398d578093508192505b5080806001019150506138bc565b508273ffffffffffffffffffffffffffffffffffffffff1663f4fb86c08683815181106139c457fe5b60200260200101516040518263ffffffff1660e01b8152600401808273ffffffffffffffffffffffffffffffffffffffff16815260200191505060006040518083038186803b158015613a1657600080fd5b505afa158015613a2a573d6000803e3d6000fd5b505050506040513d6000823e3d601f19601f820116820180604052506020811015613a5457600080fd5b8101908080516040519392919084640100000000821115613a7457600080fd5b83820191506020820185811115613a8a57600080fd5b8251866020820283011164010000000082111715613aa757600080fd5b8083526020830192505050908051906020019060200280838360005b83811015613ade578082015181840152602081019050613ac3565b505050509050016040525050509350505050919050565b6000808573ffffffffffffffffffffffffffffffffffffffff166371f52bf36040518163ffffffff1660e01b815260040160206040518083038186803b158015613b3e57600080fd5b505afa158015613b52573d6000803e3d6000fd5b505050506040513d6020811015613b6857600080fd5b810190808051906020019092919050505061ffff169050613b898682614624565b61ffff168561ffff1614613ba1576000915050613c20565b80845114613bb3576000915050613c20565b60005b8451811015613c1957613bdc87868381518110613bcf57fe5b6020026020010151614547565b63ffffffff16848281518110613bee57fe5b602002602001015163ffffffff1614613c0c57600092505050613c20565b8080600101915050613bb6565b5060019150505b949350505050565b6000808351905082518114613ca5576040517f08c379a00000000000000000000000000000000000000000000000000000000081526004018080602001828103825260148152602001807f4552525f494e56414c49445f524553455256455300000000000000000000000081525060200191505060405180910390fd5b60018961ffff16148015613cbe5750613cbd836149e1565b5b15613cc857600398505b600073ffffffffffffffffffffffffffffffffffffffff16613ceb8a86866117fd565b73ffffffffffffffffffffffffffffffffffffffff1614613d74576040517f08c379a00000000000000000000000000000000000000000000000000000000081526004018080602001828103825260128152602001807f4552525f414c52454144595f455849535453000000000000000000000000000081525060200191505060405180910390fd5b6000613d9f7f436f6e766572746572466163746f727900000000000000000000000000000000613714565b905060008173ffffffffffffffffffffffffffffffffffffffff16632e9ab7b38c8c8c8c6040518563ffffffff1660e01b8152600401808561ffff16815260200180602001806020018460ff168152602001838103835286818151815260200191508051906020019080838360005b83811015613e29578082015181840152602081019050613e0e565b50505050905090810190601f168015613e565780820380516001836020036101000a031916815260200191505b50838103825285818151815260200191508051906020019080838360005b83811015613e8f578082015181840152602081019050613e74565b50505050905090810190601f168015613ebc5780820380516001836020036101000a031916815260200191505b509650505050505050602060405180830381600087803b158015613edf57600080fd5b505af1158015613ef3573d6000803e3d6000fd5b505050506040513d6020811015613f0957600080fd5b8101908080519060200190929190505050905060008273ffffffffffffffffffffffffffffffffffffffff166315f64b6a8d84600260009054906101000a900473ffffffffffffffffffffffffffffffffffffffff168c6040518563ffffffff1660e01b8152600401808561ffff1681526020018473ffffffffffffffffffffffffffffffffffffffff1681526020018373ffffffffffffffffffffffffffffffffffffffff1681526020018263ffffffff168152602001945050505050602060405180830381600087803b158015613fe157600080fd5b505af1158015613ff5573d6000803e3d6000fd5b505050506040513d602081101561400b57600080fd5b810190808051906020019092919050505090508173ffffffffffffffffffffffffffffffffffffffff166379ba50976040518163ffffffff1660e01b8152600401600060405180830381600087803b15801561406657600080fd5b505af115801561407a573d6000803e3d6000fd5b505050508073ffffffffffffffffffffffffffffffffffffffff166379ba50976040518163ffffffff1660e01b8152600401600060405180830381600087803b1580156140c657600080fd5b505af11580156140da573d6000803e3d6000fd5b5050505060005b848110156141ab578173ffffffffffffffffffffffffffffffffffffffff16636a49d2c489838151811061411157fe5b602002602001015189848151811061412557fe5b60200260200101516040518363ffffffff1660e01b8152600401808373ffffffffffffffffffffffffffffffffffffffff1681526020018263ffffffff16815260200192505050600060405180830381600087803b15801561418657600080fd5b505af115801561419a573d6000803e3d6000fd5b5050505080806001019150506140e1565b508173ffffffffffffffffffffffffffffffffffffffff1663f2fde38b826040518263ffffffff1660e01b8152600401808273ffffffffffffffffffffffffffffffffffffffff168152602001915050600060405180830381600087803b15801561421557600080fd5b505af1158015614229573d6000803e3d6000fd5b505050508073ffffffffffffffffffffffffffffffffffffffff1663cdc91c696040518163ffffffff1660e01b8152600401600060405180830381600087803b15801561427557600080fd5b505af1158015614289573d6000803e3d6000fd5b505050508073ffffffffffffffffffffffffffffffffffffffff1663f2fde38b336040518263ffffffff1660e01b8152600401808273ffffffffffffffffffffffffffffffffffffffff168152602001915050600060405180830381600087803b1580156142f657600080fd5b505af115801561430a573d6000803e3d6000fd5b5050505061431781614329565b80945050505050979650505050505050565b60006143547f42616e636f72436f6e7665727465725265676973747279446174610000000000613714565b905060008273ffffffffffffffffffffffffffffffffffffffff1663fc0c546a6040518163ffffffff1660e01b815260040160206040518083038186803b15801561439e57600080fd5b505afa1580156143b2573d6000803e3d6000fd5b505050506040513d60208110156143c857600080fd5b8101908080519060200190929190505050905060008373ffffffffffffffffffffffffffffffffffffffff166371f52bf36040518163ffffffff1660e01b815260040160206040518083038186803b15801561442357600080fd5b505afa158015614437573d6000803e3d6000fd5b505050506040513d602081101561444d57600080fd5b810190808051906020019092919050505061ffff16905061446e8383614a0b565b6001811115614486576144818383614b16565b614492565b614491838384614bde565b5b60005b8181101561454057614533848673ffffffffffffffffffffffffffffffffffffffff166319b64015846040518263ffffffff1660e01b81526004018082815260200191505060206040518083038186803b1580156144f257600080fd5b505afa158015614506573d6000803e3d6000fd5b505050506040513d602081101561451c57600080fd5b810190808051906020019092919050505085614bde565b8080600101915050614495565b5050505050565b6000808373ffffffffffffffffffffffffffffffffffffffff16630e53aae9846040518263ffffffff1660e01b8152600401808273ffffffffffffffffffffffffffffffffffffffff16815260200191505060a06040518083038186803b1580156145b157600080fd5b505afa1580156145c5573d6000803e3d6000fd5b505050506040513d60a08110156145db57600080fd5b8101908080519060200190929190805190602001909291908051906020019092919080519060200190929190805190602001909291905050505050509150508091505092915050565b60008060608473ffffffffffffffffffffffffffffffffffffffff167f3e8ff43f1cd1bc4d06a757749a6e6e9fd9d44e027b0f9466e12cafa4eda5c2dd604051602401604051602081830303815290604052907bffffffffffffffffffffffffffffffffffffffffffffffffffffffff19166020820180517bffffffffffffffffffffffffffffffffffffffffffffffffffffffff83818316178352505050506040518082805190602001908083835b602083106146f757805182526020820191506020810190506020830392506146d4565b6001836020036101000a038019825116818451168082178552505050505050905001915050600060405180830381855afa9150503d8060008114614757576040519150601f19603f3d011682016040523d82523d6000602084013e61475c565b606091505b509150915081801561476f575060208151145b156147a35780806020019051602081101561478957600080fd5b8101908080519060200190929190505050925050506147bd565b600184116147b25760006147b5565b60015b60ff16925050505b92915050565b60006147ee7f42616e636f72436f6e7665727465725265676973747279446174610000000000613714565b905060008273ffffffffffffffffffffffffffffffffffffffff1663fc0c546a6040518163ffffffff1660e01b815260040160206040518083038186803b15801561483857600080fd5b505afa15801561484c573d6000803e3d6000fd5b505050506040513d602081101561486257600080fd5b8101908080519060200190929190505050905060008373ffffffffffffffffffffffffffffffffffffffff166371f52bf36040518163ffffffff1660e01b815260040160206040518083038186803b1580156148bd57600080fd5b505afa1580156148d1573d6000803e3d6000fd5b505050506040513d60208110156148e757600080fd5b810190808051906020019092919050505061ffff1690506149088383614cdc565b60018111156149205761491b8383614de7565b61492c565b61492b838384614eaf565b5b60005b818110156149da576149cd848673ffffffffffffffffffffffffffffffffffffffff166319b64015846040518263ffffffff1660e01b81526004018082815260200191505060206040518083038186803b15801561498c57600080fd5b505afa1580156149a0573d6000803e3d6000fd5b505050506040513d60208110156149b657600080fd5b810190808051906020019092919050505085614eaf565b808060010191505061492f565b5050505050565b6000600460149054906101000a900460ff168015614a045750614a0382614fad565b5b9050919050565b8173ffffffffffffffffffffffffffffffffffffffff16638de6c3eb826040518263ffffffff1660e01b8152600401808273ffffffffffffffffffffffffffffffffffffffff168152602001915050600060405180830381600087803b158015614a7457600080fd5b505af1158015614a88573d6000803e3d6000fd5b505050508073ffffffffffffffffffffffffffffffffffffffff167fc0a6d303d67b7ed9fa0abae1c48878df32acc0e7ca4334c7dad2bceeee5956fd60405160405180910390a28073ffffffffffffffffffffffffffffffffffffffff167f88881feecdf61136ac4bdb1f681f2f3746a82910263d21ffea94750d2a78c0ab60405160405180910390a25050565b8173ffffffffffffffffffffffffffffffffffffffff1663ee6a934c826040518263ffffffff1660e01b8152600401808273ffffffffffffffffffffffffffffffffffffffff168152602001915050600060405180830381600087803b158015614b7f57600080fd5b505af1158015614b93573d6000803e3d6000fd5b505050508073ffffffffffffffffffffffffffffffffffffffff167fb893f883ef734b712208a877459424ee509832c57e0461fb1ac99ed4d42f2d8960405160405180910390a25050565b8273ffffffffffffffffffffffffffffffffffffffff166336900c1183836040518363ffffffff1660e01b8152600401808373ffffffffffffffffffffffffffffffffffffffff1681526020018273ffffffffffffffffffffffffffffffffffffffff16815260200192505050600060405180830381600087803b158015614c6557600080fd5b505af1158015614c79573d6000803e3d6000fd5b505050508073ffffffffffffffffffffffffffffffffffffffff168273ffffffffffffffffffffffffffffffffffffffff167ff2e7cf6d6ed3f77039511409a43d4fa5108f09ab71d72b014380364c910233a560405160405180910390a3505050565b8173ffffffffffffffffffffffffffffffffffffffff1663ceb9838c826040518263ffffffff1660e01b8152600401808273ffffffffffffffffffffffffffffffffffffffff168152602001915050600060405180830381600087803b158015614d4557600080fd5b505af1158015614d59573d6000803e3d6000fd5b505050508073ffffffffffffffffffffffffffffffffffffffff167fbfdf1baaa7e4871111360083540f067050014f651c9e4610a2a4a4bdf8bfab5d60405160405180910390a28073ffffffffffffffffffffffffffffffffffffffff167f2aff63790c7da80d1c50ede92d23bc841c384837735c92c184331f3d7b91e5bf60405160405180910390a25050565b8173ffffffffffffffffffffffffffffffffffffffff1663ae22107f826040518263ffffffff1660e01b8152600401808273ffffffffffffffffffffffffffffffffffffffff168152602001915050600060405180830381600087803b158015614e5057600080fd5b505af1158015614e64573d6000803e3d6000fd5b505050508073ffffffffffffffffffffffffffffffffffffffff167f59c3fbcae88f30e9b0e35c132a7f68c53231dffa4722f197c7ecb0ee013eee6060405160405180910390a25050565b8273ffffffffffffffffffffffffffffffffffffffff1663fba8f03183836040518363ffffffff1660e01b8152600401808373ffffffffffffffffffffffffffffffffffffffff1681526020018273ffffffffffffffffffffffffffffffffffffffff16815260200192505050600060405180830381600087803b158015614f3657600080fd5b505af1158015614f4a573d6000803e3d6000fd5b505050508073ffffffffffffffffffffffffffffffffffffffff168273ffffffffffffffffffffffffffffffffffffffff167f9430ad6ff45d6c3e126c7711bf0036bd9bc6b202fa19628abd88e59cf43ced4360405160405180910390a3505050565b600060028251148015614ff257506002620f424063ffffffff1681614fce57fe5b0463ffffffff1682600081518110614fe257fe5b602002602001015163ffffffff16145b801561503057506002620f424063ffffffff168161500c57fe5b0463ffffffff168260018151811061502057fe5b602002602001015163ffffffff16145b905091905056fea2646970667358221220839fa5302da14482ee645bccafe90b61aa3cf80fa9a8cc6b0f3a21029f1c3f2064736f6c634300060c0033",
  "immutableReferences": {},
  "source": "// SPDX-License-Identifier: SEE LICENSE IN LICENSE\npragma solidity 0.6.12;\nimport \"../converter/ConverterRegistry.sol\";\n\n/*\n    Utils test helper that exposes the converter registry functions\n*/\ncontract TestConverterRegistry is ConverterRegistry {\n    IConverter public createdConverter;\n    bool public typeChangingEnabled = true;\n\n    constructor(IContractRegistry _registry) public ConverterRegistry(_registry) {}\n\n    function newConverter(\n        uint16 _type,\n        string memory _name,\n        string memory _symbol,\n        uint8 _decimals,\n        uint32 _maxConversionFee,\n        IReserveToken[] memory _reserveTokens,\n        uint32[] memory _reserveWeights\n    ) public override returns (IConverter) {\n        createdConverter = super.newConverter(\n            _type,\n            _name,\n            _symbol,\n            _decimals,\n            _maxConversionFee,\n            _reserveTokens,\n            _reserveWeights\n        );\n\n        return createdConverter;\n    }\n\n    function isStandardPool(uint32[] memory _reserveWeights) internal view override returns (bool) {\n        return typeChangingEnabled && super.isStandardPool(_reserveWeights);\n    }\n\n    function enableTypeChanging(bool _state) external {\n        typeChangingEnabled = _state;\n    }\n}\n",
  "sourcePath": "D:\\Work Space\\bancor_project\\core\\contracts\\helpers\\TestConverterRegistry.sol",
  "compiler": {
    "name": "solc",
    "version": "0.6.12+commit.27d51765.Emscripten.clang"
  },
  "schemaVersion": "3.4.3",
  "updatedAt": "2021-08-23T11:45:54.201Z",
  "devdoc": {
    "kind": "dev",
    "methods": {
      "acceptOwnership()": {
        "details": "used by a new owner to accept an ownership transfer"
      },
      "addConverter(address)": {
        "details": "adds an existing converter to the registry can only be called by the owner",
        "params": {
          "_converter": "converter"
        }
      },
      "getAnchor(uint256)": {
        "details": "returns the converter anchor at a given index",
        "params": {
          "_index": "index"
        },
        "returns": {
          "_0": "anchor at the given index"
        }
      },
      "getAnchorCount()": {
        "details": "returns the number of converter anchors in the registry",
        "returns": {
          "_0": "number of anchors"
        }
      },
      "getAnchors()": {
        "details": "returns the list of converter anchors in the registry",
        "returns": {
          "_0": "list of anchors"
        }
      },
      "getConvertersByAnchors(address[])": {
        "details": "returns a list of converters for a given list of anchors this is a utility function that can be used to reduce the number of calls to the contract",
        "params": {
          "_anchors": "list of converter anchors"
        },
        "returns": {
          "_0": "list of converters"
        }
      },
      "getConvertersBySmartTokens(address[])": {
        "details": "deprecated, backward compatibility, use `getConvertersByAnchors`"
      },
      "getConvertibleToken(uint256)": {
        "details": "returns the convertible token at a given index",
        "params": {
          "_index": "index"
        },
        "returns": {
          "_0": "convertible token at the given index"
        }
      },
      "getConvertibleTokenAnchor(address,uint256)": {
        "details": "returns the converter anchor associated with a given convertible token at a given index",
        "params": {
          "_index": "index"
        },
        "returns": {
          "_0": "anchor associated with the given convertible token at the given index"
        }
      },
      "getConvertibleTokenAnchorCount(address)": {
        "details": "returns the number of converter anchors associated with a given convertible token",
        "params": {
          "_convertibleToken": "convertible token"
        },
        "returns": {
          "_0": "number of anchors associated with the given convertible token"
        }
      },
      "getConvertibleTokenAnchors(address)": {
        "details": "returns the list of converter anchors associated with a given convertible token",
        "params": {
          "_convertibleToken": "convertible token"
        },
        "returns": {
          "_0": "list of anchors associated with the given convertible token"
        }
      },
      "getConvertibleTokenCount()": {
        "details": "returns the number of convertible tokens in the registry",
        "returns": {
          "_0": "number of convertible tokens"
        }
      },
      "getConvertibleTokenSmartToken(address,uint256)": {
        "details": "deprecated, backward compatibility, use `getConvertibleTokenAnchor`"
      },
      "getConvertibleTokenSmartTokenCount(address)": {
        "details": "deprecated, backward compatibility, use `getConvertibleTokenAnchorCount`"
      },
      "getConvertibleTokenSmartTokens(address)": {
        "details": "deprecated, backward compatibility, use `getConvertibleTokenAnchors`"
      },
      "getConvertibleTokens()": {
        "details": "returns the list of convertible tokens in the registry",
        "returns": {
          "_0": "list of convertible tokens"
        }
      },
      "getLiquidityPool(uint256)": {
        "details": "returns the liquidity pool at a given index",
        "params": {
          "_index": "index"
        },
        "returns": {
          "_0": "liquidity pool at the given index"
        }
      },
      "getLiquidityPoolByConfig(uint16,address[],uint32[])": {
        "details": "searches for a liquidity pool with specific configuration",
        "params": {
          "_reserveTokens": "reserve tokens",
          "_reserveWeights": "reserve weights",
          "_type": "converter type, see ConverterBase contract main doc"
        },
        "returns": {
          "_0": "the liquidity pool, or zero if no such liquidity pool exists"
        }
      },
      "getLiquidityPoolByReserveConfig(address[],uint32[])": {
        "details": "deprecated, backward compatibility, use `getLiquidityPoolByConfig`"
      },
      "getLiquidityPoolCount()": {
        "details": "returns the number of liquidity pools in the registry",
        "returns": {
          "_0": "number of liquidity pools"
        }
      },
      "getLiquidityPools()": {
        "details": "returns the list of liquidity pools in the registry",
        "returns": {
          "_0": "list of liquidity pools"
        }
      },
      "getSmartToken(uint256)": {
        "details": "deprecated, backward compatibility, use `getAnchor`"
      },
      "getSmartTokenCount()": {
        "details": "deprecated, backward compatibility, use `getAnchorCount`"
      },
      "getSmartTokens()": {
        "details": "deprecated, backward compatibility, use `getAnchors`"
      },
      "isAnchor(address)": {
        "details": "checks whether or not a given value is a converter anchor",
        "params": {
          "_value": "value"
        },
        "returns": {
          "_0": "true if the given value is an anchor, false if not"
        }
      },
      "isConverterValid(address)": {
        "details": "checks whether or not a given converter is valid",
        "params": {
          "_converter": "converter"
        },
        "returns": {
          "_0": "true if the given converter is valid, false if not"
        }
      },
      "isConvertibleToken(address)": {
        "details": "checks whether or not a given value is a convertible token",
        "params": {
          "_value": "value"
        },
        "returns": {
          "_0": "true if the given value is a convertible token, false if not"
        }
      },
      "isConvertibleTokenAnchor(address,address)": {
        "details": "checks whether or not a given value is a converter anchor of a given convertible token",
        "params": {
          "_convertibleToken": "convertible token",
          "_value": "value"
        },
        "returns": {
          "_0": "true if the given value is an anchor of the given convertible token, false if not"
        }
      },
      "isConvertibleTokenSmartToken(address,address)": {
        "details": "deprecated, backward compatibility, use `isConvertibleTokenAnchor`"
      },
      "isLiquidityPool(address)": {
        "details": "checks whether or not a given value is a liquidity pool",
        "params": {
          "_value": "value"
        },
        "returns": {
          "_0": "true if the given value is a liquidity pool, false if not"
        }
      },
      "isSimilarLiquidityPoolRegistered(address)": {
        "details": "checks if a liquidity pool with given configuration is already registered",
        "params": {
          "_converter": "converter with specific configuration"
        },
        "returns": {
          "_0": "if a liquidity pool with the same configuration is already registered"
        }
      },
      "isSmartToken(address)": {
        "details": "deprecated, backward compatibility, use `isAnchor`"
      },
      "newConverter(uint16,string,string,uint8,uint32,address[],uint32[])": {
        "details": "creates a zero supply liquid token / empty liquidity pool and adds its converter to the registry",
        "params": {
          "_decimals": "token / pool decimals",
          "_maxConversionFee": "maximum conversion-fee",
          "_name": "token / pool name",
          "_reserveTokens": "reserve tokens",
          "_reserveWeights": "reserve weights",
          "_symbol": "token / pool symbol",
          "_type": "converter type, see ConverterBase contract main doc"
        },
        "returns": {
          "_0": "new converter"
        }
      },
      "removeConverter(address)": {
        "details": "removes a converter from the registry anyone can remove an existing converter from the registry, as long as the converter is invalid note that the owner can also remove valid converters",
        "params": {
          "_converter": "converter"
        }
      },
      "restoreRegistry()": {
        "details": "restores the previous contract-registry"
      },
      "restrictRegistryUpdate(bool)": {
        "details": "restricts the permission to update the contract-registry",
        "params": {
          "_onlyOwnerCanUpdateRegistry": "indicates whether or not permission is restricted to owner only"
        }
      },
      "transferOwnership(address)": {
        "details": "allows transferring the contract ownership the new owner still needs to accept the transfer can only be called by the contract owner",
        "params": {
          "_newOwner": "new contract owner"
        }
      },
      "updateRegistry()": {
        "details": "updates to the new contract-registry"
      }
    },
    "version": 1
  },
  "userdoc": {
    "kind": "user",
    "methods": {},
    "version": 1
  }
}