{
  "contractName": "TestLiquidityProvisionEventsSubscriber",
  "abi": [
    {
      "inputs": [
        {
          "internalType": "address",
          "name": "provider",
          "type": "address"
        },
        {
          "internalType": "contract IConverterAnchor",
          "name": "poolAnchor",
          "type": "address"
        },
        {
          "internalType": "contract IReserveToken",
          "name": "reserveToken",
          "type": "address"
        },
        {
          "internalType": "uint256",
          "name": "poolAmount",
          "type": "uint256"
        },
        {
          "internalType": "uint256",
          "name": "reserveAmount",
          "type": "uint256"
        }
      ],
      "name": "onAddingLiquidity",
      "outputs": [],
      "stateMutability": "nonpayable",
      "type": "function"
    },
    {
      "inputs": [
        {
          "internalType": "uint256",
          "name": "id",
          "type": "uint256"
        },
        {
          "internalType": "address",
          "name": "provider",
          "type": "address"
        },
        {
          "internalType": "contract IConverterAnchor",
          "name": "poolAnchor",
          "type": "address"
        },
        {
          "internalType": "contract IReserveToken",
          "name": "reserveToken",
          "type": "address"
        },
        {
          "internalType": "uint256",
          "name": "poolAmount",
          "type": "uint256"
        },
        {
          "internalType": "uint256",
          "name": "reserveAmount",
          "type": "uint256"
        }
      ],
      "name": "onRemovingLiquidity",
      "outputs": [],
      "stateMutability": "nonpayable",
      "type": "function"
    },
    {
      "inputs": [],
      "name": "reset",
      "outputs": [],
      "stateMutability": "nonpayable",
      "type": "function"
    },
    {
      "inputs": [
        {
          "internalType": "uint256",
          "name": "id",
          "type": "uint256"
        }
      ],
      "name": "events",
      "outputs": [
        {
          "internalType": "uint256",
          "name": "",
          "type": "uint256"
        },
        {
          "internalType": "address",
          "name": "",
          "type": "address"
        },
        {
          "internalType": "contract IConverterAnchor",
          "name": "",
          "type": "address"
        },
        {
          "internalType": "contract IReserveToken",
          "name": "",
          "type": "address"
        },
        {
          "internalType": "uint256",
          "name": "",
          "type": "uint256"
        },
        {
          "internalType": "uint256",
          "name": "",
          "type": "uint256"
        },
        {
          "internalType": "bool",
          "name": "",
          "type": "bool"
        }
      ],
      "stateMutability": "view",
      "type": "function"
    },
    {
      "inputs": [],
      "name": "eventCount",
      "outputs": [
        {
          "internalType": "uint256",
          "name": "",
          "type": "uint256"
        }
      ],
      "stateMutability": "view",
      "type": "function"
    }
  ],
  "bytecode": "0x608060405234801561001057600080fd5b5061094f806100206000396000f3fe608060405234801561001057600080fd5b50600436106100575760003560e01c80630b7914301461005c578063139c22ea1461010c57806371be2e4a146101a4578063b8128fe6146101c2578063d826f88f14610264575b600080fd5b6100886004803603602081101561007257600080fd5b810190808035906020019092919050505061026e565b604051808881526020018773ffffffffffffffffffffffffffffffffffffffff1681526020018673ffffffffffffffffffffffffffffffffffffffff1681526020018573ffffffffffffffffffffffffffffffffffffffff168152602001848152602001838152602001821515815260200197505050505050505060405180910390f35b6101a2600480360360a081101561012257600080fd5b81019080803573ffffffffffffffffffffffffffffffffffffffff169060200190929190803573ffffffffffffffffffffffffffffffffffffffff169060200190929190803573ffffffffffffffffffffffffffffffffffffffff1690602001909291908035906020019092919080359060200190929190505050610421565b005b6101ac6105e1565b6040518082815260200191505060405180910390f35b610262600480360360c08110156101d857600080fd5b8101908080359060200190929190803573ffffffffffffffffffffffffffffffffffffffff169060200190929190803573ffffffffffffffffffffffffffffffffffffffff169060200190929190803573ffffffffffffffffffffffffffffffffffffffff16906020019092919080359060200190929190803590602001909291905050506105ed565b005b61026c6107ad565b005b60008060008060008060006102816107bc565b6000898154811061028e57fe5b90600052602060002090600702016040518060e0016040529081600082015481526020016001820160009054906101000a900473ffffffffffffffffffffffffffffffffffffffff1673ffffffffffffffffffffffffffffffffffffffff1673ffffffffffffffffffffffffffffffffffffffff1681526020016002820160009054906101000a900473ffffffffffffffffffffffffffffffffffffffff1673ffffffffffffffffffffffffffffffffffffffff1673ffffffffffffffffffffffffffffffffffffffff1681526020016003820160009054906101000a900473ffffffffffffffffffffffffffffffffffffffff1673ffffffffffffffffffffffffffffffffffffffff1673ffffffffffffffffffffffffffffffffffffffff16815260200160048201548152602001600582015481526020016006820160009054906101000a900460ff1615151515815250509050806000015181602001518260400151836060015184608001518560a001518660c00151975097509750975097509750975050919395979092949650565b60006040518060e00160405280600081526020018773ffffffffffffffffffffffffffffffffffffffff1681526020018673ffffffffffffffffffffffffffffffffffffffff1681526020018573ffffffffffffffffffffffffffffffffffffffff1681526020018481526020018381526020016001151581525090806001815401808255809150506001900390600052602060002090600702016000909190919091506000820151816000015560208201518160010160006101000a81548173ffffffffffffffffffffffffffffffffffffffff021916908373ffffffffffffffffffffffffffffffffffffffff16021790555060408201518160020160006101000a81548173ffffffffffffffffffffffffffffffffffffffff021916908373ffffffffffffffffffffffffffffffffffffffff16021790555060608201518160030160006101000a81548173ffffffffffffffffffffffffffffffffffffffff021916908373ffffffffffffffffffffffffffffffffffffffff1602179055506080820151816004015560a0820151816005015560c08201518160060160006101000a81548160ff02191690831515021790555050505050505050565b60008080549050905090565b60006040518060e001604052808881526020018773ffffffffffffffffffffffffffffffffffffffff1681526020018673ffffffffffffffffffffffffffffffffffffffff1681526020018573ffffffffffffffffffffffffffffffffffffffff1681526020018481526020018381526020016000151581525090806001815401808255809150506001900390600052602060002090600702016000909190919091506000820151816000015560208201518160010160006101000a81548173ffffffffffffffffffffffffffffffffffffffff021916908373ffffffffffffffffffffffffffffffffffffffff16021790555060408201518160020160006101000a81548173ffffffffffffffffffffffffffffffffffffffff021916908373ffffffffffffffffffffffffffffffffffffffff16021790555060608201518160030160006101000a81548173ffffffffffffffffffffffffffffffffffffffff021916908373ffffffffffffffffffffffffffffffffffffffff1602179055506080820151816004015560a0820151816005015560c08201518160060160006101000a81548160ff0219169083151502179055505050505050505050565b6000806107ba919061083d565b565b6040518060e0016040528060008152602001600073ffffffffffffffffffffffffffffffffffffffff168152602001600073ffffffffffffffffffffffffffffffffffffffff168152602001600073ffffffffffffffffffffffffffffffffffffffff16815260200160008152602001600081526020016000151581525090565b508054600082556007029060005260206000209081019061085e9190610861565b50565b5b80821115610915576000808201600090556001820160006101000a81549073ffffffffffffffffffffffffffffffffffffffff02191690556002820160006101000a81549073ffffffffffffffffffffffffffffffffffffffff02191690556003820160006101000a81549073ffffffffffffffffffffffffffffffffffffffff0219169055600482016000905560058201600090556006820160006101000a81549060ff021916905550600701610862565b509056fea2646970667358221220d7ef0a34d6fb25c3486059062d38d8fefcd6ef4d2ca2cfafcbe7f05dbaff0e3164736f6c634300060c0033",
  "immutableReferences": {},
  "source": "// SPDX-License-Identifier: SEE LICENSE IN LICENSE\npragma solidity 0.6.12;\n\nimport \"../liquidity-protection/interfaces/ILiquidityProvisionEventsSubscriber.sol\";\n\ncontract TestLiquidityProvisionEventsSubscriber is ILiquidityProvisionEventsSubscriber {\n    struct LiquidityProtectionEvent {\n        uint256 id;\n        address provider;\n        IConverterAnchor poolAnchor;\n        IReserveToken reserveToken;\n        uint256 poolAmount;\n        uint256 reserveAmount;\n        bool adding;\n    }\n\n    LiquidityProtectionEvent[] private _events;\n\n    function onAddingLiquidity(\n        address provider,\n        IConverterAnchor poolAnchor,\n        IReserveToken reserveToken,\n        uint256 poolAmount,\n        uint256 reserveAmount\n    ) external override {\n        _events.push(\n            LiquidityProtectionEvent({\n                id: 0,\n                provider: provider,\n                poolAnchor: poolAnchor,\n                reserveToken: reserveToken,\n                poolAmount: poolAmount,\n                reserveAmount: reserveAmount,\n                adding: true\n            })\n        );\n    }\n\n    function onRemovingLiquidity(\n        uint256 id,\n        address provider,\n        IConverterAnchor poolAnchor,\n        IReserveToken reserveToken,\n        uint256 poolAmount,\n        uint256 reserveAmount\n    ) external override {\n        _events.push(\n            LiquidityProtectionEvent({\n                id: id,\n                provider: provider,\n                poolAnchor: poolAnchor,\n                reserveToken: reserveToken,\n                poolAmount: poolAmount,\n                reserveAmount: reserveAmount,\n                adding: false\n            })\n        );\n    }\n\n    function reset() external {\n        delete _events;\n    }\n\n    function events(uint256 id)\n        external\n        view\n        returns (\n            uint256,\n            address,\n            IConverterAnchor,\n            IReserveToken,\n            uint256,\n            uint256,\n            bool\n        )\n    {\n        LiquidityProtectionEvent memory e = _events[id];\n\n        return (e.id, e.provider, e.poolAnchor, e.reserveToken, e.poolAmount, e.reserveAmount, e.adding);\n    }\n\n    function eventCount() external view returns (uint256) {\n        return _events.length;\n    }\n}\n",
  "sourcePath": "D:\\Work Space\\bancor_project\\core\\contracts\\helpers\\TestLiquidityProvisionEventsSubscriber.sol",
  "compiler": {
    "name": "solc",
    "version": "0.6.12+commit.27d51765.Emscripten.clang"
  },
  "schemaVersion": "3.4.3",
  "updatedAt": "2021-08-23T03:19:29.900Z",
  "devdoc": {
    "kind": "dev",
    "methods": {},
    "version": 1
  },
  "userdoc": {
    "kind": "user",
    "methods": {},
    "version": 1
  }
}