{
  "contractName": "TestCall",
  "abi": [
    {
      "inputs": [],
      "name": "num",
      "outputs": [
        {
          "internalType": "uint256",
          "name": "",
          "type": "uint256"
        }
      ],
      "stateMutability": "view",
      "type": "function"
    },
    {
      "inputs": [],
      "name": "str",
      "outputs": [
        {
          "internalType": "string",
          "name": "",
          "type": "string"
        }
      ],
      "stateMutability": "view",
      "type": "function"
    },
    {
      "inputs": [
        {
          "internalType": "uint256",
          "name": "newNum",
          "type": "uint256"
        },
        {
          "internalType": "string",
          "name": "newStr",
          "type": "string"
        }
      ],
      "name": "set",
      "outputs": [],
      "stateMutability": "nonpayable",
      "type": "function"
    },
    {
      "inputs": [],
      "name": "error",
      "outputs": [],
      "stateMutability": "pure",
      "type": "function"
    }
  ],
  "bytecode": "0x608060405234801561001057600080fd5b50610389806100206000396000f3fe608060405234801561001057600080fd5b506004361061004c5760003560e01c80634e70b1dc14610051578063643719771461006f578063c15bae84146100f2578063c79f8b6214610175575b600080fd5b61005961017f565b6040518082815260200191505060405180910390f35b6100f06004803603604081101561008557600080fd5b8101908080359060200190929190803590602001906401000000008111156100ac57600080fd5b8201836020820111156100be57600080fd5b803590602001918460018302840111640100000000831117156100e057600080fd5b9091929391929390505050610188565b005b6100fa6101a6565b6040518080602001828103825283818151815260200191508051906020019080838360005b8381101561013a57808201518184015260208101905061011f565b50505050905090810190601f1680156101675780820380516001836020036101000a031916815260200191505b509250505060405180910390f35b61017d610248565b005b60008054905090565b826000819055508181600191906101a09291906102b6565b50505050565b606060018054600181600116156101000203166002900480601f01602080910402602001604051908101604052809291908181526020018280546001816001161561010002031660029004801561023e5780601f106102135761010080835404028352916020019161023e565b820191906000526020600020905b81548152906001019060200180831161022157829003601f168201915b5050505050905090565b6040517f08c379a000000000000000000000000000000000000000000000000000000000815260040180806020018281038252600a8152602001807f4552525f5245564552540000000000000000000000000000000000000000000081525060200191505060405180910390fd5b828054600181600116156101000203166002900490600052602060002090601f016020900481019282601f106102f757803560ff1916838001178555610325565b82800160010185558215610325579182015b82811115610324578235825591602001919060010190610309565b5b5090506103329190610336565b5090565b5b8082111561034f576000816000905550600101610337565b509056fea26469706673582212205427fc56967d26bbf22efecfbcff958e7e6fcd781d9625e55527a9d12dc892a964736f6c634300060c0033",
  "immutableReferences": {},
  "source": "// SPDX-License-Identifier: SEE LICENSE IN LICENSE\npragma solidity 0.6.12;\n\ncontract TestCall {\n    uint256 private _num;\n    string private _str;\n\n    function num() external view returns (uint256) {\n        return _num;\n    }\n\n    function str() external view returns (string memory) {\n        return _str;\n    }\n\n    function set(uint256 newNum, string calldata newStr) external {\n        _num = newNum;\n        _str = newStr;\n    }\n\n    function error() external pure {\n        revert(\"ERR_REVERT\");\n    }\n}\n",
  "sourcePath": "D:\\Work Space\\bancor_project\\core\\contracts\\helpers\\TestCall.sol",
  "compiler": {
    "name": "solc",
    "version": "0.6.12+commit.27d51765.Emscripten.clang"
  },
  "schemaVersion": "3.4.3",
  "updatedAt": "2021-08-23T11:45:54.192Z",
  "devdoc": {
    "kind": "dev",
    "methods": {},
    "version": 1
  },
  "userdoc": {
    "kind": "user",
    "methods": {},
    "version": 1
  }
}