{
  "contractName": "TestStandardPoolConverterFactory",
  "abi": [
    {
      "inputs": [],
      "name": "converterType",
      "outputs": [
        {
          "internalType": "uint16",
          "name": "",
          "type": "uint16"
        }
      ],
      "stateMutability": "pure",
      "type": "function"
    },
    {
      "inputs": [
        {
          "internalType": "contract IConverterAnchor",
          "name": "_anchor",
          "type": "address"
        },
        {
          "internalType": "contract IContractRegistry",
          "name": "_registry",
          "type": "address"
        },
        {
          "internalType": "uint32",
          "name": "_maxConversionFee",
          "type": "uint32"
        }
      ],
      "name": "createConverter",
      "outputs": [
        {
          "internalType": "contract IConverter",
          "name": "",
          "type": "address"
        }
      ],
      "stateMutability": "nonpayable",
      "type": "function"
    }
  ],
  "bytecode": "0x608060405234801561001057600080fd5b50617652806100206000396000f3fe608060405234801561001057600080fd5b50600436106100365760003560e01c8063114139581461003b5780633e8ff43f146100d9575b600080fd5b6100ad6004803603606081101561005157600080fd5b81019080803573ffffffffffffffffffffffffffffffffffffffff169060200190929190803573ffffffffffffffffffffffffffffffffffffffff169060200190929190803563ffffffff1690602001909291905050506100fb565b604051808273ffffffffffffffffffffffffffffffffffffffff16815260200191505060405180910390f35b6100e1610202565b604051808261ffff16815260200191505060405180910390f35b60008084848460405161010d9061020b565b808473ffffffffffffffffffffffffffffffffffffffff1681526020018373ffffffffffffffffffffffffffffffffffffffff1681526020018263ffffffff1681526020019350505050604051809103906000f080158015610173573d6000803e3d6000fd5b5090508073ffffffffffffffffffffffffffffffffffffffff1663f2fde38b336040518263ffffffff1660e01b8152600401808273ffffffffffffffffffffffffffffffffffffffff168152602001915050600060405180830381600087803b1580156101df57600080fd5b505af11580156101f3573d6000803e3d6000fd5b50505050809150509392505050565b60006003905090565b617404806102198339019056fe608060405260016004556001600b553480156200001b57600080fd5b506040516200740438038062007404833981810160405260608110156200004157600080fd5b8101908080519060200190929190805190602001909291908051906020019092919050505082828281336000806101000a81548173ffffffffffffffffffffffffffffffffffffffff021916908373ffffffffffffffffffffffffffffffffffffffff16021790555080620000bc81620001d460201b60201c565b81600260006101000a81548173ffffffffffffffffffffffffffffffffffffffff021916908373ffffffffffffffffffffffffffffffffffffffff16021790555081600360006101000a81548173ffffffffffffffffffffffffffffffffffffffff021916908373ffffffffffffffffffffffffffffffffffffffff1602179055505050826200015281620001d460201b60201c565b8162000164816200027b60201b60201c565b84600960006101000a81548173ffffffffffffffffffffffffffffffffffffffff021916908373ffffffffffffffffffffffffffffffffffffffff16021790555082600960146101000a81548163ffffffff021916908363ffffffff160217905550505050505050505062000304565b600073ffffffffffffffffffffffffffffffffffffffff168173ffffffffffffffffffffffffffffffffffffffff16141562000278576040517f08c379a00000000000000000000000000000000000000000000000000000000081526004018080602001828103825260138152602001807f4552525f494e56414c49445f414444524553530000000000000000000000000081525060200191505060405180910390fd5b50565b620f424063ffffffff168163ffffffff16111562000301576040517f08c379a000000000000000000000000000000000000000000000000000000000815260040180806020018281038252601a8152602001807f4552525f494e56414c49445f434f4e56455253494f4e5f46454500000000000081525060200191505060405180910390fd5b50565b6170f080620003146000396000f3fe60806040526004361061031e5760003560e01c80636a49d2c4116101ab578063cdc91c69116100f7578063dc3d535311610095578063ecbca55d1161006f578063ecbca55d14611741578063f0413a1f14611782578063f2fde38b146117ad578063fc0c546a146117fe57610344565b8063dc3d5353146114b7578063dc8de3791461161a578063e8dc12ff1461167f57610344565b8063d3fb73b4116100d1578063d3fb73b4146113b9578063d4ee1d90146113fa578063d55ec6971461143b578063d89595121461145257610344565b8063cdc91c691461134a578063d18e81b314611361578063d260529c1461138c57610344565b80638da5cb5b11610164578063af94b8d81161013e578063af94b8d81461104f578063b127c0a5146110e5578063b4a176d31461129d578063bbcdfdef146112b457610344565b80638da5cb5b14610fae57806394c275ad14610fef5780639b99a8e21461102057610344565b80636a49d2c414610c2e57806371f52bf314610c8f57806379ba509714610cbe5780637b10399914610cd55780637d8916bd14610d1657806380d9416d14610e8057610344565b80632fe8a6ad1161026a5780634bfcd2c611610223578063579cd3ca116101fd578063579cd3ca14610b39578063613e53a714610b6a57806361cd756e14610b9c57806367b6d57c14610bdd57610344565b80634bfcd2c614610aa457806350dc78f914610af357806354fd4d5014610b0a57610344565b80632fe8a6ad146109c857806338a5e016146109f55780633beb26c414610a0c5780633cf98fa414610a475780633e8ff43f14610a5e57806349d10b6414610a8d57610344565b80631cfab290116102d757806321e6b53d116102b157806321e6b53d1461077157806322f3e2d4146107c257806327ac36c4146107ef5780632e9abc7a1461085b57610344565b80631cfab290146106045780631e1401f81461066f5780631f0181bc1461070557610344565b8063024c7ec714610349578063038d09e1146103865780630e53aae9146103d757806312b6705f14610464578063154588371461047b57806319b640151461059f57610344565b366103445773eeeeeeeeeeeeeeeeeeeeeeeeeeeeeeeeeeeeeeee6103418161183f565b50005b600080fd5b34801561035557600080fd5b506103846004803603602081101561036c57600080fd5b810190808035151590602001909291905050506118f8565b005b34801561039257600080fd5b506103d5600480360360208110156103a957600080fd5b81019080803573ffffffffffffffffffffffffffffffffffffffff16906020019092919050505061191d565b005b3480156103e357600080fd5b50610426600480360360208110156103fa57600080fd5b81019080803573ffffffffffffffffffffffffffffffffffffffff169060200190929190505050611a26565b604051808681526020018563ffffffff1681526020018415158152602001831515815260200182151581526020019550505050505060405180910390f35b34801561047057600080fd5b50610479611ac8565b005b34801561048757600080fd5b506105486004803603604081101561049e57600080fd5b8101908080359060200190929190803590602001906401000000008111156104c557600080fd5b8201836020820111156104d757600080fd5b803590602001918460208302840111640100000000831117156104f957600080fd5b919080806020026020016040519081016040528093929190818152602001838360200280828437600081840152601f19601f820116905080830192505050505050509192919290505050611afe565b6040518080602001828103825283818151815260200191508051906020019060200280838360005b8381101561058b578082015181840152602081019050610570565b505050509050019250505060405180910390f35b3480156105ab57600080fd5b506105d8600480360360208110156105c257600080fd5b8101908080359060200190929190505050611bcf565b604051808273ffffffffffffffffffffffffffffffffffffffff16815260200191505060405180910390f35b34801561061057600080fd5b506106536004803603602081101561062757600080fd5b81019080803573ffffffffffffffffffffffffffffffffffffffff169060200190929190505050611c10565b604051808263ffffffff16815260200191505060405180910390f35b34801561067b57600080fd5b506106e86004803603606081101561069257600080fd5b81019080803573ffffffffffffffffffffffffffffffffffffffff169060200190929190803573ffffffffffffffffffffffffffffffffffffffff16906020019092919080359060200190929190505050611c38565b604051808381526020018281526020019250505060405180910390f35b34801561071157600080fd5b506107546004803603602081101561072857600080fd5b81019080803573ffffffffffffffffffffffffffffffffffffffff169060200190929190505050611c52565b604051808381526020018281526020019250505060405180910390f35b34801561077d57600080fd5b506107c06004803603602081101561079457600080fd5b81019080803573ffffffffffffffffffffffffffffffffffffffff169060200190929190505050611d12565b005b3480156107ce57600080fd5b506107d7611d26565b60405180821515815260200191505060405180910390f35b3480156107fb57600080fd5b50610804611dfe565b6040518080602001828103825283818151815260200191508051906020019060200280838360005b8381101561084757808201518184015260208101905061082c565b505050509050019250505060405180910390f35b34801561086757600080fd5b506109b26004803603604081101561087e57600080fd5b810190808035906020019064010000000081111561089b57600080fd5b8201836020820111156108ad57600080fd5b803590602001918460208302840111640100000000831117156108cf57600080fd5b919080806020026020016040519081016040528093929190818152602001838360200280828437600081840152601f19601f8201169050808301925050505050505091929192908035906020019064010000000081111561092f57600080fd5b82018360208201111561094157600080fd5b8035906020019184602083028401116401000000008311171561096357600080fd5b919080806020026020016040519081016040528093929190818152602001838360200280828437600081840152601f19601f820116905080830192505050505050509192919290505050611e8c565b6040518082815260200191505060405180910390f35b3480156109d457600080fd5b506109dd611f64565b60405180821515815260200191505060405180910390f35b348015610a0157600080fd5b50610a0a611f77565b005b348015610a1857600080fd5b50610a4560048036036020811015610a2f57600080fd5b8101908080359060200190929190505050611f89565b005b348015610a5357600080fd5b50610a5c611f93565b005b348015610a6a57600080fd5b50610a73611f9f565b604051808261ffff16815260200191505060405180910390f35b348015610a9957600080fd5b50610aa2611fa8565b005b348015610ab057600080fd5b50610add60048036036020811015610ac757600080fd5b81019080803590602001909291905050506123a0565b6040518082815260200191505060405180910390f35b348015610aff57600080fd5b50610b086123c1565b005b348015610b1657600080fd5b50610b1f61242c565b604051808261ffff16815260200191505060405180910390f35b348015610b4557600080fd5b50610b4e612431565b604051808263ffffffff16815260200191505060405180910390f35b348015610b7657600080fd5b50610b7f612447565b604051808381526020018281526020019250505060405180910390f35b348015610ba857600080fd5b50610bb161245e565b604051808273ffffffffffffffffffffffffffffffffffffffff16815260200191505060405180910390f35b348015610be957600080fd5b50610c2c60048036036020811015610c0057600080fd5b81019080803573ffffffffffffffffffffffffffffffffffffffff169060200190929190505050612484565b005b348015610c3a57600080fd5b50610c8d60048036036040811015610c5157600080fd5b81019080803573ffffffffffffffffffffffffffffffffffffffff169060200190929190803563ffffffff16906020019092919050505061255d565b005b348015610c9b57600080fd5b50610ca46127c3565b604051808261ffff16815260200191505060405180910390f35b348015610cca57600080fd5b50610cd36127d2565b005b348015610ce157600080fd5b50610cea6129d7565b604051808273ffffffffffffffffffffffffffffffffffffffff16815260200191505060405180910390f35b610e6a60048036036060811015610d2c57600080fd5b8101908080359060200190640100000000811115610d4957600080fd5b820183602082011115610d5b57600080fd5b80359060200191846020830284011164010000000083111715610d7d57600080fd5b919080806020026020016040519081016040528093929190818152602001838360200280828437600081840152601f19601f82011690508083019250505050505050919291929080359060200190640100000000811115610ddd57600080fd5b820183602082011115610def57600080fd5b80359060200191846020830284011164010000000083111715610e1157600080fd5b919080806020026020016040519081016040528093929190818152602001838360200280828437600081840152601f19601f820116905080830192505050505050509192919290803590602001909291905050506129fd565b6040518082815260200191505060405180910390f35b348015610e8c57600080fd5b50610f5760048036036060811015610ea357600080fd5b8101908080359060200190640100000000811115610ec057600080fd5b820183602082011115610ed257600080fd5b80359060200191846020830284011164010000000083111715610ef457600080fd5b919080806020026020016040519081016040528093929190818152602001838360200280828437600081840152601f19601f82011690508083019250505050505050919291929080359060200190929190803590602001909291905050506131e6565b6040518080602001828103825283818151815260200191508051906020019060200280838360005b83811015610f9a578082015181840152602081019050610f7f565b505050509050019250505060405180910390f35b348015610fba57600080fd5b50610fc3613385565b604051808273ffffffffffffffffffffffffffffffffffffffff16815260200191505060405180910390f35b348015610ffb57600080fd5b506110046133a9565b604051808263ffffffff16815260200191505060405180910390f35b34801561102c57600080fd5b506110356133bf565b604051808261ffff16815260200191505060405180910390f35b34801561105b57600080fd5b506110c86004803603606081101561107257600080fd5b81019080803573ffffffffffffffffffffffffffffffffffffffff169060200190929190803573ffffffffffffffffffffffffffffffffffffffff169060200190929190803590602001909291905050506133cc565b604051808381526020018281526020019250505060405180910390f35b3480156110f157600080fd5b506112466004803603606081101561110857600080fd5b81019080803590602001909291908035906020019064010000000081111561112f57600080fd5b82018360208201111561114157600080fd5b8035906020019184602083028401116401000000008311171561116357600080fd5b919080806020026020016040519081016040528093929190818152602001838360200280828437600081840152601f19601f820116905080830192505050505050509192919290803590602001906401000000008111156111c357600080fd5b8201836020820111156111d557600080fd5b803590602001918460208302840111640100000000831117156111f757600080fd5b919080806020026020016040519081016040528093929190818152602001838360200280828437600081840152601f19601f82011690508083019250505050505050919291929050505061348d565b6040518080602001828103825283818151815260200191508051906020019060200280838360005b8381101561128957808201518184015260208101905061126e565b505050509050019250505060405180910390f35b3480156112a957600080fd5b506112b261396e565b005b3480156112c057600080fd5b5061132d600480360360608110156112d757600080fd5b81019080803573ffffffffffffffffffffffffffffffffffffffff169060200190929190803573ffffffffffffffffffffffffffffffffffffffff169060200190929190803590602001909291905050506139db565b604051808381526020018281526020019250505060405180910390f35b34801561135657600080fd5b5061135f613ac1565b005b34801561136d57600080fd5b50611376613c4d565b6040518082815260200191505060405180910390f35b34801561139857600080fd5b506113a1613c53565b60405180821515815260200191505060405180910390f35b3480156113c557600080fd5b506113ce613c5c565b604051808273ffffffffffffffffffffffffffffffffffffffff16815260200191505060405180910390f35b34801561140657600080fd5b5061140f613c82565b604051808273ffffffffffffffffffffffffffffffffffffffff16815260200191505060405180910390f35b34801561144757600080fd5b50611450613ca8565b005b34801561145e57600080fd5b506114a16004803603602081101561147557600080fd5b81019080803573ffffffffffffffffffffffffffffffffffffffff169060200190929190505050613dd6565b6040518082815260200191505060405180910390f35b3480156114c357600080fd5b50611618600480360360608110156114da57600080fd5b81019080803590602001909291908035906020019064010000000081111561150157600080fd5b82018360208201111561151357600080fd5b8035906020019184602083028401116401000000008311171561153557600080fd5b919080806020026020016040519081016040528093929190818152602001838360200280828437600081840152601f19601f8201169050808301925050505050505091929192908035906020019064010000000081111561159557600080fd5b8201836020820111156115a757600080fd5b803590602001918460208302840111640100000000831117156115c957600080fd5b919080806020026020016040519081016040528093929190818152602001838360200280828437600081840152601f19601f820116905080830192505050505050509192919290505050613de8565b005b34801561162657600080fd5b506116696004803603602081101561163d57600080fd5b81019080803573ffffffffffffffffffffffffffffffffffffffff169060200190929190505050613e0e565b6040518082815260200191505060405180910390f35b61172b600480360360a081101561169557600080fd5b81019080803573ffffffffffffffffffffffffffffffffffffffff169060200190929190803573ffffffffffffffffffffffffffffffffffffffff16906020019092919080359060200190929190803573ffffffffffffffffffffffffffffffffffffffff169060200190929190803573ffffffffffffffffffffffffffffffffffffffff169060200190929190505050613edb565b6040518082815260200191505060405180910390f35b34801561174d57600080fd5b506117806004803603602081101561176457600080fd5b81019080803563ffffffff169060200190929190505050613fda565b005b34801561178e57600080fd5b506117976140f7565b6040518082815260200191505060405180910390f35b3480156117b957600080fd5b506117fc600480360360208110156117d057600080fd5b81019080803573ffffffffffffffffffffffffffffffffffffffff1690602001909291905050506140fd565b005b34801561180a57600080fd5b5061181361420b565b604051808273ffffffffffffffffffffffffffffffffffffffff16815260200191505060405180910390f35b6000600860008373ffffffffffffffffffffffffffffffffffffffff1673ffffffffffffffffffffffffffffffffffffffff1681526020019081526020016000205414156118f5576040517f08c379a00000000000000000000000000000000000000000000000000000000081526004018080602001828103825260138152602001807f4552525f494e56414c49445f524553455256450000000000000000000000000081525060200191505060405180910390fd5b50565b611900614235565b80600360146101000a81548160ff02191690831515021790555050565b6119256142f8565b6002600481905550611935614235565b7f42616e636f72436f6e766572746572557067726164657200000000000000000061195f81614372565b6000600780549050905060005b81811015611a185760006007828154811061198357fe5b9060005260206000200160009054906101000a900473ffffffffffffffffffffffffffffffffffffffff169050611a03856119dd308473ffffffffffffffffffffffffffffffffffffffff1661441e90919063ffffffff16565b8373ffffffffffffffffffffffffffffffffffffffff166145009092919063ffffffff16565b611a0c816145a2565b5080600101905061196c565b505050600160048190555050565b600080600080600080600860008873ffffffffffffffffffffffffffffffffffffffff1673ffffffffffffffffffffffffffffffffffffffff16815260200190815260200160002054905060008114611aab57611a828161461c565b6002620f424063ffffffff1681611a9557fe5b0460008060019550955095509550955050611abf565b600080600080600095509550955095509550505b91939590929450565b611ad06142f8565b6002600481905550600080611ae56000614631565b9150915080820260068190555050506001600481905550565b60606000600960009054906101000a900473ffffffffffffffffffffffffffffffffffffffff1673ffffffffffffffffffffffffffffffffffffffff166318160ddd6040518163ffffffff1660e01b815260040160206040518083038186803b158015611b6a57600080fd5b505afa158015611b7e573d6000803e3d6000fd5b505050506040513d6020811015611b9457600080fd5b81019080805190602001909291905050509050611baf616fbd565b611bb884614753565b9050611bc5858383614854565b9250505092915050565b600060078281548110611bde57fe5b9060005260206000200160009054906101000a900473ffffffffffffffffffffffffffffffffffffffff169050919050565b600081611c1c8161183f565b6002620f424063ffffffff1681611c2f57fe5b04915050919050565b600080611c468585856133cc565b91509150935093915050565b60008082611c5f8161183f565b6000611c6c600a54614916565b90506000611c7982614a9d565b90506000611c8683614abb565b90506007600081548110611c9657fe5b9060005260206000200160009054906101000a900473ffffffffffffffffffffffffffffffffffffffff1673ffffffffffffffffffffffffffffffffffffffff168773ffffffffffffffffffffffffffffffffffffffff161415611d0257818195509550505050611d0c565b8082955095505050505b50915091565b611d1a614235565b611d2381612484565b50565b60003073ffffffffffffffffffffffffffffffffffffffff16600960009054906101000a900473ffffffffffffffffffffffffffffffffffffffff1673ffffffffffffffffffffffffffffffffffffffff16638da5cb5b6040518163ffffffff1660e01b815260040160206040518083038186803b158015611da757600080fd5b505afa158015611dbb573d6000803e3d6000fd5b505050506040513d6020811015611dd157600080fd5b810190808051906020019092919050505073ffffffffffffffffffffffffffffffffffffffff1614905090565b60606007805480602002602001604051908101604052809291908181526020018280548015611e8257602002820191906000526020600020905b8160009054906101000a900473ffffffffffffffffffffffffffffffffffffffff1673ffffffffffffffffffffffffffffffffffffffff1681526020019060010190808311611e38575b5050505050905090565b600080600960009054906101000a900473ffffffffffffffffffffffffffffffffffffffff1673ffffffffffffffffffffffffffffffffffffffff166318160ddd6040518163ffffffff1660e01b815260040160206040518083038186803b158015611ef757600080fd5b505afa158015611f0b573d6000803e3d6000fd5b505050506040513d6020811015611f2157600080fd5b81019080805190602001909291905050509050611f3c616fbd565b611f4585614753565b90506000611f5586868486614ad5565b50905080935050505092915050565b600360149054906101000a900460ff1681565b611f7f614235565b611f87613ac1565b565b80600b8190555050565b611f9d6000614bfe565b565b60006003905090565b60008054906101000a900473ffffffffffffffffffffffffffffffffffffffff1673ffffffffffffffffffffffffffffffffffffffff163373ffffffffffffffffffffffffffffffffffffffff16148061200f5750600360149054906101000a900460ff16155b612081576040517f08c379a00000000000000000000000000000000000000000000000000000000081526004018080602001828103825260118152602001807f4552525f4143434553535f44454e49454400000000000000000000000000000081525060200191505060405180910390fd5b60006120ac7f436f6e7472616374526567697374727900000000000000000000000000000000614d41565b9050600260009054906101000a900473ffffffffffffffffffffffffffffffffffffffff1673ffffffffffffffffffffffffffffffffffffffff168173ffffffffffffffffffffffffffffffffffffffff16141580156121395750600073ffffffffffffffffffffffffffffffffffffffff168173ffffffffffffffffffffffffffffffffffffffff1614155b6121ab576040517f08c379a00000000000000000000000000000000000000000000000000000000081526004018080602001828103825260148152602001807f4552525f494e56414c49445f524547495354525900000000000000000000000081525060200191505060405180910390fd5b600073ffffffffffffffffffffffffffffffffffffffff168173ffffffffffffffffffffffffffffffffffffffff1663bb34534c7f436f6e74726163745265676973747279000000000000000000000000000000006040518263ffffffff1660e01b81526004018082815260200191505060206040518083038186803b15801561223457600080fd5b505afa158015612248573d6000803e3d6000fd5b505050506040513d602081101561225e57600080fd5b810190808051906020019092919050505073ffffffffffffffffffffffffffffffffffffffff1614156122f9576040517f08c379a00000000000000000000000000000000000000000000000000000000081526004018080602001828103825260148152602001807f4552525f494e56414c49445f524547495354525900000000000000000000000081525060200191505060405180910390fd5b600260009054906101000a900473ffffffffffffffffffffffffffffffffffffffff16600360006101000a81548173ffffffffffffffffffffffffffffffffffffffff021916908373ffffffffffffffffffffffffffffffffffffffff16021790555080600260006101000a81548173ffffffffffffffffffffffffffffffffffffffff021916908373ffffffffffffffffffffffffffffffffffffffff16021790555050565b600c81815481106123ad57fe5b906000526020600020016000915090505481565b6123c96142f8565b60026004819055506123d9614235565b7f42616e636f72436f6e766572746572557067726164657200000000000000000061240381614372565b60008061241260016002614df8565b915091508082026006819055505050506001600481905550565b602f81565b600960189054906101000a900463ffffffff1681565b60008061245660016002614df8565b915091509091565b600360009054906101000a900473ffffffffffffffffffffffffffffffffffffffff1681565b61248c614235565b7f42616e636f72436f6e76657274657255706772616465720000000000000000006124b681614372565b600960009054906101000a900473ffffffffffffffffffffffffffffffffffffffff1673ffffffffffffffffffffffffffffffffffffffff1663f2fde38b836040518263ffffffff1660e01b8152600401808273ffffffffffffffffffffffffffffffffffffffff168152602001915050600060405180830381600087803b15801561254157600080fd5b505af1158015612555573d6000803e3d6000fd5b505050505050565b612565614235565b61256d614eac565b8161257781614f29565b8161258181615007565b600960009054906101000a900473ffffffffffffffffffffffffffffffffffffffff1673ffffffffffffffffffffffffffffffffffffffff168473ffffffffffffffffffffffffffffffffffffffff161415801561261e57506000600860008673ffffffffffffffffffffffffffffffffffffffff1673ffffffffffffffffffffffffffffffffffffffff16815260200190815260200160002054145b612690576040517f08c379a00000000000000000000000000000000000000000000000000000000081526004018080602001828103825260138152602001807f4552525f494e56414c49445f524553455256450000000000000000000000000081525060200191505060405180910390fd5b600261269a6133bf565b61ffff1610612711576040517f08c379a00000000000000000000000000000000000000000000000000000000081526004018080602001828103825260198152602001807f4552525f494e56414c49445f524553455256455f434f554e540000000000000081525060200191505060405180910390fd5b6007849080600181540180825580915050600190039060005260206000200160009091909190916101000a81548173ffffffffffffffffffffffffffffffffffffffff021916908373ffffffffffffffffffffffffffffffffffffffff160217905550600780549050600860008673ffffffffffffffffffffffffffffffffffffffff1673ffffffffffffffffffffffffffffffffffffffff1681526020019081526020016000208190555050505050565b60006127cd6133bf565b905090565b600160009054906101000a900473ffffffffffffffffffffffffffffffffffffffff1673ffffffffffffffffffffffffffffffffffffffff163373ffffffffffffffffffffffffffffffffffffffff1614612895576040517f08c379a00000000000000000000000000000000000000000000000000000000081526004018080602001828103825260118152602001807f4552525f4143434553535f44454e49454400000000000000000000000000000081525060200191505060405180910390fd5b600160009054906101000a900473ffffffffffffffffffffffffffffffffffffffff1673ffffffffffffffffffffffffffffffffffffffff1660008054906101000a900473ffffffffffffffffffffffffffffffffffffffff1673ffffffffffffffffffffffffffffffffffffffff167f343765429aea5a34b3ff6a3785a98a5abb2597aca87bfbb58632c173d585373a60405160405180910390a3600160009054906101000a900473ffffffffffffffffffffffffffffffffffffffff166000806101000a81548173ffffffffffffffffffffffffffffffffffffffff021916908373ffffffffffffffffffffffffffffffffffffffff1602179055506000600160006101000a81548173ffffffffffffffffffffffffffffffffffffffff021916908373ffffffffffffffffffffffffffffffffffffffff160217905550565b600260009054906101000a900473ffffffffffffffffffffffffffffffffffffffff1681565b6000612a076142f8565b6002600481905550612a1761509e565b612a2284848461511a565b50612a5684600081518110612a3357fe5b602002602001015173ffffffffffffffffffffffffffffffffffffffff16615423565b1580612a7557503483600081518110612a6b57fe5b6020026020010151145b8015612acf5750612aaf84600181518110612a8c57fe5b602002602001015173ffffffffffffffffffffffffffffffffffffffff16615423565b1580612ace57503483600181518110612ac457fe5b6020026020010151145b5b612b41576040517f08c379a00000000000000000000000000000000000000000000000000000000081526004018080602001828103825260178152602001807f4552525f4554485f414d4f554e545f4d49534d4154434800000000000000000081525060200191505060405180910390fd5b6000341115612c155760006008600073eeeeeeeeeeeeeeeeeeeeeeeeeeeeeeeeeeeeeeee73ffffffffffffffffffffffffffffffffffffffff1673ffffffffffffffffffffffffffffffffffffffff168152602001908152602001600020541415612c14576040517f08c379a00000000000000000000000000000000000000000000000000000000081526004018080602001828103825260128152602001807f4552525f4e4f5f4554485f52455345525645000000000000000000000000000081525060200191505060405180910390fd5b5b6000600960009054906101000a900473ffffffffffffffffffffffffffffffffffffffff16905060008173ffffffffffffffffffffffffffffffffffffffff166318160ddd6040518163ffffffff1660e01b815260040160206040518083038186803b158015612c8457600080fd5b505afa158015612c98573d6000803e3d6000fd5b505050506040513d6020811015612cae57600080fd5b81019080805190602001909291905050509050612cc9616fbd565b612cd1616fbd565b612cda34614631565b83600060028110612ce757fe5b6020020184600160028110612cf857fe5b60200201828152508281525050506000612d10616fbd565b6000851415612d7f57612d228961546f565b915088600081518110612d3157fe5b602002602001015181600060028110612d4657fe5b60200201818152505088600181518110612d5c57fe5b602002602001015181600160028110612d7157fe5b602002018181525050612d94565b612d8b8a8a8688614ad5565b80925081935050505b6000612da983876154ce90919063ffffffff16565b905060005b60028110156130725760008c8281518110612dc557fe5b602002602001015190506000848360028110612ddd57fe5b6020020151905060008111612e5a576040517f08c379a00000000000000000000000000000000000000000000000000000000081526004018080602001828103825260168152602001807f4552525f5a45524f5f5441524745545f414d4f554e540000000000000000000081525060200191505060405180910390fd5b8c8381518110612e6657fe5b6020026020010151811115612e7757fe5b612e968273ffffffffffffffffffffffffffffffffffffffff16615423565b612ecc57612ec73330838573ffffffffffffffffffffffffffffffffffffffff16615556909392919063ffffffff16565b612f29565b808d8481518110612ed957fe5b60200260200101511115612f2857612f2733828f8681518110612ef857fe5b6020026020010151038473ffffffffffffffffffffffffffffffffffffffff166145009092919063ffffffff16565b5b5b612f4c81898560028110612f3957fe5b60200201516154ce90919063ffffffff16565b878460028110612f5857fe5b6020020181815250508173ffffffffffffffffffffffffffffffffffffffff163373ffffffffffffffffffffffffffffffffffffffff167f4a1a2a6176e9646d9e3157f7c2ab3c499f18337c0b0828cfb28e0a61de4a11f7838a8760028110612fbd57fe5b60200201518860405180848152602001838152602001828152602001935050505060405180910390a38173ffffffffffffffffffffffffffffffffffffffff168a73ffffffffffffffffffffffffffffffffffffffff167f77f29993cf2c084e726f7e802da0719d6a0ade3e204badc7a3ffd57ecb768c2489866002811061304157fe5b602002015187604051808381526020018281526020019250505060405180910390a350508080600101915050612dae565b506130a3600160028660006002811061308757fe5b60200201518760016002811061309957fe5b60200201516155b0565b836001600281106130b057fe5b6020020151846000600281106130c257fe5b60200201510260068190555088831015613144576040517f08c379a00000000000000000000000000000000000000000000000000000000081526004018080602001828103825260128152602001807f4552525f52455455524e5f544f4f5f4c4f57000000000000000000000000000081525060200191505060405180910390fd5b8673ffffffffffffffffffffffffffffffffffffffff1663867904b433856040518363ffffffff1660e01b8152600401808373ffffffffffffffffffffffffffffffffffffffff16815260200182815260200192505050600060405180830381600087803b1580156131b557600080fd5b505af11580156131c9573d6000803e3d6000fd5b505050508297505050505050505060016004819055509392505050565b60606000600960009054906101000a900473ffffffffffffffffffffffffffffffffffffffff1673ffffffffffffffffffffffffffffffffffffffff166318160ddd6040518163ffffffff1660e01b815260040160206040518083038186803b15801561325257600080fd5b505afa158015613266573d6000803e3d6000fd5b505050506040513d602081101561327c57600080fd5b81019080805190602001909291905050509050613297616fbd565b6132a086614753565b905060006132bf838388600281106132b457fe5b60200201518761566a565b90506060600267ffffffffffffffff811180156132db57600080fd5b5060405190808252806020026020018201604052801561330a5781602001602082028036833780820191505090505b509050613329848460006002811061331e57fe5b60200201518461578f565b8160008151811061333657fe5b60200260200101818152505061335e848460016002811061335357fe5b60200201518461578f565b8160018151811061336b57fe5b602002602001018181525050809450505050509392505050565b60008054906101000a900473ffffffffffffffffffffffffffffffffffffffff1681565b600960149054906101000a900463ffffffff1681565b6000600780549050905090565b6000806133d761509e565b6000600860008773ffffffffffffffffffffffffffffffffffffffff1673ffffffffffffffffffffffffffffffffffffffff1681526020019081526020016000205490506000600860008773ffffffffffffffffffffffffffffffffffffffff1673ffffffffffffffffffffffffffffffffffffffff16815260200190815260200160002054905060008061346c8484614df8565b9150915061347d898984848b6158ba565b9550955050505050935093915050565b60606134976142f8565b60026004819055506134a761509e565b60006134b484848761511a565b90506000600960009054906101000a900473ffffffffffffffffffffffffffffffffffffffff16905060008173ffffffffffffffffffffffffffffffffffffffff166318160ddd6040518163ffffffff1660e01b815260040160206040518083038186803b15801561352557600080fd5b505afa158015613539573d6000803e3d6000fd5b505050506040513d602081101561354f57600080fd5b810190808051906020019092919050505090508173ffffffffffffffffffffffffffffffffffffffff1663a24835d133896040518363ffffffff1660e01b8152600401808373ffffffffffffffffffffffffffffffffffffffff16815260200182815260200192505050600060405180830381600087803b1580156135d357600080fd5b505af11580156135e7573d6000803e3d6000fd5b50505050600061360088836158ed90919063ffffffff16565b905061360a616fbd565b613612616fbd565b61361c6000614631565b8360006002811061362957fe5b602002018460016002811061363a57fe5b602002018281525082815250505060606136558b8685614854565b905060005b60028110156138905760008b828151811061367157fe5b60200260200101519050600083838151811061368957fe5b602002602001015190508b838151811061369f57fe5b602002602001015181101561371c576040517f08c379a00000000000000000000000000000000000000000000000000000000081526004018080602001828103825260168152602001807f4552525f5a45524f5f5441524745545f414d4f554e540000000000000000000081525060200191505060405180910390fd5b61373f8187856002811061372c57fe5b60200201516158ed90919063ffffffff16565b85846002811061374b57fe5b60200201818152505061377f33828473ffffffffffffffffffffffffffffffffffffffff166145009092919063ffffffff16565b8173ffffffffffffffffffffffffffffffffffffffff163373ffffffffffffffffffffffffffffffffffffffff167fbc7d19d505c7ec4db83f3b51f19fb98c4c8a99922e7839d1ee608dfbee29501b838887600281106137db57fe5b60200201518b60405180848152602001838152602001828152602001935050505060405180910390a38173ffffffffffffffffffffffffffffffffffffffff168973ffffffffffffffffffffffffffffffffffffffff167f77f29993cf2c084e726f7e802da0719d6a0ade3e204badc7a3ffd57ecb768c2487866002811061385f57fe5b60200201518a604051808381526020018281526020019250505060405180910390a35050808060010191505061365a565b506138c160016002846000600281106138a557fe5b6020020151856001600281106138b757fe5b60200201516155b0565b816001600281106138ce57fe5b6020020151826000600281106138e057fe5b60200201510260068190555086156139555760008160008151811061390157fe5b602002602001015190508160018151811061391857fe5b60200260200101518260008151811061392d57fe5b602002602001018181525050808260018151811061394757fe5b602002602001018181525050505b8097505050505050505060016004819055509392505050565b613976614235565b600360009054906101000a900473ffffffffffffffffffffffffffffffffffffffff16600260006101000a81548173ffffffffffffffffffffffffffffffffffffffff021916908373ffffffffffffffffffffffffffffffffffffffff160217905550565b6000806139e661509e565b6000600860008773ffffffffffffffffffffffffffffffffffffffff1673ffffffffffffffffffffffffffffffffffffffff1681526020019081526020016000205490506000600860008773ffffffffffffffffffffffffffffffffffffffff1673ffffffffffffffffffffffffffffffffffffffff168152602001908152602001600020549050600080613a7b8484614df8565b915091506000613a8a88615970565b90506000613aab8484613aa6858d6154ce90919063ffffffff16565b6159d3565b9050808297509750505050505050935093915050565b613ac9614235565b6002613ad36133bf565b61ffff1614613b4a576040517f08c379a00000000000000000000000000000000000000000000000000000000081526004018080602001828103825260198152602001807f4552525f494e56414c49445f524553455256455f434f554e540000000000000081525060200191505060405180910390fd5b600960009054906101000a900473ffffffffffffffffffffffffffffffffffffffff1673ffffffffffffffffffffffffffffffffffffffff166379ba50976040518163ffffffff1660e01b8152600401600060405180830381600087803b158015613bb457600080fd5b505af1158015613bc8573d6000803e3d6000fd5b50505050613bd66000614bfe565b60011515600960009054906101000a900473ffffffffffffffffffffffffffffffffffffffff1673ffffffffffffffffffffffffffffffffffffffff16613c1b611f9f565b61ffff167f6b08c2e2c9969e55a647a764db9b554d64dc42f1a704da11a6d5b129ad163f2c60405160405180910390a4565b600b5481565b60006001905090565b600960009054906101000a900473ffffffffffffffffffffffffffffffffffffffff1681565b600160009054906101000a900473ffffffffffffffffffffffffffffffffffffffff1681565b613cb0614235565b6000613cdb7f42616e636f72436f6e7665727465725570677261646572000000000000000000614d41565b905060001515600960009054906101000a900473ffffffffffffffffffffffffffffffffffffffff1673ffffffffffffffffffffffffffffffffffffffff16613d22611f9f565b61ffff167f6b08c2e2c9969e55a647a764db9b554d64dc42f1a704da11a6d5b129ad163f2c60405160405180910390a4613d5b816140fd565b8073ffffffffffffffffffffffffffffffffffffffff166390f58c96602f6040518263ffffffff1660e01b8152600401808261ffff168152602001915050600060405180830381600087803b158015613db357600080fd5b505af1158015613dc7573d6000803e3d6000fd5b50505050613dd36127d2565b50565b6000613de182613e0e565b9050919050565b613df383838361348d565b600c9080519060200190613e08929190616fdf565b50505050565b600080600860008473ffffffffffffffffffffffffffffffffffffffff1673ffffffffffffffffffffffffffffffffffffffff1681526020019081526020016000205490506000811415613eca576040517f08c379a00000000000000000000000000000000000000000000000000000000081526004018080602001828103825260138152602001807f4552525f494e56414c49445f524553455256450000000000000000000000000081525060200191505060405180910390fd5b613ed38161461c565b915050919050565b6000613ee56142f8565b60026004819055507f42616e636f724e6574776f726b00000000000000000000000000000000000000613f1781614372565b8573ffffffffffffffffffffffffffffffffffffffff168773ffffffffffffffffffffffffffffffffffffffff161415613fb9576040517f08c379a00000000000000000000000000000000000000000000000000000000081526004018080602001828103825260168152602001807f4552525f53414d455f534f555243455f5441524745540000000000000000000081525060200191505060405180910390fd5b613fc68787878787615aff565b915050600160048190555095945050505050565b613fe2614235565b600960149054906101000a900463ffffffff1663ffffffff168163ffffffff161115614076576040517f08c379a000000000000000000000000000000000000000000000000000000000815260040180806020018281038252601a8152602001807f4552525f494e56414c49445f434f4e56455253494f4e5f46454500000000000081525060200191505060405180910390fd5b7f81cd2ffb37dd237c0e4e2a3de5265fcf9deb43d3e7801e80db9f1ccfba7ee600600960189054906101000a900463ffffffff1682604051808363ffffffff1681526020018263ffffffff1681526020019250505060405180910390a180600960186101000a81548163ffffffff021916908363ffffffff16021790555050565b600a5481565b614105614235565b60008054906101000a900473ffffffffffffffffffffffffffffffffffffffff1673ffffffffffffffffffffffffffffffffffffffff168173ffffffffffffffffffffffffffffffffffffffff1614156141c7576040517f08c379a000000000000000000000000000000000000000000000000000000000815260040180806020018281038252600e8152602001807f4552525f53414d455f4f574e455200000000000000000000000000000000000081525060200191505060405180910390fd5b80600160006101000a81548173ffffffffffffffffffffffffffffffffffffffff021916908373ffffffffffffffffffffffffffffffffffffffff16021790555050565b6000600960009054906101000a900473ffffffffffffffffffffffffffffffffffffffff16905090565b60008054906101000a900473ffffffffffffffffffffffffffffffffffffffff1673ffffffffffffffffffffffffffffffffffffffff163373ffffffffffffffffffffffffffffffffffffffff16146142f6576040517f08c379a00000000000000000000000000000000000000000000000000000000081526004018080602001828103825260118152602001807f4552525f4143434553535f44454e49454400000000000000000000000000000081525060200191505060405180910390fd5b565b600160045414614370576040517f08c379a000000000000000000000000000000000000000000000000000000000815260040180806020018281038252600e8152602001807f4552525f5245454e5452414e435900000000000000000000000000000000000081525060200191505060405180910390fd5b565b61437b81614d41565b73ffffffffffffffffffffffffffffffffffffffff163373ffffffffffffffffffffffffffffffffffffffff161461441b576040517f08c379a00000000000000000000000000000000000000000000000000000000081526004018080602001828103825260118152602001807f4552525f4143434553535f44454e49454400000000000000000000000000000081525060200191505060405180910390fd5b50565b600061442983615423565b1561444d578173ffffffffffffffffffffffffffffffffffffffff163190506144fa565b61445683615dfe565b73ffffffffffffffffffffffffffffffffffffffff166370a08231836040518263ffffffff1660e01b8152600401808273ffffffffffffffffffffffffffffffffffffffff16815260200191505060206040518083038186803b1580156144bc57600080fd5b505afa1580156144d0573d6000803e3d6000fd5b505050506040513d60208110156144e657600080fd5b810190808051906020019092919050505090505b92915050565b600081141561450e5761459d565b61451783615423565b15614568578173ffffffffffffffffffffffffffffffffffffffff166108fc829081150290604051600060405180830381858888f19350505050158015614562573d6000803e3d6000fd5b5061459c565b61459b828261457686615dfe565b73ffffffffffffffffffffffffffffffffffffffff16615e089092919063ffffffff16565b5b5b505050565b6000600860008373ffffffffffffffffffffffffffffffffffffffff1673ffffffffffffffffffffffffffffffffffffffff16815260200190815260200160002054905061461881614613308573ffffffffffffffffffffffffffffffffffffffff1661441e90919063ffffffff16565b615eaa565b5050565b600061462a60055483615f5d565b9050919050565b60008061463d83614bfe565b60008061464c60016002614df8565b91509150600080600061465f8585615f98565b9250925092508185039450808403935061467d6001600287876155b0565b6146e08383600760008154811061469057fe5b9060005260206000200160009054906101000a900473ffffffffffffffffffffffffffffffffffffffff1673ffffffffffffffffffffffffffffffffffffffff166145009092919063ffffffff16565b614743838260076001815481106146f357fe5b9060005260206000200160009054906101000a900473ffffffffffffffffffffffffffffffffffffffff1673ffffffffffffffffffffffffffffffffffffffff166145009092919063ffffffff16565b8484965096505050505050915091565b61475b616fbd565b6000600860008460008151811061476e57fe5b602002602001015173ffffffffffffffffffffffffffffffffffffffff1673ffffffffffffffffffffffffffffffffffffffff168152602001908152602001600020549050600060086000856001815181106147c657fe5b602002602001015173ffffffffffffffffffffffffffffffffffffffff1673ffffffffffffffffffffffffffffffffffffffff1681526020019081526020016000205490506000806148188484614df8565b915091506000806148298484615f98565b9250925050604051806040016040528083860381526020018285038152509650505050505050919050565b606080600267ffffffffffffffff8111801561486f57600080fd5b5060405190808252806020026020018201604052801561489e5781602001602082028036833780820191505090505b5090506148bd84846000600281106148b257fe5b60200201518761610a565b816000815181106148ca57fe5b6020026020010181815250506148f284846001600281106148e757fe5b60200201518761610a565b816001815181106148ff57fe5b602002602001018181525050809150509392505050565b600080614922836162b5565b9050600061492f84614a9d565b9050600061493c85614abb565b905060006149486162c3565b9050600084820390506000811415614967578695505050505050614a98565b600080614972612447565b91509150610258831015806149875750600087145b156149c6576149a581836dffffffffffffffffffffffffffff6162d2565b80935081925050506149b884828461632a565b975050505050505050614a98565b60006149db828761638490919063ffffffff16565b905060006149f2848961638490919063ffffffff16565b90506000614a31614a0c878561638490919063ffffffff16565b614a2388610258038561638490919063ffffffff16565b6154ce90919063ffffffff16565b90506000614a5c610258614a4e888c61638490919063ffffffff16565b61638490919063ffffffff16565b9050614a7782826dffffffffffffffffffffffffffff6162d2565b8092508193505050614a8a88838361632a565b9b5050505050505050505050505b919050565b60006dffffffffffffffffffffffffffff607083901c169050919050565b60006dffffffffffffffffffffffffffff82169050919050565b6000614adf616fbd565b6000614b1985600060028110614af157fe5b602002015187600181518110614b0357fe5b602002602001015161638490919063ffffffff16565b614b5186600160028110614b2957fe5b602002015188600081518110614b3b57fe5b602002602001015161638490919063ffffffff16565b10614b5d576001614b60565b60005b60ff1690506000614b9585878460028110614b7757fe5b6020020151898581518110614b8857fe5b602002602001015161566a565b9050614b9f616fbd565b6040518060400160405280614bc6888a600060028110614bbb57fe5b60200201518661578f565b8152602001614be7888a600160028110614bdc57fe5b60200201518661578f565b815250905081819450945050505094509492505050565b60006007600081548110614c0e57fe5b9060005260206000200160009054906101000a900473ffffffffffffffffffffffffffffffffffffffff16905060006007600181548110614c4b57fe5b9060005260206000200160009054906101000a900473ffffffffffffffffffffffffffffffffffffffff1690506000614c998373ffffffffffffffffffffffffffffffffffffffff16615423565b614ca4576000614ca6565b835b614ccf308573ffffffffffffffffffffffffffffffffffffffff1661441e90919063ffffffff16565b0390506000614cf38373ffffffffffffffffffffffffffffffffffffffff16615423565b614cfe576000614d00565b845b614d29308573ffffffffffffffffffffffffffffffffffffffff1661441e90919063ffffffff16565b039050614d3a6001600284846155b0565b5050505050565b6000600260009054906101000a900473ffffffffffffffffffffffffffffffffffffffff1673ffffffffffffffffffffffffffffffffffffffff1663bb34534c836040518263ffffffff1660e01b81526004018082815260200191505060206040518083038186803b158015614db657600080fd5b505afa158015614dca573d6000803e3d6000fd5b505050506040513d6020811015614de057600080fd5b81019080805190602001909291905050509050919050565b600080600184148015614e0b5750600283145b80614e225750600284148015614e215750600183145b5b614e94576040517f08c379a00000000000000000000000000000000000000000000000000000000081526004018080602001828103825260148152602001807f4552525f494e56414c49445f524553455256455300000000000000000000000081525060200191505060405180910390fd5b614ea1600554858561640a565b915091509250929050565b614eb4611d26565b15614f27576040517f08c379a000000000000000000000000000000000000000000000000000000000815260040180806020018281038252600a8152602001807f4552525f4143544956450000000000000000000000000000000000000000000081525060200191505060405180910390fd5b565b600073ffffffffffffffffffffffffffffffffffffffff168173ffffffffffffffffffffffffffffffffffffffff1614158015614f9257503073ffffffffffffffffffffffffffffffffffffffff168173ffffffffffffffffffffffffffffffffffffffff1614155b615004576040517f08c379a000000000000000000000000000000000000000000000000000000000815260040180806020018281038252601c8152602001807f4552525f494e56414c49445f45585445524e414c5f414444524553530000000081525060200191505060405180910390fd5b50565b6002620f424063ffffffff168161501a57fe5b0463ffffffff168163ffffffff161461509b576040517f08c379a000000000000000000000000000000000000000000000000000000000815260040180806020018281038252601a8152602001807f4552525f494e56414c49445f524553455256455f57454947485400000000000081525060200191505060405180910390fd5b50565b6150a6611d26565b615118576040517f08c379a000000000000000000000000000000000000000000000000000000000815260040180806020018281038252600c8152602001807f4552525f494e414354495645000000000000000000000000000000000000000081525060200191505060405180910390fd5b565b60006151258361642d565b80156151315750600082115b6151a3576040517f08c379a000000000000000000000000000000000000000000000000000000000815260040180806020018281038252600f8152602001807f4552525f5a45524f5f414d4f554e54000000000000000000000000000000000081525060200191505060405180910390fd5b600060086000866000815181106151b657fe5b602002602001015173ffffffffffffffffffffffffffffffffffffffff1673ffffffffffffffffffffffffffffffffffffffff1681526020019081526020016000205490506000600860008760018151811061520e57fe5b602002602001015173ffffffffffffffffffffffffffffffffffffffff1673ffffffffffffffffffffffffffffffffffffffff1681526020019081526020016000205490506002821480156152635750600181145b156153935760008660008151811061527757fe5b602002602001015190508660018151811061528e57fe5b6020026020010151876000815181106152a357fe5b602002602001019073ffffffffffffffffffffffffffffffffffffffff16908173ffffffffffffffffffffffffffffffffffffffff168152505080876001815181106152eb57fe5b602002602001019073ffffffffffffffffffffffffffffffffffffffff16908173ffffffffffffffffffffffffffffffffffffffff168152505060008660008151811061533457fe5b602002602001015190508660018151811061534b57fe5b60200260200101518760008151811061536057fe5b602002602001018181525050808760018151811061537a57fe5b602002602001018181525050600194505050505061541c565b6001821480156153a35750600281145b615415576040517f08c379a00000000000000000000000000000000000000000000000000000000081526004018080602001828103825260138152602001807f4552525f494e56414c49445f524553455256450000000000000000000000000081525060200191505060405180910390fd5b6000925050505b9392505050565b600073eeeeeeeeeeeeeeeeeeeeeeeeeeeeeeeeeeeeeeee73ffffffffffffffffffffffffffffffffffffffff168273ffffffffffffffffffffffffffffffffffffffff16149050919050565b6000806000905060008351905060005b818110156154b4576154a385828151811061549657fe5b602002602001015161646d565b83019250808060010191505061547f565b5060016154c183836164a7565b03600a0a92505050919050565b60008082840190508381101561554c576040517f08c379a000000000000000000000000000000000000000000000000000000000815260040180806020018281038252601b8152602001807f536166654d6174683a206164646974696f6e206f766572666c6f77000000000081525060200191505060405180910390fd5b8091505092915050565b600081148061556a575061556984615423565b5b15615574576155aa565b6155a983838361558388615dfe565b73ffffffffffffffffffffffffffffffffffffffff166164c7909392919063ffffffff16565b5b50505050565b6fffffffffffffffffffffffffffffffff82111580156155e057506fffffffffffffffffffffffffffffffff8111155b615652576040517f08c379a000000000000000000000000000000000000000000000000000000000815260040180806020018281038252601c8152602001807f4552525f524553455256455f42414c414e43455f4f564552464c4f570000000081525060200191505060405180910390fd5b61565e82858386616588565b60058190555050505050565b60008084116156e1576040517f08c379a00000000000000000000000000000000000000000000000000000000081526004018080602001828103825260128152602001807f4552525f494e56414c49445f535550504c59000000000000000000000000000081525060200191505060405180910390fd5b60008311615757576040517f08c379a000000000000000000000000000000000000000000000000000000000815260040180806020018281038252601b8152602001807f4552525f494e56414c49445f524553455256455f42414c414e4345000000000081525060200191505060405180910390fd5b60008214156157695760009050615788565b8261577d858461638490919063ffffffff16565b8161578457fe5b0490505b9392505050565b6000808411615806576040517f08c379a00000000000000000000000000000000000000000000000000000000081526004018080602001828103825260128152602001807f4552525f494e56414c49445f535550504c59000000000000000000000000000081525060200191505060405180910390fd5b6000831161587c576040517f08c379a000000000000000000000000000000000000000000000000000000000815260040180806020018281038252601b8152602001807f4552525f494e56414c49445f524553455256455f42414c414e4345000000000081525060200191505060405180910390fd5b600082141561588e57600090506158b3565b60018460016158a6868661638490919063ffffffff16565b03816158ae57fe5b040190505b9392505050565b60008060006158ca8686866165a9565b905060006158d782616663565b9050808203819350935050509550959350505050565b600082821115615965576040517f08c379a000000000000000000000000000000000000000000000000000000000815260040180806020018281038252601e8152602001807f536166654d6174683a207375627472616374696f6e206f766572666c6f77000081525060200191505060405180910390fd5b818303905092915050565b60006159cc600960189054906101000a900463ffffffff16620f42400363ffffffff166159be600960189054906101000a900463ffffffff1663ffffffff168561638490919063ffffffff16565b6166a990919063ffffffff16565b9050919050565b6000808411615a4a576040517f08c379a000000000000000000000000000000000000000000000000000000000815260040180806020018281038252601b8152602001807f4552525f494e56414c49445f524553455256455f42414c414e4345000000000081525060200191505060405180910390fd5b828210615abf576040517f08c379a00000000000000000000000000000000000000000000000000000000081526004018080602001828103825260128152602001807f4552525f494e56414c49445f414d4f554e54000000000000000000000000000081525060200191505060405180910390fd5b6000821415615ad15760009050615af8565b60018284036001615aeb858861638490919063ffffffff16565b0381615af357fe5b040190505b9392505050565b6000615b09616732565b6000600860008873ffffffffffffffffffffffffffffffffffffffff1673ffffffffffffffffffffffffffffffffffffffff1681526020019081526020016000205490506000600860008873ffffffffffffffffffffffffffffffffffffffff1673ffffffffffffffffffffffffffffffffffffffff168152602001908152602001600020549050600080615b9e8484614df8565b91509150600080615bb28c8c86868e6158ba565b915091506000821415615c2d576040517f08c379a00000000000000000000000000000000000000000000000000000000081526004018080602001828103825260168152602001807f4552525f5a45524f5f5441524745545f414d4f554e540000000000000000000081525060200191505060405180910390fd5b828210615c3657fe5b6000615c61308e73ffffffffffffffffffffffffffffffffffffffff1661441e90919063ffffffff16565b9050615c828d73ffffffffffffffffffffffffffffffffffffffff16615423565b15615d01578a3414615cfc576040517f08c379a00000000000000000000000000000000000000000000000000000000081526004018080602001828103825260178152602001807f4552525f4554485f414d4f554e545f4d49534d4154434800000000000000000081525060200191505060405180910390fd5b615d96565b600034148015615d2357508a615d2086836158ed90919063ffffffff16565b10155b615d95576040517f08c379a00000000000000000000000000000000000000000000000000000000081526004018080602001828103825260128152602001807f4552525f494e56414c49445f414d4f554e54000000000000000000000000000081525060200191505060405180910390fd5b5b615da48787838688036155b0565b615dcf89848e73ffffffffffffffffffffffffffffffffffffffff166145009092919063ffffffff16565b615ddd8d8d8c8e8787616759565b615deb8d8d838688036167ed565b8297505050505050505095945050505050565b6000819050919050565b615ea58363a9059cbb60e01b8484604051602401808373ffffffffffffffffffffffffffffffffffffffff16815260200182815260200192505050604051602081830303815290604052907bffffffffffffffffffffffffffffffffffffffffffffffffffffffff19166020820180517bffffffffffffffffffffffffffffffffffffffffffffffffffffffff83818316178352505050506169e8565b505050565b6fffffffffffffffffffffffffffffffff811115615f30576040517f08c379a000000000000000000000000000000000000000000000000000000000815260040180806020018281038252601c8152602001807f4552525f524553455256455f42414c414e43455f4f564552464c4f570000000081525060200191505060405180910390fd5b6000615f4160055484600303615f5d565b9050615f5282848386600303616588565b600581905550505050565b60006001821480615f6e5750600282145b615f7457fe5b6fffffffffffffffffffffffffffffffff6080600184030284901c16905092915050565b600080600080615fa9600654616ad7565b90506000615fb8868802616ad7565b9050808210615fd35760008060009450945094505050616103565b600080615fff7f4e6574776f726b53657474696e67730000000000000000000000000000000000614d41565b73ffffffffffffffffffffffffffffffffffffffff1663e33b5f5f6040518163ffffffff1660e01b8152600401604080518083038186803b15801561604357600080fd5b505afa158015616057573d6000803e3d6000fd5b505050506040513d604081101561606d57600080fd5b8101908080519060200190929190805190602001909291905050509150915060008163ffffffff168585030290506000620f424063ffffffff1685029050836160d1826160c3858f61638490919063ffffffff16565b6166a990919063ffffffff16565b6160f6836160e8868f61638490919063ffffffff16565b6166a990919063ffffffff16565b9850985098505050505050505b9250925092565b6000808411616181576040517f08c379a00000000000000000000000000000000000000000000000000000000081526004018080602001828103825260128152602001807f4552525f494e56414c49445f535550504c59000000000000000000000000000081525060200191505060405180910390fd5b600083116161f7576040517f08c379a000000000000000000000000000000000000000000000000000000000815260040180806020018281038252601b8152602001807f4552525f494e56414c49445f524553455256455f42414c414e4345000000000081525060200191505060405180910390fd5b8382111561626d576040517f08c379a00000000000000000000000000000000000000000000000000000000081526004018080602001828103825260128152602001807f4552525f494e56414c49445f414d4f554e54000000000000000000000000000081525060200191505060405180910390fd5b600082141561627f57600090506162ae565b8382141561628f578290506162ae565b836162a3848461638490919063ffffffff16565b816162aa57fe5b0490505b9392505050565b600060e082901c9050919050565b60006162cd616af8565b905090565b600080600080868691509150848211806162eb57508481115b15616304576162fb828287616b02565b80925081935050505b808214616318578181935093505050616322565b6001809350935050505b935093915050565b600063ffffffff841115801561634e57506dffffffffffffffffffffffffffff8311155b801561636857506dffffffffffffffffffffffffffff8211155b61636e57fe5b81607084901b60e086901b171790509392505050565b6000808314156163975760009050616404565b60008284029050828482816163a857fe5b04146163ff576040517f08c379a00000000000000000000000000000000000000000000000000000000081526004018080602001828103825260218152602001806170706021913960400191505060405180910390fd5b809150505b92915050565b6000806164178585615f5d565b6164218685615f5d565b91509150935093915050565b6000808260008151811061643d57fe5b6020026020010151118015616466575060008260018151811061645c57fe5b6020026020010151115b9050919050565b6000806000905060008390505b600081111561649d578180600101925050600a818161649557fe5b04905061647a565b5080915050919050565b600081600283816164b457fe5b048401816164be57fe5b04905092915050565b616582846323b872dd60e01b858585604051602401808473ffffffffffffffffffffffffffffffffffffffff1681526020018373ffffffffffffffffffffffffffffffffffffffff1681526020018281526020019350505050604051602081830303815290604052907bffffffffffffffffffffffffffffffffffffffffffffffffffffffff19166020820180517bffffffffffffffffffffffffffffffffffffffffffffffffffffffff83818316178352505050506169e8565b50505050565b60006165948383616b43565b61659e8686616b43565b179050949350505050565b600080841180156165ba5750600083115b61662c576040517f08c379a000000000000000000000000000000000000000000000000000000000815260040180806020018281038252601b8152602001807f4552525f494e56414c49445f524553455256455f42414c414e4345000000000081525060200191505060405180910390fd5b61663f82856154ce90919063ffffffff16565b616652838561638490919063ffffffff16565b8161665957fe5b0490509392505050565b6000620f424063ffffffff1661669a600960189054906101000a900463ffffffff1663ffffffff168461638490919063ffffffff16565b816166a157fe5b049050919050565b6000808211616720576040517f08c379a000000000000000000000000000000000000000000000000000000000815260040180806020018281038252601a8152602001807f536166654d6174683a206469766973696f6e206279207a65726f00000000000081525060200191505060405180910390fd5b81838161672957fe5b04905092915050565b6000600a549050600061674482614916565b90508082146167555780600a819055505b5050565b8373ffffffffffffffffffffffffffffffffffffffff168573ffffffffffffffffffffffffffffffffffffffff168773ffffffffffffffffffffffffffffffffffffffff167f276856b36cbc45526a0ba64f44611557a2a8b68662c5388e9fe6d72e86e1c8cb86868660405180848152602001838152602001828152602001935050505060405180910390a4505050505050565b6000600960009054906101000a900473ffffffffffffffffffffffffffffffffffffffff16905060008173ffffffffffffffffffffffffffffffffffffffff166318160ddd6040518163ffffffff1660e01b815260040160206040518083038186803b15801561685c57600080fd5b505afa158015616870573d6000803e3d6000fd5b505050506040513d602081101561688657600080fd5b810190808051906020019092919050505090508473ffffffffffffffffffffffffffffffffffffffff168673ffffffffffffffffffffffffffffffffffffffff167f77f29993cf2c084e726f7e802da0719d6a0ade3e204badc7a3ffd57ecb768c248587604051808381526020018281526020019250505060405180910390a38573ffffffffffffffffffffffffffffffffffffffff168273ffffffffffffffffffffffffffffffffffffffff167f77f29993cf2c084e726f7e802da0719d6a0ade3e204badc7a3ffd57ecb768c248684604051808381526020018281526020019250505060405180910390a38473ffffffffffffffffffffffffffffffffffffffff168273ffffffffffffffffffffffffffffffffffffffff167f77f29993cf2c084e726f7e802da0719d6a0ade3e204badc7a3ffd57ecb768c248584604051808381526020018281526020019250505060405180910390a3505050505050565b6060616a4a826040518060400160405280602081526020017f5361666545524332303a206c6f772d6c6576656c2063616c6c206661696c65648152508573ffffffffffffffffffffffffffffffffffffffff16616b889092919063ffffffff16565b9050600081511115616ad257808060200190516020811015616a6b57600080fd5b8101908080519060200190929190505050616ad1576040517f08c379a000000000000000000000000000000000000000000000000000000000815260040180806020018281038252602a815260200180617091602a913960400191505060405180910390fd5b5b505050565b6000808211616ae7576000616af1565b616af082616ba0565b5b9050919050565b6000600b54905090565b600080838511616b2057616b17858585616c00565b91509150616b3b565b600080616b2e868887616c00565b9150915080829350935050505b935093915050565b60006fffffffffffffffffffffffffffffffff8311158015616b7057506001821480616b6f5750600282145b5b616b7657fe5b6080600183030283901b905092915050565b6060616b978484600085616d01565b90509392505050565b600080600160028481616baf57fe5b0401905060006002828581616bc057fe5b04830181616bca57fe5b0490505b80821115616bf6578091506002828581616be457fe5b04830181616bee57fe5b049050616bce565b8192505050919050565b6000806000837fffffffffffffffffffffffffffffffffffffffffffffffffffffffffffffffff81616c2e57fe5b04905080861115616c6657600060018083018881616c4857fe5b04019050808781616c5557fe5b049650808681616c6157fe5b049550505b848614616cdd576000848702905060008688019050878110616ca7576000616c8e8383616eaa565b9050600081880390508181965096505050505050616cf9565b600288880381616cb357fe5b048703821015616ccc5760008694509450505050616cf9565b600180870394509450505050616cf9565b60028481616ce757fe5b0460028581616cf257fe5b0492509250505b935093915050565b606082471015616d5c576040517f08c379a000000000000000000000000000000000000000000000000000000000815260040180806020018281038252602681526020018061704a6026913960400191505060405180910390fd5b616d6585616ede565b616dd7576040517f08c379a000000000000000000000000000000000000000000000000000000000815260040180806020018281038252601d8152602001807f416464726573733a2063616c6c20746f206e6f6e2d636f6e747261637400000081525060200191505060405180910390fd5b600060608673ffffffffffffffffffffffffffffffffffffffff1685876040518082805190602001908083835b60208310616e275780518252602082019150602081019050602083039250616e04565b6001836020036101000a03801982511681845116808217855250505050505090500191505060006040518083038185875af1925050503d8060008114616e89576040519150601f19603f3d011682016040523d82523d6000602084013e616e8e565b606091505b5091509150616e9e828286616ef1565b92505050949350505050565b600060028281616eb657fe5b048203828481616ec257fe5b0681616eca57fe5b04828481616ed457fe5b0401905092915050565b600080823b905060008111915050919050565b60608315616f0157829050616fb6565b600083511115616f145782518084602001fd5b816040517f08c379a00000000000000000000000000000000000000000000000000000000081526004018080602001828103825283818151815260200191508051906020019080838360005b83811015616f7b578082015181840152602081019050616f60565b50505050905090810190601f168015616fa85780820380516001836020036101000a031916815260200191505b509250505060405180910390fd5b9392505050565b6040518060400160405280600290602082028036833780820191505090505090565b82805482825590600052602060002090810192821561701b579160200282015b8281111561701a578251825591602001919060010190616fff565b5b509050617028919061702c565b5090565b5b8082111561704557600081600090555060010161702d565b509056fe416464726573733a20696e73756666696369656e742062616c616e636520666f722063616c6c536166654d6174683a206d756c7469706c69636174696f6e206f766572666c6f775361666545524332303a204552433230206f7065726174696f6e20646964206e6f742073756363656564a26469706673582212207c0d96ada712908d5b92977556ab8e1eb57d787ffd1de8de185ef44044d7d23164736f6c634300060c0033a2646970667358221220bb2af905cb22b4f01b10b3bdb0a967a9f43056b7a6901120444effb16570578164736f6c634300060c0033",
  "immutableReferences": {},
  "source": "// SPDX-License-Identifier: SEE LICENSE IN LICENSE\npragma solidity 0.6.12;\nimport \"../converter/types/standard-pool/StandardPoolConverterFactory.sol\";\nimport \"./TestStandardPoolConverter.sol\";\n\ncontract TestStandardPoolConverterFactory is StandardPoolConverterFactory {\n    function createConverter(\n        IConverterAnchor _anchor,\n        IContractRegistry _registry,\n        uint32 _maxConversionFee\n    ) external override returns (IConverter) {\n        IConverter converter = new TestStandardPoolConverter(IDSToken(address(_anchor)), _registry, _maxConversionFee);\n        converter.transferOwnership(msg.sender);\n        return converter;\n    }\n}\n",
  "sourcePath": "D:\\Work Space\\bancor_project\\core\\contracts\\helpers\\TestStandardPoolConverterFactory.sol",
  "compiler": {
    "name": "solc",
    "version": "0.6.12+commit.27d51765.Emscripten.clang"
  },
  "schemaVersion": "3.4.3",
  "updatedAt": "2021-08-23T03:19:29.924Z",
  "devdoc": {
    "kind": "dev",
    "methods": {
      "converterType()": {
        "details": "returns the converter type the factory is associated with",
        "returns": {
          "_0": "converter type"
        }
      },
      "createConverter(address,address,uint32)": {
        "details": "creates a new converter with the given arguments and transfers the ownership to the caller",
        "params": {
          "_anchor": "anchor governed by the converter",
          "_maxConversionFee": "maximum conversion fee, represented in ppm",
          "_registry": "address of a contract registry contract"
        },
        "returns": {
          "_0": "a new converter"
        }
      }
    },
    "version": 1
  },
  "userdoc": {
    "kind": "user",
    "methods": {},
    "version": 1
  }
}