{
  "contractName": "TestReserveToken",
  "abi": [
    {
      "stateMutability": "payable",
      "type": "receive"
    },
    {
      "inputs": [
        {
          "internalType": "contract IReserveToken",
          "name": "reserveToken",
          "type": "address"
        }
      ],
      "name": "isNativeToken",
      "outputs": [
        {
          "internalType": "bool",
          "name": "",
          "type": "bool"
        }
      ],
      "stateMutability": "pure",
      "type": "function"
    },
    {
      "inputs": [
        {
          "internalType": "contract IReserveToken",
          "name": "reserveToken",
          "type": "address"
        },
        {
          "internalType": "address",
          "name": "account",
          "type": "address"
        }
      ],
      "name": "balanceOf",
      "outputs": [
        {
          "internalType": "uint256",
          "name": "",
          "type": "uint256"
        }
      ],
      "stateMutability": "view",
      "type": "function"
    },
    {
      "inputs": [
        {
          "internalType": "contract IReserveToken",
          "name": "reserveToken",
          "type": "address"
        },
        {
          "internalType": "address",
          "name": "to",
          "type": "address"
        },
        {
          "internalType": "uint256",
          "name": "amount",
          "type": "uint256"
        }
      ],
      "name": "safeTransfer",
      "outputs": [],
      "stateMutability": "nonpayable",
      "type": "function"
    },
    {
      "inputs": [
        {
          "internalType": "contract IReserveToken",
          "name": "reserveToken",
          "type": "address"
        },
        {
          "internalType": "address",
          "name": "from",
          "type": "address"
        },
        {
          "internalType": "address",
          "name": "to",
          "type": "address"
        },
        {
          "internalType": "uint256",
          "name": "amount",
          "type": "uint256"
        }
      ],
      "name": "safeTransferFrom",
      "outputs": [],
      "stateMutability": "nonpayable",
      "type": "function"
    },
    {
      "inputs": [
        {
          "internalType": "contract IReserveToken",
          "name": "reserveToken",
          "type": "address"
        },
        {
          "internalType": "address",
          "name": "spender",
          "type": "address"
        },
        {
          "internalType": "uint256",
          "name": "amount",
          "type": "uint256"
        }
      ],
      "name": "ensureApprove",
      "outputs": [],
      "stateMutability": "nonpayable",
      "type": "function"
    }
  ],
  "bytecode": "0x608060405234801561001057600080fd5b50610eff806100206000396000f3fe60806040526004361061004e5760003560e01c80632db8cef31461005a57806349422df0146100c1578063d1660f991461013c578063d9fc4b61146101b7578063f7888aec1461025257610055565b3661005557005b600080fd5b34801561006657600080fd5b506100a96004803603602081101561007d57600080fd5b81019080803573ffffffffffffffffffffffffffffffffffffffff1690602001909291905050506102d7565b60405180821515815260200191505060405180910390f35b3480156100cd57600080fd5b5061013a600480360360608110156100e457600080fd5b81019080803573ffffffffffffffffffffffffffffffffffffffff169060200190929190803573ffffffffffffffffffffffffffffffffffffffff169060200190929190803590602001909291905050506102ff565b005b34801561014857600080fd5b506101b56004803603606081101561015f57600080fd5b81019080803573ffffffffffffffffffffffffffffffffffffffff169060200190929190803573ffffffffffffffffffffffffffffffffffffffff1690602001909291908035906020019092919050505061032f565b005b3480156101c357600080fd5b50610250600480360360808110156101da57600080fd5b81019080803573ffffffffffffffffffffffffffffffffffffffff169060200190929190803573ffffffffffffffffffffffffffffffffffffffff169060200190929190803573ffffffffffffffffffffffffffffffffffffffff1690602001909291908035906020019092919050505061035f565b005b34801561025e57600080fd5b506102c16004803603604081101561027557600080fd5b81019080803573ffffffffffffffffffffffffffffffffffffffff169060200190929190803573ffffffffffffffffffffffffffffffffffffffff169060200190929190505050610392565b6040518082815260200191505060405180910390f35b60006102f88273ffffffffffffffffffffffffffffffffffffffff166103c5565b9050919050565b61032a82828573ffffffffffffffffffffffffffffffffffffffff166104119092919063ffffffff16565b505050565b61035a82828573ffffffffffffffffffffffffffffffffffffffff1661045d9092919063ffffffff16565b505050565b61038c8383838773ffffffffffffffffffffffffffffffffffffffff166104ff909392919063ffffffff16565b50505050565b60006103bd828473ffffffffffffffffffffffffffffffffffffffff1661055990919063ffffffff16565b905092915050565b600073eeeeeeeeeeeeeeeeeeeeeeeeeeeeeeeeeeeeeeee73ffffffffffffffffffffffffffffffffffffffff168273ffffffffffffffffffffffffffffffffffffffff16149050919050565b61041a836103c5565b1561042457610458565b61045782826104328661063b565b73ffffffffffffffffffffffffffffffffffffffff166106459092919063ffffffff16565b5b505050565b600081141561046b576104fa565b610474836103c5565b156104c5578173ffffffffffffffffffffffffffffffffffffffff166108fc829081150290604051600060405180830381858888f193505050501580156104bf573d6000803e3d6000fd5b506104f9565b6104f882826104d38661063b565b73ffffffffffffffffffffffffffffffffffffffff1661078c9092919063ffffffff16565b5b5b505050565b60008114806105135750610512846103c5565b5b1561051d57610553565b61055283838361052c8861063b565b73ffffffffffffffffffffffffffffffffffffffff1661082e909392919063ffffffff16565b5b50505050565b6000610564836103c5565b15610588578173ffffffffffffffffffffffffffffffffffffffff16319050610635565b6105918361063b565b73ffffffffffffffffffffffffffffffffffffffff166370a08231836040518263ffffffff1660e01b8152600401808273ffffffffffffffffffffffffffffffffffffffff16815260200191505060206040518083038186803b1580156105f757600080fd5b505afa15801561060b573d6000803e3d6000fd5b505050506040513d602081101561062157600080fd5b810190808051906020019092919050505090505b92915050565b6000819050919050565b600081141561065357610787565b60008373ffffffffffffffffffffffffffffffffffffffff1663dd62ed3e30856040518363ffffffff1660e01b8152600401808373ffffffffffffffffffffffffffffffffffffffff1681526020018273ffffffffffffffffffffffffffffffffffffffff1681526020019250505060206040518083038186803b1580156106da57600080fd5b505afa1580156106ee573d6000803e3d6000fd5b505050506040513d602081101561070457600080fd5b810190808051906020019092919050505090508181106107245750610787565b600081111561075a576107598360008673ffffffffffffffffffffffffffffffffffffffff166108ef9092919063ffffffff16565b5b61078583838673ffffffffffffffffffffffffffffffffffffffff166108ef9092919063ffffffff16565b505b505050565b6108298363a9059cbb60e01b8484604051602401808373ffffffffffffffffffffffffffffffffffffffff16815260200182815260200192505050604051602081830303815290604052907bffffffffffffffffffffffffffffffffffffffffffffffffffffffff19166020820180517bffffffffffffffffffffffffffffffffffffffffffffffffffffffff8381831617835250505050610ab4565b505050565b6108e9846323b872dd60e01b858585604051602401808473ffffffffffffffffffffffffffffffffffffffff1681526020018373ffffffffffffffffffffffffffffffffffffffff1681526020018281526020019350505050604051602081830303815290604052907bffffffffffffffffffffffffffffffffffffffffffffffffffffffff19166020820180517bffffffffffffffffffffffffffffffffffffffffffffffffffffffff8381831617835250505050610ab4565b50505050565b60008114806109bd575060008373ffffffffffffffffffffffffffffffffffffffff1663dd62ed3e30856040518363ffffffff1660e01b8152600401808373ffffffffffffffffffffffffffffffffffffffff1681526020018273ffffffffffffffffffffffffffffffffffffffff1681526020019250505060206040518083038186803b15801561098057600080fd5b505afa158015610994573d6000803e3d6000fd5b505050506040513d60208110156109aa57600080fd5b8101908080519060200190929190505050145b610a12576040517f08c379a0000000000000000000000000000000000000000000000000000000008152600401808060200182810382526036815260200180610e946036913960400191505060405180910390fd5b610aaf8363095ea7b360e01b8484604051602401808373ffffffffffffffffffffffffffffffffffffffff16815260200182815260200192505050604051602081830303815290604052907bffffffffffffffffffffffffffffffffffffffffffffffffffffffff19166020820180517bffffffffffffffffffffffffffffffffffffffffffffffffffffffff8381831617835250505050610ab4565b505050565b6060610b16826040518060400160405280602081526020017f5361666545524332303a206c6f772d6c6576656c2063616c6c206661696c65648152508573ffffffffffffffffffffffffffffffffffffffff16610ba39092919063ffffffff16565b9050600081511115610b9e57808060200190516020811015610b3757600080fd5b8101908080519060200190929190505050610b9d576040517f08c379a000000000000000000000000000000000000000000000000000000000815260040180806020018281038252602a815260200180610e6a602a913960400191505060405180910390fd5b5b505050565b6060610bb28484600085610bbb565b90509392505050565b606082471015610c16576040517f08c379a0000000000000000000000000000000000000000000000000000000008152600401808060200182810382526026815260200180610e446026913960400191505060405180910390fd5b610c1f85610d64565b610c91576040517f08c379a000000000000000000000000000000000000000000000000000000000815260040180806020018281038252601d8152602001807f416464726573733a2063616c6c20746f206e6f6e2d636f6e747261637400000081525060200191505060405180910390fd5b600060608673ffffffffffffffffffffffffffffffffffffffff1685876040518082805190602001908083835b60208310610ce15780518252602082019150602081019050602083039250610cbe565b6001836020036101000a03801982511681845116808217855250505050505090500191505060006040518083038185875af1925050503d8060008114610d43576040519150601f19603f3d011682016040523d82523d6000602084013e610d48565b606091505b5091509150610d58828286610d77565b92505050949350505050565b600080823b905060008111915050919050565b60608315610d8757829050610e3c565b600083511115610d9a5782518084602001fd5b816040517f08c379a00000000000000000000000000000000000000000000000000000000081526004018080602001828103825283818151815260200191508051906020019080838360005b83811015610e01578082015181840152602081019050610de6565b50505050905090810190601f168015610e2e5780820380516001836020036101000a031916815260200191505b509250505060405180910390fd5b939250505056fe416464726573733a20696e73756666696369656e742062616c616e636520666f722063616c6c5361666545524332303a204552433230206f7065726174696f6e20646964206e6f7420737563636565645361666545524332303a20617070726f76652066726f6d206e6f6e2d7a65726f20746f206e6f6e2d7a65726f20616c6c6f77616e6365a26469706673582212204cbe72881cfde331b665df5e05bcc8b6b58e2878f953ca15b2cd6167f219ca2c64736f6c634300060c0033",
  "immutableReferences": {},
  "source": "// SPDX-License-Identifier: SEE LICENSE IN LICENSE\npragma solidity 0.6.12;\n\nimport \"../token/ReserveToken.sol\";\n\ncontract TestReserveToken {\n    using ReserveToken for IReserveToken;\n\n    receive() external payable {}\n\n    function isNativeToken(IReserveToken reserveToken) external pure returns (bool) {\n        return reserveToken.isNativeToken();\n    }\n\n    function balanceOf(IReserveToken reserveToken, address account) external view returns (uint256) {\n        return reserveToken.balanceOf(account);\n    }\n\n    function safeTransfer(\n        IReserveToken reserveToken,\n        address to,\n        uint256 amount\n    ) external {\n        reserveToken.safeTransfer(to, amount);\n    }\n\n    function safeTransferFrom(\n        IReserveToken reserveToken,\n        address from,\n        address to,\n        uint256 amount\n    ) external {\n        reserveToken.safeTransferFrom(from, to, amount);\n    }\n\n    function ensureApprove(\n        IReserveToken reserveToken,\n        address spender,\n        uint256 amount\n    ) external {\n        reserveToken.ensureApprove(spender, amount);\n    }\n}\n",
  "sourcePath": "D:\\Work Space\\bancor_project\\core\\contracts\\helpers\\TestReserveToken.sol",
  "compiler": {
    "name": "solc",
    "version": "0.6.12+commit.27d51765.Emscripten.clang"
  },
  "schemaVersion": "3.4.3",
  "updatedAt": "2021-08-23T03:19:29.913Z",
  "devdoc": {
    "kind": "dev",
    "methods": {},
    "version": 1
  },
  "userdoc": {
    "kind": "user",
    "methods": {},
    "version": 1
  }
}