{
  "contractName": "TestMathEx",
  "abi": [
    {
      "inputs": [
        {
          "internalType": "uint256",
          "name": "_num",
          "type": "uint256"
        }
      ],
      "name": "floorSqrtTest",
      "outputs": [
        {
          "internalType": "uint256",
          "name": "",
          "type": "uint256"
        }
      ],
      "stateMutability": "pure",
      "type": "function"
    },
    {
      "inputs": [
        {
          "internalType": "uint256",
          "name": "_num",
          "type": "uint256"
        }
      ],
      "name": "ceilSqrtTest",
      "outputs": [
        {
          "internalType": "uint256",
          "name": "",
          "type": "uint256"
        }
      ],
      "stateMutability": "pure",
      "type": "function"
    },
    {
      "inputs": [
        {
          "internalType": "uint256",
          "name": "_n",
          "type": "uint256"
        },
        {
          "internalType": "uint256",
          "name": "_d",
          "type": "uint256"
        },
        {
          "internalType": "uint256",
          "name": "_exp",
          "type": "uint256"
        }
      ],
      "name": "poweredRatioTest",
      "outputs": [
        {
          "internalType": "uint256",
          "name": "",
          "type": "uint256"
        },
        {
          "internalType": "uint256",
          "name": "",
          "type": "uint256"
        }
      ],
      "stateMutability": "pure",
      "type": "function"
    },
    {
      "inputs": [
        {
          "internalType": "uint256",
          "name": "_n",
          "type": "uint256"
        },
        {
          "internalType": "uint256",
          "name": "_d",
          "type": "uint256"
        },
        {
          "internalType": "uint256",
          "name": "_max",
          "type": "uint256"
        }
      ],
      "name": "reducedRatioTest",
      "outputs": [
        {
          "internalType": "uint256",
          "name": "",
          "type": "uint256"
        },
        {
          "internalType": "uint256",
          "name": "",
          "type": "uint256"
        }
      ],
      "stateMutability": "pure",
      "type": "function"
    },
    {
      "inputs": [
        {
          "internalType": "uint256",
          "name": "_a",
          "type": "uint256"
        },
        {
          "internalType": "uint256",
          "name": "_b",
          "type": "uint256"
        },
        {
          "internalType": "uint256",
          "name": "_scale",
          "type": "uint256"
        }
      ],
      "name": "normalizedRatioTest",
      "outputs": [
        {
          "internalType": "uint256",
          "name": "",
          "type": "uint256"
        },
        {
          "internalType": "uint256",
          "name": "",
          "type": "uint256"
        }
      ],
      "stateMutability": "pure",
      "type": "function"
    },
    {
      "inputs": [
        {
          "internalType": "uint256",
          "name": "_a",
          "type": "uint256"
        },
        {
          "internalType": "uint256",
          "name": "_b",
          "type": "uint256"
        },
        {
          "internalType": "uint256",
          "name": "_scale",
          "type": "uint256"
        }
      ],
      "name": "accurateRatioTest",
      "outputs": [
        {
          "internalType": "uint256",
          "name": "",
          "type": "uint256"
        },
        {
          "internalType": "uint256",
          "name": "",
          "type": "uint256"
        }
      ],
      "stateMutability": "pure",
      "type": "function"
    },
    {
      "inputs": [
        {
          "internalType": "uint256",
          "name": "_n",
          "type": "uint256"
        },
        {
          "internalType": "uint256",
          "name": "_d",
          "type": "uint256"
        }
      ],
      "name": "roundDivTest",
      "outputs": [
        {
          "internalType": "uint256",
          "name": "",
          "type": "uint256"
        }
      ],
      "stateMutability": "pure",
      "type": "function"
    },
    {
      "inputs": [
        {
          "internalType": "uint256[]",
          "name": "_values",
          "type": "uint256[]"
        }
      ],
      "name": "geometricMeanTest",
      "outputs": [
        {
          "internalType": "uint256",
          "name": "",
          "type": "uint256"
        }
      ],
      "stateMutability": "pure",
      "type": "function"
    },
    {
      "inputs": [
        {
          "internalType": "uint256",
          "name": "_x",
          "type": "uint256"
        }
      ],
      "name": "decimalLengthTest",
      "outputs": [
        {
          "internalType": "uint256",
          "name": "",
          "type": "uint256"
        }
      ],
      "stateMutability": "pure",
      "type": "function"
    },
    {
      "inputs": [
        {
          "internalType": "uint256",
          "name": "_n",
          "type": "uint256"
        },
        {
          "internalType": "uint256",
          "name": "_d",
          "type": "uint256"
        }
      ],
      "name": "roundDivUnsafeTest",
      "outputs": [
        {
          "internalType": "uint256",
          "name": "",
          "type": "uint256"
        }
      ],
      "stateMutability": "pure",
      "type": "function"
    }
  ],
  "bytecode": "0x608060405234801561001057600080fd5b50610a79806100206000396000f3fe608060405234801561001057600080fd5b506004361061009e5760003560e01c80635652faa5116100665780635652faa51461024857806371763d4114610314578063904c433914610356578063b5c4d5a0146103b3578063ed2f0d25146103ff5761009e565b806305d3fdab146100a35780631ad36d0a146101005780631ae14c481461015d57806347d0b6861461019f57806355bc07b6146101eb575b600080fd5b6100e3600480360360608110156100b957600080fd5b81019080803590602001909291908035906020019092919080359060200190929190505050610441565b604051808381526020018281526020019250505060405180910390f35b6101406004803603606081101561011657600080fd5b8101908080359060200190929190803590602001909291908035906020019092919050505061045b565b604051808381526020018281526020019250505060405180910390f35b6101896004803603602081101561017357600080fd5b8101908080359060200190929190505050610475565b6040518082815260200191505060405180910390f35b6101d5600480360360408110156101b557600080fd5b810190808035906020019092919080359060200190929190505050610487565b6040518082815260200191505060405180910390f35b61022b6004803603606081101561020157600080fd5b8101908080359060200190929190803590602001909291908035906020019092919050505061049b565b604051808381526020018281526020019250505060405180910390f35b6102fe6004803603602081101561025e57600080fd5b810190808035906020019064010000000081111561027b57600080fd5b82018360208201111561028d57600080fd5b803590602001918460208302840111640100000000831117156102af57600080fd5b919080806020026020016040519081016040528093929190818152602001838360200280828437600081840152601f19601f8201169050808301925050505050505091929192905050506104b5565b6040518082815260200191505060405180910390f35b6103406004803603602081101561032a57600080fd5b81019080803590602001909291905050506104c7565b6040518082815260200191505060405180910390f35b6103966004803603606081101561036c57600080fd5b810190808035906020019092919080359060200190929190803590602001909291905050506104d9565b604051808381526020018281526020019250505060405180910390f35b6103e9600480360360408110156103c957600080fd5b8101908080359060200190929190803590602001909291905050506104f3565b6040518082815260200191505060405180910390f35b61042b6004803603602081101561041557600080fd5b8101908080359060200190929190505050610507565b6040518082815260200191505060405180910390f35b60008061044f858585610519565b91509150935093915050565b600080610469858585610710565b91509150935093915050565b600061048082610768565b9050919050565b600061049383836107a2565b905092915050565b6000806104a98585856107d6565b91509150935093915050565b60006104c082610817565b9050919050565b60006104d282610876565b9050919050565b6000806104e78585856108d6565b91509150935093915050565b60006104ff83836109d7565b905092915050565b6000610512826109f7565b9050919050565b6000806001600460020a03831115610599576040517f08c379a00000000000000000000000000000000000000000000000000000000081526004018080602001828103825260118152602001807f4552525f4558505f544f4f5f4c4152474500000000000000000000000000000081525060200191505060405180910390fd5b6105a1610a21565b6105a9610a21565b6105c487876fffffffffffffffffffffffffffffffff610710565b836000600481106105d157fe5b60200201836000600481106105e257fe5b602002018281525082815250505060005b60018187901c111561067d57610640600284836004811061061057fe5b60200201510a600284846004811061062457fe5b60200201510a6fffffffffffffffffffffffffffffffff610710565b84600184016004811061064f57fe5b6020020184600185016004811061066257fe5b602002018281525082815250505080806001019150506105f3565b5060006001905060006001905060005b60008189901c11156106fd5760006001828a901c1611156106f0576106e78582600481106106b757fe5b602002015184028583600481106106ca57fe5b602002015184026fffffffffffffffffffffffffffffffff610710565b80935081945050505b808060010191505061068d565b5081819550955050505050935093915050565b6000806000808686915091508482118061072957508481115b15610742576107398282876107d6565b80925081935050505b808214610756578181935093505050610760565b6001809350935050505b935093915050565b6000806000905060008390505b6000811115610798578180600101925050600a818161079057fe5b049050610775565b5080915050919050565b6000600282816107ae57fe5b0482038284816107ba57fe5b06816107c257fe5b048284816107cc57fe5b0401905092915050565b6000808385116107f4576107eb8585856108d6565b9150915061080f565b6000806108028688876108d6565b9150915080829350935050505b935093915050565b6000806000905060008351905060005b8181101561085c5761084b85828151811061083e57fe5b6020026020010151610768565b830192508080600101915050610827565b50600161086983836109d7565b03600a0a92505050919050565b60008060016002848161088557fe5b040190506000600282858161089657fe5b048301816108a057fe5b0490505b808211156108cc5780915060028285816108ba57fe5b048301816108c457fe5b0490506108a4565b8192505050919050565b6000806000837fffffffffffffffffffffffffffffffffffffffffffffffffffffffffffffffff8161090457fe5b0490508086111561093c5760006001808301888161091e57fe5b0401905080878161092b57fe5b04965080868161093757fe5b049550505b8486146109b357600084870290506000868801905087811061097d57600061096483836107a2565b90506000818803905081819650965050505050506109cf565b60028888038161098957fe5b0487038210156109a257600086945094505050506109cf565b6001808703945094505050506109cf565b600284816109bd57fe5b04600285816109c857fe5b0492509250505b935093915050565b600081600283816109e457fe5b048401816109ee57fe5b04905092915050565b600080610a0383610876565b90508281820214610a175760018101610a19565b805b915050919050565b604051806080016040528060049060208202803683378082019150509050509056fea26469706673582212203da9f65c6c12b41be71c9fbf60557bced40dbbaa9224a9a547a7279e84ae13fa64736f6c634300060c0033",
  "immutableReferences": {},
  "source": "// SPDX-License-Identifier: SEE LICENSE IN LICENSE\npragma solidity 0.6.12;\n\nimport \"../utility/MathEx.sol\";\n\ncontract TestMathEx {\n    using MathEx for *;\n\n    function floorSqrtTest(uint256 _num) external pure returns (uint256) {\n        return MathEx.floorSqrt(_num);\n    }\n\n    function ceilSqrtTest(uint256 _num) external pure returns (uint256) {\n        return MathEx.ceilSqrt(_num);\n    }\n\n    function poweredRatioTest(\n        uint256 _n,\n        uint256 _d,\n        uint256 _exp\n    ) external pure returns (uint256, uint256) {\n        return MathEx.poweredRatio(_n, _d, _exp);\n    }\n\n    function reducedRatioTest(\n        uint256 _n,\n        uint256 _d,\n        uint256 _max\n    ) external pure returns (uint256, uint256) {\n        return MathEx.reducedRatio(_n, _d, _max);\n    }\n\n    function normalizedRatioTest(\n        uint256 _a,\n        uint256 _b,\n        uint256 _scale\n    ) external pure returns (uint256, uint256) {\n        return MathEx.normalizedRatio(_a, _b, _scale);\n    }\n\n    function accurateRatioTest(\n        uint256 _a,\n        uint256 _b,\n        uint256 _scale\n    ) external pure returns (uint256, uint256) {\n        return MathEx.accurateRatio(_a, _b, _scale);\n    }\n\n    function roundDivTest(uint256 _n, uint256 _d) external pure returns (uint256) {\n        return MathEx.roundDiv(_n, _d);\n    }\n\n    function geometricMeanTest(uint256[] memory _values) external pure returns (uint256) {\n        return MathEx.geometricMean(_values);\n    }\n\n    function decimalLengthTest(uint256 _x) external pure returns (uint256) {\n        return MathEx.decimalLength(_x);\n    }\n\n    function roundDivUnsafeTest(uint256 _n, uint256 _d) external pure returns (uint256) {\n        return MathEx.roundDivUnsafe(_n, _d);\n    }\n}\n",
  "sourcePath": "D:\\Work Space\\bancor_project\\core\\contracts\\helpers\\TestMathEx.sol",
  "compiler": {
    "name": "solc",
    "version": "0.6.12+commit.27d51765.Emscripten.clang"
  },
  "schemaVersion": "3.4.3",
  "updatedAt": "2021-08-23T11:45:54.237Z",
  "devdoc": {
    "kind": "dev",
    "methods": {},
    "version": 1
  },
  "userdoc": {
    "kind": "user",
    "methods": {},
    "version": 1
  }
}