{
  "contractName": "TestLiquidityPoolV1Converter",
  "abi": [
    {
      "inputs": [
        {
          "internalType": "contract IDSToken",
          "name": "_token",
          "type": "address"
        },
        {
          "internalType": "contract IContractRegistry",
          "name": "_registry",
          "type": "address"
        },
        {
          "internalType": "uint32",
          "name": "_maxConversionFee",
          "type": "uint32"
        }
      ],
      "stateMutability": "nonpayable",
      "type": "constructor"
    },
    {
      "anonymous": false,
      "inputs": [
        {
          "indexed": true,
          "internalType": "uint16",
          "name": "_type",
          "type": "uint16"
        },
        {
          "indexed": true,
          "internalType": "contract IConverterAnchor",
          "name": "_anchor",
          "type": "address"
        },
        {
          "indexed": true,
          "internalType": "bool",
          "name": "_activated",
          "type": "bool"
        }
      ],
      "name": "Activation",
      "type": "event"
    },
    {
      "anonymous": false,
      "inputs": [
        {
          "indexed": true,
          "internalType": "contract IReserveToken",
          "name": "_fromToken",
          "type": "address"
        },
        {
          "indexed": true,
          "internalType": "contract IReserveToken",
          "name": "_toToken",
          "type": "address"
        },
        {
          "indexed": true,
          "internalType": "address",
          "name": "_trader",
          "type": "address"
        },
        {
          "indexed": false,
          "internalType": "uint256",
          "name": "_amount",
          "type": "uint256"
        },
        {
          "indexed": false,
          "internalType": "uint256",
          "name": "_return",
          "type": "uint256"
        },
        {
          "indexed": false,
          "internalType": "int256",
          "name": "_conversionFee",
          "type": "int256"
        }
      ],
      "name": "Conversion",
      "type": "event"
    },
    {
      "anonymous": false,
      "inputs": [
        {
          "indexed": false,
          "internalType": "uint32",
          "name": "_prevFee",
          "type": "uint32"
        },
        {
          "indexed": false,
          "internalType": "uint32",
          "name": "_newFee",
          "type": "uint32"
        }
      ],
      "name": "ConversionFeeUpdate",
      "type": "event"
    },
    {
      "anonymous": false,
      "inputs": [
        {
          "indexed": true,
          "internalType": "address",
          "name": "_provider",
          "type": "address"
        },
        {
          "indexed": true,
          "internalType": "contract IReserveToken",
          "name": "_reserveToken",
          "type": "address"
        },
        {
          "indexed": false,
          "internalType": "uint256",
          "name": "_amount",
          "type": "uint256"
        },
        {
          "indexed": false,
          "internalType": "uint256",
          "name": "_newBalance",
          "type": "uint256"
        },
        {
          "indexed": false,
          "internalType": "uint256",
          "name": "_newSupply",
          "type": "uint256"
        }
      ],
      "name": "LiquidityAdded",
      "type": "event"
    },
    {
      "anonymous": false,
      "inputs": [
        {
          "indexed": true,
          "internalType": "address",
          "name": "_provider",
          "type": "address"
        },
        {
          "indexed": true,
          "internalType": "contract IReserveToken",
          "name": "_reserveToken",
          "type": "address"
        },
        {
          "indexed": false,
          "internalType": "uint256",
          "name": "_amount",
          "type": "uint256"
        },
        {
          "indexed": false,
          "internalType": "uint256",
          "name": "_newBalance",
          "type": "uint256"
        },
        {
          "indexed": false,
          "internalType": "uint256",
          "name": "_newSupply",
          "type": "uint256"
        }
      ],
      "name": "LiquidityRemoved",
      "type": "event"
    },
    {
      "anonymous": false,
      "inputs": [
        {
          "indexed": true,
          "internalType": "address",
          "name": "_prevOwner",
          "type": "address"
        },
        {
          "indexed": true,
          "internalType": "address",
          "name": "_newOwner",
          "type": "address"
        }
      ],
      "name": "OwnerUpdate",
      "type": "event"
    },
    {
      "anonymous": false,
      "inputs": [
        {
          "indexed": true,
          "internalType": "address",
          "name": "_token1",
          "type": "address"
        },
        {
          "indexed": true,
          "internalType": "address",
          "name": "_token2",
          "type": "address"
        },
        {
          "indexed": false,
          "internalType": "uint256",
          "name": "_rateN",
          "type": "uint256"
        },
        {
          "indexed": false,
          "internalType": "uint256",
          "name": "_rateD",
          "type": "uint256"
        }
      ],
      "name": "TokenRateUpdate",
      "type": "event"
    },
    {
      "inputs": [],
      "name": "acceptAnchorOwnership",
      "outputs": [],
      "stateMutability": "nonpayable",
      "type": "function"
    },
    {
      "inputs": [],
      "name": "acceptOwnership",
      "outputs": [],
      "stateMutability": "nonpayable",
      "type": "function"
    },
    {
      "inputs": [],
      "name": "acceptTokenOwnership",
      "outputs": [],
      "stateMutability": "nonpayable",
      "type": "function"
    },
    {
      "inputs": [
        {
          "internalType": "contract IReserveToken[]",
          "name": "_reserveTokens",
          "type": "address[]"
        },
        {
          "internalType": "uint256[]",
          "name": "_reserveAmounts",
          "type": "uint256[]"
        },
        {
          "internalType": "uint256",
          "name": "_minReturn",
          "type": "uint256"
        }
      ],
      "name": "addLiquidity",
      "outputs": [
        {
          "internalType": "uint256",
          "name": "",
          "type": "uint256"
        }
      ],
      "stateMutability": "payable",
      "type": "function"
    },
    {
      "inputs": [
        {
          "internalType": "contract IReserveToken[]",
          "name": "_reserveTokens",
          "type": "address[]"
        },
        {
          "internalType": "uint256",
          "name": "_reserveTokenIndex",
          "type": "uint256"
        },
        {
          "internalType": "uint256",
          "name": "_reserveAmount",
          "type": "uint256"
        }
      ],
      "name": "addLiquidityCost",
      "outputs": [
        {
          "internalType": "uint256[]",
          "name": "",
          "type": "uint256[]"
        }
      ],
      "stateMutability": "view",
      "type": "function"
    },
    {
      "inputs": [
        {
          "internalType": "contract IReserveToken[]",
          "name": "_reserveTokens",
          "type": "address[]"
        },
        {
          "internalType": "uint256[]",
          "name": "_reserveAmounts",
          "type": "uint256[]"
        }
      ],
      "name": "addLiquidityReturn",
      "outputs": [
        {
          "internalType": "uint256",
          "name": "",
          "type": "uint256"
        }
      ],
      "stateMutability": "view",
      "type": "function"
    },
    {
      "inputs": [
        {
          "internalType": "contract IReserveToken",
          "name": "_token",
          "type": "address"
        },
        {
          "internalType": "uint32",
          "name": "_weight",
          "type": "uint32"
        }
      ],
      "name": "addReserve",
      "outputs": [],
      "stateMutability": "nonpayable",
      "type": "function"
    },
    {
      "inputs": [],
      "name": "anchor",
      "outputs": [
        {
          "internalType": "contract IConverterAnchor",
          "name": "",
          "type": "address"
        }
      ],
      "stateMutability": "view",
      "type": "function"
    },
    {
      "inputs": [],
      "name": "connectorTokenCount",
      "outputs": [
        {
          "internalType": "uint16",
          "name": "",
          "type": "uint16"
        }
      ],
      "stateMutability": "view",
      "type": "function"
    },
    {
      "inputs": [
        {
          "internalType": "uint256",
          "name": "_index",
          "type": "uint256"
        }
      ],
      "name": "connectorTokens",
      "outputs": [
        {
          "internalType": "contract IReserveToken",
          "name": "",
          "type": "address"
        }
      ],
      "stateMutability": "view",
      "type": "function"
    },
    {
      "inputs": [
        {
          "internalType": "contract IReserveToken",
          "name": "_address",
          "type": "address"
        }
      ],
      "name": "connectors",
      "outputs": [
        {
          "internalType": "uint256",
          "name": "",
          "type": "uint256"
        },
        {
          "internalType": "uint32",
          "name": "",
          "type": "uint32"
        },
        {
          "internalType": "bool",
          "name": "",
          "type": "bool"
        },
        {
          "internalType": "bool",
          "name": "",
          "type": "bool"
        },
        {
          "internalType": "bool",
          "name": "",
          "type": "bool"
        }
      ],
      "stateMutability": "view",
      "type": "function"
    },
    {
      "inputs": [],
      "name": "conversionFee",
      "outputs": [
        {
          "internalType": "uint32",
          "name": "",
          "type": "uint32"
        }
      ],
      "stateMutability": "view",
      "type": "function"
    },
    {
      "inputs": [],
      "name": "conversionWhitelist",
      "outputs": [
        {
          "internalType": "contract IWhitelist",
          "name": "",
          "type": "address"
        }
      ],
      "stateMutability": "view",
      "type": "function"
    },
    {
      "inputs": [
        {
          "internalType": "contract IReserveToken",
          "name": "_sourceToken",
          "type": "address"
        },
        {
          "internalType": "contract IReserveToken",
          "name": "_targetToken",
          "type": "address"
        },
        {
          "internalType": "uint256",
          "name": "_amount",
          "type": "uint256"
        },
        {
          "internalType": "address",
          "name": "_trader",
          "type": "address"
        },
        {
          "internalType": "address payable",
          "name": "_beneficiary",
          "type": "address"
        }
      ],
      "name": "convert",
      "outputs": [
        {
          "internalType": "uint256",
          "name": "",
          "type": "uint256"
        }
      ],
      "stateMutability": "payable",
      "type": "function"
    },
    {
      "inputs": [],
      "name": "converterType",
      "outputs": [
        {
          "internalType": "uint16",
          "name": "",
          "type": "uint16"
        }
      ],
      "stateMutability": "pure",
      "type": "function"
    },
    {
      "inputs": [],
      "name": "currentTime",
      "outputs": [
        {
          "internalType": "uint256",
          "name": "",
          "type": "uint256"
        }
      ],
      "stateMutability": "view",
      "type": "function"
    },
    {
      "inputs": [
        {
          "internalType": "uint256",
          "name": "_amount",
          "type": "uint256"
        }
      ],
      "name": "fund",
      "outputs": [
        {
          "internalType": "uint256",
          "name": "",
          "type": "uint256"
        }
      ],
      "stateMutability": "payable",
      "type": "function"
    },
    {
      "inputs": [
        {
          "internalType": "contract IReserveToken",
          "name": "_connectorToken",
          "type": "address"
        }
      ],
      "name": "getConnectorBalance",
      "outputs": [
        {
          "internalType": "uint256",
          "name": "",
          "type": "uint256"
        }
      ],
      "stateMutability": "view",
      "type": "function"
    },
    {
      "inputs": [
        {
          "internalType": "contract IReserveToken",
          "name": "_sourceToken",
          "type": "address"
        },
        {
          "internalType": "contract IReserveToken",
          "name": "_targetToken",
          "type": "address"
        },
        {
          "internalType": "uint256",
          "name": "_amount",
          "type": "uint256"
        }
      ],
      "name": "getReturn",
      "outputs": [
        {
          "internalType": "uint256",
          "name": "",
          "type": "uint256"
        },
        {
          "internalType": "uint256",
          "name": "",
          "type": "uint256"
        }
      ],
      "stateMutability": "view",
      "type": "function"
    },
    {
      "inputs": [],
      "name": "isActive",
      "outputs": [
        {
          "internalType": "bool",
          "name": "",
          "type": "bool"
        }
      ],
      "stateMutability": "view",
      "type": "function"
    },
    {
      "inputs": [],
      "name": "isStandardPool",
      "outputs": [
        {
          "internalType": "bool",
          "name": "",
          "type": "bool"
        }
      ],
      "stateMutability": "view",
      "type": "function"
    },
    {
      "inputs": [],
      "name": "isV28OrHigher",
      "outputs": [
        {
          "internalType": "bool",
          "name": "",
          "type": "bool"
        }
      ],
      "stateMutability": "pure",
      "type": "function"
    },
    {
      "inputs": [
        {
          "internalType": "uint256",
          "name": "_amount",
          "type": "uint256"
        }
      ],
      "name": "liquidate",
      "outputs": [
        {
          "internalType": "uint256[]",
          "name": "",
          "type": "uint256[]"
        }
      ],
      "stateMutability": "nonpayable",
      "type": "function"
    },
    {
      "inputs": [],
      "name": "maxConversionFee",
      "outputs": [
        {
          "internalType": "uint32",
          "name": "",
          "type": "uint32"
        }
      ],
      "stateMutability": "view",
      "type": "function"
    },
    {
      "inputs": [],
      "name": "newOwner",
      "outputs": [
        {
          "internalType": "address",
          "name": "",
          "type": "address"
        }
      ],
      "stateMutability": "view",
      "type": "function"
    },
    {
      "inputs": [],
      "name": "onUpgradeComplete",
      "outputs": [],
      "stateMutability": "nonpayable",
      "type": "function"
    },
    {
      "inputs": [],
      "name": "onlyOwnerCanUpdateRegistry",
      "outputs": [
        {
          "internalType": "bool",
          "name": "",
          "type": "bool"
        }
      ],
      "stateMutability": "view",
      "type": "function"
    },
    {
      "inputs": [],
      "name": "owner",
      "outputs": [
        {
          "internalType": "address",
          "name": "",
          "type": "address"
        }
      ],
      "stateMutability": "view",
      "type": "function"
    },
    {
      "inputs": [],
      "name": "prevAverageRate",
      "outputs": [
        {
          "internalType": "uint256",
          "name": "n",
          "type": "uint256"
        },
        {
          "internalType": "uint256",
          "name": "d",
          "type": "uint256"
        }
      ],
      "stateMutability": "view",
      "type": "function"
    },
    {
      "inputs": [],
      "name": "prevAverageRateUpdateTime",
      "outputs": [
        {
          "internalType": "uint256",
          "name": "",
          "type": "uint256"
        }
      ],
      "stateMutability": "view",
      "type": "function"
    },
    {
      "inputs": [],
      "name": "prevRegistry",
      "outputs": [
        {
          "internalType": "contract IContractRegistry",
          "name": "",
          "type": "address"
        }
      ],
      "stateMutability": "view",
      "type": "function"
    },
    {
      "inputs": [
        {
          "internalType": "contract IReserveToken",
          "name": "_token",
          "type": "address"
        }
      ],
      "name": "recentAverageRate",
      "outputs": [
        {
          "internalType": "uint256",
          "name": "",
          "type": "uint256"
        },
        {
          "internalType": "uint256",
          "name": "",
          "type": "uint256"
        }
      ],
      "stateMutability": "view",
      "type": "function"
    },
    {
      "inputs": [],
      "name": "registry",
      "outputs": [
        {
          "internalType": "contract IContractRegistry",
          "name": "",
          "type": "address"
        }
      ],
      "stateMutability": "view",
      "type": "function"
    },
    {
      "inputs": [
        {
          "internalType": "uint256",
          "name": "_amount",
          "type": "uint256"
        },
        {
          "internalType": "contract IReserveToken[]",
          "name": "_reserveTokens",
          "type": "address[]"
        },
        {
          "internalType": "uint256[]",
          "name": "_reserveMinReturnAmounts",
          "type": "uint256[]"
        }
      ],
      "name": "removeLiquidity",
      "outputs": [
        {
          "internalType": "uint256[]",
          "name": "",
          "type": "uint256[]"
        }
      ],
      "stateMutability": "nonpayable",
      "type": "function"
    },
    {
      "inputs": [
        {
          "internalType": "uint256",
          "name": "_amount",
          "type": "uint256"
        },
        {
          "internalType": "contract IReserveToken[]",
          "name": "_reserveTokens",
          "type": "address[]"
        }
      ],
      "name": "removeLiquidityReturn",
      "outputs": [
        {
          "internalType": "uint256[]",
          "name": "",
          "type": "uint256[]"
        }
      ],
      "stateMutability": "view",
      "type": "function"
    },
    {
      "inputs": [
        {
          "internalType": "uint256",
          "name": "",
          "type": "uint256"
        }
      ],
      "name": "reserveAmountsRemoved",
      "outputs": [
        {
          "internalType": "uint256",
          "name": "",
          "type": "uint256"
        }
      ],
      "stateMutability": "view",
      "type": "function"
    },
    {
      "inputs": [
        {
          "internalType": "contract IReserveToken",
          "name": "_reserveToken",
          "type": "address"
        }
      ],
      "name": "reserveBalance",
      "outputs": [
        {
          "internalType": "uint256",
          "name": "",
          "type": "uint256"
        }
      ],
      "stateMutability": "view",
      "type": "function"
    },
    {
      "inputs": [],
      "name": "reserveRatio",
      "outputs": [
        {
          "internalType": "uint32",
          "name": "",
          "type": "uint32"
        }
      ],
      "stateMutability": "view",
      "type": "function"
    },
    {
      "inputs": [],
      "name": "reserveTokenCount",
      "outputs": [
        {
          "internalType": "uint16",
          "name": "",
          "type": "uint16"
        }
      ],
      "stateMutability": "view",
      "type": "function"
    },
    {
      "inputs": [
        {
          "internalType": "uint256",
          "name": "",
          "type": "uint256"
        }
      ],
      "name": "reserveTokens",
      "outputs": [
        {
          "internalType": "contract IReserveToken",
          "name": "",
          "type": "address"
        }
      ],
      "stateMutability": "view",
      "type": "function"
    },
    {
      "inputs": [
        {
          "internalType": "contract IReserveToken",
          "name": "_reserveToken",
          "type": "address"
        }
      ],
      "name": "reserveWeight",
      "outputs": [
        {
          "internalType": "uint32",
          "name": "",
          "type": "uint32"
        }
      ],
      "stateMutability": "view",
      "type": "function"
    },
    {
      "inputs": [
        {
          "internalType": "contract IReserveToken",
          "name": "",
          "type": "address"
        }
      ],
      "name": "reserves",
      "outputs": [
        {
          "internalType": "uint256",
          "name": "balance",
          "type": "uint256"
        },
        {
          "internalType": "uint32",
          "name": "weight",
          "type": "uint32"
        },
        {
          "internalType": "bool",
          "name": "deprecated1",
          "type": "bool"
        },
        {
          "internalType": "bool",
          "name": "deprecated2",
          "type": "bool"
        },
        {
          "internalType": "bool",
          "name": "isSet",
          "type": "bool"
        }
      ],
      "stateMutability": "view",
      "type": "function"
    },
    {
      "inputs": [],
      "name": "restoreRegistry",
      "outputs": [],
      "stateMutability": "nonpayable",
      "type": "function"
    },
    {
      "inputs": [
        {
          "internalType": "bool",
          "name": "_onlyOwnerCanUpdateRegistry",
          "type": "bool"
        }
      ],
      "name": "restrictRegistryUpdate",
      "outputs": [],
      "stateMutability": "nonpayable",
      "type": "function"
    },
    {
      "inputs": [
        {
          "internalType": "uint32",
          "name": "_conversionFee",
          "type": "uint32"
        }
      ],
      "name": "setConversionFee",
      "outputs": [],
      "stateMutability": "nonpayable",
      "type": "function"
    },
    {
      "inputs": [
        {
          "internalType": "contract IWhitelist",
          "name": "_whitelist",
          "type": "address"
        }
      ],
      "name": "setConversionWhitelist",
      "outputs": [],
      "stateMutability": "nonpayable",
      "type": "function"
    },
    {
      "inputs": [
        {
          "internalType": "uint256",
          "name": "_currentTime",
          "type": "uint256"
        }
      ],
      "name": "setTime",
      "outputs": [],
      "stateMutability": "nonpayable",
      "type": "function"
    },
    {
      "inputs": [
        {
          "internalType": "contract IReserveToken",
          "name": "_sourceToken",
          "type": "address"
        },
        {
          "internalType": "contract IReserveToken",
          "name": "_targetToken",
          "type": "address"
        },
        {
          "internalType": "uint256",
          "name": "_amount",
          "type": "uint256"
        }
      ],
      "name": "targetAmountAndFee",
      "outputs": [
        {
          "internalType": "uint256",
          "name": "",
          "type": "uint256"
        },
        {
          "internalType": "uint256",
          "name": "",
          "type": "uint256"
        }
      ],
      "stateMutability": "view",
      "type": "function"
    },
    {
      "inputs": [],
      "name": "token",
      "outputs": [
        {
          "internalType": "contract IConverterAnchor",
          "name": "",
          "type": "address"
        }
      ],
      "stateMutability": "view",
      "type": "function"
    },
    {
      "inputs": [
        {
          "internalType": "address",
          "name": "_newOwner",
          "type": "address"
        }
      ],
      "name": "transferAnchorOwnership",
      "outputs": [],
      "stateMutability": "nonpayable",
      "type": "function"
    },
    {
      "inputs": [
        {
          "internalType": "address",
          "name": "_newOwner",
          "type": "address"
        }
      ],
      "name": "transferOwnership",
      "outputs": [],
      "stateMutability": "nonpayable",
      "type": "function"
    },
    {
      "inputs": [
        {
          "internalType": "address",
          "name": "_newConverter",
          "type": "address"
        }
      ],
      "name": "transferReservesOnUpgrade",
      "outputs": [],
      "stateMutability": "nonpayable",
      "type": "function"
    },
    {
      "inputs": [
        {
          "internalType": "address",
          "name": "_newOwner",
          "type": "address"
        }
      ],
      "name": "transferTokenOwnership",
      "outputs": [],
      "stateMutability": "nonpayable",
      "type": "function"
    },
    {
      "inputs": [],
      "name": "updateRegistry",
      "outputs": [],
      "stateMutability": "nonpayable",
      "type": "function"
    },
    {
      "inputs": [],
      "name": "upgrade",
      "outputs": [],
      "stateMutability": "nonpayable",
      "type": "function"
    },
    {
      "inputs": [],
      "name": "version",
      "outputs": [
        {
          "internalType": "uint16",
          "name": "",
          "type": "uint16"
        }
      ],
      "stateMutability": "view",
      "type": "function"
    },
    {
      "stateMutability": "payable",
      "type": "receive"
    },
    {
      "inputs": [
        {
          "internalType": "uint256",
          "name": "_amount",
          "type": "uint256"
        },
        {
          "internalType": "contract IReserveToken[]",
          "name": "_reserveTokens",
          "type": "address[]"
        },
        {
          "internalType": "uint256[]",
          "name": "_reserveMinReturnAmounts",
          "type": "uint256[]"
        }
      ],
      "name": "removeLiquidityTest",
      "outputs": [],
      "stateMutability": "nonpayable",
      "type": "function"
    }
  ],
  "bytecode": "0x608060405260016004556000600960006101000a81548163ffffffff021916908363ffffffff1602179055506000600960046101000a81548163ffffffff021916908363ffffffff1602179055506000600960086101000a81548163ffffffff021916908363ffffffff16021790555060006009600c6101000a81548160ff0219169083151502179055506001600d553480156200009c57600080fd5b50604051620081783803806200817883398181016040526060811015620000c257600080fd5b8101908080519060200190929190805190602001909291908051906020019092919050505082828282828282828281336000806101000a81548173ffffffffffffffffffffffffffffffffffffffff021916908373ffffffffffffffffffffffffffffffffffffffff1602179055508062000143816200026160201b60201c565b81600260006101000a81548173ffffffffffffffffffffffffffffffffffffffff021916908373ffffffffffffffffffffffffffffffffffffffff16021790555081600360006101000a81548173ffffffffffffffffffffffffffffffffffffffff021916908373ffffffffffffffffffffffffffffffffffffffff160217905550505082620001d9816200026160201b60201c565b81620001eb816200030860201b60201c565b84600560006101000a81548173ffffffffffffffffffffffffffffffffffffffff021916908373ffffffffffffffffffffffffffffffffffffffff16021790555082600960046101000a81548163ffffffff021916908363ffffffff160217905550505050505050505050505050505062000391565b600073ffffffffffffffffffffffffffffffffffffffff168173ffffffffffffffffffffffffffffffffffffffff16141562000305576040517f08c379a00000000000000000000000000000000000000000000000000000000081526004018080602001828103825260138152602001807f4552525f494e56414c49445f414444524553530000000000000000000000000081525060200191505060405180910390fd5b50565b620f424063ffffffff168163ffffffff1611156200038e576040517f08c379a000000000000000000000000000000000000000000000000000000000815260040180806020018281038252601a8152602001807f4552525f494e56414c49445f434f4e56455253494f4e5f46454500000000000081525060200191505060405180910390fd5b50565b617dd780620003a16000396000f3fe60806040526004361061037a5760003560e01c806371f52bf3116101d1578063d031370b11610102578063d8959512116100a0578063e8dc12ff1161006f578063e8dc12ff1461188a578063ecbca55d1461194c578063f2fde38b1461198d578063fc0c546a146119de576103a0565b8063d89595121461162b578063dc3d535314611690578063dc8de379146117f3578063e2c5246814611858576103a0565b8063d3fb73b4116100dc578063d3fb73b414611505578063d4ee1d9014611546578063d55ec69714611587578063d66bd5241461159e576103a0565b8063d031370b14611448578063d18e81b3146114ad578063d260529c146114d8576103a0565b80639b99a8e21161016f578063b4a176d311610149578063b4a176d314611397578063c45d3d92146113ae578063ca1d209d146113ef578063cdc91c6914611431576103a0565b80639b99a8e21461111a578063af94b8d814611149578063b127c0a5146111df576103a0565b80637d8916bd116101ab5780637d8916bd14610e1057806380d9416d14610f7a5780638da5cb5b146110a857806394c275ad146110e9576103a0565b806371f52bf314610d8957806379ba509714610db85780637b10399914610dcf576103a0565b806338a5e016116102ab5780634bfcd2c611610249578063579cd3ca11610223578063579cd3ca14610c6557806361cd756e14610c9657806367b6d57c14610cd75780636a49d2c414610d28576103a0565b80634bfcd2c614610bd057806350dc78f914610c1f57806354fd4d5014610c36576103a0565b80633e8ff43f116102855780633e8ff43f14610aa9578063415f124014610ad857806349d10b6414610b685780634af80f0e14610b7f576103a0565b806338a5e01614610a2a57806338e9f27a14610a415780633beb26c414610a6e576103a0565b80631d4db7911161031857806321e6b53d116102f257806321e6b53d1461081257806322f3e2d4146108635780632e9abc7a146108905780632fe8a6ad146109fd576103a0565b80631d4db791146106e55780631e1401f8146107105780631f0181bc146107a6576103a0565b80630e53aae9116103545780630e53aae91461046457806315458837146104f157806319b64015146106155780631cfab2901461067a576103a0565b8063024c7ec7146103a5578063038d09e1146103e25780630c7d5cd814610433576103a0565b366103a05773eeeeeeeeeeeeeeeeeeeeeeeeeeeeeeeeeeeeeeee61039d81611a1f565b50005b600080fd5b3480156103b157600080fd5b506103e0600480360360208110156103c857600080fd5b81019080803515159060200190929190505050611ae4565b005b3480156103ee57600080fd5b506104316004803603602081101561040557600080fd5b81019080803573ffffffffffffffffffffffffffffffffffffffff169060200190929190505050611b09565b005b34801561043f57600080fd5b50610448611c12565b604051808263ffffffff16815260200191505060405180910390f35b34801561047057600080fd5b506104b36004803603602081101561048757600080fd5b81019080803573ffffffffffffffffffffffffffffffffffffffff169060200190929190505050611c28565b604051808681526020018563ffffffff1681526020018415158152602001831515815260200182151581526020019550505050505060405180910390f35b3480156104fd57600080fd5b506105be6004803603604081101561051457600080fd5b81019080803590602001909291908035906020019064010000000081111561053b57600080fd5b82018360208201111561054d57600080fd5b8035906020019184602083028401116401000000008311171561056f57600080fd5b919080806020026020016040519081016040528093929190818152602001838360200280828437600081840152601f19601f820116905080830192505050505050509192919290505050611d2b565b6040518080602001828103825283818151815260200191508051906020019060200280838360005b838110156106015780820151818401526020810190506105e6565b505050509050019250505060405180910390f35b34801561062157600080fd5b5061064e6004803603602081101561063857600080fd5b8101908080359060200190929190505050611e17565b604051808273ffffffffffffffffffffffffffffffffffffffff16815260200191505060405180910390f35b34801561068657600080fd5b506106c96004803603602081101561069d57600080fd5b81019080803573ffffffffffffffffffffffffffffffffffffffff169060200190929190505050611e58565b604051808263ffffffff16815260200191505060405180910390f35b3480156106f157600080fd5b506106fa611ebf565b6040518082815260200191505060405180910390f35b34801561071c57600080fd5b506107896004803603606081101561073357600080fd5b81019080803573ffffffffffffffffffffffffffffffffffffffff169060200190929190803573ffffffffffffffffffffffffffffffffffffffff16906020019092919080359060200190929190505050611ec5565b604051808381526020018281526020019250505060405180910390f35b3480156107b257600080fd5b506107f5600480360360208110156107c957600080fd5b81019080803573ffffffffffffffffffffffffffffffffffffffff169060200190929190505050611edf565b604051808381526020018281526020019250505060405180910390f35b34801561081e57600080fd5b506108616004803603602081101561083557600080fd5b81019080803573ffffffffffffffffffffffffffffffffffffffff169060200190929190505050612016565b005b34801561086f57600080fd5b5061087861202a565b60405180821515815260200191505060405180910390f35b34801561089c57600080fd5b506109e7600480360360408110156108b357600080fd5b81019080803590602001906401000000008111156108d057600080fd5b8201836020820111156108e257600080fd5b8035906020019184602083028401116401000000008311171561090457600080fd5b919080806020026020016040519081016040528093929190818152602001838360200280828437600081840152601f19601f8201169050808301925050505050505091929192908035906020019064010000000081111561096457600080fd5b82018360208201111561097657600080fd5b8035906020019184602083028401116401000000008311171561099857600080fd5b919080806020026020016040519081016040528093929190818152602001838360200280828437600081840152601f19601f820116905080830192505050505050509192919290505050612102565b6040518082815260200191505060405180910390f35b348015610a0957600080fd5b50610a126121ed565b60405180821515815260200191505060405180910390f35b348015610a3657600080fd5b50610a3f612200565b005b348015610a4d57600080fd5b50610a56612212565b60405180821515815260200191505060405180910390f35b348015610a7a57600080fd5b50610aa760048036036020811015610a9157600080fd5b8101908080359060200190929190505050612225565b005b348015610ab557600080fd5b50610abe61222f565b604051808261ffff16815260200191505060405180910390f35b348015610ae457600080fd5b50610b1160048036036020811015610afb57600080fd5b8101908080359060200190929190505050612238565b6040518080602001828103825283818151815260200191508051906020019060200280838360005b83811015610b54578082015181840152602081019050610b39565b505050509050019250505060405180910390f35b348015610b7457600080fd5b50610b7d612539565b005b348015610b8b57600080fd5b50610bce60048036036020811015610ba257600080fd5b81019080803573ffffffffffffffffffffffffffffffffffffffff169060200190929190505050612931565b005b348015610bdc57600080fd5b50610c0960048036036020811015610bf357600080fd5b810190808035906020019092919050505061297d565b6040518082815260200191505060405180910390f35b348015610c2b57600080fd5b50610c3461299e565b005b348015610c4257600080fd5b50610c4b6129eb565b604051808261ffff16815260200191505060405180910390f35b348015610c7157600080fd5b50610c7a6129f0565b604051808263ffffffff16815260200191505060405180910390f35b348015610ca257600080fd5b50610cab612a06565b604051808273ffffffffffffffffffffffffffffffffffffffff16815260200191505060405180910390f35b348015610ce357600080fd5b50610d2660048036036020811015610cfa57600080fd5b81019080803573ffffffffffffffffffffffffffffffffffffffff169060200190929190505050612a2c565b005b348015610d3457600080fd5b50610d8760048036036040811015610d4b57600080fd5b81019080803573ffffffffffffffffffffffffffffffffffffffff169060200190929190803563ffffffff169060200190929190505050612b05565b005b348015610d9557600080fd5b50610d9e612ca5565b604051808261ffff16815260200191505060405180910390f35b348015610dc457600080fd5b50610dcd612cb4565b005b348015610ddb57600080fd5b50610de4612eb9565b604051808273ffffffffffffffffffffffffffffffffffffffff16815260200191505060405180910390f35b610f6460048036036060811015610e2657600080fd5b8101908080359060200190640100000000811115610e4357600080fd5b820183602082011115610e5557600080fd5b80359060200191846020830284011164010000000083111715610e7757600080fd5b919080806020026020016040519081016040528093929190818152602001838360200280828437600081840152601f19601f82011690508083019250505050505050919291929080359060200190640100000000811115610ed757600080fd5b820183602082011115610ee957600080fd5b80359060200191846020830284011164010000000083111715610f0b57600080fd5b919080806020026020016040519081016040528093929190818152602001838360200280828437600081840152601f19601f82011690508083019250505050505050919291929080359060200190929190505050612edf565b6040518082815260200191505060405180910390f35b348015610f8657600080fd5b5061105160048036036060811015610f9d57600080fd5b8101908080359060200190640100000000811115610fba57600080fd5b820183602082011115610fcc57600080fd5b80359060200191846020830284011164010000000083111715610fee57600080fd5b919080806020026020016040519081016040528093929190818152602001838360200280828437600081840152601f19601f82011690508083019250505050505050919291929080359060200190929190803590602001909291905050506132a9565b6040518080602001828103825283818151815260200191508051906020019060200280838360005b83811015611094578082015181840152602081019050611079565b505050509050019250505060405180910390f35b3480156110b457600080fd5b506110bd613630565b604051808273ffffffffffffffffffffffffffffffffffffffff16815260200191505060405180910390f35b3480156110f557600080fd5b506110fe613654565b604051808263ffffffff16815260200191505060405180910390f35b34801561112657600080fd5b5061112f61366a565b604051808261ffff16815260200191505060405180910390f35b34801561115557600080fd5b506111c26004803603606081101561116c57600080fd5b81019080803573ffffffffffffffffffffffffffffffffffffffff169060200190929190803573ffffffffffffffffffffffffffffffffffffffff16906020019092919080359060200190929190505050613677565b604051808381526020018281526020019250505060405180910390f35b3480156111eb57600080fd5b506113406004803603606081101561120257600080fd5b81019080803590602001909291908035906020019064010000000081111561122957600080fd5b82018360208201111561123b57600080fd5b8035906020019184602083028401116401000000008311171561125d57600080fd5b919080806020026020016040519081016040528093929190818152602001838360200280828437600081840152601f19601f820116905080830192505050505050509192919290803590602001906401000000008111156112bd57600080fd5b8201836020820111156112cf57600080fd5b803590602001918460208302840111640100000000831117156112f157600080fd5b919080806020026020016040519081016040528093929190818152602001838360200280828437600081840152601f19601f8201169050808301925050505050505091929192905050506138f1565b6040518080602001828103825283818151815260200191508051906020019060200280838360005b83811015611383578082015181840152602081019050611368565b505050509050019250505060405180910390f35b3480156113a357600080fd5b506113ac613a86565b005b3480156113ba57600080fd5b506113c3613af3565b604051808273ffffffffffffffffffffffffffffffffffffffff16815260200191505060405180910390f35b61141b6004803603602081101561140557600080fd5b8101908080359060200190929190505050613b19565b6040518082815260200191505060405180910390f35b34801561143d57600080fd5b5061144661415e565b005b34801561145457600080fd5b506114816004803603602081101561146b57600080fd5b81019080803590602001909291905050506141e5565b604051808273ffffffffffffffffffffffffffffffffffffffff16815260200191505060405180910390f35b3480156114b957600080fd5b506114c2614221565b6040518082815260200191505060405180910390f35b3480156114e457600080fd5b506114ed614227565b60405180821515815260200191505060405180910390f35b34801561151157600080fd5b5061151a614230565b604051808273ffffffffffffffffffffffffffffffffffffffff16815260200191505060405180910390f35b34801561155257600080fd5b5061155b614256565b604051808273ffffffffffffffffffffffffffffffffffffffff16815260200191505060405180910390f35b34801561159357600080fd5b5061159c61427c565b005b3480156115aa57600080fd5b506115ed600480360360208110156115c157600080fd5b81019080803573ffffffffffffffffffffffffffffffffffffffff1690602001909291905050506143aa565b604051808681526020018563ffffffff1681526020018415158152602001831515815260200182151581526020019550505050505060405180910390f35b34801561163757600080fd5b5061167a6004803603602081101561164e57600080fd5b81019080803573ffffffffffffffffffffffffffffffffffffffff169060200190929190505050614417565b6040518082815260200191505060405180910390f35b34801561169c57600080fd5b506117f1600480360360608110156116b357600080fd5b8101908080359060200190929190803590602001906401000000008111156116da57600080fd5b8201836020820111156116ec57600080fd5b8035906020019184602083028401116401000000008311171561170e57600080fd5b919080806020026020016040519081016040528093929190818152602001838360200280828437600081840152601f19601f8201169050808301925050505050505091929192908035906020019064010000000081111561176e57600080fd5b82018360208201111561178057600080fd5b803590602001918460208302840111640100000000831117156117a257600080fd5b919080806020026020016040519081016040528093929190818152602001838360200280828437600081840152601f19601f820116905080830192505050505050509192919290505050614429565b005b3480156117ff57600080fd5b506118426004803603602081101561181657600080fd5b81019080803573ffffffffffffffffffffffffffffffffffffffff16906020019092919050505061444f565b6040518082815260200191505060405180910390f35b34801561186457600080fd5b5061186d6144a6565b604051808381526020018281526020019250505060405180910390f35b611936600480360360a08110156118a057600080fd5b81019080803573ffffffffffffffffffffffffffffffffffffffff169060200190929190803573ffffffffffffffffffffffffffffffffffffffff16906020019092919080359060200190929190803573ffffffffffffffffffffffffffffffffffffffff169060200190929190803573ffffffffffffffffffffffffffffffffffffffff1690602001909291905050506144b8565b6040518082815260200191505060405180910390f35b34801561195857600080fd5b5061198b6004803603602081101561196f57600080fd5b81019080803563ffffffff169060200190929190505050614812565b005b34801561199957600080fd5b506119dc600480360360208110156119b057600080fd5b81019080803573ffffffffffffffffffffffffffffffffffffffff16906020019092919050505061492f565b005b3480156119ea57600080fd5b506119f3614a3d565b604051808273ffffffffffffffffffffffffffffffffffffffff16815260200191505060405180910390f35b600860008273ffffffffffffffffffffffffffffffffffffffff1673ffffffffffffffffffffffffffffffffffffffff16815260200190815260200160002060010160069054906101000a900460ff16611ae1576040517f08c379a00000000000000000000000000000000000000000000000000000000081526004018080602001828103825260138152602001807f4552525f494e56414c49445f524553455256450000000000000000000000000081525060200191505060405180910390fd5b50565b611aec614a67565b80600360146101000a81548160ff02191690831515021790555050565b611b11614b2a565b6002600481905550611b21614a67565b7f42616e636f72436f6e7665727465725570677261646572000000000000000000611b4b81614ba4565b6000600780549050905060005b81811015611c0457600060078281548110611b6f57fe5b9060005260206000200160009054906101000a900473ffffffffffffffffffffffffffffffffffffffff169050611bef85611bc9308473ffffffffffffffffffffffffffffffffffffffff16614c5090919063ffffffff16565b8373ffffffffffffffffffffffffffffffffffffffff16614d329092919063ffffffff16565b611bf881614dd4565b50806001019050611b58565b505050600160048190555050565b600960009054906101000a900463ffffffff1681565b6000806000806000611c38617c71565b600860008873ffffffffffffffffffffffffffffffffffffffff1673ffffffffffffffffffffffffffffffffffffffff1681526020019081526020016000206040518060a0016040529081600082015481526020016001820160009054906101000a900463ffffffff1663ffffffff1663ffffffff1681526020016001820160049054906101000a900460ff161515151581526020016001820160059054906101000a900460ff161515151581526020016001820160069054906101000a900460ff1615151515815250509050806000015181602001516000808460800151955095509550955095505091939590929450565b60606000600560009054906101000a900473ffffffffffffffffffffffffffffffffffffffff1673ffffffffffffffffffffffffffffffffffffffff166318160ddd6040518163ffffffff1660e01b815260040160206040518083038186803b158015611d9757600080fd5b505afa158015611dab573d6000803e3d6000fd5b505050506040513d6020811015611dc157600080fd5b810190808051906020019092919050505090506000611dff7f42616e636f72466f726d756c6100000000000000000000000000000000000000614e51565b9050611e0d85858484614f08565b9250505092915050565b600060078281548110611e2657fe5b9060005260206000200160009054906101000a900473ffffffffffffffffffffffffffffffffffffffff169050919050565b600081611e6481611a1f565b600860008473ffffffffffffffffffffffffffffffffffffffff1673ffffffffffffffffffffffffffffffffffffffff16815260200190815260200160002060010160009054906101000a900463ffffffff16915050919050565b600c5481565b600080611ed3858585613677565b91509150935093915050565b60008082611eec81611a1f565b6009600c9054906101000a900460ff16611f6e576040517f08c379a00000000000000000000000000000000000000000000000000000000081526004018080602001828103825260158152602001807f4552525f4e4f4e5f5354414e444152445f504f4f4c000000000000000000000081525060200191505060405180910390fd5b611f76617cac565b611f7e6150a4565b90506007600081548110611f8e57fe5b9060005260206000200160009054906101000a900473ffffffffffffffffffffffffffffffffffffffff1673ffffffffffffffffffffffffffffffffffffffff168573ffffffffffffffffffffffffffffffffffffffff16141561200057806000015181602001519350935050612010565b8060200151816000015193509350505b50915091565b61201e614a67565b61202781612a2c565b50565b60003073ffffffffffffffffffffffffffffffffffffffff16600560009054906101000a900473ffffffffffffffffffffffffffffffffffffffff1673ffffffffffffffffffffffffffffffffffffffff16638da5cb5b6040518163ffffffff1660e01b815260040160206040518083038186803b1580156120ab57600080fd5b505afa1580156120bf573d6000803e3d6000fd5b505050506040513d60208110156120d557600080fd5b810190808051906020019092919050505073ffffffffffffffffffffffffffffffffffffffff1614905090565b600080600560009054906101000a900473ffffffffffffffffffffffffffffffffffffffff1673ffffffffffffffffffffffffffffffffffffffff166318160ddd6040518163ffffffff1660e01b815260040160206040518083038186803b15801561216d57600080fd5b505afa158015612181573d6000803e3d6000fd5b505050506040513d602081101561219757600080fd5b8101908080519060200190929190505050905060006121d57f42616e636f72466f726d756c6100000000000000000000000000000000000000614e51565b90506121e381838787615363565b9250505092915050565b600360149054906101000a900460ff1681565b612208614a67565b61221061415e565b565b6009600c9054906101000a900460ff1681565b80600d8190555050565b60006001905090565b6060612242614b2a565b6002600481905550600082116122c0576040517f08c379a000000000000000000000000000000000000000000000000000000000815260040180806020018281038252600f8152602001807f4552525f5a45524f5f414d4f554e54000000000000000000000000000000000081525060200191505060405180910390fd5b6000600560009054906101000a900473ffffffffffffffffffffffffffffffffffffffff1673ffffffffffffffffffffffffffffffffffffffff166318160ddd6040518163ffffffff1660e01b815260040160206040518083038186803b15801561232a57600080fd5b505afa15801561233e573d6000803e3d6000fd5b505050506040513d602081101561235457600080fd5b81019080805190602001909291905050509050600560009054906101000a900473ffffffffffffffffffffffffffffffffffffffff1673ffffffffffffffffffffffffffffffffffffffff1663a24835d133856040518363ffffffff1660e01b8152600401808373ffffffffffffffffffffffffffffffffffffffff16815260200182815260200192505050600060405180830381600087803b1580156123fa57600080fd5b505af115801561240e573d6000803e3d6000fd5b50505050606060078054905067ffffffffffffffff8111801561243057600080fd5b5060405190808252806020026020018201604052801561245f5781602001602082028036833780820191505090505b50905060005b815181101561249557600182828151811061247c57fe5b6020026020010181815250508080600101915050612465565b50612528600780548060200260200160405190810160405280929190818152602001828054801561251b57602002820191906000526020600020905b8160009054906101000a900473ffffffffffffffffffffffffffffffffffffffff1673ffffffffffffffffffffffffffffffffffffffff16815260200190600101908083116124d1575b5050505050828487615572565b925050506001600481905550919050565b60008054906101000a900473ffffffffffffffffffffffffffffffffffffffff1673ffffffffffffffffffffffffffffffffffffffff163373ffffffffffffffffffffffffffffffffffffffff1614806125a05750600360149054906101000a900460ff16155b612612576040517f08c379a00000000000000000000000000000000000000000000000000000000081526004018080602001828103825260118152602001807f4552525f4143434553535f44454e49454400000000000000000000000000000081525060200191505060405180910390fd5b600061263d7f436f6e7472616374526567697374727900000000000000000000000000000000614e51565b9050600260009054906101000a900473ffffffffffffffffffffffffffffffffffffffff1673ffffffffffffffffffffffffffffffffffffffff168173ffffffffffffffffffffffffffffffffffffffff16141580156126ca5750600073ffffffffffffffffffffffffffffffffffffffff168173ffffffffffffffffffffffffffffffffffffffff1614155b61273c576040517f08c379a00000000000000000000000000000000000000000000000000000000081526004018080602001828103825260148152602001807f4552525f494e56414c49445f524547495354525900000000000000000000000081525060200191505060405180910390fd5b600073ffffffffffffffffffffffffffffffffffffffff168173ffffffffffffffffffffffffffffffffffffffff1663bb34534c7f436f6e74726163745265676973747279000000000000000000000000000000006040518263ffffffff1660e01b81526004018082815260200191505060206040518083038186803b1580156127c557600080fd5b505afa1580156127d9573d6000803e3d6000fd5b505050506040513d60208110156127ef57600080fd5b810190808051906020019092919050505073ffffffffffffffffffffffffffffffffffffffff16141561288a576040517f08c379a00000000000000000000000000000000000000000000000000000000081526004018080602001828103825260148152602001807f4552525f494e56414c49445f524547495354525900000000000000000000000081525060200191505060405180910390fd5b600260009054906101000a900473ffffffffffffffffffffffffffffffffffffffff16600360006101000a81548173ffffffffffffffffffffffffffffffffffffffff021916908373ffffffffffffffffffffffffffffffffffffffff16021790555080600260006101000a81548173ffffffffffffffffffffffffffffffffffffffff021916908373ffffffffffffffffffffffffffffffffffffffff16021790555050565b612939614a67565b80600660006101000a81548173ffffffffffffffffffffffffffffffffffffffff021916908373ffffffffffffffffffffffffffffffffffffffff16021790555050565b600e818154811061298a57fe5b906000526020600020016000915090505481565b6129a6614b2a565b60026004819055506129b6614a67565b7f42616e636f72436f6e76657274657255706772616465720000000000000000006129e081614ba4565b506001600481905550565b602f81565b600960089054906101000a900463ffffffff1681565b600360009054906101000a900473ffffffffffffffffffffffffffffffffffffffff1681565b612a34614a67565b7f42616e636f72436f6e7665727465725570677261646572000000000000000000612a5e81614ba4565b600560009054906101000a900473ffffffffffffffffffffffffffffffffffffffff1673ffffffffffffffffffffffffffffffffffffffff1663f2fde38b836040518263ffffffff1660e01b8152600401808273ffffffffffffffffffffffffffffffffffffffff168152602001915050600060405180830381600087803b158015612ae957600080fd5b505af1158015612afd573d6000803e3d6000fd5b505050505050565b612b0d614a67565b612b178282615852565b6002600780549050148015612bd457506002620f424063ffffffff1681612b3a57fe5b0463ffffffff16600860006007600081548110612b5357fe5b9060005260206000200160009054906101000a900473ffffffffffffffffffffffffffffffffffffffff1673ffffffffffffffffffffffffffffffffffffffff1673ffffffffffffffffffffffffffffffffffffffff16815260200190815260200160002060010160009054906101000a900463ffffffff1663ffffffff16145b8015612c8857506002620f424063ffffffff1681612bee57fe5b0463ffffffff16600860006007600181548110612c0757fe5b9060005260206000200160009054906101000a900473ffffffffffffffffffffffffffffffffffffffff1673ffffffffffffffffffffffffffffffffffffffff1673ffffffffffffffffffffffffffffffffffffffff16815260200190815260200160002060010160009054906101000a900463ffffffff1663ffffffff16145b6009600c6101000a81548160ff0219169083151502179055505050565b6000612caf61366a565b905090565b600160009054906101000a900473ffffffffffffffffffffffffffffffffffffffff1673ffffffffffffffffffffffffffffffffffffffff163373ffffffffffffffffffffffffffffffffffffffff1614612d77576040517f08c379a00000000000000000000000000000000000000000000000000000000081526004018080602001828103825260118152602001807f4552525f4143434553535f44454e49454400000000000000000000000000000081525060200191505060405180910390fd5b600160009054906101000a900473ffffffffffffffffffffffffffffffffffffffff1673ffffffffffffffffffffffffffffffffffffffff1660008054906101000a900473ffffffffffffffffffffffffffffffffffffffff1673ffffffffffffffffffffffffffffffffffffffff167f343765429aea5a34b3ff6a3785a98a5abb2597aca87bfbb58632c173d585373a60405160405180910390a3600160009054906101000a900473ffffffffffffffffffffffffffffffffffffffff166000806101000a81548173ffffffffffffffffffffffffffffffffffffffff021916908373ffffffffffffffffffffffffffffffffffffffff1602179055506000600160006101000a81548173ffffffffffffffffffffffffffffffffffffffff021916908373ffffffffffffffffffffffffffffffffffffffff160217905550565b600260009054906101000a900473ffffffffffffffffffffffffffffffffffffffff1681565b6000612ee9614b2a565b6002600481905550612ef9615bfd565b612f04848484615c79565b60005b8451811015612fdd57612f42858281518110612f1f57fe5b602002602001015173ffffffffffffffffffffffffffffffffffffffff1661607a565b15612fd05734848281518110612f5457fe5b602002602001015114612fcf576040517f08c379a00000000000000000000000000000000000000000000000000000000081526004018080602001828103825260178152602001807f4552525f4554485f414d4f554e545f4d49534d4154434800000000000000000081525060200191505060405180910390fd5b5b8080600101915050612f07565b5060003411156130be576008600073eeeeeeeeeeeeeeeeeeeeeeeeeeeeeeeeeeeeeeee73ffffffffffffffffffffffffffffffffffffffff1673ffffffffffffffffffffffffffffffffffffffff16815260200190815260200160002060010160069054906101000a900460ff166130bd576040517f08c379a00000000000000000000000000000000000000000000000000000000081526004018080602001828103825260128152602001807f4552525f4e4f5f4554485f52455345525645000000000000000000000000000081525060200191505060405180910390fd5b5b6000600560009054906101000a900473ffffffffffffffffffffffffffffffffffffffff1673ffffffffffffffffffffffffffffffffffffffff166318160ddd6040518163ffffffff1660e01b815260040160206040518083038186803b15801561312857600080fd5b505afa15801561313c573d6000803e3d6000fd5b505050506040513d602081101561315257600080fd5b8101908080519060200190929190505050905060006131728686846160c6565b9050838110156131ea576040517f08c379a00000000000000000000000000000000000000000000000000000000081526004018080602001828103825260128152602001807f4552525f52455455524e5f544f4f5f4c4f57000000000000000000000000000081525060200191505060405180910390fd5b600560009054906101000a900473ffffffffffffffffffffffffffffffffffffffff1673ffffffffffffffffffffffffffffffffffffffff1663867904b433836040518363ffffffff1660e01b8152600401808373ffffffffffffffffffffffffffffffffffffffff16815260200182815260200192505050600060405180830381600087803b15801561327d57600080fd5b505af1158015613291573d6000803e3d6000fd5b50505050809250505060016004819055509392505050565b606080845167ffffffffffffffff811180156132c457600080fd5b506040519080825280602002602001820160405280156132f35781602001602082028036833780820191505090505b5090506000600560009054906101000a900473ffffffffffffffffffffffffffffffffffffffff1673ffffffffffffffffffffffffffffffffffffffff166318160ddd6040518163ffffffff1660e01b815260040160206040518083038186803b15801561336057600080fd5b505afa158015613374573d6000803e3d6000fd5b505050506040513d602081101561338a57600080fd5b8101908080519060200190929190505050905060006133c87f42616e636f72466f726d756c6100000000000000000000000000000000000000614e51565b905060008173ffffffffffffffffffffffffffffffffffffffff16632f55bdb584600860008c8c815181106133f957fe5b602002602001015173ffffffffffffffffffffffffffffffffffffffff1673ffffffffffffffffffffffffffffffffffffffff16815260200190815260200160002060000154600960009054906101000a900463ffffffff168a6040518563ffffffff1660e01b8152600401808581526020018481526020018363ffffffff16815260200182815260200194505050505060206040518083038186803b1580156134a257600080fd5b505afa1580156134b6573d6000803e3d6000fd5b505050506040513d60208110156134cc57600080fd5b8101908080519060200190929190505050905060005b8451811015613621578273ffffffffffffffffffffffffffffffffffffffff1663ebbb215885600860008d868151811061351857fe5b602002602001015173ffffffffffffffffffffffffffffffffffffffff1673ffffffffffffffffffffffffffffffffffffffff16815260200190815260200160002060000154600960009054906101000a900463ffffffff16866040518563ffffffff1660e01b8152600401808581526020018481526020018363ffffffff16815260200182815260200194505050505060206040518083038186803b1580156135c157600080fd5b505afa1580156135d5573d6000803e3d6000fd5b505050506040513d60208110156135eb57600080fd5b810190808051906020019092919050505085828151811061360857fe5b60200260200101818152505080806001019150506134e2565b50839450505050509392505050565b60008054906101000a900473ffffffffffffffffffffffffffffffffffffffff1681565b600960049054906101000a900463ffffffff1681565b6000600780549050905090565b600080613682615bfd565b8461368c81611a1f565b8461369681611a1f565b8573ffffffffffffffffffffffffffffffffffffffff168773ffffffffffffffffffffffffffffffffffffffff161415613738576040517f08c379a00000000000000000000000000000000000000000000000000000000081526004018080602001828103825260168152602001807f4552525f53414d455f534f555243455f5441524745540000000000000000000081525060200191505060405180910390fd5b60006137637f42616e636f72466f726d756c6100000000000000000000000000000000000000614e51565b73ffffffffffffffffffffffffffffffffffffffff166394491fab6137878a61444f565b600860008c73ffffffffffffffffffffffffffffffffffffffff1673ffffffffffffffffffffffffffffffffffffffff16815260200190815260200160002060010160009054906101000a900463ffffffff166137e38b61444f565b600860008d73ffffffffffffffffffffffffffffffffffffffff1673ffffffffffffffffffffffffffffffffffffffff16815260200190815260200160002060010160009054906101000a900463ffffffff168b6040518663ffffffff1660e01b8152600401808681526020018563ffffffff1681526020018481526020018363ffffffff1681526020018281526020019550505050505060206040518083038186803b15801561389357600080fd5b505afa1580156138a7573d6000803e3d6000fd5b505050506040513d60208110156138bd57600080fd5b8101908080519060200190929190505050905060006138db826160f6565b9050808203819550955050505050935093915050565b60606138fb614b2a565b600260048190555061390b615bfd565b613916838386615c79565b6000600560009054906101000a900473ffffffffffffffffffffffffffffffffffffffff1673ffffffffffffffffffffffffffffffffffffffff166318160ddd6040518163ffffffff1660e01b815260040160206040518083038186803b15801561398057600080fd5b505afa158015613994573d6000803e3d6000fd5b505050506040513d60208110156139aa57600080fd5b81019080805190602001909291905050509050600560009054906101000a900473ffffffffffffffffffffffffffffffffffffffff1673ffffffffffffffffffffffffffffffffffffffff1663a24835d133876040518363ffffffff1660e01b8152600401808373ffffffffffffffffffffffffffffffffffffffff16815260200182815260200192505050600060405180830381600087803b158015613a5057600080fd5b505af1158015613a64573d6000803e3d6000fd5b50505050613a7484848388615572565b91505060016004819055509392505050565b613a8e614a67565b600360009054906101000a900473ffffffffffffffffffffffffffffffffffffffff16600260006101000a81548173ffffffffffffffffffffffffffffffffffffffff021916908373ffffffffffffffffffffffffffffffffffffffff160217905550565b600660009054906101000a900473ffffffffffffffffffffffffffffffffffffffff1681565b6000613b23614b2a565b6002600481905550613b3361613c565b613b9c346008600073eeeeeeeeeeeeeeeeeeeeeeeeeeeeeeeeeeeeeeee73ffffffffffffffffffffffffffffffffffffffff1673ffffffffffffffffffffffffffffffffffffffff168152602001908152602001600020600001546161a290919063ffffffff16565b6008600073eeeeeeeeeeeeeeeeeeeeeeeeeeeeeeeeeeeeeeee73ffffffffffffffffffffffffffffffffffffffff1673ffffffffffffffffffffffffffffffffffffffff168152602001908152602001600020600001819055506000600560009054906101000a900473ffffffffffffffffffffffffffffffffffffffff1673ffffffffffffffffffffffffffffffffffffffff166318160ddd6040518163ffffffff1660e01b815260040160206040518083038186803b158015613c6057600080fd5b505afa158015613c74573d6000803e3d6000fd5b505050506040513d6020811015613c8a57600080fd5b810190808051906020019092919050505090506000613cc87f42616e636f72466f726d756c6100000000000000000000000000000000000000614e51565b90506000600780549050905060005b8181101561409f57600060078281548110613cee57fe5b9060005260206000200160009054906101000a900473ffffffffffffffffffffffffffffffffffffffff1690506000600860008373ffffffffffffffffffffffffffffffffffffffff1673ffffffffffffffffffffffffffffffffffffffff16815260200190815260200160002060000154905060008573ffffffffffffffffffffffffffffffffffffffff1663ebbb21588884600960009054906101000a900463ffffffff168d6040518563ffffffff1660e01b8152600401808581526020018481526020018363ffffffff16815260200182815260200194505050505060206040518083038186803b158015613de557600080fd5b505afa158015613df9573d6000803e3d6000fd5b505050506040513d6020811015613e0f57600080fd5b81019080805190602001909291905050509050613e418373ffffffffffffffffffffffffffffffffffffffff1661607a565b15613f175780341115613e9c573373ffffffffffffffffffffffffffffffffffffffff166108fc8234039081150290604051600060405180830381858888f19350505050158015613e96573d6000803e3d6000fd5b50613f12565b803414613f11576040517f08c379a00000000000000000000000000000000000000000000000000000000081526004018080602001828103825260158152602001807f4552525f494e56414c49445f4554485f56414c5545000000000000000000000081525060200191505060405180910390fd5b5b613f45565b613f443330838673ffffffffffffffffffffffffffffffffffffffff16616225909392919063ffffffff16565b5b6000613f5a828461627f90919063ffffffff16565b905080600860008673ffffffffffffffffffffffffffffffffffffffff1673ffffffffffffffffffffffffffffffffffffffff168152602001908152602001600020600001819055506000613fb88b8a61627f90919063ffffffff16565b90508473ffffffffffffffffffffffffffffffffffffffff163373ffffffffffffffffffffffffffffffffffffffff167f4a1a2a6176e9646d9e3157f7c2ab3c499f18337c0b0828cfb28e0a61de4a11f785858560405180848152602001838152602001828152602001935050505060405180910390a361408d818684600860008a73ffffffffffffffffffffffffffffffffffffffff1673ffffffffffffffffffffffffffffffffffffffff16815260200190815260200160002060010160009054906101000a900463ffffffff16616307565b50505050508080600101915050613cd7565b50600560009054906101000a900473ffffffffffffffffffffffffffffffffffffffff1673ffffffffffffffffffffffffffffffffffffffff1663867904b433876040518363ffffffff1660e01b8152600401808373ffffffffffffffffffffffffffffffffffffffff16815260200182815260200192505050600060405180830381600087803b15801561413357600080fd5b505af1158015614147573d6000803e3d6000fd5b505050508493505050506001600481905550919050565b614166614a67565b61416e6163cf565b60011515600560009054906101000a900473ffffffffffffffffffffffffffffffffffffffff1673ffffffffffffffffffffffffffffffffffffffff166141b361222f565b61ffff167f6b08c2e2c9969e55a647a764db9b554d64dc42f1a704da11a6d5b129ad163f2c60405160405180910390a4565b600781815481106141f257fe5b906000526020600020016000915054906101000a900473ffffffffffffffffffffffffffffffffffffffff1681565b600d5481565b60006001905090565b600560009054906101000a900473ffffffffffffffffffffffffffffffffffffffff1681565b600160009054906101000a900473ffffffffffffffffffffffffffffffffffffffff1681565b614284614a67565b60006142af7f42616e636f72436f6e7665727465725570677261646572000000000000000000614e51565b905060001515600560009054906101000a900473ffffffffffffffffffffffffffffffffffffffff1673ffffffffffffffffffffffffffffffffffffffff166142f661222f565b61ffff167f6b08c2e2c9969e55a647a764db9b554d64dc42f1a704da11a6d5b129ad163f2c60405160405180910390a461432f8161492f565b8073ffffffffffffffffffffffffffffffffffffffff166390f58c96602f6040518263ffffffff1660e01b8152600401808261ffff168152602001915050600060405180830381600087803b15801561438757600080fd5b505af115801561439b573d6000803e3d6000fd5b505050506143a7612cb4565b50565b60086020528060005260406000206000915090508060000154908060010160009054906101000a900463ffffffff16908060010160049054906101000a900460ff16908060010160059054906101000a900460ff16908060010160069054906101000a900460ff16905085565b60006144228261444f565b9050919050565b6144348383836138f1565b600e9080519060200190614449929190617cc6565b50505050565b60008161445b81611a1f565b600860008473ffffffffffffffffffffffffffffffffffffffff1673ffffffffffffffffffffffffffffffffffffffff16815260200190815260200160002060000154915050919050565b600a8060000154908060010154905082565b60006144c2614b2a565b60026004819055507f42616e636f724e6574776f726b000000000000000000000000000000000000006144f481614ba4565b8573ffffffffffffffffffffffffffffffffffffffff168773ffffffffffffffffffffffffffffffffffffffff161415614596576040517f08c379a00000000000000000000000000000000000000000000000000000000081526004018080602001828103825260168152602001807f4552525f53414d455f534f555243455f5441524745540000000000000000000081525060200191505060405180910390fd5b600073ffffffffffffffffffffffffffffffffffffffff16600660009054906101000a900473ffffffffffffffffffffffffffffffffffffffff1673ffffffffffffffffffffffffffffffffffffffff16148061477f5750600660009054906101000a900473ffffffffffffffffffffffffffffffffffffffff1673ffffffffffffffffffffffffffffffffffffffff16633af32abf856040518263ffffffff1660e01b8152600401808273ffffffffffffffffffffffffffffffffffffffff16815260200191505060206040518083038186803b15801561467757600080fd5b505afa15801561468b573d6000803e3d6000fd5b505050506040513d60208110156146a157600080fd5b8101908080519060200190929190505050801561477e5750600660009054906101000a900473ffffffffffffffffffffffffffffffffffffffff1673ffffffffffffffffffffffffffffffffffffffff16633af32abf846040518263ffffffff1660e01b8152600401808273ffffffffffffffffffffffffffffffffffffffff16815260200191505060206040518083038186803b15801561474257600080fd5b505afa158015614756573d6000803e3d6000fd5b505050506040513d602081101561476c57600080fd5b81019080805190602001909291905050505b5b6147f1576040517f08c379a00000000000000000000000000000000000000000000000000000000081526004018080602001828103825260138152602001807f4552525f4e4f545f57484954454c49535445440000000000000000000000000081525060200191505060405180910390fd5b6147fe878787878761645a565b915050600160048190555095945050505050565b61481a614a67565b600960049054906101000a900463ffffffff1663ffffffff168163ffffffff1611156148ae576040517f08c379a000000000000000000000000000000000000000000000000000000000815260040180806020018281038252601a8152602001807f4552525f494e56414c49445f434f4e56455253494f4e5f46454500000000000081525060200191505060405180910390fd5b7f81cd2ffb37dd237c0e4e2a3de5265fcf9deb43d3e7801e80db9f1ccfba7ee600600960089054906101000a900463ffffffff1682604051808363ffffffff1681526020018263ffffffff1681526020019250505060405180910390a180600960086101000a81548163ffffffff021916908363ffffffff16021790555050565b614937614a67565b60008054906101000a900473ffffffffffffffffffffffffffffffffffffffff1673ffffffffffffffffffffffffffffffffffffffff168173ffffffffffffffffffffffffffffffffffffffff1614156149f9576040517f08c379a000000000000000000000000000000000000000000000000000000000815260040180806020018281038252600e8152602001807f4552525f53414d455f4f574e455200000000000000000000000000000000000081525060200191505060405180910390fd5b80600160006101000a81548173ffffffffffffffffffffffffffffffffffffffff021916908373ffffffffffffffffffffffffffffffffffffffff16021790555050565b6000600560009054906101000a900473ffffffffffffffffffffffffffffffffffffffff16905090565b60008054906101000a900473ffffffffffffffffffffffffffffffffffffffff1673ffffffffffffffffffffffffffffffffffffffff163373ffffffffffffffffffffffffffffffffffffffff1614614b28576040517f08c379a00000000000000000000000000000000000000000000000000000000081526004018080602001828103825260118152602001807f4552525f4143434553535f44454e49454400000000000000000000000000000081525060200191505060405180910390fd5b565b600160045414614ba2576040517f08c379a000000000000000000000000000000000000000000000000000000000815260040180806020018281038252600e8152602001807f4552525f5245454e5452414e435900000000000000000000000000000000000081525060200191505060405180910390fd5b565b614bad81614e51565b73ffffffffffffffffffffffffffffffffffffffff163373ffffffffffffffffffffffffffffffffffffffff1614614c4d576040517f08c379a00000000000000000000000000000000000000000000000000000000081526004018080602001828103825260118152602001807f4552525f4143434553535f44454e49454400000000000000000000000000000081525060200191505060405180910390fd5b50565b6000614c5b8361607a565b15614c7f578173ffffffffffffffffffffffffffffffffffffffff16319050614d2c565b614c88836167a7565b73ffffffffffffffffffffffffffffffffffffffff166370a08231836040518263ffffffff1660e01b8152600401808273ffffffffffffffffffffffffffffffffffffffff16815260200191505060206040518083038186803b158015614cee57600080fd5b505afa158015614d02573d6000803e3d6000fd5b505050506040513d6020811015614d1857600080fd5b810190808051906020019092919050505090505b92915050565b6000811415614d4057614dcf565b614d498361607a565b15614d9a578173ffffffffffffffffffffffffffffffffffffffff166108fc829081150290604051600060405180830381858888f19350505050158015614d94573d6000803e3d6000fd5b50614dce565b614dcd8282614da8866167a7565b73ffffffffffffffffffffffffffffffffffffffff166167b19092919063ffffffff16565b5b5b505050565b80614dde81611a1f565b614e07308373ffffffffffffffffffffffffffffffffffffffff16614c5090919063ffffffff16565b600860008473ffffffffffffffffffffffffffffffffffffffff1673ffffffffffffffffffffffffffffffffffffffff168152602001908152602001600020600001819055505050565b6000600260009054906101000a900473ffffffffffffffffffffffffffffffffffffffff1673ffffffffffffffffffffffffffffffffffffffff1663bb34534c836040518263ffffffff1660e01b81526004018082815260200191505060206040518083038186803b158015614ec657600080fd5b505afa158015614eda573d6000803e3d6000fd5b505050506040513d6020811015614ef057600080fd5b81019080805190602001909291905050509050919050565b606080845167ffffffffffffffff81118015614f2357600080fd5b50604051908082528060200260200182016040528015614f525781602001602082028036833780820191505090505b50905060005b8151811015615097578373ffffffffffffffffffffffffffffffffffffffff16638074590a86600860008a8681518110614f8e57fe5b602002602001015173ffffffffffffffffffffffffffffffffffffffff1673ffffffffffffffffffffffffffffffffffffffff16815260200190815260200160002060000154600960009054906101000a900463ffffffff168b6040518563ffffffff1660e01b8152600401808581526020018481526020018363ffffffff16815260200182815260200194505050505060206040518083038186803b15801561503757600080fd5b505afa15801561504b573d6000803e3d6000fd5b505050506040513d602081101561506157600080fd5b810190808051906020019092919050505082828151811061507e57fe5b6020026020010181815250508080600101915050614f58565b5080915050949350505050565b6150ac617cac565b6000600c546150b9616853565b03905060008114156150ee57600a60405180604001604052908160008201548152602001600182015481525050915050615360565b600060086000600760018154811061510257fe5b9060005260206000200160009054906101000a900473ffffffffffffffffffffffffffffffffffffffff1673ffffffffffffffffffffffffffffffffffffffff1673ffffffffffffffffffffffffffffffffffffffff168152602001908152602001600020600001549050600060086000600760008154811061518157fe5b9060005260206000200160009054906101000a900473ffffffffffffffffffffffffffffffffffffffff1673ffffffffffffffffffffffffffffffffffffffff1673ffffffffffffffffffffffffffffffffffffffff1681526020019081526020016000206000015490506102588310615214576040518060400160405280838152602001828152509350505050615360565b61521c617cac565b600a60405180604001604052908160008201548152602001600182015481525050905060008160000151148015615257575060008160200151145b1561527c57604051806040016040528084815260200183815250945050505050615360565b600061529584836020015161686290919063ffffffff16565b905060006152b084846000015161686290919063ffffffff16565b905060006152ef6152ca888561686290919063ffffffff16565b6152e189610258038561686290919063ffffffff16565b61627f90919063ffffffff16565b9050600061531e61025861531088886020015161686290919063ffffffff16565b61686290919063ffffffff16565b905061533882826c0c9f2c9cd04674edea400000006168e8565b8092508193505050604051806040016040528083815260200182815250985050505050505050505b90565b600080600090506000600860008660008151811061537d57fe5b602002602001015173ffffffffffffffffffffffffffffffffffffffff1673ffffffffffffffffffffffffffffffffffffffff1681526020019081526020016000206000015490506000600190505b8551811015615496576000600860008884815181106153e757fe5b602002602001015173ffffffffffffffffffffffffffffffffffffffff1673ffffffffffffffffffffffffffffffffffffffff1681526020019081526020016000206000015490506154558187868151811061543f57fe5b602002602001015161686290919063ffffffff16565b61547b8488858151811061546557fe5b602002602001015161686290919063ffffffff16565b1015615488578193508092505b5080806001019150506153cc565b508673ffffffffffffffffffffffffffffffffffffffff16632f55bdb58783600960009054906101000a900463ffffffff168887815181106154d457fe5b60200260200101516040518563ffffffff1660e01b8152600401808581526020018481526020018363ffffffff16815260200182815260200194505050505060206040518083038186803b15801561552b57600080fd5b505afa15801561553f573d6000803e3d6000fd5b505050506040513d602081101561555557600080fd5b810190808051906020019092919050505092505050949350505050565b606061557c61613c565b60006155a77f42616e636f72466f726d756c6100000000000000000000000000000000000000614e51565b905060006155be84866161a290919063ffffffff16565b905060606155ce85898886614f08565b905060005b88518110156158435760008982815181106155ea57fe5b60200260200101519050600083838151811061560257fe5b6020026020010151905089838151811061561857fe5b6020026020010151811015615695576040517f08c379a00000000000000000000000000000000000000000000000000000000081526004018080602001828103825260168152602001807f4552525f5a45524f5f5441524745545f414d4f554e540000000000000000000081525060200191505060405180910390fd5b60006156ec82600860008673ffffffffffffffffffffffffffffffffffffffff1673ffffffffffffffffffffffffffffffffffffffff168152602001908152602001600020600001546161a290919063ffffffff16565b905080600860008573ffffffffffffffffffffffffffffffffffffffff1673ffffffffffffffffffffffffffffffffffffffff1681526020019081526020016000206000018190555061576033838573ffffffffffffffffffffffffffffffffffffffff16614d329092919063ffffffff16565b8273ffffffffffffffffffffffffffffffffffffffff163373ffffffffffffffffffffffffffffffffffffffff167fbc7d19d505c7ec4db83f3b51f19fb98c4c8a99922e7839d1ee608dfbee29501b84848a60405180848152602001838152602001828152602001935050505060405180910390a3615833868483600860008873ffffffffffffffffffffffffffffffffffffffff1673ffffffffffffffffffffffffffffffffffffffff16815260200190815260200160002060010160009054906101000a900463ffffffff16616307565b50505080806001019150506155d3565b50809350505050949350505050565b61585a614a67565b615862616940565b8161586c816169bd565b8161587681616a9b565b600560009054906101000a900473ffffffffffffffffffffffffffffffffffffffff1673ffffffffffffffffffffffffffffffffffffffff168473ffffffffffffffffffffffffffffffffffffffff16141580156159215750600860008573ffffffffffffffffffffffffffffffffffffffff1673ffffffffffffffffffffffffffffffffffffffff16815260200190815260200160002060010160069054906101000a900460ff16155b615993576040517f08c379a00000000000000000000000000000000000000000000000000000000081526004018080602001828103825260138152602001807f4552525f494e56414c49445f524553455256450000000000000000000000000081525060200191505060405180910390fd5b600960009054906101000a900463ffffffff16620f42400363ffffffff168363ffffffff161115615a2c576040517f08c379a000000000000000000000000000000000000000000000000000000000815260040180806020018281038252601a8152602001807f4552525f494e56414c49445f524553455256455f57454947485400000000000081525060200191505060405180910390fd5b7fffffffffffffffffffffffffffffffffffffffffffffffffffffffffffffffff61ffff16615a5961366a565b61ffff1610615ad0576040517f08c379a00000000000000000000000000000000000000000000000000000000081526004018080602001828103825260198152602001807f4552525f494e56414c49445f524553455256455f434f554e540000000000000081525060200191505060405180910390fd5b6000600860008673ffffffffffffffffffffffffffffffffffffffff1673ffffffffffffffffffffffffffffffffffffffff168152602001908152602001600020905060008160000181905550838160010160006101000a81548163ffffffff021916908363ffffffff16021790555060018160010160066101000a81548160ff0219169083151502179055506007859080600181540180825580915050600190039060005260206000200160009091909190916101000a81548173ffffffffffffffffffffffffffffffffffffffff021916908373ffffffffffffffffffffffffffffffffffffffff16021790555083600960008282829054906101000a900463ffffffff160192506101000a81548163ffffffff021916908363ffffffff1602179055505050505050565b615c0561202a565b615c77576040517f08c379a000000000000000000000000000000000000000000000000000000000815260040180806020018281038252600c8152602001807f4552525f494e414354495645000000000000000000000000000000000000000081525060200191505060405180910390fd5b565b6000806000600780549050905085518114615cfc576040517f08c379a00000000000000000000000000000000000000000000000000000000081526004018080602001828103825260148152602001807f4552525f494e56414c49445f524553455256455300000000000000000000000081525060200191505060405180910390fd5b84518114615d72576040517f08c379a00000000000000000000000000000000000000000000000000000000081526004018080602001828103825260138152602001807f4552525f494e56414c49445f414d4f554e54530000000000000000000000000081525060200191505060405180910390fd5b600092505b80831015615ffc5760086000878581518110615d8f57fe5b602002602001015173ffffffffffffffffffffffffffffffffffffffff1673ffffffffffffffffffffffffffffffffffffffff16815260200190815260200160002060010160069054906101000a900460ff16615e54576040517f08c379a00000000000000000000000000000000000000000000000000000000081526004018080602001828103825260138152602001807f4552525f494e56414c49445f524553455256450000000000000000000000000081525060200191505060405180910390fd5b600091505b80821015615ef157858281518110615e6d57fe5b602002602001015173ffffffffffffffffffffffffffffffffffffffff1660078481548110615e9857fe5b9060005260206000200160009054906101000a900473ffffffffffffffffffffffffffffffffffffffff1673ffffffffffffffffffffffffffffffffffffffff161415615ee457615ef1565b8180600101925050615e59565b808210615f66576040517f08c379a00000000000000000000000000000000000000000000000000000000081526004018080602001828103825260138152602001807f4552525f494e56414c49445f524553455256450000000000000000000000000081525060200191505060405180910390fd5b6000858481518110615f7457fe5b602002602001015111615fef576040517f08c379a000000000000000000000000000000000000000000000000000000000815260040180806020018281038252600f8152602001807f4552525f5a45524f5f414d4f554e54000000000000000000000000000000000081525060200191505060405180910390fd5b8280600101935050615d77565b60008411616072576040517f08c379a000000000000000000000000000000000000000000000000000000000815260040180806020018281038252600f8152602001807f4552525f5a45524f5f414d4f554e54000000000000000000000000000000000081525060200191505060405180910390fd5b505050505050565b600073eeeeeeeeeeeeeeeeeeeeeeeeeeeeeeeeeeeeeeee73ffffffffffffffffffffffffffffffffffffffff168273ffffffffffffffffffffffffffffffffffffffff16149050919050565b6000808214156160e1576160da8484616b35565b90506160ef565b6160ec848484616ce0565b90505b9392505050565b6000620f424063ffffffff1661612d600960089054906101000a900463ffffffff1663ffffffff168461686290919063ffffffff16565b8161613457fe5b049050919050565b6000600780549050905060005b8181101561619e576161916007828154811061616157fe5b9060005260206000200160009054906101000a900473ffffffffffffffffffffffffffffffffffffffff16614dd4565b8080600101915050616149565b5050565b60008282111561621a576040517f08c379a000000000000000000000000000000000000000000000000000000000815260040180806020018281038252601e8152602001807f536166654d6174683a207375627472616374696f6e206f766572666c6f77000081525060200191505060405180910390fd5b818303905092915050565b600081148061623957506162388461607a565b5b1561624357616279565b616278838383616252886167a7565b73ffffffffffffffffffffffffffffffffffffffff166171dd909392919063ffffffff16565b5b50505050565b6000808284019050838110156162fd576040517f08c379a000000000000000000000000000000000000000000000000000000000815260040180806020018281038252601b8152602001807f536166654d6174683a206164646974696f6e206f766572666c6f77000000000081525060200191505060405180910390fd5b8091505092915050565b8273ffffffffffffffffffffffffffffffffffffffff16600560009054906101000a900473ffffffffffffffffffffffffffffffffffffffff1673ffffffffffffffffffffffffffffffffffffffff167f77f29993cf2c084e726f7e802da0719d6a0ade3e204badc7a3ffd57ecb768c24616394620f424063ffffffff168661686290919063ffffffff16565b6163ad8563ffffffff168961686290919063ffffffff16565b604051808381526020018281526020019250505060405180910390a350505050565b60016163d961366a565b61ffff1611616450576040517f08c379a00000000000000000000000000000000000000000000000000000000081526004018080602001828103825260198152602001807f4552525f494e56414c49445f524553455256455f434f554e540000000000000081525060200191505060405180910390fd5b61645861729e565b565b60006009600c9054906101000a900460ff168015616480575061647b616853565b600c54105b156164b55761648d6150a4565b600a60008201518160000155602082015181600101559050506164ae616853565b600c819055505b6000806164c3888888613677565b91509150600082141561653e576040517f08c379a00000000000000000000000000000000000000000000000000000000081526004018080602001828103825260168152602001807f4552525f5a45524f5f5441524745545f414d4f554e540000000000000000000081525060200191505060405180910390fd5b6165478761444f565b821061654f57fe5b61656e8873ffffffffffffffffffffffffffffffffffffffff1661607a565b156165ed578534146165e8576040517f08c379a00000000000000000000000000000000000000000000000000000000081526004018080602001828103825260178152602001807f4552525f4554485f414d4f554e545f4d49534d4154434800000000000000000081525060200191505060405180910390fd5b6166b2565b60003414801561663f57508561663c6166058a61444f565b61662e308c73ffffffffffffffffffffffffffffffffffffffff16614c5090919063ffffffff16565b6161a290919063ffffffff16565b10155b6166b1576040517f08c379a00000000000000000000000000000000000000000000000000000000081526004018080602001828103825260128152602001807f4552525f494e56414c49445f414d4f554e54000000000000000000000000000081525060200191505060405180910390fd5b5b6166bb88614dd4565b61671082600860008a73ffffffffffffffffffffffffffffffffffffffff1673ffffffffffffffffffffffffffffffffffffffff168152602001908152602001600020600001546161a290919063ffffffff16565b600860008973ffffffffffffffffffffffffffffffffffffffff1673ffffffffffffffffffffffffffffffffffffffff1681526020019081526020016000206000018190555061678184838973ffffffffffffffffffffffffffffffffffffffff16614d329092919063ffffffff16565b61678f8888878986866173b3565b6167998888617470565b819250505095945050505050565b6000819050919050565b61684e8363a9059cbb60e01b8484604051602401808373ffffffffffffffffffffffffffffffffffffffff16815260200182815260200192505050604051602081830303815290604052907bffffffffffffffffffffffffffffffffffffffffffffffffffffffff19166020820180517bffffffffffffffffffffffffffffffffffffffffffffffffffffffff83818316178352505050506176a9565b505050565b600061685d617798565b905090565b60008083141561687557600090506168e2565b600082840290508284828161688657fe5b04146168dd576040517f08c379a0000000000000000000000000000000000000000000000000000000008152600401808060200182810382526021815260200180617d576021913960400191505060405180910390fd5b809150505b92915050565b6000806000808686915091508482118061690157508481115b1561691a576169118282876177a2565b80925081935050505b80821461692e578181935093505050616938565b6001809350935050505b935093915050565b61694861202a565b156169bb576040517f08c379a000000000000000000000000000000000000000000000000000000000815260040180806020018281038252600a8152602001807f4552525f4143544956450000000000000000000000000000000000000000000081525060200191505060405180910390fd5b565b600073ffffffffffffffffffffffffffffffffffffffff168173ffffffffffffffffffffffffffffffffffffffff1614158015616a2657503073ffffffffffffffffffffffffffffffffffffffff168173ffffffffffffffffffffffffffffffffffffffff1614155b616a98576040517f08c379a000000000000000000000000000000000000000000000000000000000815260040180806020018281038252601c8152602001807f4552525f494e56414c49445f45585445524e414c5f414444524553530000000081525060200191505060405180910390fd5b50565b60008163ffffffff16118015616ac05750620f424063ffffffff168163ffffffff1611155b616b32576040517f08c379a000000000000000000000000000000000000000000000000000000000815260040180806020018281038252601a8152602001807f4552525f494e56414c49445f524553455256455f57454947485400000000000081525060200191505060405180910390fd5b50565b600080616b41836177e3565b905060005b8451811015616cd5576000858281518110616b5d57fe5b602002602001015190506000858381518110616b7557fe5b60200260200101519050616bac3330838573ffffffffffffffffffffffffffffffffffffffff16616225909392919063ffffffff16565b80600860008473ffffffffffffffffffffffffffffffffffffffff1673ffffffffffffffffffffffffffffffffffffffff168152602001908152602001600020600001819055508173ffffffffffffffffffffffffffffffffffffffff163373ffffffffffffffffffffffffffffffffffffffff167f4a1a2a6176e9646d9e3157f7c2ab3c499f18337c0b0828cfb28e0a61de4a11f783848860405180848152602001838152602001828152602001935050505060405180910390a3616cc6848383600860008773ffffffffffffffffffffffffffffffffffffffff1673ffffffffffffffffffffffffffffffffffffffff16815260200190815260200160002060010160009054906101000a900463ffffffff16616307565b50508080600101915050616b46565b508091505092915050565b6000616cea61613c565b616d53346008600073eeeeeeeeeeeeeeeeeeeeeeeeeeeeeeeeeeeeeeee73ffffffffffffffffffffffffffffffffffffffff1673ffffffffffffffffffffffffffffffffffffffff168152602001908152602001600020600001546161a290919063ffffffff16565b6008600073eeeeeeeeeeeeeeeeeeeeeeeeeeeeeeeeeeeeeeee73ffffffffffffffffffffffffffffffffffffffff1673ffffffffffffffffffffffffffffffffffffffff168152602001908152602001600020600001819055506000616dd87f42616e636f72466f726d756c6100000000000000000000000000000000000000614e51565b90506000616de882858888615363565b90506000616dff828661627f90919063ffffffff16565b905060005b87518110156171cf576000888281518110616e1b57fe5b602002602001015190506000600860008373ffffffffffffffffffffffffffffffffffffffff1673ffffffffffffffffffffffffffffffffffffffff16815260200190815260200160002060000154905060008673ffffffffffffffffffffffffffffffffffffffff1663ebbb21588a84600960009054906101000a900463ffffffff168a6040518563ffffffff1660e01b8152600401808581526020018481526020018363ffffffff16815260200182815260200194505050505060206040518083038186803b158015616eef57600080fd5b505afa158015616f03573d6000803e3d6000fd5b505050506040513d6020811015616f1957600080fd5b8101908080519060200190929190505050905060008111616fa2576040517f08c379a00000000000000000000000000000000000000000000000000000000081526004018080602001828103825260168152602001807f4552525f5a45524f5f5441524745545f414d4f554e540000000000000000000081525060200191505060405180910390fd5b898481518110616fae57fe5b6020026020010151811115616fbf57fe5b616fde8373ffffffffffffffffffffffffffffffffffffffff1661607a565b6170145761700f3330838673ffffffffffffffffffffffffffffffffffffffff16616225909392919063ffffffff16565b61708d565b808a858151811061702157fe5b6020026020010151111561708c573373ffffffffffffffffffffffffffffffffffffffff166108fc828c878151811061705657fe5b6020026020010151039081150290604051600060405180830381858888f1935050505015801561708a573d6000803e3d6000fd5b505b5b60006170a2828461627f90919063ffffffff16565b905080600860008673ffffffffffffffffffffffffffffffffffffffff1673ffffffffffffffffffffffffffffffffffffffff168152602001908152602001600020600001819055508373ffffffffffffffffffffffffffffffffffffffff163373ffffffffffffffffffffffffffffffffffffffff167f4a1a2a6176e9646d9e3157f7c2ab3c499f18337c0b0828cfb28e0a61de4a11f784848a60405180848152602001838152602001828152602001935050505060405180910390a36171be868583600860008973ffffffffffffffffffffffffffffffffffffffff1673ffffffffffffffffffffffffffffffffffffffff16815260200190815260200160002060010160009054906101000a900463ffffffff16616307565b505050508080600101915050616e04565b508193505050509392505050565b617298846323b872dd60e01b858585604051602401808473ffffffffffffffffffffffffffffffffffffffff1681526020018373ffffffffffffffffffffffffffffffffffffffff1681526020018281526020019350505050604051602081830303815290604052907bffffffffffffffffffffffffffffffffffffffffffffffffffffffff19166020820180517bffffffffffffffffffffffffffffffffffffffffffffffffffffffff83818316178352505050506176a9565b50505050565b6172a6614a67565b60006172b061366a565b61ffff1611617327576040517f08c379a00000000000000000000000000000000000000000000000000000000081526004018080602001828103825260198152602001807f4552525f494e56414c49445f524553455256455f434f554e540000000000000081525060200191505060405180910390fd5b600560009054906101000a900473ffffffffffffffffffffffffffffffffffffffff1673ffffffffffffffffffffffffffffffffffffffff166379ba50976040518163ffffffff1660e01b8152600401600060405180830381600087803b15801561739157600080fd5b505af11580156173a5573d6000803e3d6000fd5b505050506173b161613c565b565b7f800000000000000000000000000000000000000000000000000000000000000081106173dc57fe5b8373ffffffffffffffffffffffffffffffffffffffff168573ffffffffffffffffffffffffffffffffffffffff168773ffffffffffffffffffffffffffffffffffffffff167f276856b36cbc45526a0ba64f44611557a2a8b68662c5388e9fe6d72e86e1c8cb86868660405180848152602001838152602001828152602001935050505060405180910390a4505050505050565b6000600560009054906101000a900473ffffffffffffffffffffffffffffffffffffffff1673ffffffffffffffffffffffffffffffffffffffff166318160ddd6040518163ffffffff1660e01b815260040160206040518083038186803b1580156174da57600080fd5b505afa1580156174ee573d6000803e3d6000fd5b505050506040513d602081101561750457600080fd5b8101908080519060200190929190505050905060006175228461444f565b9050600061752f8461444f565b90506000600860008773ffffffffffffffffffffffffffffffffffffffff1673ffffffffffffffffffffffffffffffffffffffff16815260200190815260200160002060010160009054906101000a900463ffffffff1690506000600860008773ffffffffffffffffffffffffffffffffffffffff1673ffffffffffffffffffffffffffffffffffffffff16815260200190815260200160002060010160009054906101000a900463ffffffff16905060006175fa8363ffffffff168561686290919063ffffffff16565b905060006176178363ffffffff168761686290919063ffffffff16565b90508773ffffffffffffffffffffffffffffffffffffffff168973ffffffffffffffffffffffffffffffffffffffff167f77f29993cf2c084e726f7e802da0719d6a0ade3e204badc7a3ffd57ecb768c248484604051808381526020018281526020019250505060405180910390a3617692878a8887616307565b61769e87898786616307565b505050505050505050565b606061770b826040518060400160405280602081526020017f5361666545524332303a206c6f772d6c6576656c2063616c6c206661696c65648152508573ffffffffffffffffffffffffffffffffffffffff166178429092919063ffffffff16565b90506000815111156177935780806020019051602081101561772c57600080fd5b8101908080519060200190929190505050617792576040517f08c379a000000000000000000000000000000000000000000000000000000000815260040180806020018281038252602a815260200180617d78602a913960400191505060405180910390fd5b5b505050565b6000600d54905090565b6000808385116177c0576177b785858561785a565b915091506177db565b6000806177ce86888761785a565b9150915080829350935050505b935093915050565b6000806000905060008351905060005b818110156178285761781785828151811061780a57fe5b602002602001015161795b565b8301925080806001019150506177f3565b5060016178358383617995565b03600a0a92505050919050565b606061785184846000856179b5565b90509392505050565b6000806000837fffffffffffffffffffffffffffffffffffffffffffffffffffffffffffffffff8161788857fe5b049050808611156178c0576000600180830188816178a257fe5b040190508087816178af57fe5b0496508086816178bb57fe5b049550505b8486146179375760008487029050600086880190508781106179015760006178e88383617b5e565b9050600081880390508181965096505050505050617953565b60028888038161790d57fe5b0487038210156179265760008694509450505050617953565b600180870394509450505050617953565b6002848161794157fe5b046002858161794c57fe5b0492509250505b935093915050565b6000806000905060008390505b600081111561798b578180600101925050600a818161798357fe5b049050617968565b5080915050919050565b600081600283816179a257fe5b048401816179ac57fe5b04905092915050565b606082471015617a10576040517f08c379a0000000000000000000000000000000000000000000000000000000008152600401808060200182810382526026815260200180617d316026913960400191505060405180910390fd5b617a1985617b92565b617a8b576040517f08c379a000000000000000000000000000000000000000000000000000000000815260040180806020018281038252601d8152602001807f416464726573733a2063616c6c20746f206e6f6e2d636f6e747261637400000081525060200191505060405180910390fd5b600060608673ffffffffffffffffffffffffffffffffffffffff1685876040518082805190602001908083835b60208310617adb5780518252602082019150602081019050602083039250617ab8565b6001836020036101000a03801982511681845116808217855250505050505090500191505060006040518083038185875af1925050503d8060008114617b3d576040519150601f19603f3d011682016040523d82523d6000602084013e617b42565b606091505b5091509150617b52828286617ba5565b92505050949350505050565b600060028281617b6a57fe5b048203828481617b7657fe5b0681617b7e57fe5b04828481617b8857fe5b0401905092915050565b600080823b905060008111915050919050565b60608315617bb557829050617c6a565b600083511115617bc85782518084602001fd5b816040517f08c379a00000000000000000000000000000000000000000000000000000000081526004018080602001828103825283818151815260200191508051906020019080838360005b83811015617c2f578082015181840152602081019050617c14565b50505050905090810190601f168015617c5c5780820380516001836020036101000a031916815260200191505b509250505060405180910390fd5b9392505050565b6040518060a0016040528060008152602001600063ffffffff1681526020016000151581526020016000151581526020016000151581525090565b604051806040016040528060008152602001600081525090565b828054828255906000526020600020908101928215617d02579160200282015b82811115617d01578251825591602001919060010190617ce6565b5b509050617d0f9190617d13565b5090565b5b80821115617d2c576000816000905550600101617d14565b509056fe416464726573733a20696e73756666696369656e742062616c616e636520666f722063616c6c536166654d6174683a206d756c7469706c69636174696f6e206f766572666c6f775361666545524332303a204552433230206f7065726174696f6e20646964206e6f742073756363656564a264697066735822122013fd5f195fd0c5fdeac29007f28b0f94ffd6e6ac42fa539d0302984a95982d7464736f6c634300060c0033",
  "immutableReferences": {},
  "source": "// SPDX-License-Identifier: SEE LICENSE IN LICENSE\npragma solidity 0.6.12;\n\nimport \"../converter/types/liquidity-pool-v1/LiquidityPoolV1Converter.sol\";\nimport \"./TestTime.sol\";\n\ncontract TestLiquidityPoolV1Converter is LiquidityPoolV1Converter, TestTime {\n    uint256[] public reserveAmountsRemoved;\n\n    constructor(\n        IDSToken _token,\n        IContractRegistry _registry,\n        uint32 _maxConversionFee\n    ) public LiquidityPoolV1Converter(_token, _registry, _maxConversionFee) {}\n\n    function removeLiquidityTest(\n        uint256 _amount,\n        IReserveToken[] memory _reserveTokens,\n        uint256[] memory _reserveMinReturnAmounts\n    ) public {\n        reserveAmountsRemoved = removeLiquidity(_amount, _reserveTokens, _reserveMinReturnAmounts);\n    }\n\n    function time() internal view override(Time, TestTime) returns (uint256) {\n        return TestTime.time();\n    }\n}\n",
  "sourcePath": "D:\\Work Space\\bancor_project\\core\\contracts\\helpers\\TestLiquidityPoolV1Converter.sol",
  "compiler": {
    "name": "solc",
    "version": "0.6.12+commit.27d51765.Emscripten.clang"
  },
  "schemaVersion": "3.4.3",
  "updatedAt": "2021-08-23T11:45:54.214Z",
  "devdoc": {
    "kind": "dev",
    "methods": {
      "acceptAnchorOwnership()": {
        "details": "accepts ownership of the anchor after an ownership transfer also activates the converter can only be called by the contract owner note that prior to version 28, you should use 'acceptTokenOwnership' instead"
      },
      "acceptOwnership()": {
        "details": "used by a new owner to accept an ownership transfer"
      },
      "acceptTokenOwnership()": {
        "details": "deprecated, backward compatibility"
      },
      "addLiquidity(address[],uint256[],uint256)": {
        "details": "increases the pool's liquidity and mints new shares in the pool to the caller note that prior to version 28, you should use 'fund' instead",
        "params": {
          "_minReturn": "token minimum return-amount",
          "_reserveAmounts": "amount of each reserve token",
          "_reserveTokens": "address of each reserve token"
        },
        "returns": {
          "_0": "amount of pool tokens issued"
        }
      },
      "addLiquidityCost(address[],uint256,uint256)": {
        "details": "given the amount of one of the reserve tokens to add liquidity of, returns the required amount of each one of the other reserve tokens since an empty pool can be funded with any list of non-zero input amounts, this function assumes that the pool is not empty (has already been funded)",
        "params": {
          "_reserveAmount": "amount of the relevant reserve token",
          "_reserveTokenIndex": "index of the relevant reserve token",
          "_reserveTokens": "address of each reserve token"
        },
        "returns": {
          "_0": "the required amount of each one of the reserve tokens"
        }
      },
      "addLiquidityReturn(address[],uint256[])": {
        "details": "returns the amount of pool tokens entitled for given amounts of reserve tokens since an empty pool can be funded with any list of non-zero input amounts, this function assumes that the pool is not empty (has already been funded)",
        "params": {
          "_reserveAmounts": "amount of each reserve token",
          "_reserveTokens": "address of each reserve token"
        },
        "returns": {
          "_0": "the amount of pool tokens entitled for the given amounts of reserve tokens"
        }
      },
      "addReserve(address,uint32)": {
        "details": "defines a new reserve token for the converter can only be called by the owner while the converter is inactive",
        "params": {
          "_token": "address of the reserve token",
          "_weight": "reserve weight, represented in ppm, 1-1000000"
        }
      },
      "connectorTokenCount()": {
        "details": "deprecated, backward compatibility"
      },
      "connectorTokens(uint256)": {
        "details": "deprecated, backward compatibility"
      },
      "connectors(address)": {
        "details": "deprecated, backward compatibility"
      },
      "convert(address,address,uint256,address,address)": {
        "details": "converts a specific amount of source tokens to target tokens can only be called by the bancor network contract",
        "params": {
          "_amount": "amount of tokens to convert (in units of the source token)",
          "_beneficiary": "wallet to receive the conversion result",
          "_sourceToken": "source reserve token",
          "_targetToken": "target reserve token",
          "_trader": "address of the caller who executed the conversion"
        },
        "returns": {
          "_0": "amount of tokens received (in units of the target token)"
        }
      },
      "converterType()": {
        "details": "returns the converter type",
        "returns": {
          "_0": "see the converter types in the the main contract doc"
        }
      },
      "fund(uint256)": {
        "details": "increases the pool's liquidity and mints new shares in the pool to the caller for example, if the caller increases the supply by 10%, then it will cost an amount equal to 10% of each reserve token balance note that starting from version 28, you should use 'addLiquidity' instead",
        "params": {
          "_amount": "amount to increase the supply by (in the pool token)"
        },
        "returns": {
          "_0": "amount of pool tokens issued"
        }
      },
      "getConnectorBalance(address)": {
        "details": "deprecated, backward compatibility"
      },
      "getReturn(address,address,uint256)": {
        "details": "deprecated, backward compatibility"
      },
      "isActive()": {
        "details": "returns true if the converter is active, false otherwise",
        "returns": {
          "_0": "true if the converter is active, false otherwise"
        }
      },
      "isV28OrHigher()": {
        "details": "checks whether or not the converter version is 28 or higher",
        "returns": {
          "_0": "true, since the converter version is 28 or higher"
        }
      },
      "liquidate(uint256)": {
        "details": "decreases the pool's liquidity and burns the caller's shares in the pool for example, if the holder sells 10% of the supply, then they will receive 10% of each reserve token balance in return note that starting from version 28, you should use 'removeLiquidity' instead",
        "params": {
          "_amount": "amount to liquidate (in the pool token)"
        },
        "returns": {
          "_0": "the amount of each reserve token granted for the given amount of pool tokens"
        }
      },
      "onUpgradeComplete()": {
        "details": "executed by the upgrader at the end of the upgrade process to handle custom pool logic"
      },
      "recentAverageRate(address)": {
        "details": "returns the recent average rate of 1 `_token` in the other reserve token units note that the rate can only be queried for reserves in a standard pool",
        "params": {
          "_token": "token to get the rate for"
        },
        "returns": {
          "_0": "recent average rate between the reserves (numerator)",
          "_1": "recent average rate between the reserves (denominator)"
        }
      },
      "removeLiquidity(uint256,address[],uint256[])": {
        "details": "decreases the pool's liquidity and burns the caller's shares in the pool note that prior to version 28, you should use 'liquidate' instead",
        "params": {
          "_amount": "token amount",
          "_reserveMinReturnAmounts": "minimum return-amount of each reserve token",
          "_reserveTokens": "address of each reserve token"
        },
        "returns": {
          "_0": "the amount of each reserve token granted for the given amount of pool tokens"
        }
      },
      "removeLiquidityReturn(uint256,address[])": {
        "details": "returns the amount of each reserve token entitled for a given amount of pool tokens",
        "params": {
          "_amount": "amount of pool tokens",
          "_reserveTokens": "address of each reserve token"
        },
        "returns": {
          "_0": "the amount of each reserve token entitled for the given amount of pool tokens"
        }
      },
      "reserveBalance(address)": {
        "details": "returns the reserve's balance note that prior to version 17, you should use 'getConnectorBalance' instead",
        "params": {
          "_reserveToken": "reserve token contract address"
        },
        "returns": {
          "_0": "reserve balance"
        }
      },
      "reserveTokenCount()": {
        "details": "returns the number of reserve tokens note that prior to version 17, you should use 'connectorTokenCount' instead",
        "returns": {
          "_0": "number of reserve tokens"
        }
      },
      "reserveWeight(address)": {
        "details": "returns the reserve's weight added in version 28",
        "params": {
          "_reserveToken": "reserve token contract address"
        },
        "returns": {
          "_0": "reserve weight"
        }
      },
      "restoreRegistry()": {
        "details": "restores the previous contract-registry"
      },
      "restrictRegistryUpdate(bool)": {
        "details": "restricts the permission to update the contract-registry",
        "params": {
          "_onlyOwnerCanUpdateRegistry": "indicates whether or not permission is restricted to owner only"
        }
      },
      "setConversionFee(uint32)": {
        "details": "updates the current conversion fee can only be called by the contract owner",
        "params": {
          "_conversionFee": "new conversion fee, represented in ppm"
        }
      },
      "setConversionWhitelist(address)": {
        "details": "allows the owner to update & enable the conversion whitelist contract address when set, only addresses that are whitelisted are actually allowed to use the converter note that the whitelist check is actually done by the BancorNetwork contract",
        "params": {
          "_whitelist": "address of a whitelist contract"
        }
      },
      "targetAmountAndFee(address,address,uint256)": {
        "details": "returns the expected target amount of converting one reserve to another along with the fee",
        "params": {
          "_amount": "amount of tokens received from the user",
          "_sourceToken": "contract address of the source reserve token",
          "_targetToken": "contract address of the target reserve token"
        },
        "returns": {
          "_0": "expected target amount",
          "_1": "expected fee"
        }
      },
      "token()": {
        "details": "deprecated since version 28, backward compatibility - use only for earlier versions"
      },
      "transferAnchorOwnership(address)": {
        "details": "transfers the anchor ownership the new owner needs to accept the transfer can only be called by the converter upgrader while the upgrader is the owner note that prior to version 28, you should use 'transferAnchorOwnership' instead",
        "params": {
          "_newOwner": "new token owner"
        }
      },
      "transferOwnership(address)": {
        "details": "allows transferring the contract ownership the new owner still needs to accept the transfer can only be called by the contract owner",
        "params": {
          "_newOwner": "new contract owner"
        }
      },
      "transferReservesOnUpgrade(address)": {
        "details": "transfers reserve balances to a new converter during an upgrade can only be called by the converter upgraded which should be set at its owner",
        "params": {
          "_newConverter": "address of the converter to receive the new amount"
        }
      },
      "transferTokenOwnership(address)": {
        "details": "deprecated, backward compatibility"
      },
      "updateRegistry()": {
        "details": "updates to the new contract-registry"
      },
      "upgrade()": {
        "details": "upgrades the converter to the latest version can only be called by the owner note that the owner needs to call acceptOwnership on the new converter after the upgrade"
      }
    },
    "version": 1
  },
  "userdoc": {
    "kind": "user",
    "methods": {},
    "version": 1
  }
}