{
  "contractName": "TestBancorNetwork",
  "abi": [
    {
      "inputs": [
        {
          "internalType": "uint256",
          "name": "_amount",
          "type": "uint256"
        },
        {
          "internalType": "uint256",
          "name": "_fee",
          "type": "uint256"
        }
      ],
      "stateMutability": "nonpayable",
      "type": "constructor"
    },
    {
      "anonymous": false,
      "inputs": [
        {
          "indexed": true,
          "internalType": "contract IConverterAnchor",
          "name": "_smartToken",
          "type": "address"
        },
        {
          "indexed": true,
          "internalType": "contract IReserveToken",
          "name": "_fromToken",
          "type": "address"
        },
        {
          "indexed": true,
          "internalType": "contract IReserveToken",
          "name": "_toToken",
          "type": "address"
        },
        {
          "indexed": false,
          "internalType": "uint256",
          "name": "_fromAmount",
          "type": "uint256"
        },
        {
          "indexed": false,
          "internalType": "uint256",
          "name": "_toAmount",
          "type": "uint256"
        },
        {
          "indexed": false,
          "internalType": "address",
          "name": "_trader",
          "type": "address"
        }
      ],
      "name": "Conversion",
      "type": "event"
    },
    {
      "anonymous": false,
      "inputs": [
        {
          "indexed": true,
          "internalType": "address",
          "name": "_prevOwner",
          "type": "address"
        },
        {
          "indexed": true,
          "internalType": "address",
          "name": "_newOwner",
          "type": "address"
        }
      ],
      "name": "OwnerUpdate",
      "type": "event"
    },
    {
      "inputs": [],
      "name": "acceptOwnership",
      "outputs": [],
      "stateMutability": "nonpayable",
      "type": "function"
    },
    {
      "inputs": [
        {
          "internalType": "address[]",
          "name": "_path",
          "type": "address[]"
        },
        {
          "internalType": "uint256",
          "name": "_amount",
          "type": "uint256"
        },
        {
          "internalType": "uint256",
          "name": "_minReturn",
          "type": "uint256"
        }
      ],
      "name": "claimAndConvert",
      "outputs": [
        {
          "internalType": "uint256",
          "name": "",
          "type": "uint256"
        }
      ],
      "stateMutability": "nonpayable",
      "type": "function"
    },
    {
      "inputs": [
        {
          "internalType": "address[]",
          "name": "_path",
          "type": "address[]"
        },
        {
          "internalType": "uint256",
          "name": "_amount",
          "type": "uint256"
        },
        {
          "internalType": "uint256",
          "name": "_minReturn",
          "type": "uint256"
        },
        {
          "internalType": "address",
          "name": "",
          "type": "address"
        },
        {
          "internalType": "uint256",
          "name": "",
          "type": "uint256"
        }
      ],
      "name": "claimAndConvert2",
      "outputs": [
        {
          "internalType": "uint256",
          "name": "",
          "type": "uint256"
        }
      ],
      "stateMutability": "nonpayable",
      "type": "function"
    },
    {
      "inputs": [
        {
          "internalType": "address[]",
          "name": "_path",
          "type": "address[]"
        },
        {
          "internalType": "uint256",
          "name": "_amount",
          "type": "uint256"
        },
        {
          "internalType": "uint256",
          "name": "_minReturn",
          "type": "uint256"
        },
        {
          "internalType": "address payable",
          "name": "_beneficiary",
          "type": "address"
        }
      ],
      "name": "claimAndConvertFor",
      "outputs": [
        {
          "internalType": "uint256",
          "name": "",
          "type": "uint256"
        }
      ],
      "stateMutability": "nonpayable",
      "type": "function"
    },
    {
      "inputs": [
        {
          "internalType": "address[]",
          "name": "_path",
          "type": "address[]"
        },
        {
          "internalType": "uint256",
          "name": "_amount",
          "type": "uint256"
        },
        {
          "internalType": "uint256",
          "name": "_minReturn",
          "type": "uint256"
        },
        {
          "internalType": "address payable",
          "name": "_beneficiary",
          "type": "address"
        },
        {
          "internalType": "address",
          "name": "",
          "type": "address"
        },
        {
          "internalType": "uint256",
          "name": "",
          "type": "uint256"
        }
      ],
      "name": "claimAndConvertFor2",
      "outputs": [
        {
          "internalType": "uint256",
          "name": "",
          "type": "uint256"
        }
      ],
      "stateMutability": "nonpayable",
      "type": "function"
    },
    {
      "inputs": [
        {
          "internalType": "address[]",
          "name": "_path",
          "type": "address[]"
        },
        {
          "internalType": "contract IBancorX",
          "name": "_bancorX",
          "type": "address"
        },
        {
          "internalType": "uint256",
          "name": "_conversionId",
          "type": "uint256"
        },
        {
          "internalType": "uint256",
          "name": "_minReturn",
          "type": "uint256"
        },
        {
          "internalType": "address payable",
          "name": "_beneficiary",
          "type": "address"
        }
      ],
      "name": "completeXConversion",
      "outputs": [
        {
          "internalType": "uint256",
          "name": "",
          "type": "uint256"
        }
      ],
      "stateMutability": "nonpayable",
      "type": "function"
    },
    {
      "inputs": [
        {
          "internalType": "contract IReserveToken",
          "name": "_sourceToken",
          "type": "address"
        },
        {
          "internalType": "contract IReserveToken",
          "name": "_targetToken",
          "type": "address"
        }
      ],
      "name": "conversionPath",
      "outputs": [
        {
          "internalType": "address[]",
          "name": "",
          "type": "address[]"
        }
      ],
      "stateMutability": "view",
      "type": "function"
    },
    {
      "inputs": [
        {
          "internalType": "address[]",
          "name": "_path",
          "type": "address[]"
        },
        {
          "internalType": "uint256",
          "name": "_amount",
          "type": "uint256"
        },
        {
          "internalType": "uint256",
          "name": "_minReturn",
          "type": "uint256"
        }
      ],
      "name": "convert",
      "outputs": [
        {
          "internalType": "uint256",
          "name": "",
          "type": "uint256"
        }
      ],
      "stateMutability": "payable",
      "type": "function"
    },
    {
      "inputs": [
        {
          "internalType": "address[]",
          "name": "_path",
          "type": "address[]"
        },
        {
          "internalType": "uint256",
          "name": "_amount",
          "type": "uint256"
        },
        {
          "internalType": "uint256",
          "name": "_minReturn",
          "type": "uint256"
        },
        {
          "internalType": "address",
          "name": "",
          "type": "address"
        },
        {
          "internalType": "uint256",
          "name": "",
          "type": "uint256"
        }
      ],
      "name": "convert2",
      "outputs": [
        {
          "internalType": "uint256",
          "name": "",
          "type": "uint256"
        }
      ],
      "stateMutability": "payable",
      "type": "function"
    },
    {
      "inputs": [
        {
          "internalType": "address[]",
          "name": "_path",
          "type": "address[]"
        },
        {
          "internalType": "uint256",
          "name": "_amount",
          "type": "uint256"
        },
        {
          "internalType": "uint256",
          "name": "_minReturn",
          "type": "uint256"
        },
        {
          "internalType": "address payable",
          "name": "_beneficiary",
          "type": "address"
        },
        {
          "internalType": "address",
          "name": "",
          "type": "address"
        },
        {
          "internalType": "uint256",
          "name": "",
          "type": "uint256"
        }
      ],
      "name": "convertByPath",
      "outputs": [
        {
          "internalType": "uint256",
          "name": "",
          "type": "uint256"
        }
      ],
      "stateMutability": "payable",
      "type": "function"
    },
    {
      "inputs": [
        {
          "internalType": "address[]",
          "name": "_path",
          "type": "address[]"
        },
        {
          "internalType": "uint256",
          "name": "_amount",
          "type": "uint256"
        },
        {
          "internalType": "uint256",
          "name": "_minReturn",
          "type": "uint256"
        },
        {
          "internalType": "address payable",
          "name": "_beneficiary",
          "type": "address"
        }
      ],
      "name": "convertByPath2",
      "outputs": [
        {
          "internalType": "uint256",
          "name": "",
          "type": "uint256"
        }
      ],
      "stateMutability": "payable",
      "type": "function"
    },
    {
      "inputs": [
        {
          "internalType": "address[]",
          "name": "_path",
          "type": "address[]"
        },
        {
          "internalType": "uint256",
          "name": "_amount",
          "type": "uint256"
        },
        {
          "internalType": "uint256",
          "name": "_minReturn",
          "type": "uint256"
        },
        {
          "internalType": "address payable",
          "name": "_beneficiary",
          "type": "address"
        }
      ],
      "name": "convertFor",
      "outputs": [
        {
          "internalType": "uint256",
          "name": "",
          "type": "uint256"
        }
      ],
      "stateMutability": "payable",
      "type": "function"
    },
    {
      "inputs": [
        {
          "internalType": "address[]",
          "name": "_path",
          "type": "address[]"
        },
        {
          "internalType": "uint256",
          "name": "_amount",
          "type": "uint256"
        },
        {
          "internalType": "uint256",
          "name": "_minReturn",
          "type": "uint256"
        },
        {
          "internalType": "address payable",
          "name": "_beneficiary",
          "type": "address"
        },
        {
          "internalType": "address",
          "name": "",
          "type": "address"
        },
        {
          "internalType": "uint256",
          "name": "",
          "type": "uint256"
        }
      ],
      "name": "convertFor2",
      "outputs": [
        {
          "internalType": "uint256",
          "name": "",
          "type": "uint256"
        }
      ],
      "stateMutability": "payable",
      "type": "function"
    },
    {
      "inputs": [
        {
          "internalType": "address[]",
          "name": "_path",
          "type": "address[]"
        },
        {
          "internalType": "uint256",
          "name": "_amount",
          "type": "uint256"
        }
      ],
      "name": "getReturnByPath",
      "outputs": [
        {
          "internalType": "uint256",
          "name": "",
          "type": "uint256"
        },
        {
          "internalType": "uint256",
          "name": "",
          "type": "uint256"
        }
      ],
      "stateMutability": "view",
      "type": "function"
    },
    {
      "inputs": [],
      "name": "newOwner",
      "outputs": [
        {
          "internalType": "address",
          "name": "",
          "type": "address"
        }
      ],
      "stateMutability": "view",
      "type": "function"
    },
    {
      "inputs": [],
      "name": "onlyOwnerCanUpdateRegistry",
      "outputs": [
        {
          "internalType": "bool",
          "name": "",
          "type": "bool"
        }
      ],
      "stateMutability": "view",
      "type": "function"
    },
    {
      "inputs": [],
      "name": "owner",
      "outputs": [
        {
          "internalType": "address",
          "name": "",
          "type": "address"
        }
      ],
      "stateMutability": "view",
      "type": "function"
    },
    {
      "inputs": [],
      "name": "prevRegistry",
      "outputs": [
        {
          "internalType": "contract IContractRegistry",
          "name": "",
          "type": "address"
        }
      ],
      "stateMutability": "view",
      "type": "function"
    },
    {
      "inputs": [
        {
          "internalType": "address[]",
          "name": "_path",
          "type": "address[]"
        },
        {
          "internalType": "uint256",
          "name": "_amount",
          "type": "uint256"
        }
      ],
      "name": "rateByPath",
      "outputs": [
        {
          "internalType": "uint256",
          "name": "",
          "type": "uint256"
        }
      ],
      "stateMutability": "view",
      "type": "function"
    },
    {
      "inputs": [],
      "name": "registry",
      "outputs": [
        {
          "internalType": "contract IContractRegistry",
          "name": "",
          "type": "address"
        }
      ],
      "stateMutability": "view",
      "type": "function"
    },
    {
      "inputs": [],
      "name": "restoreRegistry",
      "outputs": [],
      "stateMutability": "nonpayable",
      "type": "function"
    },
    {
      "inputs": [
        {
          "internalType": "bool",
          "name": "_onlyOwnerCanUpdateRegistry",
          "type": "bool"
        }
      ],
      "name": "restrictRegistryUpdate",
      "outputs": [],
      "stateMutability": "nonpayable",
      "type": "function"
    },
    {
      "inputs": [
        {
          "internalType": "address",
          "name": "_newOwner",
          "type": "address"
        }
      ],
      "name": "transferOwnership",
      "outputs": [],
      "stateMutability": "nonpayable",
      "type": "function"
    },
    {
      "inputs": [],
      "name": "updateRegistry",
      "outputs": [],
      "stateMutability": "nonpayable",
      "type": "function"
    },
    {
      "inputs": [
        {
          "internalType": "contract IReserveToken",
          "name": "reserveToken",
          "type": "address"
        },
        {
          "internalType": "address payable",
          "name": "to",
          "type": "address"
        },
        {
          "internalType": "uint256",
          "name": "amount",
          "type": "uint256"
        }
      ],
      "name": "withdrawTokens",
      "outputs": [],
      "stateMutability": "nonpayable",
      "type": "function"
    },
    {
      "inputs": [
        {
          "internalType": "contract IReserveToken[]",
          "name": "reserveTokens",
          "type": "address[]"
        },
        {
          "internalType": "address payable",
          "name": "to",
          "type": "address"
        },
        {
          "internalType": "uint256[]",
          "name": "amounts",
          "type": "uint256[]"
        }
      ],
      "name": "withdrawTokensMultiple",
      "outputs": [],
      "stateMutability": "nonpayable",
      "type": "function"
    },
    {
      "inputs": [
        {
          "internalType": "address[]",
          "name": "_path",
          "type": "address[]"
        },
        {
          "internalType": "uint256",
          "name": "_amount",
          "type": "uint256"
        },
        {
          "internalType": "uint256",
          "name": "_minReturn",
          "type": "uint256"
        },
        {
          "internalType": "bytes32",
          "name": "_targetBlockchain",
          "type": "bytes32"
        },
        {
          "internalType": "bytes32",
          "name": "_targetAccount",
          "type": "bytes32"
        },
        {
          "internalType": "uint256",
          "name": "_conversionId",
          "type": "uint256"
        }
      ],
      "name": "xConvert",
      "outputs": [
        {
          "internalType": "uint256",
          "name": "",
          "type": "uint256"
        }
      ],
      "stateMutability": "payable",
      "type": "function"
    },
    {
      "stateMutability": "payable",
      "type": "receive"
    },
    {
      "inputs": [
        {
          "internalType": "contract IConverter",
          "name": "_converter",
          "type": "address"
        }
      ],
      "name": "isV28OrHigherConverterExternal",
      "outputs": [
        {
          "internalType": "bool",
          "name": "",
          "type": "bool"
        }
      ],
      "stateMutability": "view",
      "type": "function"
    },
    {
      "inputs": [],
      "name": "getReturnOld",
      "outputs": [
        {
          "internalType": "uint256",
          "name": "",
          "type": "uint256"
        },
        {
          "internalType": "uint256",
          "name": "",
          "type": "uint256"
        }
      ],
      "stateMutability": "view",
      "type": "function"
    },
    {
      "inputs": [],
      "name": "getReturnNew",
      "outputs": [
        {
          "internalType": "uint256",
          "name": "",
          "type": "uint256"
        },
        {
          "internalType": "uint256",
          "name": "",
          "type": "uint256"
        }
      ],
      "stateMutability": "view",
      "type": "function"
    }
  ],
  "bytecode": "0x608060405260016004553480156200001657600080fd5b506040516200589438038062005894833981810160405260408110156200003c57600080fd5b810190808051906020019092919080519060200190929190505050600180336000806101000a81548173ffffffffffffffffffffffffffffffffffffffff021916908373ffffffffffffffffffffffffffffffffffffffff16021790555080620000ac816200022f60201b60201c565b81600260006101000a81548173ffffffffffffffffffffffffffffffffffffffff021916908373ffffffffffffffffffffffffffffffffffffffff16021790555081600360006101000a81548173ffffffffffffffffffffffffffffffffffffffff021916908373ffffffffffffffffffffffffffffffffffffffff160217905550505050816040516200014090620002d6565b80828152602001915050604051809103906000f08015801562000167573d6000803e3d6000fd5b50600560006101000a81548173ffffffffffffffffffffffffffffffffffffffff021916908373ffffffffffffffffffffffffffffffffffffffff1602179055508181604051620001b890620002e4565b8083815260200182815260200192505050604051809103906000f080158015620001e6573d6000803e3d6000fd5b50600660006101000a81548173ffffffffffffffffffffffffffffffffffffffff021916908373ffffffffffffffffffffffffffffffffffffffff1602179055505050620002f2565b600073ffffffffffffffffffffffffffffffffffffffff168173ffffffffffffffffffffffffffffffffffffffff161415620002d3576040517f08c379a00000000000000000000000000000000000000000000000000000000081526004018080602001828103825260138152602001807f4552525f494e56414c49445f414444524553530000000000000000000000000081525060200191505060405180910390fd5b50565b61014980620055e183390190565b61016a806200572a83390190565b6152df80620003026000396000f3fe6080604052600436106101d15760003560e01c80638da5cb5b116100f7578063c7ba24bc11610095578063e57738e511610064578063e57738e51461121e578063f2fde38b14611335578063f3898a9714611386578063f8394fb714611466576101d8565b8063c7ba24bc14610f2a578063c98fefed14611017578063d4ee1d9014611117578063d734fa1914611158576101d8565b8063b1e9932b116100d1578063b1e9932b14610bde578063b4a176d314610ceb578063b77d239b14610d02578063c52173de14610e2c576101d8565b80638da5cb5b14610a4157806398e9574014610a82578063ab6214ce14610ab4576101d8565b8063569706eb1161016f57806379ba50971161013e57806379ba5097146107d95780637b103999146107f05780637f9c0ecd1461083157806389f9cc6114610914576101d8565b8063569706eb146105e15780635e35359e146106eb57806361cd756e14610766578063699e7546146107a7576101d8565b80630c8496cc116101ab5780630c8496cc1461037c5780632978c10e146104665780632fe8a6ad1461059d57806349d10b64146105ca576101d8565b8063024c7ec7146101dd57806303613f391461021a57806308506df714610281576101d8565b366101d857005b600080fd5b3480156101e957600080fd5b506102186004803603602081101561020057600080fd5b81019080803515159060200190929190505050611566565b005b34801561022657600080fd5b506102696004803603602081101561023d57600080fd5b81019080803573ffffffffffffffffffffffffffffffffffffffff16906020019092919050505061158b565b60405180821515815260200191505060405180910390f35b34801561028d57600080fd5b5061037a600480360360608110156102a457600080fd5b81019080803590602001906401000000008111156102c157600080fd5b8201836020820111156102d357600080fd5b803590602001918460208302840111640100000000831117156102f557600080fd5b9091929391929390803573ffffffffffffffffffffffffffffffffffffffff1690602001909291908035906020019064010000000081111561033657600080fd5b82018360208201111561034857600080fd5b8035906020019184602083028401116401000000008311171561036a57600080fd5b909192939192939050505061159d565b005b34801561038857600080fd5b506104496004803603604081101561039f57600080fd5b81019080803590602001906401000000008111156103bc57600080fd5b8201836020820111156103ce57600080fd5b803590602001918460208302840111640100000000831117156103f057600080fd5b919080806020026020016040519081016040528093929190818152602001838360200280828437600081840152601f19601f820116905080830192505050505050509192919290803590602001909291905050506116b4565b604051808381526020018281526020019250505060405180910390f35b34801561047257600080fd5b50610587600480360360c081101561048957600080fd5b81019080803590602001906401000000008111156104a657600080fd5b8201836020820111156104b857600080fd5b803590602001918460208302840111640100000000831117156104da57600080fd5b919080806020026020016040519081016040528093929190818152602001838360200280828437600081840152601f19601f8201169050808301925050505050505091929192908035906020019092919080359060200190929190803573ffffffffffffffffffffffffffffffffffffffff169060200190929190803573ffffffffffffffffffffffffffffffffffffffff169060200190929190803590602001909291905050506116ce565b6040518082815260200191505060405180910390f35b3480156105a957600080fd5b506105b26116e8565b60405180821515815260200191505060405180910390f35b3480156105d657600080fd5b506105df6116fb565b005b6106d5600480360360a08110156105f757600080fd5b810190808035906020019064010000000081111561061457600080fd5b82018360208201111561062657600080fd5b8035906020019184602083028401116401000000008311171561064857600080fd5b919080806020026020016040519081016040528093929190818152602001838360200280828437600081840152601f19601f8201169050808301925050505050505091929192908035906020019092919080359060200190929190803573ffffffffffffffffffffffffffffffffffffffff16906020019092919080359060200190929190505050611af3565b6040518082815260200191505060405180910390f35b3480156106f757600080fd5b506107646004803603606081101561070e57600080fd5b81019080803573ffffffffffffffffffffffffffffffffffffffff169060200190929190803573ffffffffffffffffffffffffffffffffffffffff16906020019092919080359060200190929190505050611b0d565b005b34801561077257600080fd5b5061077b611b50565b604051808273ffffffffffffffffffffffffffffffffffffffff16815260200191505060405180910390f35b3480156107b357600080fd5b506107bc611b76565b604051808381526020018281526020019250505060405180910390f35b3480156107e557600080fd5b506107ee611bb1565b005b3480156107fc57600080fd5b50610805611db6565b604051808273ffffffffffffffffffffffffffffffffffffffff16815260200191505060405180910390f35b34801561083d57600080fd5b506108fe6004803603604081101561085457600080fd5b810190808035906020019064010000000081111561087157600080fd5b82018360208201111561088357600080fd5b803590602001918460208302840111640100000000831117156108a557600080fd5b919080806020026020016040519081016040528093929190818152602001838360200280828437600081840152601f19601f82011690508083019250505050505050919291929080359060200190929190505050611ddc565b6040518082815260200191505060405180910390f35b34801561092057600080fd5b50610a2b600480360360a081101561093757600080fd5b810190808035906020019064010000000081111561095457600080fd5b82018360208201111561096657600080fd5b8035906020019184602083028401116401000000008311171561098857600080fd5b919080806020026020016040519081016040528093929190818152602001838360200280828437600081840152601f19601f820116905080830192505050505050509192919290803573ffffffffffffffffffffffffffffffffffffffff1690602001909291908035906020019092919080359060200190929190803573ffffffffffffffffffffffffffffffffffffffff1690602001909291905050506127d2565b6040518082815260200191505060405180910390f35b348015610a4d57600080fd5b50610a566129cf565b604051808273ffffffffffffffffffffffffffffffffffffffff16815260200191505060405180910390f35b348015610a8e57600080fd5b50610a976129f3565b604051808381526020018281526020019250505060405180910390f35b610bc8600480360360c0811015610aca57600080fd5b8101908080359060200190640100000000811115610ae757600080fd5b820183602082011115610af957600080fd5b80359060200191846020830284011164010000000083111715610b1b57600080fd5b919080806020026020016040519081016040528093929190818152602001838360200280828437600081840152601f19601f8201169050808301925050505050505091929192908035906020019092919080359060200190929190803573ffffffffffffffffffffffffffffffffffffffff169060200190929190803573ffffffffffffffffffffffffffffffffffffffff16906020019092919080359060200190929190505050612a2e565b6040518082815260200191505060405180910390f35b348015610bea57600080fd5b50610cd560048036036080811015610c0157600080fd5b8101908080359060200190640100000000811115610c1e57600080fd5b820183602082011115610c3057600080fd5b80359060200191846020830284011164010000000083111715610c5257600080fd5b919080806020026020016040519081016040528093929190818152602001838360200280828437600081840152601f19601f8201169050808301925050505050505091929192908035906020019092919080359060200190929190803573ffffffffffffffffffffffffffffffffffffffff169060200190929190505050612a53565b6040518082815260200191505060405180910390f35b348015610cf757600080fd5b50610d00612a6b565b005b610e16600480360360c0811015610d1857600080fd5b8101908080359060200190640100000000811115610d3557600080fd5b820183602082011115610d4757600080fd5b80359060200191846020830284011164010000000083111715610d6957600080fd5b919080806020026020016040519081016040528093929190818152602001838360200280828437600081840152601f19601f8201169050808301925050505050505091929192908035906020019092919080359060200190929190803573ffffffffffffffffffffffffffffffffffffffff169060200190929190803573ffffffffffffffffffffffffffffffffffffffff16906020019092919080359060200190929190505050612ad8565b6040518082815260200191505060405180910390f35b610f14600480360360c0811015610e4257600080fd5b8101908080359060200190640100000000811115610e5f57600080fd5b820183602082011115610e7157600080fd5b80359060200191846020830284011164010000000083111715610e9357600080fd5b919080806020026020016040519081016040528093929190818152602001838360200280828437600081840152601f19601f8201169050808301925050505050505091929192908035906020019092919080359060200190929190803590602001909291908035906020019092919080359060200190929190505050612af2565b6040518082815260200191505060405180910390f35b348015610f3657600080fd5b5061100160048036036060811015610f4d57600080fd5b8101908080359060200190640100000000811115610f6a57600080fd5b820183602082011115610f7c57600080fd5b80359060200191846020830284011164010000000083111715610f9e57600080fd5b919080806020026020016040519081016040528093929190818152602001838360200280828437600081840152601f19601f8201169050808301925050505050505091929192908035906020019092919080359060200190929190505050612cdf565b6040518082815260200191505060405180910390f35b6111016004803603608081101561102d57600080fd5b810190808035906020019064010000000081111561104a57600080fd5b82018360208201111561105c57600080fd5b8035906020019184602083028401116401000000008311171561107e57600080fd5b919080806020026020016040519081016040528093929190818152602001838360200280828437600081840152601f19601f8201169050808301925050505050505091929192908035906020019092919080359060200190929190803573ffffffffffffffffffffffffffffffffffffffff169060200190929190505050612cf7565b6040518082815260200191505060405180910390f35b34801561112357600080fd5b5061112c612d0f565b604051808273ffffffffffffffffffffffffffffffffffffffff16815260200191505060405180910390f35b34801561116457600080fd5b506111c76004803603604081101561117b57600080fd5b81019080803573ffffffffffffffffffffffffffffffffffffffff169060200190929190803573ffffffffffffffffffffffffffffffffffffffff169060200190929190505050612d35565b6040518080602001828103825283818151815260200191508051906020019060200280838360005b8381101561120a5780820151818401526020810190506111ef565b505050509050019250505060405180910390f35b34801561122a57600080fd5b5061131f600480360360a081101561124157600080fd5b810190808035906020019064010000000081111561125e57600080fd5b82018360208201111561127057600080fd5b8035906020019184602083028401116401000000008311171561129257600080fd5b919080806020026020016040519081016040528093929190818152602001838360200280828437600081840152601f19601f8201169050808301925050505050505091929192908035906020019092919080359060200190929190803573ffffffffffffffffffffffffffffffffffffffff16906020019092919080359060200190929190505050612ec7565b6040518082815260200191505060405180910390f35b34801561134157600080fd5b506113846004803603602081101561135857600080fd5b81019080803573ffffffffffffffffffffffffffffffffffffffff169060200190929190505050612ee1565b005b6114506004803603606081101561139c57600080fd5b81019080803590602001906401000000008111156113b957600080fd5b8201836020820111156113cb57600080fd5b803590602001918460208302840111640100000000831117156113ed57600080fd5b919080806020026020016040519081016040528093929190818152602001838360200280828437600081840152601f19601f8201169050808301925050505050505091929192908035906020019092919080359060200190929190505050612fef565b6040518082815260200191505060405180910390f35b6115506004803603608081101561147c57600080fd5b810190808035906020019064010000000081111561149957600080fd5b8201836020820111156114ab57600080fd5b803590602001918460208302840111640100000000831117156114cd57600080fd5b919080806020026020016040519081016040528093929190818152602001838360200280828437600081840152601f19601f8201169050808301925050505050505091929192908035906020019092919080359060200190929190803573ffffffffffffffffffffffffffffffffffffffff169060200190929190505050613007565b6040518082815260200191505060405180910390f35b61156e613160565b80600360146101000a81548160ff02191690831515021790555050565b600061159682613223565b9050919050565b6115a5613160565b826115af816133ba565b600086869050905083839050811461162f576040517f08c379a00000000000000000000000000000000000000000000000000000000081526004018080602001828103825260128152602001807f4552525f494e56414c49445f4c454e475448000000000000000000000000000081525060200191505060405180910390fd5b60005b818110156116aa5761169f8686868481811061164a57fe5b905060200201358a8a8581811061165d57fe5b9050602002013573ffffffffffffffffffffffffffffffffffffffff1673ffffffffffffffffffffffffffffffffffffffff166134609092919063ffffffff16565b806001019050611632565b5050505050505050565b6000806116c18484611ddc565b6000915091509250929050565b60006116dc87878787613007565b90509695505050505050565b600360149054906101000a900460ff1681565b60008054906101000a900473ffffffffffffffffffffffffffffffffffffffff1673ffffffffffffffffffffffffffffffffffffffff163373ffffffffffffffffffffffffffffffffffffffff1614806117625750600360149054906101000a900460ff16155b6117d4576040517f08c379a00000000000000000000000000000000000000000000000000000000081526004018080602001828103825260118152602001807f4552525f4143434553535f44454e49454400000000000000000000000000000081525060200191505060405180910390fd5b60006117ff7f436f6e7472616374526567697374727900000000000000000000000000000000613502565b9050600260009054906101000a900473ffffffffffffffffffffffffffffffffffffffff1673ffffffffffffffffffffffffffffffffffffffff168173ffffffffffffffffffffffffffffffffffffffff161415801561188c5750600073ffffffffffffffffffffffffffffffffffffffff168173ffffffffffffffffffffffffffffffffffffffff1614155b6118fe576040517f08c379a00000000000000000000000000000000000000000000000000000000081526004018080602001828103825260148152602001807f4552525f494e56414c49445f524547495354525900000000000000000000000081525060200191505060405180910390fd5b600073ffffffffffffffffffffffffffffffffffffffff168173ffffffffffffffffffffffffffffffffffffffff1663bb34534c7f436f6e74726163745265676973747279000000000000000000000000000000006040518263ffffffff1660e01b81526004018082815260200191505060206040518083038186803b15801561198757600080fd5b505afa15801561199b573d6000803e3d6000fd5b505050506040513d60208110156119b157600080fd5b810190808051906020019092919050505073ffffffffffffffffffffffffffffffffffffffff161415611a4c576040517f08c379a00000000000000000000000000000000000000000000000000000000081526004018080602001828103825260148152602001807f4552525f494e56414c49445f524547495354525900000000000000000000000081525060200191505060405180910390fd5b600260009054906101000a900473ffffffffffffffffffffffffffffffffffffffff16600360006101000a81548173ffffffffffffffffffffffffffffffffffffffff021916908373ffffffffffffffffffffffffffffffffffffffff16021790555080600260006101000a81548173ffffffffffffffffffffffffffffffffffffffff021916908373ffffffffffffffffffffffffffffffffffffffff16021790555050565b6000611b028686866000613007565b905095945050505050565b611b15613160565b81611b1f816133ba565b611b4a83838673ffffffffffffffffffffffffffffffffffffffff166134609092919063ffffffff16565b50505050565b600360009054906101000a900473ffffffffffffffffffffffffffffffffffffffff1681565b600080611ba9600660009054906101000a900473ffffffffffffffffffffffffffffffffffffffff1660008060006135b9565b915091509091565b600160009054906101000a900473ffffffffffffffffffffffffffffffffffffffff1673ffffffffffffffffffffffffffffffffffffffff163373ffffffffffffffffffffffffffffffffffffffff1614611c74576040517f08c379a00000000000000000000000000000000000000000000000000000000081526004018080602001828103825260118152602001807f4552525f4143434553535f44454e49454400000000000000000000000000000081525060200191505060405180910390fd5b600160009054906101000a900473ffffffffffffffffffffffffffffffffffffffff1673ffffffffffffffffffffffffffffffffffffffff1660008054906101000a900473ffffffffffffffffffffffffffffffffffffffff1673ffffffffffffffffffffffffffffffffffffffff167f343765429aea5a34b3ff6a3785a98a5abb2597aca87bfbb58632c173d585373a60405160405180910390a3600160009054906101000a900473ffffffffffffffffffffffffffffffffffffffff166000806101000a81548173ffffffffffffffffffffffffffffffffffffffff021916908373ffffffffffffffffffffffffffffffffffffffff1602179055506000600160006101000a81548173ffffffffffffffffffffffffffffffffffffffff021916908373ffffffffffffffffffffffffffffffffffffffff160217905550565b600260009054906101000a900473ffffffffffffffffffffffffffffffffffffffff1681565b600080600080600080600080611e117f42616e636f72466f726d756c6100000000000000000000000000000000000000613502565b905088965060028a51118015611e325750600160028b5181611e2f57fe5b06145b611ea4576040517f08c379a00000000000000000000000000000000000000000000000000000000081526004018080602001828103825260108152602001807f4552525f494e56414c49445f504154480000000000000000000000000000000081525060200191505060405180910390fd5b6000600290505b8a518110156127c15760008b6002830381518110611ec557fe5b6020026020010151905060008c6001840381518110611ee057fe5b6020026020010151905060008d8481518110611ef857fe5b602002602001015190508173ffffffffffffffffffffffffffffffffffffffff16638da5cb5b6040518163ffffffff1660e01b815260040160206040518083038186803b158015611f4857600080fd5b505afa158015611f5c573d6000803e3d6000fd5b505050506040513d6020811015611f7257600080fd5b810190808051906020019092919050505095508173ffffffffffffffffffffffffffffffffffffffff168173ffffffffffffffffffffffffffffffffffffffff16141561239157600384108061200a57508d6003850381518110611fd257fe5b602002602001015173ffffffffffffffffffffffffffffffffffffffff168273ffffffffffffffffffffffffffffffffffffffff1614155b15612093578173ffffffffffffffffffffffffffffffffffffffff166318160ddd6040518163ffffffff1660e01b815260040160206040518083038186803b15801561205557600080fd5b505afa158015612069573d6000803e3d6000fd5b505050506040513d602081101561207f57600080fd5b810190808051906020019092919050505098505b8573ffffffffffffffffffffffffffffffffffffffff1663d8959512846040518263ffffffff1660e01b8152600401808273ffffffffffffffffffffffffffffffffffffffff16815260200191505060206040518083038186803b1580156120fa57600080fd5b505afa15801561210e573d6000803e3d6000fd5b505050506040513d602081101561212457600080fd5b810190808051906020019092919050505097508573ffffffffffffffffffffffffffffffffffffffff16630e53aae9846040518263ffffffff1660e01b8152600401808273ffffffffffffffffffffffffffffffffffffffff16815260200191505060a06040518083038186803b15801561219e57600080fd5b505afa1580156121b2573d6000803e3d6000fd5b505050506040513d60a08110156121c857600080fd5b8101908080519060200190929190805190602001909291908051906020019092919080519060200190929190805190602001909291905050509091929350909150905050809750508473ffffffffffffffffffffffffffffffffffffffff1663f3250fe28a8a8a8f6040518563ffffffff1660e01b8152600401808581526020018481526020018363ffffffff16815260200182815260200194505050505060206040518083038186803b15801561227f57600080fd5b505afa158015612293573d6000803e3d6000fd5b505050506040513d60208110156122a957600080fd5b81019080805190602001909291905050509a50612370620f424063ffffffff166123628873ffffffffffffffffffffffffffffffffffffffff1663579cd3ca6040518163ffffffff1660e01b815260040160206040518083038186803b15801561231257600080fd5b505afa158015612326573d6000803e3d6000fd5b505050506040513d602081101561233c57600080fd5b810190808051906020019092919050505063ffffffff168e6137e390919063ffffffff16565b61386990919063ffffffff16565b9950898b039a5061238a8b8a6138f290919063ffffffff16565b98506127b3565b8173ffffffffffffffffffffffffffffffffffffffff168373ffffffffffffffffffffffffffffffffffffffff16141561279d57600384108061241657508d60038503815181106123de57fe5b602002602001015173ffffffffffffffffffffffffffffffffffffffff168273ffffffffffffffffffffffffffffffffffffffff1614155b1561249f578173ffffffffffffffffffffffffffffffffffffffff166318160ddd6040518163ffffffff1660e01b815260040160206040518083038186803b15801561246157600080fd5b505afa158015612475573d6000803e3d6000fd5b505050506040513d602081101561248b57600080fd5b810190808051906020019092919050505098505b8573ffffffffffffffffffffffffffffffffffffffff1663d8959512826040518263ffffffff1660e01b8152600401808273ffffffffffffffffffffffffffffffffffffffff16815260200191505060206040518083038186803b15801561250657600080fd5b505afa15801561251a573d6000803e3d6000fd5b505050506040513d602081101561253057600080fd5b810190808051906020019092919050505097508573ffffffffffffffffffffffffffffffffffffffff16630e53aae9826040518263ffffffff1660e01b8152600401808273ffffffffffffffffffffffffffffffffffffffff16815260200191505060a06040518083038186803b1580156125aa57600080fd5b505afa1580156125be573d6000803e3d6000fd5b505050506040513d60a08110156125d457600080fd5b8101908080519060200190929190805190602001909291908051906020019092919080519060200190929190805190602001909291905050509091929350909150905050809750508473ffffffffffffffffffffffffffffffffffffffff166376cf0b568a8a8a8f6040518563ffffffff1660e01b8152600401808581526020018481526020018363ffffffff16815260200182815260200194505050505060206040518083038186803b15801561268b57600080fd5b505afa15801561269f573d6000803e3d6000fd5b505050506040513d60208110156126b557600080fd5b81019080805190602001909291905050509a5061277c620f424063ffffffff1661276e8873ffffffffffffffffffffffffffffffffffffffff1663579cd3ca6040518163ffffffff1660e01b815260040160206040518083038186803b15801561271e57600080fd5b505afa158015612732573d6000803e3d6000fd5b505050506040513d602081101561274857600080fd5b810190808051906020019092919050505063ffffffff168e6137e390919063ffffffff16565b61386990919063ffffffff16565b9950898b039a506127968b8a61397a90919063ffffffff16565b98506127b2565b6127a98684838e6135b9565b809b50819c5050505b5b505050600281019050611eab565b508697505050505050505092915050565b60008473ffffffffffffffffffffffffffffffffffffffff1663fc0c546a6040518163ffffffff1660e01b815260040160206040518083038186803b15801561281a57600080fd5b505afa15801561282e573d6000803e3d6000fd5b505050506040513d602081101561284457600080fd5b810190808051906020019092919050505073ffffffffffffffffffffffffffffffffffffffff168660008151811061287857fe5b602002602001015173ffffffffffffffffffffffffffffffffffffffff1614612909576040517f08c379a00000000000000000000000000000000000000000000000000000000081526004018080602001828103825260188152602001807f4552525f494e56414c49445f534f555243455f544f4b454e000000000000000081525060200191505060405180910390fd5b60008573ffffffffffffffffffffffffffffffffffffffff1663aafd6b7686336040518363ffffffff1660e01b8152600401808381526020018273ffffffffffffffffffffffffffffffffffffffff1681526020019250505060206040518083038186803b15801561297a57600080fd5b505afa15801561298e573d6000803e3d6000fd5b505050506040513d60208110156129a457600080fd5b810190808051906020019092919050505090506129c387828686613007565b91505095945050505050565b60008054906101000a900473ffffffffffffffffffffffffffffffffffffffff1681565b600080612a26600560009054906101000a900473ffffffffffffffffffffffffffffffffffffffff1660008060006135b9565b915091509091565b600084612a3a816139fd565b612a4688888888613007565b9150509695505050505050565b6000612a6185858585613007565b9050949350505050565b612a73613160565b600360009054906101000a900473ffffffffffffffffffffffffffffffffffffffff16600260006101000a81548173ffffffffffffffffffffffffffffffffffffffff021916908373ffffffffffffffffffffffffffffffffffffffff160217905550565b6000612ae687878787613007565b90509695505050505050565b600084612afe816139fd565b60008860018a510381518110612b1057fe5b602002602001015190506000612b457f42616e636f725800000000000000000000000000000000000000000000000000613502565b9050612b707f424e54546f6b656e000000000000000000000000000000000000000000000000613502565b73ffffffffffffffffffffffffffffffffffffffff168273ffffffffffffffffffffffffffffffffffffffff1614612c10576040517f08c379a00000000000000000000000000000000000000000000000000000000081526004018080602001828103825260188152602001807f4552525f494e56414c49445f5441524745545f544f4b454e000000000000000081525060200191505060405180910390fd5b6000612c1e8b8b8b30613007565b9050612c4b82828573ffffffffffffffffffffffffffffffffffffffff16613a769092919063ffffffff16565b8173ffffffffffffffffffffffffffffffffffffffff1663427c03748989848a6040518563ffffffff1660e01b815260040180858152602001848152602001838152602001828152602001945050505050600060405180830381600087803b158015612cb657600080fd5b505af1158015612cca573d6000803e3d6000fd5b50505050809450505050509695505050505050565b6000612cee8484846000613007565b90509392505050565b6000612d0585858585613007565b9050949350505050565b600160009054906101000a900473ffffffffffffffffffffffffffffffffffffffff1681565b60606000612d627f436f6e76657273696f6e5061746846696e646572000000000000000000000000613502565b90508073ffffffffffffffffffffffffffffffffffffffff1663a1c421cd85856040518363ffffffff1660e01b8152600401808373ffffffffffffffffffffffffffffffffffffffff1681526020018273ffffffffffffffffffffffffffffffffffffffff1681526020019250505060006040518083038186803b158015612de957600080fd5b505afa158015612dfd573d6000803e3d6000fd5b505050506040513d6000823e3d601f19601f820116820180604052506020811015612e2757600080fd5b8101908080516040519392919084640100000000821115612e4757600080fd5b83820191506020820185811115612e5d57600080fd5b8251866020820283011164010000000082111715612e7a57600080fd5b8083526020830192505050908051906020019060200280838360005b83811015612eb1578082015181840152602081019050612e96565b5050505090500160405250505091505092915050565b6000612ed68686866000613007565b905095945050505050565b612ee9613160565b60008054906101000a900473ffffffffffffffffffffffffffffffffffffffff1673ffffffffffffffffffffffffffffffffffffffff168173ffffffffffffffffffffffffffffffffffffffff161415612fab576040517f08c379a000000000000000000000000000000000000000000000000000000000815260040180806020018281038252600e8152602001807f4552525f53414d455f4f574e455200000000000000000000000000000000000081525060200191505060405180910390fd5b80600160006101000a81548173ffffffffffffffffffffffffffffffffffffffff021916908373ffffffffffffffffffffffffffffffffffffffff16021790555050565b6000612ffe8484846000613007565b90509392505050565b6000613011613ac2565b600260048190555082613023816139fd565b6002865111801561303f57506001600287518161303c57fe5b06145b6130b1576040517f08c379a00000000000000000000000000000000000000000000000000000000081526004018080602001828103825260108152602001807f4552525f494e56414c49445f504154480000000000000000000000000000000081525060200191505060405180910390fd5b6130e4866000815181106130c157fe5b6020026020010151876001815181106130d657fe5b602002602001015187613b3c565b6000339050600073ffffffffffffffffffffffffffffffffffffffff168473ffffffffffffffffffffffffffffffffffffffff1614613121578390505b606061312d8883613e55565b9050600061313c8289896141f0565b90506131498282856147ed565b809450505050506001600481905550949350505050565b60008054906101000a900473ffffffffffffffffffffffffffffffffffffffff1673ffffffffffffffffffffffffffffffffffffffff163373ffffffffffffffffffffffffffffffffffffffff1614613221576040517f08c379a00000000000000000000000000000000000000000000000000000000081526004018080602001828103825260118152602001807f4552525f4143434553535f44454e49454400000000000000000000000000000081525060200191505060405180910390fd5b565b600060607fd260529c8620a59d78f2e58cfd1294673bb6cba228ad1f34ac7731003ab870dd604051602401604051602081830303815290604052907bffffffffffffffffffffffffffffffffffffffffffffffffffffffff19166020820180517bffffffffffffffffffffffffffffffffffffffffffffffffffffffff83818316178352505050509050600060608473ffffffffffffffffffffffffffffffffffffffff16610fa0846040518082805190602001908083835b602083106132ff57805182526020820191506020810190506020830392506132dc565b6001836020036101000a0380198251168184511680821785525050505050509050019150506000604051808303818686fa925050503d8060008114613360576040519150601f19603f3d011682016040523d82523d6000602084013e613365565b606091505b5091509150818015613378575060208151145b156133ad5780806020019051602081101561339257600080fd5b810190808051906020019092919050505093505050506133b5565b600093505050505b919050565b600073ffffffffffffffffffffffffffffffffffffffff168173ffffffffffffffffffffffffffffffffffffffff16141561345d576040517f08c379a00000000000000000000000000000000000000000000000000000000081526004018080602001828103825260138152602001807f4552525f494e56414c49445f414444524553530000000000000000000000000081525060200191505060405180910390fd5b50565b600081141561346e576134fd565b613477836148ae565b156134c8578173ffffffffffffffffffffffffffffffffffffffff166108fc829081150290604051600060405180830381858888f193505050501580156134c2573d6000803e3d6000fd5b506134fc565b6134fb82826134d6866148fa565b73ffffffffffffffffffffffffffffffffffffffff166149049092919063ffffffff16565b5b5b505050565b6000600260009054906101000a900473ffffffffffffffffffffffffffffffffffffffff1673ffffffffffffffffffffffffffffffffffffffff1663bb34534c836040518263ffffffff1660e01b81526004018082815260200191505060206040518083038186803b15801561357757600080fd5b505afa15801561358b573d6000803e3d6000fd5b505050506040513d60208110156135a157600080fd5b81019080805190602001909291905050509050919050565b60008060607f1e1401f8329fe5eb5c7e76277d3c971ffeee3a41a0eef7c00afeb0a286cef0af868686604051602401808473ffffffffffffffffffffffffffffffffffffffff1681526020018373ffffffffffffffffffffffffffffffffffffffff1681526020018281526020019350505050604051602081830303815290604052907bffffffffffffffffffffffffffffffffffffffffffffffffffffffff19166020820180517bffffffffffffffffffffffffffffffffffffffffffffffffffffffff83818316178352505050509050600060608873ffffffffffffffffffffffffffffffffffffffff16836040518082805190602001908083835b602083106136da57805182526020820191506020810190506020830392506136b7565b6001836020036101000a038019825116818451168082178552505050505050905001915050600060405180830381855afa9150503d806000811461373a576040519150601f19603f3d011682016040523d82523d6000602084013e61373f565b606091505b509150915081156137cf576040815114156137905780806020019051604081101561376957600080fd5b810190808051906020019092919080519060200190929190505050945094505050506137da565b6020815114156137ce578080602001905160208110156137af57600080fd5b81019080805190602001909291905050506000945094505050506137da565b5b600080945094505050505b94509492505050565b6000808314156137f65760009050613863565b600082840290508284828161380757fe5b041461385e576040517f08c379a00000000000000000000000000000000000000000000000000000000081526004018080602001828103825260218152602001806152296021913960400191505060405180910390fd5b809150505b92915050565b60008082116138e0576040517f08c379a000000000000000000000000000000000000000000000000000000000815260040180806020018281038252601a8152602001807f536166654d6174683a206469766973696f6e206279207a65726f00000000000081525060200191505060405180910390fd5b8183816138e957fe5b04905092915050565b600080828401905083811015613970576040517f08c379a000000000000000000000000000000000000000000000000000000000815260040180806020018281038252601b8152602001807f536166654d6174683a206164646974696f6e206f766572666c6f77000000000081525060200191505060405180910390fd5b8091505092915050565b6000828211156139f2576040517f08c379a000000000000000000000000000000000000000000000000000000000815260040180806020018281038252601e8152602001807f536166654d6174683a207375627472616374696f6e206f766572666c6f77000081525060200191505060405180910390fd5b818303905092915050565b60008111613a73576040517f08c379a000000000000000000000000000000000000000000000000000000000815260040180806020018281038252600e8152602001807f4552525f5a45524f5f56414c554500000000000000000000000000000000000081525060200191505060405180910390fd5b50565b613a7f836148ae565b15613a8957613abd565b613abc8282613a97866148fa565b73ffffffffffffffffffffffffffffffffffffffff166149a69092919063ffffffff16565b5b505050565b600160045414613b3a576040517f08c379a000000000000000000000000000000000000000000000000000000000815260040180806020018281038252600e8152602001807f4552525f5245454e5452414e435900000000000000000000000000000000000081525060200191505060405180910390fd5b565b60008273ffffffffffffffffffffffffffffffffffffffff16638da5cb5b6040518163ffffffff1660e01b815260040160206040518083038186803b158015613b8457600080fd5b505afa158015613b98573d6000803e3d6000fd5b505050506040513d6020811015613bae57600080fd5b810190808051906020019092919050505090506000613bcc82613223565b90506000341115613d5557823414613c4c576040517f08c379a00000000000000000000000000000000000000000000000000000000081526004018080602001828103825260178152602001807f4552525f4554485f414d4f554e545f4d49534d4154434800000000000000000081525060200191505060405180910390fd5b613c6b8573ffffffffffffffffffffffffffffffffffffffff166148ae565b613cdd576040517f08c379a00000000000000000000000000000000000000000000000000000000081526004018080602001828103825260188152602001807f4552525f494e56414c49445f534f555243455f544f4b454e000000000000000081525060200191505060405180910390fd5b80613d50576040517f08c379a000000000000000000000000000000000000000000000000000000000815260040180806020018281038252601b8152602001807f4552525f434f4e5645525445525f4e4f545f535550504f52544544000000000081525060200191505060405180910390fd5b613e4e565b613d748573ffffffffffffffffffffffffffffffffffffffff166148ae565b15613de7576040517f08c379a00000000000000000000000000000000000000000000000000000000081526004018080602001828103825260188152602001807f4552525f494e56414c49445f534f555243455f544f4b454e000000000000000081525060200191505060405180910390fd5b8015613e1f57613e1a3383858873ffffffffffffffffffffffffffffffffffffffff16614aed909392919063ffffffff16565b613e4d565b613e4c3330858873ffffffffffffffffffffffffffffffffffffffff16614aed909392919063ffffffff16565b5b5b5050505050565b6060806002845181613e6357fe5b0467ffffffffffffffff81118015613e7a57600080fd5b50604051908082528060200260200182016040528015613eb457816020015b613ea161515c565b815260200190600190039081613e995790505b50905060005b6001855103811015614069576000856001830181518110613ed757fe5b6020026020010151905060008173ffffffffffffffffffffffffffffffffffffffff16638da5cb5b6040518163ffffffff1660e01b815260040160206040518083038186803b158015613f2957600080fd5b505afa158015613f3d573d6000803e3d6000fd5b505050506040513d6020811015613f5357600080fd5b810190808051906020019092919050505090506000876002850181518110613f7757fe5b602002602001015190506040518060c001604052808373ffffffffffffffffffffffffffffffffffffffff1681526020018473ffffffffffffffffffffffffffffffffffffffff168152602001898681518110613fd057fe5b602002602001015173ffffffffffffffffffffffffffffffffffffffff1681526020018273ffffffffffffffffffffffffffffffffffffffff168152602001600073ffffffffffffffffffffffffffffffffffffffff16815260200161403584613223565b1515815250856002868161404557fe5b048151811061405057fe5b6020026020010181905250505050600281019050613eba565b600090505b81518110156141e55761407f61515c565b82828151811061408b57fe5b602002602001015190508060a001511561419e5760018351038214156140e85784816080019073ffffffffffffffffffffffffffffffffffffffff16908173ffffffffffffffffffffffffffffffffffffffff1681525050614199565b8260018301815181106140f757fe5b602002602001015160a001511561415f5782600183018151811061411757fe5b602002602001015160000151816080019073ffffffffffffffffffffffffffffffffffffffff16908173ffffffffffffffffffffffffffffffffffffffff1681525050614198565b30816080019073ffffffffffffffffffffffffffffffffffffffff16908173ffffffffffffffffffffffffffffffffffffffff16815250505b5b6141d7565b30816080019073ffffffffffffffffffffffffffffffffffffffff16908173ffffffffffffffffffffffffffffffffffffffff16815250505b50808060010191505061406e565b819250505092915050565b600080600084905060005b865181101561476a5761420c61515c565b87828151811061421857fe5b602002602001015190508060a00151156142ec576000821415801561428257503073ffffffffffffffffffffffffffffffffffffffff1688600184038151811061425e57fe5b60200260200101516080015173ffffffffffffffffffffffffffffffffffffffff16145b80156142ae57506142ac816040015173ffffffffffffffffffffffffffffffffffffffff166148ae565b155b156142e7576142e6816000015184836040015173ffffffffffffffffffffffffffffffffffffffff166134609092919063ffffffff16565b5b61435c565b806020015173ffffffffffffffffffffffffffffffffffffffff16816040015173ffffffffffffffffffffffffffffffffffffffff161461435b5761435a816000015184836040015173ffffffffffffffffffffffffffffffffffffffff16613a769092919063ffffffff16565b5b5b8060a0015161444b57806000015173ffffffffffffffffffffffffffffffffffffffff16635e5144eb826040015183606001518660016040518563ffffffff1660e01b8152600401808573ffffffffffffffffffffffffffffffffffffffff1681526020018473ffffffffffffffffffffffffffffffffffffffff168152602001838152602001828152602001945050505050602060405180830381600087803b15801561440957600080fd5b505af115801561441d573d6000803e3d6000fd5b505050506040513d602081101561443357600080fd5b810190808051906020019092919050505093506146ab565b61446e816040015173ffffffffffffffffffffffffffffffffffffffff166148ae565b1561459157806000015173ffffffffffffffffffffffffffffffffffffffff1663e8dc12ff3483604001518460600151873387608001516040518763ffffffff1660e01b8152600401808673ffffffffffffffffffffffffffffffffffffffff1681526020018573ffffffffffffffffffffffffffffffffffffffff1681526020018481526020018373ffffffffffffffffffffffffffffffffffffffff1681526020018273ffffffffffffffffffffffffffffffffffffffff168152602001955050505050506020604051808303818588803b15801561454e57600080fd5b505af1158015614562573d6000803e3d6000fd5b50505050506040513d602081101561457957600080fd5b810190808051906020019092919050505093506146aa565b806000015173ffffffffffffffffffffffffffffffffffffffff1663e8dc12ff82604001518360600151863386608001516040518663ffffffff1660e01b8152600401808673ffffffffffffffffffffffffffffffffffffffff1681526020018573ffffffffffffffffffffffffffffffffffffffff1681526020018481526020018373ffffffffffffffffffffffffffffffffffffffff1681526020018273ffffffffffffffffffffffffffffffffffffffff16815260200195505050505050602060405180830381600087803b15801561466c57600080fd5b505af1158015614680573d6000803e3d6000fd5b505050506040513d602081101561469657600080fd5b810190808051906020019092919050505093505b5b806060015173ffffffffffffffffffffffffffffffffffffffff16816040015173ffffffffffffffffffffffffffffffffffffffff16826020015173ffffffffffffffffffffffffffffffffffffffff167f7154b38b5dd31bb3122436a96d4e09aba5b323ae1fd580025fab55074334c095868833604051808481526020018381526020018273ffffffffffffffffffffffffffffffffffffffff168152602001935050505060405180910390a48392505080806001019150506141fb565b50838210156147e1576040517f08c379a00000000000000000000000000000000000000000000000000000000081526004018080602001828103825260128152602001807f4552525f52455455524e5f544f4f5f4c4f57000000000000000000000000000081525060200191505060405180910390fd5b81925050509392505050565b6147f561515c565b8360018551038151811061480557fe5b602002602001015190503073ffffffffffffffffffffffffffffffffffffffff16816080015173ffffffffffffffffffffffffffffffffffffffff161461484c57506148a9565b6000816060015190506148748173ffffffffffffffffffffffffffffffffffffffff166148ae565b1561487b57fe5b6148a683858373ffffffffffffffffffffffffffffffffffffffff166134609092919063ffffffff16565b50505b505050565b600073eeeeeeeeeeeeeeeeeeeeeeeeeeeeeeeeeeeeeeee73ffffffffffffffffffffffffffffffffffffffff168273ffffffffffffffffffffffffffffffffffffffff16149050919050565b6000819050919050565b6149a18363a9059cbb60e01b8484604051602401808373ffffffffffffffffffffffffffffffffffffffff16815260200182815260200192505050604051602081830303815290604052907bffffffffffffffffffffffffffffffffffffffffffffffffffffffff19166020820180517bffffffffffffffffffffffffffffffffffffffffffffffffffffffff8381831617835250505050614b47565b505050565b60008114156149b457614ae8565b60008373ffffffffffffffffffffffffffffffffffffffff1663dd62ed3e30856040518363ffffffff1660e01b8152600401808373ffffffffffffffffffffffffffffffffffffffff1681526020018273ffffffffffffffffffffffffffffffffffffffff1681526020019250505060206040518083038186803b158015614a3b57600080fd5b505afa158015614a4f573d6000803e3d6000fd5b505050506040513d6020811015614a6557600080fd5b81019080805190602001909291905050509050818110614a855750614ae8565b6000811115614abb57614aba8360008673ffffffffffffffffffffffffffffffffffffffff16614c369092919063ffffffff16565b5b614ae683838673ffffffffffffffffffffffffffffffffffffffff16614c369092919063ffffffff16565b505b505050565b6000811480614b015750614b00846148ae565b5b15614b0b57614b41565b614b40838383614b1a886148fa565b73ffffffffffffffffffffffffffffffffffffffff16614dfb909392919063ffffffff16565b5b50505050565b6060614ba9826040518060400160405280602081526020017f5361666545524332303a206c6f772d6c6576656c2063616c6c206661696c65648152508573ffffffffffffffffffffffffffffffffffffffff16614ebc9092919063ffffffff16565b9050600081511115614c3157808060200190516020811015614bca57600080fd5b8101908080519060200190929190505050614c30576040517f08c379a000000000000000000000000000000000000000000000000000000000815260040180806020018281038252602a81526020018061524a602a913960400191505060405180910390fd5b5b505050565b6000811480614d04575060008373ffffffffffffffffffffffffffffffffffffffff1663dd62ed3e30856040518363ffffffff1660e01b8152600401808373ffffffffffffffffffffffffffffffffffffffff1681526020018273ffffffffffffffffffffffffffffffffffffffff1681526020019250505060206040518083038186803b158015614cc757600080fd5b505afa158015614cdb573d6000803e3d6000fd5b505050506040513d6020811015614cf157600080fd5b8101908080519060200190929190505050145b614d59576040517f08c379a00000000000000000000000000000000000000000000000000000000081526004018080602001828103825260368152602001806152746036913960400191505060405180910390fd5b614df68363095ea7b360e01b8484604051602401808373ffffffffffffffffffffffffffffffffffffffff16815260200182815260200192505050604051602081830303815290604052907bffffffffffffffffffffffffffffffffffffffffffffffffffffffff19166020820180517bffffffffffffffffffffffffffffffffffffffffffffffffffffffff8381831617835250505050614b47565b505050565b614eb6846323b872dd60e01b858585604051602401808473ffffffffffffffffffffffffffffffffffffffff1681526020018373ffffffffffffffffffffffffffffffffffffffff1681526020018281526020019350505050604051602081830303815290604052907bffffffffffffffffffffffffffffffffffffffffffffffffffffffff19166020820180517bffffffffffffffffffffffffffffffffffffffffffffffffffffffff8381831617835250505050614b47565b50505050565b6060614ecb8484600085614ed4565b90509392505050565b606082471015614f2f576040517f08c379a00000000000000000000000000000000000000000000000000000000081526004018080602001828103825260268152602001806152036026913960400191505060405180910390fd5b614f388561507d565b614faa576040517f08c379a000000000000000000000000000000000000000000000000000000000815260040180806020018281038252601d8152602001807f416464726573733a2063616c6c20746f206e6f6e2d636f6e747261637400000081525060200191505060405180910390fd5b600060608673ffffffffffffffffffffffffffffffffffffffff1685876040518082805190602001908083835b60208310614ffa5780518252602082019150602081019050602083039250614fd7565b6001836020036101000a03801982511681845116808217855250505050505090500191505060006040518083038185875af1925050503d806000811461505c576040519150601f19603f3d011682016040523d82523d6000602084013e615061565b606091505b5091509150615071828286615090565b92505050949350505050565b600080823b905060008111915050919050565b606083156150a057829050615155565b6000835111156150b35782518084602001fd5b816040517f08c379a00000000000000000000000000000000000000000000000000000000081526004018080602001828103825283818151815260200191508051906020019080838360005b8381101561511a5780820151818401526020810190506150ff565b50505050905090810190601f1680156151475780820380516001836020036101000a031916815260200191505b509250505060405180910390fd5b9392505050565b6040518060c00160405280600073ffffffffffffffffffffffffffffffffffffffff168152602001600073ffffffffffffffffffffffffffffffffffffffff168152602001600073ffffffffffffffffffffffffffffffffffffffff168152602001600073ffffffffffffffffffffffffffffffffffffffff168152602001600073ffffffffffffffffffffffffffffffffffffffff168152602001600015158152509056fe416464726573733a20696e73756666696369656e742062616c616e636520666f722063616c6c536166654d6174683a206d756c7469706c69636174696f6e206f766572666c6f775361666545524332303a204552433230206f7065726174696f6e20646964206e6f7420737563636565645361666545524332303a20617070726f76652066726f6d206e6f6e2d7a65726f20746f206e6f6e2d7a65726f20616c6c6f77616e6365a26469706673582212207ebf536e7f46d67891d4eec6795e9970a7ab2c69d995757e8d0cd8b96a244b4064736f6c634300060c0033608060405234801561001057600080fd5b506040516101493803806101498339818101604052602081101561003357600080fd5b8101908080519060200190929190505050806000819055505060ef8061005a6000396000f3fe6080604052348015600f57600080fd5b506004361060285760003560e01c80631e1401f814602d575b600080fd5b609660048036036060811015604157600080fd5b81019080803573ffffffffffffffffffffffffffffffffffffffff169060200190929190803573ffffffffffffffffffffffffffffffffffffffff1690602001909291908035906020019092919050505060ac565b6040518082815260200191505060405180910390f35b600080549050939250505056fea264697066735822122000463169f5e415f0156a574099eb46352bf78eb7b30479242d246ecf54d1e57264736f6c634300060c0033608060405234801561001057600080fd5b5060405161016a38038061016a8339818101604052604081101561003357600080fd5b8101908080519060200190929190805190602001909291905050508160008190555080600181905550505060fe8061006c6000396000f3fe6080604052348015600f57600080fd5b506004361060285760003560e01c80631e1401f814602d575b600080fd5b609660048036036060811015604157600080fd5b81019080803573ffffffffffffffffffffffffffffffffffffffff169060200190929190803573ffffffffffffffffffffffffffffffffffffffff1690602001909291908035906020019092919050505060b3565b604051808381526020018281526020019250505060405180910390f35b6000806000546001549150915093509391505056fea2646970667358221220ce95efb6cd16dd22c3c7c2fb0e223958a400713ea3a46c5f7a641d04ed1d642764736f6c634300060c0033",
  "immutableReferences": {},
  "source": "// SPDX-License-Identifier: SEE LICENSE IN LICENSE\npragma solidity 0.6.12;\nimport \"../BancorNetwork.sol\";\n\ncontract OldConverter {\n    uint256 private amount;\n\n    constructor(uint256 _amount) public {\n        amount = _amount;\n    }\n\n    function getReturn(\n        IReserveToken _sourceToken,\n        IReserveToken _targetToken,\n        uint256 _amount\n    ) external view returns (uint256) {\n        _sourceToken;\n        _targetToken;\n        _amount;\n        return (amount);\n    }\n}\n\ncontract NewConverter {\n    uint256 private amount;\n    uint256 private fee;\n\n    constructor(uint256 _amount, uint256 _fee) public {\n        amount = _amount;\n        fee = _fee;\n    }\n\n    function getReturn(\n        IReserveToken _sourceToken,\n        IReserveToken _targetToken,\n        uint256 _amount\n    ) external view returns (uint256, uint256) {\n        _sourceToken;\n        _targetToken;\n        _amount;\n        return (amount, fee);\n    }\n}\n\ncontract ConverterV27OrLowerWithoutFallback {}\n\ncontract ConverterV27OrLowerWithFallback {\n    receive() external payable {}\n}\n\ncontract ConverterV28OrHigherWithoutFallback {\n    function isV28OrHigher() public pure returns (bool) {\n        return true;\n    }\n}\n\ncontract ConverterV28OrHigherWithFallback {\n    function isV28OrHigher() public pure returns (bool) {\n        return true;\n    }\n\n    receive() external payable {\n        revert();\n    }\n}\n\ncontract TestBancorNetwork is BancorNetwork {\n    OldConverter private oldConverter;\n    NewConverter private newConverter;\n\n    constructor(uint256 _amount, uint256 _fee) public BancorNetwork(IContractRegistry(address(1))) {\n        oldConverter = new OldConverter(_amount);\n        newConverter = new NewConverter(_amount, _fee);\n    }\n\n    function isV28OrHigherConverterExternal(IConverter _converter) external view returns (bool) {\n        return super.isV28OrHigherConverter(_converter);\n    }\n\n    function getReturnOld() external view returns (uint256, uint256) {\n        return getReturn(IConverter(payable(address(oldConverter))), IReserveToken(0), IReserveToken(0), uint256(0));\n    }\n\n    function getReturnNew() external view returns (uint256, uint256) {\n        return getReturn(IConverter(payable(address(newConverter))), IReserveToken(0), IReserveToken(0), uint256(0));\n    }\n}\n",
  "sourcePath": "D:\\Work Space\\bancor_project\\core\\contracts\\helpers\\TestBancorNetwork.sol",
  "compiler": {
    "name": "solc",
    "version": "0.6.12+commit.27d51765.Emscripten.clang"
  },
  "schemaVersion": "3.4.3",
  "updatedAt": "2021-08-23T03:19:29.856Z",
  "devdoc": {
    "kind": "dev",
    "methods": {
      "acceptOwnership()": {
        "details": "used by a new owner to accept an ownership transfer"
      },
      "claimAndConvert(address[],uint256,uint256)": {
        "details": "deprecated, backward compatibility"
      },
      "claimAndConvert2(address[],uint256,uint256,address,uint256)": {
        "details": "deprecated, backward compatibility"
      },
      "claimAndConvertFor(address[],uint256,uint256,address)": {
        "details": "deprecated, backward compatibility"
      },
      "claimAndConvertFor2(address[],uint256,uint256,address,address,uint256)": {
        "details": "deprecated, backward compatibility"
      },
      "completeXConversion(address[],address,uint256,uint256,address)": {
        "details": "allows a user to convert a token that was sent from another blockchain into any other token on the BancorNetwork ideally this transaction is created before the previous conversion is even complete, so so the input amount isn't known at that point - the amount is actually take from the BancorX contract directly by specifying the conversion id",
        "params": {
          "_bancorX": "address of the BancorX contract for the source token",
          "_beneficiary": "wallet to receive the conversion result",
          "_conversionId": "pre-determined unique (if non zero) id which refers to this conversion",
          "_minReturn": "if the conversion results in an amount smaller than the minimum return - it is cancelled, must be nonzero",
          "_path": "conversion path"
        },
        "returns": {
          "_0": "amount of tokens received from the conversion"
        }
      },
      "conversionPath(address,address)": {
        "details": "returns the conversion path between two tokens in the network note that this method is quite expensive in terms of gas and should generally be called off-chain",
        "params": {
          "_sourceToken": "source reserve token address",
          "_targetToken": "target reserve token address"
        },
        "returns": {
          "_0": "conversion path between the two tokens"
        }
      },
      "convert(address[],uint256,uint256)": {
        "details": "deprecated, backward compatibility"
      },
      "convert2(address[],uint256,uint256,address,uint256)": {
        "details": "deprecated, backward compatibility"
      },
      "convertByPath(address[],uint256,uint256,address,address,uint256)": {
        "details": "deprecated, backward compatibility"
      },
      "convertByPath2(address[],uint256,uint256,address)": {
        "details": "converts the token to any other token in the bancor network by following a predefined conversion path and transfers the result tokens to a target account note that the network should already have been given allowance of the source token (if not ETH)",
        "params": {
          "_amount": "amount to convert from, in the source token",
          "_beneficiary": "account that will receive the conversion result or 0x0 to send the result to the sender account",
          "_minReturn": "if the conversion results in an amount smaller than the minimum return - it is cancelled, must be greater than zero",
          "_path": "conversion path, see conversion path format above"
        },
        "returns": {
          "_0": "amount of tokens received from the conversion"
        }
      },
      "convertFor(address[],uint256,uint256,address)": {
        "details": "deprecated, backward compatibility"
      },
      "convertFor2(address[],uint256,uint256,address,address,uint256)": {
        "details": "deprecated, backward compatibility"
      },
      "getReturnByPath(address[],uint256)": {
        "details": "deprecated, backward compatibility"
      },
      "rateByPath(address[],uint256)": {
        "details": "returns the expected target amount of converting a given amount on a given path note that there is no support for circular paths",
        "params": {
          "_amount": "amount of _path[0] tokens received from the sender",
          "_path": "conversion path (see conversion path format above)"
        },
        "returns": {
          "_0": "expected target amount"
        }
      },
      "restoreRegistry()": {
        "details": "restores the previous contract-registry"
      },
      "restrictRegistryUpdate(bool)": {
        "details": "restricts the permission to update the contract-registry",
        "params": {
          "_onlyOwnerCanUpdateRegistry": "indicates whether or not permission is restricted to owner only"
        }
      },
      "transferOwnership(address)": {
        "details": "allows transferring the contract ownership the new owner still needs to accept the transfer can only be called by the contract owner",
        "params": {
          "_newOwner": "new contract owner"
        }
      },
      "updateRegistry()": {
        "details": "updates to the new contract-registry"
      },
      "withdrawTokens(address,address,uint256)": {
        "details": "withdraws funds held by the contract and sends them to an account can only be called by the owner",
        "params": {
          "amount": "amount to withdraw",
          "reserveToken": "reserve token contract address",
          "to": "account to receive the new amount"
        }
      },
      "withdrawTokensMultiple(address[],address,uint256[])": {
        "details": "withdraws multiple funds held by the contract and sends them to an account can only be called by the owner",
        "params": {
          "amounts": "amounts to withdraw",
          "reserveTokens": "reserve tokens contract addresses",
          "to": "account to receive the new amount"
        }
      },
      "xConvert(address[],uint256,uint256,bytes32,bytes32,uint256)": {
        "details": "converts any other token to BNT in the bancor network by following a predefined conversion path and transfers the result to an account on a different blockchain note that the network should already have been given allowance of the source token (if not ETH)",
        "params": {
          "_amount": "amount to convert from, in the source token",
          "_conversionId": "pre-determined unique (if non zero) id which refers to this transaction",
          "_minReturn": "if the conversion results in an amount smaller than the minimum return - it is cancelled, must be greater than zero",
          "_path": "conversion path, see conversion path format above",
          "_targetAccount": "address/account on the target blockchain to send the BNT to",
          "_targetBlockchain": "blockchain BNT will be issued on"
        },
        "returns": {
          "_0": "the amount of BNT received from this conversion"
        }
      }
    },
    "version": 1
  },
  "userdoc": {
    "kind": "user",
    "methods": {},
    "version": 1
  }
}