{
  "contractName": "TestReentrancyGuardAttacker",
  "abi": [
    {
      "inputs": [
        {
          "internalType": "contract TestReentrancyGuard",
          "name": "_target",
          "type": "address"
        }
      ],
      "stateMutability": "nonpayable",
      "type": "constructor"
    },
    {
      "inputs": [],
      "name": "attacking",
      "outputs": [
        {
          "internalType": "bool",
          "name": "",
          "type": "bool"
        }
      ],
      "stateMutability": "view",
      "type": "function"
    },
    {
      "inputs": [],
      "name": "callProtectedMethod",
      "outputs": [
        {
          "internalType": "bool",
          "name": "",
          "type": "bool"
        }
      ],
      "stateMutability": "view",
      "type": "function"
    },
    {
      "inputs": [],
      "name": "reentrancy",
      "outputs": [
        {
          "internalType": "bool",
          "name": "",
          "type": "bool"
        }
      ],
      "stateMutability": "view",
      "type": "function"
    },
    {
      "inputs": [],
      "name": "target",
      "outputs": [
        {
          "internalType": "contract TestReentrancyGuard",
          "name": "",
          "type": "address"
        }
      ],
      "stateMutability": "view",
      "type": "function"
    },
    {
      "inputs": [
        {
          "internalType": "bool",
          "name": "_reentrancy",
          "type": "bool"
        }
      ],
      "name": "setReentrancy",
      "outputs": [],
      "stateMutability": "nonpayable",
      "type": "function"
    },
    {
      "inputs": [
        {
          "internalType": "bool",
          "name": "_callProtectedMethod",
          "type": "bool"
        }
      ],
      "name": "setCallProtectedMethod",
      "outputs": [],
      "stateMutability": "nonpayable",
      "type": "function"
    },
    {
      "inputs": [],
      "name": "run",
      "outputs": [],
      "stateMutability": "nonpayable",
      "type": "function"
    },
    {
      "inputs": [],
      "name": "callback",
      "outputs": [],
      "stateMutability": "nonpayable",
      "type": "function"
    }
  ],
  "bytecode": "0x608060405234801561001057600080fd5b506040516104803803806104808339818101604052602081101561003357600080fd5b8101908080519060200190929190505050806000806101000a81548173ffffffffffffffffffffffffffffffffffffffff021916908373ffffffffffffffffffffffffffffffffffffffff160217905550506103ec806100946000396000f3fe608060405234801561001057600080fd5b50600436106100885760003560e01c806399563f101161005b57806399563f1014610107578063c040622614610137578063d4b8399214610141578063e11f493e1461017557610088565b8063083b27321461008d57806317846e3914610097578063322d5010146100b75780633c0bbcd9146100e7575b600080fd5b610095610195565b005b61009f610203565b60405180821515815260200191505060405180910390f35b6100e5600480360360208110156100cd57600080fd5b81019080803515159060200190929190505050610216565b005b6100ef610233565b60405180821515815260200191505060405180910390f35b6101356004803603602081101561011d57600080fd5b81019080803515159060200190929190505050610246565b005b61013f610263565b005b61014961037f565b604051808273ffffffffffffffffffffffffffffffffffffffff16815260200191505060405180910390f35b61017d6103a3565b60405180821515815260200191505060405180910390f35b600060149054906101000a900460ff166101ae57610201565b600060169054906101000a900460ff166101e6576001600060166101000a81548160ff0219169083151502179055506101e5610263565b5b60008060166101000a81548160ff0219169083151502179055505b565b600060159054906101000a900460ff1681565b80600060146101000a81548160ff02191690831515021790555050565b600060169054906101000a900460ff1681565b80600060156101000a81548160ff02191690831515021790555050565b600060159054906101000a900460ff166102fc5760008054906101000a900473ffffffffffffffffffffffffffffffffffffffff1673ffffffffffffffffffffffffffffffffffffffff1663f86485d96040518163ffffffff1660e01b8152600401600060405180830381600087803b1580156102df57600080fd5b505af11580156102f3573d6000803e3d6000fd5b5050505061037d565b60008054906101000a900473ffffffffffffffffffffffffffffffffffffffff1673ffffffffffffffffffffffffffffffffffffffff16632d4d800c6040518163ffffffff1660e01b8152600401600060405180830381600087803b15801561036457600080fd5b505af1158015610378573d6000803e3d6000fd5b505050505b565b60008054906101000a900473ffffffffffffffffffffffffffffffffffffffff1681565b600060149054906101000a900460ff168156fea2646970667358221220a7aa8eb5584b7caf52a8b9997ca433ef1e84177a037b22951ddd02ef2377314e64736f6c634300060c0033",
  "immutableReferences": {},
  "source": "// SPDX-License-Identifier: SEE LICENSE IN LICENSE\npragma solidity 0.6.12;\nimport \"../utility/ReentrancyGuard.sol\";\n\ncontract TestReentrancyGuardAttacker {\n    TestReentrancyGuard public target;\n    bool public reentrancy;\n    bool public callProtectedMethod;\n    bool public attacking;\n\n    constructor(TestReentrancyGuard _target) public {\n        target = _target;\n    }\n\n    function setReentrancy(bool _reentrancy) external {\n        reentrancy = _reentrancy;\n    }\n\n    function setCallProtectedMethod(bool _callProtectedMethod) external {\n        callProtectedMethod = _callProtectedMethod;\n    }\n\n    function run() public {\n        callProtectedMethod ? target.protectedMethod() : target.unprotectedMethod();\n    }\n\n    function callback() external {\n        if (!reentrancy) {\n            return;\n        }\n\n        if (!attacking) {\n            attacking = true;\n\n            run();\n        }\n\n        attacking = false;\n    }\n}\n\ncontract TestReentrancyGuard is ReentrancyGuard {\n    uint256 public calls;\n\n    function protectedMethod() external protected {\n        run();\n    }\n\n    function unprotectedMethod() external {\n        run();\n    }\n\n    function run() private {\n        calls++;\n\n        TestReentrancyGuardAttacker(msg.sender).callback();\n    }\n}\n",
  "sourcePath": "D:\\Work Space\\bancor_project\\core\\contracts\\helpers\\TestReentrancyGuard.sol",
  "compiler": {
    "name": "solc",
    "version": "0.6.12+commit.27d51765.Emscripten.clang"
  },
  "schemaVersion": "3.4.3",
  "updatedAt": "2021-08-23T03:19:29.910Z",
  "devdoc": {
    "kind": "dev",
    "methods": {},
    "version": 1
  },
  "userdoc": {
    "kind": "user",
    "methods": {},
    "version": 1
  }
}