{
  "contractName": "TestLiquidityProtection",
  "abi": [
    {
      "inputs": [
        {
          "internalType": "contract ILiquidityProtectionSettings",
          "name": "settings",
          "type": "address"
        },
        {
          "internalType": "contract ILiquidityProtectionStore",
          "name": "store",
          "type": "address"
        },
        {
          "internalType": "contract ILiquidityProtectionStats",
          "name": "stats",
          "type": "address"
        },
        {
          "internalType": "contract ILiquidityProtectionSystemStore",
          "name": "systemStore",
          "type": "address"
        },
        {
          "internalType": "contract ITokenHolder",
          "name": "wallet",
          "type": "address"
        },
        {
          "internalType": "contract ITokenGovernance",
          "name": "networkTokenGovernance",
          "type": "address"
        },
        {
          "internalType": "contract ITokenGovernance",
          "name": "govTokenGovernance",
          "type": "address"
        },
        {
          "internalType": "contract ICheckpointStore",
          "name": "lastRemoveCheckpointStore",
          "type": "address"
        }
      ],
      "stateMutability": "nonpayable",
      "type": "constructor"
    },
    {
      "anonymous": false,
      "inputs": [
        {
          "indexed": true,
          "internalType": "address",
          "name": "_prevOwner",
          "type": "address"
        },
        {
          "indexed": true,
          "internalType": "address",
          "name": "_newOwner",
          "type": "address"
        }
      ],
      "name": "OwnerUpdate",
      "type": "event"
    },
    {
      "inputs": [],
      "name": "acceptOwnership",
      "outputs": [],
      "stateMutability": "nonpayable",
      "type": "function"
    },
    {
      "inputs": [],
      "name": "acceptStoreOwnership",
      "outputs": [],
      "stateMutability": "nonpayable",
      "type": "function"
    },
    {
      "inputs": [],
      "name": "acceptWalletOwnership",
      "outputs": [],
      "stateMutability": "nonpayable",
      "type": "function"
    },
    {
      "inputs": [
        {
          "internalType": "contract IConverterAnchor",
          "name": "poolAnchor",
          "type": "address"
        },
        {
          "internalType": "contract IReserveToken",
          "name": "reserveToken",
          "type": "address"
        },
        {
          "internalType": "uint256",
          "name": "amount",
          "type": "uint256"
        }
      ],
      "name": "addLiquidity",
      "outputs": [
        {
          "internalType": "uint256",
          "name": "",
          "type": "uint256"
        }
      ],
      "stateMutability": "payable",
      "type": "function"
    },
    {
      "inputs": [
        {
          "internalType": "address",
          "name": "owner",
          "type": "address"
        },
        {
          "internalType": "contract IConverterAnchor",
          "name": "poolAnchor",
          "type": "address"
        },
        {
          "internalType": "contract IReserveToken",
          "name": "reserveToken",
          "type": "address"
        },
        {
          "internalType": "uint256",
          "name": "amount",
          "type": "uint256"
        }
      ],
      "name": "addLiquidityFor",
      "outputs": [
        {
          "internalType": "uint256",
          "name": "",
          "type": "uint256"
        }
      ],
      "stateMutability": "payable",
      "type": "function"
    },
    {
      "inputs": [
        {
          "internalType": "uint256",
          "name": "startIndex",
          "type": "uint256"
        },
        {
          "internalType": "uint256",
          "name": "endIndex",
          "type": "uint256"
        }
      ],
      "name": "claimBalance",
      "outputs": [],
      "stateMutability": "nonpayable",
      "type": "function"
    },
    {
      "inputs": [],
      "name": "currentTime",
      "outputs": [
        {
          "internalType": "uint256",
          "name": "",
          "type": "uint256"
        }
      ],
      "stateMutability": "view",
      "type": "function"
    },
    {
      "inputs": [],
      "name": "newOwner",
      "outputs": [
        {
          "internalType": "address",
          "name": "",
          "type": "address"
        }
      ],
      "stateMutability": "view",
      "type": "function"
    },
    {
      "inputs": [],
      "name": "owner",
      "outputs": [
        {
          "internalType": "address",
          "name": "",
          "type": "address"
        }
      ],
      "stateMutability": "view",
      "type": "function"
    },
    {
      "inputs": [
        {
          "internalType": "contract IConverterAnchor",
          "name": "poolAnchor",
          "type": "address"
        }
      ],
      "name": "poolAvailableSpace",
      "outputs": [
        {
          "internalType": "uint256",
          "name": "",
          "type": "uint256"
        },
        {
          "internalType": "uint256",
          "name": "",
          "type": "uint256"
        }
      ],
      "stateMutability": "view",
      "type": "function"
    },
    {
      "inputs": [
        {
          "internalType": "contract IDSToken",
          "name": "poolToken",
          "type": "address"
        },
        {
          "internalType": "contract IReserveToken",
          "name": "reserveToken",
          "type": "address"
        },
        {
          "internalType": "uint256",
          "name": "reserveAmount",
          "type": "uint256"
        },
        {
          "internalType": "uint256",
          "name": "poolRateN",
          "type": "uint256"
        },
        {
          "internalType": "uint256",
          "name": "poolRateD",
          "type": "uint256"
        },
        {
          "internalType": "uint256",
          "name": "reserveRateN",
          "type": "uint256"
        },
        {
          "internalType": "uint256",
          "name": "reserveRateD",
          "type": "uint256"
        }
      ],
      "name": "poolROI",
      "outputs": [
        {
          "internalType": "uint256",
          "name": "",
          "type": "uint256"
        }
      ],
      "stateMutability": "view",
      "type": "function"
    },
    {
      "inputs": [
        {
          "internalType": "uint256",
          "name": "id",
          "type": "uint256"
        },
        {
          "internalType": "uint32",
          "name": "portion",
          "type": "uint32"
        }
      ],
      "name": "removeLiquidity",
      "outputs": [],
      "stateMutability": "nonpayable",
      "type": "function"
    },
    {
      "inputs": [
        {
          "internalType": "uint256",
          "name": "id",
          "type": "uint256"
        },
        {
          "internalType": "uint32",
          "name": "portion",
          "type": "uint32"
        },
        {
          "internalType": "uint256",
          "name": "removeTimestamp",
          "type": "uint256"
        }
      ],
      "name": "removeLiquidityReturn",
      "outputs": [
        {
          "internalType": "uint256",
          "name": "",
          "type": "uint256"
        },
        {
          "internalType": "uint256",
          "name": "",
          "type": "uint256"
        },
        {
          "internalType": "uint256",
          "name": "",
          "type": "uint256"
        }
      ],
      "stateMutability": "view",
      "type": "function"
    },
    {
      "inputs": [
        {
          "internalType": "uint256",
          "name": "_currentTime",
          "type": "uint256"
        }
      ],
      "name": "setTime",
      "outputs": [],
      "stateMutability": "nonpayable",
      "type": "function"
    },
    {
      "inputs": [],
      "name": "settings",
      "outputs": [
        {
          "internalType": "contract ILiquidityProtectionSettings",
          "name": "",
          "type": "address"
        }
      ],
      "stateMutability": "view",
      "type": "function"
    },
    {
      "inputs": [],
      "name": "stats",
      "outputs": [
        {
          "internalType": "contract ILiquidityProtectionStats",
          "name": "",
          "type": "address"
        }
      ],
      "stateMutability": "view",
      "type": "function"
    },
    {
      "inputs": [],
      "name": "store",
      "outputs": [
        {
          "internalType": "contract ILiquidityProtectionStore",
          "name": "",
          "type": "address"
        }
      ],
      "stateMutability": "view",
      "type": "function"
    },
    {
      "inputs": [],
      "name": "systemStore",
      "outputs": [
        {
          "internalType": "contract ILiquidityProtectionSystemStore",
          "name": "",
          "type": "address"
        }
      ],
      "stateMutability": "view",
      "type": "function"
    },
    {
      "inputs": [
        {
          "internalType": "address",
          "name": "_newOwner",
          "type": "address"
        }
      ],
      "name": "transferOwnership",
      "outputs": [],
      "stateMutability": "nonpayable",
      "type": "function"
    },
    {
      "inputs": [
        {
          "internalType": "uint256",
          "name": "id",
          "type": "uint256"
        },
        {
          "internalType": "address",
          "name": "newProvider",
          "type": "address"
        }
      ],
      "name": "transferPosition",
      "outputs": [
        {
          "internalType": "uint256",
          "name": "",
          "type": "uint256"
        }
      ],
      "stateMutability": "nonpayable",
      "type": "function"
    },
    {
      "inputs": [
        {
          "internalType": "uint256",
          "name": "id",
          "type": "uint256"
        },
        {
          "internalType": "address",
          "name": "newProvider",
          "type": "address"
        },
        {
          "internalType": "contract ITransferPositionCallback",
          "name": "callback",
          "type": "address"
        },
        {
          "internalType": "bytes",
          "name": "data",
          "type": "bytes"
        }
      ],
      "name": "transferPositionAndNotify",
      "outputs": [
        {
          "internalType": "uint256",
          "name": "",
          "type": "uint256"
        }
      ],
      "stateMutability": "nonpayable",
      "type": "function"
    },
    {
      "inputs": [
        {
          "internalType": "address",
          "name": "newOwner",
          "type": "address"
        }
      ],
      "name": "transferStoreOwnership",
      "outputs": [],
      "stateMutability": "nonpayable",
      "type": "function"
    },
    {
      "inputs": [
        {
          "internalType": "address",
          "name": "newOwner",
          "type": "address"
        }
      ],
      "name": "transferWalletOwnership",
      "outputs": [],
      "stateMutability": "nonpayable",
      "type": "function"
    },
    {
      "inputs": [],
      "name": "wallet",
      "outputs": [
        {
          "internalType": "contract ITokenHolder",
          "name": "",
          "type": "address"
        }
      ],
      "stateMutability": "view",
      "type": "function"
    },
    {
      "stateMutability": "payable",
      "type": "receive"
    },
    {
      "inputs": [
        {
          "internalType": "uint256",
          "name": "poolAmount",
          "type": "uint256"
        },
        {
          "internalType": "uint256",
          "name": "poolRateN",
          "type": "uint256"
        },
        {
          "internalType": "uint256",
          "name": "poolRateD",
          "type": "uint256"
        },
        {
          "internalType": "uint256",
          "name": "addRateN",
          "type": "uint256"
        },
        {
          "internalType": "uint256",
          "name": "addRateD",
          "type": "uint256"
        },
        {
          "internalType": "uint256",
          "name": "removeRateN",
          "type": "uint256"
        },
        {
          "internalType": "uint256",
          "name": "removeRateD",
          "type": "uint256"
        }
      ],
      "name": "protectedAmountPlusFeeTest",
      "outputs": [
        {
          "internalType": "uint256",
          "name": "",
          "type": "uint256"
        }
      ],
      "stateMutability": "pure",
      "type": "function"
    },
    {
      "inputs": [
        {
          "internalType": "uint256",
          "name": "initialRateN",
          "type": "uint256"
        },
        {
          "internalType": "uint256",
          "name": "initialRateD",
          "type": "uint256"
        },
        {
          "internalType": "uint256",
          "name": "currentRateN",
          "type": "uint256"
        },
        {
          "internalType": "uint256",
          "name": "currentRateD",
          "type": "uint256"
        }
      ],
      "name": "impLossTest",
      "outputs": [
        {
          "internalType": "uint256",
          "name": "",
          "type": "uint256"
        },
        {
          "internalType": "uint256",
          "name": "",
          "type": "uint256"
        }
      ],
      "stateMutability": "pure",
      "type": "function"
    },
    {
      "inputs": [
        {
          "internalType": "uint256",
          "name": "amount",
          "type": "uint256"
        },
        {
          "internalType": "uint256",
          "name": "total",
          "type": "uint256"
        },
        {
          "internalType": "uint256",
          "name": "lossN",
          "type": "uint256"
        },
        {
          "internalType": "uint256",
          "name": "lossD",
          "type": "uint256"
        },
        {
          "internalType": "uint256",
          "name": "levelN",
          "type": "uint256"
        },
        {
          "internalType": "uint256",
          "name": "levelD",
          "type": "uint256"
        }
      ],
      "name": "compensationAmountTest",
      "outputs": [
        {
          "internalType": "uint256",
          "name": "",
          "type": "uint256"
        }
      ],
      "stateMutability": "pure",
      "type": "function"
    },
    {
      "inputs": [
        {
          "internalType": "contract IDSToken",
          "name": "poolToken",
          "type": "address"
        },
        {
          "internalType": "contract IReserveToken",
          "name": "reserveToken",
          "type": "address"
        }
      ],
      "name": "averageRateTest",
      "outputs": [
        {
          "internalType": "uint256",
          "name": "",
          "type": "uint256"
        },
        {
          "internalType": "uint256",
          "name": "",
          "type": "uint256"
        }
      ],
      "stateMutability": "view",
      "type": "function"
    },
    {
      "inputs": [
        {
          "internalType": "uint256",
          "name": "poolTokenRateN",
          "type": "uint256"
        },
        {
          "internalType": "uint256",
          "name": "poolTokenRateD",
          "type": "uint256"
        },
        {
          "internalType": "uint256",
          "name": "poolAmount",
          "type": "uint256"
        },
        {
          "internalType": "uint256",
          "name": "reserveAmount",
          "type": "uint256"
        },
        {
          "internalType": "uint128",
          "name": "addSpotRateN",
          "type": "uint128"
        },
        {
          "internalType": "uint128",
          "name": "addSpotRateD",
          "type": "uint128"
        },
        {
          "internalType": "uint128",
          "name": "removeSpotRateN",
          "type": "uint128"
        },
        {
          "internalType": "uint128",
          "name": "removeSpotRateD",
          "type": "uint128"
        },
        {
          "internalType": "uint128",
          "name": "removeAverageRateN",
          "type": "uint128"
        },
        {
          "internalType": "uint128",
          "name": "removeAverageRateD",
          "type": "uint128"
        },
        {
          "internalType": "uint256",
          "name": "addTimestamp",
          "type": "uint256"
        },
        {
          "internalType": "uint256",
          "name": "removeTimestamp",
          "type": "uint256"
        }
      ],
      "name": "removeLiquidityTargetAmountTest",
      "outputs": [
        {
          "internalType": "uint256",
          "name": "",
          "type": "uint256"
        }
      ],
      "stateMutability": "nonpayable",
      "type": "function"
    }
  ],
  "bytecode": "0x6101c0604052600160025560016003553480156200001c57600080fd5b506040516200829d3803806200829d83398181016040526101008110156200004357600080fd5b8101908080519060200190929190805190602001909291908051906020019092919080519060200190929190805190602001909291908051906020019092919080519060200190929190805190602001909291905050508787878787878787336000806101000a81548173ffffffffffffffffffffffffffffffffffffffff021916908373ffffffffffffffffffffffffffffffffffffffff16021790555087620000f4816200049c60201b60201c565b8762000106816200049c60201b60201c565b8762000118816200049c60201b60201c565b876200012a816200049c60201b60201c565b876200013c816200049c60201b60201c565b856200014e816200049c60201b60201c565b8d73ffffffffffffffffffffffffffffffffffffffff1660808173ffffffffffffffffffffffffffffffffffffffff1660601b815250508c73ffffffffffffffffffffffffffffffffffffffff1660a08173ffffffffffffffffffffffffffffffffffffffff1660601b815250508b73ffffffffffffffffffffffffffffffffffffffff1660c08173ffffffffffffffffffffffffffffffffffffffff1660601b815250508a73ffffffffffffffffffffffffffffffffffffffff1660e08173ffffffffffffffffffffffffffffffffffffffff1660601b815250508973ffffffffffffffffffffffffffffffffffffffff166101008173ffffffffffffffffffffffffffffffffffffffff1660601b815250508873ffffffffffffffffffffffffffffffffffffffff166101408173ffffffffffffffffffffffffffffffffffffffff1660601b815250508773ffffffffffffffffffffffffffffffffffffffff166101808173ffffffffffffffffffffffffffffffffffffffff1660601b815250508673ffffffffffffffffffffffffffffffffffffffff166101a08173ffffffffffffffffffffffffffffffffffffffff1660601b815250508873ffffffffffffffffffffffffffffffffffffffff1663fc0c546a6040518163ffffffff1660e01b815260040160206040518083038186803b1580156200035157600080fd5b505afa15801562000366573d6000803e3d6000fd5b505050506040513d60208110156200037d57600080fd5b810190808051906020019092919050505073ffffffffffffffffffffffffffffffffffffffff166101208173ffffffffffffffffffffffffffffffffffffffff1660601b815250508773ffffffffffffffffffffffffffffffffffffffff1663fc0c546a6040518163ffffffff1660e01b815260040160206040518083038186803b1580156200040c57600080fd5b505afa15801562000421573d6000803e3d6000fd5b505050506040513d60208110156200043857600080fd5b810190808051906020019092919050505073ffffffffffffffffffffffffffffffffffffffff166101608173ffffffffffffffffffffffffffffffffffffffff1660601b815250505050505050505050505050505050505050505050505062000543565b600073ffffffffffffffffffffffffffffffffffffffff168173ffffffffffffffffffffffffffffffffffffffff16141562000540576040517f08c379a00000000000000000000000000000000000000000000000000000000081526004018080602001828103825260138152602001807f4552525f494e56414c49445f414444524553530000000000000000000000000081525060200191505060405180910390fd5b50565b60805160601c60a05160601c60c05160601c60e05160601c6101005160601c6101205160601c6101405160601c6101605160601c6101805160601c6101a05160601c617ba3620006fa60003980614d5b52508061383552806160965250806137ee525080613df952806156205280615da652508061131f52806127f35280612abb52806134b75280613c8d5280613d2d5280613eca5280613f1e5280615f15528061604552806161a2525080610d9e5280610f3452806112e35280611c8152806139925280613bb85280613ea8528061674d52508061167752806119fc52806129ab5280612b0f52806137215280613a295280613b0b52806155775280615cfd5280615f7d528061649c5280616795525080611fb75280614c5a5280614e505280614f3d525080610fa352806111f65280611a2a5280611be45280611d2d5280612f7d5280614a7c5280614bb05280615020528061578c525080611e1e5280611fdf528061236f528061257552806126ac52806128385280612905528061364f52806141925280615189528061522e52806156d352806161e4528061632552806163f252806169ca5280616c1a5250617ba36000f3fe6080604052600436106101c65760003560e01c806393e1c1d4116100f7578063d18e81b311610095578063e4a7672611610064578063e4a7672614610b2f578063f2fde38b14610bb1578063fb0f25fc14610c02578063fb1a8bd314610c8d576101cd565b8063d18e81b314610a41578063d4ee1d9014610a6c578063d80528ae14610aad578063e06174e414610aee576101cd565b8063bf3b1101116100d1578063bf3b110114610846578063c2250a9914610897578063c83df663146108e8578063caee4c8f1461099f576101cd565b806393e1c1d414610667578063975057e714610791578063ae245a72146107d2576101cd565b8063630d8c631161016457806379ba50971161013e57806379ba5097146105b7578063879015e8146105ce57806389d94b461461060f5780638da5cb5b14610626576101cd565b8063630d8c63146104b05780636d533e9b146104f5578063782ed90c1461056c576101cd565b80633beb26c4116101a05780633beb26c4146102e1578063400834801461031c578063521eb2731461040057806355bd513f14610441576101cd565b8063210f7207146101d257806324afe2d91461025e57806328790b5a146102ca576101cd565b366101cd57005b600080fd5b3480156101de57600080fd5b50610241600480360360408110156101f557600080fd5b81019080803573ffffffffffffffffffffffffffffffffffffffff169060200190929190803573ffffffffffffffffffffffffffffffffffffffff169060200190929190505050610d0e565b604051808381526020018281526020019250505060405180910390f35b34801561026a57600080fd5b506102ad6004803603602081101561028157600080fd5b81019080803573ffffffffffffffffffffffffffffffffffffffff169060200190929190505050610d62565b604051808381526020018281526020019250505060405180910390f35b3480156102d657600080fd5b506102df610d94565b005b3480156102ed57600080fd5b5061031a6004803603602081101561030457600080fd5b8101908080359060200190929190505050610e1e565b005b34801561032857600080fd5b506103ea6004803603608081101561033f57600080fd5b8101908080359060200190929190803573ffffffffffffffffffffffffffffffffffffffff169060200190929190803573ffffffffffffffffffffffffffffffffffffffff169060200190929190803590602001906401000000008111156103a657600080fd5b8201836020820111156103b857600080fd5b803590602001918460018302840111640100000000831117156103da57600080fd5b9091929391929390505050610e28565b6040518082815260200191505060405180910390f35b34801561040c57600080fd5b50610415610f30565b604051808273ffffffffffffffffffffffffffffffffffffffff16815260200191505060405180910390f35b34801561044d57600080fd5b5061049a6004803603604081101561046457600080fd5b8101908080359060200190929190803573ffffffffffffffffffffffffffffffffffffffff169060200190929190505050610f58565b6040518082815260200191505060405180910390f35b3480156104bc57600080fd5b506104f3600480360360408110156104d357600080fd5b810190808035906020019092919080359060200190929190505050610f8f565b005b34801561050157600080fd5b506105486004803603606081101561051857600080fd5b8101908080359060200190929190803563ffffffff169060200190929190803590602001909291905050506113d9565b60405180848152602001838152602001828152602001935050505060405180910390f35b34801561057857600080fd5b506105b56004803603604081101561058f57600080fd5b8101908080359060200190929190803563ffffffff1690602001909291905050506117c2565b005b3480156105c357600080fd5b506105cc6117f3565b005b3480156105da57600080fd5b506105e36119f8565b604051808273ffffffffffffffffffffffffffffffffffffffff16815260200191505060405180910390f35b34801561061b57600080fd5b50610624611a20565b005b34801561063257600080fd5b5061063b611aaa565b604051808273ffffffffffffffffffffffffffffffffffffffff16815260200191505060405180910390f35b34801561067357600080fd5b5061077b600480360361018081101561068b57600080fd5b810190808035906020019092919080359060200190929190803590602001909291908035906020019092919080356fffffffffffffffffffffffffffffffff16906020019092919080356fffffffffffffffffffffffffffffffff16906020019092919080356fffffffffffffffffffffffffffffffff16906020019092919080356fffffffffffffffffffffffffffffffff16906020019092919080356fffffffffffffffffffffffffffffffff16906020019092919080356fffffffffffffffffffffffffffffffff1690602001909291908035906020019092919080359060200190929190505050611ace565b6040518082815260200191505060405180910390f35b34801561079d57600080fd5b506107a6611be0565b604051808273ffffffffffffffffffffffffffffffffffffffff16815260200191505060405180910390f35b3480156107de57600080fd5b50610829600480360360808110156107f557600080fd5b8101908080359060200190929190803590602001909291908035906020019092919080359060200190929190505050611c08565b604051808381526020018281526020019250505060405180910390f35b34801561085257600080fd5b506108956004803603602081101561086957600080fd5b81019080803573ffffffffffffffffffffffffffffffffffffffff169060200190929190505050611c77565b005b3480156108a357600080fd5b506108e6600480360360208110156108ba57600080fd5b81019080803573ffffffffffffffffffffffffffffffffffffffff169060200190929190505050611d23565b005b3480156108f457600080fd5b50610989600480360360e081101561090b57600080fd5b81019080803573ffffffffffffffffffffffffffffffffffffffff169060200190929190803573ffffffffffffffffffffffffffffffffffffffff1690602001909291908035906020019092919080359060200190929190803590602001909291908035906020019092919080359060200190929190505050611dcf565b6040518082815260200191505060405180910390f35b610a2b600480360360808110156109b557600080fd5b81019080803573ffffffffffffffffffffffffffffffffffffffff169060200190929190803573ffffffffffffffffffffffffffffffffffffffff169060200190929190803573ffffffffffffffffffffffffffffffffffffffff16906020019092919080359060200190929190505050611f20565b6040518082815260200191505060405180910390f35b348015610a4d57600080fd5b50610a56611f87565b6040518082815260200191505060405180910390f35b348015610a7857600080fd5b50610a81611f8d565b604051808273ffffffffffffffffffffffffffffffffffffffff16815260200191505060405180910390f35b348015610ab957600080fd5b50610ac2611fb3565b604051808273ffffffffffffffffffffffffffffffffffffffff16815260200191505060405180910390f35b348015610afa57600080fd5b50610b03611fdb565b604051808273ffffffffffffffffffffffffffffffffffffffff16815260200191505060405180910390f35b610b9b60048036036060811015610b4557600080fd5b81019080803573ffffffffffffffffffffffffffffffffffffffff169060200190929190803573ffffffffffffffffffffffffffffffffffffffff16906020019092919080359060200190929190505050612003565b6040518082815260200191505060405180910390f35b348015610bbd57600080fd5b50610c0060048036036020811015610bd457600080fd5b81019080803573ffffffffffffffffffffffffffffffffffffffff16906020019092919050505061205e565b005b348015610c0e57600080fd5b50610c77600480360360e0811015610c2557600080fd5b810190808035906020019092919080359060200190929190803590602001909291908035906020019092919080359060200190929190803590602001909291908035906020019092919050505061216c565b6040518082815260200191505060405180910390f35b348015610c9957600080fd5b50610cf8600480360360c0811015610cb057600080fd5b810190808035906020019092919080359060200190929190803590602001909291908035906020019092919080359060200190929190803590602001909291905050506121e7565b6040518082815260200191505060405180910390f35b600080610d19617983565b610d21617983565b610d2b8686612241565b91509150610d4b826000015183602001518360000151846020015161236b565b806000015181602001519350935050509250929050565b60008082610d6f81612573565b610d78816126aa565b610d81846127e1565b610d8a85612ab1565b9250925050915091565b610d9c612c11565b7f000000000000000000000000000000000000000000000000000000000000000073ffffffffffffffffffffffffffffffffffffffff166379ba50976040518163ffffffff1660e01b8152600401600060405180830381600087803b158015610e0457600080fd5b505af1158015610e18573d6000803e3d6000fd5b50505050565b8060038190555050565b6000610e32612cd4565b6002808190555084610e4381612d4e565b84610e4d81612d4e565b6000610e5a338a8a612df4565b90508673ffffffffffffffffffffffffffffffffffffffff16635c2ba845823389896040518563ffffffff1660e01b8152600401808581526020018473ffffffffffffffffffffffffffffffffffffffff168152602001806020018281038252848482818152602001925080828437600081840152601f19601f82011690508083019250505095505050505050600060405180830381600087803b158015610f0157600080fd5b505af1158015610f15573d6000803e3d6000fd5b50505050809350505050600160028190555095945050505050565b60007f0000000000000000000000000000000000000000000000000000000000000000905090565b6000610f62612cd4565b6002808190555081610f7381612d4e565b610f7e338585612df4565b915050600160028190555092915050565b610f97612cd4565b600280819055506060807f000000000000000000000000000000000000000000000000000000000000000073ffffffffffffffffffffffffffffffffffffffff1663f4206dea3386866040518463ffffffff1660e01b8152600401808473ffffffffffffffffffffffffffffffffffffffff168152602001838152602001828152602001935050505060006040518083038186803b15801561103857600080fd5b505afa15801561104c573d6000803e3d6000fd5b505050506040513d6000823e3d601f19601f82011682018060405250604081101561107657600080fd5b810190808051604051939291908464010000000082111561109657600080fd5b838201915060208201858111156110ac57600080fd5b82518660208202830111640100000000821117156110c957600080fd5b8083526020830192505050908051906020019060200280838360005b838110156111005780820151818401526020810190506110e5565b505050509050016040526020018051604051939291908464010000000082111561112957600080fd5b8382019150602082018581111561113f57600080fd5b825186602082028301116401000000008211171561115c57600080fd5b8083526020830192505050908051906020019060200280838360005b83811015611193578082015181840152602081019050611178565b505050509050016040525050509150915060008083519050825181146111b557fe5b60008190505b60008111156112d75760006001820390506111d4612e3a565b8582815181106111e057fe5b602002602001015111156111f457506112c9565b7f000000000000000000000000000000000000000000000000000000000000000073ffffffffffffffffffffffffffffffffffffffff166390e0661b33838b016040518363ffffffff1660e01b8152600401808373ffffffffffffffffffffffffffffffffffffffff16815260200182815260200192505050600060405180830381600087803b15801561128757600080fd5b505af115801561129b573d6000803e3d6000fd5b505050506112c58682815181106112ae57fe5b602002602001015185612e4990919063ffffffff16565b9350505b8080600190039150506111bb565b5060008211156113c9577f000000000000000000000000000000000000000000000000000000000000000073ffffffffffffffffffffffffffffffffffffffff16635e35359e7f000000000000000000000000000000000000000000000000000000000000000033856040518463ffffffff1660e01b8152600401808473ffffffffffffffffffffffffffffffffffffffff1681526020018373ffffffffffffffffffffffffffffffffffffffff1681526020018281526020019350505050600060405180830381600087803b1580156113b057600080fd5b505af11580156113c4573d6000803e3d6000fd5b505050505b5050505060016002819055505050565b6000806000846113e881612ed1565b6113f061799d565b6113f988612f6b565b9050600073ffffffffffffffffffffffffffffffffffffffff16816000015173ffffffffffffffffffffffffffffffffffffffff1614156114a2576040517f08c379a000000000000000000000000000000000000000000000000000000000815260040180806020018281038252600e8152602001807f4552525f494e56414c49445f494400000000000000000000000000000000000081525060200191505060405180910390fd5b8060e0015186101561151c576040517f08c379a00000000000000000000000000000000000000000000000000000000081526004018080602001828103825260158152602001807f4552525f494e56414c49445f54494d455354414d50000000000000000000000081525060200191505060405180910390fd5b620f424063ffffffff168763ffffffff16146115a357620f424063ffffffff166115598863ffffffff16836060015161314490919063ffffffff16565b8161156057fe5b04816060018181525050620f424063ffffffff166115918863ffffffff16836080015161314490919063ffffffff16565b8161159857fe5b048160800181815250505b6115ab617a24565b6115c7826020015183604001518460a001518560c001516131ca565b905060006115ee8360200151846040015185606001518660800151868860e001518e61335b565b90506115fd83604001516134b3565b1561161457808160009650965096505050506117b8565b61161c617983565b61162e8460200151856040015161350b565b90506000611669600283600001518161164357fe5b0461165b84602001518661314490919063ffffffff16565b61355b90919063ffffffff16565b9050600061174986606001517f000000000000000000000000000000000000000000000000000000000000000073ffffffffffffffffffffffffffffffffffffffff16635121220c89602001516040518263ffffffff1660e01b8152600401808273ffffffffffffffffffffffffffffffffffffffff16815260200191505060206040518083038186803b15801561170057600080fd5b505afa158015611714573d6000803e3d6000fd5b505050506040513d602081101561172a57600080fd5b8101908080519060200190929190505050612e4990919063ffffffff16565b9050808211611758578161175a565b805b915060006117958460200151611787600287600001518161177757fe5b048661314490919063ffffffff16565b61355b90919063ffffffff16565b905060006117a48683896135e4565b90508582829b509b509b5050505050505050505b5093509350939050565b6117ca612cd4565b60028081905550806117db81612ed1565b6117e633848461370a565b5060016002819055505050565b600160009054906101000a900473ffffffffffffffffffffffffffffffffffffffff1673ffffffffffffffffffffffffffffffffffffffff163373ffffffffffffffffffffffffffffffffffffffff16146118b6576040517f08c379a00000000000000000000000000000000000000000000000000000000081526004018080602001828103825260118152602001807f4552525f4143434553535f44454e49454400000000000000000000000000000081525060200191505060405180910390fd5b600160009054906101000a900473ffffffffffffffffffffffffffffffffffffffff1673ffffffffffffffffffffffffffffffffffffffff1660008054906101000a900473ffffffffffffffffffffffffffffffffffffffff1673ffffffffffffffffffffffffffffffffffffffff167f343765429aea5a34b3ff6a3785a98a5abb2597aca87bfbb58632c173d585373a60405160405180910390a3600160009054906101000a900473ffffffffffffffffffffffffffffffffffffffff166000806101000a81548173ffffffffffffffffffffffffffffffffffffffff021916908373ffffffffffffffffffffffffffffffffffffffff1602179055506000600160006101000a81548173ffffffffffffffffffffffffffffffffffffffff021916908373ffffffffffffffffffffffffffffffffffffffff160217905550565b60007f0000000000000000000000000000000000000000000000000000000000000000905090565b611a28612c11565b7f000000000000000000000000000000000000000000000000000000000000000073ffffffffffffffffffffffffffffffffffffffff166379ba50976040518163ffffffff1660e01b8152600401600060405180830381600087803b158015611a9057600080fd5b505af1158015611aa4573d6000803e3d6000fd5b50505050565b60008054906101000a900473ffffffffffffffffffffffffffffffffffffffff1681565b60006001600460006101000a81548160ff0219169083151502179055508c6005819055508b600681905550611b01617a24565b6040518060c001604052808b6fffffffffffffffffffffffffffffffff1681526020018a6fffffffffffffffffffffffffffffffff168152602001896fffffffffffffffffffffffffffffffff168152602001886fffffffffffffffffffffffffffffffff168152602001876fffffffffffffffffffffffffffffffff168152602001866fffffffffffffffffffffffffffffffff1681525090506000611bae6000808f8f868a8a61335b565b90506000600460006101000a81548160ff02191690831515021790555080925050509c9b505050505050505050505050565b60007f0000000000000000000000000000000000000000000000000000000000000000905090565b600080611c13617983565b6040518060400160405280888152602001878152509050611c32617983565b6040518060400160405280878152602001868152509050611c51617983565b611c5b8383614008565b9050806000015181602001519450945050505094509492505050565b611c7f612c11565b7f000000000000000000000000000000000000000000000000000000000000000073ffffffffffffffffffffffffffffffffffffffff1663f2fde38b826040518263ffffffff1660e01b8152600401808273ffffffffffffffffffffffffffffffffffffffff168152602001915050600060405180830381600087803b158015611d0857600080fd5b505af1158015611d1c573d6000803e3d6000fd5b5050505050565b611d2b612c11565b7f000000000000000000000000000000000000000000000000000000000000000073ffffffffffffffffffffffffffffffffffffffff1663f2fde38b826040518263ffffffff1660e01b8152600401808273ffffffffffffffffffffffffffffffffffffffff168152602001915050600060405180830381600087803b158015611db457600080fd5b505af1158015611dc8573d6000803e3d6000fd5b5050505050565b600080611df786611de9878a61314490919063ffffffff16565b61355b90919063ffffffff16565b9050611e01617a24565b611e0d8a8a87876131ca565b90506000611ee08b8b858c86611ed37f000000000000000000000000000000000000000000000000000000000000000073ffffffffffffffffffffffffffffffffffffffff1663ce3f3adb6040518163ffffffff1660e01b815260040160206040518083038186803b158015611e8257600080fd5b505afa158015611e96573d6000803e3d6000fd5b505050506040513d6020811015611eac57600080fd5b8101908080519060200190929190505050611ec5612e3a565b61410d90919063ffffffff16565b611edb612e3a565b61335b565b9050611f1089611f02620f424063ffffffff168461314490919063ffffffff16565b61355b90919063ffffffff16565b9350505050979650505050505050565b6000611f2a612cd4565b6002808190555084611f3b81612d4e565b84611f4581612573565b611f4e816126aa565b8585611f5a8282614190565b85611f64816142e7565b611f708a8a8a8a614360565b955050505050506001600281905550949350505050565b60035481565b600160009054906101000a900473ffffffffffffffffffffffffffffffffffffffff1681565b60007f0000000000000000000000000000000000000000000000000000000000000000905090565b60007f0000000000000000000000000000000000000000000000000000000000000000905090565b600061200d612cd4565b600280819055508361201e81612573565b612027816126aa565b84846120338282614190565b8461203d816142e7565b61204933898989614360565b94505050505060016002819055509392505050565b612066612c11565b60008054906101000a900473ffffffffffffffffffffffffffffffffffffffff1673ffffffffffffffffffffffffffffffffffffffff168173ffffffffffffffffffffffffffffffffffffffff161415612128576040517f08c379a000000000000000000000000000000000000000000000000000000000815260040180806020018281038252600e8152602001807f4552525f53414d455f4f574e455200000000000000000000000000000000000081525060200191505060405180910390fd5b80600160006101000a81548173ffffffffffffffffffffffffffffffffffffffff021916908373ffffffffffffffffffffffffffffffffffffffff16021790555050565b6000612176617983565b6040518060400160405280898152602001888152509050612195617983565b60405180604001604052808881526020018781525090506121b4617983565b60405180604001604052808781526020018681525090506121d78b8484846143d7565b9350505050979650505050505050565b60006121f1617983565b6040518060400160405280878152602001868152509050612210617983565b604051806040016040528086815260200185815250905061223389898484614532565b925050509695505050505050565b612249617983565b612251617983565b600061225c8561463f565b9050600061226a82866146c9565b905060008061227a84848961482c565b915091506000808573ffffffffffffffffffffffffffffffffffffffff16631f0181bc8a6040518263ffffffff1660e01b8152600401808273ffffffffffffffffffffffffffffffffffffffff168152602001915050604080518083038186803b1580156122e757600080fd5b505afa1580156122fb573d6000803e3d6000fd5b505050506040513d604081101561231157600080fd5b81019080805190602001909291908051906020019092919050505091509150604051806040016040528085815260200184815250604051806040016040528084815260200183815250975097505050505050509250929050565b60007f000000000000000000000000000000000000000000000000000000000000000073ffffffffffffffffffffffffffffffffffffffff166324a088686040518163ffffffff1660e01b815260040160206040518083038186803b1580156123d357600080fd5b505afa1580156123e7573d6000803e3d6000fd5b505050506040513d60208110156123fd57600080fd5b8101908080519060200190929190505050620f42400363ffffffff16905060006124548261244684612438878b61314490919063ffffffff16565b61314490919063ffffffff16565b61314490919063ffffffff16565b90506000612498620f424063ffffffff1661248a8561247c898b61314490919063ffffffff16565b61314490919063ffffffff16565b61314490919063ffffffff16565b905060006124e5620f424063ffffffff166124d7620f424063ffffffff166124c9898d61314490919063ffffffff16565b61314490919063ffffffff16565b61314490919063ffffffff16565b90508183111580156124f75750808211155b612569576040517f08c379a00000000000000000000000000000000000000000000000000000000081526004018080602001828103825260108152602001807f4552525f494e56414c49445f524154450000000000000000000000000000000081525060200191505060405180910390fd5b5050505050505050565b7f000000000000000000000000000000000000000000000000000000000000000073ffffffffffffffffffffffffffffffffffffffff1663d4f63148826040518263ffffffff1660e01b8152600401808273ffffffffffffffffffffffffffffffffffffffff16815260200191505060206040518083038186803b1580156125fa57600080fd5b505afa15801561260e573d6000803e3d6000fd5b505050506040513d602081101561262457600080fd5b81019080805190602001909291905050506126a7576040517f08c379a00000000000000000000000000000000000000000000000000000000081526004018080602001828103825260168152602001807f4552525f504f4f4c5f4e4f545f535550504f525445440000000000000000000081525060200191505060405180910390fd5b50565b7f000000000000000000000000000000000000000000000000000000000000000073ffffffffffffffffffffffffffffffffffffffff16632b26a982826040518263ffffffff1660e01b8152600401808273ffffffffffffffffffffffffffffffffffffffff16815260200191505060206040518083038186803b15801561273157600080fd5b505afa158015612745573d6000803e3d6000fd5b505050506040513d602081101561275b57600080fd5b81019080805190602001909291905050506127de576040517f08c379a00000000000000000000000000000000000000000000000000000000081526004018080602001828103825260188152602001807f4552525f504f4f4c5f4e4f545f57484954454c4953544544000000000000000081525060200191505060405180910390fd5b50565b6000806127ed8361463f565b905060007f00000000000000000000000000000000000000000000000000000000000000009050600061282083836146c9565b905060008061283085848661482c565b9150915060007f000000000000000000000000000000000000000000000000000000000000000073ffffffffffffffffffffffffffffffffffffffff1663943fd08a896040518263ffffffff1660e01b8152600401808273ffffffffffffffffffffffffffffffffffffffff16815260200191505060206040518083038186803b1580156128bd57600080fd5b505afa1580156128d1573d6000803e3d6000fd5b505050506040513d60208110156128e757600080fd5b8101908080519060200190929190505050905060008114156129a7577f000000000000000000000000000000000000000000000000000000000000000073ffffffffffffffffffffffffffffffffffffffff1663b97b55ce6040518163ffffffff1660e01b815260040160206040518083038186803b15801561296957600080fd5b505afa15801561297d573d6000803e3d6000fd5b505050506040513d602081101561299357600080fd5b810190808051906020019092919050505090505b60007f000000000000000000000000000000000000000000000000000000000000000073ffffffffffffffffffffffffffffffffffffffff1663350ed8e78a6040518263ffffffff1660e01b8152600401808273ffffffffffffffffffffffffffffffffffffffff16815260200191505060206040518083038186803b158015612a3057600080fd5b505afa158015612a44573d6000803e3d6000fd5b505050506040513d6020811015612a5a57600080fd5b81019080805190602001909291905050509050600081612a7a848461497f565b039050612aa284612a94878461314490919063ffffffff16565b61355b90919063ffffffff16565b98505050505050505050919050565b60008082905060007f00000000000000000000000000000000000000000000000000000000000000009050612ae4617983565b612aee838361350b565b9050612c078160200151612bf96001612beb8560000151612bdd87600001517f000000000000000000000000000000000000000000000000000000000000000073ffffffffffffffffffffffffffffffffffffffff16635121220c8c6040518263ffffffff1660e01b8152600401808273ffffffffffffffffffffffffffffffffffffffff16815260200191505060206040518083038186803b158015612b9457600080fd5b505afa158015612ba8573d6000803e3d6000fd5b505050506040513d6020811015612bbe57600080fd5b810190808051906020019092919050505061314490919063ffffffff16565b612e4990919063ffffffff16565b61410d90919063ffffffff16565b61355b90919063ffffffff16565b9350505050919050565b60008054906101000a900473ffffffffffffffffffffffffffffffffffffffff1673ffffffffffffffffffffffffffffffffffffffff163373ffffffffffffffffffffffffffffffffffffffff1614612cd2576040517f08c379a00000000000000000000000000000000000000000000000000000000081526004018080602001828103825260118152602001807f4552525f4143434553535f44454e49454400000000000000000000000000000081525060200191505060405180910390fd5b565b600160025414612d4c576040517f08c379a000000000000000000000000000000000000000000000000000000000815260040180806020018281038252600e8152602001807f4552525f5245454e5452414e435900000000000000000000000000000000000081525060200191505060405180910390fd5b565b600073ffffffffffffffffffffffffffffffffffffffff168173ffffffffffffffffffffffffffffffffffffffff161415612df1576040517f08c379a00000000000000000000000000000000000000000000000000000000081526004018080602001828103825260138152602001807f4552525f494e56414c49445f414444524553530000000000000000000000000081525060200191505060405180910390fd5b50565b6000612dfe61799d565b612e0c8585620f4240614998565b9050612e308382602001518360400151846060015185608001518660e00151614e05565b9150509392505050565b6000612e4461515c565b905090565b600080828401905083811015612ec7576040517f08c379a000000000000000000000000000000000000000000000000000000000815260040180806020018281038252601b8152602001807f536166654d6174683a206164646974696f6e206f766572666c6f77000000000081525060200191505060405180910390fd5b8091505092915050565b60008163ffffffff16118015612ef65750620f424063ffffffff168163ffffffff1611155b612f68576040517f08c379a00000000000000000000000000000000000000000000000000000000081526004018080602001828103825260138152602001807f4552525f494e56414c49445f504f5254494f4e0000000000000000000000000081525060200191505060405180910390fd5b50565b612f7361799d565b612f7b61799d565b7f000000000000000000000000000000000000000000000000000000000000000073ffffffffffffffffffffffffffffffffffffffff16635290ffbb846040518263ffffffff1660e01b8152600401808281526020019150506101006040518083038186803b158015612fed57600080fd5b505afa158015613001573d6000803e3d6000fd5b505050506040513d61010081101561301857600080fd5b81019080805190602001909291908051906020019092919080519060200190929190805190602001909291908051906020019092919080519060200190929190805190602001909291908051906020019092919050505088600001896020018a6040018b6060018c6080018d60a0018e60c0018f60e00188815250888152508881525088815250888152508873ffffffffffffffffffffffffffffffffffffffff1673ffffffffffffffffffffffffffffffffffffffff168152508873ffffffffffffffffffffffffffffffffffffffff1673ffffffffffffffffffffffffffffffffffffffff168152508873ffffffffffffffffffffffffffffffffffffffff1673ffffffffffffffffffffffffffffffffffffffff16815250505050505050505080915050919050565b60008083141561315757600090506131c4565b600082840290508284828161316857fe5b04146131bf576040517f08c379a0000000000000000000000000000000000000000000000000000000008152600401808060200182810382526021815260200180617aed6021913960400191505060405180910390fd5b809150505b92915050565b6131d2617a24565b6131da617983565b6131e2617983565b6131ec8787612241565b915091506fffffffffffffffffffffffffffffffff851115801561322057506fffffffffffffffffffffffffffffffff8411155b801561324057506fffffffffffffffffffffffffffffffff826000015111155b801561326057506fffffffffffffffffffffffffffffffff826020015111155b801561328057506fffffffffffffffffffffffffffffffff816000015111155b80156132a057506fffffffffffffffffffffffffffffffff816020015111155b6132a657fe5b6040518060c00160405280866fffffffffffffffffffffffffffffffff168152602001856fffffffffffffffffffffffffffffffff16815260200183600001516fffffffffffffffffffffffffffffffff16815260200183602001516fffffffffffffffffffffffffffffffff16815260200182600001516fffffffffffffffffffffffffffffffff16815260200182602001516fffffffffffffffffffffffffffffffff1681525092505050949350505050565b6000613365617983565b61336f898961350b565b9050613379617983565b604051806040016040528087600001516fffffffffffffffffffffffffffffffff16815260200187602001516fffffffffffffffffffffffffffffffff1681525090506133c4617983565b604051806040016040528088604001516fffffffffffffffffffffffffffffffff16815260200188606001516fffffffffffffffffffffffffffffffff16815250905061340f617983565b604051806040016040528089608001516fffffffffffffffffffffffffffffffff1681526020018960a001516fffffffffffffffffffffffffffffffff16815250905060006134608b8686866143d7565b905061346a617983565b6134748584614008565b905061347e617983565b6134888a8a615166565b905061349f8c6134988e8661497f565b8484614532565b975050505050505050979650505050505050565b60007f000000000000000000000000000000000000000000000000000000000000000073ffffffffffffffffffffffffffffffffffffffff168273ffffffffffffffffffffffffffffffffffffffff16149050919050565b613513617983565b600460009054906101000a900460ff161561354857604051806040016040528060055481526020016006548152509050613555565b6135528383615341565b90505b92915050565b60008082116135d2576040517f08c379a000000000000000000000000000000000000000000000000000000000815260040180806020018281038252601a8152602001807f536166654d6174683a206469766973696f6e206279207a65726f00000000000081525060200191505060405180910390fd5b8183816135db57fe5b04905092915050565b60008284116135f65760009050613703565b600061364b8360a001516fffffffffffffffffffffffffffffffff1661363d85608001516fffffffffffffffffffffffffffffffff1687890361314490919063ffffffff16565b61355b90919063ffffffff16565b90507f000000000000000000000000000000000000000000000000000000000000000073ffffffffffffffffffffffffffffffffffffffff1663a80c76ff6040518163ffffffff1660e01b815260040160206040518083038186803b1580156136b357600080fd5b505afa1580156136c7573d6000803e3d6000fd5b505050506040513d60208110156136dd57600080fd5b810190808051906020019092919050505081106136fd5780915050613703565b60009150505b9392505050565b61371261799d565b61371d848484614998565b90507f000000000000000000000000000000000000000000000000000000000000000073ffffffffffffffffffffffffffffffffffffffff1663332100fa826020015183606001516040518363ffffffff1660e01b8152600401808373ffffffffffffffffffffffffffffffffffffffff16815260200182815260200192505050600060405180830381600087803b1580156137b857600080fd5b505af11580156137cc573d6000803e3d6000fd5b505050506137dd81604001516134b3565b156138c357613833843083608001517f000000000000000000000000000000000000000000000000000000000000000073ffffffffffffffffffffffffffffffffffffffff166154b4909392919063ffffffff16565b7f000000000000000000000000000000000000000000000000000000000000000073ffffffffffffffffffffffffffffffffffffffff166342966c6882608001516040518263ffffffff1660e01b815260040180828152602001915050600060405180830381600087803b1580156138aa57600080fd5b505af11580156138be573d6000803e3d6000fd5b505050505b6138cb617a24565b6138e7826020015183604001518460a001518560c001516131ca565b905061394d81604001516fffffffffffffffffffffffffffffffff1682606001516fffffffffffffffffffffffffffffffff1683608001516fffffffffffffffffffffffffffffffff168460a001516fffffffffffffffffffffffffffffffff1661236b565b60006139798360200151846040015185606001518660800151868860e00151613974612e3a565b61335b565b905061398883604001516134b3565b156139ce576139bc7f0000000000000000000000000000000000000000000000000000000000000000846020015183615575565b6139c686826156cc565b505050614003565b6139d6617983565b6139e88460200151856040015161350b565b90506000613a2360028360000151816139fd57fe5b04613a1584602001518661314490919063ffffffff16565b61355b90919063ffffffff16565b905060007f000000000000000000000000000000000000000000000000000000000000000073ffffffffffffffffffffffffffffffffffffffff16635121220c87602001516040518263ffffffff1660e01b8152600401808273ffffffffffffffffffffffffffffffffffffffff16815260200191505060206040518083038186803b158015613ab257600080fd5b505afa158015613ac6573d6000803e3d6000fd5b505050506040513d6020811015613adc57600080fd5b81019080805190602001909291905050509050808211613afc5781613afe565b805b91506000866020015190507f000000000000000000000000000000000000000000000000000000000000000073ffffffffffffffffffffffffffffffffffffffff166319c6a5e48860200151856040518363ffffffff1660e01b8152600401808373ffffffffffffffffffffffffffffffffffffffff16815260200182815260200192505050600060405180830381600087803b158015613b9e57600080fd5b505af1158015613bb2573d6000803e3d6000fd5b505050507f000000000000000000000000000000000000000000000000000000000000000073ffffffffffffffffffffffffffffffffffffffff16635e35359e8230866040518463ffffffff1660e01b8152600401808473ffffffffffffffffffffffffffffffffffffffff1681526020018373ffffffffffffffffffffffffffffffffffffffff1681526020018281526020019350505050600060405180830381600087803b158015613c6557600080fd5b505af1158015613c79573d6000803e3d6000fd5b50505050613cb187602001518489604001517f0000000000000000000000000000000000000000000000000000000000000000615864565b6000613ce030896040015173ffffffffffffffffffffffffffffffffffffffff16615ad590919063ffffffff16565b9050613d118b828a6040015173ffffffffffffffffffffffffffffffffffffffff16615bb79092919063ffffffff16565b6000613d1e87838a6135e4565b90506000811115613f1a5760007f000000000000000000000000000000000000000000000000000000000000000073ffffffffffffffffffffffffffffffffffffffff166370a08231306040518263ffffffff1660e01b8152600401808273ffffffffffffffffffffffffffffffffffffffff16815260200191505060206040518083038186803b158015613db257600080fd5b505afa158015613dc6573d6000803e3d6000fd5b505050506040513d6020811015613ddc57600080fd5b8101908080519060200190929190505050905081811015613ea3577f000000000000000000000000000000000000000000000000000000000000000073ffffffffffffffffffffffffffffffffffffffff166340c10f19308385036040518363ffffffff1660e01b8152600401808373ffffffffffffffffffffffffffffffffffffffff16815260200182815260200192505050600060405180830381600087803b158015613e8a57600080fd5b505af1158015613e9e573d6000803e3d6000fd5b505050505b613f0e7f0000000000000000000000000000000000000000000000000000000000000000837f000000000000000000000000000000000000000000000000000000000000000073ffffffffffffffffffffffffffffffffffffffff16615c599092919063ffffffff16565b613f188d836156cc565b505b60007f000000000000000000000000000000000000000000000000000000000000000073ffffffffffffffffffffffffffffffffffffffff166370a08231306040518263ffffffff1660e01b8152600401808273ffffffffffffffffffffffffffffffffffffffff16815260200191505060206040518083038186803b158015613fa357600080fd5b505afa158015613fb7573d6000803e3d6000fd5b505050506040513d6020811015613fcd57600080fd5b810190808051906020019092919050505090506000811115613ff857613ff78a6020015182615cfb565b5b505050505050505050505b505050565b614010617983565b600061402d8460200151846000015161314490919063ffffffff16565b9050600061404c8560000151856020015161314490919063ffffffff16565b90506000818302905060008284838161406157fe5b041461407f5761407083615e33565b61407985615e33565b02614089565b61408882615e33565b5b905060006140a08486612e4990919063ffffffff16565b90506000600282816140ae57fe5b0614156140e557600281816140bf57fe5b049050604051806040016040528083830381526020018281525095505050505050614107565b6040518060400160405280600284028303815260200182815250955050505050505b92915050565b600082821115614185576040517f08c379a000000000000000000000000000000000000000000000000000000000815260040180806020018281038252601e8152602001807f536166654d6174683a207375627472616374696f6e206f766572666c6f77000081525060200191505060405180910390fd5b818303905092915050565b7f000000000000000000000000000000000000000000000000000000000000000073ffffffffffffffffffffffffffffffffffffffff16639e571a6a83836040518363ffffffff1660e01b8152600401808373ffffffffffffffffffffffffffffffffffffffff1681526020018273ffffffffffffffffffffffffffffffffffffffff1681526020019250505060206040518083038186803b15801561423557600080fd5b505afa158015614249573d6000803e3d6000fd5b505050506040513d602081101561425f57600080fd5b8101908080519060200190929190505050156142e3576040517f08c379a000000000000000000000000000000000000000000000000000000000815260040180806020018281038252601a8152602001807f4552525f4144445f4c49515549444954595f44495341424c454400000000000081525060200191505060405180910390fd5b5050565b6000811161435d576040517f08c379a000000000000000000000000000000000000000000000000000000000815260040180806020018281038252600e8152602001807f4552525f5a45524f5f56414c554500000000000000000000000000000000000081525060200191505060405180910390fd5b50565b600061436b836134b3565b1561438c5761437a6000615e93565b614385858584615f0b565b90506143cf565b6143c06143ae8473ffffffffffffffffffffffffffffffffffffffff1661614c565b6143b95760006143bb565b825b615e93565b6143cc85858585616198565b90505b949350505050565b60008061441385600001516144056144008660000151886020015161314490919063ffffffff16565b61687a565b61314490919063ffffffff16565b90506000614450866020015161444261443d8760200151896000015161314490919063ffffffff16565b615e33565b61314490919063ffffffff16565b9050600087830290508783828161446357fe5b04141561447e5781818161447357fe5b04935050505061452a565b60008089851161448f578985614492565b848a5b915091506000806144cd8487857fffffffffffffffffffffffffffffffffffffffffffffffffffffffffffffffff816144c757fe5b046168a4565b9150915060006144ef848887816144e057fe5b0461314490919063ffffffff16565b9050600082111561451e5761450f81838686028161450957fe5b0461497f565b9850505050505050505061452a565b80985050505050505050505b949350505050565b60008061454c86846000015161314490919063ffffffff16565b9050600083602001519050600061456c614566848461497f565b8861497f565b90506000806145ad88600001518960200151857fffffffffffffffffffffffffffffffffffffffffffffffffffffffffffffffff816145a757fe5b046168a4565b915091506146306145eb6145ca868461314490919063ffffffff16565b6145dd888661314490919063ffffffff16565b61355b90919063ffffffff16565b61462283614614614605878761410d90919063ffffffff16565b8e61314490919063ffffffff16565b61355b90919063ffffffff16565b612e4990919063ffffffff16565b95505050505050949350505050565b60008173ffffffffffffffffffffffffffffffffffffffff16638da5cb5b6040518163ffffffff1660e01b815260040160206040518083038186803b15801561468757600080fd5b505afa15801561469b573d6000803e3d6000fd5b505050506040513d60208110156146b157600080fd5b81019080805190602001909291905050509050919050565b6000808373ffffffffffffffffffffffffffffffffffffffff166319b6401560006040518263ffffffff1660e01b81526004018082815260200191505060206040518083038186803b15801561471e57600080fd5b505afa158015614732573d6000803e3d6000fd5b505050506040513d602081101561474857600080fd5b810190808051906020019092919050505090508273ffffffffffffffffffffffffffffffffffffffff168173ffffffffffffffffffffffffffffffffffffffff161415614821578373ffffffffffffffffffffffffffffffffffffffff166319b6401560016040518263ffffffff1660e01b81526004018082815260200191505060206040518083038186803b1580156147e157600080fd5b505afa1580156147f5573d6000803e3d6000fd5b505050506040513d602081101561480b57600080fd5b8101908080519060200190929190505050614823565b805b91505092915050565b6000808473ffffffffffffffffffffffffffffffffffffffff1663d8959512856040518263ffffffff1660e01b8152600401808273ffffffffffffffffffffffffffffffffffffffff16815260200191505060206040518083038186803b15801561489657600080fd5b505afa1580156148aa573d6000803e3d6000fd5b505050506040513d60208110156148c057600080fd5b81019080805190602001909291905050508573ffffffffffffffffffffffffffffffffffffffff1663d8959512856040518263ffffffff1660e01b8152600401808273ffffffffffffffffffffffffffffffffffffffff16815260200191505060206040518083038186803b15801561493857600080fd5b505afa15801561494c573d6000803e3d6000fd5b505050506040513d602081101561496257600080fd5b810190808051906020019092919050505091509150935093915050565b600081831161498e5781614990565b825b905092915050565b6149a061799d565b6149a861799d565b6149b284866168fc565b90506149c181602001516126aa565b6149c9612e3a565b8160e0015110614a41576040517f08c379a000000000000000000000000000000000000000000000000000000000815260040180806020018281038252600d8152602001807f4552525f544f4f5f4541524c590000000000000000000000000000000000000081525060200191505060405180910390fd5b620f424063ffffffff168363ffffffff161415614b0a57614a7a84826000015183602001518460400151856060015186608001516169c6565b7f000000000000000000000000000000000000000000000000000000000000000073ffffffffffffffffffffffffffffffffffffffff16636f366b71856040518263ffffffff1660e01b815260040180828152602001915050600060405180830381600087803b158015614aed57600080fd5b505af1158015614b01573d6000803e3d6000fd5b50505050614c58565b600081606001519050600082608001519050620f424063ffffffff16614b438663ffffffff16856060015161314490919063ffffffff16565b81614b4a57fe5b04836060018181525050620f424063ffffffff16614b7b8663ffffffff16856080015161314490919063ffffffff16565b81614b8257fe5b04836080018181525050614bae86846000015185602001518660400151876060015188608001516169c6565b7f000000000000000000000000000000000000000000000000000000000000000073ffffffffffffffffffffffffffffffffffffffff1663b089cde88785606001518503866080015185036040518463ffffffff1660e01b8152600401808481526020018381526020018281526020019350505050600060405180830381600087803b158015614c3d57600080fd5b505af1158015614c51573d6000803e3d6000fd5b5050505050505b7f000000000000000000000000000000000000000000000000000000000000000073ffffffffffffffffffffffffffffffffffffffff166327396b6d826000015183602001518460400151856060015186608001516040518663ffffffff1660e01b8152600401808673ffffffffffffffffffffffffffffffffffffffff1681526020018573ffffffffffffffffffffffffffffffffffffffff1681526020018473ffffffffffffffffffffffffffffffffffffffff16815260200183815260200182815260200195505050505050600060405180830381600087803b158015614d4157600080fd5b505af1158015614d55573d6000803e3d6000fd5b505050507f000000000000000000000000000000000000000000000000000000000000000073ffffffffffffffffffffffffffffffffffffffff16631d092adf866040518263ffffffff1660e01b8152600401808273ffffffffffffffffffffffffffffffffffffffff168152602001915050600060405180830381600087803b158015614de257600080fd5b505af1158015614df6573d6000803e3d6000fd5b50505050809150509392505050565b6000614e0f617983565b614e17617983565b614e218888612241565b91509150614e41826000015183602001518360000151846020015161236b565b614e4e8989898989616c16565b7f000000000000000000000000000000000000000000000000000000000000000073ffffffffffffffffffffffffffffffffffffffff1663aa558ef08a8a8a8a8a6040518663ffffffff1660e01b8152600401808673ffffffffffffffffffffffffffffffffffffffff1681526020018573ffffffffffffffffffffffffffffffffffffffff1681526020018473ffffffffffffffffffffffffffffffffffffffff16815260200183815260200182815260200195505050505050600060405180830381600087803b158015614f2357600080fd5b505af1158015614f37573d6000803e3d6000fd5b505050507f000000000000000000000000000000000000000000000000000000000000000073ffffffffffffffffffffffffffffffffffffffff1663fd4bc1e68a8a6040518363ffffffff1660e01b8152600401808373ffffffffffffffffffffffffffffffffffffffff1681526020018273ffffffffffffffffffffffffffffffffffffffff16815260200192505050602060405180830381600087803b158015614fe257600080fd5b505af1158015614ff6573d6000803e3d6000fd5b505050506040513d602081101561500c57600080fd5b8101908080519060200190929190505050507f000000000000000000000000000000000000000000000000000000000000000073ffffffffffffffffffffffffffffffffffffffff166361d5f0878a8a8a8a8a886000015189602001518c6040518963ffffffff1660e01b8152600401808973ffffffffffffffffffffffffffffffffffffffff1681526020018873ffffffffffffffffffffffffffffffffffffffff1681526020018773ffffffffffffffffffffffffffffffffffffffff16815260200186815260200185815260200184815260200183815260200182815260200198505050505050505050602060405180830381600087803b15801561511357600080fd5b505af1158015615127573d6000803e3d6000fd5b505050506040513d602081101561513d57600080fd5b8101908080519060200190929190505050925050509695505050505050565b6000600354905090565b61516e617983565b6000615183848461410d90919063ffffffff16565b905060007f000000000000000000000000000000000000000000000000000000000000000073ffffffffffffffffffffffffffffffffffffffff16632c560f896040518163ffffffff1660e01b815260040160206040518083038186803b1580156151ed57600080fd5b505afa158015615201573d6000803e3d6000fd5b505050506040513d602081101561521757600080fd5b8101908080519060200190929190505050905060007f000000000000000000000000000000000000000000000000000000000000000073ffffffffffffffffffffffffffffffffffffffff1663ce3f3adb6040518163ffffffff1660e01b815260040160206040518083038186803b15801561529257600080fd5b505afa1580156152a6573d6000803e3d6000fd5b505050506040513d60208110156152bc57600080fd5b81019080805190602001909291905050509050818310156152f8576040518060400160405280600081526020016001815250935050505061533b565b808310615320576040518060400160405280600181526020016001815250935050505061533b565b60405180604001604052808481526020018281525093505050505b92915050565b615349617983565b60008373ffffffffffffffffffffffffffffffffffffffff166318160ddd6040518163ffffffff1660e01b815260040160206040518083038186803b15801561539157600080fd5b505afa1580156153a5573d6000803e3d6000fd5b505050506040513d60208110156153bb57600080fd5b8101908080519060200190929190505050905060006153d98561463f565b905060008173ffffffffffffffffffffffffffffffffffffffff1663d8959512866040518263ffffffff1660e01b8152600401808273ffffffffffffffffffffffffffffffffffffffff16815260200191505060206040518083038186803b15801561544457600080fd5b505afa158015615458573d6000803e3d6000fd5b505050506040513d602081101561546e57600080fd5b8101908080519060200190929190505050905060405180604001604052806154a060028461314490919063ffffffff16565b815260200184815250935050505092915050565b61556f846323b872dd60e01b858585604051602401808473ffffffffffffffffffffffffffffffffffffffff1681526020018373ffffffffffffffffffffffffffffffffffffffff1681526020018281526020019350505050604051602081830303815290604052907bffffffffffffffffffffffffffffffffffffffffffffffffffffffff19166020820180517bffffffffffffffffffffffffffffffffffffffffffffffffffffffff8381831617835250505050616e5d565b50505050565b7f000000000000000000000000000000000000000000000000000000000000000073ffffffffffffffffffffffffffffffffffffffff1663deacd84e83836040518363ffffffff1660e01b8152600401808373ffffffffffffffffffffffffffffffffffffffff16815260200182815260200192505050600060405180830381600087803b15801561560657600080fd5b505af115801561561a573d6000803e3d6000fd5b505050507f000000000000000000000000000000000000000000000000000000000000000073ffffffffffffffffffffffffffffffffffffffff166340c10f1984836040518363ffffffff1660e01b8152600401808373ffffffffffffffffffffffffffffffffffffffff16815260200182815260200192505050600060405180830381600087803b1580156156af57600080fd5b505af11580156156c3573d6000803e3d6000fd5b50505050505050565b60006157887f000000000000000000000000000000000000000000000000000000000000000073ffffffffffffffffffffffffffffffffffffffff1663045544436040518163ffffffff1660e01b815260040160206040518083038186803b15801561573757600080fd5b505afa15801561574b573d6000803e3d6000fd5b505050506040513d602081101561576157600080fd5b810190808051906020019092919050505061577a612e3a565b612e4990919063ffffffff16565b90507f000000000000000000000000000000000000000000000000000000000000000073ffffffffffffffffffffffffffffffffffffffff1663dbae3a5d8484846040518463ffffffff1660e01b8152600401808473ffffffffffffffffffffffffffffffffffffffff1681526020018381526020018281526020019350505050602060405180830381600087803b15801561582357600080fd5b505af1158015615837573d6000803e3d6000fd5b505050506040513d602081101561584d57600080fd5b810190808051906020019092919050505050505050565b600061586f8561463f565b90506060600267ffffffffffffffff8111801561588b57600080fd5b506040519080825280602002602001820160405280156158ba5781602001602082028036833780820191505090505b5090506060600267ffffffffffffffff811180156158d757600080fd5b506040519080825280602002602001820160405280156159065781602001602082028036833780820191505090505b509050848260008151811061591757fe5b602002602001019073ffffffffffffffffffffffffffffffffffffffff16908173ffffffffffffffffffffffffffffffffffffffff1681525050838260018151811061595f57fe5b602002602001019073ffffffffffffffffffffffffffffffffffffffff16908173ffffffffffffffffffffffffffffffffffffffff16815250506001816000815181106159a857fe5b6020026020010181815250506001816001815181106159c357fe5b6020026020010181815250508273ffffffffffffffffffffffffffffffffffffffff1663b127c0a58784846040518463ffffffff1660e01b8152600401808481526020018060200180602001838103835285818151815260200191508051906020019060200280838360005b83811015615a4a578082015181840152602081019050615a2f565b50505050905001838103825284818151815260200191508051906020019060200280838360005b83811015615a8c578082015181840152602081019050615a71565b5050505090500195505050505050600060405180830381600087803b158015615ab457600080fd5b505af1158015615ac8573d6000803e3d6000fd5b5050505050505050505050565b6000615ae08361614c565b15615b04578173ffffffffffffffffffffffffffffffffffffffff16319050615bb1565b615b0d83616f4c565b73ffffffffffffffffffffffffffffffffffffffff166370a08231836040518263ffffffff1660e01b8152600401808273ffffffffffffffffffffffffffffffffffffffff16815260200191505060206040518083038186803b158015615b7357600080fd5b505afa158015615b87573d6000803e3d6000fd5b505050506040513d6020811015615b9d57600080fd5b810190808051906020019092919050505090505b92915050565b6000811415615bc557615c54565b615bce8361614c565b15615c1f578173ffffffffffffffffffffffffffffffffffffffff166108fc829081150290604051600060405180830381858888f19350505050158015615c19573d6000803e3d6000fd5b50615c53565b615c528282615c2d86616f4c565b73ffffffffffffffffffffffffffffffffffffffff16615c599092919063ffffffff16565b5b5b505050565b615cf68363a9059cbb60e01b8484604051602401808373ffffffffffffffffffffffffffffffffffffffff16815260200182815260200192505050604051602081830303815290604052907bffffffffffffffffffffffffffffffffffffffffffffffffffffffff19166020820180517bffffffffffffffffffffffffffffffffffffffffffffffffffffffff8381831617835250505050616e5d565b505050565b7f000000000000000000000000000000000000000000000000000000000000000073ffffffffffffffffffffffffffffffffffffffff1663802fa3ba83836040518363ffffffff1660e01b8152600401808373ffffffffffffffffffffffffffffffffffffffff16815260200182815260200192505050600060405180830381600087803b158015615d8c57600080fd5b505af1158015615da0573d6000803e3d6000fd5b505050507f000000000000000000000000000000000000000000000000000000000000000073ffffffffffffffffffffffffffffffffffffffff166342966c68826040518263ffffffff1660e01b815260040180828152602001915050600060405180830381600087803b158015615e1757600080fd5b505af1158015615e2b573d6000803e3d6000fd5b505050505050565b600080600160028481615e4257fe5b0401905060006002828581615e5357fe5b04830181615e5d57fe5b0490505b80821115615e89578091506002828581615e7757fe5b04830181615e8157fe5b049050615e61565b8192505050919050565b803414615f08576040517f08c379a00000000000000000000000000000000000000000000000000000000081526004018080602001828103825260178152602001807f4552525f4554485f414d4f554e545f4d49534d4154434800000000000000000081525060200191505060405180910390fd5b50565b60008083905060007f00000000000000000000000000000000000000000000000000000000000000009050615f3e617983565b615f48838361350b565b90506000615f798260000151615f6b84602001518961314490919063ffffffff16565b61355b90919063ffffffff16565b90507f000000000000000000000000000000000000000000000000000000000000000073ffffffffffffffffffffffffffffffffffffffff166319c6a5e485836040518363ffffffff1660e01b8152600401808373ffffffffffffffffffffffffffffffffffffffff16815260200182815260200192505050600060405180830381600087803b15801561600c57600080fd5b505af1158015616020573d6000803e3d6000fd5b50505050600061603b898686858b616036612e3a565b614e05565b905061608a3330897f000000000000000000000000000000000000000000000000000000000000000073ffffffffffffffffffffffffffffffffffffffff166154b4909392919063ffffffff16565b6160948888615cfb565b7f000000000000000000000000000000000000000000000000000000000000000073ffffffffffffffffffffffffffffffffffffffff166340c10f198a896040518363ffffffff1660e01b8152600401808373ffffffffffffffffffffffffffffffffffffffff16815260200182815260200192505050600060405180830381600087803b15801561612557600080fd5b505af1158015616139573d6000803e3d6000fd5b5050505080955050505050509392505050565b600073eeeeeeeeeeeeeeeeeeeeeeeeeeeeeeeeeeeeeeee73ffffffffffffffffffffffffffffffffffffffff168273ffffffffffffffffffffffffffffffffffffffff16149050919050565b60008084905060007f0000000000000000000000000000000000000000000000000000000000000000905060006161ce8761463f565b90506000806161de83898661482c565b915091507f000000000000000000000000000000000000000000000000000000000000000073ffffffffffffffffffffffffffffffffffffffff166312588d0e6040518163ffffffff1660e01b815260040160206040518083038186803b15801561624857600080fd5b505afa15801561625c573d6000803e3d6000fd5b505050506040513d602081101561627257600080fd5b81019080805190602001909291905050508110156162f8576040517f08c379a00000000000000000000000000000000000000000000000000000000081526004018080602001828103825260188152602001807f4552525f4e4f545f454e4f5547485f4c4951554944495459000000000000000081525060200191505060405180910390fd5b600061631f83616311848b61314490919063ffffffff16565b61355b90919063ffffffff16565b905060007f000000000000000000000000000000000000000000000000000000000000000073ffffffffffffffffffffffffffffffffffffffff1663943fd08a8c6040518263ffffffff1660e01b8152600401808273ffffffffffffffffffffffffffffffffffffffff16815260200191505060206040518083038186803b1580156163aa57600080fd5b505afa1580156163be573d6000803e3d6000fd5b505050506040513d60208110156163d457600080fd5b810190808051906020019092919050505090506000811415616494577f000000000000000000000000000000000000000000000000000000000000000073ffffffffffffffffffffffffffffffffffffffff1663b97b55ce6040518163ffffffff1660e01b815260040160206040518083038186803b15801561645657600080fd5b505afa15801561646a573d6000803e3d6000fd5b505050506040513d602081101561648057600080fd5b810190808051906020019092919050505090505b600061656a837f000000000000000000000000000000000000000000000000000000000000000073ffffffffffffffffffffffffffffffffffffffff1663350ed8e78f6040518263ffffffff1660e01b8152600401808273ffffffffffffffffffffffffffffffffffffffff16815260200191505060206040518083038186803b15801561652157600080fd5b505afa158015616535573d6000803e3d6000fd5b505050506040513d602081101561654b57600080fd5b8101908080519060200190929190505050612e4990919063ffffffff16565b9050818111156165e2576040517f08c379a00000000000000000000000000000000000000000000000000000000081526004018080602001828103825260168152602001807f4552525f4d41585f414d4f554e545f524541434845440000000000000000000081525060200191505060405180910390fd5b6165ed308d85615575565b61661886848973ffffffffffffffffffffffffffffffffffffffff16616f569092919063ffffffff16565b6166378b73ffffffffffffffffffffffffffffffffffffffff1661614c565b6166945761666833308c8e73ffffffffffffffffffffffffffffffffffffffff16616fa2909392919063ffffffff16565b616693868b8d73ffffffffffffffffffffffffffffffffffffffff16616f569092919063ffffffff16565b5b6166a2868c898d8734616ffc565b60008873ffffffffffffffffffffffffffffffffffffffff166370a08231306040518263ffffffff1660e01b8152600401808273ffffffffffffffffffffffffffffffffffffffff16815260200191505060206040518083038186803b15801561670b57600080fd5b505afa15801561671f573d6000803e3d6000fd5b505050506040513d602081101561673557600080fd5b810190808051906020019092919050505090506167937f0000000000000000000000000000000000000000000000000000000000000000828b73ffffffffffffffffffffffffffffffffffffffff16615c599092919063ffffffff16565b7f000000000000000000000000000000000000000000000000000000000000000073ffffffffffffffffffffffffffffffffffffffff1663332100fa8a600284816167da57fe5b0484036040518363ffffffff1660e01b8152600401808373ffffffffffffffffffffffffffffffffffffffff16815260200182815260200192505050600060405180830381600087803b15801561683057600080fd5b505af1158015616844573d6000803e3d6000fd5b505050506168678e8a8e6002858161685857fe5b048f616862612e3a565b614e05565b9950505050505050505050949350505050565b60008061688683615e33565b9050828182021461689a576001810161689c565b805b915050919050565b600080600080868691509150848211806168bd57508481115b156168d6576168cd828287617261565b80925081935050505b8082146168ea5781819350935050506168f4565b6001809350935050505b935093915050565b61690461799d565b61690c61799d565b61691584612f6b565b90508273ffffffffffffffffffffffffffffffffffffffff16816000015173ffffffffffffffffffffffffffffffffffffffff16146169bc576040517f08c379a00000000000000000000000000000000000000000000000000000000081526004018080602001828103825260118152602001807f4552525f4143434553535f44454e49454400000000000000000000000000000081525060200191505060405180910390fd5b8091505092915050565b60607f000000000000000000000000000000000000000000000000000000000000000073ffffffffffffffffffffffffffffffffffffffff16639e2ce9d26040518163ffffffff1660e01b815260040160006040518083038186803b158015616a2e57600080fd5b505afa158015616a42573d6000803e3d6000fd5b505050506040513d6000823e3d601f19601f820116820180604052506020811015616a6c57600080fd5b8101908080516040519392919084640100000000821115616a8c57600080fd5b83820191506020820185811115616aa257600080fd5b8251866020820283011164010000000082111715616abf57600080fd5b8083526020830192505050908051906020019060200280838360005b83811015616af6578082015181840152602081019050616adb565b50505050905001604052505050905060008151905060005b81811015616c0b57828181518110616b2257fe5b602002602001015173ffffffffffffffffffffffffffffffffffffffff1663b8128fe68a8a8a8a8a8a6040518763ffffffff1660e01b8152600401808781526020018673ffffffffffffffffffffffffffffffffffffffff1681526020018573ffffffffffffffffffffffffffffffffffffffff1681526020018473ffffffffffffffffffffffffffffffffffffffff1681526020018381526020018281526020019650505050505050600060405180830381600087803b158015616be657600080fd5b505af1158015616bfa573d6000803e3d6000fd5b505050508080600101915050616b0e565b505050505050505050565b60607f000000000000000000000000000000000000000000000000000000000000000073ffffffffffffffffffffffffffffffffffffffff16639e2ce9d26040518163ffffffff1660e01b815260040160006040518083038186803b158015616c7e57600080fd5b505afa158015616c92573d6000803e3d6000fd5b505050506040513d6000823e3d601f19601f820116820180604052506020811015616cbc57600080fd5b8101908080516040519392919084640100000000821115616cdc57600080fd5b83820191506020820185811115616cf257600080fd5b8251866020820283011164010000000082111715616d0f57600080fd5b8083526020830192505050908051906020019060200280838360005b83811015616d46578082015181840152602081019050616d2b565b50505050905001604052505050905060008151905060005b81811015616e5357828181518110616d7257fe5b602002602001015173ffffffffffffffffffffffffffffffffffffffff1663139c22ea89898989896040518663ffffffff1660e01b8152600401808673ffffffffffffffffffffffffffffffffffffffff1681526020018573ffffffffffffffffffffffffffffffffffffffff1681526020018473ffffffffffffffffffffffffffffffffffffffff16815260200183815260200182815260200195505050505050600060405180830381600087803b158015616e2e57600080fd5b505af1158015616e42573d6000803e3d6000fd5b505050508080600101915050616d5e565b5050505050505050565b6060616ebf826040518060400160405280602081526020017f5361666545524332303a206c6f772d6c6576656c2063616c6c206661696c65648152508573ffffffffffffffffffffffffffffffffffffffff166172a29092919063ffffffff16565b9050600081511115616f4757808060200190516020811015616ee057600080fd5b8101908080519060200190929190505050616f46576040517f08c379a000000000000000000000000000000000000000000000000000000000815260040180806020018281038252602a815260200180617b0e602a913960400191505060405180910390fd5b5b505050565b6000819050919050565b616f5f8361614c565b15616f6957616f9d565b616f9c8282616f7786616f4c565b73ffffffffffffffffffffffffffffffffffffffff166172ba9092919063ffffffff16565b5b505050565b6000811480616fb65750616fb58461614c565b5b15616fc057616ff6565b616ff5838383616fcf88616f4c565b73ffffffffffffffffffffffffffffffffffffffff166154b4909392919063ffffffff16565b5b50505050565b6060600267ffffffffffffffff8111801561701657600080fd5b506040519080825280602002602001820160405280156170455781602001602082028036833780820191505090505b5090506060600267ffffffffffffffff8111801561706257600080fd5b506040519080825280602002602001820160405280156170915781602001602082028036833780820191505090505b50905086826000815181106170a257fe5b602002602001019073ffffffffffffffffffffffffffffffffffffffff16908173ffffffffffffffffffffffffffffffffffffffff168152505085826001815181106170ea57fe5b602002602001019073ffffffffffffffffffffffffffffffffffffffff16908173ffffffffffffffffffffffffffffffffffffffff1681525050848160008151811061713257fe5b602002602001018181525050838160018151811061714c57fe5b6020026020010181815250508773ffffffffffffffffffffffffffffffffffffffff16637d8916bd84848460016040518563ffffffff1660e01b8152600401808060200180602001848152602001838103835286818151815260200191508051906020019060200280838360005b838110156171d55780820151818401526020810190506171ba565b50505050905001838103825285818151815260200191508051906020019060200280838360005b838110156172175780820151818401526020810190506171fc565b50505050905001955050505050506000604051808303818588803b15801561723e57600080fd5b505af1158015617252573d6000803e3d6000fd5b50505050505050505050505050565b60008083851161727f57617276858585617401565b9150915061729a565b60008061728d868887617401565b9150915080829350935050505b935093915050565b60606172b18484600085617502565b90509392505050565b60008114156172c8576173fc565b60008373ffffffffffffffffffffffffffffffffffffffff1663dd62ed3e30856040518363ffffffff1660e01b8152600401808373ffffffffffffffffffffffffffffffffffffffff1681526020018273ffffffffffffffffffffffffffffffffffffffff1681526020019250505060206040518083038186803b15801561734f57600080fd5b505afa158015617363573d6000803e3d6000fd5b505050506040513d602081101561737957600080fd5b8101908080519060200190929190505050905081811061739957506173fc565b60008111156173cf576173ce8360008673ffffffffffffffffffffffffffffffffffffffff166176ab9092919063ffffffff16565b5b6173fa83838673ffffffffffffffffffffffffffffffffffffffff166176ab9092919063ffffffff16565b505b505050565b6000806000837fffffffffffffffffffffffffffffffffffffffffffffffffffffffffffffffff8161742f57fe5b049050808611156174675760006001808301888161744957fe5b0401905080878161745657fe5b04965080868161746257fe5b049550505b8486146174de5760008487029050600086880190508781106174a857600061748f8383617870565b90506000818803905081819650965050505050506174fa565b6002888803816174b457fe5b0487038210156174cd57600086945094505050506174fa565b6001808703945094505050506174fa565b600284816174e857fe5b04600285816174f357fe5b0492509250505b935093915050565b60608247101561755d576040517f08c379a0000000000000000000000000000000000000000000000000000000008152600401808060200182810382526026815260200180617ac76026913960400191505060405180910390fd5b617566856178a4565b6175d8576040517f08c379a000000000000000000000000000000000000000000000000000000000815260040180806020018281038252601d8152602001807f416464726573733a2063616c6c20746f206e6f6e2d636f6e747261637400000081525060200191505060405180910390fd5b600060608673ffffffffffffffffffffffffffffffffffffffff1685876040518082805190602001908083835b602083106176285780518252602082019150602081019050602083039250617605565b6001836020036101000a03801982511681845116808217855250505050505090500191505060006040518083038185875af1925050503d806000811461768a576040519150601f19603f3d011682016040523d82523d6000602084013e61768f565b606091505b509150915061769f8282866178b7565b92505050949350505050565b6000811480617779575060008373ffffffffffffffffffffffffffffffffffffffff1663dd62ed3e30856040518363ffffffff1660e01b8152600401808373ffffffffffffffffffffffffffffffffffffffff1681526020018273ffffffffffffffffffffffffffffffffffffffff1681526020019250505060206040518083038186803b15801561773c57600080fd5b505afa158015617750573d6000803e3d6000fd5b505050506040513d602081101561776657600080fd5b8101908080519060200190929190505050145b6177ce576040517f08c379a0000000000000000000000000000000000000000000000000000000008152600401808060200182810382526036815260200180617b386036913960400191505060405180910390fd5b61786b8363095ea7b360e01b8484604051602401808373ffffffffffffffffffffffffffffffffffffffff16815260200182815260200192505050604051602081830303815290604052907bffffffffffffffffffffffffffffffffffffffffffffffffffffffff19166020820180517bffffffffffffffffffffffffffffffffffffffffffffffffffffffff8381831617835250505050616e5d565b505050565b60006002828161787c57fe5b04820382848161788857fe5b068161789057fe5b0482848161789a57fe5b0401905092915050565b600080823b905060008111915050919050565b606083156178c75782905061797c565b6000835111156178da5782518084602001fd5b816040517f08c379a00000000000000000000000000000000000000000000000000000000081526004018080602001828103825283818151815260200191508051906020019080838360005b83811015617941578082015181840152602081019050617926565b50505050905090810190601f16801561796e5780820380516001836020036101000a031916815260200191505b509250505060405180910390fd5b9392505050565b604051806040016040528060008152602001600081525090565b604051806101000160405280600073ffffffffffffffffffffffffffffffffffffffff168152602001600073ffffffffffffffffffffffffffffffffffffffff168152602001600073ffffffffffffffffffffffffffffffffffffffff16815260200160008152602001600081526020016000815260200160008152602001600081525090565b6040518060c0016040528060006fffffffffffffffffffffffffffffffff16815260200160006fffffffffffffffffffffffffffffffff16815260200160006fffffffffffffffffffffffffffffffff16815260200160006fffffffffffffffffffffffffffffffff16815260200160006fffffffffffffffffffffffffffffffff16815260200160006fffffffffffffffffffffffffffffffff168152509056fe416464726573733a20696e73756666696369656e742062616c616e636520666f722063616c6c536166654d6174683a206d756c7469706c69636174696f6e206f766572666c6f775361666545524332303a204552433230206f7065726174696f6e20646964206e6f7420737563636565645361666545524332303a20617070726f76652066726f6d206e6f6e2d7a65726f20746f206e6f6e2d7a65726f20616c6c6f77616e6365a264697066735822122094d8e0e6c018ba349b24bbcf39e7f4ecddd2c7e542c7b2837cdffeddc7c7c14164736f6c634300060c0033",
  "immutableReferences": {
    "24100": [
      {
        "length": 32,
        "start": 7710
      },
      {
        "length": 32,
        "start": 8159
      },
      {
        "length": 32,
        "start": 9071
      },
      {
        "length": 32,
        "start": 9589
      },
      {
        "length": 32,
        "start": 9900
      },
      {
        "length": 32,
        "start": 10296
      },
      {
        "length": 32,
        "start": 10501
      },
      {
        "length": 32,
        "start": 13903
      },
      {
        "length": 32,
        "start": 16786
      },
      {
        "length": 32,
        "start": 20873
      },
      {
        "length": 32,
        "start": 21038
      },
      {
        "length": 32,
        "start": 22227
      },
      {
        "length": 32,
        "start": 25060
      },
      {
        "length": 32,
        "start": 25381
      },
      {
        "length": 32,
        "start": 25586
      },
      {
        "length": 32,
        "start": 27082
      },
      {
        "length": 32,
        "start": 27674
      }
    ],
    "24102": [
      {
        "length": 32,
        "start": 4003
      },
      {
        "length": 32,
        "start": 4598
      },
      {
        "length": 32,
        "start": 6698
      },
      {
        "length": 32,
        "start": 7140
      },
      {
        "length": 32,
        "start": 7469
      },
      {
        "length": 32,
        "start": 12157
      },
      {
        "length": 32,
        "start": 19068
      },
      {
        "length": 32,
        "start": 19376
      },
      {
        "length": 32,
        "start": 20512
      },
      {
        "length": 32,
        "start": 22412
      }
    ],
    "24104": [
      {
        "length": 32,
        "start": 8119
      },
      {
        "length": 32,
        "start": 19546
      },
      {
        "length": 32,
        "start": 20048
      },
      {
        "length": 32,
        "start": 20285
      }
    ],
    "24106": [
      {
        "length": 32,
        "start": 5751
      },
      {
        "length": 32,
        "start": 6652
      },
      {
        "length": 32,
        "start": 10667
      },
      {
        "length": 32,
        "start": 11023
      },
      {
        "length": 32,
        "start": 14113
      },
      {
        "length": 32,
        "start": 14889
      },
      {
        "length": 32,
        "start": 15115
      },
      {
        "length": 32,
        "start": 21879
      },
      {
        "length": 32,
        "start": 23805
      },
      {
        "length": 32,
        "start": 24445
      },
      {
        "length": 32,
        "start": 25756
      },
      {
        "length": 32,
        "start": 26517
      }
    ],
    "24108": [
      {
        "length": 32,
        "start": 3486
      },
      {
        "length": 32,
        "start": 3892
      },
      {
        "length": 32,
        "start": 4835
      },
      {
        "length": 32,
        "start": 7297
      },
      {
        "length": 32,
        "start": 14738
      },
      {
        "length": 32,
        "start": 15288
      },
      {
        "length": 32,
        "start": 16040
      },
      {
        "length": 32,
        "start": 26445
      }
    ],
    "24110": [
      {
        "length": 32,
        "start": 4895
      },
      {
        "length": 32,
        "start": 10227
      },
      {
        "length": 32,
        "start": 10939
      },
      {
        "length": 32,
        "start": 13495
      },
      {
        "length": 32,
        "start": 15501
      },
      {
        "length": 32,
        "start": 15661
      },
      {
        "length": 32,
        "start": 16074
      },
      {
        "length": 32,
        "start": 16158
      },
      {
        "length": 32,
        "start": 24341
      },
      {
        "length": 32,
        "start": 24645
      },
      {
        "length": 32,
        "start": 24994
      }
    ],
    "24112": [
      {
        "length": 32,
        "start": 15865
      },
      {
        "length": 32,
        "start": 22048
      },
      {
        "length": 32,
        "start": 23974
      }
    ],
    "24114": [
      {
        "length": 32,
        "start": 14318
      }
    ],
    "24116": [
      {
        "length": 32,
        "start": 14389
      },
      {
        "length": 32,
        "start": 24726
      }
    ],
    "24118": [
      {
        "length": 32,
        "start": 19803
      }
    ]
  },
  "source": "// SPDX-License-Identifier: SEE LICENSE IN LICENSE\npragma solidity 0.6.12;\n\nimport \"../liquidity-protection/LiquidityProtection.sol\";\nimport \"./TestTime.sol\";\n\ncontract TestLiquidityProtection is LiquidityProtection, TestTime {\n    bool private _poolTokenRateOverride;\n    uint256 private _poolTokenRateN;\n    uint256 private _poolTokenRateD;\n\n    constructor(\n        ILiquidityProtectionSettings settings,\n        ILiquidityProtectionStore store,\n        ILiquidityProtectionStats stats,\n        ILiquidityProtectionSystemStore systemStore,\n        ITokenHolder wallet,\n        ITokenGovernance networkTokenGovernance,\n        ITokenGovernance govTokenGovernance,\n        ICheckpointStore lastRemoveCheckpointStore\n    )\n        public\n        LiquidityProtection(\n            settings,\n            store,\n            stats,\n            systemStore,\n            wallet,\n            networkTokenGovernance,\n            govTokenGovernance,\n            lastRemoveCheckpointStore\n        )\n    {}\n\n    function protectedAmountPlusFeeTest(\n        uint256 poolAmount,\n        uint256 poolRateN,\n        uint256 poolRateD,\n        uint256 addRateN,\n        uint256 addRateD,\n        uint256 removeRateN,\n        uint256 removeRateD\n    ) external pure returns (uint256) {\n        Fraction memory poolRate = Fraction({ n: poolRateN, d: poolRateD });\n        Fraction memory addRate = Fraction({ n: addRateN, d: addRateD });\n        Fraction memory removeRate = Fraction({ n: removeRateN, d: removeRateD });\n        return protectedAmountPlusFee(poolAmount, poolRate, addRate, removeRate);\n    }\n\n    function impLossTest(\n        uint256 initialRateN,\n        uint256 initialRateD,\n        uint256 currentRateN,\n        uint256 currentRateD\n    ) external pure returns (uint256, uint256) {\n        Fraction memory initialRate = Fraction({ n: initialRateN, d: initialRateD });\n        Fraction memory currentRate = Fraction({ n: currentRateN, d: currentRateD });\n        Fraction memory impLossRate = impLoss(initialRate, currentRate);\n        return (impLossRate.n, impLossRate.d);\n    }\n\n    function compensationAmountTest(\n        uint256 amount,\n        uint256 total,\n        uint256 lossN,\n        uint256 lossD,\n        uint256 levelN,\n        uint256 levelD\n    ) external pure returns (uint256) {\n        Fraction memory loss = Fraction({ n: lossN, d: lossD });\n        Fraction memory level = Fraction({ n: levelN, d: levelD });\n        return compensationAmount(amount, total, loss, level);\n    }\n\n    function averageRateTest(IDSToken poolToken, IReserveToken reserveToken) external view returns (uint256, uint256) {\n        (Fraction memory spotRate, Fraction memory averageRate) = reserveTokenRates(poolToken, reserveToken);\n        verifyRateDeviation(spotRate.n, spotRate.d, averageRate.n, averageRate.d);\n        return (averageRate.n, averageRate.d);\n    }\n\n    function removeLiquidityTargetAmountTest(\n        uint256 poolTokenRateN,\n        uint256 poolTokenRateD,\n        uint256 poolAmount,\n        uint256 reserveAmount,\n        uint128 addSpotRateN,\n        uint128 addSpotRateD,\n        uint128 removeSpotRateN,\n        uint128 removeSpotRateD,\n        uint128 removeAverageRateN,\n        uint128 removeAverageRateD,\n        uint256 addTimestamp,\n        uint256 removeTimestamp\n    ) external returns (uint256) {\n        _poolTokenRateOverride = true;\n        _poolTokenRateN = poolTokenRateN;\n        _poolTokenRateD = poolTokenRateD;\n\n        PackedRates memory packedRates =\n            PackedRates({\n                addSpotRateN: addSpotRateN,\n                addSpotRateD: addSpotRateD,\n                removeSpotRateN: removeSpotRateN,\n                removeSpotRateD: removeSpotRateD,\n                removeAverageRateN: removeAverageRateN,\n                removeAverageRateD: removeAverageRateD\n            });\n\n        uint256 targetAmount =\n            removeLiquidityTargetAmount(\n                IDSToken(0),\n                IReserveToken(0),\n                poolAmount,\n                reserveAmount,\n                packedRates,\n                addTimestamp,\n                removeTimestamp\n            );\n        _poolTokenRateOverride = false;\n        return targetAmount;\n    }\n\n    function poolTokenRate(IDSToken poolToken, IReserveToken reserveToken)\n        internal\n        view\n        override\n        returns (Fraction memory)\n    {\n        if (_poolTokenRateOverride) {\n            return Fraction({ n: _poolTokenRateN, d: _poolTokenRateD });\n        }\n        return super.poolTokenRate(poolToken, reserveToken);\n    }\n\n    function time() internal view override(Time, TestTime) returns (uint256) {\n        return TestTime.time();\n    }\n}\n",
  "sourcePath": "D:\\Work Space\\bancor_project\\core\\contracts\\helpers\\TestLiquidityProtection.sol",
  "compiler": {
    "name": "solc",
    "version": "0.6.12+commit.27d51765.Emscripten.clang"
  },
  "schemaVersion": "3.4.3",
  "updatedAt": "2021-08-23T11:45:54.224Z",
  "devdoc": {
    "kind": "dev",
    "methods": {
      "acceptOwnership()": {
        "details": "used by a new owner to accept an ownership transfer"
      },
      "acceptStoreOwnership()": {
        "details": "accepts the ownership of the store can only be called by the contract owner"
      },
      "acceptWalletOwnership()": {
        "details": "accepts the ownership of the wallet can only be called by the contract owner"
      },
      "addLiquidity(address,address,uint256)": {
        "details": "adds protected liquidity to a pool also mints new governance tokens for the caller if the caller adds network tokens",
        "params": {
          "amount": "amount of tokens to add to the pool",
          "poolAnchor": "anchor of the pool",
          "reserveToken": "reserve token to add to the pool"
        },
        "returns": {
          "_0": "new position id"
        }
      },
      "addLiquidityFor(address,address,address,uint256)": {
        "details": "adds protected liquidity to a pool for a specific recipient also mints new governance tokens for the caller if the caller adds network tokens",
        "params": {
          "amount": "amount of tokens to add to the pool",
          "owner": "position owner",
          "poolAnchor": "anchor of the pool",
          "reserveToken": "reserve token to add to the pool"
        },
        "returns": {
          "_0": "new position id"
        }
      },
      "claimBalance(uint256,uint256)": {
        "details": "allows the caller to claim network token balance that is no longer locked note that the function can revert if the range is too large",
        "params": {
          "endIndex": "end index in the caller's list of locked balances (exclusive)",
          "startIndex": "start index in the caller's list of locked balances"
        }
      },
      "poolAvailableSpace(address)": {
        "details": "returns the single-side staking limits of a given pool",
        "params": {
          "poolAnchor": "anchor of the pool"
        },
        "returns": {
          "_0": "maximum amount of base tokens that can be single-side staked in the pool",
          "_1": "maximum amount of network tokens that can be single-side staked in the pool"
        }
      },
      "poolROI(address,address,uint256,uint256,uint256,uint256,uint256)": {
        "details": "returns the ROI for removing liquidity in the current state after providing liquidity with the given args the function assumes full protection is in effect return value is in PPM and can be larger than PPM_RESOLUTION for positive ROI, 1M = 0% ROI",
        "params": {
          "poolRateD": "rate of 1 pool token in reserve token units when the liquidity was added (denominator)",
          "poolRateN": "rate of 1 pool token in reserve token units when the liquidity was added (numerator)",
          "poolToken": "pool token",
          "reserveAmount": "reserve token amount that was added",
          "reserveRateD": "rate of 1 reserve token in the other reserve token units when the liquidity was added (denominator)",
          "reserveRateN": "rate of 1 reserve token in the other reserve token units when the liquidity was added (numerator)",
          "reserveToken": "reserve token"
        },
        "returns": {
          "_0": "ROI in PPM"
        }
      },
      "removeLiquidity(uint256,uint32)": {
        "details": "removes protected liquidity from a pool also burns governance tokens from the caller if the caller removes network tokens",
        "params": {
          "id": "position id",
          "portion": "portion of liquidity to remove, in PPM"
        }
      },
      "removeLiquidityReturn(uint256,uint32,uint256)": {
        "details": "returns the expected/actual amounts the provider will receive for removing liquidity it's also possible to provide the remove liquidity time to get an estimation for the return at that given point",
        "params": {
          "id": "position id",
          "portion": "portion of liquidity to remove, in PPM",
          "removeTimestamp": "time at which the liquidity is removed"
        },
        "returns": {
          "_0": "expected return amount in the reserve token",
          "_1": "actual return amount in the reserve token",
          "_2": "compensation in the network token"
        }
      },
      "settings()": {
        "details": "returns the LP settings",
        "returns": {
          "_0": "the LP settings"
        }
      },
      "stats()": {
        "details": "returns the LP stats",
        "returns": {
          "_0": "the LP stats"
        }
      },
      "store()": {
        "details": "returns the LP store",
        "returns": {
          "_0": "the LP store"
        }
      },
      "systemStore()": {
        "details": "returns the LP system store",
        "returns": {
          "_0": "the LP system store"
        }
      },
      "transferOwnership(address)": {
        "details": "allows transferring the contract ownership the new owner still needs to accept the transfer can only be called by the contract owner",
        "params": {
          "_newOwner": "new contract owner"
        }
      },
      "transferPosition(uint256,address)": {
        "details": "transfers a position to a new provider",
        "params": {
          "id": "position id",
          "newProvider": "the new provider"
        },
        "returns": {
          "_0": "new position id"
        }
      },
      "transferPositionAndNotify(uint256,address,address,bytes)": {
        "details": "transfers a position to a new provider and optionally notifies another contract",
        "params": {
          "callback": "the callback contract to notify",
          "data": "custom data provided to the callback",
          "id": "position id",
          "newProvider": "the new provider"
        },
        "returns": {
          "_0": "new position id"
        }
      },
      "transferStoreOwnership(address)": {
        "details": "transfers the ownership of the store can only be called by the contract owner",
        "params": {
          "newOwner": "the new owner of the store"
        }
      },
      "transferWalletOwnership(address)": {
        "details": "transfers the ownership of the wallet can only be called by the contract owner",
        "params": {
          "newOwner": "the new owner of the wallet"
        }
      },
      "wallet()": {
        "details": "returns the LP wallet",
        "returns": {
          "_0": "the LP wallet"
        }
      }
    },
    "version": 1
  },
  "userdoc": {
    "kind": "user",
    "methods": {},
    "version": 1
  }
}