{
  "contractName": "TestCheckpointStore",
  "abi": [
    {
      "anonymous": false,
      "inputs": [
        {
          "indexed": true,
          "internalType": "address",
          "name": "_address",
          "type": "address"
        },
        {
          "indexed": false,
          "internalType": "uint256",
          "name": "_time",
          "type": "uint256"
        }
      ],
      "name": "CheckpointUpdated",
      "type": "event"
    },
    {
      "anonymous": false,
      "inputs": [
        {
          "indexed": true,
          "internalType": "bytes32",
          "name": "role",
          "type": "bytes32"
        },
        {
          "indexed": true,
          "internalType": "bytes32",
          "name": "previousAdminRole",
          "type": "bytes32"
        },
        {
          "indexed": true,
          "internalType": "bytes32",
          "name": "newAdminRole",
          "type": "bytes32"
        }
      ],
      "name": "RoleAdminChanged",
      "type": "event"
    },
    {
      "anonymous": false,
      "inputs": [
        {
          "indexed": true,
          "internalType": "bytes32",
          "name": "role",
          "type": "bytes32"
        },
        {
          "indexed": true,
          "internalType": "address",
          "name": "account",
          "type": "address"
        },
        {
          "indexed": true,
          "internalType": "address",
          "name": "sender",
          "type": "address"
        }
      ],
      "name": "RoleGranted",
      "type": "event"
    },
    {
      "anonymous": false,
      "inputs": [
        {
          "indexed": true,
          "internalType": "bytes32",
          "name": "role",
          "type": "bytes32"
        },
        {
          "indexed": true,
          "internalType": "address",
          "name": "account",
          "type": "address"
        },
        {
          "indexed": true,
          "internalType": "address",
          "name": "sender",
          "type": "address"
        }
      ],
      "name": "RoleRevoked",
      "type": "event"
    },
    {
      "inputs": [],
      "name": "DEFAULT_ADMIN_ROLE",
      "outputs": [
        {
          "internalType": "bytes32",
          "name": "",
          "type": "bytes32"
        }
      ],
      "stateMutability": "view",
      "type": "function"
    },
    {
      "inputs": [],
      "name": "ROLE_OWNER",
      "outputs": [
        {
          "internalType": "bytes32",
          "name": "",
          "type": "bytes32"
        }
      ],
      "stateMutability": "view",
      "type": "function"
    },
    {
      "inputs": [],
      "name": "ROLE_SEEDER",
      "outputs": [
        {
          "internalType": "bytes32",
          "name": "",
          "type": "bytes32"
        }
      ],
      "stateMutability": "view",
      "type": "function"
    },
    {
      "inputs": [
        {
          "internalType": "address",
          "name": "_address",
          "type": "address"
        }
      ],
      "name": "addCheckpoint",
      "outputs": [],
      "stateMutability": "nonpayable",
      "type": "function"
    },
    {
      "inputs": [
        {
          "internalType": "address",
          "name": "_address",
          "type": "address"
        },
        {
          "internalType": "uint256",
          "name": "_time",
          "type": "uint256"
        }
      ],
      "name": "addPastCheckpoint",
      "outputs": [],
      "stateMutability": "nonpayable",
      "type": "function"
    },
    {
      "inputs": [
        {
          "internalType": "address[]",
          "name": "_addresses",
          "type": "address[]"
        },
        {
          "internalType": "uint256[]",
          "name": "_times",
          "type": "uint256[]"
        }
      ],
      "name": "addPastCheckpoints",
      "outputs": [],
      "stateMutability": "nonpayable",
      "type": "function"
    },
    {
      "inputs": [
        {
          "internalType": "address",
          "name": "_address",
          "type": "address"
        }
      ],
      "name": "checkpoint",
      "outputs": [
        {
          "internalType": "uint256",
          "name": "",
          "type": "uint256"
        }
      ],
      "stateMutability": "view",
      "type": "function"
    },
    {
      "inputs": [],
      "name": "currentTime",
      "outputs": [
        {
          "internalType": "uint256",
          "name": "",
          "type": "uint256"
        }
      ],
      "stateMutability": "view",
      "type": "function"
    },
    {
      "inputs": [
        {
          "internalType": "bytes32",
          "name": "role",
          "type": "bytes32"
        }
      ],
      "name": "getRoleAdmin",
      "outputs": [
        {
          "internalType": "bytes32",
          "name": "",
          "type": "bytes32"
        }
      ],
      "stateMutability": "view",
      "type": "function"
    },
    {
      "inputs": [
        {
          "internalType": "bytes32",
          "name": "role",
          "type": "bytes32"
        },
        {
          "internalType": "uint256",
          "name": "index",
          "type": "uint256"
        }
      ],
      "name": "getRoleMember",
      "outputs": [
        {
          "internalType": "address",
          "name": "",
          "type": "address"
        }
      ],
      "stateMutability": "view",
      "type": "function"
    },
    {
      "inputs": [
        {
          "internalType": "bytes32",
          "name": "role",
          "type": "bytes32"
        }
      ],
      "name": "getRoleMemberCount",
      "outputs": [
        {
          "internalType": "uint256",
          "name": "",
          "type": "uint256"
        }
      ],
      "stateMutability": "view",
      "type": "function"
    },
    {
      "inputs": [
        {
          "internalType": "bytes32",
          "name": "role",
          "type": "bytes32"
        },
        {
          "internalType": "address",
          "name": "account",
          "type": "address"
        }
      ],
      "name": "grantRole",
      "outputs": [],
      "stateMutability": "nonpayable",
      "type": "function"
    },
    {
      "inputs": [
        {
          "internalType": "bytes32",
          "name": "role",
          "type": "bytes32"
        },
        {
          "internalType": "address",
          "name": "account",
          "type": "address"
        }
      ],
      "name": "hasRole",
      "outputs": [
        {
          "internalType": "bool",
          "name": "",
          "type": "bool"
        }
      ],
      "stateMutability": "view",
      "type": "function"
    },
    {
      "inputs": [
        {
          "internalType": "bytes32",
          "name": "role",
          "type": "bytes32"
        },
        {
          "internalType": "address",
          "name": "account",
          "type": "address"
        }
      ],
      "name": "renounceRole",
      "outputs": [],
      "stateMutability": "nonpayable",
      "type": "function"
    },
    {
      "inputs": [
        {
          "internalType": "bytes32",
          "name": "role",
          "type": "bytes32"
        },
        {
          "internalType": "address",
          "name": "account",
          "type": "address"
        }
      ],
      "name": "revokeRole",
      "outputs": [],
      "stateMutability": "nonpayable",
      "type": "function"
    },
    {
      "inputs": [
        {
          "internalType": "uint256",
          "name": "_currentTime",
          "type": "uint256"
        }
      ],
      "name": "setTime",
      "outputs": [],
      "stateMutability": "nonpayable",
      "type": "function"
    }
  ],
  "bytecode": "0x608060405260016002553480156200001657600080fd5b50620000497f9f4e1c871d5fdd0aee1cd182666698a4492b24c6832aac230d07b11046af5a8980620000d360201b60201c565b6200009b7fd040da8733f282f8b56d042e742cba64aa94b6398cd5a45974e40912f9b3b33f7f9f4e1c871d5fdd0aee1cd182666698a4492b24c6832aac230d07b11046af5a89620000d360201b60201c565b620000cd7f9f4e1c871d5fdd0aee1cd182666698a4492b24c6832aac230d07b11046af5a89336200013560201b60201c565b620002cb565b8060008084815260200190815260200160002060020154837fbd79b86ffe0ab8e8776151514217cd7cacd52c909f66475c3af44e129f0b00ff60405160405180910390a480600080848152602001908152602001600020600201819055505050565b6200014782826200014b60201b60201c565b5050565b6200017981600080858152602001908152602001600020600001620001ee60201b62000c8e1790919060201c565b15620001ea576200018f6200022660201b60201c565b73ffffffffffffffffffffffffffffffffffffffff168173ffffffffffffffffffffffffffffffffffffffff16837f2f8788117e7eff1d82e926ec794901d17c78024a50270940304540a733656f0d60405160405180910390a45b5050565b60006200021e836000018373ffffffffffffffffffffffffffffffffffffffff1660001b6200022e60201b60201c565b905092915050565b600033905090565b6000620002428383620002a860201b60201c565b6200029d578260000182908060018154018082558091505060019003906000526020600020016000909190919091505582600001805490508360010160008481526020019081526020016000208190555060019050620002a2565b600090505b92915050565b600080836001016000848152602001908152602001600020541415905092915050565b61137a80620002db6000396000f3fe608060405234801561001057600080fd5b50600436106101005760003560e01c806391d1485411610097578063bcb81bfc11610066578063bcb81bfc1461041b578063ca15c873146104e9578063d18e81b31461052b578063d547741f1461054957610100565b806391d14854146102f3578063a217fddf14610357578063a3699b3714610375578063a972985e146103c357610100565b80633beb26c4116100d35780633beb26c4146102275780636b639ced146102555780638ad682af146102735780639010d07c1461029157610100565b80631d092adf14610105578063248a9ca3146101495780632f2ff15d1461018b57806336568abe146101d9575b600080fd5b6101476004803603602081101561011b57600080fd5b81019080803573ffffffffffffffffffffffffffffffffffffffff169060200190929190505050610597565b005b6101756004803603602081101561015f57600080fd5b8101908080359060200190929190505050610652565b6040518082815260200191505060405180910390f35b6101d7600480360360408110156101a157600080fd5b8101908080359060200190929190803573ffffffffffffffffffffffffffffffffffffffff169060200190929190505050610671565b005b610225600480360360408110156101ef57600080fd5b8101908080359060200190929190803573ffffffffffffffffffffffffffffffffffffffff1690602001909291905050506106fa565b005b6102536004803603602081101561023d57600080fd5b8101908080359060200190929190505050610793565b005b61025d61079d565b6040518082815260200191505060405180910390f35b61027b6107c1565b6040518082815260200191505060405180910390f35b6102c7600480360360408110156102a757600080fd5b8101908080359060200190929190803590602001909291905050506107e5565b604051808273ffffffffffffffffffffffffffffffffffffffff16815260200191505060405180910390f35b61033f6004803603604081101561030957600080fd5b8101908080359060200190929190803573ffffffffffffffffffffffffffffffffffffffff169060200190929190505050610816565b60405180821515815260200191505060405180910390f35b61035f610847565b6040518082815260200191505060405180910390f35b6103c16004803603604081101561038b57600080fd5b81019080803573ffffffffffffffffffffffffffffffffffffffff1690602001909291908035906020019092919050505061084e565b005b610405600480360360208110156103d957600080fd5b81019080803573ffffffffffffffffffffffffffffffffffffffff16906020019092919050505061097f565b6040518082815260200191505060405180910390f35b6104e76004803603604081101561043157600080fd5b810190808035906020019064010000000081111561044e57600080fd5b82018360208201111561046057600080fd5b8035906020019184602083028401116401000000008311171561048257600080fd5b9091929391929390803590602001906401000000008111156104a357600080fd5b8201836020820111156104b557600080fd5b803590602001918460208302840111640100000000831117156104d757600080fd5b90919293919293905050506109c8565b005b610515600480360360208110156104ff57600080fd5b8101908080359060200190929190505050610bd9565b6040518082815260200191505060405180910390f35b610533610bff565b6040518082815260200191505060405180910390f35b6105956004803603604081101561055f57600080fd5b8101908080359060200190929190803573ffffffffffffffffffffffffffffffffffffffff169060200190929190505050610c05565b005b806105a181610cbe565b6105cb7f9f4e1c871d5fdd0aee1cd182666698a4492b24c6832aac230d07b11046af5a8933610816565b61063d576040517f08c379a00000000000000000000000000000000000000000000000000000000081526004018080602001828103825260118152602001807f4552525f4143434553535f44454e49454400000000000000000000000000000081525060200191505060405180910390fd5b61064e82610649610d64565b610d73565b5050565b6000806000838152602001908152602001600020600201549050919050565b61069760008084815260200190815260200160002060020154610692610ebe565b610816565b6106ec576040517f08c379a000000000000000000000000000000000000000000000000000000000815260040180806020018281038252602f8152602001806112b7602f913960400191505060405180910390fd5b6106f68282610ec6565b5050565b610702610ebe565b73ffffffffffffffffffffffffffffffffffffffff168173ffffffffffffffffffffffffffffffffffffffff1614610785576040517f08c379a000000000000000000000000000000000000000000000000000000000815260040180806020018281038252602f815260200180611316602f913960400191505060405180910390fd5b61078f8282610f59565b5050565b8060028190555050565b7fd040da8733f282f8b56d042e742cba64aa94b6398cd5a45974e40912f9b3b33f81565b7f9f4e1c871d5fdd0aee1cd182666698a4492b24c6832aac230d07b11046af5a8981565b600061080e82600080868152602001908152602001600020600001610fec90919063ffffffff16565b905092915050565b600061083f8260008086815260200190815260200160002060000161100690919063ffffffff16565b905092915050565b6000801b81565b8161085881610cbe565b6108827fd040da8733f282f8b56d042e742cba64aa94b6398cd5a45974e40912f9b3b33f33610816565b6108f4576040517f08c379a00000000000000000000000000000000000000000000000000000000081526004018080602001828103825260118152602001807f4552525f4143434553535f44454e49454400000000000000000000000000000081525060200191505060405180910390fd5b6108fc610d64565b8210610970576040517f08c379a00000000000000000000000000000000000000000000000000000000081526004018080602001828103825260108152602001807f4552525f494e56414c49445f54494d450000000000000000000000000000000081525060200191505060405180910390fd5b61097a8383610d73565b505050565b6000600160008373ffffffffffffffffffffffffffffffffffffffff1673ffffffffffffffffffffffffffffffffffffffff168152602001908152602001600020549050919050565b6109f27fd040da8733f282f8b56d042e742cba64aa94b6398cd5a45974e40912f9b3b33f33610816565b610a64576040517f08c379a00000000000000000000000000000000000000000000000000000000081526004018080602001828103825260118152602001807f4552525f4143434553535f44454e49454400000000000000000000000000000081525060200191505060405180910390fd5b6000848490509050828290508114610ae4576040517f08c379a00000000000000000000000000000000000000000000000000000000081526004018080602001828103825260128152602001807f4552525f494e56414c49445f4c454e475448000000000000000000000000000081525060200191505060405180910390fd5b60005b81811015610bd1576000868683818110610afd57fe5b9050602002013573ffffffffffffffffffffffffffffffffffffffff1690506000858584818110610b2a57fe5b905060200201359050610b3c82610cbe565b610b44610d64565b8110610bb8576040517f08c379a00000000000000000000000000000000000000000000000000000000081526004018080602001828103825260108152602001807f4552525f494e56414c49445f54494d450000000000000000000000000000000081525060200191505060405180910390fd5b610bc28282610d73565b50508080600101915050610ae7565b505050505050565b6000610bf8600080848152602001908152602001600020600001611036565b9050919050565b60025481565b610c2b60008084815260200190815260200160002060020154610c26610ebe565b610816565b610c80576040517f08c379a00000000000000000000000000000000000000000000000000000000081526004018080602001828103825260308152602001806112e66030913960400191505060405180910390fd5b610c8a8282610f59565b5050565b6000610cb6836000018373ffffffffffffffffffffffffffffffffffffffff1660001b61104b565b905092915050565b600073ffffffffffffffffffffffffffffffffffffffff168173ffffffffffffffffffffffffffffffffffffffff161415610d61576040517f08c379a00000000000000000000000000000000000000000000000000000000081526004018080602001828103825260138152602001807f4552525f494e56414c49445f414444524553530000000000000000000000000081525060200191505060405180910390fd5b50565b6000610d6e6110bb565b905090565b80600160008473ffffffffffffffffffffffffffffffffffffffff1673ffffffffffffffffffffffffffffffffffffffff168152602001908152602001600020541115610e28576040517f08c379a000000000000000000000000000000000000000000000000000000000815260040180806020018281038252600f8152602001807f4552525f57524f4e475f4f52444552000000000000000000000000000000000081525060200191505060405180910390fd5b80600160008473ffffffffffffffffffffffffffffffffffffffff1673ffffffffffffffffffffffffffffffffffffffff168152602001908152602001600020819055508173ffffffffffffffffffffffffffffffffffffffff167f6eb3d2afd129515b81e7e76f1cd8eef506c90c811bed42bda361e9bebd93be25826040518082815260200191505060405180910390a25050565b600033905090565b610eed81600080858152602001908152602001600020600001610c8e90919063ffffffff16565b15610f5557610efa610ebe565b73ffffffffffffffffffffffffffffffffffffffff168173ffffffffffffffffffffffffffffffffffffffff16837f2f8788117e7eff1d82e926ec794901d17c78024a50270940304540a733656f0d60405160405180910390a45b5050565b610f80816000808581526020019081526020016000206000016110c590919063ffffffff16565b15610fe857610f8d610ebe565b73ffffffffffffffffffffffffffffffffffffffff168173ffffffffffffffffffffffffffffffffffffffff16837ff6391f5c32d9c69d2a47ea670b442974b53935d1edc7fd64eb21e047a839171b60405160405180910390a45b5050565b6000610ffb83600001836110f5565b60001c905092915050565b600061102e836000018373ffffffffffffffffffffffffffffffffffffffff1660001b611178565b905092915050565b60006110448260000161119b565b9050919050565b60006110578383611178565b6110b05782600001829080600181540180825580915050600190039060005260206000200160009091909190915055826000018054905083600101600084815260200190815260200160002081905550600190506110b5565b600090505b92915050565b6000600254905090565b60006110ed836000018373ffffffffffffffffffffffffffffffffffffffff1660001b6111ac565b905092915050565b600081836000018054905011611156576040517f08c379a00000000000000000000000000000000000000000000000000000000081526004018080602001828103825260228152602001806112956022913960400191505060405180910390fd5b82600001828154811061116557fe5b9060005260206000200154905092915050565b600080836001016000848152602001908152602001600020541415905092915050565b600081600001805490509050919050565b6000808360010160008481526020019081526020016000205490506000811461128857600060018203905060006001866000018054905003905060008660000182815481106111f757fe5b906000526020600020015490508087600001848154811061121457fe5b906000526020600020018190555060018301876001016000838152602001908152602001600020819055508660000180548061124c57fe5b6001900381819060005260206000200160009055905586600101600087815260200190815260200160002060009055600194505050505061128e565b60009150505b9291505056fe456e756d657261626c655365743a20696e646578206f7574206f6620626f756e6473416363657373436f6e74726f6c3a2073656e646572206d75737420626520616e2061646d696e20746f206772616e74416363657373436f6e74726f6c3a2073656e646572206d75737420626520616e2061646d696e20746f207265766f6b65416363657373436f6e74726f6c3a2063616e206f6e6c792072656e6f756e636520726f6c657320666f722073656c66a264697066735822122096c2a4e12e556cde39bdec2f2d6049ff179a05eeb8a51be624554219fec8cf9b64736f6c634300060c0033",
  "immutableReferences": {},
  "source": "// SPDX-License-Identifier: SEE LICENSE IN LICENSE\npragma solidity 0.6.12;\n\nimport \"../utility/CheckpointStore.sol\";\nimport \"./TestTime.sol\";\n\ncontract TestCheckpointStore is CheckpointStore, TestTime {\n    function time() internal view virtual override(Time, TestTime) returns (uint256) {\n        return TestTime.time();\n    }\n}\n",
  "sourcePath": "D:\\Work Space\\bancor_project\\core\\contracts\\helpers\\TestCheckpointStore.sol",
  "compiler": {
    "name": "solc",
    "version": "0.6.12+commit.27d51765.Emscripten.clang"
  },
  "schemaVersion": "3.4.3",
  "updatedAt": "2021-08-23T03:19:29.863Z",
  "devdoc": {
    "kind": "dev",
    "methods": {
      "addCheckpoint(address)": {
        "details": "adds a new data point to the store can only be called by an owner",
        "params": {
          "_address": "the address we're collecting the data for"
        }
      },
      "addPastCheckpoint(address,uint256)": {
        "details": "adds a past checkpoint to the store can only be called by a seeder",
        "params": {
          "_address": "the address we're collecting the data for",
          "_time": "the checkpoint"
        }
      },
      "addPastCheckpoints(address[],uint256[])": {
        "details": "adds past checkpoints to the store can only be called by a seeder",
        "params": {
          "_addresses": "the addresses we're collecting the data for",
          "_times": "the checkpoints"
        }
      },
      "checkpoint(address)": {
        "details": "returns the store value for a specific address",
        "params": {
          "_address": "the address we're collecting the data for"
        },
        "returns": {
          "_0": "the checkpoint"
        }
      },
      "getRoleAdmin(bytes32)": {
        "details": "Returns the admin role that controls `role`. See {grantRole} and {revokeRole}. To change a role's admin, use {_setRoleAdmin}."
      },
      "getRoleMember(bytes32,uint256)": {
        "details": "Returns one of the accounts that have `role`. `index` must be a value between 0 and {getRoleMemberCount}, non-inclusive. Role bearers are not sorted in any particular way, and their ordering may change at any point. WARNING: When using {getRoleMember} and {getRoleMemberCount}, make sure you perform all queries on the same block. See the following https://forum.openzeppelin.com/t/iterating-over-elements-on-enumerableset-in-openzeppelin-contracts/2296[forum post] for more information."
      },
      "getRoleMemberCount(bytes32)": {
        "details": "Returns the number of accounts that have `role`. Can be used together with {getRoleMember} to enumerate all bearers of a role."
      },
      "grantRole(bytes32,address)": {
        "details": "Grants `role` to `account`. If `account` had not been already granted `role`, emits a {RoleGranted} event. Requirements: - the caller must have ``role``'s admin role."
      },
      "hasRole(bytes32,address)": {
        "details": "Returns `true` if `account` has been granted `role`."
      },
      "renounceRole(bytes32,address)": {
        "details": "Revokes `role` from the calling account. Roles are often managed via {grantRole} and {revokeRole}: this function's purpose is to provide a mechanism for accounts to lose their privileges if they are compromised (such as when a trusted device is misplaced). If the calling account had been granted `role`, emits a {RoleRevoked} event. Requirements: - the caller must be `account`."
      },
      "revokeRole(bytes32,address)": {
        "details": "Revokes `role` from `account`. If `account` had been granted `role`, emits a {RoleRevoked} event. Requirements: - the caller must have ``role``'s admin role."
      }
    },
    "version": 1
  },
  "userdoc": {
    "kind": "user",
    "methods": {},
    "version": 1
  }
}