{
  "contractName": "TestFixedRatePoolConverter",
  "abi": [
    {
      "inputs": [
        {
          "internalType": "contract IDSToken",
          "name": "_token",
          "type": "address"
        },
        {
          "internalType": "contract IContractRegistry",
          "name": "_registry",
          "type": "address"
        },
        {
          "internalType": "uint32",
          "name": "_maxConversionFee",
          "type": "uint32"
        }
      ],
      "stateMutability": "nonpayable",
      "type": "constructor"
    },
    {
      "anonymous": false,
      "inputs": [
        {
          "indexed": true,
          "internalType": "uint16",
          "name": "_type",
          "type": "uint16"
        },
        {
          "indexed": true,
          "internalType": "contract IConverterAnchor",
          "name": "_anchor",
          "type": "address"
        },
        {
          "indexed": true,
          "internalType": "bool",
          "name": "_activated",
          "type": "bool"
        }
      ],
      "name": "Activation",
      "type": "event"
    },
    {
      "anonymous": false,
      "inputs": [
        {
          "indexed": true,
          "internalType": "contract IReserveToken",
          "name": "_fromToken",
          "type": "address"
        },
        {
          "indexed": true,
          "internalType": "contract IReserveToken",
          "name": "_toToken",
          "type": "address"
        },
        {
          "indexed": true,
          "internalType": "address",
          "name": "_trader",
          "type": "address"
        },
        {
          "indexed": false,
          "internalType": "uint256",
          "name": "_amount",
          "type": "uint256"
        },
        {
          "indexed": false,
          "internalType": "uint256",
          "name": "_return",
          "type": "uint256"
        },
        {
          "indexed": false,
          "internalType": "int256",
          "name": "_conversionFee",
          "type": "int256"
        }
      ],
      "name": "Conversion",
      "type": "event"
    },
    {
      "anonymous": false,
      "inputs": [
        {
          "indexed": false,
          "internalType": "uint32",
          "name": "_prevFee",
          "type": "uint32"
        },
        {
          "indexed": false,
          "internalType": "uint32",
          "name": "_newFee",
          "type": "uint32"
        }
      ],
      "name": "ConversionFeeUpdate",
      "type": "event"
    },
    {
      "anonymous": false,
      "inputs": [
        {
          "indexed": true,
          "internalType": "address",
          "name": "_provider",
          "type": "address"
        },
        {
          "indexed": true,
          "internalType": "contract IReserveToken",
          "name": "_reserveToken",
          "type": "address"
        },
        {
          "indexed": false,
          "internalType": "uint256",
          "name": "_amount",
          "type": "uint256"
        },
        {
          "indexed": false,
          "internalType": "uint256",
          "name": "_newBalance",
          "type": "uint256"
        },
        {
          "indexed": false,
          "internalType": "uint256",
          "name": "_newSupply",
          "type": "uint256"
        }
      ],
      "name": "LiquidityAdded",
      "type": "event"
    },
    {
      "anonymous": false,
      "inputs": [
        {
          "indexed": true,
          "internalType": "address",
          "name": "_provider",
          "type": "address"
        },
        {
          "indexed": true,
          "internalType": "contract IReserveToken",
          "name": "_reserveToken",
          "type": "address"
        },
        {
          "indexed": false,
          "internalType": "uint256",
          "name": "_amount",
          "type": "uint256"
        },
        {
          "indexed": false,
          "internalType": "uint256",
          "name": "_newBalance",
          "type": "uint256"
        },
        {
          "indexed": false,
          "internalType": "uint256",
          "name": "_newSupply",
          "type": "uint256"
        }
      ],
      "name": "LiquidityRemoved",
      "type": "event"
    },
    {
      "anonymous": false,
      "inputs": [
        {
          "indexed": true,
          "internalType": "address",
          "name": "_prevOwner",
          "type": "address"
        },
        {
          "indexed": true,
          "internalType": "address",
          "name": "_newOwner",
          "type": "address"
        }
      ],
      "name": "OwnerUpdate",
      "type": "event"
    },
    {
      "anonymous": false,
      "inputs": [
        {
          "indexed": true,
          "internalType": "address",
          "name": "_token1",
          "type": "address"
        },
        {
          "indexed": true,
          "internalType": "address",
          "name": "_token2",
          "type": "address"
        },
        {
          "indexed": false,
          "internalType": "uint256",
          "name": "_rateN",
          "type": "uint256"
        },
        {
          "indexed": false,
          "internalType": "uint256",
          "name": "_rateD",
          "type": "uint256"
        }
      ],
      "name": "TokenRateUpdate",
      "type": "event"
    },
    {
      "inputs": [],
      "name": "acceptAnchorOwnership",
      "outputs": [],
      "stateMutability": "nonpayable",
      "type": "function"
    },
    {
      "inputs": [],
      "name": "acceptOwnership",
      "outputs": [],
      "stateMutability": "nonpayable",
      "type": "function"
    },
    {
      "inputs": [],
      "name": "acceptTokenOwnership",
      "outputs": [],
      "stateMutability": "nonpayable",
      "type": "function"
    },
    {
      "inputs": [
        {
          "internalType": "contract IReserveToken[]",
          "name": "_reserveTokens",
          "type": "address[]"
        },
        {
          "internalType": "uint256[]",
          "name": "_reserveAmounts",
          "type": "uint256[]"
        },
        {
          "internalType": "uint256",
          "name": "_minReturn",
          "type": "uint256"
        }
      ],
      "name": "addLiquidity",
      "outputs": [
        {
          "internalType": "uint256",
          "name": "",
          "type": "uint256"
        }
      ],
      "stateMutability": "payable",
      "type": "function"
    },
    {
      "inputs": [
        {
          "internalType": "contract IReserveToken[]",
          "name": "_reserveTokens",
          "type": "address[]"
        },
        {
          "internalType": "uint256",
          "name": "_reserveTokenIndex",
          "type": "uint256"
        },
        {
          "internalType": "uint256",
          "name": "_reserveAmount",
          "type": "uint256"
        }
      ],
      "name": "addLiquidityCost",
      "outputs": [
        {
          "internalType": "uint256[]",
          "name": "",
          "type": "uint256[]"
        }
      ],
      "stateMutability": "view",
      "type": "function"
    },
    {
      "inputs": [
        {
          "internalType": "contract IReserveToken[]",
          "name": "_reserveTokens",
          "type": "address[]"
        },
        {
          "internalType": "uint256[]",
          "name": "_reserveAmounts",
          "type": "uint256[]"
        }
      ],
      "name": "addLiquidityReturn",
      "outputs": [
        {
          "internalType": "uint256",
          "name": "",
          "type": "uint256"
        }
      ],
      "stateMutability": "view",
      "type": "function"
    },
    {
      "inputs": [
        {
          "internalType": "contract IReserveToken",
          "name": "_token",
          "type": "address"
        },
        {
          "internalType": "uint32",
          "name": "_weight",
          "type": "uint32"
        }
      ],
      "name": "addReserve",
      "outputs": [],
      "stateMutability": "nonpayable",
      "type": "function"
    },
    {
      "inputs": [],
      "name": "anchor",
      "outputs": [
        {
          "internalType": "contract IConverterAnchor",
          "name": "",
          "type": "address"
        }
      ],
      "stateMutability": "view",
      "type": "function"
    },
    {
      "inputs": [],
      "name": "averageRateInfo",
      "outputs": [
        {
          "internalType": "uint256",
          "name": "",
          "type": "uint256"
        }
      ],
      "stateMutability": "view",
      "type": "function"
    },
    {
      "inputs": [],
      "name": "connectorTokenCount",
      "outputs": [
        {
          "internalType": "uint16",
          "name": "",
          "type": "uint16"
        }
      ],
      "stateMutability": "view",
      "type": "function"
    },
    {
      "inputs": [
        {
          "internalType": "uint256",
          "name": "_index",
          "type": "uint256"
        }
      ],
      "name": "connectorTokens",
      "outputs": [
        {
          "internalType": "contract IReserveToken",
          "name": "",
          "type": "address"
        }
      ],
      "stateMutability": "view",
      "type": "function"
    },
    {
      "inputs": [
        {
          "internalType": "contract IReserveToken",
          "name": "_address",
          "type": "address"
        }
      ],
      "name": "connectors",
      "outputs": [
        {
          "internalType": "uint256",
          "name": "",
          "type": "uint256"
        },
        {
          "internalType": "uint32",
          "name": "",
          "type": "uint32"
        },
        {
          "internalType": "bool",
          "name": "",
          "type": "bool"
        },
        {
          "internalType": "bool",
          "name": "",
          "type": "bool"
        },
        {
          "internalType": "bool",
          "name": "",
          "type": "bool"
        }
      ],
      "stateMutability": "view",
      "type": "function"
    },
    {
      "inputs": [],
      "name": "conversionFee",
      "outputs": [
        {
          "internalType": "uint32",
          "name": "",
          "type": "uint32"
        }
      ],
      "stateMutability": "view",
      "type": "function"
    },
    {
      "inputs": [
        {
          "internalType": "contract IReserveToken",
          "name": "_sourceToken",
          "type": "address"
        },
        {
          "internalType": "contract IReserveToken",
          "name": "_targetToken",
          "type": "address"
        },
        {
          "internalType": "uint256",
          "name": "_amount",
          "type": "uint256"
        },
        {
          "internalType": "address",
          "name": "_trader",
          "type": "address"
        },
        {
          "internalType": "address payable",
          "name": "_beneficiary",
          "type": "address"
        }
      ],
      "name": "convert",
      "outputs": [
        {
          "internalType": "uint256",
          "name": "",
          "type": "uint256"
        }
      ],
      "stateMutability": "payable",
      "type": "function"
    },
    {
      "inputs": [],
      "name": "converterType",
      "outputs": [
        {
          "internalType": "uint16",
          "name": "",
          "type": "uint16"
        }
      ],
      "stateMutability": "pure",
      "type": "function"
    },
    {
      "inputs": [],
      "name": "currentTime",
      "outputs": [
        {
          "internalType": "uint256",
          "name": "",
          "type": "uint256"
        }
      ],
      "stateMutability": "view",
      "type": "function"
    },
    {
      "inputs": [
        {
          "internalType": "contract IReserveToken",
          "name": "_connectorToken",
          "type": "address"
        }
      ],
      "name": "getConnectorBalance",
      "outputs": [
        {
          "internalType": "uint256",
          "name": "",
          "type": "uint256"
        }
      ],
      "stateMutability": "view",
      "type": "function"
    },
    {
      "inputs": [
        {
          "internalType": "contract IReserveToken",
          "name": "_sourceToken",
          "type": "address"
        },
        {
          "internalType": "contract IReserveToken",
          "name": "_targetToken",
          "type": "address"
        },
        {
          "internalType": "uint256",
          "name": "_amount",
          "type": "uint256"
        }
      ],
      "name": "getReturn",
      "outputs": [
        {
          "internalType": "uint256",
          "name": "",
          "type": "uint256"
        },
        {
          "internalType": "uint256",
          "name": "",
          "type": "uint256"
        }
      ],
      "stateMutability": "view",
      "type": "function"
    },
    {
      "inputs": [],
      "name": "isActive",
      "outputs": [
        {
          "internalType": "bool",
          "name": "",
          "type": "bool"
        }
      ],
      "stateMutability": "view",
      "type": "function"
    },
    {
      "inputs": [],
      "name": "isV28OrHigher",
      "outputs": [
        {
          "internalType": "bool",
          "name": "",
          "type": "bool"
        }
      ],
      "stateMutability": "pure",
      "type": "function"
    },
    {
      "inputs": [],
      "name": "maxConversionFee",
      "outputs": [
        {
          "internalType": "uint32",
          "name": "",
          "type": "uint32"
        }
      ],
      "stateMutability": "view",
      "type": "function"
    },
    {
      "inputs": [],
      "name": "newOwner",
      "outputs": [
        {
          "internalType": "address",
          "name": "",
          "type": "address"
        }
      ],
      "stateMutability": "view",
      "type": "function"
    },
    {
      "inputs": [],
      "name": "onUpgradeComplete",
      "outputs": [],
      "stateMutability": "nonpayable",
      "type": "function"
    },
    {
      "inputs": [],
      "name": "onlyOwnerCanUpdateRegistry",
      "outputs": [
        {
          "internalType": "bool",
          "name": "",
          "type": "bool"
        }
      ],
      "stateMutability": "view",
      "type": "function"
    },
    {
      "inputs": [],
      "name": "owner",
      "outputs": [
        {
          "internalType": "address",
          "name": "",
          "type": "address"
        }
      ],
      "stateMutability": "view",
      "type": "function"
    },
    {
      "inputs": [],
      "name": "prevRegistry",
      "outputs": [
        {
          "internalType": "contract IContractRegistry",
          "name": "",
          "type": "address"
        }
      ],
      "stateMutability": "view",
      "type": "function"
    },
    {
      "inputs": [],
      "name": "processNetworkFees",
      "outputs": [],
      "stateMutability": "nonpayable",
      "type": "function"
    },
    {
      "inputs": [],
      "name": "rate",
      "outputs": [
        {
          "internalType": "uint256",
          "name": "",
          "type": "uint256"
        },
        {
          "internalType": "uint256",
          "name": "",
          "type": "uint256"
        }
      ],
      "stateMutability": "view",
      "type": "function"
    },
    {
      "inputs": [
        {
          "internalType": "contract IReserveToken",
          "name": "_token",
          "type": "address"
        }
      ],
      "name": "recentAverageRate",
      "outputs": [
        {
          "internalType": "uint256",
          "name": "",
          "type": "uint256"
        },
        {
          "internalType": "uint256",
          "name": "",
          "type": "uint256"
        }
      ],
      "stateMutability": "view",
      "type": "function"
    },
    {
      "inputs": [],
      "name": "registry",
      "outputs": [
        {
          "internalType": "contract IContractRegistry",
          "name": "",
          "type": "address"
        }
      ],
      "stateMutability": "view",
      "type": "function"
    },
    {
      "inputs": [
        {
          "internalType": "uint256",
          "name": "_amount",
          "type": "uint256"
        },
        {
          "internalType": "contract IReserveToken[]",
          "name": "_reserveTokens",
          "type": "address[]"
        },
        {
          "internalType": "uint256[]",
          "name": "_reserveMinReturnAmounts",
          "type": "uint256[]"
        }
      ],
      "name": "removeLiquidity",
      "outputs": [
        {
          "internalType": "uint256[]",
          "name": "",
          "type": "uint256[]"
        }
      ],
      "stateMutability": "nonpayable",
      "type": "function"
    },
    {
      "inputs": [
        {
          "internalType": "uint256",
          "name": "_amount",
          "type": "uint256"
        },
        {
          "internalType": "contract IReserveToken[]",
          "name": "_reserveTokens",
          "type": "address[]"
        }
      ],
      "name": "removeLiquidityReturn",
      "outputs": [
        {
          "internalType": "uint256[]",
          "name": "",
          "type": "uint256[]"
        }
      ],
      "stateMutability": "view",
      "type": "function"
    },
    {
      "inputs": [
        {
          "internalType": "uint256",
          "name": "",
          "type": "uint256"
        }
      ],
      "name": "reserveAmountsRemoved",
      "outputs": [
        {
          "internalType": "uint256",
          "name": "",
          "type": "uint256"
        }
      ],
      "stateMutability": "view",
      "type": "function"
    },
    {
      "inputs": [
        {
          "internalType": "contract IReserveToken",
          "name": "_reserveToken",
          "type": "address"
        }
      ],
      "name": "reserveBalance",
      "outputs": [
        {
          "internalType": "uint256",
          "name": "",
          "type": "uint256"
        }
      ],
      "stateMutability": "view",
      "type": "function"
    },
    {
      "inputs": [],
      "name": "reserveBalances",
      "outputs": [
        {
          "internalType": "uint256",
          "name": "",
          "type": "uint256"
        },
        {
          "internalType": "uint256",
          "name": "",
          "type": "uint256"
        }
      ],
      "stateMutability": "view",
      "type": "function"
    },
    {
      "inputs": [],
      "name": "reserveTokenCount",
      "outputs": [
        {
          "internalType": "uint16",
          "name": "",
          "type": "uint16"
        }
      ],
      "stateMutability": "view",
      "type": "function"
    },
    {
      "inputs": [],
      "name": "reserveTokens",
      "outputs": [
        {
          "internalType": "contract IReserveToken[]",
          "name": "",
          "type": "address[]"
        }
      ],
      "stateMutability": "view",
      "type": "function"
    },
    {
      "inputs": [
        {
          "internalType": "contract IReserveToken",
          "name": "_reserveToken",
          "type": "address"
        }
      ],
      "name": "reserveWeight",
      "outputs": [
        {
          "internalType": "uint32",
          "name": "",
          "type": "uint32"
        }
      ],
      "stateMutability": "view",
      "type": "function"
    },
    {
      "inputs": [],
      "name": "restoreRegistry",
      "outputs": [],
      "stateMutability": "nonpayable",
      "type": "function"
    },
    {
      "inputs": [
        {
          "internalType": "bool",
          "name": "_onlyOwnerCanUpdateRegistry",
          "type": "bool"
        }
      ],
      "name": "restrictRegistryUpdate",
      "outputs": [],
      "stateMutability": "nonpayable",
      "type": "function"
    },
    {
      "inputs": [
        {
          "internalType": "uint32",
          "name": "_conversionFee",
          "type": "uint32"
        }
      ],
      "name": "setConversionFee",
      "outputs": [],
      "stateMutability": "nonpayable",
      "type": "function"
    },
    {
      "inputs": [
        {
          "internalType": "uint256",
          "name": "rateN",
          "type": "uint256"
        },
        {
          "internalType": "uint256",
          "name": "rateD",
          "type": "uint256"
        }
      ],
      "name": "setRate",
      "outputs": [],
      "stateMutability": "nonpayable",
      "type": "function"
    },
    {
      "inputs": [
        {
          "internalType": "uint256",
          "name": "_currentTime",
          "type": "uint256"
        }
      ],
      "name": "setTime",
      "outputs": [],
      "stateMutability": "nonpayable",
      "type": "function"
    },
    {
      "inputs": [
        {
          "internalType": "contract IReserveToken",
          "name": "_sourceToken",
          "type": "address"
        },
        {
          "internalType": "contract IReserveToken",
          "name": "_targetToken",
          "type": "address"
        },
        {
          "internalType": "uint256",
          "name": "_amount",
          "type": "uint256"
        }
      ],
      "name": "sourceAmountAndFee",
      "outputs": [
        {
          "internalType": "uint256",
          "name": "",
          "type": "uint256"
        },
        {
          "internalType": "uint256",
          "name": "",
          "type": "uint256"
        }
      ],
      "stateMutability": "view",
      "type": "function"
    },
    {
      "inputs": [],
      "name": "syncReserveBalances",
      "outputs": [],
      "stateMutability": "nonpayable",
      "type": "function"
    },
    {
      "inputs": [
        {
          "internalType": "contract IReserveToken",
          "name": "_sourceToken",
          "type": "address"
        },
        {
          "internalType": "contract IReserveToken",
          "name": "_targetToken",
          "type": "address"
        },
        {
          "internalType": "uint256",
          "name": "_amount",
          "type": "uint256"
        }
      ],
      "name": "targetAmountAndFee",
      "outputs": [
        {
          "internalType": "uint256",
          "name": "",
          "type": "uint256"
        },
        {
          "internalType": "uint256",
          "name": "",
          "type": "uint256"
        }
      ],
      "stateMutability": "view",
      "type": "function"
    },
    {
      "inputs": [],
      "name": "token",
      "outputs": [
        {
          "internalType": "contract IConverterAnchor",
          "name": "",
          "type": "address"
        }
      ],
      "stateMutability": "view",
      "type": "function"
    },
    {
      "inputs": [
        {
          "internalType": "address",
          "name": "_newOwner",
          "type": "address"
        }
      ],
      "name": "transferAnchorOwnership",
      "outputs": [],
      "stateMutability": "nonpayable",
      "type": "function"
    },
    {
      "inputs": [
        {
          "internalType": "address",
          "name": "_newOwner",
          "type": "address"
        }
      ],
      "name": "transferOwnership",
      "outputs": [],
      "stateMutability": "nonpayable",
      "type": "function"
    },
    {
      "inputs": [
        {
          "internalType": "address",
          "name": "_newConverter",
          "type": "address"
        }
      ],
      "name": "transferReservesOnUpgrade",
      "outputs": [],
      "stateMutability": "nonpayable",
      "type": "function"
    },
    {
      "inputs": [
        {
          "internalType": "address",
          "name": "_newOwner",
          "type": "address"
        }
      ],
      "name": "transferTokenOwnership",
      "outputs": [],
      "stateMutability": "nonpayable",
      "type": "function"
    },
    {
      "inputs": [],
      "name": "updateRegistry",
      "outputs": [],
      "stateMutability": "nonpayable",
      "type": "function"
    },
    {
      "inputs": [],
      "name": "upgrade",
      "outputs": [],
      "stateMutability": "nonpayable",
      "type": "function"
    },
    {
      "inputs": [],
      "name": "version",
      "outputs": [
        {
          "internalType": "uint16",
          "name": "",
          "type": "uint16"
        }
      ],
      "stateMutability": "view",
      "type": "function"
    },
    {
      "stateMutability": "payable",
      "type": "receive"
    },
    {
      "inputs": [
        {
          "internalType": "uint256",
          "name": "_amount",
          "type": "uint256"
        },
        {
          "internalType": "contract IReserveToken[]",
          "name": "_reserveTokens",
          "type": "address[]"
        },
        {
          "internalType": "uint256[]",
          "name": "_reserveMinReturnAmounts",
          "type": "uint256[]"
        }
      ],
      "name": "removeLiquidityTest",
      "outputs": [],
      "stateMutability": "nonpayable",
      "type": "function"
    }
  ],
  "bytecode": "0x608060405260016004556001600c553480156200001b57600080fd5b506040516200775038038062007750833981810160405260608110156200004157600080fd5b8101908080519060200190929190805190602001909291908051906020019092919050505082828282828281336000806101000a81548173ffffffffffffffffffffffffffffffffffffffff021916908373ffffffffffffffffffffffffffffffffffffffff16021790555080620000bf81620001da60201b60201c565b81600260006101000a81548173ffffffffffffffffffffffffffffffffffffffff021916908373ffffffffffffffffffffffffffffffffffffffff16021790555081600360006101000a81548173ffffffffffffffffffffffffffffffffffffffff021916908373ffffffffffffffffffffffffffffffffffffffff1602179055505050826200015581620001da60201b60201c565b8162000167816200028160201b60201c565b84600960006101000a81548173ffffffffffffffffffffffffffffffffffffffff021916908373ffffffffffffffffffffffffffffffffffffffff16021790555082600960146101000a81548163ffffffff021916908363ffffffff16021790555050505050505050505050506200030a565b600073ffffffffffffffffffffffffffffffffffffffff168173ffffffffffffffffffffffffffffffffffffffff1614156200027e576040517f08c379a00000000000000000000000000000000000000000000000000000000081526004018080602001828103825260138152602001807f4552525f494e56414c49445f414444524553530000000000000000000000000081525060200191505060405180910390fd5b50565b620f424063ffffffff168163ffffffff16111562000307576040517f08c379a000000000000000000000000000000000000000000000000000000000815260040180806020018281038252601a8152602001807f4552525f494e56414c49445f434f4e56455253494f4e5f46454500000000000081525060200191505060405180910390fd5b50565b617436806200031a6000396000f3fe6080604052600436106103545760003560e01c806367b6d57c116101c6578063cdc91c69116100f7578063dc3d535311610095578063ecbca55d1161006f578063ecbca55d146117ee578063f0413a1f1461182f578063f2fde38b1461185a578063fc0c546a146118ab5761037a565b8063dc3d535314611564578063dc8de379146116c7578063e8dc12ff1461172c5761037a565b8063d3fb73b4116100d1578063d3fb73b414611466578063d4ee1d90146114a7578063d55ec697146114e8578063d8959512146114ff5761037a565b8063cdc91c69146113f7578063d18e81b31461140e578063d260529c146114395761037a565b80638da5cb5b11610164578063af94b8d81161013e578063af94b8d8146110fc578063b127c0a514611192578063b4a176d31461134a578063bbcdfdef146113615761037a565b80638da5cb5b1461105b57806394c275ad1461109c5780639b99a8e2146110cd5761037a565b806379ba5097116101a057806379ba509714610d6b5780637b10399914610d825780637d8916bd14610dc357806380d9416d14610f2d5761037a565b806367b6d57c14610c8a5780636a49d2c414610cdb57806371f52bf314610d3c5761037a565b80632e9abc7a116102a057806349d10b641161023e57806354fd4d501161021857806354fd4d5014610bb7578063579cd3ca14610be6578063613e53a714610c1757806361cd756e14610c495761037a565b806349d10b6414610b3a5780634bfcd2c614610b5157806350dc78f914610ba05761037a565b80633beb26c41161027a5780633beb26c414610a745780633cf98fa414610aaf5780633e8ff43f14610ac657806346df2ccb14610af55761037a565b80632e9abc7a146108c35780632fe8a6ad14610a3057806338a5e01614610a5d5761037a565b80631cfab2901161030d57806321e6b53d116102e757806321e6b53d146107a757806322f3e2d4146107f857806327ac36c4146108255780632c4e722e146108915761037a565b80631cfab2901461063a5780631e1401f8146106a55780631f0181bc1461073b5761037a565b8063024c7ec71461037f578063038d09e1146103bc5780630e53aae91461040d57806312b6705f1461049a57806315458837146104b157806319b64015146105d55761037a565b3661037a5773eeeeeeeeeeeeeeeeeeeeeeeeeeeeeeeeeeeeeeee610377816118ec565b50005b600080fd5b34801561038b57600080fd5b506103ba600480360360208110156103a257600080fd5b810190808035151590602001909291905050506119a5565b005b3480156103c857600080fd5b5061040b600480360360208110156103df57600080fd5b81019080803573ffffffffffffffffffffffffffffffffffffffff1690602001909291905050506119ca565b005b34801561041957600080fd5b5061045c6004803603602081101561043057600080fd5b81019080803573ffffffffffffffffffffffffffffffffffffffff169060200190929190505050611ad3565b604051808681526020018563ffffffff1681526020018415158152602001831515815260200182151581526020019550505050505060405180910390f35b3480156104a657600080fd5b506104af611b75565b005b3480156104bd57600080fd5b5061057e600480360360408110156104d457600080fd5b8101908080359060200190929190803590602001906401000000008111156104fb57600080fd5b82018360208201111561050d57600080fd5b8035906020019184602083028401116401000000008311171561052f57600080fd5b919080806020026020016040519081016040528093929190818152602001838360200280828437600081840152601f19601f820116905080830192505050505050509192919290505050611bab565b6040518080602001828103825283818151815260200191508051906020019060200280838360005b838110156105c15780820151818401526020810190506105a6565b505050509050019250505060405180910390f35b3480156105e157600080fd5b5061060e600480360360208110156105f857600080fd5b8101908080359060200190929190505050611c7c565b604051808273ffffffffffffffffffffffffffffffffffffffff16815260200191505060405180910390f35b34801561064657600080fd5b506106896004803603602081101561065d57600080fd5b81019080803573ffffffffffffffffffffffffffffffffffffffff169060200190929190505050611cbd565b604051808263ffffffff16815260200191505060405180910390f35b3480156106b157600080fd5b5061071e600480360360608110156106c857600080fd5b81019080803573ffffffffffffffffffffffffffffffffffffffff169060200190929190803573ffffffffffffffffffffffffffffffffffffffff16906020019092919080359060200190929190505050611ce5565b604051808381526020018281526020019250505060405180910390f35b34801561074757600080fd5b5061078a6004803603602081101561075e57600080fd5b81019080803573ffffffffffffffffffffffffffffffffffffffff169060200190929190505050611cff565b604051808381526020018281526020019250505060405180910390f35b3480156107b357600080fd5b506107f6600480360360208110156107ca57600080fd5b81019080803573ffffffffffffffffffffffffffffffffffffffff169060200190929190505050611dbf565b005b34801561080457600080fd5b5061080d611dd3565b60405180821515815260200191505060405180910390f35b34801561083157600080fd5b5061083a611eab565b6040518080602001828103825283818151815260200191508051906020019060200280838360005b8381101561087d578082015181840152602081019050610862565b505050509050019250505060405180910390f35b34801561089d57600080fd5b506108a6611f39565b604051808381526020018281526020019250505060405180910390f35b3480156108cf57600080fd5b50610a1a600480360360408110156108e657600080fd5b810190808035906020019064010000000081111561090357600080fd5b82018360208201111561091557600080fd5b8035906020019184602083028401116401000000008311171561093757600080fd5b919080806020026020016040519081016040528093929190818152602001838360200280828437600081840152601f19601f8201169050808301925050505050505091929192908035906020019064010000000081111561099757600080fd5b8201836020820111156109a957600080fd5b803590602001918460208302840111640100000000831117156109cb57600080fd5b919080806020026020016040519081016040528093929190818152602001838360200280828437600081840152601f19601f820116905080830192505050505050509192919290505050611ff9565b6040518082815260200191505060405180910390f35b348015610a3c57600080fd5b50610a456120d1565b60405180821515815260200191505060405180910390f35b348015610a6957600080fd5b50610a726120e4565b005b348015610a8057600080fd5b50610aad60048036036020811015610a9757600080fd5b81019080803590602001909291905050506120f6565b005b348015610abb57600080fd5b50610ac4612100565b005b348015610ad257600080fd5b50610adb61210c565b604051808261ffff16815260200191505060405180910390f35b348015610b0157600080fd5b50610b3860048036036040811015610b1857600080fd5b810190808035906020019092919080359060200190929190505050612115565b005b348015610b4657600080fd5b50610b4f612260565b005b348015610b5d57600080fd5b50610b8a60048036036020811015610b7457600080fd5b8101908080359060200190929190505050612658565b6040518082815260200191505060405180910390f35b348015610bac57600080fd5b50610bb5612679565b005b348015610bc357600080fd5b50610bcc6126e4565b604051808261ffff16815260200191505060405180910390f35b348015610bf257600080fd5b50610bfb6126e9565b604051808263ffffffff16815260200191505060405180910390f35b348015610c2357600080fd5b50610c2c6126ff565b604051808381526020018281526020019250505060405180910390f35b348015610c5557600080fd5b50610c5e612716565b604051808273ffffffffffffffffffffffffffffffffffffffff16815260200191505060405180910390f35b348015610c9657600080fd5b50610cd960048036036020811015610cad57600080fd5b81019080803573ffffffffffffffffffffffffffffffffffffffff16906020019092919050505061273c565b005b348015610ce757600080fd5b50610d3a60048036036040811015610cfe57600080fd5b81019080803573ffffffffffffffffffffffffffffffffffffffff169060200190929190803563ffffffff169060200190929190505050612815565b005b348015610d4857600080fd5b50610d51612a7b565b604051808261ffff16815260200191505060405180910390f35b348015610d7757600080fd5b50610d80612a8a565b005b348015610d8e57600080fd5b50610d97612c8f565b604051808273ffffffffffffffffffffffffffffffffffffffff16815260200191505060405180910390f35b610f1760048036036060811015610dd957600080fd5b8101908080359060200190640100000000811115610df657600080fd5b820183602082011115610e0857600080fd5b80359060200191846020830284011164010000000083111715610e2a57600080fd5b919080806020026020016040519081016040528093929190818152602001838360200280828437600081840152601f19601f82011690508083019250505050505050919291929080359060200190640100000000811115610e8a57600080fd5b820183602082011115610e9c57600080fd5b80359060200191846020830284011164010000000083111715610ebe57600080fd5b919080806020026020016040519081016040528093929190818152602001838360200280828437600081840152601f19601f82011690508083019250505050505050919291929080359060200190929190505050612cb5565b6040518082815260200191505060405180910390f35b348015610f3957600080fd5b5061100460048036036060811015610f5057600080fd5b8101908080359060200190640100000000811115610f6d57600080fd5b820183602082011115610f7f57600080fd5b80359060200191846020830284011164010000000083111715610fa157600080fd5b919080806020026020016040519081016040528093929190818152602001838360200280828437600081840152601f19601f820116905080830192505050505050509192919290803590602001909291908035906020019092919050505061349e565b6040518080602001828103825283818151815260200191508051906020019060200280838360005b8381101561104757808201518184015260208101905061102c565b505050509050019250505060405180910390f35b34801561106757600080fd5b5061107061363d565b604051808273ffffffffffffffffffffffffffffffffffffffff16815260200191505060405180910390f35b3480156110a857600080fd5b506110b1613661565b604051808263ffffffff16815260200191505060405180910390f35b3480156110d957600080fd5b506110e2613677565b604051808261ffff16815260200191505060405180910390f35b34801561110857600080fd5b506111756004803603606081101561111f57600080fd5b81019080803573ffffffffffffffffffffffffffffffffffffffff169060200190929190803573ffffffffffffffffffffffffffffffffffffffff16906020019092919080359060200190929190505050613684565b604051808381526020018281526020019250505060405180910390f35b34801561119e57600080fd5b506112f3600480360360608110156111b557600080fd5b8101908080359060200190929190803590602001906401000000008111156111dc57600080fd5b8201836020820111156111ee57600080fd5b8035906020019184602083028401116401000000008311171561121057600080fd5b919080806020026020016040519081016040528093929190818152602001838360200280828437600081840152601f19601f8201169050808301925050505050505091929192908035906020019064010000000081111561127057600080fd5b82018360208201111561128257600080fd5b803590602001918460208302840111640100000000831117156112a457600080fd5b919080806020026020016040519081016040528093929190818152602001838360200280828437600081840152601f19601f8201169050808301925050505050505091929192905050506136a9565b6040518080602001828103825283818151815260200191508051906020019060200280838360005b8381101561133657808201518184015260208101905061131b565b505050509050019250505060405180910390f35b34801561135657600080fd5b5061135f613b8a565b005b34801561136d57600080fd5b506113da6004803603606081101561138457600080fd5b81019080803573ffffffffffffffffffffffffffffffffffffffff169060200190929190803573ffffffffffffffffffffffffffffffffffffffff16906020019092919080359060200190929190505050613bf7565b604051808381526020018281526020019250505060405180910390f35b34801561140357600080fd5b5061140c613ce4565b005b34801561141a57600080fd5b50611423613e70565b6040518082815260200191505060405180910390f35b34801561144557600080fd5b5061144e613e76565b60405180821515815260200191505060405180910390f35b34801561147257600080fd5b5061147b613e7f565b604051808273ffffffffffffffffffffffffffffffffffffffff16815260200191505060405180910390f35b3480156114b357600080fd5b506114bc613ea5565b604051808273ffffffffffffffffffffffffffffffffffffffff16815260200191505060405180910390f35b3480156114f457600080fd5b506114fd613ecb565b005b34801561150b57600080fd5b5061154e6004803603602081101561152257600080fd5b81019080803573ffffffffffffffffffffffffffffffffffffffff169060200190929190505050613ff9565b6040518082815260200191505060405180910390f35b34801561157057600080fd5b506116c56004803603606081101561158757600080fd5b8101908080359060200190929190803590602001906401000000008111156115ae57600080fd5b8201836020820111156115c057600080fd5b803590602001918460208302840111640100000000831117156115e257600080fd5b919080806020026020016040519081016040528093929190818152602001838360200280828437600081840152601f19601f8201169050808301925050505050505091929192908035906020019064010000000081111561164257600080fd5b82018360208201111561165457600080fd5b8035906020019184602083028401116401000000008311171561167657600080fd5b919080806020026020016040519081016040528093929190818152602001838360200280828437600081840152601f19601f82011690508083019250505050505050919291929050505061400b565b005b3480156116d357600080fd5b50611716600480360360208110156116ea57600080fd5b81019080803573ffffffffffffffffffffffffffffffffffffffff169060200190929190505050614031565b6040518082815260200191505060405180910390f35b6117d8600480360360a081101561174257600080fd5b81019080803573ffffffffffffffffffffffffffffffffffffffff169060200190929190803573ffffffffffffffffffffffffffffffffffffffff16906020019092919080359060200190929190803573ffffffffffffffffffffffffffffffffffffffff169060200190929190803573ffffffffffffffffffffffffffffffffffffffff1690602001909291905050506140fe565b6040518082815260200191505060405180910390f35b3480156117fa57600080fd5b5061182d6004803603602081101561181157600080fd5b81019080803563ffffffff1690602001909291905050506141fd565b005b34801561183b57600080fd5b5061184461431a565b6040518082815260200191505060405180910390f35b34801561186657600080fd5b506118a96004803603602081101561187d57600080fd5b81019080803573ffffffffffffffffffffffffffffffffffffffff169060200190929190505050614320565b005b3480156118b757600080fd5b506118c061442e565b604051808273ffffffffffffffffffffffffffffffffffffffff16815260200191505060405180910390f35b6000600860008373ffffffffffffffffffffffffffffffffffffffff1673ffffffffffffffffffffffffffffffffffffffff1681526020019081526020016000205414156119a2576040517f08c379a00000000000000000000000000000000000000000000000000000000081526004018080602001828103825260138152602001807f4552525f494e56414c49445f524553455256450000000000000000000000000081525060200191505060405180910390fd5b50565b6119ad614458565b80600360146101000a81548160ff02191690831515021790555050565b6119d261451b565b60026004819055506119e2614458565b7f42616e636f72436f6e7665727465725570677261646572000000000000000000611a0c81614595565b6000600780549050905060005b81811015611ac557600060078281548110611a3057fe5b9060005260206000200160009054906101000a900473ffffffffffffffffffffffffffffffffffffffff169050611ab085611a8a308473ffffffffffffffffffffffffffffffffffffffff1661464190919063ffffffff16565b8373ffffffffffffffffffffffffffffffffffffffff166147239092919063ffffffff16565b611ab9816147c5565b50806001019050611a19565b505050600160048190555050565b600080600080600080600860008873ffffffffffffffffffffffffffffffffffffffff1673ffffffffffffffffffffffffffffffffffffffff16815260200190815260200160002054905060008114611b5857611b2f8161483f565b6002620f424063ffffffff1681611b4257fe5b0460008060019550955095509550955050611b6c565b600080600080600095509550955095509550505b91939590929450565b611b7d61451b565b6002600481905550600080611b926000614854565b9150915080820260068190555050506001600481905550565b60606000600960009054906101000a900473ffffffffffffffffffffffffffffffffffffffff1673ffffffffffffffffffffffffffffffffffffffff166318160ddd6040518163ffffffff1660e01b815260040160206040518083038186803b158015611c1757600080fd5b505afa158015611c2b573d6000803e3d6000fd5b505050506040513d6020811015611c4157600080fd5b81019080805190602001909291905050509050611c5c617303565b611c6584614976565b9050611c72858383614a77565b9250505092915050565b600060078281548110611c8b57fe5b9060005260206000200160009054906101000a900473ffffffffffffffffffffffffffffffffffffffff169050919050565b600081611cc9816118ec565b6002620f424063ffffffff1681611cdc57fe5b04915050919050565b600080611cf3858585613684565b91509150935093915050565b60008082611d0c816118ec565b6000611d19600a54614b39565b90506000611d2682614cc0565b90506000611d3383614cde565b90506007600081548110611d4357fe5b9060005260206000200160009054906101000a900473ffffffffffffffffffffffffffffffffffffffff1673ffffffffffffffffffffffffffffffffffffffff168773ffffffffffffffffffffffffffffffffffffffff161415611daf57818195509550505050611db9565b8082955095505050505b50915091565b611dc7614458565b611dd08161273c565b50565b60003073ffffffffffffffffffffffffffffffffffffffff16600960009054906101000a900473ffffffffffffffffffffffffffffffffffffffff1673ffffffffffffffffffffffffffffffffffffffff16638da5cb5b6040518163ffffffff1660e01b815260040160206040518083038186803b158015611e5457600080fd5b505afa158015611e68573d6000803e3d6000fd5b505050506040513d6020811015611e7e57600080fd5b810190808051906020019092919050505073ffffffffffffffffffffffffffffffffffffffff1614905090565b60606007805480602002602001604051908101604052809291908181526020018280548015611f2f57602002820191906000526020600020905b8160009054906101000a900473ffffffffffffffffffffffffffffffffffffffff1673ffffffffffffffffffffffffffffffffffffffff1681526020019060010190808311611ee5575b5050505050905090565b6000806060611f46611eab565b9050600b600082600081518110611f5957fe5b602002602001015173ffffffffffffffffffffffffffffffffffffffff1673ffffffffffffffffffffffffffffffffffffffff16815260200190815260200160002054600b600083600181518110611fad57fe5b602002602001015173ffffffffffffffffffffffffffffffffffffffff1673ffffffffffffffffffffffffffffffffffffffff1681526020019081526020016000205492509250509091565b600080600960009054906101000a900473ffffffffffffffffffffffffffffffffffffffff1673ffffffffffffffffffffffffffffffffffffffff166318160ddd6040518163ffffffff1660e01b815260040160206040518083038186803b15801561206457600080fd5b505afa158015612078573d6000803e3d6000fd5b505050506040513d602081101561208e57600080fd5b810190808051906020019092919050505090506120a9617303565b6120b285614976565b905060006120c286868486614cf8565b50905080935050505092915050565b600360149054906101000a900460ff1681565b6120ec614458565b6120f4613ce4565b565b80600c8190555050565b61210a6000614ee5565b565b60006004905090565b61211d614458565b60008211801561212d5750600081115b61219f576040517f08c379a00000000000000000000000000000000000000000000000000000000081526004018080602001828103825260108152602001807f4552525f494e56414c49445f524154450000000000000000000000000000000081525060200191505060405180910390fd5b60606121a9611eab565b905082600b6000836000815181106121bd57fe5b602002602001015173ffffffffffffffffffffffffffffffffffffffff1673ffffffffffffffffffffffffffffffffffffffff1681526020019081526020016000208190555081600b60008360018151811061221557fe5b602002602001015173ffffffffffffffffffffffffffffffffffffffff1673ffffffffffffffffffffffffffffffffffffffff16815260200190815260200160002081905550505050565b60008054906101000a900473ffffffffffffffffffffffffffffffffffffffff1673ffffffffffffffffffffffffffffffffffffffff163373ffffffffffffffffffffffffffffffffffffffff1614806122c75750600360149054906101000a900460ff16155b612339576040517f08c379a00000000000000000000000000000000000000000000000000000000081526004018080602001828103825260118152602001807f4552525f4143434553535f44454e49454400000000000000000000000000000081525060200191505060405180910390fd5b60006123647f436f6e7472616374526567697374727900000000000000000000000000000000615028565b9050600260009054906101000a900473ffffffffffffffffffffffffffffffffffffffff1673ffffffffffffffffffffffffffffffffffffffff168173ffffffffffffffffffffffffffffffffffffffff16141580156123f15750600073ffffffffffffffffffffffffffffffffffffffff168173ffffffffffffffffffffffffffffffffffffffff1614155b612463576040517f08c379a00000000000000000000000000000000000000000000000000000000081526004018080602001828103825260148152602001807f4552525f494e56414c49445f524547495354525900000000000000000000000081525060200191505060405180910390fd5b600073ffffffffffffffffffffffffffffffffffffffff168173ffffffffffffffffffffffffffffffffffffffff1663bb34534c7f436f6e74726163745265676973747279000000000000000000000000000000006040518263ffffffff1660e01b81526004018082815260200191505060206040518083038186803b1580156124ec57600080fd5b505afa158015612500573d6000803e3d6000fd5b505050506040513d602081101561251657600080fd5b810190808051906020019092919050505073ffffffffffffffffffffffffffffffffffffffff1614156125b1576040517f08c379a00000000000000000000000000000000000000000000000000000000081526004018080602001828103825260148152602001807f4552525f494e56414c49445f524547495354525900000000000000000000000081525060200191505060405180910390fd5b600260009054906101000a900473ffffffffffffffffffffffffffffffffffffffff16600360006101000a81548173ffffffffffffffffffffffffffffffffffffffff021916908373ffffffffffffffffffffffffffffffffffffffff16021790555080600260006101000a81548173ffffffffffffffffffffffffffffffffffffffff021916908373ffffffffffffffffffffffffffffffffffffffff16021790555050565b600d818154811061266557fe5b906000526020600020016000915090505481565b61268161451b565b6002600481905550612691614458565b7f42616e636f72436f6e76657274657255706772616465720000000000000000006126bb81614595565b6000806126ca600160026150df565b915091508082026006819055505050506001600481905550565b602f81565b600960189054906101000a900463ffffffff1681565b60008061270e600160026150df565b915091509091565b600360009054906101000a900473ffffffffffffffffffffffffffffffffffffffff1681565b612744614458565b7f42616e636f72436f6e766572746572557067726164657200000000000000000061276e81614595565b600960009054906101000a900473ffffffffffffffffffffffffffffffffffffffff1673ffffffffffffffffffffffffffffffffffffffff1663f2fde38b836040518263ffffffff1660e01b8152600401808273ffffffffffffffffffffffffffffffffffffffff168152602001915050600060405180830381600087803b1580156127f957600080fd5b505af115801561280d573d6000803e3d6000fd5b505050505050565b61281d614458565b612825615193565b8161282f81615210565b81612839816152ee565b600960009054906101000a900473ffffffffffffffffffffffffffffffffffffffff1673ffffffffffffffffffffffffffffffffffffffff168473ffffffffffffffffffffffffffffffffffffffff16141580156128d657506000600860008673ffffffffffffffffffffffffffffffffffffffff1673ffffffffffffffffffffffffffffffffffffffff16815260200190815260200160002054145b612948576040517f08c379a00000000000000000000000000000000000000000000000000000000081526004018080602001828103825260138152602001807f4552525f494e56414c49445f524553455256450000000000000000000000000081525060200191505060405180910390fd5b6002612952613677565b61ffff16106129c9576040517f08c379a00000000000000000000000000000000000000000000000000000000081526004018080602001828103825260198152602001807f4552525f494e56414c49445f524553455256455f434f554e540000000000000081525060200191505060405180910390fd5b6007849080600181540180825580915050600190039060005260206000200160009091909190916101000a81548173ffffffffffffffffffffffffffffffffffffffff021916908373ffffffffffffffffffffffffffffffffffffffff160217905550600780549050600860008673ffffffffffffffffffffffffffffffffffffffff1673ffffffffffffffffffffffffffffffffffffffff1681526020019081526020016000208190555050505050565b6000612a85613677565b905090565b600160009054906101000a900473ffffffffffffffffffffffffffffffffffffffff1673ffffffffffffffffffffffffffffffffffffffff163373ffffffffffffffffffffffffffffffffffffffff1614612b4d576040517f08c379a00000000000000000000000000000000000000000000000000000000081526004018080602001828103825260118152602001807f4552525f4143434553535f44454e49454400000000000000000000000000000081525060200191505060405180910390fd5b600160009054906101000a900473ffffffffffffffffffffffffffffffffffffffff1673ffffffffffffffffffffffffffffffffffffffff1660008054906101000a900473ffffffffffffffffffffffffffffffffffffffff1673ffffffffffffffffffffffffffffffffffffffff167f343765429aea5a34b3ff6a3785a98a5abb2597aca87bfbb58632c173d585373a60405160405180910390a3600160009054906101000a900473ffffffffffffffffffffffffffffffffffffffff166000806101000a81548173ffffffffffffffffffffffffffffffffffffffff021916908373ffffffffffffffffffffffffffffffffffffffff1602179055506000600160006101000a81548173ffffffffffffffffffffffffffffffffffffffff021916908373ffffffffffffffffffffffffffffffffffffffff160217905550565b600260009054906101000a900473ffffffffffffffffffffffffffffffffffffffff1681565b6000612cbf61451b565b6002600481905550612ccf615385565b612cda848484615401565b50612d0e84600081518110612ceb57fe5b602002602001015173ffffffffffffffffffffffffffffffffffffffff1661570a565b1580612d2d57503483600081518110612d2357fe5b6020026020010151145b8015612d875750612d6784600181518110612d4457fe5b602002602001015173ffffffffffffffffffffffffffffffffffffffff1661570a565b1580612d8657503483600181518110612d7c57fe5b6020026020010151145b5b612df9576040517f08c379a00000000000000000000000000000000000000000000000000000000081526004018080602001828103825260178152602001807f4552525f4554485f414d4f554e545f4d49534d4154434800000000000000000081525060200191505060405180910390fd5b6000341115612ecd5760006008600073eeeeeeeeeeeeeeeeeeeeeeeeeeeeeeeeeeeeeeee73ffffffffffffffffffffffffffffffffffffffff1673ffffffffffffffffffffffffffffffffffffffff168152602001908152602001600020541415612ecc576040517f08c379a00000000000000000000000000000000000000000000000000000000081526004018080602001828103825260128152602001807f4552525f4e4f5f4554485f52455345525645000000000000000000000000000081525060200191505060405180910390fd5b5b6000600960009054906101000a900473ffffffffffffffffffffffffffffffffffffffff16905060008173ffffffffffffffffffffffffffffffffffffffff166318160ddd6040518163ffffffff1660e01b815260040160206040518083038186803b158015612f3c57600080fd5b505afa158015612f50573d6000803e3d6000fd5b505050506040513d6020811015612f6657600080fd5b81019080805190602001909291905050509050612f81617303565b612f89617303565b612f9234614854565b83600060028110612f9f57fe5b6020020184600160028110612fb057fe5b60200201828152508281525050506000612fc8617303565b600085141561303757612fda89615756565b915088600081518110612fe957fe5b602002602001015181600060028110612ffe57fe5b6020020181815250508860018151811061301457fe5b60200260200101518160016002811061302957fe5b60200201818152505061304c565b6130438a8a8688614cf8565b80925081935050505b600061306183876157b590919063ffffffff16565b905060005b600281101561332a5760008c828151811061307d57fe5b60200260200101519050600084836002811061309557fe5b6020020151905060008111613112576040517f08c379a00000000000000000000000000000000000000000000000000000000081526004018080602001828103825260168152602001807f4552525f5a45524f5f5441524745545f414d4f554e540000000000000000000081525060200191505060405180910390fd5b8c838151811061311e57fe5b602002602001015181111561312f57fe5b61314e8273ffffffffffffffffffffffffffffffffffffffff1661570a565b6131845761317f3330838573ffffffffffffffffffffffffffffffffffffffff1661583d909392919063ffffffff16565b6131e1565b808d848151811061319157fe5b602002602001015111156131e0576131df33828f86815181106131b057fe5b6020026020010151038473ffffffffffffffffffffffffffffffffffffffff166147239092919063ffffffff16565b5b5b613204818985600281106131f157fe5b60200201516157b590919063ffffffff16565b87846002811061321057fe5b6020020181815250508173ffffffffffffffffffffffffffffffffffffffff163373ffffffffffffffffffffffffffffffffffffffff167f4a1a2a6176e9646d9e3157f7c2ab3c499f18337c0b0828cfb28e0a61de4a11f7838a876002811061327557fe5b60200201518860405180848152602001838152602001828152602001935050505060405180910390a38173ffffffffffffffffffffffffffffffffffffffff168a73ffffffffffffffffffffffffffffffffffffffff167f77f29993cf2c084e726f7e802da0719d6a0ade3e204badc7a3ffd57ecb768c248986600281106132f957fe5b602002015187604051808381526020018281526020019250505060405180910390a350508080600101915050613066565b5061335b600160028660006002811061333f57fe5b60200201518760016002811061335157fe5b6020020151615897565b8360016002811061336857fe5b60200201518460006002811061337a57fe5b602002015102600681905550888310156133fc576040517f08c379a00000000000000000000000000000000000000000000000000000000081526004018080602001828103825260128152602001807f4552525f52455455524e5f544f4f5f4c4f57000000000000000000000000000081525060200191505060405180910390fd5b8673ffffffffffffffffffffffffffffffffffffffff1663867904b433856040518363ffffffff1660e01b8152600401808373ffffffffffffffffffffffffffffffffffffffff16815260200182815260200192505050600060405180830381600087803b15801561346d57600080fd5b505af1158015613481573d6000803e3d6000fd5b505050508297505050505050505060016004819055509392505050565b60606000600960009054906101000a900473ffffffffffffffffffffffffffffffffffffffff1673ffffffffffffffffffffffffffffffffffffffff166318160ddd6040518163ffffffff1660e01b815260040160206040518083038186803b15801561350a57600080fd5b505afa15801561351e573d6000803e3d6000fd5b505050506040513d602081101561353457600080fd5b8101908080519060200190929190505050905061354f617303565b61355886614976565b905060006135778383886002811061356c57fe5b602002015187615951565b90506060600267ffffffffffffffff8111801561359357600080fd5b506040519080825280602002602001820160405280156135c25781602001602082028036833780820191505090505b5090506135e184846000600281106135d657fe5b602002015184615a76565b816000815181106135ee57fe5b602002602001018181525050613616848460016002811061360b57fe5b602002015184615a76565b8160018151811061362357fe5b602002602001018181525050809450505050509392505050565b60008054906101000a900473ffffffffffffffffffffffffffffffffffffffff1681565b600960149054906101000a900463ffffffff1681565b6000600780549050905090565b60008061368f615385565b61369d858560008087615ba1565b91509150935093915050565b60606136b361451b565b60026004819055506136c3615385565b60006136d0848487615401565b90506000600960009054906101000a900473ffffffffffffffffffffffffffffffffffffffff16905060008173ffffffffffffffffffffffffffffffffffffffff166318160ddd6040518163ffffffff1660e01b815260040160206040518083038186803b15801561374157600080fd5b505afa158015613755573d6000803e3d6000fd5b505050506040513d602081101561376b57600080fd5b810190808051906020019092919050505090508173ffffffffffffffffffffffffffffffffffffffff1663a24835d133896040518363ffffffff1660e01b8152600401808373ffffffffffffffffffffffffffffffffffffffff16815260200182815260200192505050600060405180830381600087803b1580156137ef57600080fd5b505af1158015613803573d6000803e3d6000fd5b50505050600061381c8883615e1a90919063ffffffff16565b9050613826617303565b61382e617303565b6138386000614854565b8360006002811061384557fe5b602002018460016002811061385657fe5b602002018281525082815250505060606138718b8685614a77565b905060005b6002811015613aac5760008b828151811061388d57fe5b6020026020010151905060008383815181106138a557fe5b602002602001015190508b83815181106138bb57fe5b6020026020010151811015613938576040517f08c379a00000000000000000000000000000000000000000000000000000000081526004018080602001828103825260168152602001807f4552525f5a45524f5f5441524745545f414d4f554e540000000000000000000081525060200191505060405180910390fd5b61395b8187856002811061394857fe5b6020020151615e1a90919063ffffffff16565b85846002811061396757fe5b60200201818152505061399b33828473ffffffffffffffffffffffffffffffffffffffff166147239092919063ffffffff16565b8173ffffffffffffffffffffffffffffffffffffffff163373ffffffffffffffffffffffffffffffffffffffff167fbc7d19d505c7ec4db83f3b51f19fb98c4c8a99922e7839d1ee608dfbee29501b838887600281106139f757fe5b60200201518b60405180848152602001838152602001828152602001935050505060405180910390a38173ffffffffffffffffffffffffffffffffffffffff168973ffffffffffffffffffffffffffffffffffffffff167f77f29993cf2c084e726f7e802da0719d6a0ade3e204badc7a3ffd57ecb768c24878660028110613a7b57fe5b60200201518a604051808381526020018281526020019250505060405180910390a350508080600101915050613876565b50613add6001600284600060028110613ac157fe5b602002015185600160028110613ad357fe5b6020020151615897565b81600160028110613aea57fe5b602002015182600060028110613afc57fe5b6020020151026006819055508615613b7157600081600081518110613b1d57fe5b6020026020010151905081600181518110613b3457fe5b602002602001015182600081518110613b4957fe5b6020026020010181815250508082600181518110613b6357fe5b602002602001018181525050505b8097505050505050505060016004819055509392505050565b613b92614458565b600360009054906101000a900473ffffffffffffffffffffffffffffffffffffffff16600260006101000a81548173ffffffffffffffffffffffffffffffffffffffff021916908373ffffffffffffffffffffffffffffffffffffffff160217905550565b600080613c02615385565b6000600b60008773ffffffffffffffffffffffffffffffffffffffff1673ffffffffffffffffffffffffffffffffffffffff1681526020019081526020016000205490506000600b60008773ffffffffffffffffffffffffffffffffffffffff1673ffffffffffffffffffffffffffffffffffffffff1681526020019081526020016000205490506000613c9586615e9d565b90506000613cd084613cc285613cb4868c6157b590919063ffffffff16565b615f0090919063ffffffff16565b615f8690919063ffffffff16565b905080829550955050505050935093915050565b613cec614458565b6002613cf6613677565b61ffff1614613d6d576040517f08c379a00000000000000000000000000000000000000000000000000000000081526004018080602001828103825260198152602001807f4552525f494e56414c49445f524553455256455f434f554e540000000000000081525060200191505060405180910390fd5b600960009054906101000a900473ffffffffffffffffffffffffffffffffffffffff1673ffffffffffffffffffffffffffffffffffffffff166379ba50976040518163ffffffff1660e01b8152600401600060405180830381600087803b158015613dd757600080fd5b505af1158015613deb573d6000803e3d6000fd5b50505050613df96000614ee5565b60011515600960009054906101000a900473ffffffffffffffffffffffffffffffffffffffff1673ffffffffffffffffffffffffffffffffffffffff16613e3e61210c565b61ffff167f6b08c2e2c9969e55a647a764db9b554d64dc42f1a704da11a6d5b129ad163f2c60405160405180910390a4565b600c5481565b60006001905090565b600960009054906101000a900473ffffffffffffffffffffffffffffffffffffffff1681565b600160009054906101000a900473ffffffffffffffffffffffffffffffffffffffff1681565b613ed3614458565b6000613efe7f42616e636f72436f6e7665727465725570677261646572000000000000000000615028565b905060001515600960009054906101000a900473ffffffffffffffffffffffffffffffffffffffff1673ffffffffffffffffffffffffffffffffffffffff16613f4561210c565b61ffff167f6b08c2e2c9969e55a647a764db9b554d64dc42f1a704da11a6d5b129ad163f2c60405160405180910390a4613f7e81614320565b8073ffffffffffffffffffffffffffffffffffffffff166390f58c96602f6040518263ffffffff1660e01b8152600401808261ffff168152602001915050600060405180830381600087803b158015613fd657600080fd5b505af1158015613fea573d6000803e3d6000fd5b50505050613ff6612a8a565b50565b600061400482614031565b9050919050565b6140168383836136a9565b600d908051906020019061402b929190617325565b50505050565b600080600860008473ffffffffffffffffffffffffffffffffffffffff1673ffffffffffffffffffffffffffffffffffffffff16815260200190815260200160002054905060008114156140ed576040517f08c379a00000000000000000000000000000000000000000000000000000000081526004018080602001828103825260138152602001807f4552525f494e56414c49445f524553455256450000000000000000000000000081525060200191505060405180910390fd5b6140f68161483f565b915050919050565b600061410861451b565b60026004819055507f42616e636f724e6574776f726b0000000000000000000000000000000000000061413a81614595565b8573ffffffffffffffffffffffffffffffffffffffff168773ffffffffffffffffffffffffffffffffffffffff1614156141dc576040517f08c379a00000000000000000000000000000000000000000000000000000000081526004018080602001828103825260168152602001807f4552525f53414d455f534f555243455f5441524745540000000000000000000081525060200191505060405180910390fd5b6141e9878787878761600f565b915050600160048190555095945050505050565b614205614458565b600960149054906101000a900463ffffffff1663ffffffff168163ffffffff161115614299576040517f08c379a000000000000000000000000000000000000000000000000000000000815260040180806020018281038252601a8152602001807f4552525f494e56414c49445f434f4e56455253494f4e5f46454500000000000081525060200191505060405180910390fd5b7f81cd2ffb37dd237c0e4e2a3de5265fcf9deb43d3e7801e80db9f1ccfba7ee600600960189054906101000a900463ffffffff1682604051808363ffffffff1681526020018263ffffffff1681526020019250505060405180910390a180600960186101000a81548163ffffffff021916908363ffffffff16021790555050565b600a5481565b614328614458565b60008054906101000a900473ffffffffffffffffffffffffffffffffffffffff1673ffffffffffffffffffffffffffffffffffffffff168173ffffffffffffffffffffffffffffffffffffffff1614156143ea576040517f08c379a000000000000000000000000000000000000000000000000000000000815260040180806020018281038252600e8152602001807f4552525f53414d455f4f574e455200000000000000000000000000000000000081525060200191505060405180910390fd5b80600160006101000a81548173ffffffffffffffffffffffffffffffffffffffff021916908373ffffffffffffffffffffffffffffffffffffffff16021790555050565b6000600960009054906101000a900473ffffffffffffffffffffffffffffffffffffffff16905090565b60008054906101000a900473ffffffffffffffffffffffffffffffffffffffff1673ffffffffffffffffffffffffffffffffffffffff163373ffffffffffffffffffffffffffffffffffffffff1614614519576040517f08c379a00000000000000000000000000000000000000000000000000000000081526004018080602001828103825260118152602001807f4552525f4143434553535f44454e49454400000000000000000000000000000081525060200191505060405180910390fd5b565b600160045414614593576040517f08c379a000000000000000000000000000000000000000000000000000000000815260040180806020018281038252600e8152602001807f4552525f5245454e5452414e435900000000000000000000000000000000000081525060200191505060405180910390fd5b565b61459e81615028565b73ffffffffffffffffffffffffffffffffffffffff163373ffffffffffffffffffffffffffffffffffffffff161461463e576040517f08c379a00000000000000000000000000000000000000000000000000000000081526004018080602001828103825260118152602001807f4552525f4143434553535f44454e49454400000000000000000000000000000081525060200191505060405180910390fd5b50565b600061464c8361570a565b15614670578173ffffffffffffffffffffffffffffffffffffffff1631905061471d565b6146798361630e565b73ffffffffffffffffffffffffffffffffffffffff166370a08231836040518263ffffffff1660e01b8152600401808273ffffffffffffffffffffffffffffffffffffffff16815260200191505060206040518083038186803b1580156146df57600080fd5b505afa1580156146f3573d6000803e3d6000fd5b505050506040513d602081101561470957600080fd5b810190808051906020019092919050505090505b92915050565b6000811415614731576147c0565b61473a8361570a565b1561478b578173ffffffffffffffffffffffffffffffffffffffff166108fc829081150290604051600060405180830381858888f19350505050158015614785573d6000803e3d6000fd5b506147bf565b6147be82826147998661630e565b73ffffffffffffffffffffffffffffffffffffffff166163189092919063ffffffff16565b5b5b505050565b6000600860008373ffffffffffffffffffffffffffffffffffffffff1673ffffffffffffffffffffffffffffffffffffffff16815260200190815260200160002054905061483b81614836308573ffffffffffffffffffffffffffffffffffffffff1661464190919063ffffffff16565b6163ba565b5050565b600061484d6005548361646d565b9050919050565b60008061486083614ee5565b60008061486f600160026150df565b91509150600080600061488285856164a8565b925092509250818503945080840393506148a0600160028787615897565b614903838360076000815481106148b357fe5b9060005260206000200160009054906101000a900473ffffffffffffffffffffffffffffffffffffffff1673ffffffffffffffffffffffffffffffffffffffff166147239092919063ffffffff16565b6149668382600760018154811061491657fe5b9060005260206000200160009054906101000a900473ffffffffffffffffffffffffffffffffffffffff1673ffffffffffffffffffffffffffffffffffffffff166147239092919063ffffffff16565b8484965096505050505050915091565b61497e617303565b6000600860008460008151811061499157fe5b602002602001015173ffffffffffffffffffffffffffffffffffffffff1673ffffffffffffffffffffffffffffffffffffffff168152602001908152602001600020549050600060086000856001815181106149e957fe5b602002602001015173ffffffffffffffffffffffffffffffffffffffff1673ffffffffffffffffffffffffffffffffffffffff168152602001908152602001600020549050600080614a3b84846150df565b91509150600080614a4c84846164a8565b9250925050604051806040016040528083860381526020018285038152509650505050505050919050565b606080600267ffffffffffffffff81118015614a9257600080fd5b50604051908082528060200260200182016040528015614ac15781602001602082028036833780820191505090505b509050614ae08484600060028110614ad557fe5b60200201518761661a565b81600081518110614aed57fe5b602002602001018181525050614b158484600160028110614b0a57fe5b60200201518761661a565b81600181518110614b2257fe5b602002602001018181525050809150509392505050565b600080614b45836167c5565b90506000614b5284614cc0565b90506000614b5f85614cde565b90506000614b6b6167d3565b9050600084820390506000811415614b8a578695505050505050614cbb565b600080614b956126ff565b9150915061025883101580614baa5750600087145b15614be957614bc881836dffffffffffffffffffffffffffff6167e2565b8093508192505050614bdb84828461683a565b975050505050505050614cbb565b6000614bfe8287615f0090919063ffffffff16565b90506000614c158489615f0090919063ffffffff16565b90506000614c54614c2f8785615f0090919063ffffffff16565b614c46886102580385615f0090919063ffffffff16565b6157b590919063ffffffff16565b90506000614c7f610258614c71888c615f0090919063ffffffff16565b615f0090919063ffffffff16565b9050614c9a82826dffffffffffffffffffffffffffff6167e2565b8092508193505050614cad88838361683a565b9b5050505050505050505050505b919050565b60006dffffffffffffffffffffffffffff607083901c169050919050565b60006dffffffffffffffffffffffffffff82169050919050565b6000614d02617303565b6000600b600088600081518110614d1557fe5b602002602001015173ffffffffffffffffffffffffffffffffffffffff1673ffffffffffffffffffffffffffffffffffffffff1681526020019081526020016000205490506000600b600089600181518110614d6d57fe5b602002602001015173ffffffffffffffffffffffffffffffffffffffff1673ffffffffffffffffffffffffffffffffffffffff1681526020019081526020016000205490506000614e1382614e058a600181518110614dc857fe5b6020026020010151614df7878d600081518110614de157fe5b6020026020010151615f0090919063ffffffff16565b6157b590919063ffffffff16565b615f0090919063ffffffff16565b90506000614e7083614e628a600160028110614e2b57fe5b6020020151614e54888d600060028110614e4157fe5b6020020151615f0090919063ffffffff16565b6157b590919063ffffffff16565b615f0090919063ffffffff16565b9050614e9781614e89848a615f0090919063ffffffff16565b615f8690919063ffffffff16565b60405180604001604052808b600081518110614eaf57fe5b602002602001015181526020018b600181518110614ec957fe5b6020026020010151815250955095505050505094509492505050565b60006007600081548110614ef557fe5b9060005260206000200160009054906101000a900473ffffffffffffffffffffffffffffffffffffffff16905060006007600181548110614f3257fe5b9060005260206000200160009054906101000a900473ffffffffffffffffffffffffffffffffffffffff1690506000614f808373ffffffffffffffffffffffffffffffffffffffff1661570a565b614f8b576000614f8d565b835b614fb6308573ffffffffffffffffffffffffffffffffffffffff1661464190919063ffffffff16565b0390506000614fda8373ffffffffffffffffffffffffffffffffffffffff1661570a565b614fe5576000614fe7565b845b615010308573ffffffffffffffffffffffffffffffffffffffff1661464190919063ffffffff16565b039050615021600160028484615897565b5050505050565b6000600260009054906101000a900473ffffffffffffffffffffffffffffffffffffffff1673ffffffffffffffffffffffffffffffffffffffff1663bb34534c836040518263ffffffff1660e01b81526004018082815260200191505060206040518083038186803b15801561509d57600080fd5b505afa1580156150b1573d6000803e3d6000fd5b505050506040513d60208110156150c757600080fd5b81019080805190602001909291905050509050919050565b6000806001841480156150f25750600283145b8061510957506002841480156151085750600183145b5b61517b576040517f08c379a00000000000000000000000000000000000000000000000000000000081526004018080602001828103825260148152602001807f4552525f494e56414c49445f524553455256455300000000000000000000000081525060200191505060405180910390fd5b6151886005548585616894565b915091509250929050565b61519b611dd3565b1561520e576040517f08c379a000000000000000000000000000000000000000000000000000000000815260040180806020018281038252600a8152602001807f4552525f4143544956450000000000000000000000000000000000000000000081525060200191505060405180910390fd5b565b600073ffffffffffffffffffffffffffffffffffffffff168173ffffffffffffffffffffffffffffffffffffffff161415801561527957503073ffffffffffffffffffffffffffffffffffffffff168173ffffffffffffffffffffffffffffffffffffffff1614155b6152eb576040517f08c379a000000000000000000000000000000000000000000000000000000000815260040180806020018281038252601c8152602001807f4552525f494e56414c49445f45585445524e414c5f414444524553530000000081525060200191505060405180910390fd5b50565b6002620f424063ffffffff168161530157fe5b0463ffffffff168163ffffffff1614615382576040517f08c379a000000000000000000000000000000000000000000000000000000000815260040180806020018281038252601a8152602001807f4552525f494e56414c49445f524553455256455f57454947485400000000000081525060200191505060405180910390fd5b50565b61538d611dd3565b6153ff576040517f08c379a000000000000000000000000000000000000000000000000000000000815260040180806020018281038252600c8152602001807f4552525f494e414354495645000000000000000000000000000000000000000081525060200191505060405180910390fd5b565b600061540c836168b7565b80156154185750600082115b61548a576040517f08c379a000000000000000000000000000000000000000000000000000000000815260040180806020018281038252600f8152602001807f4552525f5a45524f5f414d4f554e54000000000000000000000000000000000081525060200191505060405180910390fd5b6000600860008660008151811061549d57fe5b602002602001015173ffffffffffffffffffffffffffffffffffffffff1673ffffffffffffffffffffffffffffffffffffffff168152602001908152602001600020549050600060086000876001815181106154f557fe5b602002602001015173ffffffffffffffffffffffffffffffffffffffff1673ffffffffffffffffffffffffffffffffffffffff16815260200190815260200160002054905060028214801561554a5750600181145b1561567a5760008660008151811061555e57fe5b602002602001015190508660018151811061557557fe5b60200260200101518760008151811061558a57fe5b602002602001019073ffffffffffffffffffffffffffffffffffffffff16908173ffffffffffffffffffffffffffffffffffffffff168152505080876001815181106155d257fe5b602002602001019073ffffffffffffffffffffffffffffffffffffffff16908173ffffffffffffffffffffffffffffffffffffffff168152505060008660008151811061561b57fe5b602002602001015190508660018151811061563257fe5b60200260200101518760008151811061564757fe5b602002602001018181525050808760018151811061566157fe5b6020026020010181815250506001945050505050615703565b60018214801561568a5750600281145b6156fc576040517f08c379a00000000000000000000000000000000000000000000000000000000081526004018080602001828103825260138152602001807f4552525f494e56414c49445f524553455256450000000000000000000000000081525060200191505060405180910390fd5b6000925050505b9392505050565b600073eeeeeeeeeeeeeeeeeeeeeeeeeeeeeeeeeeeeeeee73ffffffffffffffffffffffffffffffffffffffff168273ffffffffffffffffffffffffffffffffffffffff16149050919050565b6000806000905060008351905060005b8181101561579b5761578a85828151811061577d57fe5b60200260200101516168f6565b830192508080600101915050615766565b5060016157a88383616930565b03600a0a92505050919050565b600080828401905083811015615833576040517f08c379a000000000000000000000000000000000000000000000000000000000815260040180806020018281038252601b8152602001807f536166654d6174683a206164646974696f6e206f766572666c6f77000000000081525060200191505060405180910390fd5b8091505092915050565b600081148061585157506158508461570a565b5b1561585b57615891565b61589083838361586a8861630e565b73ffffffffffffffffffffffffffffffffffffffff16616950909392919063ffffffff16565b5b50505050565b6fffffffffffffffffffffffffffffffff82111580156158c757506fffffffffffffffffffffffffffffffff8111155b615939576040517f08c379a000000000000000000000000000000000000000000000000000000000815260040180806020018281038252601c8152602001807f4552525f524553455256455f42414c414e43455f4f564552464c4f570000000081525060200191505060405180910390fd5b61594582858386616a11565b60058190555050505050565b60008084116159c8576040517f08c379a00000000000000000000000000000000000000000000000000000000081526004018080602001828103825260128152602001807f4552525f494e56414c49445f535550504c59000000000000000000000000000081525060200191505060405180910390fd5b60008311615a3e576040517f08c379a000000000000000000000000000000000000000000000000000000000815260040180806020018281038252601b8152602001807f4552525f494e56414c49445f524553455256455f42414c414e4345000000000081525060200191505060405180910390fd5b6000821415615a505760009050615a6f565b82615a648584615f0090919063ffffffff16565b81615a6b57fe5b0490505b9392505050565b6000808411615aed576040517f08c379a00000000000000000000000000000000000000000000000000000000081526004018080602001828103825260128152602001807f4552525f494e56414c49445f535550504c59000000000000000000000000000081525060200191505060405180910390fd5b60008311615b63576040517f08c379a000000000000000000000000000000000000000000000000000000000815260040180806020018281038252601b8152602001807f4552525f494e56414c49445f524553455256455f42414c414e4345000000000081525060200191505060405180910390fd5b6000821415615b755760009050615b9a565b6001846001615b8d8686615f0090919063ffffffff16565b0381615b9557fe5b040190505b9392505050565b6000806060615bae611eab565b905080600081518110615bbd57fe5b602002602001015173ffffffffffffffffffffffffffffffffffffffff168873ffffffffffffffffffffffffffffffffffffffff16148015615c3e575080600181518110615c0757fe5b602002602001015173ffffffffffffffffffffffffffffffffffffffff168773ffffffffffffffffffffffffffffffffffffffff16145b80615cd3575080600181518110615c5157fe5b602002602001015173ffffffffffffffffffffffffffffffffffffffff168873ffffffffffffffffffffffffffffffffffffffff16148015615cd2575080600081518110615c9b57fe5b602002602001015173ffffffffffffffffffffffffffffffffffffffff168773ffffffffffffffffffffffffffffffffffffffff16145b5b615d45576040517f08c379a00000000000000000000000000000000000000000000000000000000081526004018080602001828103825260148152602001807f4552525f494e56414c49445f524553455256455300000000000000000000000081525060200191505060405180910390fd5b6000600b60008a73ffffffffffffffffffffffffffffffffffffffff1673ffffffffffffffffffffffffffffffffffffffff1681526020019081526020016000205490506000600b60008a73ffffffffffffffffffffffffffffffffffffffff1673ffffffffffffffffffffffffffffffffffffffff1681526020019081526020016000205490506000615df482615de6858a615f0090919063ffffffff16565b615f8690919063ffffffff16565b90506000615e0182616a32565b9050808203819650965050505050509550959350505050565b600082821115615e92576040517f08c379a000000000000000000000000000000000000000000000000000000000815260040180806020018281038252601e8152602001807f536166654d6174683a207375627472616374696f6e206f766572666c6f77000081525060200191505060405180910390fd5b818303905092915050565b6000615ef9600960189054906101000a900463ffffffff16620f42400363ffffffff16615eeb600960189054906101000a900463ffffffff1663ffffffff1685615f0090919063ffffffff16565b615f8690919063ffffffff16565b9050919050565b600080831415615f135760009050615f80565b6000828402905082848281615f2457fe5b0414615f7b576040517f08c379a00000000000000000000000000000000000000000000000000000000081526004018080602001828103825260218152602001806173b66021913960400191505060405180910390fd5b809150505b92915050565b6000808211615ffd576040517f08c379a000000000000000000000000000000000000000000000000000000000815260040180806020018281038252601a8152602001807f536166654d6174683a206469766973696f6e206279207a65726f00000000000081525060200191505060405180910390fd5b81838161600657fe5b04905092915050565b6000616019616a78565b6000600860008873ffffffffffffffffffffffffffffffffffffffff1673ffffffffffffffffffffffffffffffffffffffff1681526020019081526020016000205490506000600860008873ffffffffffffffffffffffffffffffffffffffff1673ffffffffffffffffffffffffffffffffffffffff1681526020019081526020016000205490506000806160ae84846150df565b915091506000806160c28c8c86868e615ba1565b91509150600082141561613d576040517f08c379a00000000000000000000000000000000000000000000000000000000081526004018080602001828103825260168152602001807f4552525f5a45524f5f5441524745545f414d4f554e540000000000000000000081525060200191505060405180910390fd5b82821061614657fe5b6000616171308e73ffffffffffffffffffffffffffffffffffffffff1661464190919063ffffffff16565b90506161928d73ffffffffffffffffffffffffffffffffffffffff1661570a565b15616211578a341461620c576040517f08c379a00000000000000000000000000000000000000000000000000000000081526004018080602001828103825260178152602001807f4552525f4554485f414d4f554e545f4d49534d4154434800000000000000000081525060200191505060405180910390fd5b6162a6565b60003414801561623357508a6162308683615e1a90919063ffffffff16565b10155b6162a5576040517f08c379a00000000000000000000000000000000000000000000000000000000081526004018080602001828103825260128152602001807f4552525f494e56414c49445f414d4f554e54000000000000000000000000000081525060200191505060405180910390fd5b5b6162b4878783868803615897565b6162df89848e73ffffffffffffffffffffffffffffffffffffffff166147239092919063ffffffff16565b6162ed8d8d8c8e8787616a9f565b6162fb8d8d83868803616b33565b8297505050505050505095945050505050565b6000819050919050565b6163b58363a9059cbb60e01b8484604051602401808373ffffffffffffffffffffffffffffffffffffffff16815260200182815260200192505050604051602081830303815290604052907bffffffffffffffffffffffffffffffffffffffffffffffffffffffff19166020820180517bffffffffffffffffffffffffffffffffffffffffffffffffffffffff8381831617835250505050616d2e565b505050565b6fffffffffffffffffffffffffffffffff811115616440576040517f08c379a000000000000000000000000000000000000000000000000000000000815260040180806020018281038252601c8152602001807f4552525f524553455256455f42414c414e43455f4f564552464c4f570000000081525060200191505060405180910390fd5b60006164516005548460030361646d565b905061646282848386600303616a11565b600581905550505050565b6000600182148061647e5750600282145b61648457fe5b6fffffffffffffffffffffffffffffffff6080600184030284901c16905092915050565b6000806000806164b9600654616e1d565b905060006164c8868802616e1d565b90508082106164e35760008060009450945094505050616613565b60008061650f7f4e6574776f726b53657474696e67730000000000000000000000000000000000615028565b73ffffffffffffffffffffffffffffffffffffffff1663e33b5f5f6040518163ffffffff1660e01b8152600401604080518083038186803b15801561655357600080fd5b505afa158015616567573d6000803e3d6000fd5b505050506040513d604081101561657d57600080fd5b8101908080519060200190929190805190602001909291905050509150915060008163ffffffff168585030290506000620f424063ffffffff1685029050836165e1826165d3858f615f0090919063ffffffff16565b615f8690919063ffffffff16565b616606836165f8868f615f0090919063ffffffff16565b615f8690919063ffffffff16565b9850985098505050505050505b9250925092565b6000808411616691576040517f08c379a00000000000000000000000000000000000000000000000000000000081526004018080602001828103825260128152602001807f4552525f494e56414c49445f535550504c59000000000000000000000000000081525060200191505060405180910390fd5b60008311616707576040517f08c379a000000000000000000000000000000000000000000000000000000000815260040180806020018281038252601b8152602001807f4552525f494e56414c49445f524553455256455f42414c414e4345000000000081525060200191505060405180910390fd5b8382111561677d576040517f08c379a00000000000000000000000000000000000000000000000000000000081526004018080602001828103825260128152602001807f4552525f494e56414c49445f414d4f554e54000000000000000000000000000081525060200191505060405180910390fd5b600082141561678f57600090506167be565b8382141561679f578290506167be565b836167b38484615f0090919063ffffffff16565b816167ba57fe5b0490505b9392505050565b600060e082901c9050919050565b60006167dd616e3e565b905090565b600080600080868691509150848211806167fb57508481115b156168145761680b828287616e48565b80925081935050505b808214616828578181935093505050616832565b6001809350935050505b935093915050565b600063ffffffff841115801561685e57506dffffffffffffffffffffffffffff8311155b801561687857506dffffffffffffffffffffffffffff8211155b61687e57fe5b81607084901b60e086901b171790509392505050565b6000806168a1858561646d565b6168ab868561646d565b91509150935093915050565b600080826000815181106168c757fe5b602002602001015111806168ef57506000826001815181106168e557fe5b6020026020010151115b9050919050565b6000806000905060008390505b6000811115616926578180600101925050600a818161691e57fe5b049050616903565b5080915050919050565b6000816002838161693d57fe5b0484018161694757fe5b04905092915050565b616a0b846323b872dd60e01b858585604051602401808473ffffffffffffffffffffffffffffffffffffffff1681526020018373ffffffffffffffffffffffffffffffffffffffff1681526020018281526020019350505050604051602081830303815290604052907bffffffffffffffffffffffffffffffffffffffffffffffffffffffff19166020820180517bffffffffffffffffffffffffffffffffffffffffffffffffffffffff8381831617835250505050616d2e565b50505050565b6000616a1d8383616e89565b616a278686616e89565b179050949350505050565b6000620f424063ffffffff16616a69600960189054906101000a900463ffffffff1663ffffffff1684615f0090919063ffffffff16565b81616a7057fe5b049050919050565b6000600a5490506000616a8a82614b39565b9050808214616a9b5780600a819055505b5050565b8373ffffffffffffffffffffffffffffffffffffffff168573ffffffffffffffffffffffffffffffffffffffff168773ffffffffffffffffffffffffffffffffffffffff167f276856b36cbc45526a0ba64f44611557a2a8b68662c5388e9fe6d72e86e1c8cb86868660405180848152602001838152602001828152602001935050505060405180910390a4505050505050565b6000600960009054906101000a900473ffffffffffffffffffffffffffffffffffffffff16905060008173ffffffffffffffffffffffffffffffffffffffff166318160ddd6040518163ffffffff1660e01b815260040160206040518083038186803b158015616ba257600080fd5b505afa158015616bb6573d6000803e3d6000fd5b505050506040513d6020811015616bcc57600080fd5b810190808051906020019092919050505090508473ffffffffffffffffffffffffffffffffffffffff168673ffffffffffffffffffffffffffffffffffffffff167f77f29993cf2c084e726f7e802da0719d6a0ade3e204badc7a3ffd57ecb768c248587604051808381526020018281526020019250505060405180910390a38573ffffffffffffffffffffffffffffffffffffffff168273ffffffffffffffffffffffffffffffffffffffff167f77f29993cf2c084e726f7e802da0719d6a0ade3e204badc7a3ffd57ecb768c248684604051808381526020018281526020019250505060405180910390a38473ffffffffffffffffffffffffffffffffffffffff168273ffffffffffffffffffffffffffffffffffffffff167f77f29993cf2c084e726f7e802da0719d6a0ade3e204badc7a3ffd57ecb768c248584604051808381526020018281526020019250505060405180910390a3505050505050565b6060616d90826040518060400160405280602081526020017f5361666545524332303a206c6f772d6c6576656c2063616c6c206661696c65648152508573ffffffffffffffffffffffffffffffffffffffff16616ece9092919063ffffffff16565b9050600081511115616e1857808060200190516020811015616db157600080fd5b8101908080519060200190929190505050616e17576040517f08c379a000000000000000000000000000000000000000000000000000000000815260040180806020018281038252602a8152602001806173d7602a913960400191505060405180910390fd5b5b505050565b6000808211616e2d576000616e37565b616e3682616ee6565b5b9050919050565b6000600c54905090565b600080838511616e6657616e5d858585616f46565b91509150616e81565b600080616e74868887616f46565b9150915080829350935050505b935093915050565b60006fffffffffffffffffffffffffffffffff8311158015616eb657506001821480616eb55750600282145b5b616ebc57fe5b6080600183030283901b905092915050565b6060616edd8484600085617047565b90509392505050565b600080600160028481616ef557fe5b0401905060006002828581616f0657fe5b04830181616f1057fe5b0490505b80821115616f3c578091506002828581616f2a57fe5b04830181616f3457fe5b049050616f14565b8192505050919050565b6000806000837fffffffffffffffffffffffffffffffffffffffffffffffffffffffffffffffff81616f7457fe5b04905080861115616fac57600060018083018881616f8e57fe5b04019050808781616f9b57fe5b049650808681616fa757fe5b049550505b848614617023576000848702905060008688019050878110616fed576000616fd483836171f0565b905060008188039050818196509650505050505061703f565b600288880381616ff957fe5b048703821015617012576000869450945050505061703f565b60018087039450945050505061703f565b6002848161702d57fe5b046002858161703857fe5b0492509250505b935093915050565b6060824710156170a2576040517f08c379a00000000000000000000000000000000000000000000000000000000081526004018080602001828103825260268152602001806173906026913960400191505060405180910390fd5b6170ab85617224565b61711d576040517f08c379a000000000000000000000000000000000000000000000000000000000815260040180806020018281038252601d8152602001807f416464726573733a2063616c6c20746f206e6f6e2d636f6e747261637400000081525060200191505060405180910390fd5b600060608673ffffffffffffffffffffffffffffffffffffffff1685876040518082805190602001908083835b6020831061716d578051825260208201915060208101905060208303925061714a565b6001836020036101000a03801982511681845116808217855250505050505090500191505060006040518083038185875af1925050503d80600081146171cf576040519150601f19603f3d011682016040523d82523d6000602084013e6171d4565b606091505b50915091506171e4828286617237565b92505050949350505050565b6000600282816171fc57fe5b04820382848161720857fe5b068161721057fe5b0482848161721a57fe5b0401905092915050565b600080823b905060008111915050919050565b60608315617247578290506172fc565b60008351111561725a5782518084602001fd5b816040517f08c379a00000000000000000000000000000000000000000000000000000000081526004018080602001828103825283818151815260200191508051906020019080838360005b838110156172c15780820151818401526020810190506172a6565b50505050905090810190601f1680156172ee5780820380516001836020036101000a031916815260200191505b509250505060405180910390fd5b9392505050565b6040518060400160405280600290602082028036833780820191505090505090565b828054828255906000526020600020908101928215617361579160200282015b82811115617360578251825591602001919060010190617345565b5b50905061736e9190617372565b5090565b5b8082111561738b576000816000905550600101617373565b509056fe416464726573733a20696e73756666696369656e742062616c616e636520666f722063616c6c536166654d6174683a206d756c7469706c69636174696f6e206f766572666c6f775361666545524332303a204552433230206f7065726174696f6e20646964206e6f742073756363656564a2646970667358221220bf07f58c2722a3c30f4452aa0a181600ff58fcaa4e359548b60cd5824d66f29164736f6c634300060c0033",
  "immutableReferences": {},
  "source": "// SPDX-License-Identifier: SEE LICENSE IN LICENSE\npragma solidity 0.6.12;\n\nimport \"../converter/types/fixed-rate-pool/FixedRatePoolConverter.sol\";\nimport \"./TestTime.sol\";\n\ncontract TestFixedRatePoolConverter is FixedRatePoolConverter, TestTime {\n    uint256[] public reserveAmountsRemoved;\n\n    constructor(\n        IDSToken _token,\n        IContractRegistry _registry,\n        uint32 _maxConversionFee\n    ) public FixedRatePoolConverter(_token, _registry, _maxConversionFee) {}\n\n    function removeLiquidityTest(\n        uint256 _amount,\n        IReserveToken[] memory _reserveTokens,\n        uint256[] memory _reserveMinReturnAmounts\n    ) public {\n        reserveAmountsRemoved = removeLiquidity(_amount, _reserveTokens, _reserveMinReturnAmounts);\n    }\n\n    function time() internal view override(Time, TestTime) returns (uint256) {\n        return TestTime.time();\n    }\n}\n",
  "sourcePath": "D:\\Work Space\\bancor_project\\core\\contracts\\helpers\\TestFixedRatePoolConverter.sol",
  "compiler": {
    "name": "solc",
    "version": "0.6.12+commit.27d51765.Emscripten.clang"
  },
  "schemaVersion": "3.4.3",
  "updatedAt": "2021-08-23T03:19:29.876Z",
  "devdoc": {
    "kind": "dev",
    "methods": {
      "acceptAnchorOwnership()": {
        "details": "accepts ownership of the anchor after an ownership transfer most converters are also activated as soon as they accept the anchor ownership can only be called by the contract owner note that prior to version 28, you should use 'acceptTokenOwnership' instead"
      },
      "acceptOwnership()": {
        "details": "used by a new owner to accept an ownership transfer"
      },
      "acceptTokenOwnership()": {
        "details": "deprecated, backward compatibility"
      },
      "addLiquidity(address[],uint256[],uint256)": {
        "details": "increases the pool's liquidity and mints new shares in the pool to the caller",
        "params": {
          "_minReturn": "token minimum return-amount",
          "_reserveAmounts": "amount of each reserve token",
          "_reserveTokens": "address of each reserve token"
        },
        "returns": {
          "_0": "amount of pool tokens issued"
        }
      },
      "addLiquidityCost(address[],uint256,uint256)": {
        "details": "given the amount of one of the reserve tokens to add liquidity of, returns the required amount of each one of the other reserve tokens since an empty pool can be funded with any list of non-zero input amounts, this function assumes that the pool is not empty (has already been funded)",
        "params": {
          "_reserveAmount": "amount of the relevant reserve token",
          "_reserveTokenIndex": "index of the relevant reserve token",
          "_reserveTokens": "address of each reserve token"
        },
        "returns": {
          "_0": "the required amount of each one of the reserve tokens"
        }
      },
      "addLiquidityReturn(address[],uint256[])": {
        "details": "returns the amount of pool tokens entitled for given amounts of reserve tokens since an empty pool can be funded with any list of non-zero input amounts, this function assumes that the pool is not empty (has already been funded)",
        "params": {
          "_reserveAmounts": "amount of each reserve token",
          "_reserveTokens": "address of each reserve token"
        },
        "returns": {
          "_0": "the amount of pool tokens entitled for the given amounts of reserve tokens"
        }
      },
      "addReserve(address,uint32)": {
        "details": "defines a new reserve token for the converter can only be called by the owner while the converter is inactive",
        "params": {
          "_token": "address of the reserve token",
          "_weight": "reserve weight, represented in ppm, 1-1000000"
        }
      },
      "connectorTokenCount()": {
        "details": "deprecated, backward compatibility"
      },
      "connectorTokens(uint256)": {
        "details": "deprecated, backward compatibility"
      },
      "connectors(address)": {
        "details": "deprecated, backward compatibility"
      },
      "convert(address,address,uint256,address,address)": {
        "details": "converts a specific amount of source tokens to target tokens can only be called by the bancor network contract",
        "params": {
          "_amount": "amount of tokens to convert (in units of the source token)",
          "_beneficiary": "wallet to receive the conversion result",
          "_sourceToken": "source reserve token",
          "_targetToken": "target reserve token",
          "_trader": "address of the caller who executed the conversion"
        },
        "returns": {
          "_0": "amount of tokens received (in units of the target token)"
        }
      },
      "converterType()": {
        "details": "returns the converter type",
        "returns": {
          "_0": "see the converter types in the the main contract doc"
        }
      },
      "getConnectorBalance(address)": {
        "details": "deprecated, backward compatibility"
      },
      "getReturn(address,address,uint256)": {
        "details": "deprecated, backward compatibility"
      },
      "isActive()": {
        "details": "returns true if the converter is active, false otherwise",
        "returns": {
          "_0": "true if the converter is active, false otherwise"
        }
      },
      "isV28OrHigher()": {
        "details": "checks whether or not the converter version is 28 or higher",
        "returns": {
          "_0": "true, since the converter version is 28 or higher"
        }
      },
      "onUpgradeComplete()": {
        "details": "executed by the upgrader at the end of the upgrade process to handle custom pool logic"
      },
      "processNetworkFees()": {
        "details": "calculates the accumulated network fee and transfers it to the network fee wallet"
      },
      "rate()": {
        "details": "returns the worth of the 1st reserve token in units of the 2nd reserve token",
        "returns": {
          "_0": "the numerator of the rate between the 1st reserve token and the 2nd reserve token",
          "_1": "the denominator of the rate between the 1st reserve token and the 2nd reserve token"
        }
      },
      "recentAverageRate(address)": {
        "details": "returns the recent average rate of 1 `_token` in the other reserve token units",
        "params": {
          "_token": "token to get the rate for"
        },
        "returns": {
          "_0": "recent average rate between the reserves (numerator)",
          "_1": "recent average rate between the reserves (denominator)"
        }
      },
      "removeLiquidity(uint256,address[],uint256[])": {
        "details": "decreases the pool's liquidity and burns the caller's shares in the pool",
        "params": {
          "_amount": "token amount",
          "_reserveMinReturnAmounts": "minimum return-amount of each reserve token",
          "_reserveTokens": "address of each reserve token"
        },
        "returns": {
          "_0": "the amount of each reserve token granted for the given amount of pool tokens"
        }
      },
      "removeLiquidityReturn(uint256,address[])": {
        "details": "returns the amount of each reserve token entitled for a given amount of pool tokens",
        "params": {
          "_amount": "amount of pool tokens",
          "_reserveTokens": "address of each reserve token"
        },
        "returns": {
          "_0": "the amount of each reserve token entitled for the given amount of pool tokens"
        }
      },
      "reserveBalance(address)": {
        "details": "returns the balance of a given reserve token",
        "params": {
          "_reserveToken": "reserve token contract address"
        },
        "returns": {
          "_0": "the balance of the given reserve token"
        }
      },
      "reserveBalances()": {
        "details": "returns the balances of both reserve tokens",
        "returns": {
          "_0": "the balances of both reserve tokens"
        }
      },
      "reserveTokenCount()": {
        "details": "returns the number of reserve tokens note that prior to version 17, you should use 'connectorTokenCount' instead",
        "returns": {
          "_0": "number of reserve tokens"
        }
      },
      "reserveTokens()": {
        "details": "returns the array of reserve tokens",
        "returns": {
          "_0": "array of reserve tokens"
        }
      },
      "reserveWeight(address)": {
        "details": "returns the reserve's weight added in version 28",
        "params": {
          "_reserveToken": "reserve token contract address"
        },
        "returns": {
          "_0": "reserve weight"
        }
      },
      "restoreRegistry()": {
        "details": "restores the previous contract-registry"
      },
      "restrictRegistryUpdate(bool)": {
        "details": "restricts the permission to update the contract-registry",
        "params": {
          "_onlyOwnerCanUpdateRegistry": "indicates whether or not permission is restricted to owner only"
        }
      },
      "setConversionFee(uint32)": {
        "details": "updates the current conversion fee can only be called by the contract owner",
        "params": {
          "_conversionFee": "new conversion fee, represented in ppm"
        }
      },
      "setRate(uint256,uint256)": {
        "details": "sets the worth of the 1st reserve token in units of the 2nd reserve token can be executed only by the owner of the converter",
        "params": {
          "rateD": "the denominator of the rate between the 1st reserve token and the 2nd reserve token",
          "rateN": "the numerator of the rate between the 1st reserve token and the 2nd reserve token"
        }
      },
      "sourceAmountAndFee(address,address,uint256)": {
        "details": "returns the required amount and expected fee for converting one reserve to another",
        "params": {
          "_amount": "amount of target reserve tokens desired",
          "_sourceToken": "address of the source reserve token contract",
          "_targetToken": "address of the target reserve token contract"
        },
        "returns": {
          "_0": "required amount in units of the source reserve token",
          "_1": "expected fee in units of the target reserve token"
        }
      },
      "syncReserveBalances()": {
        "details": "syncs all stored reserve balances"
      },
      "targetAmountAndFee(address,address,uint256)": {
        "details": "returns the expected amount and expected fee for converting one reserve to another",
        "params": {
          "_amount": "amount of source reserve tokens converted",
          "_sourceToken": "address of the source reserve token contract",
          "_targetToken": "address of the target reserve token contract"
        },
        "returns": {
          "_0": "expected amount in units of the target reserve token",
          "_1": "expected fee in units of the target reserve token"
        }
      },
      "token()": {
        "details": "deprecated since version 28, backward compatibility - use only for earlier versions"
      },
      "transferAnchorOwnership(address)": {
        "details": "transfers the anchor ownership the new owner needs to accept the transfer can only be called by the converter upgrader while the upgrader is the owner note that prior to version 28, you should use 'transferAnchorOwnership' instead",
        "params": {
          "_newOwner": "new token owner"
        }
      },
      "transferOwnership(address)": {
        "details": "allows transferring the contract ownership the new owner still needs to accept the transfer can only be called by the contract owner",
        "params": {
          "_newOwner": "new contract owner"
        }
      },
      "transferReservesOnUpgrade(address)": {
        "details": "transfers reserve balances to a new converter during an upgrade can only be called by the converter upgraded which should be set at its owner",
        "params": {
          "_newConverter": "address of the converter to receive the new amount"
        }
      },
      "transferTokenOwnership(address)": {
        "details": "deprecated, backward compatibility"
      },
      "updateRegistry()": {
        "details": "updates to the new contract-registry"
      },
      "upgrade()": {
        "details": "upgrades the converter to the latest version can only be called by the owner note that the owner needs to call acceptOwnership on the new converter after the upgrade"
      }
    },
    "version": 1
  },
  "userdoc": {
    "kind": "user",
    "methods": {},
    "version": 1
  }
}