{
  "contractName": "TestTransferPositionCallback",
  "abi": [
    {
      "inputs": [
        {
          "internalType": "uint256",
          "name": "newId",
          "type": "uint256"
        },
        {
          "internalType": "address",
          "name": "provider",
          "type": "address"
        },
        {
          "internalType": "bytes",
          "name": "data",
          "type": "bytes"
        }
      ],
      "name": "onTransferPosition",
      "outputs": [],
      "stateMutability": "nonpayable",
      "type": "function"
    },
    {
      "inputs": [],
      "name": "transferEvent",
      "outputs": [
        {
          "internalType": "uint256",
          "name": "",
          "type": "uint256"
        },
        {
          "internalType": "address",
          "name": "",
          "type": "address"
        },
        {
          "internalType": "bytes",
          "name": "",
          "type": "bytes"
        }
      ],
      "stateMutability": "view",
      "type": "function"
    }
  ],
  "bytecode": "0x608060405234801561001057600080fd5b50610421806100206000396000f3fe608060405234801561001057600080fd5b50600436106100365760003560e01c80634265c7511461003b5780635c2ba845146100e2575b600080fd5b610043610185565b604051808481526020018373ffffffffffffffffffffffffffffffffffffffff16815260200180602001828103825283818151815260200191508051906020019080838360005b838110156100a557808201518184015260208101905061008a565b50505050905090810190601f1680156100d25780820380516001836020036101000a031916815260200191505b5094505050505060405180910390f35b610183600480360360608110156100f857600080fd5b8101908080359060200190929190803573ffffffffffffffffffffffffffffffffffffffff1690602001909291908035906020019064010000000081111561013f57600080fd5b82018360208201111561015157600080fd5b8035906020019184600183028401116401000000008311171561017357600080fd5b9091929391929390505050610261565b005b60008060606000800154600060010160009054906101000a900473ffffffffffffffffffffffffffffffffffffffff166000600201808054600181600116156101000203166002900480601f01602080910402602001604051908101604052809291908181526020018280546001816001161561010002031660029004801561024f5780601f106102245761010080835404028352916020019161024f565b820191906000526020600020905b81548152906001019060200180831161023257829003601f168201915b50505050509050925092509250909192565b60405180606001604052808581526020018473ffffffffffffffffffffffffffffffffffffffff16815260200183838080601f016020809104026020016040519081016040528093929190818152602001838380828437600081840152601f19601f82011690508083019250505050505050815250600080820151816000015560208201518160010160006101000a81548173ffffffffffffffffffffffffffffffffffffffff021916908373ffffffffffffffffffffffffffffffffffffffff160217905550604082015181600201908051906020019061034492919061034e565b5090505050505050565b828054600181600116156101000203166002900490600052602060002090601f016020900481019282601f1061038f57805160ff19168380011785556103bd565b828001600101855582156103bd579182015b828111156103bc5782518255916020019190600101906103a1565b5b5090506103ca91906103ce565b5090565b5b808211156103e75760008160009055506001016103cf565b509056fea26469706673582212204ebf0b7a4cd945ee3b89fd6f3be04c2e7e615e477179a27373c204488d28cd7064736f6c634300060c0033",
  "immutableReferences": {},
  "source": "// SPDX-License-Identifier: SEE LICENSE IN LICENSE\npragma solidity 0.6.12;\n\nimport \"../liquidity-protection/interfaces/ITransferPositionCallback.sol\";\n\ncontract TestTransferPositionCallback is ITransferPositionCallback {\n    struct TransferPositionEvent {\n        uint256 newId;\n        address provider;\n        bytes data;\n    }\n\n    TransferPositionEvent private _transferEvent;\n\n    function onTransferPosition(\n        uint256 newId,\n        address provider,\n        bytes calldata data\n    ) external override {\n        _transferEvent = TransferPositionEvent({ newId: newId, provider: provider, data: data });\n    }\n\n    function transferEvent()\n        external\n        view\n        returns (\n            uint256,\n            address,\n            bytes memory\n        )\n    {\n        return (_transferEvent.newId, _transferEvent.provider, _transferEvent.data);\n    }\n}\n",
  "sourcePath": "D:\\Work Space\\bancor_project\\core\\contracts\\helpers\\TestTransferPositionCallback.sol",
  "compiler": {
    "name": "solc",
    "version": "0.6.12+commit.27d51765.Emscripten.clang"
  },
  "schemaVersion": "3.4.3",
  "updatedAt": "2021-08-23T11:45:54.319Z",
  "devdoc": {
    "kind": "dev",
    "methods": {},
    "version": 1
  },
  "userdoc": {
    "kind": "user",
    "methods": {},
    "version": 1
  }
}