{
  "contractName": "TestBancorFormula",
  "abi": [
    {
      "inputs": [
        {
          "internalType": "uint256",
          "name": "_primaryReserveStakedBalance",
          "type": "uint256"
        },
        {
          "internalType": "uint256",
          "name": "_primaryReserveBalance",
          "type": "uint256"
        },
        {
          "internalType": "uint256",
          "name": "_secondaryReserveBalance",
          "type": "uint256"
        },
        {
          "internalType": "uint256",
          "name": "_reserveRateNumerator",
          "type": "uint256"
        },
        {
          "internalType": "uint256",
          "name": "_reserveRateDenominator",
          "type": "uint256"
        }
      ],
      "name": "balancedWeights",
      "outputs": [
        {
          "internalType": "uint32",
          "name": "",
          "type": "uint32"
        },
        {
          "internalType": "uint32",
          "name": "",
          "type": "uint32"
        }
      ],
      "stateMutability": "view",
      "type": "function"
    },
    {
      "inputs": [
        {
          "internalType": "uint256",
          "name": "_sourceReserveBalance",
          "type": "uint256"
        },
        {
          "internalType": "uint32",
          "name": "_sourceReserveWeight",
          "type": "uint32"
        },
        {
          "internalType": "uint256",
          "name": "_targetReserveBalance",
          "type": "uint256"
        },
        {
          "internalType": "uint32",
          "name": "_targetReserveWeight",
          "type": "uint32"
        },
        {
          "internalType": "uint256",
          "name": "_amount",
          "type": "uint256"
        }
      ],
      "name": "calculateCrossConnectorReturn",
      "outputs": [
        {
          "internalType": "uint256",
          "name": "",
          "type": "uint256"
        }
      ],
      "stateMutability": "view",
      "type": "function"
    },
    {
      "inputs": [
        {
          "internalType": "uint256",
          "name": "_sourceReserveBalance",
          "type": "uint256"
        },
        {
          "internalType": "uint32",
          "name": "_sourceReserveWeight",
          "type": "uint32"
        },
        {
          "internalType": "uint256",
          "name": "_targetReserveBalance",
          "type": "uint256"
        },
        {
          "internalType": "uint32",
          "name": "_targetReserveWeight",
          "type": "uint32"
        },
        {
          "internalType": "uint256",
          "name": "_amount",
          "type": "uint256"
        }
      ],
      "name": "calculateCrossReserveReturn",
      "outputs": [
        {
          "internalType": "uint256",
          "name": "",
          "type": "uint256"
        }
      ],
      "stateMutability": "view",
      "type": "function"
    },
    {
      "inputs": [
        {
          "internalType": "uint256",
          "name": "_supply",
          "type": "uint256"
        },
        {
          "internalType": "uint256",
          "name": "_reserveBalance",
          "type": "uint256"
        },
        {
          "internalType": "uint32",
          "name": "_reserveRatio",
          "type": "uint32"
        },
        {
          "internalType": "uint256",
          "name": "_amount",
          "type": "uint256"
        }
      ],
      "name": "calculateFundCost",
      "outputs": [
        {
          "internalType": "uint256",
          "name": "",
          "type": "uint256"
        }
      ],
      "stateMutability": "view",
      "type": "function"
    },
    {
      "inputs": [
        {
          "internalType": "uint256",
          "name": "_supply",
          "type": "uint256"
        },
        {
          "internalType": "uint256",
          "name": "_reserveBalance",
          "type": "uint256"
        },
        {
          "internalType": "uint32",
          "name": "_reserveRatio",
          "type": "uint32"
        },
        {
          "internalType": "uint256",
          "name": "_amount",
          "type": "uint256"
        }
      ],
      "name": "calculateLiquidateReturn",
      "outputs": [
        {
          "internalType": "uint256",
          "name": "",
          "type": "uint256"
        }
      ],
      "stateMutability": "view",
      "type": "function"
    },
    {
      "inputs": [
        {
          "internalType": "uint256",
          "name": "_supply",
          "type": "uint256"
        },
        {
          "internalType": "uint256",
          "name": "_reserveBalance",
          "type": "uint256"
        },
        {
          "internalType": "uint32",
          "name": "_reserveWeight",
          "type": "uint32"
        },
        {
          "internalType": "uint256",
          "name": "_amount",
          "type": "uint256"
        }
      ],
      "name": "calculatePurchaseReturn",
      "outputs": [
        {
          "internalType": "uint256",
          "name": "",
          "type": "uint256"
        }
      ],
      "stateMutability": "view",
      "type": "function"
    },
    {
      "inputs": [
        {
          "internalType": "uint256",
          "name": "_supply",
          "type": "uint256"
        },
        {
          "internalType": "uint256",
          "name": "_reserveBalance",
          "type": "uint256"
        },
        {
          "internalType": "uint32",
          "name": "_reserveWeight",
          "type": "uint32"
        },
        {
          "internalType": "uint256",
          "name": "_amount",
          "type": "uint256"
        }
      ],
      "name": "calculateSaleReturn",
      "outputs": [
        {
          "internalType": "uint256",
          "name": "",
          "type": "uint256"
        }
      ],
      "stateMutability": "view",
      "type": "function"
    },
    {
      "inputs": [
        {
          "internalType": "uint256",
          "name": "_sourceReserveBalance",
          "type": "uint256"
        },
        {
          "internalType": "uint32",
          "name": "_sourceReserveWeight",
          "type": "uint32"
        },
        {
          "internalType": "uint256",
          "name": "_targetReserveBalance",
          "type": "uint256"
        },
        {
          "internalType": "uint32",
          "name": "_targetReserveWeight",
          "type": "uint32"
        },
        {
          "internalType": "uint256",
          "name": "_amount",
          "type": "uint256"
        }
      ],
      "name": "crossReserveRate",
      "outputs": [
        {
          "internalType": "uint256",
          "name": "",
          "type": "uint256"
        }
      ],
      "stateMutability": "view",
      "type": "function"
    },
    {
      "inputs": [
        {
          "internalType": "uint256",
          "name": "_sourceReserveBalance",
          "type": "uint256"
        },
        {
          "internalType": "uint32",
          "name": "_sourceReserveWeight",
          "type": "uint32"
        },
        {
          "internalType": "uint256",
          "name": "_targetReserveBalance",
          "type": "uint256"
        },
        {
          "internalType": "uint32",
          "name": "_targetReserveWeight",
          "type": "uint32"
        },
        {
          "internalType": "uint256",
          "name": "_amount",
          "type": "uint256"
        }
      ],
      "name": "crossReserveTargetAmount",
      "outputs": [
        {
          "internalType": "uint256",
          "name": "",
          "type": "uint256"
        }
      ],
      "stateMutability": "view",
      "type": "function"
    },
    {
      "inputs": [
        {
          "internalType": "uint256",
          "name": "_supply",
          "type": "uint256"
        },
        {
          "internalType": "uint256",
          "name": "_reserveBalance",
          "type": "uint256"
        },
        {
          "internalType": "uint32",
          "name": "_reserveRatio",
          "type": "uint32"
        },
        {
          "internalType": "uint256",
          "name": "_amount",
          "type": "uint256"
        }
      ],
      "name": "fundCost",
      "outputs": [
        {
          "internalType": "uint256",
          "name": "",
          "type": "uint256"
        }
      ],
      "stateMutability": "view",
      "type": "function"
    },
    {
      "inputs": [
        {
          "internalType": "uint256",
          "name": "_supply",
          "type": "uint256"
        },
        {
          "internalType": "uint256",
          "name": "_reserveBalance",
          "type": "uint256"
        },
        {
          "internalType": "uint32",
          "name": "_reserveRatio",
          "type": "uint32"
        },
        {
          "internalType": "uint256",
          "name": "_amount",
          "type": "uint256"
        }
      ],
      "name": "fundSupplyAmount",
      "outputs": [
        {
          "internalType": "uint256",
          "name": "",
          "type": "uint256"
        }
      ],
      "stateMutability": "view",
      "type": "function"
    },
    {
      "inputs": [],
      "name": "init",
      "outputs": [],
      "stateMutability": "nonpayable",
      "type": "function"
    },
    {
      "inputs": [
        {
          "internalType": "uint256",
          "name": "_supply",
          "type": "uint256"
        },
        {
          "internalType": "uint256",
          "name": "_reserveBalance",
          "type": "uint256"
        },
        {
          "internalType": "uint32",
          "name": "_reserveRatio",
          "type": "uint32"
        },
        {
          "internalType": "uint256",
          "name": "_amount",
          "type": "uint256"
        }
      ],
      "name": "liquidateRate",
      "outputs": [
        {
          "internalType": "uint256",
          "name": "",
          "type": "uint256"
        }
      ],
      "stateMutability": "view",
      "type": "function"
    },
    {
      "inputs": [
        {
          "internalType": "uint256",
          "name": "_supply",
          "type": "uint256"
        },
        {
          "internalType": "uint256",
          "name": "_reserveBalance",
          "type": "uint256"
        },
        {
          "internalType": "uint32",
          "name": "_reserveRatio",
          "type": "uint32"
        },
        {
          "internalType": "uint256",
          "name": "_amount",
          "type": "uint256"
        }
      ],
      "name": "liquidateReserveAmount",
      "outputs": [
        {
          "internalType": "uint256",
          "name": "",
          "type": "uint256"
        }
      ],
      "stateMutability": "view",
      "type": "function"
    },
    {
      "inputs": [
        {
          "internalType": "uint256",
          "name": "_supply",
          "type": "uint256"
        },
        {
          "internalType": "uint256",
          "name": "_reserveBalance",
          "type": "uint256"
        },
        {
          "internalType": "uint32",
          "name": "_reserveWeight",
          "type": "uint32"
        },
        {
          "internalType": "uint256",
          "name": "_amount",
          "type": "uint256"
        }
      ],
      "name": "purchaseRate",
      "outputs": [
        {
          "internalType": "uint256",
          "name": "",
          "type": "uint256"
        }
      ],
      "stateMutability": "view",
      "type": "function"
    },
    {
      "inputs": [
        {
          "internalType": "uint256",
          "name": "_supply",
          "type": "uint256"
        },
        {
          "internalType": "uint256",
          "name": "_reserveBalance",
          "type": "uint256"
        },
        {
          "internalType": "uint32",
          "name": "_reserveWeight",
          "type": "uint32"
        },
        {
          "internalType": "uint256",
          "name": "_amount",
          "type": "uint256"
        }
      ],
      "name": "purchaseTargetAmount",
      "outputs": [
        {
          "internalType": "uint256",
          "name": "",
          "type": "uint256"
        }
      ],
      "stateMutability": "view",
      "type": "function"
    },
    {
      "inputs": [
        {
          "internalType": "uint256",
          "name": "_supply",
          "type": "uint256"
        },
        {
          "internalType": "uint256",
          "name": "_reserveBalance",
          "type": "uint256"
        },
        {
          "internalType": "uint32",
          "name": "_reserveWeight",
          "type": "uint32"
        },
        {
          "internalType": "uint256",
          "name": "_amount",
          "type": "uint256"
        }
      ],
      "name": "saleRate",
      "outputs": [
        {
          "internalType": "uint256",
          "name": "",
          "type": "uint256"
        }
      ],
      "stateMutability": "view",
      "type": "function"
    },
    {
      "inputs": [
        {
          "internalType": "uint256",
          "name": "_supply",
          "type": "uint256"
        },
        {
          "internalType": "uint256",
          "name": "_reserveBalance",
          "type": "uint256"
        },
        {
          "internalType": "uint32",
          "name": "_reserveWeight",
          "type": "uint32"
        },
        {
          "internalType": "uint256",
          "name": "_amount",
          "type": "uint256"
        }
      ],
      "name": "saleTargetAmount",
      "outputs": [
        {
          "internalType": "uint256",
          "name": "",
          "type": "uint256"
        }
      ],
      "stateMutability": "view",
      "type": "function"
    },
    {
      "inputs": [
        {
          "internalType": "uint256",
          "name": "_baseN",
          "type": "uint256"
        },
        {
          "internalType": "uint256",
          "name": "_baseD",
          "type": "uint256"
        },
        {
          "internalType": "uint32",
          "name": "_expN",
          "type": "uint32"
        },
        {
          "internalType": "uint32",
          "name": "_expD",
          "type": "uint32"
        }
      ],
      "name": "powerTest",
      "outputs": [
        {
          "internalType": "uint256",
          "name": "",
          "type": "uint256"
        },
        {
          "internalType": "uint8",
          "name": "",
          "type": "uint8"
        }
      ],
      "stateMutability": "view",
      "type": "function"
    },
    {
      "inputs": [
        {
          "internalType": "uint256",
          "name": "x",
          "type": "uint256"
        }
      ],
      "name": "generalLogTest",
      "outputs": [
        {
          "internalType": "uint256",
          "name": "",
          "type": "uint256"
        }
      ],
      "stateMutability": "pure",
      "type": "function"
    },
    {
      "inputs": [
        {
          "internalType": "uint256",
          "name": "_n",
          "type": "uint256"
        }
      ],
      "name": "floorLog2Test",
      "outputs": [
        {
          "internalType": "uint8",
          "name": "",
          "type": "uint8"
        }
      ],
      "stateMutability": "pure",
      "type": "function"
    },
    {
      "inputs": [
        {
          "internalType": "uint256",
          "name": "_x",
          "type": "uint256"
        }
      ],
      "name": "findPositionInMaxExpArrayTest",
      "outputs": [
        {
          "internalType": "uint8",
          "name": "",
          "type": "uint8"
        }
      ],
      "stateMutability": "view",
      "type": "function"
    },
    {
      "inputs": [
        {
          "internalType": "uint256",
          "name": "_x",
          "type": "uint256"
        },
        {
          "internalType": "uint8",
          "name": "_precision",
          "type": "uint8"
        }
      ],
      "name": "generalExpTest",
      "outputs": [
        {
          "internalType": "uint256",
          "name": "",
          "type": "uint256"
        }
      ],
      "stateMutability": "pure",
      "type": "function"
    },
    {
      "inputs": [
        {
          "internalType": "uint256",
          "name": "x",
          "type": "uint256"
        }
      ],
      "name": "optimalLogTest",
      "outputs": [
        {
          "internalType": "uint256",
          "name": "",
          "type": "uint256"
        }
      ],
      "stateMutability": "pure",
      "type": "function"
    },
    {
      "inputs": [
        {
          "internalType": "uint256",
          "name": "x",
          "type": "uint256"
        }
      ],
      "name": "optimalExpTest",
      "outputs": [
        {
          "internalType": "uint256",
          "name": "",
          "type": "uint256"
        }
      ],
      "stateMutability": "pure",
      "type": "function"
    },
    {
      "inputs": [
        {
          "internalType": "uint256",
          "name": "_a",
          "type": "uint256"
        },
        {
          "internalType": "uint256",
          "name": "_b",
          "type": "uint256"
        }
      ],
      "name": "normalizedWeightsTest",
      "outputs": [
        {
          "internalType": "uint32",
          "name": "",
          "type": "uint32"
        },
        {
          "internalType": "uint32",
          "name": "",
          "type": "uint32"
        }
      ],
      "stateMutability": "pure",
      "type": "function"
    },
    {
      "inputs": [
        {
          "internalType": "uint256",
          "name": "_a",
          "type": "uint256"
        },
        {
          "internalType": "uint256",
          "name": "_b",
          "type": "uint256"
        }
      ],
      "name": "accurateWeightsTest",
      "outputs": [
        {
          "internalType": "uint32",
          "name": "",
          "type": "uint32"
        },
        {
          "internalType": "uint32",
          "name": "",
          "type": "uint32"
        }
      ],
      "stateMutability": "pure",
      "type": "function"
    },
    {
      "inputs": [
        {
          "internalType": "uint256",
          "name": "_n",
          "type": "uint256"
        },
        {
          "internalType": "uint256",
          "name": "_d",
          "type": "uint256"
        }
      ],
      "name": "roundDivTest",
      "outputs": [
        {
          "internalType": "uint256",
          "name": "",
          "type": "uint256"
        }
      ],
      "stateMutability": "pure",
      "type": "function"
    }
  ],
  "bytecode": "0x608060405234801561001057600080fd5b5061658780620000216000396000f3fe608060405234801561001057600080fd5b50600436106101c45760003560e01c80638074590a116100f9578063acdee8cb11610097578063e488312111610071578063e488312114610a7e578063ebbb215814610add578063f3250fe214610b43578063f732f1c914610ba9576101c4565b8063acdee8cb146109ed578063ce782e0814610a2f578063e1c7392a14610a74576101c4565b80639d114108116100d35780639d1141081461084f578063a11aa1b4146108c5578063a25a34b114610942578063abfd231d14610987576101c4565b80638074590a146106fd5780638c5ce82a1461076357806394491fab146107d9576101c4565b806348d73fed1161016657806365098bb31161014057806365098bb31461055c5780636cab5055146105d257806376cf0b561461062157806379c1b45014610687576101c4565b806348d73fed1461044e5780634982d52d146104b457806349f9b0f7146104f6576101c4565b806335b49af4116101a257806335b49af4146102fb5780633e75c6ca146103615780633e8a38ab146103c057806347d0b68614610402576101c4565b80631da6bbfb146101c957806329a00e7c1461022f5780632f55bdb514610295575b600080fd5b610219600480360360808110156101df57600080fd5b810190808035906020019092919080359060200190929190803563ffffffff16906020019092919080359060200190929190505050610c0f565b6040518082815260200191505060405180910390f35b61027f6004803603608081101561024557600080fd5b810190808035906020019092919080359060200190929190803563ffffffff16906020019092919080359060200190929190505050610c27565b6040518082815260200191505060405180910390f35b6102e5600480360360808110156102ab57600080fd5b810190808035906020019092919080359060200190929190803563ffffffff16906020019092919080359060200190929190505050610c3f565b6040518082815260200191505060405180910390f35b61034b6004803603608081101561031157600080fd5b810190808035906020019092919080359060200190929190803563ffffffff16906020019092919080359060200190929190505050610e72565b6040518082815260200191505060405180910390f35b6103976004803603604081101561037757600080fd5b810190808035906020019092919080359060200190929190505050610e8a565b604051808363ffffffff1681526020018263ffffffff1681526020019250505060405180910390f35b6103ec600480360360208110156103d657600080fd5b8101908080359060200190929190505050610ea2565b6040518082815260200191505060405180910390f35b6104386004803603604081101561041857600080fd5b810190808035906020019092919080359060200190929190505050610eb4565b6040518082815260200191505060405180910390f35b61049e6004803603608081101561046457600080fd5b810190808035906020019092919080359060200190929190803563ffffffff16906020019092919080359060200190929190505050610ec8565b6040518082815260200191505060405180910390f35b6104e0600480360360208110156104ca57600080fd5b8101908080359060200190929190505050610ee0565b6040518082815260200191505060405180910390f35b6105466004803603608081101561050c57600080fd5b810190808035906020019092919080359060200190929190803563ffffffff16906020019092919080359060200190929190505050610ef2565b6040518082815260200191505060405180910390f35b6105bc600480360360a081101561057257600080fd5b8101908080359060200190929190803563ffffffff16906020019092919080359060200190929190803563ffffffff16906020019092919080359060200190929190505050610f0a565b6040518082815260200191505060405180910390f35b61060b600480360360408110156105e857600080fd5b8101908080359060200190929190803560ff169060200190929190505050610f24565b6040518082815260200191505060405180910390f35b6106716004803603608081101561063757600080fd5b810190808035906020019092919080359060200190929190803563ffffffff16906020019092919080359060200190929190505050610f38565b6040518082815260200191505060405180910390f35b6106e7600480360360a081101561069d57600080fd5b8101908080359060200190929190803563ffffffff16906020019092919080359060200190929190803563ffffffff169060200190929190803590602001909291905050506111ed565b6040518082815260200191505060405180910390f35b61074d6004803603608081101561071357600080fd5b810190808035906020019092919080359060200190929190803563ffffffff16906020019092919080359060200190929190505050611207565b6040518082815260200191505060405180910390f35b6107b96004803603608081101561077957600080fd5b810190808035906020019092919080359060200190929190803563ffffffff169060200190929190803563ffffffff1690602001909291905050506114bf565b604051808381526020018260ff1681526020019250505060405180910390f35b610839600480360360a08110156107ef57600080fd5b8101908080359060200190929190803563ffffffff16906020019092919080359060200190929190803563ffffffff169060200190929190803590602001909291905050506114db565b6040518082815260200191505060405180910390f35b6108af600480360360a081101561086557600080fd5b8101908080359060200190929190803563ffffffff16906020019092919080359060200190929190803563ffffffff169060200190929190803590602001909291905050506116d8565b6040518082815260200191505060405180910390f35b610919600480360360a08110156108db57600080fd5b8101908080359060200190929190803590602001909291908035906020019092919080359060200190929190803590602001909291905050506116f2565b604051808363ffffffff1681526020018263ffffffff1681526020019250505060405180910390f35b61096e6004803603602081101561095857600080fd5b810190808035906020019092919050505061191f565b604051808260ff16815260200191505060405180910390f35b6109d76004803603608081101561099d57600080fd5b810190808035906020019092919080359060200190929190803563ffffffff16906020019092919080359060200190929190505050611931565b6040518082815260200191505060405180910390f35b610a1960048036036020811015610a0357600080fd5b8101908080359060200190929190505050611949565b6040518082815260200191505060405180910390f35b610a5b60048036036020811015610a4557600080fd5b810190808035906020019092919050505061195b565b604051808260ff16815260200191505060405180910390f35b610a7c61196d565b005b610ab460048036036040811015610a9457600080fd5b81019080803590602001909291908035906020019092919050505061197f565b604051808363ffffffff1681526020018263ffffffff1681526020019250505060405180910390f35b610b2d60048036036080811015610af357600080fd5b810190808035906020019092919080359060200190929190803563ffffffff16906020019092919080359060200190929190505050611997565b6040518082815260200191505060405180910390f35b610b9360048036036080811015610b5957600080fd5b810190808035906020019092919080359060200190929190803563ffffffff16906020019092919080359060200190929190505050611bd6565b6040518082815260200191505060405180910390f35b610bf960048036036080811015610bbf57600080fd5b810190808035906020019092919080359060200190929190803563ffffffff16906020019092919080359060200190929190505050611e06565b6040518082815260200191505060405180910390f35b6000610c1d85858585611997565b9050949350505050565b6000610c3585858585611bd6565b9050949350505050565b6000808511610cb6576040517f08c379a00000000000000000000000000000000000000000000000000000000081526004018080602001828103825260128152602001807f4552525f494e56414c49445f535550504c59000000000000000000000000000081525060200191505060405180910390fd5b60008411610d2c576040517f08c379a000000000000000000000000000000000000000000000000000000000815260040180806020018281038252601b8152602001807f4552525f494e56414c49445f524553455256455f42414c414e4345000000000081525060200191505060405180910390fd5b60018363ffffffff16118015610d5457506002620f42400263ffffffff168363ffffffff1611155b610dc6576040517f08c379a00000000000000000000000000000000000000000000000000000000081526004018080602001828103825260198152602001807f4552525f494e56414c49445f524553455256455f524154494f0000000000000081525060200191505060405180910390fd5b6000821415610dd85760009050610e6a565b620f424063ffffffff168363ffffffff161415610e125783610e038684611e1e90919063ffffffff16565b81610e0a57fe5b049050610e6a565b6000806000610e2a8588611ea490919063ffffffff16565b9050610e3b818888620f4240611f2c565b809350819450505060008260ff16610e5c858b611e1e90919063ffffffff16565b901c90508881039450505050505b949350505050565b6000610e8085858585611207565b9050949350505050565b600080610e978484612021565b915091509250929050565b6000610ead8261205f565b9050919050565b6000610ec083836125ef565b905092915050565b6000610ed685858585611bd6565b9050949350505050565b6000610eeb82612623565b9050919050565b6000610f0085858585610f38565b9050949350505050565b6000610f1986868686866114db565b905095945050505050565b6000610f308383612745565b905092915050565b6000808511610faf576040517f08c379a00000000000000000000000000000000000000000000000000000000081526004018080602001828103825260128152602001807f4552525f494e56414c49445f535550504c59000000000000000000000000000081525060200191505060405180910390fd5b60008411611025576040517f08c379a000000000000000000000000000000000000000000000000000000000815260040180806020018281038252601b8152602001807f4552525f494e56414c49445f524553455256455f42414c414e4345000000000081525060200191505060405180910390fd5b60008363ffffffff1611801561104a5750620f424063ffffffff168363ffffffff1611155b6110bc576040517f08c379a000000000000000000000000000000000000000000000000000000000815260040180806020018281038252601a8152602001807f4552525f494e56414c49445f524553455256455f57454947485400000000000081525060200191505060405180910390fd5b84821115611132576040517f08c379a00000000000000000000000000000000000000000000000000000000081526004018080602001828103825260128152602001807f4552525f494e56414c49445f414d4f554e54000000000000000000000000000081525060200191505060405180910390fd5b600082141561114457600090506111e5565b84821415611154578390506111e5565b620f424063ffffffff168363ffffffff16141561118e578461117f8386611e1e90919063ffffffff16565b8161118657fe5b0490506111e5565b600080600084880390506111a78882620f424089611f2c565b809350819450505060006111c48489611e1e90919063ffffffff16565b905060008360ff1689901b905084818303816111dc57fe5b04955050505050505b949350505050565b60006111fc86868686866114db565b905095945050505050565b600080851161127e576040517f08c379a00000000000000000000000000000000000000000000000000000000081526004018080602001828103825260128152602001807f4552525f494e56414c49445f535550504c59000000000000000000000000000081525060200191505060405180910390fd5b600084116112f4576040517f08c379a000000000000000000000000000000000000000000000000000000000815260040180806020018281038252601b8152602001807f4552525f494e56414c49445f524553455256455f42414c414e4345000000000081525060200191505060405180910390fd5b60018363ffffffff1611801561131c57506002620f42400263ffffffff168363ffffffff1611155b61138e576040517f08c379a00000000000000000000000000000000000000000000000000000000081526004018080602001828103825260198152602001807f4552525f494e56414c49445f524553455256455f524154494f0000000000000081525060200191505060405180910390fd5b84821115611404576040517f08c379a00000000000000000000000000000000000000000000000000000000081526004018080602001828103825260128152602001807f4552525f494e56414c49445f414d4f554e54000000000000000000000000000081525060200191505060405180910390fd5b600082141561141657600090506114b7565b84821415611426578390506114b7565b620f424063ffffffff168363ffffffff16141561146057846114518584611e1e90919063ffffffff16565b8161145857fe5b0490506114b7565b600080600084880390506114798882620f424089611f2c565b809350819450505060006114968489611e1e90919063ffffffff16565b905060008360ff1689901b905084818303816114ae57fe5b04955050505050505b949350505050565b6000806114ce86868686611f2c565b9150915094509492505050565b600080861180156114ec5750600084115b61155e576040517f08c379a000000000000000000000000000000000000000000000000000000000815260040180806020018281038252601b8152602001807f4552525f494e56414c49445f524553455256455f42414c414e4345000000000081525060200191505060405180910390fd5b60008563ffffffff161180156115835750620f424063ffffffff168563ffffffff1611155b8015611595575060008363ffffffff16115b80156115b05750620f424063ffffffff168363ffffffff1611155b611622576040517f08c379a000000000000000000000000000000000000000000000000000000000815260040180806020018281038252601a8152602001807f4552525f494e56414c49445f524553455256455f57454947485400000000000081525060200191505060405180910390fd5b8263ffffffff168563ffffffff16141561166b576116498287611ea490919063ffffffff16565b61165c8386611e1e90919063ffffffff16565b8161166357fe5b0490506116cf565b6000806000611683858a611ea490919063ffffffff16565b9050611691818a8a89611f2c565b809350819450505060006116ae8489611e1e90919063ffffffff16565b905060008360ff1689901b905084818303816116c657fe5b04955050505050505b95945050505050565b60006116e786868686866114db565b905095945050505050565b6000808587141561178357600087118061170c5750600085115b61177e576040517f08c379a000000000000000000000000000000000000000000000000000000000815260040180806020018281038252601b8152602001807f4552525f494e56414c49445f524553455256455f42414c414e4345000000000081525060200191505060405180910390fd5b611812565b6000871180156117935750600086115b801561179f5750600085115b611811576040517f08c379a000000000000000000000000000000000000000000000000000000000815260040180806020018281038252601b8152602001807f4552525f494e56414c49445f524553455256455f42414c414e4345000000000081525060200191505060405180910390fd5b5b6000841180156118225750600083115b611894576040517f08c379a00000000000000000000000000000000000000000000000000000000081526004018080602001828103825260188152602001807f4552525f494e56414c49445f524553455256455f52415445000000000000000081525060200191505060405180910390fd5b60006118a98589611e1e90919063ffffffff16565b905060006118c08588611e1e90919063ffffffff16565b9050878910156118e3576118d8888a84846001612ae0565b935093505050611915565b87891115611904576118f9898984846000612ae0565b935093505050611915565b61190e8282612021565b9350935050505b9550959350505050565b600061192a82612bea565b9050919050565b600061193f85858585611207565b9050949350505050565b600061195482612c9e565b9050919050565b600061196682613218565b9050919050565b611975613294565b61197d614066565b565b60008061198c8484615268565b915091509250929050565b6000808511611a0e576040517f08c379a00000000000000000000000000000000000000000000000000000000081526004018080602001828103825260128152602001807f4552525f494e56414c49445f535550504c59000000000000000000000000000081525060200191505060405180910390fd5b60008411611a84576040517f08c379a000000000000000000000000000000000000000000000000000000000815260040180806020018281038252601b8152602001807f4552525f494e56414c49445f524553455256455f42414c414e4345000000000081525060200191505060405180910390fd5b60018363ffffffff16118015611aac57506002620f42400263ffffffff168363ffffffff1611155b611b1e576040517f08c379a00000000000000000000000000000000000000000000000000000000081526004018080602001828103825260198152602001807f4552525f494e56414c49445f524553455256455f524154494f0000000000000081525060200191505060405180910390fd5b6000821415611b305760009050611bce565b620f424063ffffffff168363ffffffff161415611b70576001856001611b5f8786611e1e90919063ffffffff16565b0381611b6757fe5b04019050611bce565b6000806000611b888589611ea490919063ffffffff16565b9050611b998189620f424089611f2c565b8093508194505050600060018360ff166001611bbe878c611e1e90919063ffffffff16565b03901c0190508781039450505050505b949350505050565b6000808511611c4d576040517f08c379a00000000000000000000000000000000000000000000000000000000081526004018080602001828103825260128152602001807f4552525f494e56414c49445f535550504c59000000000000000000000000000081525060200191505060405180910390fd5b60008411611cc3576040517f08c379a000000000000000000000000000000000000000000000000000000000815260040180806020018281038252601b8152602001807f4552525f494e56414c49445f524553455256455f42414c414e4345000000000081525060200191505060405180910390fd5b60008363ffffffff16118015611ce85750620f424063ffffffff168363ffffffff1611155b611d5a576040517f08c379a000000000000000000000000000000000000000000000000000000000815260040180806020018281038252601a8152602001807f4552525f494e56414c49445f524553455256455f57454947485400000000000081525060200191505060405180910390fd5b6000821415611d6c5760009050611dfe565b620f424063ffffffff168363ffffffff161415611da65783611d978387611e1e90919063ffffffff16565b81611d9e57fe5b049050611dfe565b6000806000611dbe8786611ea490919063ffffffff16565b9050611dcf818888620f4240611f2c565b809350819450505060008260ff16611df0858b611e1e90919063ffffffff16565b901c90508881039450505050505b949350505050565b6000611e1485858585610f38565b9050949350505050565b600080831415611e315760009050611e9e565b6000828402905082848281611e4257fe5b0414611e99576040517f08c379a00000000000000000000000000000000000000000000000000000000081526004018080602001828103825260218152602001806165316021913960400191505060405180910390fd5b809150505b92915050565b600080828401905083811015611f22576040517f08c379a000000000000000000000000000000000000000000000000000000000815260040180806020018281038252601b8152602001807f536166654d6174683a206164646974696f6e206f766572666c6f77000000000081525060200191505060405180910390fd5b8091505092915050565b6000807002000000000000000000000000000000008610611f4c57600080fd5b600080866f80000000000000000000000000000000890281611f6a57fe5b04905070015bf0a8b1457695355fb8ac404e7a79e3811015611f9657611f8f8161205f565b9150611fa2565b611f9f81612623565b91505b60008563ffffffff168763ffffffff16840281611fbb57fe5b049050700800000000000000000000000000000000811015611fee57611fe081612c9e565b607f94509450505050612018565b6000611ff982612bea565b905061200e81607f0360ff1683901c82612745565b8195509550505050505b94509492505050565b60008082841161203e576120358484615268565b91509150612058565b60008061204b8587615268565b9150915080829350935050505b9250929050565b6000806000905060008060006fd3094c70f034de4b96ff7d5b6f99fcd886106120c6576f40000000000000000000000000000000840193506fd3094c70f034de4b96ff7d5b6f99fcd86f800000000000000000000000000000008702816120c257fe5b0495505b6fa45af1e1f40c333b3de1db4dd55f29a78610612121576f20000000000000000000000000000000840193506fa45af1e1f40c333b3de1db4dd55f29a76f8000000000000000000000000000000087028161211d57fe5b0495505b6f910b022db7ae67ce76b441c27035c6a1861061217c576f10000000000000000000000000000000840193506f910b022db7ae67ce76b441c27035c6a16f8000000000000000000000000000000087028161217857fe5b0495505b6f88415abbe9a76bead8d00cf112e4d4a886106121d7576f08000000000000000000000000000000840193506f88415abbe9a76bead8d00cf112e4d4a86f800000000000000000000000000000008702816121d357fe5b0495505b6f84102b00893f64c705e841d5d4064bd38610612232576f04000000000000000000000000000000840193506f84102b00893f64c705e841d5d4064bd36f8000000000000000000000000000000087028161222e57fe5b0495505b6f8204055aaef1c8bd5c3259f4822735a2861061228d576f02000000000000000000000000000000840193506f8204055aaef1c8bd5c3259f4822735a26f8000000000000000000000000000000087028161228957fe5b0495505b6f810100ab00222d861931c15e39b44e9986106122e8576f01000000000000000000000000000000840193506f810100ab00222d861931c15e39b44e996f800000000000000000000000000000008702816122e457fe5b0495505b6f808040155aabbbe9451521693554f7338610612342576e800000000000000000000000000000840193506f808040155aabbbe9451521693554f7336f8000000000000000000000000000000087028161233e57fe5b0495505b6f80000000000000000000000000000000860392508291506f800000000000000000000000000000008384028161237557fe5b04905070010000000000000000000000000000000083700100000000000000000000000000000000038302816123a757fe5b04840193506f80000000000000000000000000000000818302816123c757fe5b049150700200000000000000000000000000000000836faaaaaaaaaaaaaaaaaaaaaaaaaaaaaaaa038302816123f857fe5b04840193506f800000000000000000000000000000008183028161241857fe5b049150700300000000000000000000000000000000836f999999999999999999999999999999990383028161244957fe5b04840193506f800000000000000000000000000000008183028161246957fe5b049150700400000000000000000000000000000000836f924924924924924924924924924924920383028161249a57fe5b04840193506f80000000000000000000000000000000818302816124ba57fe5b049150700500000000000000000000000000000000836f8e38e38e38e38e38e38e38e38e38e38e038302816124eb57fe5b04840193506f800000000000000000000000000000008183028161250b57fe5b049150700600000000000000000000000000000000836f8ba2e8ba2e8ba2e8ba2e8ba2e8ba2e8b0383028161253c57fe5b04840193506f800000000000000000000000000000008183028161255c57fe5b049150700700000000000000000000000000000000836f89d89d89d89d89d89d89d89d89d89d890383028161258d57fe5b04840193506f80000000000000000000000000000000818302816125ad57fe5b049150700800000000000000000000000000000000836f88888888888888888888888888888888038302816125de57fe5b048401935083945050505050919050565b6000600282816125fb57fe5b04820382848161260757fe5b068161260f57fe5b0482848161261957fe5b0401905092915050565b60008060009050700100000000000000000000000000000000831061268b5760006126666f80000000000000000000000000000000858161266057fe5b04613218565b90508060ff1684901c93506f800000000000000000000000000000008160ff16029150505b6f80000000000000000000000000000000831115612711576000607f90505b60008160ff16111561270f576f80000000000000000000000000000000848502816126d157fe5b049350700100000000000000000000000000000000841061270357600184901c93506001810360ff166001901b820191505b806001900390506126aa565b505b6f05b9de1d10bf4103d647b0955897ba806f03f80fe03f80fe03f80fe03f80fe03f882028161273c57fe5b04915050919050565b60008083905060008360ff16858302901c91506f03442c4e6074a82f1797f72ac00000008202810190508360ff16858302901c91506f0116b96f757c380fb287fd0e400000008202810190508360ff16858302901c91506e45ae5bdd5f0e03eca1ff43900000008202810190508360ff16858302901c91506e0defabf91302cd95b9ffda500000008202810190508360ff16858302901c91506e02529ca9832b22439efff9b80000008202810190508360ff16858302901c91506d54f1cf12bd04e516b6da880000008202810190508360ff16858302901c91506d0a9e39e257a09ca2d6db510000008202810190508360ff16858302901c91506d012e066e7b839fa050c3090000008202810190508360ff16858302901c91506c1e33d7d926c329a1ad1a8000008202810190508360ff16858302901c91506c02bee513bdb4a6b19b5f8000008202810190508360ff16858302901c91506b3a9316fa79b88eccf2a000008202810190508360ff16858302901c91506b048177ebe1fa8123752000008202810190508360ff16858302901c91506a5263fe90242dcbacf000008202810190508360ff16858302901c91506a057e22099c030d941000008202810190508360ff16858302901c91506957e22099c030d94100008202810190508360ff16858302901c915069052b6b545699763100008202810190508360ff16858302901c9150684985f67696bf7480008202810190508360ff16858302901c91506803dea12ea99e4980008202810190508360ff16858302901c91506731880f2214b6e0008202810190508360ff16858302901c915067025bcff56eb360008202810190508360ff16858302901c9150661b722e10ab10008202810190508360ff16858302901c91506601317c700770008202810190508360ff16858302901c9150650cba84aafa008202810190508360ff16858302901c91506482573a0a008202810190508360ff16858302901c91506405035ad9008202810190508360ff16858302901c9150632f881b008202810190508360ff16858302901c91506301b293408202810190508360ff16858302901c9150620efc408202810190508360ff16858302901c9150617fe08202810190508360ff16858302901c91506104208202810190508360ff16858302901c915060218202810190508360ff16858302901c915060018202810190508360ff166001901b856f0688589cc0e9505e2f2fee55800000008381612ad357fe5b0401019250505092915050565b600080612aed8585615326565b8095508196505050600086612b1b6f800000000000000000000000000000008a611e1e90919063ffffffff16565b81612b2257fe5b049050600070015bf0a8b1457695355fb8ac404e7a79e38210612b4d57612b4882612623565b612b57565b612b568261205f565b5b9050600086612b6f8984611e1e90919063ffffffff16565b81612b7657fe5b049050600086612b8e57612b898261545f565b612b98565b612b97826154ac565b5b9050612bd8612bb08a83611e1e90919063ffffffff16565b612bd36f800000000000000000000000000000008b611e1e90919063ffffffff16565b612021565b95509550505050509550959350505050565b600080602090506000607f90505b8060ff166001830160ff161015612c47576000600282840160ff1681612c1a57fe5b0490508460008260ff1660808110612c2e57fe5b015410612c3d57809250612c41565b8091505b50612bf8565b8360008260ff1660808110612c5857fe5b015410612c69578092505050612c99565b8360008360ff1660808110612c7a57fe5b015410612c8b578192505050612c99565b6000612c9657600080fd5b50505b919050565b600080600090506000806f100000000000000000000000000000008581612cc157fe5b0691508190506f8000000000000000000000000000000082820281612ce257fe5b0490506710e1b3be415a00008102830192506f8000000000000000000000000000000082820281612d0f57fe5b0490506705a0913f6b1e00008102830192506f8000000000000000000000000000000082820281612d3c57fe5b049050670168244fdac780008102830192506f8000000000000000000000000000000082820281612d6957fe5b049050664807432bc180008102830192506f8000000000000000000000000000000082820281612d9557fe5b049050660c0135dca040008102830192506f8000000000000000000000000000000082820281612dc157fe5b0490506601b707b1cdc0008102830192506f8000000000000000000000000000000082820281612ded57fe5b0490506536e0f639b8008102830192506f8000000000000000000000000000000082820281612e1857fe5b049050650618fee9f8008102830192506f8000000000000000000000000000000082820281612e4357fe5b049050649c197dcc008102830192506f8000000000000000000000000000000082820281612e6d57fe5b049050640e30dce4008102830192506f8000000000000000000000000000000082820281612e9757fe5b04905064012ebd13008102830192506f8000000000000000000000000000000082820281612ec157fe5b0490506317499f008102830192506f8000000000000000000000000000000082820281612eea57fe5b0490506301a9d4808102830192506f8000000000000000000000000000000082820281612f1357fe5b049050621c63808102830192506f8000000000000000000000000000000082820281612f3b57fe5b0490506201c6388102830192506f8000000000000000000000000000000082820281612f6357fe5b049050611ab88102830192506f8000000000000000000000000000000082820281612f8a57fe5b04905061017c8102830192506f8000000000000000000000000000000082820281612fb157fe5b04905060148102830192506f8000000000000000000000000000000082820281612fd757fe5b04905060018102830192506f80000000000000000000000000000000826721c3677c82b40000858161300557fe5b040101925060006f100000000000000000000000000000008616146130555770018ebef9eac820ae8682b9793ac6d1e7767001c3d6a24ed82218787d624d3e5eba95f984028161305157fe5b0492505b60006f200000000000000000000000000000008616146130a0577001368b2fc6f9609fe7aceb46aa619baed470018ebef9eac820ae8682b9793ac6d1e77884028161309c57fe5b0492505b60006f400000000000000000000000000000008616146130ea576fbc5ab1b16779be3575bd8f0520a9f21f7001368b2fc6f9609fe7aceb46aa619baed58402816130e657fe5b0492505b60006f80000000000000000000000000000000861614613133576f454aaa8efe072e7f6ddbab84b40a55c96fbc5ab1b16779be3575bd8f0520a9f21e84028161312f57fe5b0492505b600070010000000000000000000000000000000086161461317d576f0960aadc109e7a3bf4578099615711ea6f454aaa8efe072e7f6ddbab84b40a55c584028161317957fe5b0492505b60007002000000000000000000000000000000008616146131c6576e2bf84208204f5977f9a8cf01fdce3d6f0960aadc109e7a3bf4578099615711d78402816131c257fe5b0492505b600070040000000000000000000000000000000086161461320d576d03c6ab775dd0b95b4cbee7e65d116e2bf84208204f5977f9a8cf01fdc30784028161320957fe5b0492505b829350505050919050565b6000806000905061010083101561324a575b600183111561324557600183901c925060018101905061322a565b61328b565b6000608090505b60008160ff161115613289578060ff166001901b841061327a578060ff1684901c935080821791505b60018160ff16901c9050613251565b505b80915050919050565b701c35fedd14ffffffffffffffffffffffff60006020608081106132b457fe5b0181905550701b0ce43b323fffffffffffffffffffffff60006021608081106132d957fe5b01819055507019f0028ec1ffffffffffffffffffffffff60006022608081106132fe57fe5b01819055507018ded91f0e7fffffffffffffffffffffff600060236080811061332357fe5b01819055507017d8ec7f0417ffffffffffffffffffffff600060246080811061334857fe5b01819055507016ddc6556cdbffffffffffffffffffffff600060256080811061336d57fe5b01819055507015ecf52776a1ffffffffffffffffffffff600060266080811061339257fe5b01819055507015060c256cb2ffffffffffffffffffffff60006027608081106133b757fe5b0181905550701428a2f98d72ffffffffffffffffffffff60006028608081106133dc57fe5b01819055507013545598e5c23fffffffffffffffffffff600060296080811061340157fe5b0181905550701288c4161ce1dfffffffffffffffffffff6000602a6080811061342657fe5b01819055507011c592761c666fffffffffffffffffffff6000602b6080811061344b57fe5b018190555070110a688680a757ffffffffffffffffffff6000602c6080811061347057fe5b0181905550701056f1b5bedf77ffffffffffffffffffff6000602d6080811061349557fe5b0181905550700faadceceeff8bffffffffffffffffffff6000602e608081106134ba57fe5b0181905550700f05dc6b27edadffffffffffffffffffff6000602f608081106134df57fe5b0181905550700e67a5a25da4107fffffffffffffffffff600060306080811061350457fe5b0181905550700dcff115b14eedffffffffffffffffffff600060316080811061352957fe5b0181905550700d3e7a392431239fffffffffffffffffff600060326080811061354e57fe5b0181905550700cb2ff529eb71e4fffffffffffffffffff600060336080811061357357fe5b0181905550700c2d415c3db974afffffffffffffffffff600060346080811061359857fe5b0181905550700bad03e7d883f69bffffffffffffffffff60006035608081106135bd57fe5b0181905550700b320d03b2c343d5ffffffffffffffffff60006036608081106135e257fe5b0181905550700abc25204e02828dffffffffffffffffff600060376080811061360757fe5b0181905550700a4b16f74ee4bb207fffffffffffffffff600060386080811061362c57fe5b01819055507009deaf736ac1f569ffffffffffffffffff600060396080811061365157fe5b0181905550700976bd9952c7aa957fffffffffffffffff6000603a6080811061367657fe5b01819055507009131271922eaa606fffffffffffffffff6000603b6080811061369b57fe5b01819055507008b380f3558668c46fffffffffffffffff6000603c608081106136c057fe5b0181905550700857ddf0117efa215bffffffffffffffff6000603d608081106136e557fe5b01819055507007ffffffffffffffffffffffffffffffff6000603e6080811061370a57fe5b01819055507007abbf6f6abb9d087fffffffffffffffff6000603f6080811061372f57fe5b018190555070075af62cbac95f7dfa7fffffffffffffff600060406080811061375457fe5b018190555070070d7fb7452e187ac13fffffffffffffff600060416080811061377957fe5b01819055507006c3390ecc8af379295fffffffffffffff600060426080811061379e57fe5b018190555070067c00a3b07ffc01fd6fffffffffffffff60006043608081106137c357fe5b0181905550700637b647c39cbb9d3d27ffffffffffffff60006044608081106137e857fe5b01819055507005f63b1fc104dbd39587ffffffffffffff600060456080811061380d57fe5b01819055507005b771955b36e12f7235ffffffffffffff600060466080811061383257fe5b018190555070057b3d49dda84556d6f6ffffffffffffff600060476080811061385757fe5b018190555070054183095b2c8ececf30ffffffffffffff600060486080811061387c57fe5b018190555070050a28be635ca2b888f77fffffffffffff60006049608081106138a157fe5b01819055507004d5156639708c9db33c3fffffffffffff6000604a608081106138c657fe5b01819055507004a23105873875bd52dfdfffffffffffff6000604b608081106138eb57fe5b0181905550700471649d87199aa990756fffffffffffff6000604c6080811061391057fe5b01819055507004429a21a029d4c1457cfbffffffffffff6000604d6080811061393557fe5b0181905550700415bc6d6fb7dd71af2cb3ffffffffffff6000604e6080811061395a57fe5b01819055507003eab73b3bbfe282243ce1ffffffffffff6000604f6080811061397f57fe5b01819055507003c1771ac9fb6b4c18e229ffffffffffff60006050608081106139a457fe5b0181905550700399e96897690418f785257fffffffffff60006051608081106139c957fe5b0181905550700373fc456c53bb779bf0ea9fffffffffff60006052608081106139ee57fe5b018190555070034f9e8e490c48e67e6ab8bfffffffffff6000605360808110613a1357fe5b018190555070032cbfd4a7adc790560b3337ffffffffff6000605460808110613a3857fe5b018190555070030b50570f6e5d2acca94613ffffffffff6000605560808110613a5d57fe5b01819055507002eb40f9f620fda6b56c2861ffffffffff6000605660808110613a8257fe5b01819055507002cc8340ecb0d0f520a6af58ffffffffff6000605760808110613aa757fe5b01819055507002af09481380a0a35cf1ba02ffffffffff6000605860808110613acc57fe5b0181905550700292c5bdd3b92ec810287b1b3fffffffff6000605960808110613af157fe5b0181905550700277abdcdab07d5a77ac6d6b9fffffffff6000605a60808110613b1657fe5b018190555070025daf6654b1eaa55fd64df5efffffffff6000605b60808110613b3b57fe5b0181905550700244c49c648baa98192dce88b7ffffffff6000605c60808110613b6057fe5b018190555070022ce03cd5619a311b2471268bffffffff6000605d60808110613b8557fe5b0181905550700215f77c045fbe885654a44a0fffffffff6000605e60808110613baa57fe5b01819055507001ffffffffffffffffffffffffffffffff6000605f60808110613bcf57fe5b01819055507001eaefdbdaaee7421fc4d3ede5ffffffff6000606060808110613bf457fe5b01819055507001d6bd8b2eb257df7e8ca57b09bfffffff6000606160808110613c1957fe5b01819055507001c35fedd14b861eb0443f7f133fffffff6000606260808110613c3e57fe5b01819055507001b0ce43b322bcde4a56e8ada5afffffff6000606360808110613c6357fe5b018190555070019f0028ec1fff007f5a195a39dfffffff6000606460808110613c8857fe5b018190555070018ded91f0e72ee74f49b15ba527ffffff6000606560808110613cad57fe5b018190555070017d8ec7f04136f4e5615fd41a63ffffff6000606660808110613cd257fe5b018190555070016ddc6556cdb84bdc8d12d22e6fffffff6000606760808110613cf757fe5b018190555070015ecf52776a1155b5bd8395814f7fffff6000606860808110613d1c57fe5b018190555070015060c256cb23b3b3cc3754cf40ffffff6000606960808110613d4157fe5b01819055507001428a2f98d728ae223ddab715be3fffff6000606a60808110613d6657fe5b018190555070013545598e5c23276ccf0ede68034fffff6000606b60808110613d8b57fe5b01819055507001288c4161ce1d6f54b7f61081194fffff6000606c60808110613db057fe5b018190555070011c592761c666aa641d5a01a40f17ffff6000606d60808110613dd557fe5b0181905550700110a688680a7530515f3e6e6cfdcdffff6000606e60808110613dfa57fe5b01819055507001056f1b5bedf75c6bcb2ce8aed428ffff6000606f60808110613e1f57fe5b01819055506ffaadceceeff8a0890f3875f008277fff6000607060808110613e4357fe5b01819055506ff05dc6b27edad306388a600f6ba0bfff6000607160808110613e6757fe5b01819055506fe67a5a25da41063de1495d5b18cdbfff6000607260808110613e8b57fe5b01819055506fdcff115b14eedde6fc3aa5353f2e4fff6000607360808110613eaf57fe5b01819055506fd3e7a3924312399f9aae2e0f868f8fff6000607460808110613ed357fe5b01819055506fcb2ff529eb71e41582cccd5a1ee26fff6000607560808110613ef757fe5b01819055506fc2d415c3db974ab32a51840c0b67edff6000607660808110613f1b57fe5b01819055506fbad03e7d883f69ad5b0a186184e06bff6000607760808110613f3f57fe5b01819055506fb320d03b2c343d4829abd6075f0cc5ff6000607860808110613f6357fe5b01819055506fabc25204e02828d73c6e80bcdb1a95bf6000607960808110613f8757fe5b01819055506fa4b16f74ee4bb2040a1ec6c15fbbf2df6000607a60808110613fab57fe5b01819055506f9deaf736ac1f569deb1b5ae3f36c130f6000607b60808110613fcf57fe5b01819055506f976bd9952c7aa957f5937d790ef650376000607c60808110613ff357fe5b01819055506f9131271922eaa6064b73a22d0bd4f2bf6000607d6080811061401757fe5b01819055506f8b380f3558668c46c91c49a2f8e967b96000607e6080811061403b57fe5b01819055506f857ddf0117efa215952912839f6473e66000607f6080811061405f57fe5b0181905550565b6f60e393c68d20b1bd09deaabc0373b9c5608060006080811061408557fe5b01819055506f5f8f46e4854120989ed94719fb4c201160806001608081106140a957fe5b01819055506f5e479ebb9129fb1b7e72a648f992b60660806002608081106140cd57fe5b01819055506f5d0bd23fe42dfedde2e9586be12b85fe60806003608081106140f157fe5b01819055506f5bdb29ddee979308ddfca81aeeb8095a608060046080811061411557fe5b01819055506f5ab4fd8a260d2c7e2c0d2afcf0009dad608060056080811061413957fe5b01819055506f5998b31359a55d48724c65cf09001221608060066080811061415d57fe5b01819055506f5885bcad2b322dfc43e8860f9c018cf5608060076080811061418157fe5b01819055506f577b97aa1fe222bb452fdf111b1f0be260806008608081106141a557fe5b01819055506f5679cb5e3575632e5baa27e2b949f70460806009608081106141c957fe5b01819055506f557fe8241b3a31c83c732f1cdff4a1c56080600a608081106141ed57fe5b01819055506f548d868026504875d6e59bbe95fc2a6b6080600b6080811061421157fe5b01819055506f53a2465ce347cf34d05a867c17dd30886080600c6080811061423557fe5b01819055506f52bdce5dcd4faed59c7f5511cf8f8acc6080600d6080811061425957fe5b01819055506f51dfcb453c07f8da817606e7885f7c3e6080600e6080811061427d57fe5b01819055506f5107ef6b0a5a2be8f8ff15590daa3cce6080600f608081106142a157fe5b01819055506f5035f241d6eae0cd7bacba119993de7b60806010608081106142c557fe5b01819055506f4f698fe90d5b53d532171e1210164c6660806011608081106142e957fe5b01819055506f4ea288ca297a0e6a09a0eee240e16c85608060126080811061430d57fe5b01819055506f4de0a13fdcf5d4213fc398ba6e3becde608060136080811061433157fe5b01819055506f4d23a145eef91fec06b06140804c4808608060146080811061435557fe5b01819055506f4c6b5430d4c1ee5526473db4ae0f11de608060156080811061437957fe5b01819055506f4bb7886c240562eba11f4963a53b4240608060166080811061439d57fe5b01819055506f4b080f3f1cb491d2d521e0ea4583521e60806017608081106143c157fe5b01819055506f4a5cbc96a05589cb4d86be1db316836460806018608081106143e557fe5b01819055506f49b566d40243517658d78c33162d6ece608060196080811061440957fe5b01819055506f4911e6a02e5507a30f947383fd9a32766080601a6080811061442d57fe5b01819055506f487216c2b31be4adc41db8a8d5cc0c886080601b6080811061445157fe5b01819055506f47d5d3fc4a7a1b188cd3d788b5c5e9fc6080601c6080811061447557fe5b01819055506f473cfce4871a2c40bc4f9e1c32b955d06080601d6080811061449957fe5b01819055506f46a771ca578ab878485810e285e31c676080601e608081106144bd57fe5b01819055506f4615149718aed4c258c373dc676aa72d6080601f608081106144e157fe5b01819055506f4585c8b3f8fe489c6e1833ca47871384608060206080811061450557fe5b01819055506f44f972f174e41e5efb7e9d63c29ce735608060216080811061452957fe5b01819055506f446ff970ba86d8b00beb05ecebf3c4dc608060226080811061454d57fe5b01819055506f43e9438ec88971812d6f198b5ccaad96608060236080811061457157fe5b01819055506f436539d11ff7bea657aeddb394e809ef608060246080811061459557fe5b01819055506f42e3c5d3e5a913401d86f66db5d81c2c60806025608081106145b957fe5b01819055506f4264d2395303070ea726cbe98df6217460806026608081106145dd57fe5b01819055506f41e84a9a593bb7194c3a6349ecae4eea608060276080811061460157fe5b01819055506f416e1b785d13eba07a08f3f18876a5ab608060286080811061462557fe5b01819055506f40f6322ff389d423ba9dd7e7e7b7e809608060296080811061464957fe5b01819055506f40807cec8a466880ecf4184545d240a46080602a6080811061466d57fe5b01819055506f400cea9ce88a8d3ae668e8ea0d9bf07f6080602b6080811061469157fe5b01819055506f3f9b6ae8772d4c55091e0ed7dfea0ac16080602c608081106146b557fe5b01819055506f3f2bee253fd84594f54bcaafac383a136080602d608081106146d957fe5b01819055506f3ebe654e95208bb9210c575c081c59586080602e608081106146fd57fe5b01819055506f3e52c1fc5665635b78ce1f05ad53c0866080602f6080811061472157fe5b01819055506f3de8f65ac388101ddf718a6f5c1eff65608060306080811061474557fe5b01819055506f3d80f522d59bd0b328ca012df4cd2d49608060316080811061476957fe5b01819055506f3d1ab193129ea72b23648a161163a85a608060326080811061478d57fe5b01819055506f3cb61f68d32576c135b95cfb53f76d7560806033608081106147b157fe5b01819055506f3c5332d9f1aae851a3619e77e4cc847360806034608081106147d557fe5b01819055506f3bf1e08edbe2aa109e1525f65759ef7360806035608081106147f957fe5b01819055506f3b921d9cff13fa2c197746a3dfc4918f608060366080811061481d57fe5b01819055506f3b33df818910bfc1a5aefb8f63ae2ac4608060376080811061484157fe5b01819055506f3ad71c1c77e34fa32a9f184967eccbf6608060386080811061486557fe5b01819055506f3a7bc9abf2c5bb53e2f7384a8a16521a608060396080811061488957fe5b01819055506f3a21dec7e76369783a68a0c6385a1c576080603a608081106148ad57fe5b01819055506f39c9525de6c9cdf7c1c157ca4a7a6ee36080603b608081106148d157fe5b01819055506f39721bad3dc85d1240ff0190e0adaac36080603c608081106148f557fe5b01819055506f391c324344d3248f0469eb28dd3d77e06080603d6080811061491957fe5b01819055506f38c78df7e3c796279fb4ff84394ab3da6080603e6080811061493d57fe5b01819055506f387426ea4638ae9aae08049d3554c20a6080603f6080811061496157fe5b01819055506f3821f57dbd2763256c1a99bbd2051378608060406080811061498557fe5b01819055506f37d0f256cb46a8c92ff62fbbef28969860806041608081106149a957fe5b01819055506f37811658591ffc7abdd1feaf3cef9b7360806042608081106149cd57fe5b01819055506f37325aa10e9e82f7df0f380f7997154b60806043608081106149f157fe5b01819055506f36e4b888cfb408d873b9a80d439311c66080604460808110614a1557fe5b01819055506f3698299e59f4bb9de645fc9b08c64cca6080604560808110614a3957fe5b01819055506f364ca7a5012cb603023b57dd3ebfd50d6080604660808110614a5d57fe5b01819055506f36022c928915b778ab1b06aaee7e61d46080604760808110614a8157fe5b01819055506f35b8b28d1a73dc27500ffe35559cc0286080604860808110614aa557fe5b01819055506f357033e951fe250ec5eb4e60955132d76080604960808110614ac957fe5b01819055506f3528ab2867934e3a21b5412e4c4f88816080604a60808110614aed57fe5b01819055506f34e212f66c55057f9676c80094a61d596080604b60808110614b1157fe5b01819055506f349c66289e5b3c4b540c24f42fa4b9bb6080604c60808110614b3557fe5b01819055506f34579fbbd0c733a9c8d6af6b0f7d00f76080604d60808110614b5957fe5b01819055506f3413bad2e712288b924b5882b5b369bf6080604e60808110614b7d57fe5b01819055506f33d0b2b56286510ef730e213f71f12e96080604f60808110614ba157fe5b01819055506f338e82ce00e2496262c64457535ba1a16080605060808110614bc557fe5b01819055506f334d26a96b373bb7c2f8ea1827f27a926080605160808110614be957fe5b01819055506f330c99f4f4211469e00b3e18c31475ea6080605260808110614c0d57fe5b01819055506f32ccd87d6486094999c7d5e6f33237d86080605360808110614c3157fe5b01819055506f328dde2dd617b6665a2e8556f250c1af6080605460808110614c5557fe5b01819055506f324fa70e9adc270f8262755af5a99af96080605560808110614c7957fe5b01819055506f32122f443110611ca51040f41fa6e1e36080605660808110614c9d57fe5b01819055506f31d5730e42c0831482f0f1485c4263d86080605760808110614cc157fe5b01819055506f31996ec6b07b4a83421b5ebc4ab4e1f16080605860808110614ce557fe5b01819055506f315e1ee0a68ff46bb43ec2b85032e8766080605960808110614d0957fe5b01819055506f31237fe7bc4deacf6775b9efa1a145f86080605a60808110614d2d57fe5b01819055506f30e98e7f1cc5a356e44627a6972ea2ff6080605b60808110614d5157fe5b01819055506f30b04760b8917ec74205a3002650ec056080605c60808110614d7557fe5b01819055506f3077a75c803468e9132ce0cf3224241d6080605d60808110614d9957fe5b01819055506f303fab57a6a275c36f19cda9bace667a6080605e60808110614dbd57fe5b01819055506f3008504beb8dcbd2cf3bc1f6d5a064f06080605f60808110614de157fe5b01819055506f2fd19346ed17dac61219ce0c2c5ac4b06080606060808110614e0557fe5b01819055506f2f9b7169808c324b5852fd3d54ba97146080606160808110614e2957fe5b01819055506f2f65e7e711cf4b064eea9c08cbdad5746080606260808110614e4d57fe5b01819055506f2f30f405093042ddff8a251b6bf6d1036080606360808110614e7157fe5b01819055506f2efc931a3750f2e8bfe323edfe0375746080606460808110614e9557fe5b01819055506f2ec8c28e46dbe56d98685278339400cb6080606560808110614eb957fe5b01819055506f2e957fd933c3926d8a599b602379b8516080606660808110614edd57fe5b01819055506f2e62c882c7c9ed4473412702f08ba0e56080606760808110614f0157fe5b01819055506f2e309a221c12ba361e3ed695167feee26080606860808110614f2557fe5b01819055506f2dfef25d1f865ae18dd07cfea4bcea106080606960808110614f4957fe5b01819055506f2dcdcee821cdc80decc02c44344aeb316080606a60808110614f6d57fe5b01819055506f2d9d2d8562b34944d0b201bb87260c836080606b60808110614f9157fe5b01819055506f2d6d0c04a5b62a2c42636308669b729a6080606c60808110614fb557fe5b01819055506f2d3d6842c9a235517fc5a0332691528f6080606d60808110614fd957fe5b01819055506f2d0e402963fe1ea2834abc408c437c106080606e60808110614ffd57fe5b01819055506f2cdf91ae602647908aff975e4d6a2a8c6080606f6080811061502157fe5b01819055506f2cb15ad3a1eb65f6d74a75da09a1b6c5608060706080811061504557fe5b01819055506f2c8399a6ab8e9774d6fcff373d210727608060716080811061506957fe5b01819055506f2c564c4046f64edba6883ca06bbc4535608060726080811061508d57fe5b01819055506f2c2970c431f952641e05cb493e23eed360806073608081106150b157fe5b01819055506f2bfd0560cd9eb14563bc7c0732856c1860806074608081106150d557fe5b01819055506f2bd1084ed0332f7ff4150f9d0ef41a2c60806075608081106150f957fe5b01819055506f2ba577d0fa1628b76d040b12a82492fb608060766080811061511d57fe5b01819055506f2b7a5233cd21581e855e89dc2f1e8a92608060776080811061514157fe5b01819055506f2b4f95cd46904d05d72bdcde337d9cc7608060786080811061516557fe5b01819055506f2b2540fc9b4d9abba3faca6691914675608060796080811061518957fe5b01819055506f2afb5229f68d0830d8be8adb0a0db70f6080607a608081106151ad57fe5b01819055506f2ad1c7c63a9b294c5bc73a3ba3ab7a2b6080607b608081106151d157fe5b01819055506f2aa8a04ac3cbe1ee1c9c86361465dbb86080607c608081106151f557fe5b01819055506f2a7fda392d725a44a2c8aeb9ab35430d6080607d6080811061521957fe5b01819055506f2a57741b18cde618717792b4faa216db6080607e6080811061523d57fe5b01819055506f2a2f6c81f5d84dd950a35626d6d5503a6080607f6080811061526157fe5b0181905550565b6000807d10c6f7a0b5ed8d36b4c7f34938583621fafc8b0079a2834d26fa3fcc9ea98411156152dc5760006001807d10c6f7a0b5ed8d36b4c7f34938583621fafc8b0079a2834d26fa3fcc9ea90186816152be57fe5b040190508085816152cb57fe5b0494508084816152d757fe5b049350505b6000615305620f424063ffffffff1686026153008688611ea490919063ffffffff16565b6125ef565b9050600081620f424063ffffffff1603905081819350935050509250929050565b600080700100000000000000000000000000000000841115801561535b57507001000000000000000000000000000000008311155b1561536b57838391509150615458565b7001000000000000000000000000000000008410156153bc57827001000000000000000000000000000000008502816153a057fe5b0470010000000000000000000000000000000091509150615458565b70010000000000000000000000000000000083101561540d577001000000000000000000000000000000008470010000000000000000000000000000000085028161540357fe5b0491509150615458565b600083851161541c578361541e565b845b905060006154446f80000000000000000000000000000000838161543e57fe5b04613218565b60ff1690508086901c8186901c9350935050505b9250929050565b60006f2f16ac6c59de6f8d5d6f63c1482a7c8682116154885761548182615536565b90506154a7565b816f800000000000000000000000000000008002816154a357fe5b0490505b919050565b60006f2f16ac6c59de6f8d5d6f63c1482a7c8682116154d5576154ce82615c71565b9050615531565b7001af16ac6c59de6f8d5d6f63c1482a7c8082116154fd576154f6826163bf565b9050615531565b706b22d43e72c326539cceeef8bb48f255ff82116155255761551e82616483565b9050615531565b600061553057600080fd5b5b919050565b60008082905060006f800000000000000000000000000000008483028161555957fe5b04915070014d29a73a6e7b02c3668c7b08800000008202810190506f800000000000000000000000000000008483028161558f57fe5b0491507002504a0cd9a7f7215b60f9be48000000008202810190506f80000000000000000000000000000000848302816155c557fe5b049150700484d0a1191c0ead267967c7a4a00000008202810190506f80000000000000000000000000000000848302816155fb57fe5b04915070095ec580d7e8427a4baf26a90a000000008202810190506f800000000000000000000000000000008483028161563157fe5b049150701440b0be1615a47dba6e5b3b1f100000008202810190506f800000000000000000000000000000008483028161566757fe5b049150702d207601f46a99b41124184000000000008202810190506f800000000000000000000000000000008483028161569d57fe5b0491507066ebaac4c37c622dd8288a7eb1b20000008202810190506f80000000000000000000000000000000848302816156d357fe5b04915070ef17240135f7dbd43a1ba10cf2000000008202810190506f800000000000000000000000000000008483028161570957fe5b049150710233c33c676a5eb2416094a87b36570000008202810190506f800000000000000000000000000000008483028161574057fe5b049150710541cde48bc0254bed49a9f87000000000008202810190506f800000000000000000000000000000008483028161577757fe5b049150710cae1fad2cdd4d4cb8d73abca0d19a4000008202810190506f80000000000000000000000000000000848302816157ae57fe5b049150711edb2aa2f760d15c41ceedba9564000000008202810190506f80000000000000000000000000000000848302816157e557fe5b049150714ba8d20d2dabd386c9529659841a2e2000008202810190506f800000000000000000000000000000008483028161581c57fe5b04915071bac08546b867cdaa200000000000000000008202810190506f800000000000000000000000000000008483028161585357fe5b0491507201cfa8e70c03625b9db76c8ebf5bbf248200008202810190506f800000000000000000000000000000008483028161588b57fe5b0491507204851d99f82060df265f3309b26f82000000008202810190506f80000000000000000000000000000000848302816158c357fe5b049150720b550d19b129d270c44f6f55f027723cbb00008202810190506f80000000000000000000000000000000848302816158fb57fe5b049150721c877dadc761dc272deb65d4b00000000000008202810190506f800000000000000000000000000000008483028161593357fe5b0491507248178ece97479f33a77f2ad22a81b64406c0008202810190506f800000000000000000000000000000008483028161596b57fe5b04915072b6ca8268b9d810fedf6695ef2f8a6c000000008202810190506f80000000000000000000000000000000848302816159a357fe5b0491507301d0e76631a5b05d007b8cb72a7c7f11ec36e0008202810190506f80000000000000000000000000000000848302816159dc57fe5b0491507304a1c37bd9f85fd9c6c7800000000000000000008202810190506f8000000000000000000000000000000084830281615a1557fe5b049150730bd8369f1b702bf491e2ebfcee08250313b654008202810190506f8000000000000000000000000000000084830281615a4e57fe5b049150731e5c7c32a9f6c70ab2cb59d9225764d4000000008202810190506f8000000000000000000000000000000084830281615a8757fe5b049150734dff5820e165e910f95120a708e742496221e6008202810190506f8000000000000000000000000000000084830281615ac057fe5b04915073c8c8f66db1fced378ee50e5360000000000000008202810190506f8000000000000000000000000000000084830281615af957fe5b049150740205db8dffff45bfa2938f128f599dbf16eb11d8808202810190506f8000000000000000000000000000000084830281615b3357fe5b04915074053a044ebd984351493e1786af38d39a08000000008202810190506f8000000000000000000000000000000084830281615b6d57fe5b049150740d86dae2a4cc0f47633a544479735869b487b59c408202810190506f8000000000000000000000000000000084830281615ba757fe5b049150742310000000000000000000000000000000000000008202810190506f8000000000000000000000000000000084830281615be157fe5b049150745b0485a76f6646c2039db1507cdd51b086496808228202810190506f8000000000000000000000000000000084830281615c1b57fe5b04915074ec983c46c49545bc17efa6b5b0055e2422000000008202810190506f80000000000000000000000000000000846fde1bc4d19efcac82445da75b000000008381615c6557fe5b04010192505050919050565b60008082905060006fde1bc4d19efcac82445da75b00000000846f80000000000000000000000000000000030290506f8000000000000000000000000000000084830281615cbb57fe5b04915070014d29a73a6e7b02c3668c7b08800000008202810190506f8000000000000000000000000000000084830281615cf157fe5b0491507002504a0cd9a7f7215b60f9be48000000008202810390506f8000000000000000000000000000000084830281615d2757fe5b049150700484d0a1191c0ead267967c7a4a00000008202810190506f8000000000000000000000000000000084830281615d5d57fe5b04915070095ec580d7e8427a4baf26a90a000000008202810390506f8000000000000000000000000000000084830281615d9357fe5b049150701440b0be1615a47dba6e5b3b1f100000008202810190506f8000000000000000000000000000000084830281615dc957fe5b049150702d207601f46a99b41124184000000000008202810390506f8000000000000000000000000000000084830281615dff57fe5b0491507066ebaac4c37c622dd8288a7eb1b20000008202810190506f8000000000000000000000000000000084830281615e3557fe5b04915070ef17240135f7dbd43a1ba10cf2000000008202810390506f8000000000000000000000000000000084830281615e6b57fe5b049150710233c33c676a5eb2416094a87b36570000008202810190506f8000000000000000000000000000000084830281615ea257fe5b049150710541cde48bc0254bed49a9f87000000000008202810390506f8000000000000000000000000000000084830281615ed957fe5b049150710cae1fad2cdd4d4cb8d73abca0d19a4000008202810190506f8000000000000000000000000000000084830281615f1057fe5b049150711edb2aa2f760d15c41ceedba9564000000008202810390506f8000000000000000000000000000000084830281615f4757fe5b049150714ba8d20d2dabd386c9529659841a2e2000008202810190506f8000000000000000000000000000000084830281615f7e57fe5b04915071bac08546b867cdaa200000000000000000008202810390506f8000000000000000000000000000000084830281615fb557fe5b0491507201cfa8e70c03625b9db76c8ebf5bbf248200008202810190506f8000000000000000000000000000000084830281615fed57fe5b0491507204851d99f82060df265f3309b26f82000000008202810390506f800000000000000000000000000000008483028161602557fe5b049150720b550d19b129d270c44f6f55f027723cbb00008202810190506f800000000000000000000000000000008483028161605d57fe5b049150721c877dadc761dc272deb65d4b00000000000008202810390506f800000000000000000000000000000008483028161609557fe5b0491507248178ece97479f33a77f2ad22a81b64406c0008202810190506f80000000000000000000000000000000848302816160cd57fe5b04915072b6ca8268b9d810fedf6695ef2f8a6c000000008202810390506f800000000000000000000000000000008483028161610557fe5b0491507301d0e76631a5b05d007b8cb72a7c7f11ec36e0008202810190506f800000000000000000000000000000008483028161613e57fe5b0491507304a1c37bd9f85fd9c6c7800000000000000000008202810390506f800000000000000000000000000000008483028161617757fe5b049150730bd8369f1b702bf491e2ebfcee08250313b654008202810190506f80000000000000000000000000000000848302816161b057fe5b049150731e5c7c32a9f6c70ab2cb59d9225764d4000000008202810390506f80000000000000000000000000000000848302816161e957fe5b049150734dff5820e165e910f95120a708e742496221e6008202810190506f800000000000000000000000000000008483028161622257fe5b04915073c8c8f66db1fced378ee50e5360000000000000008202810390506f800000000000000000000000000000008483028161625b57fe5b049150740205db8dffff45bfa2938f128f599dbf16eb11d8808202810190506f800000000000000000000000000000008483028161629557fe5b04915074053a044ebd984351493e1786af38d39a08000000008202810390506f80000000000000000000000000000000848302816162cf57fe5b049150740d86dae2a4cc0f47633a544479735869b487b59c408202810190506f800000000000000000000000000000008483028161630957fe5b049150742310000000000000000000000000000000000000008202810390506f800000000000000000000000000000008483028161634357fe5b049150745b0485a76f6646c2039db1507cdd51b086496808228202810190506f800000000000000000000000000000008483028161637d57fe5b04915074ec983c46c49545bc17efa6b5b0055e2422000000008202810390506fde1bc4d19efcac82445da75b0000000081816163b557fe5b0492505050919050565b60008060016f2f16ac6c59de6f8d5d6f63c1482a7c86840303905060006f03060c183060c183060c183060c1830682816163f557fe5b0490506000816f03060c183060c183060c183060c183060290506000600183016f03060c183060c183060c183060c1830602905060006080846080811061643857fe5b0154905060006080600186016080811061644e57fe5b015490506f03060c183060c183060c183060c1830684870382028785038402018161647557fe5b049650505050505050919050565b60008070015bf0a8b1457695355fb8ac404e7a79e383106164ac576164a783612623565b6164b6565b6164b58361205f565b5b9050600070015bf0a8b1457695355fb8ac404e7a79e382106164e0576164db82612623565b6164ea565b6164e98261205f565b5b9050836f80000000000000000000000000000000836f8000000000000000000000000000000084028161651957fe5b0483850301028161652657fe5b049250505091905056fe536166654d6174683a206d756c7469706c69636174696f6e206f766572666c6f77a26469706673582212207ec390a11f78055cf87e466e349a10bfd750ca71abcd19eeb78c7c4e7305dbc064736f6c634300060c0033",
  "immutableReferences": {},
  "source": "// SPDX-License-Identifier: SEE LICENSE IN LICENSE\npragma solidity 0.6.12;\nimport \"../converter/BancorFormula.sol\";\n\n/*\n    BancorFormula test helper that exposes some BancorFormula functions\n*/\ncontract TestBancorFormula is BancorFormula {\n    function powerTest(\n        uint256 _baseN,\n        uint256 _baseD,\n        uint32 _expN,\n        uint32 _expD\n    ) external view returns (uint256, uint8) {\n        return super.power(_baseN, _baseD, _expN, _expD);\n    }\n\n    function generalLogTest(uint256 x) external pure returns (uint256) {\n        return super.generalLog(x);\n    }\n\n    function floorLog2Test(uint256 _n) external pure returns (uint8) {\n        return super.floorLog2(_n);\n    }\n\n    function findPositionInMaxExpArrayTest(uint256 _x) external view returns (uint8) {\n        return super.findPositionInMaxExpArray(_x);\n    }\n\n    function generalExpTest(uint256 _x, uint8 _precision) external pure returns (uint256) {\n        return super.generalExp(_x, _precision);\n    }\n\n    function optimalLogTest(uint256 x) external pure returns (uint256) {\n        return super.optimalLog(x);\n    }\n\n    function optimalExpTest(uint256 x) external pure returns (uint256) {\n        return super.optimalExp(x);\n    }\n\n    function normalizedWeightsTest(uint256 _a, uint256 _b) external pure returns (uint32, uint32) {\n        return super.normalizedWeights(_a, _b);\n    }\n\n    function accurateWeightsTest(uint256 _a, uint256 _b) external pure returns (uint32, uint32) {\n        return super.accurateWeights(_a, _b);\n    }\n\n    function roundDivTest(uint256 _n, uint256 _d) external pure returns (uint256) {\n        return super.roundDiv(_n, _d);\n    }\n}\n",
  "sourcePath": "D:\\Work Space\\bancor_project\\core\\contracts\\helpers\\TestBancorFormula.sol",
  "compiler": {
    "name": "solc",
    "version": "0.6.12+commit.27d51765.Emscripten.clang"
  },
  "schemaVersion": "3.4.3",
  "updatedAt": "2021-08-23T03:19:29.814Z",
  "devdoc": {
    "kind": "dev",
    "methods": {
      "balancedWeights(uint256,uint256,uint256,uint256,uint256)": {
        "details": "The arbitrage incentive is to convert to the point where the on-chain price is equal to the off-chain price. We want this operation to also impact the primary reserve balance becoming equal to the primary reserve staked balance. In other words, we want the arbitrager to convert the difference between the reserve balance and the reserve staked balance. Formula input: - let t denote the primary reserve token staked balance - let s denote the primary reserve token balance - let r denote the secondary reserve token balance - let q denote the numerator of the rate between the tokens - let p denote the denominator of the rate between the tokens Where p primary tokens are equal to q secondary tokens Formula output: - compute x = W(t / r * q / p * log(s / t)) / log(s / t) - return x / (1 + x) as the weight of the primary reserve token - return 1 / (1 + x) as the weight of the secondary reserve token Where W is the Lambert W Function If the rate-provider provides the rates for a common unit, for example: - P = 2 ==> 2 primary reserve tokens = 1 ether - Q = 3 ==> 3 secondary reserve tokens = 1 ether Then you can simply use p = P and q = Q If the rate-provider provides the rates for a single unit, for example: - P = 2 ==> 1 primary reserve token = 2 ethers - Q = 3 ==> 1 secondary reserve token = 3 ethers Then you can simply use p = Q and q = P",
        "params": {
          "_primaryReserveBalance": "the primary reserve token balance",
          "_primaryReserveStakedBalance": "the primary reserve token staked balance",
          "_reserveRateDenominator": "the denominator of the rate between the tokens Note that `numerator / denominator` should represent the amount of secondary tokens equal to one primary token",
          "_reserveRateNumerator": "the numerator of the rate between the tokens",
          "_secondaryReserveBalance": "the secondary reserve token balance"
        },
        "returns": {
          "_0": "the weight of the primary reserve token and the weight of the secondary reserve token, both in ppm (0-1000000)"
        }
      },
      "calculateCrossConnectorReturn(uint256,uint32,uint256,uint32,uint256)": {
        "details": "deprecated, backward compatibility"
      },
      "calculateCrossReserveReturn(uint256,uint32,uint256,uint32,uint256)": {
        "details": "deprecated, backward compatibility"
      },
      "calculateFundCost(uint256,uint256,uint32,uint256)": {
        "details": "deprecated, backward compatibility"
      },
      "calculateLiquidateReturn(uint256,uint256,uint32,uint256)": {
        "details": "deprecated, backward compatibility"
      },
      "calculatePurchaseReturn(uint256,uint256,uint32,uint256)": {
        "details": "deprecated, backward compatibility"
      },
      "calculateSaleReturn(uint256,uint256,uint32,uint256)": {
        "details": "deprecated, backward compatibility"
      },
      "crossReserveRate(uint256,uint32,uint256,uint32,uint256)": {
        "details": "deprecated, backward compatibility"
      },
      "crossReserveTargetAmount(uint256,uint32,uint256,uint32,uint256)": {
        "details": "given two reserve balances/weights and a sell amount (in the first reserve token), calculates the target amount for a conversion from the source reserve token to the target reserve token Formula: return = _targetReserveBalance * (1 - (_sourceReserveBalance / (_sourceReserveBalance + _amount)) ^ (_sourceReserveWeight / _targetReserveWeight))",
        "params": {
          "_amount": "source reserve amount",
          "_sourceReserveBalance": "source reserve balance",
          "_sourceReserveWeight": "source reserve weight, represented in ppm (1-1000000)",
          "_targetReserveBalance": "target reserve balance",
          "_targetReserveWeight": "target reserve weight, represented in ppm (1-1000000)"
        },
        "returns": {
          "_0": "target reserve amount"
        }
      },
      "fundCost(uint256,uint256,uint32,uint256)": {
        "details": "given a pool token supply, reserve balance, reserve ratio and an amount of requested pool tokens, calculates the amount of reserve tokens required for purchasing the given amount of pool tokens Formula: return = _reserveBalance * (((_supply + _amount) / _supply) ^ (MAX_WEIGHT / _reserveRatio) - 1)",
        "params": {
          "_amount": "requested amount of pool tokens",
          "_reserveBalance": "reserve balance",
          "_reserveRatio": "reserve ratio, represented in ppm (2-2000000)",
          "_supply": "pool token supply"
        },
        "returns": {
          "_0": "reserve token amount"
        }
      },
      "fundSupplyAmount(uint256,uint256,uint32,uint256)": {
        "details": "given a pool token supply, reserve balance, reserve ratio and an amount of reserve tokens to fund with, calculates the amount of pool tokens received for purchasing with the given amount of reserve tokens Formula: return = _supply * ((_amount / _reserveBalance + 1) ^ (_reserveRatio / MAX_WEIGHT) - 1)",
        "params": {
          "_amount": "amount of reserve tokens to fund with",
          "_reserveBalance": "reserve balance",
          "_reserveRatio": "reserve ratio, represented in ppm (2-2000000)",
          "_supply": "pool token supply"
        },
        "returns": {
          "_0": "pool token amount"
        }
      },
      "init()": {
        "details": "should be executed after construction (too large for the constructor)"
      },
      "liquidateRate(uint256,uint256,uint32,uint256)": {
        "details": "deprecated, backward compatibility"
      },
      "liquidateReserveAmount(uint256,uint256,uint32,uint256)": {
        "details": "given a pool token supply, reserve balance, reserve ratio and an amount of pool tokens to liquidate, calculates the amount of reserve tokens received for selling the given amount of pool tokens Formula: return = _reserveBalance * (1 - ((_supply - _amount) / _supply) ^ (MAX_WEIGHT / _reserveRatio))",
        "params": {
          "_amount": "amount of pool tokens to liquidate",
          "_reserveBalance": "reserve balance",
          "_reserveRatio": "reserve ratio, represented in ppm (2-2000000)",
          "_supply": "pool token supply"
        },
        "returns": {
          "_0": "reserve token amount"
        }
      },
      "purchaseRate(uint256,uint256,uint32,uint256)": {
        "details": "deprecated, backward compatibility"
      },
      "purchaseTargetAmount(uint256,uint256,uint32,uint256)": {
        "details": "given a token supply, reserve balance, weight and a deposit amount (in the reserve token), calculates the target amount for a given conversion (in the main token) Formula: return = _supply * ((1 + _amount / _reserveBalance) ^ (_reserveWeight / 1000000) - 1)",
        "params": {
          "_amount": "amount of reserve tokens to get the target amount for",
          "_reserveBalance": "reserve balance",
          "_reserveWeight": "reserve weight, represented in ppm (1-1000000)",
          "_supply": "liquid token supply"
        },
        "returns": {
          "_0": "target"
        }
      },
      "saleRate(uint256,uint256,uint32,uint256)": {
        "details": "deprecated, backward compatibility"
      },
      "saleTargetAmount(uint256,uint256,uint32,uint256)": {
        "details": "given a token supply, reserve balance, weight and a sell amount (in the main token), calculates the target amount for a given conversion (in the reserve token) Formula: return = _reserveBalance * (1 - (1 - _amount / _supply) ^ (1000000 / _reserveWeight))",
        "params": {
          "_amount": "amount of liquid tokens to get the target amount for",
          "_reserveBalance": "reserve balance",
          "_reserveWeight": "reserve weight, represented in ppm (1-1000000)",
          "_supply": "liquid token supply"
        },
        "returns": {
          "_0": "reserve token amount"
        }
      }
    },
    "version": 1
  },
  "userdoc": {
    "kind": "user",
    "methods": {},
    "version": 1
  }
}