{
  "contractName": "TestTokenGovernance",
  "abi": [
    {
      "inputs": [
        {
          "internalType": "contract IMintableToken",
          "name": "mintableToken",
          "type": "address"
        }
      ],
      "stateMutability": "nonpayable",
      "type": "constructor"
    },
    {
      "anonymous": false,
      "inputs": [
        {
          "indexed": true,
          "internalType": "bytes32",
          "name": "role",
          "type": "bytes32"
        },
        {
          "indexed": true,
          "internalType": "bytes32",
          "name": "previousAdminRole",
          "type": "bytes32"
        },
        {
          "indexed": true,
          "internalType": "bytes32",
          "name": "newAdminRole",
          "type": "bytes32"
        }
      ],
      "name": "RoleAdminChanged",
      "type": "event"
    },
    {
      "anonymous": false,
      "inputs": [
        {
          "indexed": true,
          "internalType": "bytes32",
          "name": "role",
          "type": "bytes32"
        },
        {
          "indexed": true,
          "internalType": "address",
          "name": "account",
          "type": "address"
        },
        {
          "indexed": true,
          "internalType": "address",
          "name": "sender",
          "type": "address"
        }
      ],
      "name": "RoleGranted",
      "type": "event"
    },
    {
      "anonymous": false,
      "inputs": [
        {
          "indexed": true,
          "internalType": "bytes32",
          "name": "role",
          "type": "bytes32"
        },
        {
          "indexed": true,
          "internalType": "address",
          "name": "account",
          "type": "address"
        },
        {
          "indexed": true,
          "internalType": "address",
          "name": "sender",
          "type": "address"
        }
      ],
      "name": "RoleRevoked",
      "type": "event"
    },
    {
      "inputs": [],
      "name": "DEFAULT_ADMIN_ROLE",
      "outputs": [
        {
          "internalType": "bytes32",
          "name": "",
          "type": "bytes32"
        }
      ],
      "stateMutability": "view",
      "type": "function"
    },
    {
      "inputs": [],
      "name": "ROLE_GOVERNOR",
      "outputs": [
        {
          "internalType": "bytes32",
          "name": "",
          "type": "bytes32"
        }
      ],
      "stateMutability": "view",
      "type": "function"
    },
    {
      "inputs": [],
      "name": "ROLE_MINTER",
      "outputs": [
        {
          "internalType": "bytes32",
          "name": "",
          "type": "bytes32"
        }
      ],
      "stateMutability": "view",
      "type": "function"
    },
    {
      "inputs": [],
      "name": "ROLE_SUPERVISOR",
      "outputs": [
        {
          "internalType": "bytes32",
          "name": "",
          "type": "bytes32"
        }
      ],
      "stateMutability": "view",
      "type": "function"
    },
    {
      "inputs": [],
      "name": "acceptTokenOwnership",
      "outputs": [],
      "stateMutability": "nonpayable",
      "type": "function"
    },
    {
      "inputs": [
        {
          "internalType": "uint256",
          "name": "amount",
          "type": "uint256"
        }
      ],
      "name": "burn",
      "outputs": [],
      "stateMutability": "nonpayable",
      "type": "function"
    },
    {
      "inputs": [
        {
          "internalType": "bytes32",
          "name": "role",
          "type": "bytes32"
        }
      ],
      "name": "getRoleAdmin",
      "outputs": [
        {
          "internalType": "bytes32",
          "name": "",
          "type": "bytes32"
        }
      ],
      "stateMutability": "view",
      "type": "function"
    },
    {
      "inputs": [
        {
          "internalType": "bytes32",
          "name": "role",
          "type": "bytes32"
        },
        {
          "internalType": "uint256",
          "name": "index",
          "type": "uint256"
        }
      ],
      "name": "getRoleMember",
      "outputs": [
        {
          "internalType": "address",
          "name": "",
          "type": "address"
        }
      ],
      "stateMutability": "view",
      "type": "function"
    },
    {
      "inputs": [
        {
          "internalType": "bytes32",
          "name": "role",
          "type": "bytes32"
        }
      ],
      "name": "getRoleMemberCount",
      "outputs": [
        {
          "internalType": "uint256",
          "name": "",
          "type": "uint256"
        }
      ],
      "stateMutability": "view",
      "type": "function"
    },
    {
      "inputs": [
        {
          "internalType": "bytes32",
          "name": "role",
          "type": "bytes32"
        },
        {
          "internalType": "address",
          "name": "account",
          "type": "address"
        }
      ],
      "name": "grantRole",
      "outputs": [],
      "stateMutability": "nonpayable",
      "type": "function"
    },
    {
      "inputs": [
        {
          "internalType": "bytes32",
          "name": "role",
          "type": "bytes32"
        },
        {
          "internalType": "address",
          "name": "account",
          "type": "address"
        }
      ],
      "name": "hasRole",
      "outputs": [
        {
          "internalType": "bool",
          "name": "",
          "type": "bool"
        }
      ],
      "stateMutability": "view",
      "type": "function"
    },
    {
      "inputs": [
        {
          "internalType": "address",
          "name": "to",
          "type": "address"
        },
        {
          "internalType": "uint256",
          "name": "amount",
          "type": "uint256"
        }
      ],
      "name": "mint",
      "outputs": [],
      "stateMutability": "nonpayable",
      "type": "function"
    },
    {
      "inputs": [
        {
          "internalType": "bytes32",
          "name": "role",
          "type": "bytes32"
        },
        {
          "internalType": "address",
          "name": "account",
          "type": "address"
        }
      ],
      "name": "renounceRole",
      "outputs": [],
      "stateMutability": "nonpayable",
      "type": "function"
    },
    {
      "inputs": [
        {
          "internalType": "bytes32",
          "name": "role",
          "type": "bytes32"
        },
        {
          "internalType": "address",
          "name": "account",
          "type": "address"
        }
      ],
      "name": "revokeRole",
      "outputs": [],
      "stateMutability": "nonpayable",
      "type": "function"
    },
    {
      "inputs": [],
      "name": "token",
      "outputs": [
        {
          "internalType": "contract IMintableToken",
          "name": "",
          "type": "address"
        }
      ],
      "stateMutability": "view",
      "type": "function"
    }
  ],
  "bytecode": "0x60a06040523480156200001157600080fd5b50604051620013bb380380620013bb833981810160405260208110156200003757600080fd5b810190808051906020019092919050505080600073ffffffffffffffffffffffffffffffffffffffff168173ffffffffffffffffffffffffffffffffffffffff161415620000ed576040517f08c379a00000000000000000000000000000000000000000000000000000000081526004018080602001828103825260138152602001807f4552525f494e56414c49445f414444524553530000000000000000000000000081525060200191505060405180910390fd5b8073ffffffffffffffffffffffffffffffffffffffff1660808173ffffffffffffffffffffffffffffffffffffffff1660601b81525050620001567f0c7ade2c7c08453ea605b4a8f3fb0e03e3ffcffbfa41ca8ee543d0fd74cada38806200024360201b60201c565b620001a87ff7c047210237bf53c8285c7817cb2a0024d34daf6d0b9599c37e3e9df2af8f667f0c7ade2c7c08453ea605b4a8f3fb0e03e3ffcffbfa41ca8ee543d0fd74cada386200024360201b60201c565b620001fa7faeaef46186eb59f884e36929b6d682a6ae35e1e43d8f05f058dcefb92b6014617ff7c047210237bf53c8285c7817cb2a0024d34daf6d0b9599c37e3e9df2af8f666200024360201b60201c565b6200023b7f0c7ade2c7c08453ea605b4a8f3fb0e03e3ffcffbfa41ca8ee543d0fd74cada386200022f620002a560201b60201c565b620002ad60201b60201c565b50506200043b565b8060008084815260200190815260200160002060020154837fbd79b86ffe0ab8e8776151514217cd7cacd52c909f66475c3af44e129f0b00ff60405160405180910390a480600080848152602001908152602001600020600201819055505050565b600033905090565b620002bf8282620002c360201b60201c565b5050565b620002f1816000808581526020019081526020016000206000016200036660201b62000a711790919060201c565b15620003625762000307620002a560201b60201c565b73ffffffffffffffffffffffffffffffffffffffff168173ffffffffffffffffffffffffffffffffffffffff16837f2f8788117e7eff1d82e926ec794901d17c78024a50270940304540a733656f0d60405160405180910390a45b5050565b600062000396836000018373ffffffffffffffffffffffffffffffffffffffff1660001b6200039e60201b60201c565b905092915050565b6000620003b283836200041860201b60201c565b6200040d57826000018290806001815401808255809150506001900390600052602060002001600090919091909150558260000180549050836001016000848152602001908152602001600020819055506001905062000412565b600090505b92915050565b600080836001016000848152602001908152602001600020541415905092915050565b60805160601c610f53620004686000398061068e52806107b352806108605280610a4f5250610f536000f3fe608060405234801561001057600080fd5b50600436106100f55760003560e01c806342966c6811610097578063a217fddf11610066578063a217fddf1461037e578063ca15c8731461039c578063d547741f146103de578063fc0c546a1461042c576100f5565b806342966c681461026c5780639010d07c1461029a57806391d14854146102fc57806392afc33a14610360576100f5565b80632f2ff15d116100d35780632f2ff15d1461017857806336568abe146101c657806338a5e0161461021457806340c10f191461021e576100f5565b80630d80af9b146100fa5780632358f35514610118578063248a9ca314610136575b600080fd5b610102610460565b6040518082815260200191505060405180910390f35b610120610484565b6040518082815260200191505060405180910390f35b6101626004803603602081101561014c57600080fd5b81019080803590602001909291905050506104a8565b6040518082815260200191505060405180910390f35b6101c46004803603604081101561018e57600080fd5b8101908080359060200190929190803573ffffffffffffffffffffffffffffffffffffffff1690602001909291905050506104c7565b005b610212600480360360408110156101dc57600080fd5b8101908080359060200190929190803573ffffffffffffffffffffffffffffffffffffffff169060200190929190505050610550565b005b61021c6105e9565b005b61026a6004803603604081101561023457600080fd5b81019080803573ffffffffffffffffffffffffffffffffffffffff1690602001909291908035906020019092919050505061070e565b005b6102986004803603602081101561028257600080fd5b810190808035906020019092919050505061085e565b005b6102d0600480360360408110156102b057600080fd5b810190808035906020019092919080359060200190929190505050610911565b604051808273ffffffffffffffffffffffffffffffffffffffff16815260200191505060405180910390f35b6103486004803603604081101561031257600080fd5b8101908080359060200190929190803573ffffffffffffffffffffffffffffffffffffffff169060200190929190505050610942565b60405180821515815260200191505060405180910390f35b610368610973565b6040518082815260200191505060405180910390f35b610386610997565b6040518082815260200191505060405180910390f35b6103c8600480360360208110156103b257600080fd5b810190808035906020019092919050505061099e565b6040518082815260200191505060405180910390f35b61042a600480360360408110156103f457600080fd5b8101908080359060200190929190803573ffffffffffffffffffffffffffffffffffffffff1690602001909291905050506109c4565b005b610434610a4d565b604051808273ffffffffffffffffffffffffffffffffffffffff16815260200191505060405180910390f35b7f0c7ade2c7c08453ea605b4a8f3fb0e03e3ffcffbfa41ca8ee543d0fd74cada3881565b7ff7c047210237bf53c8285c7817cb2a0024d34daf6d0b9599c37e3e9df2af8f6681565b6000806000838152602001908152602001600020600201549050919050565b6104ed600080848152602001908152602001600020600201546104e8610aa1565b610942565b610542576040517f08c379a000000000000000000000000000000000000000000000000000000000815260040180806020018281038252602f815260200180610e90602f913960400191505060405180910390fd5b61054c8282610aa9565b5050565b610558610aa1565b73ffffffffffffffffffffffffffffffffffffffff168173ffffffffffffffffffffffffffffffffffffffff16146105db576040517f08c379a000000000000000000000000000000000000000000000000000000000815260040180806020018281038252602f815260200180610eef602f913960400191505060405180910390fd5b6105e58282610b3c565b5050565b61061a7f0c7ade2c7c08453ea605b4a8f3fb0e03e3ffcffbfa41ca8ee543d0fd74cada38610615610aa1565b610942565b61068c576040517f08c379a00000000000000000000000000000000000000000000000000000000081526004018080602001828103825260118152602001807f4552525f4143434553535f44454e49454400000000000000000000000000000081525060200191505060405180910390fd5b7f000000000000000000000000000000000000000000000000000000000000000073ffffffffffffffffffffffffffffffffffffffff166379ba50976040518163ffffffff1660e01b8152600401600060405180830381600087803b1580156106f457600080fd5b505af1158015610708573d6000803e3d6000fd5b50505050565b61073f7faeaef46186eb59f884e36929b6d682a6ae35e1e43d8f05f058dcefb92b60146161073a610aa1565b610942565b6107b1576040517f08c379a00000000000000000000000000000000000000000000000000000000081526004018080602001828103825260118152602001807f4552525f4143434553535f44454e49454400000000000000000000000000000081525060200191505060405180910390fd5b7f000000000000000000000000000000000000000000000000000000000000000073ffffffffffffffffffffffffffffffffffffffff1663867904b483836040518363ffffffff1660e01b8152600401808373ffffffffffffffffffffffffffffffffffffffff16815260200182815260200192505050600060405180830381600087803b15801561084257600080fd5b505af1158015610856573d6000803e3d6000fd5b505050505050565b7f000000000000000000000000000000000000000000000000000000000000000073ffffffffffffffffffffffffffffffffffffffff1663a24835d16108a2610aa1565b836040518363ffffffff1660e01b8152600401808373ffffffffffffffffffffffffffffffffffffffff16815260200182815260200192505050600060405180830381600087803b1580156108f657600080fd5b505af115801561090a573d6000803e3d6000fd5b5050505050565b600061093a82600080868152602001908152602001600020600001610bcf90919063ffffffff16565b905092915050565b600061096b82600080868152602001908152602001600020600001610be990919063ffffffff16565b905092915050565b7faeaef46186eb59f884e36929b6d682a6ae35e1e43d8f05f058dcefb92b60146181565b6000801b81565b60006109bd600080848152602001908152602001600020600001610c19565b9050919050565b6109ea600080848152602001908152602001600020600201546109e5610aa1565b610942565b610a3f576040517f08c379a0000000000000000000000000000000000000000000000000000000008152600401808060200182810382526030815260200180610ebf6030913960400191505060405180910390fd5b610a498282610b3c565b5050565b7f000000000000000000000000000000000000000000000000000000000000000081565b6000610a99836000018373ffffffffffffffffffffffffffffffffffffffff1660001b610c2e565b905092915050565b600033905090565b610ad081600080858152602001908152602001600020600001610a7190919063ffffffff16565b15610b3857610add610aa1565b73ffffffffffffffffffffffffffffffffffffffff168173ffffffffffffffffffffffffffffffffffffffff16837f2f8788117e7eff1d82e926ec794901d17c78024a50270940304540a733656f0d60405160405180910390a45b5050565b610b6381600080858152602001908152602001600020600001610c9e90919063ffffffff16565b15610bcb57610b70610aa1565b73ffffffffffffffffffffffffffffffffffffffff168173ffffffffffffffffffffffffffffffffffffffff16837ff6391f5c32d9c69d2a47ea670b442974b53935d1edc7fd64eb21e047a839171b60405160405180910390a45b5050565b6000610bde8360000183610cce565b60001c905092915050565b6000610c11836000018373ffffffffffffffffffffffffffffffffffffffff1660001b610d51565b905092915050565b6000610c2782600001610d74565b9050919050565b6000610c3a8383610d51565b610c93578260000182908060018154018082558091505060019003906000526020600020016000909190919091505582600001805490508360010160008481526020019081526020016000208190555060019050610c98565b600090505b92915050565b6000610cc6836000018373ffffffffffffffffffffffffffffffffffffffff1660001b610d85565b905092915050565b600081836000018054905011610d2f576040517f08c379a0000000000000000000000000000000000000000000000000000000008152600401808060200182810382526022815260200180610e6e6022913960400191505060405180910390fd5b826000018281548110610d3e57fe5b9060005260206000200154905092915050565b600080836001016000848152602001908152602001600020541415905092915050565b600081600001805490509050919050565b60008083600101600084815260200190815260200160002054905060008114610e615760006001820390506000600186600001805490500390506000866000018281548110610dd057fe5b9060005260206000200154905080876000018481548110610ded57fe5b9060005260206000200181905550600183018760010160008381526020019081526020016000208190555086600001805480610e2557fe5b60019003818190600052602060002001600090559055866001016000878152602001908152602001600020600090556001945050505050610e67565b60009150505b9291505056fe456e756d657261626c655365743a20696e646578206f7574206f6620626f756e6473416363657373436f6e74726f6c3a2073656e646572206d75737420626520616e2061646d696e20746f206772616e74416363657373436f6e74726f6c3a2073656e646572206d75737420626520616e2061646d696e20746f207265766f6b65416363657373436f6e74726f6c3a2063616e206f6e6c792072656e6f756e636520726f6c657320666f722073656c66a264697066735822122066f03c2a159090e1e5777f12faac8bd2c06b94784753365bd06dbaa74dec412b64736f6c634300060c0033",
  "immutableReferences": {
    "30649": [
      {
        "length": 32,
        "start": 1678
      },
      {
        "length": 32,
        "start": 1971
      },
      {
        "length": 32,
        "start": 2144
      },
      {
        "length": 32,
        "start": 2639
      }
    ]
  },
  "source": "// SPDX-License-Identifier: SEE LICENSE IN LICENSE\npragma solidity 0.6.12;\n\n// import \"@bancor/token-governance/contracts/TokenGovernance.sol\";\nimport \"../token-governance/TokenGovernance.sol\";\n\ncontract TestTokenGovernance is TokenGovernance {\n    constructor(IMintableToken mintableToken) public TokenGovernance(mintableToken) {}\n}\n",
  "sourcePath": "D:\\Work Space\\bancor_project\\core\\contracts\\helpers\\TestTokenGovernance.sol",
  "compiler": {
    "name": "solc",
    "version": "0.6.12+commit.27d51765.Emscripten.clang"
  },
  "schemaVersion": "3.4.3",
  "updatedAt": "2021-08-23T03:19:29.928Z",
  "devdoc": {
    "kind": "dev",
    "methods": {
      "acceptTokenOwnership()": {
        "details": "Accepts the ownership of the token. Only allowed by the SUPERVISOR role."
      },
      "burn(uint256)": {
        "details": "Burns tokens from the caller.",
        "params": {
          "amount": "Amount to decrease the supply by."
        }
      },
      "getRoleAdmin(bytes32)": {
        "details": "Returns the admin role that controls `role`. See {grantRole} and {revokeRole}. To change a role's admin, use {_setRoleAdmin}."
      },
      "getRoleMember(bytes32,uint256)": {
        "details": "Returns one of the accounts that have `role`. `index` must be a value between 0 and {getRoleMemberCount}, non-inclusive. Role bearers are not sorted in any particular way, and their ordering may change at any point. WARNING: When using {getRoleMember} and {getRoleMemberCount}, make sure you perform all queries on the same block. See the following https://forum.openzeppelin.com/t/iterating-over-elements-on-enumerableset-in-openzeppelin-contracts/2296[forum post] for more information."
      },
      "getRoleMemberCount(bytes32)": {
        "details": "Returns the number of accounts that have `role`. Can be used together with {getRoleMember} to enumerate all bearers of a role."
      },
      "grantRole(bytes32,address)": {
        "details": "Grants `role` to `account`. If `account` had not been already granted `role`, emits a {RoleGranted} event. Requirements: - the caller must have ``role``'s admin role."
      },
      "hasRole(bytes32,address)": {
        "details": "Returns `true` if `account` has been granted `role`."
      },
      "mint(address,uint256)": {
        "details": "Mints new tokens. Only allowed by the MINTER role.",
        "params": {
          "amount": "Amount to increase the supply by.",
          "to": "Account to receive the new amount."
        }
      },
      "renounceRole(bytes32,address)": {
        "details": "Revokes `role` from the calling account. Roles are often managed via {grantRole} and {revokeRole}: this function's purpose is to provide a mechanism for accounts to lose their privileges if they are compromised (such as when a trusted device is misplaced). If the calling account had been granted `role`, emits a {RoleRevoked} event. Requirements: - the caller must be `account`."
      },
      "revokeRole(bytes32,address)": {
        "details": "Revokes `role` from `account`. If `account` had been granted `role`, emits a {RoleRevoked} event. Requirements: - the caller must have ``role``'s admin role."
      }
    },
    "version": 1
  },
  "userdoc": {
    "kind": "user",
    "methods": {},
    "version": 1
  }
}