{
  "contractName": "TestConverterFactory",
  "abi": [
    {
      "anonymous": false,
      "inputs": [
        {
          "indexed": true,
          "internalType": "uint16",
          "name": "converterType",
          "type": "uint16"
        },
        {
          "indexed": true,
          "internalType": "contract IConverter",
          "name": "converter",
          "type": "address"
        },
        {
          "indexed": true,
          "internalType": "address",
          "name": "converterOwner",
          "type": "address"
        }
      ],
      "name": "NewConverter",
      "type": "event"
    },
    {
      "anonymous": false,
      "inputs": [
        {
          "indexed": true,
          "internalType": "address",
          "name": "_prevOwner",
          "type": "address"
        },
        {
          "indexed": true,
          "internalType": "address",
          "name": "_newOwner",
          "type": "address"
        }
      ],
      "name": "OwnerUpdate",
      "type": "event"
    },
    {
      "inputs": [],
      "name": "acceptOwnership",
      "outputs": [],
      "stateMutability": "nonpayable",
      "type": "function"
    },
    {
      "inputs": [
        {
          "internalType": "uint16",
          "name": "converterType",
          "type": "uint16"
        }
      ],
      "name": "anchorFactories",
      "outputs": [
        {
          "internalType": "contract ITypedConverterAnchorFactory",
          "name": "",
          "type": "address"
        }
      ],
      "stateMutability": "view",
      "type": "function"
    },
    {
      "inputs": [
        {
          "internalType": "uint16",
          "name": "converterType",
          "type": "uint16"
        }
      ],
      "name": "converterFactories",
      "outputs": [
        {
          "internalType": "contract ITypedConverterFactory",
          "name": "",
          "type": "address"
        }
      ],
      "stateMutability": "view",
      "type": "function"
    },
    {
      "inputs": [],
      "name": "createdAnchor",
      "outputs": [
        {
          "internalType": "contract IConverterAnchor",
          "name": "",
          "type": "address"
        }
      ],
      "stateMutability": "view",
      "type": "function"
    },
    {
      "inputs": [],
      "name": "createdConverter",
      "outputs": [
        {
          "internalType": "contract IConverter",
          "name": "",
          "type": "address"
        }
      ],
      "stateMutability": "view",
      "type": "function"
    },
    {
      "inputs": [],
      "name": "newOwner",
      "outputs": [
        {
          "internalType": "address",
          "name": "",
          "type": "address"
        }
      ],
      "stateMutability": "view",
      "type": "function"
    },
    {
      "inputs": [],
      "name": "owner",
      "outputs": [
        {
          "internalType": "address",
          "name": "",
          "type": "address"
        }
      ],
      "stateMutability": "view",
      "type": "function"
    },
    {
      "inputs": [
        {
          "internalType": "contract ITypedConverterAnchorFactory",
          "name": "factory",
          "type": "address"
        }
      ],
      "name": "registerTypedConverterAnchorFactory",
      "outputs": [],
      "stateMutability": "nonpayable",
      "type": "function"
    },
    {
      "inputs": [
        {
          "internalType": "contract ITypedConverterFactory",
          "name": "factory",
          "type": "address"
        }
      ],
      "name": "registerTypedConverterFactory",
      "outputs": [],
      "stateMutability": "nonpayable",
      "type": "function"
    },
    {
      "inputs": [
        {
          "internalType": "address",
          "name": "_newOwner",
          "type": "address"
        }
      ],
      "name": "transferOwnership",
      "outputs": [],
      "stateMutability": "nonpayable",
      "type": "function"
    },
    {
      "inputs": [
        {
          "internalType": "contract ITypedConverterAnchorFactory",
          "name": "factory",
          "type": "address"
        }
      ],
      "name": "unregisterTypedConverterAnchorFactory",
      "outputs": [],
      "stateMutability": "nonpayable",
      "type": "function"
    },
    {
      "inputs": [
        {
          "internalType": "contract ITypedConverterFactory",
          "name": "factory",
          "type": "address"
        }
      ],
      "name": "unregisterTypedConverterFactory",
      "outputs": [],
      "stateMutability": "nonpayable",
      "type": "function"
    },
    {
      "inputs": [
        {
          "internalType": "uint16",
          "name": "_converterType",
          "type": "uint16"
        },
        {
          "internalType": "string",
          "name": "_name",
          "type": "string"
        },
        {
          "internalType": "string",
          "name": "_symbol",
          "type": "string"
        },
        {
          "internalType": "uint8",
          "name": "_decimals",
          "type": "uint8"
        }
      ],
      "name": "createAnchor",
      "outputs": [
        {
          "internalType": "contract IConverterAnchor",
          "name": "",
          "type": "address"
        }
      ],
      "stateMutability": "nonpayable",
      "type": "function"
    },
    {
      "inputs": [
        {
          "internalType": "uint16",
          "name": "_type",
          "type": "uint16"
        },
        {
          "internalType": "contract IConverterAnchor",
          "name": "_anchor",
          "type": "address"
        },
        {
          "internalType": "contract IContractRegistry",
          "name": "_registry",
          "type": "address"
        },
        {
          "internalType": "uint32",
          "name": "_maxConversionFee",
          "type": "uint32"
        }
      ],
      "name": "createConverter",
      "outputs": [
        {
          "internalType": "contract IConverter",
          "name": "",
          "type": "address"
        }
      ],
      "stateMutability": "nonpayable",
      "type": "function"
    }
  ],
  "bytecode": "0x608060405234801561001057600080fd5b50336000806101000a81548173ffffffffffffffffffffffffffffffffffffffff021916908373ffffffffffffffffffffffffffffffffffffffff160217905550613802806100606000396000f3fe60806040523480156200001157600080fd5b5060043610620001005760003560e01c80636a4e539111620000995780638da5cb5b116200006f5780638da5cb5b146200055f578063d4ee1d901462000595578063e54b93ef14620005cb578063f2fde38b14620006125762000100565b80636a4e539114620004d657806379ba5097146200050c57806383abd94714620005185762000100565b80632e9ab7b311620000db5780632e9ab7b31462000231578063327779a714620003d15780633a8fc52014620004305780635a322099146200048f5762000100565b806312b4c6c1146200010557806315f64b6a146200014c5780631814f2d214620001fb575b600080fd5b6200014a600480360360208110156200011d57600080fd5b81019080803573ffffffffffffffffffffffffffffffffffffffff16906020019092919050505062000659565b005b620001cf600480360360808110156200016457600080fd5b81019080803561ffff169060200190929190803573ffffffffffffffffffffffffffffffffffffffff169060200190929190803573ffffffffffffffffffffffffffffffffffffffff169060200190929190803563ffffffff16906020019092919050505062000743565b604051808273ffffffffffffffffffffffffffffffffffffffff16815260200191505060405180910390f35b62000205620007c0565b604051808273ffffffffffffffffffffffffffffffffffffffff16815260200191505060405180910390f35b620003a5600480360360808110156200024957600080fd5b81019080803561ffff169060200190929190803590602001906401000000008111156200027557600080fd5b8201836020820111156200028857600080fd5b80359060200191846001830284011164010000000083111715620002ab57600080fd5b91908080601f016020809104026020016040519081016040528093929190818152602001838380828437600081840152601f19601f820116905080830192505050505050509192919290803590602001906401000000008111156200030f57600080fd5b8201836020820111156200032257600080fd5b803590602001918460018302840111640100000000831117156200034557600080fd5b91908080601f016020809104026020016040519081016040528093929190818152602001838380828437600081840152601f19601f820116905080830192505050505050509192919290803560ff169060200190929190505050620007e6565b604051808273ffffffffffffffffffffffffffffffffffffffff16815260200191505060405180910390f35b6200040460048036036020811015620003e957600080fd5b81019080803561ffff16906020019092919050505062000863565b604051808273ffffffffffffffffffffffffffffffffffffffff16815260200191505060405180910390f35b62000463600480360360208110156200044857600080fd5b81019080803561ffff169060200190929190505050620008a8565b604051808273ffffffffffffffffffffffffffffffffffffffff16815260200191505060405180910390f35b620004d460048036036020811015620004a757600080fd5b81019080803573ffffffffffffffffffffffffffffffffffffffff169060200190929190505050620008ed565b005b620004e062000a9e565b604051808273ffffffffffffffffffffffffffffffffffffffff16815260200191505060405180910390f35b6200051662000ac4565b005b6200055d600480360360208110156200053057600080fd5b81019080803573ffffffffffffffffffffffffffffffffffffffff16906020019092919050505062000cca565b005b6200056962000e7b565b604051808273ffffffffffffffffffffffffffffffffffffffff16815260200191505060405180910390f35b6200059f62000e9f565b604051808273ffffffffffffffffffffffffffffffffffffffff16815260200191505060405180910390f35b6200061060048036036020811015620005e357600080fd5b81019080803573ffffffffffffffffffffffffffffffffffffffff16906020019092919050505062000ec5565b005b62000657600480360360208110156200062a57600080fd5b81019080803573ffffffffffffffffffffffffffffffffffffffff16906020019092919050505062000faf565b005b62000663620010c0565b80600260008373ffffffffffffffffffffffffffffffffffffffff16633e8ff43f6040518163ffffffff1660e01b815260040160206040518083038186803b158015620006af57600080fd5b505afa158015620006c4573d6000803e3d6000fd5b505050506040513d6020811015620006db57600080fd5b810190808051906020019092919050505061ffff1661ffff16815260200190815260200160002060006101000a81548173ffffffffffffffffffffffffffffffffffffffff021916908373ffffffffffffffffffffffffffffffffffffffff16021790555050565b6000620007538585858562001184565b600460006101000a81548173ffffffffffffffffffffffffffffffffffffffff021916908373ffffffffffffffffffffffffffffffffffffffff160217905550600460009054906101000a900473ffffffffffffffffffffffffffffffffffffffff169050949350505050565b600460009054906101000a900473ffffffffffffffffffffffffffffffffffffffff1681565b6000620007f685858585620013e7565b600560006101000a81548173ffffffffffffffffffffffffffffffffffffffff021916908373ffffffffffffffffffffffffffffffffffffffff160217905550600560009054906101000a900473ffffffffffffffffffffffffffffffffffffffff169050949350505050565b6000600260008361ffff1661ffff16815260200190815260200160002060009054906101000a900473ffffffffffffffffffffffffffffffffffffffff169050919050565b6000600360008361ffff1661ffff16815260200190815260200160002060009054906101000a900473ffffffffffffffffffffffffffffffffffffffff169050919050565b620008f7620010c0565b60008173ffffffffffffffffffffffffffffffffffffffff16633e8ff43f6040518163ffffffff1660e01b815260040160206040518083038186803b1580156200094057600080fd5b505afa15801562000955573d6000803e3d6000fd5b505050506040513d60208110156200096c57600080fd5b810190808051906020019092919050505090508173ffffffffffffffffffffffffffffffffffffffff16600260008361ffff1661ffff16815260200190815260200160002060009054906101000a900473ffffffffffffffffffffffffffffffffffffffff1673ffffffffffffffffffffffffffffffffffffffff161462000a5c576040517f08c379a00000000000000000000000000000000000000000000000000000000081526004018080602001828103825260128152602001807f4552525f4e4f545f52454749535445524544000000000000000000000000000081525060200191505060405180910390fd5b600260008261ffff1661ffff16815260200190815260200160002060006101000a81549073ffffffffffffffffffffffffffffffffffffffff02191690555050565b600560009054906101000a900473ffffffffffffffffffffffffffffffffffffffff1681565b600160009054906101000a900473ffffffffffffffffffffffffffffffffffffffff1673ffffffffffffffffffffffffffffffffffffffff163373ffffffffffffffffffffffffffffffffffffffff161462000b88576040517f08c379a00000000000000000000000000000000000000000000000000000000081526004018080602001828103825260118152602001807f4552525f4143434553535f44454e49454400000000000000000000000000000081525060200191505060405180910390fd5b600160009054906101000a900473ffffffffffffffffffffffffffffffffffffffff1673ffffffffffffffffffffffffffffffffffffffff1660008054906101000a900473ffffffffffffffffffffffffffffffffffffffff1673ffffffffffffffffffffffffffffffffffffffff167f343765429aea5a34b3ff6a3785a98a5abb2597aca87bfbb58632c173d585373a60405160405180910390a3600160009054906101000a900473ffffffffffffffffffffffffffffffffffffffff166000806101000a81548173ffffffffffffffffffffffffffffffffffffffff021916908373ffffffffffffffffffffffffffffffffffffffff1602179055506000600160006101000a81548173ffffffffffffffffffffffffffffffffffffffff021916908373ffffffffffffffffffffffffffffffffffffffff160217905550565b62000cd4620010c0565b60008173ffffffffffffffffffffffffffffffffffffffff16633e8ff43f6040518163ffffffff1660e01b815260040160206040518083038186803b15801562000d1d57600080fd5b505afa15801562000d32573d6000803e3d6000fd5b505050506040513d602081101562000d4957600080fd5b810190808051906020019092919050505090508173ffffffffffffffffffffffffffffffffffffffff16600360008361ffff1661ffff16815260200190815260200160002060009054906101000a900473ffffffffffffffffffffffffffffffffffffffff1673ffffffffffffffffffffffffffffffffffffffff161462000e39576040517f08c379a00000000000000000000000000000000000000000000000000000000081526004018080602001828103825260128152602001807f4552525f4e4f545f52454749535445524544000000000000000000000000000081525060200191505060405180910390fd5b600360008261ffff1661ffff16815260200190815260200160002060006101000a81549073ffffffffffffffffffffffffffffffffffffffff02191690555050565b60008054906101000a900473ffffffffffffffffffffffffffffffffffffffff1681565b600160009054906101000a900473ffffffffffffffffffffffffffffffffffffffff1681565b62000ecf620010c0565b80600360008373ffffffffffffffffffffffffffffffffffffffff16633e8ff43f6040518163ffffffff1660e01b815260040160206040518083038186803b15801562000f1b57600080fd5b505afa15801562000f30573d6000803e3d6000fd5b505050506040513d602081101562000f4757600080fd5b810190808051906020019092919050505061ffff1661ffff16815260200190815260200160002060006101000a81548173ffffffffffffffffffffffffffffffffffffffff021916908373ffffffffffffffffffffffffffffffffffffffff16021790555050565b62000fb9620010c0565b60008054906101000a900473ffffffffffffffffffffffffffffffffffffffff1673ffffffffffffffffffffffffffffffffffffffff168173ffffffffffffffffffffffffffffffffffffffff1614156200107c576040517f08c379a000000000000000000000000000000000000000000000000000000000815260040180806020018281038252600e8152602001807f4552525f53414d455f4f574e455200000000000000000000000000000000000081525060200191505060405180910390fd5b80600160006101000a81548173ffffffffffffffffffffffffffffffffffffffff021916908373ffffffffffffffffffffffffffffffffffffffff16021790555050565b60008054906101000a900473ffffffffffffffffffffffffffffffffffffffff1673ffffffffffffffffffffffffffffffffffffffff163373ffffffffffffffffffffffffffffffffffffffff161462001182576040517f08c379a00000000000000000000000000000000000000000000000000000000081526004018080602001828103825260118152602001807f4552525f4143434553535f44454e49454400000000000000000000000000000081525060200191505060405180910390fd5b565b600080600260008761ffff1661ffff16815260200190815260200160002060009054906101000a900473ffffffffffffffffffffffffffffffffffffffff1673ffffffffffffffffffffffffffffffffffffffff1663114139588686866040518463ffffffff1660e01b8152600401808473ffffffffffffffffffffffffffffffffffffffff1681526020018373ffffffffffffffffffffffffffffffffffffffff1681526020018263ffffffff1681526020019350505050602060405180830381600087803b1580156200125857600080fd5b505af11580156200126d573d6000803e3d6000fd5b505050506040513d60208110156200128457600080fd5b810190808051906020019092919050505090508073ffffffffffffffffffffffffffffffffffffffff166379ba50976040518163ffffffff1660e01b8152600401600060405180830381600087803b158015620012e057600080fd5b505af1158015620012f5573d6000803e3d6000fd5b505050508073ffffffffffffffffffffffffffffffffffffffff1663f2fde38b336040518263ffffffff1660e01b8152600401808273ffffffffffffffffffffffffffffffffffffffff168152602001915050600060405180830381600087803b1580156200136357600080fd5b505af115801562001378573d6000803e3d6000fd5b505050503373ffffffffffffffffffffffffffffffffffffffff168173ffffffffffffffffffffffffffffffffffffffff168761ffff167fbb340bcea68d239ac719bc5cf8c9a1716df04ad3babb8d1e562aa44d19fea3a360405160405180910390a480915050949350505050565b6000806000600360008861ffff1661ffff16815260200190815260200160002060009054906101000a900473ffffffffffffffffffffffffffffffffffffffff169050600073ffffffffffffffffffffffffffffffffffffffff168173ffffffffffffffffffffffffffffffffffffffff16141562001582578585856040516200147190620017eb565b8080602001806020018460ff168152602001838103835286818151815260200191508051906020019080838360005b83811015620014bd578082015181840152602081019050620014a0565b50505050905090810190601f168015620014eb5780820380516001836020036101000a031916815260200191505b50838103825285818151815260200191508051906020019080838360005b838110156200152657808201518184015260208101905062001509565b50505050905090810190601f168015620015545780820380516001836020036101000a031916815260200191505b5095505050505050604051809103906000f08015801562001579573d6000803e3d6000fd5b5091506200175b565b8073ffffffffffffffffffffffffffffffffffffffff1663a9fd4a2a8787876040518463ffffffff1660e01b81526004018080602001806020018460ff168152602001838103835286818151815260200191508051906020019080838360005b83811015620015ff578082015181840152602081019050620015e2565b50505050905090810190601f1680156200162d5780820380516001836020036101000a031916815260200191505b50838103825285818151815260200191508051906020019080838360005b83811015620016685780820151818401526020810190506200164b565b50505050905090810190601f168015620016965780820380516001836020036101000a031916815260200191505b5095505050505050602060405180830381600087803b158015620016b957600080fd5b505af1158015620016ce573d6000803e3d6000fd5b505050506040513d6020811015620016e557600080fd5b810190808051906020019092919050505091508173ffffffffffffffffffffffffffffffffffffffff166379ba50976040518163ffffffff1660e01b8152600401600060405180830381600087803b1580156200174157600080fd5b505af115801562001756573d6000803e3d6000fd5b505050505b8173ffffffffffffffffffffffffffffffffffffffff1663f2fde38b336040518263ffffffff1660e01b8152600401808273ffffffffffffffffffffffffffffffffffffffff168152602001915050600060405180830381600087803b158015620017c557600080fd5b505af1158015620017da573d6000803e3d6000fd5b505050508192505050949350505050565b611fd380620017fa8339019056fe60a06040523480156200001157600080fd5b5060405162001fd338038062001fd3833981810160405260608110156200003757600080fd5b81019080805160405193929190846401000000008211156200005857600080fd5b838201915060208201858111156200006f57600080fd5b82518660018202830111640100000000821117156200008d57600080fd5b8083526020830192505050908051906020019080838360005b83811015620000c3578082015181840152602081019050620000a6565b50505050905090810190601f168015620000f15780820380516001836020036101000a031916815260200191505b50604052602001805160405193929190846401000000008211156200011557600080fd5b838201915060208201858111156200012c57600080fd5b82518660018202830111640100000000821117156200014a57600080fd5b8083526020830192505050908051906020019080838360005b838110156200018057808201518184015260208101905062000163565b50505050905090810190601f168015620001ae5780820380516001836020036101000a031916815260200191505b506040526020018051906020019092919050505082828160039080519060200190620001dc9291906200026f565b508060049080519060200190620001f59291906200026f565b506012600560006101000a81548160ff021916908360ff160217905550505033600560016101000a81548173ffffffffffffffffffffffffffffffffffffffff021916908373ffffffffffffffffffffffffffffffffffffffff1602179055508060ff1660808160ff1660f81b8152505050505062000315565b828054600181600116156101000203166002900490600052602060002090601f016020900481019282601f10620002b257805160ff1916838001178555620002e3565b82800160010185558215620002e3579182015b82811115620002e2578251825591602001919060010190620002c5565b5b509050620002f29190620002f6565b5090565b5b8082111562000311576000816000905550600101620002f7565b5090565b60805160f81c611ca062000333600039806108325250611ca06000f3fe608060405234801561001057600080fd5b506004361061010b5760003560e01c8063867904b4116100a2578063a457c2d711610071578063a457c2d7146104d3578063a9059cbb14610537578063d4ee1d901461059b578063dd62ed3e146105cf578063f2fde38b146106475761010b565b8063867904b4146103805780638da5cb5b146103ce57806395d89b4114610402578063a24835d1146104855761010b565b8063313ce567116100de578063313ce5671461029957806339509351146102ba57806370a082311461031e57806379ba5097146103765761010b565b806306fdde0314610110578063095ea7b31461019357806318160ddd146101f757806323b872dd14610215575b600080fd5b61011861068b565b6040518080602001828103825283818151815260200191508051906020019080838360005b8381101561015857808201518184015260208101905061013d565b50505050905090810190601f1680156101855780820380516001836020036101000a031916815260200191505b509250505060405180910390f35b6101df600480360360408110156101a957600080fd5b81019080803573ffffffffffffffffffffffffffffffffffffffff1690602001909291908035906020019092919050505061072d565b60405180821515815260200191505060405180910390f35b6101ff61074b565b6040518082815260200191505060405180910390f35b6102816004803603606081101561022b57600080fd5b81019080803573ffffffffffffffffffffffffffffffffffffffff169060200190929190803573ffffffffffffffffffffffffffffffffffffffff16906020019092919080359060200190929190505050610755565b60405180821515815260200191505060405180910390f35b6102a161082e565b604051808260ff16815260200191505060405180910390f35b610306600480360360408110156102d057600080fd5b81019080803573ffffffffffffffffffffffffffffffffffffffff16906020019092919080359060200190929190505050610856565b60405180821515815260200191505060405180910390f35b6103606004803603602081101561033457600080fd5b81019080803573ffffffffffffffffffffffffffffffffffffffff169060200190929190505050610909565b6040518082815260200191505060405180910390f35b61037e610951565b005b6103cc6004803603604081101561039657600080fd5b81019080803573ffffffffffffffffffffffffffffffffffffffff16906020019092919080359060200190929190505050610b59565b005b6103d6610bb1565b604051808273ffffffffffffffffffffffffffffffffffffffff16815260200191505060405180910390f35b61040a610bd7565b6040518080602001828103825283818151815260200191508051906020019080838360005b8381101561044a57808201518184015260208101905061042f565b50505050905090810190601f1680156104775780820380516001836020036101000a031916815260200191505b509250505060405180910390f35b6104d16004803603604081101561049b57600080fd5b81019080803573ffffffffffffffffffffffffffffffffffffffff16906020019092919080359060200190929190505050610c79565b005b61051f600480360360408110156104e957600080fd5b81019080803573ffffffffffffffffffffffffffffffffffffffff16906020019092919080359060200190929190505050610cc6565b60405180821515815260200191505060405180910390f35b6105836004803603604081101561054d57600080fd5b81019080803573ffffffffffffffffffffffffffffffffffffffff16906020019092919080359060200190929190505050610d93565b60405180821515815260200191505060405180910390f35b6105a3610db1565b604051808273ffffffffffffffffffffffffffffffffffffffff16815260200191505060405180910390f35b610631600480360360408110156105e557600080fd5b81019080803573ffffffffffffffffffffffffffffffffffffffff169060200190929190803573ffffffffffffffffffffffffffffffffffffffff169060200190929190505050610dd7565b6040518082815260200191505060405180910390f35b6106896004803603602081101561065d57600080fd5b81019080803573ffffffffffffffffffffffffffffffffffffffff169060200190929190505050610e5e565b005b606060038054600181600116156101000203166002900480601f0160208091040260200160405190810160405280929190818152602001828054600181600116156101000203166002900480156107235780601f106106f857610100808354040283529160200191610723565b820191906000526020600020905b81548152906001019060200180831161070657829003601f168201915b5050505050905090565b600061074161073a610f6e565b8484610f76565b6001905092915050565b6000600254905090565b600061076284848461116d565b6108238461076e610f6e565b61081e85604051806060016040528060288152602001611bb460289139600160008b73ffffffffffffffffffffffffffffffffffffffff1673ffffffffffffffffffffffffffffffffffffffff16815260200190815260200160002060006107d4610f6e565b73ffffffffffffffffffffffffffffffffffffffff1673ffffffffffffffffffffffffffffffffffffffff1681526020019081526020016000205461142e9092919063ffffffff16565b610f76565b600190509392505050565b60007f0000000000000000000000000000000000000000000000000000000000000000905090565b60006108ff610863610f6e565b846108fa8560016000610874610f6e565b73ffffffffffffffffffffffffffffffffffffffff1673ffffffffffffffffffffffffffffffffffffffff16815260200190815260200160002060008973ffffffffffffffffffffffffffffffffffffffff1673ffffffffffffffffffffffffffffffffffffffff168152602001908152602001600020546114e890919063ffffffff16565b610f76565b6001905092915050565b60008060008373ffffffffffffffffffffffffffffffffffffffff1673ffffffffffffffffffffffffffffffffffffffff168152602001908152602001600020549050919050565b600660009054906101000a900473ffffffffffffffffffffffffffffffffffffffff1673ffffffffffffffffffffffffffffffffffffffff163373ffffffffffffffffffffffffffffffffffffffff1614610a14576040517f08c379a00000000000000000000000000000000000000000000000000000000081526004018080602001828103825260118152602001807f4552525f4143434553535f44454e49454400000000000000000000000000000081525060200191505060405180910390fd5b600660009054906101000a900473ffffffffffffffffffffffffffffffffffffffff1673ffffffffffffffffffffffffffffffffffffffff16600560019054906101000a900473ffffffffffffffffffffffffffffffffffffffff1673ffffffffffffffffffffffffffffffffffffffff167f343765429aea5a34b3ff6a3785a98a5abb2597aca87bfbb58632c173d585373a60405160405180910390a3600660009054906101000a900473ffffffffffffffffffffffffffffffffffffffff16600560016101000a81548173ffffffffffffffffffffffffffffffffffffffff021916908373ffffffffffffffffffffffffffffffffffffffff1602179055506000600660006101000a81548173ffffffffffffffffffffffffffffffffffffffff021916908373ffffffffffffffffffffffffffffffffffffffff160217905550565b610b61611570565b81610b6b81611635565b610b758383611713565b7f9386c90217c323f58030f9dadcbc938f807a940f4ff41cd4cead9562f5da7dc3826040518082815260200191505060405180910390a1505050565b600560019054906101000a900473ffffffffffffffffffffffffffffffffffffffff1681565b606060048054600181600116156101000203166002900480601f016020809104026020016040519081016040528092919081815260200182805460018160011615610100020316600290048015610c6f5780601f10610c4457610100808354040283529160200191610c6f565b820191906000526020600020905b815481529060010190602001808311610c5257829003601f168201915b5050505050905090565b610c81611570565b610c8b82826118da565b7f9a1b418bc061a5d80270261562e6986a35d995f8051145f277be16103abd3453816040518082815260200191505060405180910390a15050565b6000610d89610cd3610f6e565b84610d8485604051806060016040528060258152602001611c466025913960016000610cfd610f6e565b73ffffffffffffffffffffffffffffffffffffffff1673ffffffffffffffffffffffffffffffffffffffff16815260200190815260200160002060008a73ffffffffffffffffffffffffffffffffffffffff1673ffffffffffffffffffffffffffffffffffffffff1681526020019081526020016000205461142e9092919063ffffffff16565b610f76565b6001905092915050565b6000610da7610da0610f6e565b848461116d565b6001905092915050565b600660009054906101000a900473ffffffffffffffffffffffffffffffffffffffff1681565b6000600160008473ffffffffffffffffffffffffffffffffffffffff1673ffffffffffffffffffffffffffffffffffffffff16815260200190815260200160002060008373ffffffffffffffffffffffffffffffffffffffff1673ffffffffffffffffffffffffffffffffffffffff16815260200190815260200160002054905092915050565b610e66611570565b600560019054906101000a900473ffffffffffffffffffffffffffffffffffffffff1673ffffffffffffffffffffffffffffffffffffffff168173ffffffffffffffffffffffffffffffffffffffff161415610f2a576040517f08c379a000000000000000000000000000000000000000000000000000000000815260040180806020018281038252600e8152602001807f4552525f53414d455f4f574e455200000000000000000000000000000000000081525060200191505060405180910390fd5b80600660006101000a81548173ffffffffffffffffffffffffffffffffffffffff021916908373ffffffffffffffffffffffffffffffffffffffff16021790555050565b600033905090565b600073ffffffffffffffffffffffffffffffffffffffff168373ffffffffffffffffffffffffffffffffffffffff161415610ffc576040517f08c379a0000000000000000000000000000000000000000000000000000000008152600401808060200182810382526024815260200180611c226024913960400191505060405180910390fd5b600073ffffffffffffffffffffffffffffffffffffffff168273ffffffffffffffffffffffffffffffffffffffff161415611082576040517f08c379a0000000000000000000000000000000000000000000000000000000008152600401808060200182810382526022815260200180611b6c6022913960400191505060405180910390fd5b80600160008573ffffffffffffffffffffffffffffffffffffffff1673ffffffffffffffffffffffffffffffffffffffff16815260200190815260200160002060008473ffffffffffffffffffffffffffffffffffffffff1673ffffffffffffffffffffffffffffffffffffffff168152602001908152602001600020819055508173ffffffffffffffffffffffffffffffffffffffff168373ffffffffffffffffffffffffffffffffffffffff167f8c5be1e5ebec7d5bd14f71427d1e84f3dd0314c0f7b2291e5b200ac8c7c3b925836040518082815260200191505060405180910390a3505050565b600073ffffffffffffffffffffffffffffffffffffffff168373ffffffffffffffffffffffffffffffffffffffff1614156111f3576040517f08c379a0000000000000000000000000000000000000000000000000000000008152600401808060200182810382526025815260200180611bfd6025913960400191505060405180910390fd5b600073ffffffffffffffffffffffffffffffffffffffff168273ffffffffffffffffffffffffffffffffffffffff161415611279576040517f08c379a0000000000000000000000000000000000000000000000000000000008152600401808060200182810382526023815260200180611b276023913960400191505060405180910390fd5b611284838383611a9e565b6112ef81604051806060016040528060268152602001611b8e602691396000808773ffffffffffffffffffffffffffffffffffffffff1673ffffffffffffffffffffffffffffffffffffffff1681526020019081526020016000205461142e9092919063ffffffff16565b6000808573ffffffffffffffffffffffffffffffffffffffff1673ffffffffffffffffffffffffffffffffffffffff16815260200190815260200160002081905550611382816000808573ffffffffffffffffffffffffffffffffffffffff1673ffffffffffffffffffffffffffffffffffffffff168152602001908152602001600020546114e890919063ffffffff16565b6000808473ffffffffffffffffffffffffffffffffffffffff1673ffffffffffffffffffffffffffffffffffffffff168152602001908152602001600020819055508173ffffffffffffffffffffffffffffffffffffffff168373ffffffffffffffffffffffffffffffffffffffff167fddf252ad1be2c89b69c2b068fc378daa952ba7f163c4a11628f55a4df523b3ef836040518082815260200191505060405180910390a3505050565b60008383111582906114db576040517f08c379a00000000000000000000000000000000000000000000000000000000081526004018080602001828103825283818151815260200191508051906020019080838360005b838110156114a0578082015181840152602081019050611485565b50505050905090810190601f1680156114cd5780820380516001836020036101000a031916815260200191505b509250505060405180910390fd5b5082840390509392505050565b600080828401905083811015611566576040517f08c379a000000000000000000000000000000000000000000000000000000000815260040180806020018281038252601b8152602001807f536166654d6174683a206164646974696f6e206f766572666c6f77000000000081525060200191505060405180910390fd5b8091505092915050565b600560019054906101000a900473ffffffffffffffffffffffffffffffffffffffff1673ffffffffffffffffffffffffffffffffffffffff163373ffffffffffffffffffffffffffffffffffffffff1614611633576040517f08c379a00000000000000000000000000000000000000000000000000000000081526004018080602001828103825260118152602001807f4552525f4143434553535f44454e49454400000000000000000000000000000081525060200191505060405180910390fd5b565b600073ffffffffffffffffffffffffffffffffffffffff168173ffffffffffffffffffffffffffffffffffffffff161415801561169e57503073ffffffffffffffffffffffffffffffffffffffff168173ffffffffffffffffffffffffffffffffffffffff1614155b611710576040517f08c379a000000000000000000000000000000000000000000000000000000000815260040180806020018281038252601c8152602001807f4552525f494e56414c49445f45585445524e414c5f414444524553530000000081525060200191505060405180910390fd5b50565b600073ffffffffffffffffffffffffffffffffffffffff168273ffffffffffffffffffffffffffffffffffffffff1614156117b6576040517f08c379a000000000000000000000000000000000000000000000000000000000815260040180806020018281038252601f8152602001807f45524332303a206d696e7420746f20746865207a65726f20616464726573730081525060200191505060405180910390fd5b6117c260008383611a9e565b6117d7816002546114e890919063ffffffff16565b60028190555061182e816000808573ffffffffffffffffffffffffffffffffffffffff1673ffffffffffffffffffffffffffffffffffffffff168152602001908152602001600020546114e890919063ffffffff16565b6000808473ffffffffffffffffffffffffffffffffffffffff1673ffffffffffffffffffffffffffffffffffffffff168152602001908152602001600020819055508173ffffffffffffffffffffffffffffffffffffffff16600073ffffffffffffffffffffffffffffffffffffffff167fddf252ad1be2c89b69c2b068fc378daa952ba7f163c4a11628f55a4df523b3ef836040518082815260200191505060405180910390a35050565b600073ffffffffffffffffffffffffffffffffffffffff168273ffffffffffffffffffffffffffffffffffffffff161415611960576040517f08c379a0000000000000000000000000000000000000000000000000000000008152600401808060200182810382526021815260200180611bdc6021913960400191505060405180910390fd5b61196c82600083611a9e565b6119d781604051806060016040528060228152602001611b4a602291396000808673ffffffffffffffffffffffffffffffffffffffff1673ffffffffffffffffffffffffffffffffffffffff1681526020019081526020016000205461142e9092919063ffffffff16565b6000808473ffffffffffffffffffffffffffffffffffffffff1673ffffffffffffffffffffffffffffffffffffffff16815260200190815260200160002081905550611a2e81600254611aa390919063ffffffff16565b600281905550600073ffffffffffffffffffffffffffffffffffffffff168273ffffffffffffffffffffffffffffffffffffffff167fddf252ad1be2c89b69c2b068fc378daa952ba7f163c4a11628f55a4df523b3ef836040518082815260200191505060405180910390a35050565b505050565b600082821115611b1b576040517f08c379a000000000000000000000000000000000000000000000000000000000815260040180806020018281038252601e8152602001807f536166654d6174683a207375627472616374696f6e206f766572666c6f77000081525060200191505060405180910390fd5b81830390509291505056fe45524332303a207472616e7366657220746f20746865207a65726f206164647265737345524332303a206275726e20616d6f756e7420657863656564732062616c616e636545524332303a20617070726f766520746f20746865207a65726f206164647265737345524332303a207472616e7366657220616d6f756e7420657863656564732062616c616e636545524332303a207472616e7366657220616d6f756e74206578636565647320616c6c6f77616e636545524332303a206275726e2066726f6d20746865207a65726f206164647265737345524332303a207472616e736665722066726f6d20746865207a65726f206164647265737345524332303a20617070726f76652066726f6d20746865207a65726f206164647265737345524332303a2064656372656173656420616c6c6f77616e63652062656c6f77207a65726fa2646970667358221220f91f073ec279b8201f06819c3f17fcf85dfff0b4f75cc0f571fc966ff5c744c864736f6c634300060c0033a2646970667358221220fd830ebb726ef0365b32d36eefe7019cb7edbd202668f6e22589d452efd7287c64736f6c634300060c0033",
  "immutableReferences": {},
  "source": "// SPDX-License-Identifier: SEE LICENSE IN LICENSE\npragma solidity 0.6.12;\nimport \"../converter/ConverterFactory.sol\";\n\n/*\n    Utils test helper that exposes the converter factory functions\n*/\ncontract TestConverterFactory is ConverterFactory {\n    IConverter public createdConverter;\n    IConverterAnchor public createdAnchor;\n\n    function createAnchor(\n        uint16 _converterType,\n        string memory _name,\n        string memory _symbol,\n        uint8 _decimals\n    ) public override returns (IConverterAnchor) {\n        createdAnchor = super.createAnchor(_converterType, _name, _symbol, _decimals);\n        return createdAnchor;\n    }\n\n    function createConverter(\n        uint16 _type,\n        IConverterAnchor _anchor,\n        IContractRegistry _registry,\n        uint32 _maxConversionFee\n    ) public override returns (IConverter) {\n        createdConverter = super.createConverter(_type, _anchor, _registry, _maxConversionFee);\n        return createdConverter;\n    }\n}\n",
  "sourcePath": "D:\\Work Space\\bancor_project\\core\\contracts\\helpers\\TestConverterFactory.sol",
  "compiler": {
    "name": "solc",
    "version": "0.6.12+commit.27d51765.Emscripten.clang"
  },
  "schemaVersion": "3.4.3",
  "updatedAt": "2021-08-23T03:19:29.867Z",
  "devdoc": {
    "kind": "dev",
    "methods": {
      "acceptOwnership()": {
        "details": "used by a new owner to accept an ownership transfer"
      },
      "anchorFactories(uint16)": {
        "details": "returns the anchor factory of a given converter type",
        "params": {
          "converterType": "converter type, see ConverterBase contract main doc"
        },
        "returns": {
          "_0": "the anchor factory of the given converter type"
        }
      },
      "converterFactories(uint16)": {
        "details": "returns the converter factory of a given converter type",
        "params": {
          "converterType": "converter type, see ConverterBase contract main doc"
        },
        "returns": {
          "_0": "the converter factory of the given converter type"
        }
      },
      "registerTypedConverterAnchorFactory(address)": {
        "details": "registers a specific typed converter anchor factory can only be called by the owner",
        "params": {
          "factory": "typed converter anchor factory"
        }
      },
      "registerTypedConverterFactory(address)": {
        "details": "registers a specific typed converter factory can only be called by the owner",
        "params": {
          "factory": "typed converter factory"
        }
      },
      "transferOwnership(address)": {
        "details": "allows transferring the contract ownership the new owner still needs to accept the transfer can only be called by the contract owner",
        "params": {
          "_newOwner": "new contract owner"
        }
      },
      "unregisterTypedConverterAnchorFactory(address)": {
        "details": "unregisters a specific typed converter anchor factory can only be called by the owner",
        "params": {
          "factory": "typed converter anchor factory"
        }
      },
      "unregisterTypedConverterFactory(address)": {
        "details": "unregisters a specific typed converter factory can only be called by the owner",
        "params": {
          "factory": "typed converter factory"
        }
      }
    },
    "version": 1
  },
  "userdoc": {
    "kind": "user",
    "methods": {},
    "version": 1
  }
}