{
  "contractName": "TokenHolder",
  "abi": [
    {
      "anonymous": false,
      "inputs": [
        {
          "indexed": true,
          "internalType": "address",
          "name": "_prevOwner",
          "type": "address"
        },
        {
          "indexed": true,
          "internalType": "address",
          "name": "_newOwner",
          "type": "address"
        }
      ],
      "name": "OwnerUpdate",
      "type": "event"
    },
    {
      "inputs": [],
      "name": "acceptOwnership",
      "outputs": [],
      "stateMutability": "nonpayable",
      "type": "function"
    },
    {
      "inputs": [],
      "name": "newOwner",
      "outputs": [
        {
          "internalType": "address",
          "name": "",
          "type": "address"
        }
      ],
      "stateMutability": "view",
      "type": "function"
    },
    {
      "inputs": [],
      "name": "owner",
      "outputs": [
        {
          "internalType": "address",
          "name": "",
          "type": "address"
        }
      ],
      "stateMutability": "view",
      "type": "function"
    },
    {
      "inputs": [
        {
          "internalType": "address",
          "name": "_newOwner",
          "type": "address"
        }
      ],
      "name": "transferOwnership",
      "outputs": [],
      "stateMutability": "nonpayable",
      "type": "function"
    },
    {
      "stateMutability": "payable",
      "type": "receive"
    },
    {
      "inputs": [
        {
          "internalType": "contract IReserveToken",
          "name": "reserveToken",
          "type": "address"
        },
        {
          "internalType": "address payable",
          "name": "to",
          "type": "address"
        },
        {
          "internalType": "uint256",
          "name": "amount",
          "type": "uint256"
        }
      ],
      "name": "withdrawTokens",
      "outputs": [],
      "stateMutability": "nonpayable",
      "type": "function"
    },
    {
      "inputs": [
        {
          "internalType": "contract IReserveToken[]",
          "name": "reserveTokens",
          "type": "address[]"
        },
        {
          "internalType": "address payable",
          "name": "to",
          "type": "address"
        },
        {
          "internalType": "uint256[]",
          "name": "amounts",
          "type": "uint256[]"
        }
      ],
      "name": "withdrawTokensMultiple",
      "outputs": [],
      "stateMutability": "nonpayable",
      "type": "function"
    }
  ],
  "bytecode": "0x608060405234801561001057600080fd5b50336000806101000a81548173ffffffffffffffffffffffffffffffffffffffff021916908373ffffffffffffffffffffffffffffffffffffffff160217905550610e94806100606000396000f3fe6080604052600436106100595760003560e01c806308506df7146100655780635e35359e1461016057806379ba5097146101db5780638da5cb5b146101f2578063d4ee1d9014610233578063f2fde38b1461027457610060565b3661006057005b600080fd5b34801561007157600080fd5b5061015e6004803603606081101561008857600080fd5b81019080803590602001906401000000008111156100a557600080fd5b8201836020820111156100b757600080fd5b803590602001918460208302840111640100000000831117156100d957600080fd5b9091929391929390803573ffffffffffffffffffffffffffffffffffffffff1690602001909291908035906020019064010000000081111561011a57600080fd5b82018360208201111561012c57600080fd5b8035906020019184602083028401116401000000008311171561014e57600080fd5b90919293919293905050506102c5565b005b34801561016c57600080fd5b506101d96004803603606081101561018357600080fd5b81019080803573ffffffffffffffffffffffffffffffffffffffff169060200190929190803573ffffffffffffffffffffffffffffffffffffffff169060200190929190803590602001909291905050506103dc565b005b3480156101e757600080fd5b506101f061041f565b005b3480156101fe57600080fd5b50610207610624565b604051808273ffffffffffffffffffffffffffffffffffffffff16815260200191505060405180910390f35b34801561023f57600080fd5b50610248610648565b604051808273ffffffffffffffffffffffffffffffffffffffff16815260200191505060405180910390f35b34801561028057600080fd5b506102c36004803603602081101561029757600080fd5b81019080803573ffffffffffffffffffffffffffffffffffffffff16906020019092919050505061066e565b005b6102cd61077c565b826102d78161083f565b6000868690509050838390508114610357576040517f08c379a00000000000000000000000000000000000000000000000000000000081526004018080602001828103825260128152602001807f4552525f494e56414c49445f4c454e475448000000000000000000000000000081525060200191505060405180910390fd5b60005b818110156103d2576103c78686868481811061037257fe5b905060200201358a8a8581811061038557fe5b9050602002013573ffffffffffffffffffffffffffffffffffffffff1673ffffffffffffffffffffffffffffffffffffffff166108e59092919063ffffffff16565b80600101905061035a565b5050505050505050565b6103e461077c565b816103ee8161083f565b61041983838673ffffffffffffffffffffffffffffffffffffffff166108e59092919063ffffffff16565b50505050565b600160009054906101000a900473ffffffffffffffffffffffffffffffffffffffff1673ffffffffffffffffffffffffffffffffffffffff163373ffffffffffffffffffffffffffffffffffffffff16146104e2576040517f08c379a00000000000000000000000000000000000000000000000000000000081526004018080602001828103825260118152602001807f4552525f4143434553535f44454e49454400000000000000000000000000000081525060200191505060405180910390fd5b600160009054906101000a900473ffffffffffffffffffffffffffffffffffffffff1673ffffffffffffffffffffffffffffffffffffffff1660008054906101000a900473ffffffffffffffffffffffffffffffffffffffff1673ffffffffffffffffffffffffffffffffffffffff167f343765429aea5a34b3ff6a3785a98a5abb2597aca87bfbb58632c173d585373a60405160405180910390a3600160009054906101000a900473ffffffffffffffffffffffffffffffffffffffff166000806101000a81548173ffffffffffffffffffffffffffffffffffffffff021916908373ffffffffffffffffffffffffffffffffffffffff1602179055506000600160006101000a81548173ffffffffffffffffffffffffffffffffffffffff021916908373ffffffffffffffffffffffffffffffffffffffff160217905550565b60008054906101000a900473ffffffffffffffffffffffffffffffffffffffff1681565b600160009054906101000a900473ffffffffffffffffffffffffffffffffffffffff1681565b61067661077c565b60008054906101000a900473ffffffffffffffffffffffffffffffffffffffff1673ffffffffffffffffffffffffffffffffffffffff168173ffffffffffffffffffffffffffffffffffffffff161415610738576040517f08c379a000000000000000000000000000000000000000000000000000000000815260040180806020018281038252600e8152602001807f4552525f53414d455f4f574e455200000000000000000000000000000000000081525060200191505060405180910390fd5b80600160006101000a81548173ffffffffffffffffffffffffffffffffffffffff021916908373ffffffffffffffffffffffffffffffffffffffff16021790555050565b60008054906101000a900473ffffffffffffffffffffffffffffffffffffffff1673ffffffffffffffffffffffffffffffffffffffff163373ffffffffffffffffffffffffffffffffffffffff161461083d576040517f08c379a00000000000000000000000000000000000000000000000000000000081526004018080602001828103825260118152602001807f4552525f4143434553535f44454e49454400000000000000000000000000000081525060200191505060405180910390fd5b565b600073ffffffffffffffffffffffffffffffffffffffff168173ffffffffffffffffffffffffffffffffffffffff1614156108e2576040517f08c379a00000000000000000000000000000000000000000000000000000000081526004018080602001828103825260138152602001807f4552525f494e56414c49445f414444524553530000000000000000000000000081525060200191505060405180910390fd5b50565b60008114156108f357610982565b6108fc83610987565b1561094d578173ffffffffffffffffffffffffffffffffffffffff166108fc829081150290604051600060405180830381858888f19350505050158015610947573d6000803e3d6000fd5b50610981565b610980828261095b866109d3565b73ffffffffffffffffffffffffffffffffffffffff166109dd9092919063ffffffff16565b5b5b505050565b600073eeeeeeeeeeeeeeeeeeeeeeeeeeeeeeeeeeeeeeee73ffffffffffffffffffffffffffffffffffffffff168273ffffffffffffffffffffffffffffffffffffffff16149050919050565b6000819050919050565b610a7a8363a9059cbb60e01b8484604051602401808373ffffffffffffffffffffffffffffffffffffffff16815260200182815260200192505050604051602081830303815290604052907bffffffffffffffffffffffffffffffffffffffffffffffffffffffff19166020820180517bffffffffffffffffffffffffffffffffffffffffffffffffffffffff8381831617835250505050610a7f565b505050565b6060610ae1826040518060400160405280602081526020017f5361666545524332303a206c6f772d6c6576656c2063616c6c206661696c65648152508573ffffffffffffffffffffffffffffffffffffffff16610b6e9092919063ffffffff16565b9050600081511115610b6957808060200190516020811015610b0257600080fd5b8101908080519060200190929190505050610b68576040517f08c379a000000000000000000000000000000000000000000000000000000000815260040180806020018281038252602a815260200180610e35602a913960400191505060405180910390fd5b5b505050565b6060610b7d8484600085610b86565b90509392505050565b606082471015610be1576040517f08c379a0000000000000000000000000000000000000000000000000000000008152600401808060200182810382526026815260200180610e0f6026913960400191505060405180910390fd5b610bea85610d2f565b610c5c576040517f08c379a000000000000000000000000000000000000000000000000000000000815260040180806020018281038252601d8152602001807f416464726573733a2063616c6c20746f206e6f6e2d636f6e747261637400000081525060200191505060405180910390fd5b600060608673ffffffffffffffffffffffffffffffffffffffff1685876040518082805190602001908083835b60208310610cac5780518252602082019150602081019050602083039250610c89565b6001836020036101000a03801982511681845116808217855250505050505090500191505060006040518083038185875af1925050503d8060008114610d0e576040519150601f19603f3d011682016040523d82523d6000602084013e610d13565b606091505b5091509150610d23828286610d42565b92505050949350505050565b600080823b905060008111915050919050565b60608315610d5257829050610e07565b600083511115610d655782518084602001fd5b816040517f08c379a00000000000000000000000000000000000000000000000000000000081526004018080602001828103825283818151815260200191508051906020019080838360005b83811015610dcc578082015181840152602081019050610db1565b50505050905090810190601f168015610df95780820380516001836020036101000a031916815260200191505b509250505060405180910390fd5b939250505056fe416464726573733a20696e73756666696369656e742062616c616e636520666f722063616c6c5361666545524332303a204552433230206f7065726174696f6e20646964206e6f742073756363656564a26469706673582212200fa5b55176a0f18267070d2280673a4e31fd9e57a22c22575127b2fb5ddcfbed64736f6c634300060c0033",
  "immutableReferences": {},
  "source": "// SPDX-License-Identifier: SEE LICENSE IN LICENSE\npragma solidity 0.6.12;\n\nimport \"./interfaces/ITokenHolder.sol\";\n\nimport \"./Owned.sol\";\nimport \"./Utils.sol\";\n\nimport \"../token/ReserveToken.sol\";\n\n/**\n * @dev This contract provides a safety mechanism for allowing the owner to\n * send tokens that were sent to the contract by mistake back to the sender.\n *\n * We consider every contract to be a 'token holder' since it's currently not possible\n * for a contract to deny receiving tokens.\n */\ncontract TokenHolder is ITokenHolder, Owned, Utils {\n    using ReserveToken for IReserveToken;\n\n    // prettier-ignore\n    receive() external payable override virtual {}\n\n    /**\n     * @dev withdraws funds held by the contract and sends them to an account\n     * can only be called by the owner\n     *\n     * @param reserveToken reserve token contract address\n     * @param to account to receive the new amount\n     * @param amount amount to withdraw\n     */\n    function withdrawTokens(\n        IReserveToken reserveToken,\n        address payable to,\n        uint256 amount\n    ) public virtual override ownerOnly validAddress(to) {\n        reserveToken.safeTransfer(to, amount);\n    }\n\n    /**\n     * @dev withdraws multiple funds held by the contract and sends them to an account\n     * can only be called by the owner\n     *\n     * @param reserveTokens reserve tokens contract addresses\n     * @param to account to receive the new amount\n     * @param amounts amounts to withdraw\n     */\n    function withdrawTokensMultiple(\n        IReserveToken[] calldata reserveTokens,\n        address payable to,\n        uint256[] calldata amounts\n    ) public virtual override ownerOnly validAddress(to) {\n        uint256 length = reserveTokens.length;\n        require(length == amounts.length, \"ERR_INVALID_LENGTH\");\n\n        for (uint256 i = 0; i < length; ++i) {\n            reserveTokens[i].safeTransfer(to, amounts[i]);\n        }\n    }\n}\n",
  "sourcePath": "D:\\Work Space\\bancor_project\\core\\contracts\\utility\\TokenHolder.sol",
  "compiler": {
    "name": "solc",
    "version": "0.6.12+commit.27d51765.Emscripten.clang"
  },
  "schemaVersion": "3.4.3",
  "updatedAt": "2021-08-23T03:19:30.292Z",
  "devdoc": {
    "details": "This contract provides a safety mechanism for allowing the owner to send tokens that were sent to the contract by mistake back to the sender. We consider every contract to be a 'token holder' since it's currently not possible for a contract to deny receiving tokens.",
    "kind": "dev",
    "methods": {
      "acceptOwnership()": {
        "details": "used by a new owner to accept an ownership transfer"
      },
      "transferOwnership(address)": {
        "details": "allows transferring the contract ownership the new owner still needs to accept the transfer can only be called by the contract owner",
        "params": {
          "_newOwner": "new contract owner"
        }
      },
      "withdrawTokens(address,address,uint256)": {
        "details": "withdraws funds held by the contract and sends them to an account can only be called by the owner",
        "params": {
          "amount": "amount to withdraw",
          "reserveToken": "reserve token contract address",
          "to": "account to receive the new amount"
        }
      },
      "withdrawTokensMultiple(address[],address,uint256[])": {
        "details": "withdraws multiple funds held by the contract and sends them to an account can only be called by the owner",
        "params": {
          "amounts": "amounts to withdraw",
          "reserveTokens": "reserve tokens contract addresses",
          "to": "account to receive the new amount"
        }
      }
    },
    "version": 1
  },
  "userdoc": {
    "kind": "user",
    "methods": {},
    "version": 1
  }
}