{
  "contractName": "VortexBurner",
  "abi": [
    {
      "inputs": [
        {
          "internalType": "contract IERC20",
          "name": "networkToken",
          "type": "address"
        },
        {
          "internalType": "contract ITokenGovernance",
          "name": "govTokenGovernance",
          "type": "address"
        },
        {
          "internalType": "contract IContractRegistry",
          "name": "registry",
          "type": "address"
        }
      ],
      "stateMutability": "nonpayable",
      "type": "constructor"
    },
    {
      "anonymous": false,
      "inputs": [
        {
          "indexed": false,
          "internalType": "uint32",
          "name": "prevBurnReward",
          "type": "uint32"
        },
        {
          "indexed": false,
          "internalType": "uint32",
          "name": "newBurnReward",
          "type": "uint32"
        },
        {
          "indexed": false,
          "internalType": "uint256",
          "name": "prevMaxBurnRewardAmount",
          "type": "uint256"
        },
        {
          "indexed": false,
          "internalType": "uint256",
          "name": "newMaxBurnRewardAmount",
          "type": "uint256"
        }
      ],
      "name": "BurnRewardUpdated",
      "type": "event"
    },
    {
      "anonymous": false,
      "inputs": [
        {
          "indexed": false,
          "internalType": "contract IReserveToken[]",
          "name": "reserveTokens",
          "type": "address[]"
        },
        {
          "indexed": false,
          "internalType": "uint256",
          "name": "sourceAmount",
          "type": "uint256"
        },
        {
          "indexed": false,
          "internalType": "uint256",
          "name": "burnedAmount",
          "type": "uint256"
        }
      ],
      "name": "Burned",
      "type": "event"
    },
    {
      "anonymous": false,
      "inputs": [
        {
          "indexed": false,
          "internalType": "contract IReserveToken",
          "name": "reserveToken",
          "type": "address"
        },
        {
          "indexed": false,
          "internalType": "uint256",
          "name": "sourceAmount",
          "type": "uint256"
        },
        {
          "indexed": false,
          "internalType": "uint256",
          "name": "targetAmount",
          "type": "uint256"
        }
      ],
      "name": "Converted",
      "type": "event"
    },
    {
      "anonymous": false,
      "inputs": [
        {
          "indexed": true,
          "internalType": "address",
          "name": "_prevOwner",
          "type": "address"
        },
        {
          "indexed": true,
          "internalType": "address",
          "name": "_newOwner",
          "type": "address"
        }
      ],
      "name": "OwnerUpdate",
      "type": "event"
    },
    {
      "inputs": [],
      "name": "acceptOwnership",
      "outputs": [],
      "stateMutability": "nonpayable",
      "type": "function"
    },
    {
      "inputs": [],
      "name": "newOwner",
      "outputs": [
        {
          "internalType": "address",
          "name": "",
          "type": "address"
        }
      ],
      "stateMutability": "view",
      "type": "function"
    },
    {
      "inputs": [],
      "name": "onlyOwnerCanUpdateRegistry",
      "outputs": [
        {
          "internalType": "bool",
          "name": "",
          "type": "bool"
        }
      ],
      "stateMutability": "view",
      "type": "function"
    },
    {
      "inputs": [],
      "name": "owner",
      "outputs": [
        {
          "internalType": "address",
          "name": "",
          "type": "address"
        }
      ],
      "stateMutability": "view",
      "type": "function"
    },
    {
      "inputs": [],
      "name": "prevRegistry",
      "outputs": [
        {
          "internalType": "contract IContractRegistry",
          "name": "",
          "type": "address"
        }
      ],
      "stateMutability": "view",
      "type": "function"
    },
    {
      "inputs": [],
      "name": "registry",
      "outputs": [
        {
          "internalType": "contract IContractRegistry",
          "name": "",
          "type": "address"
        }
      ],
      "stateMutability": "view",
      "type": "function"
    },
    {
      "inputs": [],
      "name": "restoreRegistry",
      "outputs": [],
      "stateMutability": "nonpayable",
      "type": "function"
    },
    {
      "inputs": [
        {
          "internalType": "bool",
          "name": "_onlyOwnerCanUpdateRegistry",
          "type": "bool"
        }
      ],
      "name": "restrictRegistryUpdate",
      "outputs": [],
      "stateMutability": "nonpayable",
      "type": "function"
    },
    {
      "inputs": [
        {
          "internalType": "address",
          "name": "_newOwner",
          "type": "address"
        }
      ],
      "name": "transferOwnership",
      "outputs": [],
      "stateMutability": "nonpayable",
      "type": "function"
    },
    {
      "inputs": [],
      "name": "updateRegistry",
      "outputs": [],
      "stateMutability": "nonpayable",
      "type": "function"
    },
    {
      "stateMutability": "payable",
      "type": "receive"
    },
    {
      "inputs": [],
      "name": "burnReward",
      "outputs": [
        {
          "internalType": "uint32",
          "name": "",
          "type": "uint32"
        },
        {
          "internalType": "uint256",
          "name": "",
          "type": "uint256"
        }
      ],
      "stateMutability": "view",
      "type": "function"
    },
    {
      "inputs": [
        {
          "internalType": "uint32",
          "name": "newBurnReward",
          "type": "uint32"
        },
        {
          "internalType": "uint256",
          "name": "newMaxBurnRewardAmount",
          "type": "uint256"
        }
      ],
      "name": "setBurnReward",
      "outputs": [],
      "stateMutability": "nonpayable",
      "type": "function"
    },
    {
      "inputs": [],
      "name": "totalBurnedAmount",
      "outputs": [
        {
          "internalType": "uint256",
          "name": "",
          "type": "uint256"
        }
      ],
      "stateMutability": "view",
      "type": "function"
    },
    {
      "inputs": [
        {
          "internalType": "contract IReserveToken[]",
          "name": "reserveTokens",
          "type": "address[]"
        }
      ],
      "name": "burn",
      "outputs": [],
      "stateMutability": "nonpayable",
      "type": "function"
    },
    {
      "inputs": [
        {
          "internalType": "address",
          "name": "newOwner",
          "type": "address"
        }
      ],
      "name": "transferNetworkFeeWalletOwnership",
      "outputs": [],
      "stateMutability": "nonpayable",
      "type": "function"
    },
    {
      "inputs": [],
      "name": "acceptNetworkFeeOwnership",
      "outputs": [],
      "stateMutability": "nonpayable",
      "type": "function"
    }
  ],
  "bytecode": "0x60e060405260016002553480156200001657600080fd5b506040516200333e3803806200333e833981810160405260608110156200003c57600080fd5b8101908080519060200190929190805190602001909291908051906020019092919050505080336000806101000a81548173ffffffffffffffffffffffffffffffffffffffff021916908373ffffffffffffffffffffffffffffffffffffffff16021790555080620000b4816200028f60201b60201c565b81600360006101000a81548173ffffffffffffffffffffffffffffffffffffffff021916908373ffffffffffffffffffffffffffffffffffffffff16021790555081600460006101000a81548173ffffffffffffffffffffffffffffffffffffffff021916908373ffffffffffffffffffffffffffffffffffffffff1602179055505050826200014a816200028f60201b60201c565b826200015c816200028f60201b60201c565b8473ffffffffffffffffffffffffffffffffffffffff1660808173ffffffffffffffffffffffffffffffffffffffff1660601b815250508373ffffffffffffffffffffffffffffffffffffffff1660c08173ffffffffffffffffffffffffffffffffffffffff1660601b815250508373ffffffffffffffffffffffffffffffffffffffff1663fc0c546a6040518163ffffffff1660e01b815260040160206040518083038186803b1580156200021157600080fd5b505afa15801562000226573d6000803e3d6000fd5b505050506040513d60208110156200023d57600080fd5b810190808051906020019092919050505073ffffffffffffffffffffffffffffffffffffffff1660a08173ffffffffffffffffffffffffffffffffffffffff1660601b81525050505050505062000336565b600073ffffffffffffffffffffffffffffffffffffffff168173ffffffffffffffffffffffffffffffffffffffff16141562000333576040517f08c379a00000000000000000000000000000000000000000000000000000000081526004018080602001828103825260138152602001807f4552525f494e56414c49445f414444524553530000000000000000000000000081525060200191505060405180910390fd5b50565b60805160601c60a05160601c60c05160601c612f9b620003a3600039806110f5525080610bc15280610fa05280611cb05280611e9e5280611f10525080610b6c5280610e2d52806111895280611c595280611d575280611e2f528061205552806124785250612f9b6000f3fe6080604052600436106100f75760003560e01c8063769b90b91161008a578063afd25caa11610059578063afd25caa146103e3578063b4a176d3146103fa578063d4ee1d9014610411578063f2fde38b14610452576100fe565b8063769b90b9146102ff57806379ba50971461034a5780637b103999146103615780638da5cb5b146103a2576100fe565b806349d10b64116100c657806349d10b64146101d05780634aca7fb2146101e757806361cd756e146102385780636c5d615614610279576100fe565b8063024c7ec71461010357806302a79454146101405780632fe8a6ad1461017857806335ab5f64146101a5576100fe565b366100fe57005b600080fd5b34801561010f57600080fd5b5061013e6004803603602081101561012657600080fd5b810190808035151590602001909291905050506104a3565b005b34801561014c57600080fd5b506101556104c8565b604051808363ffffffff1681526020018281526020019250505060405180910390f35b34801561018457600080fd5b5061018d6104e9565b60405180821515815260200191505060405180910390f35b3480156101b157600080fd5b506101ba6104fc565b6040518082815260200191505060405180910390f35b3480156101dc57600080fd5b506101e5610506565b005b3480156101f357600080fd5b506102366004803603602081101561020a57600080fd5b81019080803573ffffffffffffffffffffffffffffffffffffffff1690602001909291905050506108fe565b005b34801561024457600080fd5b5061024d610991565b604051808273ffffffffffffffffffffffffffffffffffffffff16815260200191505060405180910390f35b34801561028557600080fd5b506102fd6004803603602081101561029c57600080fd5b81019080803590602001906401000000008111156102b957600080fd5b8201836020820111156102cb57600080fd5b803590602001918460208302840111640100000000831117156102ed57600080fd5b90919293919293905050506109b7565b005b34801561030b57600080fd5b506103486004803603604081101561032257600080fd5b81019080803563ffffffff169060200190929190803590602001909291905050506112df565b005b34801561035657600080fd5b5061035f61138d565b005b34801561036d57600080fd5b50610376611592565b604051808273ffffffffffffffffffffffffffffffffffffffff16815260200191505060405180910390f35b3480156103ae57600080fd5b506103b76115b8565b604051808273ffffffffffffffffffffffffffffffffffffffff16815260200191505060405180910390f35b3480156103ef57600080fd5b506103f86115dc565b005b34801561040657600080fd5b5061040f61164d565b005b34801561041d57600080fd5b506104266116ba565b604051808273ffffffffffffffffffffffffffffffffffffffff16815260200191505060405180910390f35b34801561045e57600080fd5b506104a16004803603602081101561047557600080fd5b81019080803573ffffffffffffffffffffffffffffffffffffffff1690602001909291905050506116e0565b005b6104ab6117ee565b80600460146101000a81548160ff02191690831515021790555050565b600080600460159054906101000a900463ffffffff16600554915091509091565b600460149054906101000a900460ff1681565b6000600654905090565b60008054906101000a900473ffffffffffffffffffffffffffffffffffffffff1673ffffffffffffffffffffffffffffffffffffffff163373ffffffffffffffffffffffffffffffffffffffff16148061056d5750600460149054906101000a900460ff16155b6105df576040517f08c379a00000000000000000000000000000000000000000000000000000000081526004018080602001828103825260118152602001807f4552525f4143434553535f44454e49454400000000000000000000000000000081525060200191505060405180910390fd5b600061060a7f436f6e74726163745265676973747279000000000000000000000000000000006118b1565b9050600360009054906101000a900473ffffffffffffffffffffffffffffffffffffffff1673ffffffffffffffffffffffffffffffffffffffff168173ffffffffffffffffffffffffffffffffffffffff16141580156106975750600073ffffffffffffffffffffffffffffffffffffffff168173ffffffffffffffffffffffffffffffffffffffff1614155b610709576040517f08c379a00000000000000000000000000000000000000000000000000000000081526004018080602001828103825260148152602001807f4552525f494e56414c49445f524547495354525900000000000000000000000081525060200191505060405180910390fd5b600073ffffffffffffffffffffffffffffffffffffffff168173ffffffffffffffffffffffffffffffffffffffff1663bb34534c7f436f6e74726163745265676973747279000000000000000000000000000000006040518263ffffffff1660e01b81526004018082815260200191505060206040518083038186803b15801561079257600080fd5b505afa1580156107a6573d6000803e3d6000fd5b505050506040513d60208110156107bc57600080fd5b810190808051906020019092919050505073ffffffffffffffffffffffffffffffffffffffff161415610857576040517f08c379a00000000000000000000000000000000000000000000000000000000081526004018080602001828103825260148152602001807f4552525f494e56414c49445f524547495354525900000000000000000000000081525060200191505060405180910390fd5b600360009054906101000a900473ffffffffffffffffffffffffffffffffffffffff16600460006101000a81548173ffffffffffffffffffffffffffffffffffffffff021916908373ffffffffffffffffffffffffffffffffffffffff16021790555080600360006101000a81548173ffffffffffffffffffffffffffffffffffffffff021916908373ffffffffffffffffffffffffffffffffffffffff16021790555050565b6109066117ee565b61090e611968565b73ffffffffffffffffffffffffffffffffffffffff1663f2fde38b826040518263ffffffff1660e01b8152600401808273ffffffffffffffffffffffffffffffffffffffff168152602001915050600060405180830381600087803b15801561097657600080fd5b505af115801561098a573d6000803e3d6000fd5b5050505050565b600460009054906101000a900473ffffffffffffffffffffffffffffffffffffffff1681565b6109bf6119f7565b6002808190555060006109d0611968565b90506109da612e9d565b6109e5848484611a71565b90508173ffffffffffffffffffffffffffffffffffffffff166308506df785853085602001516040518563ffffffff1660e01b815260040180806020018473ffffffffffffffffffffffffffffffffffffffff168152602001806020018381038352878782818152602001925060200280828437600081840152601f19601f820116905080830192505050838103825284818151815260200191508051906020019060200280838360005b83811015610aab578082015181840152602081019050610a90565b505050509050019650505050505050600060405180830381600087803b158015610ad457600080fd5b505af1158015610ae8573d6000803e3d6000fd5b505050506000610af6611f86565b905060005b826000015151811015610e0d57600083602001518281518110610b1a57fe5b602002602001015190506000811415610b335750610e02565b606084600001518381518110610b4557fe5b60200260200101519050600081600081518110610b5e57fe5b6020026020010151905060007f000000000000000000000000000000000000000000000000000000000000000073ffffffffffffffffffffffffffffffffffffffff168273ffffffffffffffffffffffffffffffffffffffff161480610c0f57507f000000000000000000000000000000000000000000000000000000000000000073ffffffffffffffffffffffffffffffffffffffff168273ffffffffffffffffffffffffffffffffffffffff16145b15610c1d5750505050610e02565b610c3c8273ffffffffffffffffffffffffffffffffffffffff16611fb6565b15610c4957839050610c75565b610c7486858473ffffffffffffffffffffffffffffffffffffffff166120029092919063ffffffff16565b5b60008673ffffffffffffffffffffffffffffffffffffffff1663b77d239b8386886001306000806040518863ffffffff1660e01b815260040180806020018781526020018681526020018573ffffffffffffffffffffffffffffffffffffffff1681526020018473ffffffffffffffffffffffffffffffffffffffff168152602001838152602001828103825288818151815260200191508051906020019060200280838360005b83811015610d38578082015181840152602081019050610d1d565b505050509050019750505050505050506020604051808303818588803b158015610d6157600080fd5b505af1158015610d75573d6000803e3d6000fd5b50505050506040513d6020811015610d8c57600080fd5b810190808051906020019092919050505090507fe6a45eea08a42f7c3f90f290e8ecf15e16174981943adf509fc9ea49808a64c6838683604051808473ffffffffffffffffffffffffffffffffffffffff168152602001838152602001828152602001935050505060405180910390a150505050505b806001019050610afb565b50600080610e1961204e565b915091506000821115610f9c57610e7183837f000000000000000000000000000000000000000000000000000000000000000073ffffffffffffffffffffffffffffffffffffffff166121719092919063ffffffff16565b8273ffffffffffffffffffffffffffffffffffffffff1663b77d239b8560400151846001306000806040518763ffffffff1660e01b815260040180806020018781526020018681526020018573ffffffffffffffffffffffffffffffffffffffff1681526020018473ffffffffffffffffffffffffffffffffffffffff168152602001838152602001828103825288818151815260200191508051906020019060200280838360005b83811015610f35578082015181840152602081019050610f1a565b50505050905001975050505050505050602060405180830381600087803b158015610f5f57600080fd5b505af1158015610f73573d6000803e3d6000fd5b505050506040513d6020811015610f8957600080fd5b8101908080519060200190929190505050505b60007f000000000000000000000000000000000000000000000000000000000000000073ffffffffffffffffffffffffffffffffffffffff166370a08231306040518263ffffffff1660e01b8152600401808273ffffffffffffffffffffffffffffffffffffffff16815260200191505060206040518083038186803b15801561102557600080fd5b505afa158015611039573d6000803e3d6000fd5b505050506040513d602081101561104f57600080fd5b81019080805190602001909291905050509050600081116110d8576040517f08c379a00000000000000000000000000000000000000000000000000000000081526004018080602001828103825260148152602001807f4552525f5a45524f5f4255524e5f414d4f554e5400000000000000000000000081525060200191505060405180910390fd5b6110ed816006546122b890919063ffffffff16565b6006819055507f000000000000000000000000000000000000000000000000000000000000000073ffffffffffffffffffffffffffffffffffffffff166342966c68826040518263ffffffff1660e01b815260040180828152602001915050600060405180830381600087803b15801561116657600080fd5b505af115801561117a573d6000803e3d6000fd5b505050506000821115611255577f000000000000000000000000000000000000000000000000000000000000000073ffffffffffffffffffffffffffffffffffffffff1663a9059cbb33846040518363ffffffff1660e01b8152600401808373ffffffffffffffffffffffffffffffffffffffff16815260200182815260200192505050602060405180830381600087803b15801561121857600080fd5b505af115801561122c573d6000803e3d6000fd5b505050506040513d602081101561124257600080fd5b8101908080519060200190929190505050505b7f8d1a3aa2e14a1c054c9817979380a072bdf25ccff4f74e29d40616a716cb538888888486018460405180806020018481526020018381526020018281038252868682818152602001925060200280828437600081840152601f19601f8201169050808301925050509550505050505060405180910390a150505050505060016002819055505050565b6112e76117ee565b816112f181612340565b7f71d9eda78517255f4f5f721d1855a56406b2daf72b2beedc9bcdc3f7fcee1753600460159054906101000a900463ffffffff168460055485604051808563ffffffff1681526020018463ffffffff16815260200183815260200182815260200194505050505060405180910390a182600460156101000a81548163ffffffff021916908363ffffffff16021790555081600581905550505050565b600160009054906101000a900473ffffffffffffffffffffffffffffffffffffffff1673ffffffffffffffffffffffffffffffffffffffff163373ffffffffffffffffffffffffffffffffffffffff1614611450576040517f08c379a00000000000000000000000000000000000000000000000000000000081526004018080602001828103825260118152602001807f4552525f4143434553535f44454e49454400000000000000000000000000000081525060200191505060405180910390fd5b600160009054906101000a900473ffffffffffffffffffffffffffffffffffffffff1673ffffffffffffffffffffffffffffffffffffffff1660008054906101000a900473ffffffffffffffffffffffffffffffffffffffff1673ffffffffffffffffffffffffffffffffffffffff167f343765429aea5a34b3ff6a3785a98a5abb2597aca87bfbb58632c173d585373a60405160405180910390a3600160009054906101000a900473ffffffffffffffffffffffffffffffffffffffff166000806101000a81548173ffffffffffffffffffffffffffffffffffffffff021916908373ffffffffffffffffffffffffffffffffffffffff1602179055506000600160006101000a81548173ffffffffffffffffffffffffffffffffffffffff021916908373ffffffffffffffffffffffffffffffffffffffff160217905550565b600360009054906101000a900473ffffffffffffffffffffffffffffffffffffffff1681565b60008054906101000a900473ffffffffffffffffffffffffffffffffffffffff1681565b6115e46117ee565b6115ec611968565b73ffffffffffffffffffffffffffffffffffffffff166379ba50976040518163ffffffff1660e01b8152600401600060405180830381600087803b15801561163357600080fd5b505af1158015611647573d6000803e3d6000fd5b50505050565b6116556117ee565b600460009054906101000a900473ffffffffffffffffffffffffffffffffffffffff16600360006101000a81548173ffffffffffffffffffffffffffffffffffffffff021916908373ffffffffffffffffffffffffffffffffffffffff160217905550565b600160009054906101000a900473ffffffffffffffffffffffffffffffffffffffff1681565b6116e86117ee565b60008054906101000a900473ffffffffffffffffffffffffffffffffffffffff1673ffffffffffffffffffffffffffffffffffffffff168173ffffffffffffffffffffffffffffffffffffffff1614156117aa576040517f08c379a000000000000000000000000000000000000000000000000000000000815260040180806020018281038252600e8152602001807f4552525f53414d455f4f574e455200000000000000000000000000000000000081525060200191505060405180910390fd5b80600160006101000a81548173ffffffffffffffffffffffffffffffffffffffff021916908373ffffffffffffffffffffffffffffffffffffffff16021790555050565b60008054906101000a900473ffffffffffffffffffffffffffffffffffffffff1673ffffffffffffffffffffffffffffffffffffffff163373ffffffffffffffffffffffffffffffffffffffff16146118af576040517f08c379a00000000000000000000000000000000000000000000000000000000081526004018080602001828103825260118152602001807f4552525f4143434553535f44454e49454400000000000000000000000000000081525060200191505060405180910390fd5b565b6000600360009054906101000a900473ffffffffffffffffffffffffffffffffffffffff1673ffffffffffffffffffffffffffffffffffffffff1663bb34534c836040518263ffffffff1660e01b81526004018082815260200191505060206040518083038186803b15801561192657600080fd5b505afa15801561193a573d6000803e3d6000fd5b505050506040513d602081101561195057600080fd5b81019080805190602001909291905050509050919050565b60006119726123c8565b73ffffffffffffffffffffffffffffffffffffffff16633e4565046040518163ffffffff1660e01b815260040160206040518083038186803b1580156119b757600080fd5b505afa1580156119cb573d6000803e3d6000fd5b505050506040513d60208110156119e157600080fd5b8101908080519060200190929190505050905090565b600160025414611a6f576040517f08c379a000000000000000000000000000000000000000000000000000000000815260040180806020018281038252600e8152602001807f4552525f5245454e5452414e435900000000000000000000000000000000000081525060200191505060405180910390fd5b565b611a79612e9d565b6000611a836123f8565b9050611a8d612e9d565b60405180606001604052808787905067ffffffffffffffff81118015611ab257600080fd5b50604051908082528060200260200182016040528015611ae657816020015b6060815260200190600190039081611ad15790505b5081526020018787905067ffffffffffffffff81118015611b0657600080fd5b50604051908082528060200260200182016040528015611b355781602001602082028036833780820191505090505b508152602001600367ffffffffffffffff81118015611b5357600080fd5b50604051908082528060200260200182016040528015611b825781602001602082028036833780820191505090505b50815250905060005b86869050811015611e2c576000878783818110611ba457fe5b9050602002013573ffffffffffffffffffffffffffffffffffffffff1690506060600367ffffffffffffffff81118015611bdd57600080fd5b50604051908082528060200260200182016040528015611c0c5781602001602082028036833780820191505090505b5090508181600081518110611c1d57fe5b602002602001019073ffffffffffffffffffffffffffffffffffffffff16908173ffffffffffffffffffffffffffffffffffffffff16815250507f000000000000000000000000000000000000000000000000000000000000000073ffffffffffffffffffffffffffffffffffffffff168273ffffffffffffffffffffffffffffffffffffffff1614158015611cff57507f000000000000000000000000000000000000000000000000000000000000000073ffffffffffffffffffffffffffffffffffffffff168273ffffffffffffffffffffffffffffffffffffffff1614155b15611dbe57611d0e8286612428565b81600181518110611d1b57fe5b602002602001019073ffffffffffffffffffffffffffffffffffffffff16908173ffffffffffffffffffffffffffffffffffffffff16815250507f000000000000000000000000000000000000000000000000000000000000000081600281518110611d8357fe5b602002602001019073ffffffffffffffffffffffffffffffffffffffff16908173ffffffffffffffffffffffffffffffffffffffff16815250505b8084600001518481518110611dcf57fe5b6020026020010181905250611e03878373ffffffffffffffffffffffffffffffffffffffff166127be90919063ffffffff16565b84602001518481518110611e1357fe5b6020026020010181815250505050806001019050611b8b565b507f00000000000000000000000000000000000000000000000000000000000000008160400151600081518110611e5f57fe5b602002602001019073ffffffffffffffffffffffffffffffffffffffff16908173ffffffffffffffffffffffffffffffffffffffff1681525050611ec37f000000000000000000000000000000000000000000000000000000000000000083612428565b8160400151600181518110611ed457fe5b602002602001019073ffffffffffffffffffffffffffffffffffffffff16908173ffffffffffffffffffffffffffffffffffffffff16815250507f00000000000000000000000000000000000000000000000000000000000000008160400151600281518110611f4057fe5b602002602001019073ffffffffffffffffffffffffffffffffffffffff16908173ffffffffffffffffffffffffffffffffffffffff168152505080925050509392505050565b6000611fb17f42616e636f724e6574776f726b000000000000000000000000000000000000006118b1565b905090565b600073eeeeeeeeeeeeeeeeeeeeeeeeeeeeeeeeeeeeeeee73ffffffffffffffffffffffffffffffffffffffff168273ffffffffffffffffffffffffffffffffffffffff16149050919050565b61200b83611fb6565b1561201557612049565b6120488282612023866128a0565b73ffffffffffffffffffffffffffffffffffffffff166121719092919063ffffffff16565b5b505050565b60008060007f000000000000000000000000000000000000000000000000000000000000000073ffffffffffffffffffffffffffffffffffffffff166370a08231306040518263ffffffff1660e01b8152600401808273ffffffffffffffffffffffffffffffffffffffff16815260200191505060206040518083038186803b1580156120da57600080fd5b505afa1580156120ee573d6000803e3d6000fd5b505050506040513d602081101561210457600080fd5b810190808051906020019092919050505090506000612161620f424063ffffffff16612151600460159054906101000a900463ffffffff1663ffffffff16856128aa90919063ffffffff16565b8161215857fe5b04600554612930565b9050808203819350935050509091565b600081141561217f576122b3565b60008373ffffffffffffffffffffffffffffffffffffffff1663dd62ed3e30856040518363ffffffff1660e01b8152600401808373ffffffffffffffffffffffffffffffffffffffff1681526020018273ffffffffffffffffffffffffffffffffffffffff1681526020019250505060206040518083038186803b15801561220657600080fd5b505afa15801561221a573d6000803e3d6000fd5b505050506040513d602081101561223057600080fd5b8101908080519060200190929190505050905081811061225057506122b3565b6000811115612286576122858360008673ffffffffffffffffffffffffffffffffffffffff166129499092919063ffffffff16565b5b6122b183838673ffffffffffffffffffffffffffffffffffffffff166129499092919063ffffffff16565b505b505050565b600080828401905083811015612336576040517f08c379a000000000000000000000000000000000000000000000000000000000815260040180806020018281038252601b8152602001807f536166654d6174683a206164646974696f6e206f766572666c6f77000000000081525060200191505060405180910390fd5b8091505092915050565b620f424063ffffffff168163ffffffff1611156123c5576040517f08c379a000000000000000000000000000000000000000000000000000000000815260040180806020018281038252600f8152602001807f4552525f494e56414c49445f464545000000000000000000000000000000000081525060200191505060405180910390fd5b50565b60006123f37f4e6574776f726b53657474696e677300000000000000000000000000000000006118b1565b905090565b60006124237f42616e636f72436f6e76657274657252656769737472790000000000000000006118b1565b905090565b60006060600267ffffffffffffffff8111801561244457600080fd5b506040519080825280602002602001820160405280156124735781602001602082028036833780820191505090505b5090507f0000000000000000000000000000000000000000000000000000000000000000816000815181106124a457fe5b602002602001019073ffffffffffffffffffffffffffffffffffffffff16908173ffffffffffffffffffffffffffffffffffffffff168152505083816001815181106124ec57fe5b602002602001019073ffffffffffffffffffffffffffffffffffffffff16908173ffffffffffffffffffffffffffffffffffffffff16815250506060600267ffffffffffffffff8111801561254057600080fd5b5060405190808252806020026020018201604052801561256f5781602001602082028036833780820191505090505b5090506002620f424063ffffffff168161258557fe5b048160008151811061259357fe5b602002602001019063ffffffff16908163ffffffff16815250506002620f424063ffffffff16816125c057fe5b04816001815181106125ce57fe5b602002602001019063ffffffff16908163ffffffff168152505060008473ffffffffffffffffffffffffffffffffffffffff16631d3fccd5600385856040518463ffffffff1660e01b8152600401808461ffff1681526020018060200180602001838103835285818151815260200191508051906020019060200280838360005b8381101561266a57808201518184015260208101905061264f565b50505050905001838103825284818151815260200191508051906020019060200280838360005b838110156126ac578082015181840152602081019050612691565b505050509050019550505050505060206040518083038186803b1580156126d257600080fd5b505afa1580156126e6573d6000803e3d6000fd5b505050506040513d60208110156126fc57600080fd5b81019080805190602001909291905050509050600073ffffffffffffffffffffffffffffffffffffffff168173ffffffffffffffffffffffffffffffffffffffff1614156127b2576040517f08c379a00000000000000000000000000000000000000000000000000000000081526004018080602001828103825260198152602001807f4552525f494e56414c49445f524553455256455f544f4b454e0000000000000081525060200191505060405180910390fd5b80935050505092915050565b60006127c983611fb6565b156127ed578173ffffffffffffffffffffffffffffffffffffffff1631905061289a565b6127f6836128a0565b73ffffffffffffffffffffffffffffffffffffffff166370a08231836040518263ffffffff1660e01b8152600401808273ffffffffffffffffffffffffffffffffffffffff16815260200191505060206040518083038186803b15801561285c57600080fd5b505afa158015612870573d6000803e3d6000fd5b505050506040513d602081101561288657600080fd5b810190808051906020019092919050505090505b92915050565b6000819050919050565b6000808314156128bd576000905061292a565b60008284029050828482816128ce57fe5b0414612925576040517f08c379a0000000000000000000000000000000000000000000000000000000008152600401808060200182810382526021815260200180612ee56021913960400191505060405180910390fd5b809150505b92915050565b600081831061293f5781612941565b825b905092915050565b6000811480612a17575060008373ffffffffffffffffffffffffffffffffffffffff1663dd62ed3e30856040518363ffffffff1660e01b8152600401808373ffffffffffffffffffffffffffffffffffffffff1681526020018273ffffffffffffffffffffffffffffffffffffffff1681526020019250505060206040518083038186803b1580156129da57600080fd5b505afa1580156129ee573d6000803e3d6000fd5b505050506040513d6020811015612a0457600080fd5b8101908080519060200190929190505050145b612a6c576040517f08c379a0000000000000000000000000000000000000000000000000000000008152600401808060200182810382526036815260200180612f306036913960400191505060405180910390fd5b612b098363095ea7b360e01b8484604051602401808373ffffffffffffffffffffffffffffffffffffffff16815260200182815260200192505050604051602081830303815290604052907bffffffffffffffffffffffffffffffffffffffffffffffffffffffff19166020820180517bffffffffffffffffffffffffffffffffffffffffffffffffffffffff8381831617835250505050612b0e565b505050565b6060612b70826040518060400160405280602081526020017f5361666545524332303a206c6f772d6c6576656c2063616c6c206661696c65648152508573ffffffffffffffffffffffffffffffffffffffff16612bfd9092919063ffffffff16565b9050600081511115612bf857808060200190516020811015612b9157600080fd5b8101908080519060200190929190505050612bf7576040517f08c379a000000000000000000000000000000000000000000000000000000000815260040180806020018281038252602a815260200180612f06602a913960400191505060405180910390fd5b5b505050565b6060612c0c8484600085612c15565b90509392505050565b606082471015612c70576040517f08c379a0000000000000000000000000000000000000000000000000000000008152600401808060200182810382526026815260200180612ebf6026913960400191505060405180910390fd5b612c7985612dbe565b612ceb576040517f08c379a000000000000000000000000000000000000000000000000000000000815260040180806020018281038252601d8152602001807f416464726573733a2063616c6c20746f206e6f6e2d636f6e747261637400000081525060200191505060405180910390fd5b600060608673ffffffffffffffffffffffffffffffffffffffff1685876040518082805190602001908083835b60208310612d3b5780518252602082019150602081019050602083039250612d18565b6001836020036101000a03801982511681845116808217855250505050505090500191505060006040518083038185875af1925050503d8060008114612d9d576040519150601f19603f3d011682016040523d82523d6000602084013e612da2565b606091505b5091509150612db2828286612dd1565b92505050949350505050565b600080823b905060008111915050919050565b60608315612de157829050612e96565b600083511115612df45782518084602001fd5b816040517f08c379a00000000000000000000000000000000000000000000000000000000081526004018080602001828103825283818151815260200191508051906020019080838360005b83811015612e5b578082015181840152602081019050612e40565b50505050905090810190601f168015612e885780820380516001836020036101000a031916815260200191505b509250505060405180910390fd5b9392505050565b6040518060600160405280606081526020016060815260200160608152509056fe416464726573733a20696e73756666696369656e742062616c616e636520666f722063616c6c536166654d6174683a206d756c7469706c69636174696f6e206f766572666c6f775361666545524332303a204552433230206f7065726174696f6e20646964206e6f7420737563636565645361666545524332303a20617070726f76652066726f6d206e6f6e2d7a65726f20746f206e6f6e2d7a65726f20616c6c6f77616e6365a2646970667358221220765acf1bc92d63303f43a354d57f4033454d6d84df29c06fd307abd15d7a77f764736f6c634300060c0033",
  "immutableReferences": {
    "33217": [
      {
        "length": 32,
        "start": 2924
      },
      {
        "length": 32,
        "start": 3629
      },
      {
        "length": 32,
        "start": 4489
      },
      {
        "length": 32,
        "start": 7257
      },
      {
        "length": 32,
        "start": 7511
      },
      {
        "length": 32,
        "start": 7727
      },
      {
        "length": 32,
        "start": 8277
      },
      {
        "length": 32,
        "start": 9336
      }
    ],
    "33219": [
      {
        "length": 32,
        "start": 3009
      },
      {
        "length": 32,
        "start": 4000
      },
      {
        "length": 32,
        "start": 7344
      },
      {
        "length": 32,
        "start": 7838
      },
      {
        "length": 32,
        "start": 7952
      }
    ],
    "33221": [
      {
        "length": 32,
        "start": 4341
      }
    ]
  },
  "source": "// SPDX-License-Identifier: SEE LICENSE IN LICENSE\npragma solidity 0.6.12;\n\nimport \"@openzeppelin/contracts/math/SafeMath.sol\";\nimport \"@openzeppelin/contracts/math/Math.sol\";\n\n// import \"@bancor/token-governance/contracts/ITokenGovernance.sol\";\nimport \"../token-governance/TokenGovernance.sol\";\n\nimport \"../converter/interfaces/IConverterRegistry.sol\";\nimport \"../converter/interfaces/IConverter.sol\";\n\nimport \"../utility/ContractRegistryClient.sol\";\nimport \"../utility/Owned.sol\";\nimport \"../utility/Utils.sol\";\nimport \"../utility/ReentrancyGuard.sol\";\nimport \"../utility/interfaces/ITokenHolder.sol\";\n\nimport \"../token/ReserveToken.sol\";\n\nimport \"../INetworkSettings.sol\";\nimport \"../IBancorNetwork.sol\";\n\n/**\n * @dev This contract provides any user to trigger a network fee burning event\n */\ncontract VortexBurner is Owned, Utils, ReentrancyGuard, ContractRegistryClient {\n    using SafeMath for uint256;\n    using Math for uint256;\n    using ReserveToken for IReserveToken;\n    using SafeERC20 for IERC20;\n    using SafeERC20Ex for IERC20;\n\n    struct Strategy {\n        address[][] paths;\n        uint256[] amounts;\n        address[] govPath;\n    }\n\n    // the mechanism is only designed to work with 50/50 standard pool converters\n    uint32 private constant STANDARD_POOL_RESERVE_WEIGHT = PPM_RESOLUTION / 2;\n\n    // the type of the standard pool converter\n    uint16 private constant STANDARD_POOL_CONVERTER_TYPE = 3;\n\n    // the address of the network token\n    IERC20 private immutable _networkToken;\n\n    // the address of the governance token\n    IERC20 private immutable _govToken;\n\n    // the address of the governance token security module\n    ITokenGovernance private immutable _govTokenGovernance;\n\n    // the percentage of the converted network tokens to be sent to the caller of the burning event (in units of PPM)\n    uint32 private _burnReward;\n\n    // the maximum burn reward to be sent to the caller of the burning event\n    uint256 private _maxBurnRewardAmount;\n\n    // stores the total amount of the burned governance tokens\n    uint256 private _totalBurnedAmount;\n\n    /**\n     * @dev triggered when the burn reward has been changed\n     *\n     * @param prevBurnReward the previous burn reward (in units of PPM)\n     * @param newBurnReward the new burn reward (in units of PPM)\n     * @param prevMaxBurnRewardAmount the previous maximum burn reward\n     * @param newMaxBurnRewardAmount the new maximum burn reward\n     */\n    event BurnRewardUpdated(\n        uint32 prevBurnReward,\n        uint32 newBurnReward,\n        uint256 prevMaxBurnRewardAmount,\n        uint256 newMaxBurnRewardAmount\n    );\n\n    /**\n     * @dev triggered during conversion of a single token during the burning event\n     *\n     * @param reserveToken the converted reserve token\n     * @param sourceAmount the amount of the converted reserve token\n     * @param targetAmount the network token amount the token were converted to\n     */\n    event Converted(IReserveToken reserveToken, uint256 sourceAmount, uint256 targetAmount);\n\n    /**\n     * @dev triggered after a completed burning event\n     *\n     * @param reserveTokens the converted reserve tokens\n     * @param sourceAmount the total network token amount the tokens were converted to\n     * @param burnedAmount the total burned amount in the burning event\n     */\n    event Burned(IReserveToken[] reserveTokens, uint256 sourceAmount, uint256 burnedAmount);\n\n    /**\n     * @dev initializes a new VortexBurner contract\n     *\n     * @param networkToken the address of the network token\n     * @param govTokenGovernance the address of the governance token security module\n     * @param registry the address of the contract registry\n     */\n    constructor(\n        IERC20 networkToken,\n        ITokenGovernance govTokenGovernance,\n        IContractRegistry registry\n    )\n        public\n        ContractRegistryClient(registry)\n        validAddress(address(networkToken))\n        validAddress(address(govTokenGovernance))\n    {\n        _networkToken = networkToken;\n        _govTokenGovernance = govTokenGovernance;\n        _govToken = govTokenGovernance.token();\n    }\n\n    /**\n     * @dev ETH receive callback\n     */\n    receive() external payable {}\n\n    /**\n     * @dev returns the burn reward percentage and its maximum amount\n     *\n     * @return the burn reward percentage and its maximum amount\n     */\n    function burnReward() external view returns (uint32, uint256) {\n        return (_burnReward, _maxBurnRewardAmount);\n    }\n\n    /**\n     * @dev allows the owner to set the burn reward percentage and its maximum amount\n     *\n     * @param newBurnReward the percentage of the converted network tokens to be sent to the caller of the burning event (in units of PPM)\n     * @param newMaxBurnRewardAmount the maximum burn reward to be sent to the caller of the burning event\n     */\n    function setBurnReward(uint32 newBurnReward, uint256 newMaxBurnRewardAmount)\n        external\n        ownerOnly\n        validFee(newBurnReward)\n    {\n        emit BurnRewardUpdated(_burnReward, newBurnReward, _maxBurnRewardAmount, newMaxBurnRewardAmount);\n\n        _burnReward = newBurnReward;\n        _maxBurnRewardAmount = newMaxBurnRewardAmount;\n    }\n\n    /**\n     * @dev returns the total amount of the burned governance tokens\n     *\n     * @return total amount of the burned governance tokens\n     */\n    function totalBurnedAmount() external view returns (uint256) {\n        return _totalBurnedAmount;\n    }\n\n    /**\n     * @dev converts the provided tokens to governance tokens and burns them\n     *\n     * @param reserveTokens the reserve tokens to convert\n     */\n    function burn(IReserveToken[] calldata reserveTokens) external protected {\n        ITokenHolder feeWallet = networkFeeWallet();\n\n        // retrieve the burning strategy\n        Strategy memory strategy = burnStrategy(reserveTokens, feeWallet);\n\n        // withdraw all token/ETH amounts to the contract\n        feeWallet.withdrawTokensMultiple(reserveTokens, address(this), strategy.amounts);\n\n        // convert all amounts to the network token and record conversion amounts\n        IBancorNetwork network = bancorNetwork();\n\n        for (uint256 i = 0; i < strategy.paths.length; ++i) {\n            // avoid empty conversions\n            uint256 amount = strategy.amounts[i];\n            if (amount == 0) {\n                continue;\n            }\n\n            address[] memory path = strategy.paths[i];\n            IReserveToken reserveToken = IReserveToken(path[0]);\n            uint256 value = 0;\n\n            if (address(reserveToken) == address(_networkToken) || address(reserveToken) == address(_govToken)) {\n                // if the source token is the network or the governance token, we won't try to convert it, but rather\n                // include its amount in either the total amount of tokens to convert or burn.\n                continue;\n            }\n\n            if (reserveToken.isNativeToken()) {\n                // if the source token is actually an ETH reserve, make sure to pass its value to the network\n                value = amount;\n            } else {\n                // if the source token is a regular token, approve the network to withdraw the token amount\n                reserveToken.ensureApprove(address(network), amount);\n            }\n\n            // perform the actual conversion and optionally send ETH to the network\n            uint256 targetAmount = network.convertByPath{ value: value }(path, amount, 1, address(this), address(0), 0);\n\n            emit Converted(reserveToken, amount, targetAmount);\n        }\n\n        // calculate the burn reward and reduce it from the total amount to convert\n        (uint256 sourceAmount, uint256 burnRewardAmount) = netNetworkConversionAmounts();\n\n        // in case there are network tokens to burn, convert them to the governance token\n        if (sourceAmount > 0) {\n            // approve the network to withdraw the network token amount\n            _networkToken.ensureApprove(address(network), sourceAmount);\n\n            // convert the entire network token amount to the governance token\n            network.convertByPath(strategy.govPath, sourceAmount, 1, address(this), address(0), 0);\n        }\n\n        // get the governance token balance\n        uint256 govTokenBalance = _govToken.balanceOf(address(this));\n        require(govTokenBalance > 0, \"ERR_ZERO_BURN_AMOUNT\");\n\n        // update the stats of the burning event\n        _totalBurnedAmount = _totalBurnedAmount.add(govTokenBalance);\n\n        // burn the entire governance token balance\n        _govTokenGovernance.burn(govTokenBalance);\n\n        // if there is a burn reward, transfer it to the caller\n        if (burnRewardAmount > 0) {\n            _networkToken.transfer(msg.sender, burnRewardAmount);\n        }\n\n        emit Burned(reserveTokens, sourceAmount + burnRewardAmount, govTokenBalance);\n    }\n\n    /**\n     * @dev transfers the ownership of the network fee wallet\n     *\n     * @param newOwner the new owner of the network fee wallet\n     */\n    function transferNetworkFeeWalletOwnership(address newOwner) external ownerOnly {\n        networkFeeWallet().transferOwnership(newOwner);\n    }\n\n    /**\n     * @dev accepts the ownership of he network fee wallet\n     */\n    function acceptNetworkFeeOwnership() external ownerOnly {\n        networkFeeWallet().acceptOwnership();\n    }\n\n    /**\n     * @dev returns the burning strategy for the specified tokens\n     *\n     * @param reserveTokens the reserve tokens to convert\n     *\n     * @return the the burning strategy for the specified tokens\n     */\n    function burnStrategy(IReserveToken[] calldata reserveTokens, ITokenHolder feeWallet)\n        private\n        view\n        returns (Strategy memory)\n    {\n        IConverterRegistry registry = converterRegistry();\n\n        Strategy memory strategy =\n            Strategy({\n                paths: new address[][](reserveTokens.length),\n                amounts: new uint256[](reserveTokens.length),\n                govPath: new address[](3)\n            });\n\n        for (uint256 i = 0; i < reserveTokens.length; ++i) {\n            IReserveToken reserveToken = reserveTokens[i];\n\n            address[] memory path = new address[](3);\n            path[0] = address(reserveToken);\n\n            // don't look up for a converter for either the network or the governance token, since they are going to be\n            // handled in a special way during the burn itself\n            if (address(reserveToken) != address(_networkToken) && address(reserveToken) != address(_govToken)) {\n                path[1] = address(networkTokenConverterAnchor(reserveToken, registry));\n                path[2] = address(_networkToken);\n            }\n\n            strategy.paths[i] = path;\n\n            // make sure to retrieve the balance of either an ERC20 or an ETH reserve\n            strategy.amounts[i] = reserveToken.balanceOf(address(feeWallet));\n        }\n\n        // get the governance token converter path\n        strategy.govPath[0] = address(_networkToken);\n        strategy.govPath[1] = address(networkTokenConverterAnchor(IReserveToken(address(_govToken)), registry));\n        strategy.govPath[2] = address(_govToken);\n\n        return strategy;\n    }\n\n    /**\n     * @dev applies the burn reward on the whole balance and returns the net amount and the reward\n     *\n     * @return network token target amount\n     * @return burn reward amount\n     */\n    function netNetworkConversionAmounts() private view returns (uint256, uint256) {\n        uint256 amount = _networkToken.balanceOf(address(this));\n        uint256 burnRewardAmount = Math.min(amount.mul(_burnReward) / PPM_RESOLUTION, _maxBurnRewardAmount);\n\n        return (amount - burnRewardAmount, burnRewardAmount);\n    }\n\n    /**\n     * @dev finds the converter anchor of the 50/50 standard pool converter between the specified token and the network token\n     *\n     * @param reserveToken the source token\n     * @param converterRegistry the converter registry\n     *\n     * @return the converter anchor of the 50/50 standard pool converter between the specified token\n     */\n    function networkTokenConverterAnchor(IReserveToken reserveToken, IConverterRegistry converterRegistry)\n        private\n        view\n        returns (IConverterAnchor)\n    {\n        // initialize both the source and the target tokens\n        IReserveToken[] memory reserveTokens = new IReserveToken[](2);\n        reserveTokens[0] = IReserveToken(address(_networkToken));\n        reserveTokens[1] = reserveToken;\n\n        // make sure to only look up for 50/50 converters\n        uint32[] memory standardReserveWeights = new uint32[](2);\n        standardReserveWeights[0] = STANDARD_POOL_RESERVE_WEIGHT;\n        standardReserveWeights[1] = STANDARD_POOL_RESERVE_WEIGHT;\n\n        // find the standard pool converter between the specified token and the network token\n        IConverterAnchor anchor =\n            converterRegistry.getLiquidityPoolByConfig(\n                STANDARD_POOL_CONVERTER_TYPE,\n                reserveTokens,\n                standardReserveWeights\n            );\n        require(address(anchor) != address(0), \"ERR_INVALID_RESERVE_TOKEN\");\n\n        return anchor;\n    }\n\n    /**\n     * @dev returns the converter registry\n     *\n     * @return the converter registry\n     */\n    function converterRegistry() private view returns (IConverterRegistry) {\n        return IConverterRegistry(addressOf(CONVERTER_REGISTRY));\n    }\n\n    /**\n     * @dev returns the network contract\n     *\n     * @return the network contract\n     */\n    function bancorNetwork() private view returns (IBancorNetwork) {\n        return IBancorNetwork(payable(addressOf(BANCOR_NETWORK)));\n    }\n\n    /**\n     * @dev returns the network settings contract\n     *\n     * @return the network settings contract\n     */\n    function networkSetting() private view returns (INetworkSettings) {\n        return INetworkSettings(addressOf(NETWORK_SETTINGS));\n    }\n\n    /**\n     * @dev returns the network fee wallet\n     *\n     * @return the network fee wallet\n     */\n    function networkFeeWallet() private view returns (ITokenHolder) {\n        return ITokenHolder(networkSetting().networkFeeWallet());\n    }\n}\n",
  "sourcePath": "D:\\Work Space\\bancor_project\\core\\contracts\\vortex\\VortexBurner.sol",
  "compiler": {
    "name": "solc",
    "version": "0.6.12+commit.27d51765.Emscripten.clang"
  },
  "schemaVersion": "3.4.3",
  "updatedAt": "2021-08-23T03:19:30.318Z",
  "devdoc": {
    "details": "This contract provides any user to trigger a network fee burning event",
    "events": {
      "BurnRewardUpdated(uint32,uint32,uint256,uint256)": {
        "details": "triggered when the burn reward has been changed",
        "params": {
          "newBurnReward": "the new burn reward (in units of PPM)",
          "newMaxBurnRewardAmount": "the new maximum burn reward",
          "prevBurnReward": "the previous burn reward (in units of PPM)",
          "prevMaxBurnRewardAmount": "the previous maximum burn reward"
        }
      },
      "Burned(address[],uint256,uint256)": {
        "details": "triggered after a completed burning event",
        "params": {
          "burnedAmount": "the total burned amount in the burning event",
          "reserveTokens": "the converted reserve tokens",
          "sourceAmount": "the total network token amount the tokens were converted to"
        }
      },
      "Converted(address,uint256,uint256)": {
        "details": "triggered during conversion of a single token during the burning event",
        "params": {
          "reserveToken": "the converted reserve token",
          "sourceAmount": "the amount of the converted reserve token",
          "targetAmount": "the network token amount the token were converted to"
        }
      }
    },
    "kind": "dev",
    "methods": {
      "acceptNetworkFeeOwnership()": {
        "details": "accepts the ownership of he network fee wallet"
      },
      "acceptOwnership()": {
        "details": "used by a new owner to accept an ownership transfer"
      },
      "burn(address[])": {
        "details": "converts the provided tokens to governance tokens and burns them",
        "params": {
          "reserveTokens": "the reserve tokens to convert"
        }
      },
      "burnReward()": {
        "details": "returns the burn reward percentage and its maximum amount",
        "returns": {
          "_0": "the burn reward percentage and its maximum amount"
        }
      },
      "constructor": {
        "details": "initializes a new VortexBurner contract",
        "params": {
          "govTokenGovernance": "the address of the governance token security module",
          "networkToken": "the address of the network token",
          "registry": "the address of the contract registry"
        }
      },
      "restoreRegistry()": {
        "details": "restores the previous contract-registry"
      },
      "restrictRegistryUpdate(bool)": {
        "details": "restricts the permission to update the contract-registry",
        "params": {
          "_onlyOwnerCanUpdateRegistry": "indicates whether or not permission is restricted to owner only"
        }
      },
      "setBurnReward(uint32,uint256)": {
        "details": "allows the owner to set the burn reward percentage and its maximum amount",
        "params": {
          "newBurnReward": "the percentage of the converted network tokens to be sent to the caller of the burning event (in units of PPM)",
          "newMaxBurnRewardAmount": "the maximum burn reward to be sent to the caller of the burning event"
        }
      },
      "totalBurnedAmount()": {
        "details": "returns the total amount of the burned governance tokens",
        "returns": {
          "_0": "total amount of the burned governance tokens"
        }
      },
      "transferNetworkFeeWalletOwnership(address)": {
        "details": "transfers the ownership of the network fee wallet",
        "params": {
          "newOwner": "the new owner of the network fee wallet"
        }
      },
      "transferOwnership(address)": {
        "details": "allows transferring the contract ownership the new owner still needs to accept the transfer can only be called by the contract owner",
        "params": {
          "_newOwner": "new contract owner"
        }
      },
      "updateRegistry()": {
        "details": "updates to the new contract-registry"
      }
    },
    "version": 1
  },
  "userdoc": {
    "kind": "user",
    "methods": {},
    "version": 1
  }
}