{
  "contractName": "Whitelist",
  "abi": [
    {
      "anonymous": false,
      "inputs": [
        {
          "indexed": true,
          "internalType": "address",
          "name": "_address",
          "type": "address"
        }
      ],
      "name": "AddressAddition",
      "type": "event"
    },
    {
      "anonymous": false,
      "inputs": [
        {
          "indexed": true,
          "internalType": "address",
          "name": "_address",
          "type": "address"
        }
      ],
      "name": "AddressRemoval",
      "type": "event"
    },
    {
      "anonymous": false,
      "inputs": [
        {
          "indexed": true,
          "internalType": "address",
          "name": "_prevOwner",
          "type": "address"
        },
        {
          "indexed": true,
          "internalType": "address",
          "name": "_newOwner",
          "type": "address"
        }
      ],
      "name": "OwnerUpdate",
      "type": "event"
    },
    {
      "inputs": [],
      "name": "acceptOwnership",
      "outputs": [],
      "stateMutability": "nonpayable",
      "type": "function"
    },
    {
      "inputs": [],
      "name": "newOwner",
      "outputs": [
        {
          "internalType": "address",
          "name": "",
          "type": "address"
        }
      ],
      "stateMutability": "view",
      "type": "function"
    },
    {
      "inputs": [],
      "name": "owner",
      "outputs": [
        {
          "internalType": "address",
          "name": "",
          "type": "address"
        }
      ],
      "stateMutability": "view",
      "type": "function"
    },
    {
      "inputs": [
        {
          "internalType": "address",
          "name": "_newOwner",
          "type": "address"
        }
      ],
      "name": "transferOwnership",
      "outputs": [],
      "stateMutability": "nonpayable",
      "type": "function"
    },
    {
      "inputs": [
        {
          "internalType": "address",
          "name": "_address",
          "type": "address"
        }
      ],
      "name": "isWhitelisted",
      "outputs": [
        {
          "internalType": "bool",
          "name": "",
          "type": "bool"
        }
      ],
      "stateMutability": "view",
      "type": "function"
    },
    {
      "inputs": [
        {
          "internalType": "address",
          "name": "_address",
          "type": "address"
        }
      ],
      "name": "addAddress",
      "outputs": [],
      "stateMutability": "nonpayable",
      "type": "function"
    },
    {
      "inputs": [
        {
          "internalType": "address[]",
          "name": "_addresses",
          "type": "address[]"
        }
      ],
      "name": "addAddresses",
      "outputs": [],
      "stateMutability": "nonpayable",
      "type": "function"
    },
    {
      "inputs": [
        {
          "internalType": "address",
          "name": "_address",
          "type": "address"
        }
      ],
      "name": "removeAddress",
      "outputs": [],
      "stateMutability": "nonpayable",
      "type": "function"
    },
    {
      "inputs": [
        {
          "internalType": "address[]",
          "name": "_addresses",
          "type": "address[]"
        }
      ],
      "name": "removeAddresses",
      "outputs": [],
      "stateMutability": "nonpayable",
      "type": "function"
    }
  ],
  "bytecode": "0x608060405234801561001057600080fd5b50336000806101000a81548173ffffffffffffffffffffffffffffffffffffffff021916908373ffffffffffffffffffffffffffffffffffffffff160217905550610b6a806100606000396000f3fe608060405234801561001057600080fd5b50600436106100935760003560e01c806379ba50971161006657806379ba5097146102325780638da5cb5b1461023c578063a84eb99914610270578063d4ee1d9014610328578063f2fde38b1461035c57610093565b80633628731c1461009857806338eada1c146101505780633af32abf146101945780634ba79dfe146101ee575b600080fd5b61014e600480360360208110156100ae57600080fd5b81019080803590602001906401000000008111156100cb57600080fd5b8201836020820111156100dd57600080fd5b803590602001918460208302840111640100000000831117156100ff57600080fd5b919080806020026020016040519081016040528093929190818152602001838360200280828437600081840152601f19601f8201169050808301925050505050505091929192905050506103a0565b005b6101926004803603602081101561016657600080fd5b81019080803573ffffffffffffffffffffffffffffffffffffffff1690602001909291905050506103d9565b005b6101d6600480360360208110156101aa57600080fd5b81019080803573ffffffffffffffffffffffffffffffffffffffff1690602001909291905050506104e2565b60405180821515815260200191505060405180910390f35b6102306004803603602081101561020457600080fd5b81019080803573ffffffffffffffffffffffffffffffffffffffff169060200190929190505050610538565b005b61023a610635565b005b61024461083a565b604051808273ffffffffffffffffffffffffffffffffffffffff16815260200191505060405180910390f35b6103266004803603602081101561028657600080fd5b81019080803590602001906401000000008111156102a357600080fd5b8201836020820111156102b557600080fd5b803590602001918460208302840111640100000000831117156102d757600080fd5b919080806020026020016040519081016040528093929190818152602001838360200280828437600081840152601f19601f82011690508083019250505050505050919291929050505061085e565b005b610330610897565b604051808273ffffffffffffffffffffffffffffffffffffffff16815260200191505060405180910390f35b61039e6004803603602081101561037257600080fd5b81019080803573ffffffffffffffffffffffffffffffffffffffff1690602001909291905050506108bd565b005b60005b81518110156103d5576103c88282815181106103bb57fe5b60200260200101516103d9565b80806001019150506103a3565b5050565b6103e16109cb565b806103eb81610a8e565b600260008373ffffffffffffffffffffffffffffffffffffffff1673ffffffffffffffffffffffffffffffffffffffff16815260200190815260200160002060009054906101000a900460ff1615610442576104de565b6001600260008473ffffffffffffffffffffffffffffffffffffffff1673ffffffffffffffffffffffffffffffffffffffff16815260200190815260200160002060006101000a81548160ff0219169083151502179055508173ffffffffffffffffffffffffffffffffffffffff167f2c51f80053e9ee7518567e43b2f8e8b48f50cf10daede6d11893df9ad49e4a8a60405160405180910390a25b5050565b6000600260008373ffffffffffffffffffffffffffffffffffffffff1673ffffffffffffffffffffffffffffffffffffffff16815260200190815260200160002060009054906101000a900460ff169050919050565b6105406109cb565b600260008273ffffffffffffffffffffffffffffffffffffffff1673ffffffffffffffffffffffffffffffffffffffff16815260200190815260200160002060009054906101000a900460ff1661059657610632565b6000600260008373ffffffffffffffffffffffffffffffffffffffff1673ffffffffffffffffffffffffffffffffffffffff16815260200190815260200160002060006101000a81548160ff0219169083151502179055508073ffffffffffffffffffffffffffffffffffffffff167f7ec2df28665f8610f9b1d2f74faae35dbc6bd58684a1194a6dfc31584953f03b60405160405180910390a25b50565b600160009054906101000a900473ffffffffffffffffffffffffffffffffffffffff1673ffffffffffffffffffffffffffffffffffffffff163373ffffffffffffffffffffffffffffffffffffffff16146106f8576040517f08c379a00000000000000000000000000000000000000000000000000000000081526004018080602001828103825260118152602001807f4552525f4143434553535f44454e49454400000000000000000000000000000081525060200191505060405180910390fd5b600160009054906101000a900473ffffffffffffffffffffffffffffffffffffffff1673ffffffffffffffffffffffffffffffffffffffff1660008054906101000a900473ffffffffffffffffffffffffffffffffffffffff1673ffffffffffffffffffffffffffffffffffffffff167f343765429aea5a34b3ff6a3785a98a5abb2597aca87bfbb58632c173d585373a60405160405180910390a3600160009054906101000a900473ffffffffffffffffffffffffffffffffffffffff166000806101000a81548173ffffffffffffffffffffffffffffffffffffffff021916908373ffffffffffffffffffffffffffffffffffffffff1602179055506000600160006101000a81548173ffffffffffffffffffffffffffffffffffffffff021916908373ffffffffffffffffffffffffffffffffffffffff160217905550565b60008054906101000a900473ffffffffffffffffffffffffffffffffffffffff1681565b60005b81518110156108935761088682828151811061087957fe5b6020026020010151610538565b8080600101915050610861565b5050565b600160009054906101000a900473ffffffffffffffffffffffffffffffffffffffff1681565b6108c56109cb565b60008054906101000a900473ffffffffffffffffffffffffffffffffffffffff1673ffffffffffffffffffffffffffffffffffffffff168173ffffffffffffffffffffffffffffffffffffffff161415610987576040517f08c379a000000000000000000000000000000000000000000000000000000000815260040180806020018281038252600e8152602001807f4552525f53414d455f4f574e455200000000000000000000000000000000000081525060200191505060405180910390fd5b80600160006101000a81548173ffffffffffffffffffffffffffffffffffffffff021916908373ffffffffffffffffffffffffffffffffffffffff16021790555050565b60008054906101000a900473ffffffffffffffffffffffffffffffffffffffff1673ffffffffffffffffffffffffffffffffffffffff163373ffffffffffffffffffffffffffffffffffffffff1614610a8c576040517f08c379a00000000000000000000000000000000000000000000000000000000081526004018080602001828103825260118152602001807f4552525f4143434553535f44454e49454400000000000000000000000000000081525060200191505060405180910390fd5b565b600073ffffffffffffffffffffffffffffffffffffffff168173ffffffffffffffffffffffffffffffffffffffff161415610b31576040517f08c379a00000000000000000000000000000000000000000000000000000000081526004018080602001828103825260138152602001807f4552525f494e56414c49445f414444524553530000000000000000000000000081525060200191505060405180910390fd5b5056fea2646970667358221220753db80d7beb8d32799ba5c7b13d9c9eecc76db8adca186b9565803b95b373b264736f6c634300060c0033",
  "immutableReferences": {},
  "source": "// SPDX-License-Identifier: SEE LICENSE IN LICENSE\npragma solidity 0.6.12;\nimport \"./Owned.sol\";\nimport \"./Utils.sol\";\nimport \"./interfaces/IWhitelist.sol\";\n\n/**\n * @dev This contract manages a list of whitelisted addresses.\n */\ncontract Whitelist is IWhitelist, Owned, Utils {\n    mapping(address => bool) private whitelist;\n\n    /**\n     * @dev triggered when an address is added to the whitelist\n     *\n     * @param _address address that's added from the whitelist\n     */\n    event AddressAddition(address indexed _address);\n\n    /**\n     * @dev triggered when an address is removed from the whitelist\n     *\n     * @param _address address that's removed from the whitelist\n     */\n    event AddressRemoval(address indexed _address);\n\n    /**\n     * @dev returns true if a given address is whitelisted, false if not\n     *\n     * @param _address address to check\n     *\n     * @return true if the address is whitelisted, false if not\n     */\n    function isWhitelisted(address _address) public view override returns (bool) {\n        return whitelist[_address];\n    }\n\n    /**\n     * @dev adds a given address to the whitelist\n     *\n     * @param _address address to add\n     */\n    function addAddress(address _address) public ownerOnly validAddress(_address) {\n        // checks if the address is already whitelisted\n        if (whitelist[_address]) {\n            return;\n        }\n\n        whitelist[_address] = true;\n        emit AddressAddition(_address);\n    }\n\n    /**\n     * @dev adds a list of addresses to the whitelist\n     *\n     * @param _addresses addresses to add\n     */\n    function addAddresses(address[] memory _addresses) public {\n        for (uint256 i = 0; i < _addresses.length; i++) {\n            addAddress(_addresses[i]);\n        }\n    }\n\n    /**\n     * @dev removes a given address from the whitelist\n     *\n     * @param _address address to remove\n     */\n    function removeAddress(address _address) public ownerOnly {\n        // checks if the address is actually whitelisted\n        if (!whitelist[_address]) {\n            return;\n        }\n\n        whitelist[_address] = false;\n        emit AddressRemoval(_address);\n    }\n\n    /**\n     * @dev removes a list of addresses from the whitelist\n     *\n     * @param _addresses addresses to remove\n     */\n    function removeAddresses(address[] memory _addresses) public {\n        for (uint256 i = 0; i < _addresses.length; i++) {\n            removeAddress(_addresses[i]);\n        }\n    }\n}\n",
  "sourcePath": "D:\\Work Space\\bancor_project\\core\\contracts\\utility\\Whitelist.sol",
  "compiler": {
    "name": "solc",
    "version": "0.6.12+commit.27d51765.Emscripten.clang"
  },
  "schemaVersion": "3.4.3",
  "updatedAt": "2021-08-23T03:19:30.302Z",
  "devdoc": {
    "details": "This contract manages a list of whitelisted addresses.",
    "events": {
      "AddressAddition(address)": {
        "details": "triggered when an address is added to the whitelist",
        "params": {
          "_address": "address that's added from the whitelist"
        }
      },
      "AddressRemoval(address)": {
        "details": "triggered when an address is removed from the whitelist",
        "params": {
          "_address": "address that's removed from the whitelist"
        }
      }
    },
    "kind": "dev",
    "methods": {
      "acceptOwnership()": {
        "details": "used by a new owner to accept an ownership transfer"
      },
      "addAddress(address)": {
        "details": "adds a given address to the whitelist",
        "params": {
          "_address": "address to add"
        }
      },
      "addAddresses(address[])": {
        "details": "adds a list of addresses to the whitelist",
        "params": {
          "_addresses": "addresses to add"
        }
      },
      "isWhitelisted(address)": {
        "details": "returns true if a given address is whitelisted, false if not",
        "params": {
          "_address": "address to check"
        },
        "returns": {
          "_0": "true if the address is whitelisted, false if not"
        }
      },
      "removeAddress(address)": {
        "details": "removes a given address from the whitelist",
        "params": {
          "_address": "address to remove"
        }
      },
      "removeAddresses(address[])": {
        "details": "removes a list of addresses from the whitelist",
        "params": {
          "_addresses": "addresses to remove"
        }
      },
      "transferOwnership(address)": {
        "details": "allows transferring the contract ownership the new owner still needs to accept the transfer can only be called by the contract owner",
        "params": {
          "_newOwner": "new contract owner"
        }
      }
    },
    "version": 1
  },
  "userdoc": {
    "kind": "user",
    "methods": {},
    "version": 1
  }
}